{
  "abi": [
    {
      "inputs": [
        {
          "internalType": "string",
          "name": "name",
          "type": "string"
        },
        {
          "internalType": "string",
          "name": "symbol",
          "type": "string"
        },
        {
          "internalType": "address",
          "name": "newOwner",
          "type": "address"
        }
      ],
      "stateMutability": "nonpayable",
      "type": "constructor"
    },
    {
      "inputs": [
        {
          "internalType": "uint256",
          "name": "dataKeysLength",
          "type": "uint256"
        },
        {
          "internalType": "uint256",
          "name": "dataValuesLength",
          "type": "uint256"
        }
      ],
      "name": "ERC725Y_DataKeysValuesLengthMismatch",
      "type": "error"
    },
    {
      "inputs": [],
      "name": "LSP4TokenNameNotEditable",
      "type": "error"
    },
    {
      "inputs": [],
      "name": "LSP4TokenSymbolNotEditable",
      "type": "error"
    },
    {
      "inputs": [],
      "name": "LSP8CannotSendToAddressZero",
      "type": "error"
    },
    {
      "inputs": [],
      "name": "LSP8CannotSendToSelf",
      "type": "error"
    },
    {
      "inputs": [],
      "name": "LSP8CannotUseAddressZeroAsOperator",
      "type": "error"
    },
    {
      "inputs": [],
      "name": "LSP8InvalidTransferBatch",
      "type": "error"
    },
    {
      "inputs": [
        {
          "internalType": "bytes32",
          "name": "tokenId",
          "type": "bytes32"
        }
      ],
      "name": "LSP8NonExistentTokenId",
      "type": "error"
    },
    {
      "inputs": [
        {
          "internalType": "address",
          "name": "operator",
          "type": "address"
        },
        {
          "internalType": "bytes32",
          "name": "tokenId",
          "type": "bytes32"
        }
      ],
      "name": "LSP8NonExistingOperator",
      "type": "error"
    },
    {
      "inputs": [
        {
          "internalType": "bytes32",
          "name": "tokenId",
          "type": "bytes32"
        },
        {
          "internalType": "address",
          "name": "caller",
          "type": "address"
        }
      ],
      "name": "LSP8NotTokenOperator",
      "type": "error"
    },
    {
      "inputs": [
        {
          "internalType": "address",
          "name": "tokenOwner",
          "type": "address"
        },
        {
          "internalType": "bytes32",
          "name": "tokenId",
          "type": "bytes32"
        },
        {
          "internalType": "address",
          "name": "caller",
          "type": "address"
        }
      ],
      "name": "LSP8NotTokenOwner",
      "type": "error"
    },
    {
      "inputs": [
        {
          "internalType": "address",
          "name": "tokenReceiver",
          "type": "address"
        }
      ],
      "name": "LSP8NotifyTokenReceiverContractMissingLSP1Interface",
      "type": "error"
    },
    {
      "inputs": [
        {
          "internalType": "address",
          "name": "tokenReceiver",
          "type": "address"
        }
      ],
      "name": "LSP8NotifyTokenReceiverIsEOA",
      "type": "error"
    },
    {
      "inputs": [
        {
          "internalType": "address",
          "name": "operator",
          "type": "address"
        },
        {
          "internalType": "bytes32",
          "name": "tokenId",
          "type": "bytes32"
        }
      ],
      "name": "LSP8OperatorAlreadyAuthorized",
      "type": "error"
    },
    {
      "inputs": [
        {
          "internalType": "bytes32",
          "name": "tokenId",
          "type": "bytes32"
        }
      ],
      "name": "LSP8TokenIdAlreadyMinted",
      "type": "error"
    },
    {
      "anonymous": false,
      "inputs": [
        {
          "indexed": true,
          "internalType": "address",
          "name": "operator",
          "type": "address"
        },
        {
          "indexed": true,
          "internalType": "address",
          "name": "tokenOwner",
          "type": "address"
        },
        {
          "indexed": true,
          "internalType": "bytes32",
          "name": "tokenId",
          "type": "bytes32"
        }
      ],
      "name": "AuthorizedOperator",
      "type": "event"
    },
    {
      "anonymous": false,
      "inputs": [
        {
          "indexed": true,
          "internalType": "bytes32",
          "name": "dataKey",
          "type": "bytes32"
        },
        {
          "indexed": false,
          "internalType": "bytes",
          "name": "dataValue",
          "type": "bytes"
        }
      ],
      "name": "DataChanged",
      "type": "event"
    },
    {
      "anonymous": false,
      "inputs": [
        {
          "indexed": true,
          "internalType": "address",
          "name": "previousOwner",
          "type": "address"
        },
        {
          "indexed": true,
          "internalType": "address",
          "name": "newOwner",
          "type": "address"
        }
      ],
      "name": "OwnershipTransferred",
      "type": "event"
    },
    {
      "anonymous": false,
      "inputs": [
        {
          "indexed": true,
          "internalType": "address",
          "name": "operator",
          "type": "address"
        },
        {
          "indexed": true,
          "internalType": "address",
          "name": "tokenOwner",
          "type": "address"
        },
        {
          "indexed": true,
          "internalType": "bytes32",
          "name": "tokenId",
          "type": "bytes32"
        }
      ],
      "name": "RevokedOperator",
      "type": "event"
    },
    {
      "anonymous": false,
      "inputs": [
        {
          "indexed": false,
          "internalType": "address",
          "name": "operator",
          "type": "address"
        },
        {
          "indexed": true,
          "internalType": "address",
          "name": "from",
          "type": "address"
        },
        {
          "indexed": true,
          "internalType": "address",
          "name": "to",
          "type": "address"
        },
        {
          "indexed": true,
          "internalType": "bytes32",
          "name": "tokenId",
          "type": "bytes32"
        },
        {
          "indexed": false,
          "internalType": "bool",
          "name": "force",
          "type": "bool"
        },
        {
          "indexed": false,
          "internalType": "bytes",
          "name": "data",
          "type": "bytes"
        }
      ],
      "name": "Transfer",
      "type": "event"
    },
    {
      "inputs": [
        {
          "internalType": "address",
          "name": "operator",
          "type": "address"
        },
        {
          "internalType": "bytes32",
          "name": "tokenId",
          "type": "bytes32"
        }
      ],
      "name": "authorizeOperator",
      "outputs": [],
      "stateMutability": "nonpayable",
      "type": "function"
    },
    {
      "inputs": [
        {
          "internalType": "address",
          "name": "tokenOwner",
          "type": "address"
        }
      ],
      "name": "balanceOf",
      "outputs": [
        {
          "internalType": "uint256",
          "name": "",
          "type": "uint256"
        }
      ],
      "stateMutability": "view",
      "type": "function"
    },
    {
      "inputs": [
        {
          "internalType": "bytes32",
          "name": "tokenId",
          "type": "bytes32"
        },
        {
          "internalType": "bytes",
          "name": "data",
          "type": "bytes"
        }
      ],
      "name": "burn",
      "outputs": [],
      "stateMutability": "nonpayable",
      "type": "function"
    },
    {
      "inputs": [
        {
          "internalType": "bytes32[]",
          "name": "dataKeys",
          "type": "bytes32[]"
        }
      ],
      "name": "getData",
      "outputs": [
        {
          "internalType": "bytes[]",
          "name": "dataValues",
          "type": "bytes[]"
        }
      ],
      "stateMutability": "view",
      "type": "function"
    },
    {
      "inputs": [
        {
          "internalType": "bytes32",
          "name": "dataKey",
          "type": "bytes32"
        }
      ],
      "name": "getData",
      "outputs": [
        {
          "internalType": "bytes",
          "name": "dataValue",
          "type": "bytes"
        }
      ],
      "stateMutability": "view",
      "type": "function"
    },
    {
      "inputs": [
        {
          "internalType": "bytes32",
          "name": "tokenId",
          "type": "bytes32"
        }
      ],
      "name": "getOperatorsOf",
      "outputs": [
        {
          "internalType": "address[]",
          "name": "",
          "type": "address[]"
        }
      ],
      "stateMutability": "view",
      "type": "function"
    },
    {
      "inputs": [
        {
          "internalType": "address",
          "name": "operator",
          "type": "address"
        },
        {
          "internalType": "bytes32",
          "name": "tokenId",
          "type": "bytes32"
        }
      ],
      "name": "isOperatorFor",
      "outputs": [
        {
          "internalType": "bool",
          "name": "",
          "type": "bool"
        }
      ],
      "stateMutability": "view",
      "type": "function"
    },
    {
      "inputs": [
        {
          "internalType": "address",
          "name": "to",
          "type": "address"
        },
        {
          "internalType": "bytes32",
          "name": "tokenId",
          "type": "bytes32"
        },
        {
          "internalType": "bool",
          "name": "force",
          "type": "bool"
        },
        {
          "internalType": "bytes",
          "name": "data",
          "type": "bytes"
        }
      ],
      "name": "mint",
      "outputs": [],
      "stateMutability": "nonpayable",
      "type": "function"
    },
    {
      "inputs": [],
      "name": "owner",
      "outputs": [
        {
          "internalType": "address",
          "name": "",
          "type": "address"
        }
      ],
      "stateMutability": "view",
      "type": "function"
    },
    {
      "inputs": [],
      "name": "renounceOwnership",
      "outputs": [],
      "stateMutability": "nonpayable",
      "type": "function"
    },
    {
      "inputs": [
        {
          "internalType": "address",
          "name": "operator",
          "type": "address"
        },
        {
          "internalType": "bytes32",
          "name": "tokenId",
          "type": "bytes32"
        }
      ],
      "name": "revokeOperator",
      "outputs": [],
      "stateMutability": "nonpayable",
      "type": "function"
    },
    {
      "inputs": [
        {
          "internalType": "bytes32[]",
          "name": "dataKeys",
          "type": "bytes32[]"
        },
        {
          "internalType": "bytes[]",
          "name": "dataValues",
          "type": "bytes[]"
        }
      ],
      "name": "setData",
      "outputs": [],
      "stateMutability": "nonpayable",
      "type": "function"
    },
    {
      "inputs": [
        {
          "internalType": "bytes32",
          "name": "dataKey",
          "type": "bytes32"
        },
        {
          "internalType": "bytes",
          "name": "dataValue",
          "type": "bytes"
        }
      ],
      "name": "setData",
      "outputs": [],
      "stateMutability": "nonpayable",
      "type": "function"
    },
    {
      "inputs": [
        {
          "internalType": "bytes4",
          "name": "interfaceId",
          "type": "bytes4"
        }
      ],
      "name": "supportsInterface",
      "outputs": [
        {
          "internalType": "bool",
          "name": "",
          "type": "bool"
        }
      ],
      "stateMutability": "view",
      "type": "function"
    },
    {
      "inputs": [
        {
          "internalType": "address",
          "name": "tokenOwner",
          "type": "address"
        }
      ],
      "name": "tokenIdsOf",
      "outputs": [
        {
          "internalType": "bytes32[]",
          "name": "",
          "type": "bytes32[]"
        }
      ],
      "stateMutability": "view",
      "type": "function"
    },
    {
      "inputs": [
        {
          "internalType": "bytes32",
          "name": "tokenId",
          "type": "bytes32"
        }
      ],
      "name": "tokenOwnerOf",
      "outputs": [
        {
          "internalType": "address",
          "name": "",
          "type": "address"
        }
      ],
      "stateMutability": "view",
      "type": "function"
    },
    {
      "inputs": [],
      "name": "totalSupply",
      "outputs": [
        {
          "internalType": "uint256",
          "name": "",
          "type": "uint256"
        }
      ],
      "stateMutability": "view",
      "type": "function"
    },
    {
      "inputs": [
        {
          "internalType": "address",
          "name": "from",
          "type": "address"
        },
        {
          "internalType": "address",
          "name": "to",
          "type": "address"
        },
        {
          "internalType": "bytes32",
          "name": "tokenId",
          "type": "bytes32"
        },
        {
          "internalType": "bool",
          "name": "force",
          "type": "bool"
        },
        {
          "internalType": "bytes",
          "name": "data",
          "type": "bytes"
        }
      ],
      "name": "transfer",
      "outputs": [],
      "stateMutability": "nonpayable",
      "type": "function"
    },
    {
      "inputs": [
        {
          "internalType": "address[]",
          "name": "from",
          "type": "address[]"
        },
        {
          "internalType": "address[]",
          "name": "to",
          "type": "address[]"
        },
        {
          "internalType": "bytes32[]",
          "name": "tokenId",
          "type": "bytes32[]"
        },
        {
          "internalType": "bool[]",
          "name": "force",
          "type": "bool[]"
        },
        {
          "internalType": "bytes[]",
          "name": "data",
          "type": "bytes[]"
        }
      ],
      "name": "transferBatch",
      "outputs": [],
      "stateMutability": "nonpayable",
      "type": "function"
    },
    {
      "inputs": [
        {
          "internalType": "address",
          "name": "newOwner",
          "type": "address"
        }
      ],
      "name": "transferOwnership",
      "outputs": [],
      "stateMutability": "nonpayable",
      "type": "function"
    }
  ],
  "bytecode": {
    "object": "0x60806040523480156200001157600080fd5b506040516200260138038062002601833981016040819052620000349162000322565b828282828282806001600160a01b038116620000a55760405162461bcd60e51b815260206004820152602660248201527f4f776e61626c653a206e6577206f776e657220697320746865207a65726f206160448201526564647265737360d01b606482015260840160405180910390fd5b620000bb816200019560201b620009301760201c565b50620001127feafec4d89fa9619884b60000a4d96624a38f7ac2d8d9a604ecf07c12c77e480c60001b604051806040016040528060048152602001632936598960e21b815250620001fc60201b620009951760201c565b6200014c7fdeba1e292f8ba88238e10ab3c7f88bd4be4fac56cad5194b6ecceaf653468af160001b84620001fc60201b620009951760201c565b620001867f2f0a68ab07768e01943a599e73362a0e17a63a72e94dd2e384d2c1d4db93275660001b83620001fc60201b620009951760201c565b5050505050505050506200053f565b6000546001600160a01b03828116911614620001f957600080546001600160a01b038381166001600160a01b0319831681178455604051919092169283917f8be0079c531659141344cd1fd0a4f28419497f9722a3daafe3b4186f6b6457e09190a3505b50565b60008281526001602052604090206200021682826200043e565b50817fece574603820d07bc9b91f2a932baadf4628aabcb8afba49776529c14a6104b2826040516200024991906200050a565b60405180910390a25050565b634e487b7160e01b600052604160045260246000fd5b60005b83811015620002885781810151838201526020016200026e565b50506000910152565b600082601f830112620002a357600080fd5b81516001600160401b0380821115620002c057620002c062000255565b604051601f8301601f19908116603f01168101908282118183101715620002eb57620002eb62000255565b816040528381528660208588010111156200030557600080fd5b620003188460208301602089016200026b565b9695505050505050565b6000806000606084860312156200033857600080fd5b83516001600160401b03808211156200035057600080fd5b6200035e8783880162000291565b945060208601519150808211156200037557600080fd5b50620003848682870162000291565b604086015190935090506001600160a01b0381168114620003a457600080fd5b809150509250925092565b600181811c90821680620003c457607f821691505b602082108103620003e557634e487b7160e01b600052602260045260246000fd5b50919050565b601f8211156200043957600081815260208120601f850160051c81016020861015620004145750805b601f850160051c820191505b81811015620004355782815560010162000420565b5050505b505050565b81516001600160401b038111156200045a576200045a62000255565b62000472816200046b8454620003af565b84620003eb565b602080601f831160018114620004aa5760008415620004915750858301515b600019600386901b1c1916600185901b17855562000435565b600085815260208120601f198616915b82811015620004db57888601518255948401946001909101908401620004ba565b5085821015620004fa5787850151600019600388901b60f8161c191681555b5050505050600190811b01905550565b60208152600082518060208401526200052b8160408501602087016200026b565b601f01601f19169190910160400192915050565b6120b2806200054f6000396000f3fe608060405234801561001057600080fd5b506004361061012c5760003560e01c80636c79b70b116100ad5780638da5cb5b116100715780638da5cb5b14610298578063a3b261f2146102a9578063af255b61146102c9578063cf5182ba146102dc578063f2fde38b146102ef57600080fd5b80636c79b70b1461024457806370a0823114610257578063715018a61461026a5780637e87632c146102725780637f23690c1461028557600080fd5b80632a3654a4116100f45780632a3654a4146101be57806349a6078d146101d15780634e3e6e9c146101f1578063511b69521461021157806354f6127f1461022457600080fd5b806301ffc9a7146101315780630b0c6d821461015957806314a6e2931461016e57806318160ddd14610181578063217b227014610193575b600080fd5b61014461013f3660046116d0565b610302565b60405190151581526020015b60405180910390f35b61016c610167366004611716565b61032d565b005b61016c61017c36600461190b565b6103da565b6002545b604051908152602001610150565b6101a66101a136600461196e565b610466565b6040516001600160a01b039091168152602001610150565b6101446101cc366004611716565b61049f565b6101e46101df36600461196e565b6104bb565b6040516101509190611987565b6102046101ff3660046119d4565b6104dd565b6040516101509190611a58565b61016c61021f366004611aca565b610590565b61023761023236600461196e565b6105df565b6040516101509190611b42565b61016c610252366004611b55565b6105ea565b610185610265366004611b91565b610628565b61016c610649565b61016c610280366004611c70565b61065d565b61016c610293366004611b55565b61074c565b6000546001600160a01b03166101a6565b6102bc6102b7366004611b91565b61075e565b6040516101509190611d34565b61016c6102d7366004611d6c565b610782565b61016c6102ea366004611716565b61078e565b61016c6102fd366004611b91565b6108b7565b60006001600160e01b0319821663622e7a0160e01b14806103275750610327826109ea565b92915050565b600061033882610466565b9050336001600160a01b038216811461038357604051632d938f5160e11b81526001600160a01b03808416600483015260248201859052821660448201526064015b60405180910390fd5b6001600160a01b0384166103aa57604051639577b8b360e01b815260040160405180910390fd5b836001600160a01b0316826001600160a01b0316036103c95750505050565b6103d4848385610a1f565b50505050565b6103e2610ab0565b805182511461041157815181516040516321d1e13360e11b81526004810192909252602482015260440161037a565b60005b82518110156104615761045983828151811061043257610432611dd3565b602002602001015183838151811061044c5761044c611dd3565b6020026020010151610b19565b600101610414565b505050565b6000818152600360205260408120546001600160a01b03168061032757604051635747cd1b60e11b81526004810184905260240161037a565b60006104aa82610c01565b6104b48383610c39565b9392505050565b60606104c682610c01565b600082815260056020526040902061032790610c82565b606081516001600160401b038111156104f8576104f8611740565b60405190808252806020026020018201604052801561052b57816020015b60608152602001906001900390816105165790505b50905060005b825181101561058a5761055c83828151811061054f5761054f611dd3565b6020026020010151610c8f565b82828151811061056e5761056e611dd3565b60200260200101819052506105838160010190565b9050610531565b50919050565b3361059b8185610c39565b6105ca57604051631294d2a960e01b8152600481018590526001600160a01b038216602482015260440161037a565b6105d78686868686610d31565b505050505050565b606061032782610c8f565b6105f43383610c39565b61061a57604051631294d2a960e01b81526004810183905233602482015260440161037a565b6106248282610ebb565b5050565b6001600160a01b038116600090815260046020526040812061032790610f81565b610651610ab0565b61065b6000610930565b565b8451845181141580610670575083518114155b8061067c575082518114155b80610688575081518114155b156106a6576040516393a8311960e01b815260040160405180910390fd5b60005b818110156107435761073b8782815181106106c6576106c6611dd3565b60200260200101518783815181106106e0576106e0611dd3565b60200260200101518784815181106106fa576106fa611dd3565b602002602001015187858151811061071457610714611dd3565b602002602001015187868151811061072e5761072e611dd3565b6020026020010151610590565b6001016106a9565b50505050505050565b610754610ab0565b6106248282610b19565b6001600160a01b038116600090815260046020526040902060609061032790610f8b565b6103d484848484610f96565b600061079982610466565b9050336001600160a01b03821681146107df57604051632d938f5160e11b81526001600160a01b038084166004830152602482018590528216604482015260640161037a565b6001600160a01b03841661080657604051639577b8b360e01b815260040160405180910390fd5b836001600160a01b0316826001600160a01b0316036108255750505050565b600083815260056020526040812061083d90866110b0565b90508061086f576040516314ec4d6d60e31b81526001600160a01b03861660048201526024810185905260440161037a565b83836001600160a01b0316866001600160a01b03167f34b797fc5a526f7bf1d2b5de25f6564fd85ae364e3ee939aee7c1ac27871a98860405160405180910390a45050505050565b6108bf610ab0565b6001600160a01b0381166109245760405162461bcd60e51b815260206004820152602660248201527f4f776e61626c653a206e6577206f776e657220697320746865207a65726f206160448201526564647265737360d01b606482015260840161037a565b61092d81610930565b50565b6000546001600160a01b0382811691161461092d57600080546001600160a01b038381166001600160a01b0319831681178455604051919092169283917f8be0079c531659141344cd1fd0a4f28419497f9722a3daafe3b4186f6b6457e09190a35050565b60008281526001602052604090206109ad8282611e63565b50817fece574603820d07bc9b91f2a932baadf4628aabcb8afba49776529c14a6104b2826040516109de9190611b42565b60405180910390a25050565b60006001600160e01b03198216631c537ddf60e21b148061032757506301ffc9a760e01b6001600160e01b0319831614610327565b6000818152600560205260408120610a3790856110c5565b905080610a69576040516312a8c6a360e21b81526001600160a01b03851660048201526024810183905260440161037a565b81836001600160a01b0316856001600160a01b03167f17d5389f6ab6adb2647dfa0aa365c323d37adacc30b33a65310b6158ce1373d560405160405180910390a450505050565b33610ac36000546001600160a01b031690565b6001600160a01b03161461065b5760405162461bcd60e51b815260206004820181905260248201527f4f776e61626c653a2063616c6c6572206973206e6f7420746865206f776e6572604482015260640161037a565b7f2145e1d6d074577dc71ef54c3807742b41b053a9352ae6b491331509acb9750f8201610b59576040516385c169bd60e01b815260040160405180910390fd5b7fd0f59754f88971fe6bc5a6618cc9d5f1e859c58d16b22d1c7b2d3e2b246cd8aa8201610b9957604051630eceab6760e31b815260040160405180910390fd5b6000828152600160205260409020610bb18282611e63565b50817fece574603820d07bc9b91f2a932baadf4628aabcb8afba49776529c14a6104b261010083511115610bf257610bed8360006101006110da565b610bf4565b825b6040516109de9190611b42565b6000818152600360205260409020546001600160a01b031661092d57604051635747cd1b60e11b81526004810182905260240161037a565b600080610c4583610466565b9050806001600160a01b0316846001600160a01b03161480610c7a57506000838152600560205260409020610c7a90856111e7565b949350505050565b606060006104b483611209565b6000818152600160205260409020805460609190610cac90611de9565b80601f0160208091040260200160405190810160405280929190818152602001828054610cd890611de9565b8015610d255780601f10610cfa57610100808354040283529160200191610d25565b820191906000526020600020905b815481529060010190602001808311610d0857829003601f168201915b50505050509050919050565b836001600160a01b0316856001600160a01b031603610d6357604051635d67d6c160e01b815260040160405180910390fd5b6000610d6e84610466565b9050856001600160a01b0316816001600160a01b031614610dbc57604051632d938f5160e11b81526001600160a01b038083166004830152602482018690528716604482015260640161037a565b6001600160a01b038516610de3576040516324ecef4d60e01b815260040160405180910390fd5b33610dee8786611264565b6001600160a01b0387166000908152600460205260409020610e1090866112ab565b506001600160a01b0386166000908152600460205260409020610e3390866112b7565b506000858152600360205260409081902080546001600160a01b0319166001600160a01b0389811691821790925591518792918a16907fb333c813a7426a7a11e2b190cad52c44119421594b47f6f32ace6d8c7207b2bf90610e9a9086908a908a90611f22565b60405180910390a4610eae878787866112c3565b6107438787878787611397565b6000610ec683610466565b905033600160026000828254610edc9190611f6d565b90915550610eec90508285611264565b6001600160a01b0382166000908152600460205260409020610f0e90856112ab565b5060008481526003602052604080822080546001600160a01b0319169055518591906001600160a01b038516907fb333c813a7426a7a11e2b190cad52c44119421594b47f6f32ace6d8c7207b2bf90610f6c90869085908a90611f22565b60405180910390a46103d482600086866112c3565b6000610327825490565b606061032782611209565b6001600160a01b038416610fbd576040516324ecef4d60e01b815260040160405180910390fd5b6000838152600360205260409020546001600160a01b031615610ff6576040516334c7b51160e01b81526004810184905260240161037a565b3360016002600082825461100a9190611f80565b90915550506001600160a01b038516600090815260046020526040902061103190856112b7565b5060008481526003602052604080822080546001600160a01b0319166001600160a01b03891690811790915590518692907fb333c813a7426a7a11e2b190cad52c44119421594b47f6f32ace6d8c7207b2bf9061109390869089908990611f22565b60405180910390a46110a9600086868686611397565b5050505050565b60006104b4836001600160a01b0384166114cf565b60006104b4836001600160a01b03841661151e565b6060816110e881601f611f80565b10156111275760405162461bcd60e51b815260206004820152600e60248201526d736c6963655f6f766572666c6f7760901b604482015260640161037a565b6111318284611f80565b845110156111755760405162461bcd60e51b8152602060048201526011602482015270736c6963655f6f75744f66426f756e647360781b604482015260640161037a565b60608215801561119457604051915060008252602082016040526111de565b6040519150601f8416801560200281840101858101878315602002848b0101015b818310156111cd5780518352602092830192016111b5565b5050858452601f01601f1916604052505b50949350505050565b6001600160a01b038116600090815260018301602052604081205415156104b4565b606081600001805480602002602001604051908101604052809291908181526020018280548015610d2557602002820191906000526020600020905b8154815260200190600101908083116112455750505050509050919050565b60008181526005602052604081209061127c82610f81565b905060005b818110156110a95760006112958482611611565b90506112a2818787610a1f565b50600101611281565b60006104b4838361151e565b60006104b483836114cf565b6112d484631aed5a8560e21b61161d565b156103d4576000848484846040516020016112f29493929190611f93565b60408051601f1981840301815290829052631aed5a8560e21b825291506001600160a01b03861690636bb56a1490611350907fb23eae7e6d1564b295b4c3e3be402d9a2f0776c57bdf365903496f6fa481ab00908590600401611fe0565b6000604051808303816000875af115801561136f573d6000803e3d6000fd5b505050506040513d6000823e601f3d908101601f191682016040526105d79190810190611ff9565b6113a884631aed5a8560e21b61161d565b15611472576000858585846040516020016113c69493929190611f93565b60408051601f1981840301815290829052631aed5a8560e21b825291506001600160a01b03861690636bb56a1490611424907f0b084a55ebf70fd3c06fd755269dac2212c4d3f0f4d09079780bfa50c1b2984d908590600401611fe0565b6000604051808303816000875af1158015611443573d6000803e3d6000fd5b505050506040513d6000823e601f3d908101601f1916820160405261146b9190810190611ff9565b50506110a9565b816110a9576001600160a01b0384163b156114ab57604051634349776d60e01b81526001600160a01b038516600482015260240161037a565b604051630317313760e01b81526001600160a01b038516600482015260240161037a565b600081815260018301602052604081205461151657508154600181810184556000848152602080822090930184905584548482528286019093526040902091909155610327565b506000610327565b60008181526001830160205260408120548015611607576000611542600183611f6d565b855490915060009061155690600190611f6d565b90508181146115bb57600086600001828154811061157657611576611dd3565b906000526020600020015490508087600001848154811061159957611599611dd3565b6000918252602080832090910192909255918252600188019052604090208390555b85548690806115cc576115cc612066565b600190038181906000526020600020016000905590558560010160008681526020019081526020016000206000905560019350505050610327565b6000915050610327565b60006104b483836116a6565b604080516001600160e01b03198316602480830191909152825180830390910181526044909101909152602080820180516001600160e01b03166301ffc9a760e01b178152825160009392849283928392918391908a617530fa92503d9150600051905082801561168f575060208210155b801561169b5750600081115b979650505050505050565b60008260000182815481106116bd576116bd611dd3565b9060005260206000200154905092915050565b6000602082840312156116e257600080fd5b81356001600160e01b0319811681146104b457600080fd5b80356001600160a01b038116811461171157600080fd5b919050565b6000806040838503121561172957600080fd5b611732836116fa565b946020939093013593505050565b634e487b7160e01b600052604160045260246000fd5b604051601f8201601f191681016001600160401b038111828210171561177e5761177e611740565b604052919050565b60006001600160401b0382111561179f5761179f611740565b5060051b60200190565b600082601f8301126117ba57600080fd5b813560206117cf6117ca83611786565b611756565b82815260059290921b840181019181810190868411156117ee57600080fd5b8286015b8481101561180957803583529183019183016117f2565b509695505050505050565b60006001600160401b0382111561182d5761182d611740565b50601f01601f191660200190565b600082601f83011261184c57600080fd5b813561185a6117ca82611814565b81815284602083860101111561186f57600080fd5b816020850160208301376000918101602001919091529392505050565b600082601f83011261189d57600080fd5b813560206118ad6117ca83611786565b82815260059290921b840181019181810190868411156118cc57600080fd5b8286015b848110156118095780356001600160401b038111156118ef5760008081fd5b6118fd8986838b010161183b565b8452509183019183016118d0565b6000806040838503121561191e57600080fd5b82356001600160401b038082111561193557600080fd5b611941868387016117a9565b9350602085013591508082111561195757600080fd5b506119648582860161188c565b9150509250929050565b60006020828403121561198057600080fd5b5035919050565b6020808252825182820181905260009190848201906040850190845b818110156119c85783516001600160a01b0316835292840192918401916001016119a3565b50909695505050505050565b6000602082840312156119e657600080fd5b81356001600160401b038111156119fc57600080fd5b610c7a848285016117a9565b60005b83811015611a23578181015183820152602001611a0b565b50506000910152565b60008151808452611a44816020860160208601611a08565b601f01601f19169290920160200192915050565b6000602080830181845280855180835260408601915060408160051b870101925083870160005b82811015611aad57603f19888603018452611a9b858351611a2c565b94509285019290850190600101611a7f565b5092979650505050505050565b8035801515811461171157600080fd5b600080600080600060a08688031215611ae257600080fd5b611aeb866116fa565b9450611af9602087016116fa565b935060408601359250611b0e60608701611aba565b915060808601356001600160401b03811115611b2957600080fd5b611b358882890161183b565b9150509295509295909350565b6020815260006104b46020830184611a2c565b60008060408385031215611b6857600080fd5b8235915060208301356001600160401b03811115611b8557600080fd5b6119648582860161183b565b600060208284031215611ba357600080fd5b6104b4826116fa565b600082601f830112611bbd57600080fd5b81356020611bcd6117ca83611786565b82815260059290921b84018101918181019086841115611bec57600080fd5b8286015b8481101561180957611c01816116fa565b8352918301918301611bf0565b600082601f830112611c1f57600080fd5b81356020611c2f6117ca83611786565b82815260059290921b84018101918181019086841115611c4e57600080fd5b8286015b8481101561180957611c6381611aba565b8352918301918301611c52565b600080600080600060a08688031215611c8857600080fd5b85356001600160401b0380821115611c9f57600080fd5b611cab89838a01611bac565b96506020880135915080821115611cc157600080fd5b611ccd89838a01611bac565b95506040880135915080821115611ce357600080fd5b611cef89838a016117a9565b94506060880135915080821115611d0557600080fd5b611d1189838a01611c0e565b93506080880135915080821115611d2757600080fd5b50611b358882890161188c565b6020808252825182820181905260009190848201906040850190845b818110156119c857835183529284019291840191600101611d50565b60008060008060808587031215611d8257600080fd5b611d8b856116fa565b935060208501359250611da060408601611aba565b915060608501356001600160401b03811115611dbb57600080fd5b611dc78782880161183b565b91505092959194509250565b634e487b7160e01b600052603260045260246000fd5b600181811c90821680611dfd57607f821691505b60208210810361058a57634e487b7160e01b600052602260045260246000fd5b601f82111561046157600081815260208120601f850160051c81016020861015611e445750805b601f850160051c820191505b818110156105d757828155600101611e50565b81516001600160401b03811115611e7c57611e7c611740565b611e9081611e8a8454611de9565b84611e1d565b602080601f831160018114611ec55760008415611ead5750858301515b600019600386901b1c1916600185901b1785556105d7565b600085815260208120601f198616915b82811015611ef457888601518255948401946001909101908401611ed5565b5085821015611f125787850151600019600388901b60f8161c191681555b5050505050600190811b01905550565b6001600160a01b03841681528215156020820152606060408201819052600090611f4e90830184611a2c565b95945050505050565b634e487b7160e01b600052601160045260246000fd5b8181038181111561032757610327611f57565b8082018082111561032757610327611f57565b60006bffffffffffffffffffffffff19808760601b168352808660601b166014840152508360288301528251611fd0816048850160208701611a08565b9190910160480195945050505050565b828152604060208201526000610c7a6040830184611a2c565b60006020828403121561200b57600080fd5b81516001600160401b0381111561202157600080fd5b8201601f8101841361203257600080fd5b80516120406117ca82611814565b81815285602083850101111561205557600080fd5b611f4e826020830160208601611a08565b634e487b7160e01b600052603160045260246000fdfea2646970667358221220d06ee01bb0fe99705fb2663773dcc3f8409806d47761eec8d07778dfa992fce064736f6c63430008110033",
    "linkReferences": {}
  },
  "methodIdentifiers": {
    "authorizeOperator(address,bytes32)": "cf5182ba",
    "balanceOf(address)": "70a08231",
    "burn(bytes32,bytes)": "6c79b70b",
    "getData(bytes32)": "54f6127f",
    "getData(bytes32[])": "4e3e6e9c",
    "getOperatorsOf(bytes32)": "49a6078d",
    "isOperatorFor(address,bytes32)": "2a3654a4",
    "mint(address,bytes32,bool,bytes)": "af255b61",
    "owner()": "8da5cb5b",
    "renounceOwnership()": "715018a6",
    "revokeOperator(address,bytes32)": "0b0c6d82",
    "setData(bytes32,bytes)": "7f23690c",
    "setData(bytes32[],bytes[])": "14a6e293",
    "supportsInterface(bytes4)": "01ffc9a7",
    "tokenIdsOf(address)": "a3b261f2",
    "tokenOwnerOf(bytes32)": "217b2270",
    "totalSupply()": "18160ddd",
    "transfer(address,address,bytes32,bool,bytes)": "511b6952",
    "transferBatch(address[],address[],bytes32[],bool[],bytes[])": "7e87632c",
    "transferOwnership(address)": "f2fde38b"
  },
  "id": 141
}