{
  "abi": [
    {
      "inputs": [
        {
          "internalType": "address",
          "name": "newOwner",
          "type": "address"
        }
      ],
      "stateMutability": "payable",
      "type": "constructor"
    },
    {
      "inputs": [],
      "name": "CannotTransferOwnershipToSelf",
      "type": "error"
    },
    {
      "inputs": [],
      "name": "ERC725X_ContractDeploymentFailed",
      "type": "error"
    },
    {
      "inputs": [],
      "name": "ERC725X_CreateOperationsRequireEmptyRecipientAddress",
      "type": "error"
    },
    {
      "inputs": [],
      "name": "ERC725X_ExecuteParametersLengthMismatch",
      "type": "error"
    },
    {
      "inputs": [
        {
          "internalType": "uint256",
          "name": "balance",
          "type": "uint256"
        },
        {
          "internalType": "uint256",
          "name": "value",
          "type": "uint256"
        }
      ],
      "name": "ERC725X_InsufficientBalance",
      "type": "error"
    },
    {
      "inputs": [],
      "name": "ERC725X_MsgValueDisallowedInDelegateCall",
      "type": "error"
    },
    {
      "inputs": [],
      "name": "ERC725X_MsgValueDisallowedInStaticCall",
      "type": "error"
    },
    {
      "inputs": [],
      "name": "ERC725X_NoContractBytecodeProvided",
      "type": "error"
    },
    {
      "inputs": [
        {
          "internalType": "uint256",
          "name": "operationTypeProvided",
          "type": "uint256"
        }
      ],
      "name": "ERC725X_UnknownOperationType",
      "type": "error"
    },
    {
      "inputs": [
        {
          "internalType": "uint256",
          "name": "dataKeysLength",
          "type": "uint256"
        },
        {
          "internalType": "uint256",
          "name": "dataValuesLength",
          "type": "uint256"
        }
      ],
      "name": "ERC725Y_DataKeysValuesLengthMismatch",
      "type": "error"
    },
    {
      "inputs": [
        {
          "internalType": "uint256",
          "name": "renounceOwnershipStart",
          "type": "uint256"
        },
        {
          "internalType": "uint256",
          "name": "renounceOwnershipEnd",
          "type": "uint256"
        }
      ],
      "name": "NotInRenounceOwnershipInterval",
      "type": "error"
    },
    {
      "anonymous": false,
      "inputs": [
        {
          "indexed": true,
          "internalType": "uint256",
          "name": "operationType",
          "type": "uint256"
        },
        {
          "indexed": true,
          "internalType": "address",
          "name": "contractAddress",
          "type": "address"
        },
        {
          "indexed": true,
          "internalType": "uint256",
          "name": "value",
          "type": "uint256"
        },
        {
          "indexed": false,
          "internalType": "bytes32",
          "name": "salt",
          "type": "bytes32"
        }
      ],
      "name": "ContractCreated",
      "type": "event"
    },
    {
      "anonymous": false,
      "inputs": [
        {
          "indexed": true,
          "internalType": "bytes32",
          "name": "dataKey",
          "type": "bytes32"
        },
        {
          "indexed": false,
          "internalType": "bytes",
          "name": "dataValue",
          "type": "bytes"
        }
      ],
      "name": "DataChanged",
      "type": "event"
    },
    {
      "anonymous": false,
      "inputs": [
        {
          "indexed": true,
          "internalType": "uint256",
          "name": "operationType",
          "type": "uint256"
        },
        {
          "indexed": true,
          "internalType": "address",
          "name": "target",
          "type": "address"
        },
        {
          "indexed": true,
          "internalType": "uint256",
          "name": "value",
          "type": "uint256"
        },
        {
          "indexed": false,
          "internalType": "bytes4",
          "name": "selector",
          "type": "bytes4"
        }
      ],
      "name": "Executed",
      "type": "event"
    },
    {
      "anonymous": false,
      "inputs": [],
      "name": "OwnershipRenounced",
      "type": "event"
    },
    {
      "anonymous": false,
      "inputs": [
        {
          "indexed": true,
          "internalType": "address",
          "name": "previousOwner",
          "type": "address"
        },
        {
          "indexed": true,
          "internalType": "address",
          "name": "newOwner",
          "type": "address"
        }
      ],
      "name": "OwnershipTransferStarted",
      "type": "event"
    },
    {
      "anonymous": false,
      "inputs": [
        {
          "indexed": true,
          "internalType": "address",
          "name": "previousOwner",
          "type": "address"
        },
        {
          "indexed": true,
          "internalType": "address",
          "name": "newOwner",
          "type": "address"
        }
      ],
      "name": "OwnershipTransferred",
      "type": "event"
    },
    {
      "anonymous": false,
      "inputs": [],
      "name": "RenounceOwnershipInitiated",
      "type": "event"
    },
    {
      "anonymous": false,
      "inputs": [
        {
          "indexed": true,
          "internalType": "address",
          "name": "from",
          "type": "address"
        },
        {
          "indexed": true,
          "internalType": "uint256",
          "name": "value",
          "type": "uint256"
        },
        {
          "indexed": true,
          "internalType": "bytes32",
          "name": "typeId",
          "type": "bytes32"
        },
        {
          "indexed": false,
          "internalType": "bytes",
          "name": "receivedData",
          "type": "bytes"
        },
        {
          "indexed": false,
          "internalType": "bytes",
          "name": "returnedValue",
          "type": "bytes"
        }
      ],
      "name": "UniversalReceiver",
      "type": "event"
    },
    {
      "anonymous": false,
      "inputs": [
        {
          "indexed": true,
          "internalType": "address",
          "name": "sender",
          "type": "address"
        },
        {
          "indexed": true,
          "internalType": "uint256",
          "name": "value",
          "type": "uint256"
        }
      ],
      "name": "ValueReceived",
      "type": "event"
    },
    {
      "stateMutability": "payable",
      "type": "fallback"
    },
    {
      "inputs": [],
      "name": "acceptOwnership",
      "outputs": [],
      "stateMutability": "nonpayable",
      "type": "function"
    },
    {
      "inputs": [
        {
          "internalType": "uint256[]",
          "name": "operationsType",
          "type": "uint256[]"
        },
        {
          "internalType": "address[]",
          "name": "targets",
          "type": "address[]"
        },
        {
          "internalType": "uint256[]",
          "name": "values",
          "type": "uint256[]"
        },
        {
          "internalType": "bytes[]",
          "name": "datas",
          "type": "bytes[]"
        }
      ],
      "name": "execute",
      "outputs": [
        {
          "internalType": "bytes[]",
          "name": "",
          "type": "bytes[]"
        }
      ],
      "stateMutability": "payable",
      "type": "function"
    },
    {
      "inputs": [
        {
          "internalType": "uint256",
          "name": "operationType",
          "type": "uint256"
        },
        {
          "internalType": "address",
          "name": "target",
          "type": "address"
        },
        {
          "internalType": "uint256",
          "name": "value",
          "type": "uint256"
        },
        {
          "internalType": "bytes",
          "name": "data",
          "type": "bytes"
        }
      ],
      "name": "execute",
      "outputs": [
        {
          "internalType": "bytes",
          "name": "",
          "type": "bytes"
        }
      ],
      "stateMutability": "payable",
      "type": "function"
    },
    {
      "inputs": [
        {
          "internalType": "bytes32[]",
          "name": "dataKeys",
          "type": "bytes32[]"
        }
      ],
      "name": "getData",
      "outputs": [
        {
          "internalType": "bytes[]",
          "name": "dataValues",
          "type": "bytes[]"
        }
      ],
      "stateMutability": "view",
      "type": "function"
    },
    {
      "inputs": [
        {
          "internalType": "bytes32",
          "name": "dataKey",
          "type": "bytes32"
        }
      ],
      "name": "getData",
      "outputs": [
        {
          "internalType": "bytes",
          "name": "dataValue",
          "type": "bytes"
        }
      ],
      "stateMutability": "view",
      "type": "function"
    },
    {
      "inputs": [
        {
          "internalType": "bytes32",
          "name": "dataHash",
          "type": "bytes32"
        },
        {
          "internalType": "bytes",
          "name": "signature",
          "type": "bytes"
        }
      ],
      "name": "isValidSignature",
      "outputs": [
        {
          "internalType": "bytes4",
          "name": "magicValue",
          "type": "bytes4"
        }
      ],
      "stateMutability": "view",
      "type": "function"
    },
    {
      "inputs": [],
      "name": "owner",
      "outputs": [
        {
          "internalType": "address",
          "name": "",
          "type": "address"
        }
      ],
      "stateMutability": "view",
      "type": "function"
    },
    {
      "inputs": [],
      "name": "pendingOwner",
      "outputs": [
        {
          "internalType": "address",
          "name": "",
          "type": "address"
        }
      ],
      "stateMutability": "view",
      "type": "function"
    },
    {
      "inputs": [],
      "name": "renounceOwnership",
      "outputs": [],
      "stateMutability": "nonpayable",
      "type": "function"
    },
    {
      "inputs": [
        {
          "internalType": "bytes32[]",
          "name": "dataKeys",
          "type": "bytes32[]"
        },
        {
          "internalType": "bytes[]",
          "name": "dataValues",
          "type": "bytes[]"
        }
      ],
      "name": "setData",
      "outputs": [],
      "stateMutability": "nonpayable",
      "type": "function"
    },
    {
      "inputs": [
        {
          "internalType": "bytes32",
          "name": "dataKey",
          "type": "bytes32"
        },
        {
          "internalType": "bytes",
          "name": "dataValue",
          "type": "bytes"
        }
      ],
      "name": "setData",
      "outputs": [],
      "stateMutability": "nonpayable",
      "type": "function"
    },
    {
      "inputs": [
        {
          "internalType": "bytes4",
          "name": "interfaceId",
          "type": "bytes4"
        }
      ],
      "name": "supportsInterface",
      "outputs": [
        {
          "internalType": "bool",
          "name": "",
          "type": "bool"
        }
      ],
      "stateMutability": "view",
      "type": "function"
    },
    {
      "inputs": [
        {
          "internalType": "address",
          "name": "_newOwner",
          "type": "address"
        }
      ],
      "name": "transferOwnership",
      "outputs": [],
      "stateMutability": "nonpayable",
      "type": "function"
    },
    {
      "inputs": [
        {
          "internalType": "bytes32",
          "name": "typeId",
          "type": "bytes32"
        },
        {
          "internalType": "bytes",
          "name": "receivedData",
          "type": "bytes"
        }
      ],
      "name": "universalReceiver",
      "outputs": [
        {
          "internalType": "bytes",
          "name": "",
          "type": "bytes"
        }
      ],
      "stateMutability": "payable",
      "type": "function"
    },
    {
      "stateMutability": "payable",
      "type": "receive"
    }
  ],
  "bytecode": {
    "object": "0x608060405260405162002965380380620029658339810160408190526200002691620000aa565b6200003c816200004360201b620007981760201c565b50620000dc565b6000546001600160a01b03828116911614620000a757600080546001600160a01b038381166001600160a01b0319831681178455604051919092169283917f8be0079c531659141344cd1fd0a4f28419497f9722a3daafe3b4186f6b6457e09190a3505b50565b600060208284031215620000bd57600080fd5b81516001600160a01b0381168114620000d557600080fd5b9392505050565b61287980620000ec6000396000f3fe6080604052600436106100e15760003560e01c80636bb56a141161007f5780637f23690c116100595780637f23690c146102735780638da5cb5b14610293578063e30c3978146102c5578063f2fde38b146102e35761010a565b80636bb56a1414610236578063715018a61461024957806379ba50971461025e5761010a565b80631626ba7e116100bb5780631626ba7e146101a957806344c028fe146101d65780634e3e6e9c146101f657806354f6127f146102165761010a565b806301ffc9a71461013457806313ced88d1461016957806314a6e293146101895761010a565b3661010a573415610108576040513490339060008051602061282483398151915290600090a35b005b341561012c576040513490339060008051602061282483398151915290600090a35b610108610303565b34801561014057600080fd5b5061015461014f366004611eaa565b610371565b60405190151581526020015b60405180910390f35b61017c6101773660046120ae565b6103fc565b6040516101609190612205565b34801561019557600080fd5b506101086101a4366004612267565b61043f565b3480156101b557600080fd5b506101c96101c43660046122ca565b6104cb565b6040516101609190612306565b6101e96101e436600461231b565b6105cc565b604051610160919061236f565b34801561020257600080fd5b5061017c610211366004612382565b610604565b34801561022257600080fd5b506101e96102313660046123b6565b6106b7565b6101e96102443660046123cf565b6106c2565b34801561025557600080fd5b50610108610754565b34801561026a57600080fd5b50610108610766565b34801561027f57600080fd5b5061010861028e3660046122ca565b61076e565b34801561029f57600080fd5b506000546001600160a01b03165b6040516001600160a01b039091168152602001610160565b3480156102d157600080fd5b506003546001600160a01b03166102ad565b3480156102ef57600080fd5b506101086102fe36600461244a565b610784565b600436101561030e57565b60006103256000356001600160e01b0319166107fd565b90506001600160a01b0381166103385750565b36600080373360601b365234601436015260008060343601600080855af13d6000803e808015610367573d6000f35b3d6000fd5b505050565b60006001600160e01b03198216630b135d3f60e11b14806103a257506001600160e01b03198216636676749760e01b145b806103bd57506001600160e01b03198216631aed5a8560e21b145b806103d857506001600160e01b031982166394be599960e01b145b806103e757506103e782610842565b806103f657506103f682610867565b92915050565b606061040661089d565b3415610428576040513490339060008051602061282483398151915290600090a35b61043485858585610906565b90505b949350505050565b61044761089d565b805182511461047b57815181516040516321d1e13360e11b8152600481019290925260248201526044015b60405180910390fd5b60005b825181101561036c576104c383828151811061049c5761049c612465565b60200260200101518383815181106104b6576104b6612465565b6020026020010151610a4a565b60010161047e565b6000806104e06000546001600160a01b031690565b90506001600160a01b0381163b1561058c5761050381630b135d3f60e11b610abe565b610515576001600160e01b0319610584565b604051630b135d3f60e11b81526001600160a01b03821690631626ba7e90610543908790879060040161247b565b602060405180830381865afa158015610560573d6000803e3d6000fd5b505050506040513d601f19601f820116820180604052508101906105849190612494565b9150506103f6565b6105968484610b52565b6001600160a01b0316816001600160a01b0316146105bc576001600160e01b0319610584565b50630b135d3f60e11b9392505050565b60606105d661089d565b34156105f8576040513490339060008051602061282483398151915290600090a35b61043485858585610b76565b606081516001600160401b0381111561061f5761061f611ec7565b60405190808252806020026020018201604052801561065257816020015b606081526020019060019003908161063d5790505b50905060005b82518110156106b15761068383828151811061067657610676612465565b6020026020010151610c81565b82828151811061069557610695612465565b60200260200101819052506106aa8160010190565b9050610658565b50919050565b60606103f682610c81565b60607f116583f6db08bf5d35cc2a6480f3d6d67de1567c831fbc316e3e7dc163b1ad40840161073f57336001600160a01b03166379ba50976040518163ffffffff1660e01b8152600401600060405180830381600087803b15801561072657600080fd5b505af115801561073a573d6000803e3d6000fd5b505050505b61074a848484610d23565b90505b9392505050565b61075c61089d565b610764610ead565b565b610764610f85565b61077661089d565b6107808282610a4a565b5050565b61078c61089d565b61079581611092565b50565b6000546001600160a01b0382811691161461079557600080546001600160a01b038381166001600160a01b0319831681178455604051919092169283917f8be0079c531659141344cd1fd0a4f28419497f9722a3daafe3b4186f6b6457e09190a35050565b600080610821696773c5a04a6d4300884b60b11b6001600160e01b031985166111ee565b9050600061082e82610c81565b610837906124b1565b60601c949350505050565b60006001600160e01b0319821663a918fa6b60e01b14806103f657506103f68261123a565b60008061087a6301ffc9a760e01b6107fd565b90506001600160a01b0381166108935750600092915050565b61074d8184610abe565b336108b06000546001600160a01b031690565b6001600160a01b0316146107645760405162461bcd60e51b815260206004820181905260248201527f4f776e61626c653a2063616c6c6572206973206e6f7420746865206f776e65726044820152606401610472565b60608351855114158061092757508251845114158061092757508151835114155b1561094557604051633ff55f4d60e01b815260040160405180910390fd5b600085516001600160401b0381111561096057610960611ec7565b60405190808252806020026020018201604052801561099357816020015b606081526020019060019003908161097e5790505b50905060005b8651811015610a4057610a128782815181106109b7576109b7612465565b60200260200101518783815181106109d1576109d1612465565b60200260200101518784815181106109eb576109eb612465565b6020026020010151878581518110610a0557610a05612465565b6020026020010151610b76565b828281518110610a2457610a24612465565b6020026020010181905250610a398160010190565b9050610999565b5095945050505050565b6000828152600160205260409020610a62828261256a565b50817fece574603820d07bc9b91f2a932baadf4628aabcb8afba49776529c14a6104b261010083511115610aa357610a9e83600061010061125f565b610aa5565b825b604051610ab2919061236f565b60405180910390a25050565b6000806301ffc9a760e01b83604051602401610ada9190612306565b604051602081830303815290604052906001600160e01b0319166020820180516001600160e01b03838183161783525050505090506000806000602060008551602087018a617530fa92503d91506000519050828015610b3b575060208210155b8015610b475750600081115b979650505050505050565b6000806000610b61858561136c565b91509150610b6e816113b1565b509392505050565b606084610b8f57610b88848484611567565b9050610437565b60018503610bc9576001600160a01b03841615610bbf57604051631820c12560e11b815260040160405180910390fd5b610b888383611685565b60028503610c03576001600160a01b03841615610bf957604051631820c12560e11b815260040160405180910390fd5b610b888383611781565b60038503610c34578215610c2a576040516339795e3560e11b815260040160405180910390fd5b610b888483611867565b60048503610c65578215610c5b57604051635ac8313560e01b815260040160405180910390fd5b610b888483611958565b604051631d60ecef60e21b815260048101869052602401610472565b6000818152600160205260409020805460609190610c9e906124e8565b80601f0160208091040260200160405190810160405280929190818152602001828054610cca906124e8565b8015610d175780601f10610cec57610100808354040283529160200191610d17565b820191906000526020600020905b815481529060010190602001808311610cfa57829003601f168201915b50505050509050919050565b60603415610d47576040513490339060008051602061282483398151915290600090a35b6000610d727f0cfc51aec37c55a4d0b1a65c6255c4bf2fbdf6277f3cc0730c45b828b6db8b47610c81565b905060606014825110610dc1576000610d8a836124b1565b60601c9050610da081631aed5a8560e21b610abe565b15610dbf57610dbc6001600160a01b03821688888833346119fd565b91505b505b6000610dda690cfc51aec37c55a4d0b160b01b886111ee565b90506000610de782610c81565b905060606014825110610e36576000610dff836124b1565b60601c9050610e1581631aed5a8560e21b610abe565b15610e3457610e316001600160a01b0382168b8b8b33346119fd565b91505b505b8381604051602001610e49929190612629565b60405160208183030381529060405295508834336001600160a01b03167f9c3ba68eb5742b8e3961aea0afc7371a71bf433c8a67a831803b64c064a178c28b8b8b604051610e9993929190612677565b60405180910390a450505050509392505050565b6002544390600090610ec1906064906126b3565b90506000610ed06064836126b3565b905080831115610f0d5760028390556040517f56272768d104766ae5e663c58927d0a9e47effb40b9a8f6644ac5dfbc9e56f8490600090a1505050565b81831015610f3857604051638b9bf50760e01b81526004810183905260248101829052604401610472565b610f426000610798565b60006002819055600380546001600160a01b03191690556040517fd1f66c3d2bc1993a86be5e3d33709d98f0442381befcedd29f578b9b2506b1ce9190a1505050565b6003546001600160a01b03163314610fed5760405162461bcd60e51b815260206004820152602560248201527f4c535031343a2063616c6c6572206973206e6f74207468652070656e64696e6760448201526427bbb732b960d91b6064820152608401610472565b6000546003546001600160a01b03918216916110099116610798565b600380546001600160a01b03191690556040805160208101909152600081526110559082907fa124442e1cc7b52d8e2ede2787d43527dc1f3ae0de87f50dd03e27a71834f74c90611b45565b610795337fe32c7debcb817925ba4883fdbfc52797187f28f73f860641dab1a68d9b32902c60001b60405180602001604052806000815250611b45565b306001600160a01b038216036110bb576040516343b248cd60e01b815260040160405180910390fd5b600380546001600160a01b0383166001600160a01b031990911617905560006110ec6000546001600160a01b031690565b9050816001600160a01b0316816001600160a01b03167f38d16b8cac22d99fc7c124b9cd0de2d3fa1faef420bfe791d8c362d765e2270060405160405180910390a361116b827fee9a7c0924f740a2ca33d59b7f0c2929821ea9837ce043ce91c1823e9c4e52c060001b60405180602001604052806000815250611b45565b6000546001600160a01b038281169116146107805760405162461bcd60e51b815260206004820152603f60248201527f4c535031343a206e65774f776e6572204d55535420616363657074206f776e6560448201527f727368697020696e2061207365706172617465207472616e73616374696f6e006064820152608401610472565b604080516001600160b01b0319841660208201526000602a82018190526001600160601b03198416602c83015291829101604051602081830303815290604052905080610437906126c6565b60006001600160e01b03198216631c537ddf60e21b14806103f657506103f682611bd6565b60608161126d81601f6126b3565b10156112ac5760405162461bcd60e51b815260206004820152600e60248201526d736c6963655f6f766572666c6f7760901b6044820152606401610472565b6112b682846126b3565b845110156112fa5760405162461bcd60e51b8152602060048201526011602482015270736c6963655f6f75744f66426f756e647360781b6044820152606401610472565b6060821580156113195760405191506000825260208201604052611363565b6040519150601f8416801560200281840101858101878315602002848b0101015b8183101561135257805183526020928301920161133a565b5050858452601f01601f1916604052505b50949350505050565b60008082516041036113a25760208301516040840151606085015160001a61139687828585611c0b565b945094505050506113aa565b506000905060025b9250929050565b60008160048111156113c5576113c56126ea565b036113cd5750565b60018160048111156113e1576113e16126ea565b0361142e5760405162461bcd60e51b815260206004820152601860248201527f45434453413a20696e76616c6964207369676e617475726500000000000000006044820152606401610472565b6002816004811115611442576114426126ea565b0361148f5760405162461bcd60e51b815260206004820152601f60248201527f45434453413a20696e76616c6964207369676e6174757265206c656e677468006044820152606401610472565b60038160048111156114a3576114a36126ea565b036114fb5760405162461bcd60e51b815260206004820152602260248201527f45434453413a20696e76616c6964207369676e6174757265202773272076616c604482015261756560f01b6064820152608401610472565b600481600481111561150f5761150f6126ea565b036107955760405162461bcd60e51b815260206004820152602260248201527f45434453413a20696e76616c6964207369676e6174757265202776272076616c604482015261756560f01b6064820152608401610472565b606082471015611593576040516301bf351f60e31b815247600482015260248101849052604401610472565b826001600160a01b03851660007f4810874456b8e6487bd861375cf6abd8e1c8bb5858c8ce36a86a04dabfac199e6115ca86612700565b6040516115d79190612306565b60405180910390a4600080856001600160a01b031685856040516115fb9190612733565b60006040518083038185875af1925050503d8060008114611638576040519150601f19603f3d011682016040523d82523d6000602084013e61163d565b606091505b509150915061167b82826040518060400160405280601681526020017522a9219b991aac1d102ab735b737bbb71022b93937b960511b815250611cf8565b9695505050505050565b6060824710156116b1576040516301bf351f60e31b815247600482015260248101849052604401610472565b81516000036116d35760405163b81cd8d960e01b815260040160405180910390fd5b600082516020840185f090506001600160a01b03811661170657604051630b07489b60e01b815260040160405180910390fd5b6040516001600160601b0319606083901b166020820152603401604051602081830303815290604052915083816001600160a01b031660017fa1fb700aaee2ae4a2ff6f91ce7eba292f89c2f5488b8ec4c5c5c8150692595c36000801b60405161177291815260200190565b60405180910390a45092915050565b606081516000036117a55760405163b81cd8d960e01b815260040160405180910390fd5b60006117be83602085516117b9919061274f565b611d31565b905060006117db846000602087516117d6919061274f565b61125f565b905060006117ea868484611d8f565b6040516001600160601b0319606083901b166020820152909150603401604051602081830303815290604052935085816001600160a01b031660027fa1fb700aaee2ae4a2ff6f91ce7eba292f89c2f5488b8ec4c5c5c8150692595c38660405161185691815260200190565b60405180910390a450505092915050565b606060006001600160a01b03841660037f4810874456b8e6487bd861375cf6abd8e1c8bb5858c8ce36a86a04dabfac199e6118a186612700565b6040516118ae9190612306565b60405180910390a4600080846001600160a01b0316846040516118d19190612733565b600060405180830381855afa9150503d806000811461190c576040519150601f19603f3d011682016040523d82523d6000602084013e611911565b606091505b509150915061194f82826040518060400160405280601681526020017522a9219b991aac1d102ab735b737bbb71022b93937b960511b815250611cf8565b95945050505050565b606060006001600160a01b03841660047f4810874456b8e6487bd861375cf6abd8e1c8bb5858c8ce36a86a04dabfac199e61199286612700565b60405161199f9190612306565b60405180910390a4600080846001600160a01b0316846040516119c29190612733565b600060405180830381855af49150503d806000811461190c576040519150601f19603f3d011682016040523d82523d6000602084013e611911565b60606000636bb56a1460e01b878787604051602401611a1e93929190612762565b60408051601f19818403018152918152602080830180516001600160e01b03166001600160e01b03199095169490941790935251611a6092879187910161277c565b6040516020818303038152906040529050600080896001600160a01b031683604051611a8c9190612733565b6000604051808303816000865af19150503d8060008114611ac9576040519150601f19603f3d011682016040523d82523d6000602084013e611ace565b606091505b5091509150611b1382826040518060400160405280602081526020017f43616c6c20746f20756e6976657273616c5265636569766572206661696c6564815250611cf8565b508051600003611b235780611b37565b80806020019051810190611b3791906127b6565b9a9950505050505050505050565b611b5683631aed5a8560e21b610abe565b1561036c57604051631aed5a8560e21b81526001600160a01b03841690636bb56a1490611b89908590859060040161247b565b6000604051808303816000875af1158015611ba8573d6000803e3d6000fd5b505050506040513d6000823e601f3d908101601f19168201604052611bd091908101906127b6565b50505050565b60006001600160e01b0319821663570ef07360e01b14806103f657506301ffc9a760e01b6001600160e01b03198316146103f6565b6000807f7fffffffffffffffffffffffffffffff5d576e7357a4501ddfe92f46681b20a0831115611c425750600090506003611cef565b8460ff16601b14158015611c5a57508460ff16601c14155b15611c6b5750600090506004611cef565b6040805160008082526020820180845289905260ff881692820192909252606081018690526080810185905260019060a0016020604051602081039080840390855afa158015611cbf573d6000803e3d6000fd5b5050604051601f1901519150506001600160a01b038116611ce857600060019250925050611cef565b9150600090505b94509492505050565b60608315611d0757508161074d565b825115611d175782518084602001fd5b8160405162461bcd60e51b8152600401610472919061236f565b6000611d3e8260206126b3565b83511015611d865760405162461bcd60e51b8152602060048201526015602482015274746f427974657333325f6f75744f66426f756e647360581b6044820152606401610472565b50016020015190565b60008084471015611de25760405162461bcd60e51b815260206004820152601d60248201527f437265617465323a20696e73756666696369656e742062616c616e63650000006044820152606401610472565b8251600003611e335760405162461bcd60e51b815260206004820181905260248201527f437265617465323a2062797465636f6465206c656e677468206973207a65726f6044820152606401610472565b8383516020850187f590506001600160a01b03811661074a5760405162461bcd60e51b815260206004820152601960248201527f437265617465323a204661696c6564206f6e206465706c6f79000000000000006044820152606401610472565b6001600160e01b03198116811461079557600080fd5b600060208284031215611ebc57600080fd5b813561074d81611e94565b634e487b7160e01b600052604160045260246000fd5b604051601f8201601f191681016001600160401b0381118282101715611f0557611f05611ec7565b604052919050565b60006001600160401b03821115611f2657611f26611ec7565b5060051b60200190565b600082601f830112611f4157600080fd5b81356020611f56611f5183611f0d565b611edd565b82815260059290921b84018101918181019086841115611f7557600080fd5b8286015b84811015611f905780358352918301918301611f79565b509695505050505050565b80356001600160a01b0381168114611fb257600080fd5b919050565b60006001600160401b03821115611fd057611fd0611ec7565b50601f01601f191660200190565b600082601f830112611fef57600080fd5b8135611ffd611f5182611fb7565b81815284602083860101111561201257600080fd5b816020850160208301376000918101602001919091529392505050565b600082601f83011261204057600080fd5b81356020612050611f5183611f0d565b82815260059290921b8401810191818101908684111561206f57600080fd5b8286015b84811015611f905780356001600160401b038111156120925760008081fd5b6120a08986838b0101611fde565b845250918301918301612073565b600080600080608085870312156120c457600080fd5b84356001600160401b03808211156120db57600080fd5b6120e788838901611f30565b95506020915081870135818111156120fe57600080fd5b8701601f8101891361210f57600080fd5b803561211d611f5182611f0d565b81815260059190911b8201840190848101908b83111561213c57600080fd5b928501925b828410156121615761215284611f9b565b82529285019290850190612141565b9750505050604087013591508082111561217a57600080fd5b61218688838901611f30565b9350606087013591508082111561219c57600080fd5b506121a98782880161202f565b91505092959194509250565b60005b838110156121d05781810151838201526020016121b8565b50506000910152565b600081518084526121f18160208601602086016121b5565b601f01601f19169290920160200192915050565b6000602080830181845280855180835260408601915060408160051b870101925083870160005b8281101561225a57603f198886030184526122488583516121d9565b9450928501929085019060010161222c565b5092979650505050505050565b6000806040838503121561227a57600080fd5b82356001600160401b038082111561229157600080fd5b61229d86838701611f30565b935060208501359150808211156122b357600080fd5b506122c08582860161202f565b9150509250929050565b600080604083850312156122dd57600080fd5b8235915060208301356001600160401b038111156122fa57600080fd5b6122c085828601611fde565b6001600160e01b031991909116815260200190565b6000806000806080858703121561233157600080fd5b8435935061234160208601611f9b565b92506040850135915060608501356001600160401b0381111561236357600080fd5b6121a987828801611fde565b60208152600061074d60208301846121d9565b60006020828403121561239457600080fd5b81356001600160401b038111156123aa57600080fd5b61043784828501611f30565b6000602082840312156123c857600080fd5b5035919050565b6000806000604084860312156123e457600080fd5b8335925060208401356001600160401b038082111561240257600080fd5b818601915086601f83011261241657600080fd5b81358181111561242557600080fd5b87602082850101111561243757600080fd5b6020830194508093505050509250925092565b60006020828403121561245c57600080fd5b61074d82611f9b565b634e487b7160e01b600052603260045260246000fd5b82815260406020820152600061074a60408301846121d9565b6000602082840312156124a657600080fd5b815161074d81611e94565b805160208201516001600160601b031980821692919060148310156124e05780818460140360031b1b83161693505b505050919050565b600181811c908216806124fc57607f821691505b6020821081036106b157634e487b7160e01b600052602260045260246000fd5b601f82111561036c57600081815260208120601f850160051c810160208610156125435750805b601f850160051c820191505b818110156125625782815560010161254f565b505050505050565b81516001600160401b0381111561258357612583611ec7565b6125978161259184546124e8565b8461251c565b602080601f8311600181146125cc57600084156125b45750858301515b600019600386901b1c1916600185901b178555612562565b600085815260208120601f198616915b828110156125fb578886015182559484019460019091019084016125dc565b50858210156126195787850151600019600388901b60f8161c191681555b5050505050600190811b01905550565b60408152600061263c60408301856121d9565b828103602084015261194f81856121d9565b81835281816020850137506000828201602090810191909152601f909101601f19169091010190565b60408152600061268b60408301858761264e565b828103602084015261167b81856121d9565b634e487b7160e01b600052601160045260246000fd5b808201808211156103f6576103f661269d565b805160208083015191908110156106b15760001960209190910360031b1b16919050565b634e487b7160e01b600052602160045260246000fd5b805160208201516001600160e01b031980821692919060048310156124e05760049290920360031b82901b161692915050565b600082516127458184602087016121b5565b9190910192915050565b818103818111156103f6576103f661269d565b83815260406020820152600061043460408301848661264e565b6000845161278e8184602089016121b5565b60609490941b6001600160601b03191691909301908152601481019190915260340192915050565b6000602082840312156127c857600080fd5b81516001600160401b038111156127de57600080fd5b8201601f810184136127ef57600080fd5b80516127fd611f5182611fb7565b81815285602083850101111561281257600080fd5b61194f8260208301602086016121b556fe7e71433ddf847725166244795048ecf3e3f9f35628254ecbf736056664233493a26469706673582212204b1af95052792eecb1124e1f903d195d65b37675a8d1e432771b5921bb7b7bbc64736f6c63430008110033",
    "linkReferences": {}
  },
  "methodIdentifiers": {
    "acceptOwnership()": "79ba5097",
    "execute(uint256,address,uint256,bytes)": "44c028fe",
    "execute(uint256[],address[],uint256[],bytes[])": "13ced88d",
    "getData(bytes32)": "54f6127f",
    "getData(bytes32[])": "4e3e6e9c",
    "isValidSignature(bytes32,bytes)": "1626ba7e",
    "owner()": "8da5cb5b",
    "pendingOwner()": "e30c3978",
    "renounceOwnership()": "715018a6",
    "setData(bytes32,bytes)": "7f23690c",
    "setData(bytes32[],bytes[])": "14a6e293",
    "supportsInterface(bytes4)": "01ffc9a7",
    "transferOwnership(address)": "f2fde38b",
    "universalReceiver(bytes32,bytes)": "6bb56a14"
  },
  "id": 145
}