{
  "abi": [
    {
      "inputs": [
        {
          "internalType": "address",
          "name": "originalMsgSender",
          "type": "address"
        },
        {
          "internalType": "uint256",
          "name": "originalMsgValue",
          "type": "uint256"
        }
      ],
      "name": "checkMsgVariable",
      "outputs": [
        {
          "internalType": "bool",
          "name": "",
          "type": "bool"
        }
      ],
      "stateMutability": "pure",
      "type": "function"
    }
  ],
  "bytecode": {
    "object": "0x608060405234801561001057600080fd5b506101f9806100206000396000f3fe608060405234801561001057600080fd5b506004361061002b5760003560e01c8063e825d37d14610030575b600080fd5b61004361003e3660046100ed565b610057565b604051901515815260200160405180910390f35b60006078361461006657600080fd5b600036610074603482610125565b90610080602036610125565b9261008d93929190610146565b61009691610170565b60601c6001600160a01b0316836001600160a01b0316146100b657600080fd5b6000366100c4602082610125565b6100cf928290610146565b6100d8916101a5565b82146100e357600080fd5b5060015b92915050565b6000806040838503121561010057600080fd5b82356001600160a01b038116811461011757600080fd5b946020939093013593505050565b818103818111156100e757634e487b7160e01b600052601160045260246000fd5b6000808585111561015657600080fd5b8386111561016357600080fd5b5050820193919092039150565b6bffffffffffffffffffffffff19813581811691601485101561019d5780818660140360031b1b83161692505b505092915050565b803560208310156100e757600019602084900360031b1b169291505056fea26469706673582212208130dd9cc1ee707ad82bdfbe6b075c28c47c7520e5a8dc34dd6cc7eaf45ffc8964736f6c63430008110033",
    "linkReferences": {}
  },
  "methodIdentifiers": {
    "checkMsgVariable(address,uint256)": "e825d37d"
  },
  "id": 103
}