{
  "abi": [
    {
      "inputs": [
        {
          "internalType": "address",
          "name": "validator",
          "type": "address"
        },
        {
          "internalType": "bytes",
          "name": "dataToSign",
          "type": "bytes"
        }
      ],
      "name": "toDataWithIntendedValidator",
      "outputs": [
        {
          "internalType": "bytes32",
          "name": "",
          "type": "bytes32"
        }
      ],
      "stateMutability": "pure",
      "type": "function"
    }
  ],
  "bytecode": {
    "object": "0x608060405234801561001057600080fd5b5061020d806100206000396000f3fe608060405234801561001057600080fd5b506004361061002b5760003560e01c806392332c8614610030575b600080fd5b61004361003e3660046100b1565b610055565b60405190815260200160405180910390f35b60006100618383610068565b9392505050565b6000828260405160200161007d929190610181565b60405160208183030381529060405280519060200120905092915050565b634e487b7160e01b600052604160045260246000fd5b600080604083850312156100c457600080fd5b82356001600160a01b03811681146100db57600080fd5b9150602083013567ffffffffffffffff808211156100f857600080fd5b818501915085601f83011261010c57600080fd5b81358181111561011e5761011e61009b565b604051601f8201601f19908116603f011681019083821181831017156101465761014661009b565b8160405282815288602084870101111561015f57600080fd5b8260208601602083013760006020848301015280955050505050509250929050565b601960f81b8152606083901b6bffffffffffffffffffffffff191660028201528151600090815b818110156101c557602081860181015160168684010152016101a8565b5060009201601601918252509291505056fea2646970667358221220e2228514dab29dd448b29826fba8059e8f237da932fd32989130c7d966cdbbfc64736f6c63430008110033",
    "linkReferences": {}
  },
  "methodIdentifiers": {
    "toDataWithIntendedValidator(address,bytes)": "92332c86"
  },
  "id": 92
}