{
  "abi": [
    {
      "inputs": [],
      "stateMutability": "nonpayable",
      "type": "constructor"
    },
    {
      "inputs": [
        {
          "internalType": "uint256",
          "name": "dataKeysLength",
          "type": "uint256"
        },
        {
          "internalType": "uint256",
          "name": "dataValuesLength",
          "type": "uint256"
        }
      ],
      "name": "ERC725Y_DataKeysValuesLengthMismatch",
      "type": "error"
    },
    {
      "inputs": [],
      "name": "LSP4TokenNameNotEditable",
      "type": "error"
    },
    {
      "inputs": [],
      "name": "LSP4TokenSymbolNotEditable",
      "type": "error"
    },
    {
      "inputs": [
        {
          "internalType": "address",
          "name": "tokenOwner",
          "type": "address"
        },
        {
          "internalType": "uint256",
          "name": "authorizedAmount",
          "type": "uint256"
        },
        {
          "internalType": "address",
          "name": "operator",
          "type": "address"
        },
        {
          "internalType": "uint256",
          "name": "amount",
          "type": "uint256"
        }
      ],
      "name": "LSP7AmountExceedsAuthorizedAmount",
      "type": "error"
    },
    {
      "inputs": [
        {
          "internalType": "uint256",
          "name": "balance",
          "type": "uint256"
        },
        {
          "internalType": "address",
          "name": "tokenOwner",
          "type": "address"
        },
        {
          "internalType": "uint256",
          "name": "amount",
          "type": "uint256"
        }
      ],
      "name": "LSP7AmountExceedsBalance",
      "type": "error"
    },
    {
      "inputs": [],
      "name": "LSP7CannotSendToSelf",
      "type": "error"
    },
    {
      "inputs": [],
      "name": "LSP7CannotSendWithAddressZero",
      "type": "error"
    },
    {
      "inputs": [],
      "name": "LSP7CannotUseAddressZeroAsOperator",
      "type": "error"
    },
    {
      "inputs": [],
      "name": "LSP7InvalidTransferBatch",
      "type": "error"
    },
    {
      "inputs": [
        {
          "internalType": "address",
          "name": "tokenReceiver",
          "type": "address"
        }
      ],
      "name": "LSP7NotifyTokenReceiverContractMissingLSP1Interface",
      "type": "error"
    },
    {
      "inputs": [
        {
          "internalType": "address",
          "name": "tokenReceiver",
          "type": "address"
        }
      ],
      "name": "LSP7NotifyTokenReceiverIsEOA",
      "type": "error"
    },
    {
      "anonymous": false,
      "inputs": [
        {
          "indexed": true,
          "internalType": "address",
          "name": "owner",
          "type": "address"
        },
        {
          "indexed": true,
          "internalType": "address",
          "name": "spender",
          "type": "address"
        },
        {
          "indexed": false,
          "internalType": "uint256",
          "name": "value",
          "type": "uint256"
        }
      ],
      "name": "Approval",
      "type": "event"
    },
    {
      "anonymous": false,
      "inputs": [
        {
          "indexed": true,
          "internalType": "address",
          "name": "operator",
          "type": "address"
        },
        {
          "indexed": true,
          "internalType": "address",
          "name": "tokenOwner",
          "type": "address"
        },
        {
          "indexed": true,
          "internalType": "uint256",
          "name": "amount",
          "type": "uint256"
        }
      ],
      "name": "AuthorizedOperator",
      "type": "event"
    },
    {
      "anonymous": false,
      "inputs": [
        {
          "indexed": true,
          "internalType": "bytes32",
          "name": "dataKey",
          "type": "bytes32"
        },
        {
          "indexed": false,
          "internalType": "bytes",
          "name": "dataValue",
          "type": "bytes"
        }
      ],
      "name": "DataChanged",
      "type": "event"
    },
    {
      "anonymous": false,
      "inputs": [
        {
          "indexed": false,
          "internalType": "uint8",
          "name": "version",
          "type": "uint8"
        }
      ],
      "name": "Initialized",
      "type": "event"
    },
    {
      "anonymous": false,
      "inputs": [
        {
          "indexed": true,
          "internalType": "address",
          "name": "previousOwner",
          "type": "address"
        },
        {
          "indexed": true,
          "internalType": "address",
          "name": "newOwner",
          "type": "address"
        }
      ],
      "name": "OwnershipTransferred",
      "type": "event"
    },
    {
      "anonymous": false,
      "inputs": [
        {
          "indexed": true,
          "internalType": "address",
          "name": "operator",
          "type": "address"
        },
        {
          "indexed": true,
          "internalType": "address",
          "name": "tokenOwner",
          "type": "address"
        }
      ],
      "name": "RevokedOperator",
      "type": "event"
    },
    {
      "anonymous": false,
      "inputs": [
        {
          "indexed": true,
          "internalType": "address",
          "name": "from",
          "type": "address"
        },
        {
          "indexed": true,
          "internalType": "address",
          "name": "to",
          "type": "address"
        },
        {
          "indexed": false,
          "internalType": "uint256",
          "name": "value",
          "type": "uint256"
        }
      ],
      "name": "Transfer",
      "type": "event"
    },
    {
      "anonymous": false,
      "inputs": [
        {
          "indexed": true,
          "internalType": "address",
          "name": "operator",
          "type": "address"
        },
        {
          "indexed": true,
          "internalType": "address",
          "name": "from",
          "type": "address"
        },
        {
          "indexed": true,
          "internalType": "address",
          "name": "to",
          "type": "address"
        },
        {
          "indexed": false,
          "internalType": "uint256",
          "name": "amount",
          "type": "uint256"
        },
        {
          "indexed": false,
          "internalType": "bool",
          "name": "force",
          "type": "bool"
        },
        {
          "indexed": false,
          "internalType": "bytes",
          "name": "data",
          "type": "bytes"
        }
      ],
      "name": "Transfer",
      "type": "event"
    },
    {
      "inputs": [
        {
          "internalType": "address",
          "name": "tokenOwner",
          "type": "address"
        },
        {
          "internalType": "address",
          "name": "operator",
          "type": "address"
        }
      ],
      "name": "allowance",
      "outputs": [
        {
          "internalType": "uint256",
          "name": "",
          "type": "uint256"
        }
      ],
      "stateMutability": "view",
      "type": "function"
    },
    {
      "inputs": [
        {
          "internalType": "address",
          "name": "operator",
          "type": "address"
        },
        {
          "internalType": "uint256",
          "name": "amount",
          "type": "uint256"
        }
      ],
      "name": "approve",
      "outputs": [
        {
          "internalType": "bool",
          "name": "",
          "type": "bool"
        }
      ],
      "stateMutability": "nonpayable",
      "type": "function"
    },
    {
      "inputs": [
        {
          "internalType": "address",
          "name": "operator",
          "type": "address"
        },
        {
          "internalType": "uint256",
          "name": "amount",
          "type": "uint256"
        }
      ],
      "name": "authorizeOperator",
      "outputs": [],
      "stateMutability": "nonpayable",
      "type": "function"
    },
    {
      "inputs": [
        {
          "internalType": "address",
          "name": "operator",
          "type": "address"
        },
        {
          "internalType": "address",
          "name": "tokenOwner",
          "type": "address"
        }
      ],
      "name": "authorizedAmountFor",
      "outputs": [
        {
          "internalType": "uint256",
          "name": "",
          "type": "uint256"
        }
      ],
      "stateMutability": "view",
      "type": "function"
    },
    {
      "inputs": [
        {
          "internalType": "address",
          "name": "tokenOwner",
          "type": "address"
        }
      ],
      "name": "balanceOf",
      "outputs": [
        {
          "internalType": "uint256",
          "name": "",
          "type": "uint256"
        }
      ],
      "stateMutability": "view",
      "type": "function"
    },
    {
      "inputs": [],
      "name": "decimals",
      "outputs": [
        {
          "internalType": "uint8",
          "name": "",
          "type": "uint8"
        }
      ],
      "stateMutability": "view",
      "type": "function"
    },
    {
      "inputs": [
        {
          "internalType": "bytes32[]",
          "name": "dataKeys",
          "type": "bytes32[]"
        }
      ],
      "name": "getData",
      "outputs": [
        {
          "internalType": "bytes[]",
          "name": "dataValues",
          "type": "bytes[]"
        }
      ],
      "stateMutability": "view",
      "type": "function"
    },
    {
      "inputs": [
        {
          "internalType": "bytes32",
          "name": "dataKey",
          "type": "bytes32"
        }
      ],
      "name": "getData",
      "outputs": [
        {
          "internalType": "bytes",
          "name": "dataValue",
          "type": "bytes"
        }
      ],
      "stateMutability": "view",
      "type": "function"
    },
    {
      "inputs": [
        {
          "internalType": "string",
          "name": "name_",
          "type": "string"
        },
        {
          "internalType": "string",
          "name": "symbol_",
          "type": "string"
        },
        {
          "internalType": "address",
          "name": "newOwner_",
          "type": "address"
        }
      ],
      "name": "initialize",
      "outputs": [],
      "stateMutability": "nonpayable",
      "type": "function"
    },
    {
      "inputs": [
        {
          "internalType": "address",
          "name": "to",
          "type": "address"
        },
        {
          "internalType": "uint256",
          "name": "amount",
          "type": "uint256"
        },
        {
          "internalType": "bool",
          "name": "force",
          "type": "bool"
        },
        {
          "internalType": "bytes",
          "name": "data",
          "type": "bytes"
        }
      ],
      "name": "mint",
      "outputs": [],
      "stateMutability": "nonpayable",
      "type": "function"
    },
    {
      "inputs": [],
      "name": "name",
      "outputs": [
        {
          "internalType": "string",
          "name": "",
          "type": "string"
        }
      ],
      "stateMutability": "view",
      "type": "function"
    },
    {
      "inputs": [],
      "name": "owner",
      "outputs": [
        {
          "internalType": "address",
          "name": "",
          "type": "address"
        }
      ],
      "stateMutability": "view",
      "type": "function"
    },
    {
      "inputs": [],
      "name": "renounceOwnership",
      "outputs": [],
      "stateMutability": "nonpayable",
      "type": "function"
    },
    {
      "inputs": [
        {
          "internalType": "address",
          "name": "operator",
          "type": "address"
        }
      ],
      "name": "revokeOperator",
      "outputs": [],
      "stateMutability": "nonpayable",
      "type": "function"
    },
    {
      "inputs": [
        {
          "internalType": "bytes32[]",
          "name": "dataKeys",
          "type": "bytes32[]"
        },
        {
          "internalType": "bytes[]",
          "name": "dataValues",
          "type": "bytes[]"
        }
      ],
      "name": "setData",
      "outputs": [],
      "stateMutability": "nonpayable",
      "type": "function"
    },
    {
      "inputs": [
        {
          "internalType": "bytes32",
          "name": "dataKey",
          "type": "bytes32"
        },
        {
          "internalType": "bytes",
          "name": "dataValue",
          "type": "bytes"
        }
      ],
      "name": "setData",
      "outputs": [],
      "stateMutability": "nonpayable",
      "type": "function"
    },
    {
      "inputs": [
        {
          "internalType": "bytes4",
          "name": "interfaceId",
          "type": "bytes4"
        }
      ],
      "name": "supportsInterface",
      "outputs": [
        {
          "internalType": "bool",
          "name": "",
          "type": "bool"
        }
      ],
      "stateMutability": "view",
      "type": "function"
    },
    {
      "inputs": [],
      "name": "symbol",
      "outputs": [
        {
          "internalType": "string",
          "name": "",
          "type": "string"
        }
      ],
      "stateMutability": "view",
      "type": "function"
    },
    {
      "inputs": [],
      "name": "totalSupply",
      "outputs": [
        {
          "internalType": "uint256",
          "name": "",
          "type": "uint256"
        }
      ],
      "stateMutability": "view",
      "type": "function"
    },
    {
      "inputs": [
        {
          "internalType": "address",
          "name": "from",
          "type": "address"
        },
        {
          "internalType": "address",
          "name": "to",
          "type": "address"
        },
        {
          "internalType": "uint256",
          "name": "amount",
          "type": "uint256"
        },
        {
          "internalType": "bool",
          "name": "force",
          "type": "bool"
        },
        {
          "internalType": "bytes",
          "name": "data",
          "type": "bytes"
        }
      ],
      "name": "transfer",
      "outputs": [],
      "stateMutability": "nonpayable",
      "type": "function"
    },
    {
      "inputs": [
        {
          "internalType": "address",
          "name": "to",
          "type": "address"
        },
        {
          "internalType": "uint256",
          "name": "amount",
          "type": "uint256"
        }
      ],
      "name": "transfer",
      "outputs": [
        {
          "internalType": "bool",
          "name": "",
          "type": "bool"
        }
      ],
      "stateMutability": "nonpayable",
      "type": "function"
    },
    {
      "inputs": [
        {
          "internalType": "address[]",
          "name": "from",
          "type": "address[]"
        },
        {
          "internalType": "address[]",
          "name": "to",
          "type": "address[]"
        },
        {
          "internalType": "uint256[]",
          "name": "amount",
          "type": "uint256[]"
        },
        {
          "internalType": "bool[]",
          "name": "force",
          "type": "bool[]"
        },
        {
          "internalType": "bytes[]",
          "name": "data",
          "type": "bytes[]"
        }
      ],
      "name": "transferBatch",
      "outputs": [],
      "stateMutability": "nonpayable",
      "type": "function"
    },
    {
      "inputs": [
        {
          "internalType": "address",
          "name": "from",
          "type": "address"
        },
        {
          "internalType": "address",
          "name": "to",
          "type": "address"
        },
        {
          "internalType": "uint256",
          "name": "amount",
          "type": "uint256"
        }
      ],
      "name": "transferFrom",
      "outputs": [
        {
          "internalType": "bool",
          "name": "",
          "type": "bool"
        }
      ],
      "stateMutability": "nonpayable",
      "type": "function"
    },
    {
      "inputs": [
        {
          "internalType": "address",
          "name": "newOwner",
          "type": "address"
        }
      ],
      "name": "transferOwnership",
      "outputs": [],
      "stateMutability": "nonpayable",
      "type": "function"
    }
  ],
  "bytecode": {
    "object": "0x608060405234801561001057600080fd5b5061001961001e565b6100de565b600054610100900460ff161561008a5760405162461bcd60e51b815260206004820152602760248201527f496e697469616c697a61626c653a20636f6e747261637420697320696e697469604482015266616c697a696e6760c81b606482015260840160405180910390fd5b60005460ff90811610156100dc576000805460ff191660ff9081179091556040519081527f7f26b83ff96e1f2b6a682f133852f6798a09c465da95921460cefb38474024989060200160405180910390a15b565b6120ca80620000ee6000396000f3fe608060405234801561001057600080fd5b50600436106101585760003560e01c806365aeaa95116100c35780638da5cb5b1161007c5780638da5cb5b146102ea57806395d89b4114610314578063a9059cbb1461031c578063dd62ed3e1461032f578063f2fde38b14610342578063fad8b32a1461035557600080fd5b806365aeaa951461026d57806370a0823114610280578063715018a6146102a95780637580d920146102b1578063760d9bba146102c45780637f23690c146102d757600080fd5b806323b872dd1161011557806323b872dd146101e75780632d7667c9146101fa578063313ce5671461020d57806347980aa3146102275780634e3e6e9c1461023a57806354f6127f1461025a57600080fd5b806301ffc9a71461015d57806306fdde0314610185578063077f224a1461019a578063095ea7b3146101af57806314a6e293146101c257806318160ddd146101d5575b600080fd5b61017061016b366004611659565b610368565b60405190151581526020015b60405180910390f35b61018d610379565b60405161017c91906116d3565b6101ad6101a83660046117c5565b6103a6565b005b6101706101bd366004611838565b6104c2565b6101ad6101d036600461196a565b6104d7565b6003545b60405190815260200161017c565b6101706101f53660046119cd565b610563565b6101ad610208366004611add565b61058c565b61021561067b565b60405160ff909116815260200161017c565b6101ad610235366004611838565b610694565b61024d610248366004611bae565b6106a3565b60405161017c9190611bea565b61018d610268366004611c4c565b610756565b6101d961027b366004611c65565b610761565b6101d961028e366004611c98565b6001600160a01b031660009081526004602052604090205490565b6101ad6107c7565b6101ad6102bf366004611cb3565b6107db565b6101ad6102d2366004611d1a565b6107ef565b6101ad6102e5366004611d85565b6108c4565b6000546201000090046001600160a01b03166040516001600160a01b03909116815260200161017c565b61018d6108d6565b61017061032a366004611838565b610903565b6101d961033d366004611c65565b610922565b6101ad610350366004611c98565b610935565b6101ad610363366004611c98565b6109ae565b6000610373826109ba565b92915050565b606060006103737fdeba1e292f8ba88238e10ab3c7f88bd4be4fac56cad5194b6ecceaf653468af16109df565b600054610100900460ff16158080156103c65750600054600160ff909116105b806103e05750303b1580156103e0575060005460ff166001145b6104485760405162461bcd60e51b815260206004820152602e60248201527f496e697469616c697a61626c653a20636f6e747261637420697320616c72656160448201526d191e481a5b9a5d1a585b1a5e995960921b60648201526084015b60405180910390fd5b6000805460ff19166001179055801561046b576000805461ff0019166101001790555b610476848484610a81565b80156104bc576000805461ff0019169055604051600181527f7f26b83ff96e1f2b6a682f133852f6798a09c465da95921460cefb38474024989060200160405180910390a15b50505050565b60006104ce8383610694565b50600192915050565b6104df610ab3565b805182511461050e57815181516040516321d1e13360e11b81526004810192909252602482015260440161043f565b60005b825181101561055e5761055683828151811061052f5761052f611dc1565b602002602001015183838151811061054957610549611dc1565b6020026020010151610b14565b600101610511565b505050565b60006105828484846001604051806020016040528060008152506107ef565b5060019392505050565b845184518114158061059f575083518114155b806105ab575082518114155b806105b7575081518114155b156105d55760405163263eee8d60e01b815260040160405180910390fd5b60005b818110156106725761066a8782815181106105f5576105f5611dc1565b602002602001015187838151811061060f5761060f611dc1565b602002602001015187848151811061062957610629611dc1565b602002602001015187858151811061064357610643611dc1565b602002602001015187868151811061065d5761065d611dc1565b60200260200101516107ef565b6001016105d8565b50505050505050565b60025460009060ff1661068e5750601290565b50600090565b61069f338383610b1e565b5050565b606081516001600160401b038111156106be576106be6116e6565b6040519080825280602002602001820160405280156106f157816020015b60608152602001906001900390816106dc5790505b50905060005b82518110156107505761072283828151811061071557610715611dc1565b60200260200101516109df565b82828151811061073457610734611dc1565b60200260200101819052506107498160010190565b90506106f7565b50919050565b6060610373826109df565b6000826001600160a01b0316826001600160a01b03160361079b57506001600160a01b038116600090815260046020526040902054610373565b506001600160a01b03808216600090815260056020908152604080832093861683529290522054610373565b6107cf610ab3565b6107d96000610b7b565b565b6107e3610ab3565b6104bc84848484610bf1565b836001600160a01b0316856001600160a01b03160361082057604051620b9afb60ec1b815260040160405180910390fd5b336001600160a01b03861681146108af576001600160a01b03808716600090815260056020908152604080832093851683529290522054808511156108995760405163f3a6b69160e01b81526001600160a01b03808916600483015260248201839052831660448201526064810186905260840161043f565b6108ad87836108a88885611ded565b610b1e565b505b6108bc8686868686610c44565b505050505050565b6108cc610ab3565b61069f8282610b14565b606060006103737f2f0a68ab07768e01943a599e73362a0e17a63a72e94dd2e384d2c1d4db9327566109df565b60006104ce3384846001604051806020016040528060008152506107ef565b600061092e8284610761565b9392505050565b61093d610ab3565b6001600160a01b0381166109a25760405162461bcd60e51b815260206004820152602660248201527f4f776e61626c653a206e6577206f776e657220697320746865207a65726f206160448201526564647265737360d01b606482015260840161043f565b6109ab81610b7b565b50565b6109ab33826000610b1e565b60006001600160e01b03198216633687e17960e21b1480610373575061037382610ca5565b60008181526001602052604090208054606091906109fc90611e00565b80601f0160208091040260200160405190810160405280929190818152602001828054610a2890611e00565b8015610a755780601f10610a4a57610100808354040283529160200191610a75565b820191906000526020600020905b815481529060010190602001808311610a5857829003601f168201915b50505050509050919050565b600054610100900460ff16610aa85760405162461bcd60e51b815260040161043f90611e34565b61055e838383610cda565b6000546001600160a01b03620100009091041633146107d95760405162461bcd60e51b815260206004820181905260248201527f4f776e61626c653a2063616c6c6572206973206e6f7420746865206f776e6572604482015260640161043f565b61069f8282610d0e565b610b29838383610e02565b816001600160a01b0316836001600160a01b03167f8c5be1e5ebec7d5bd14f71427d1e84f3dd0314c0f7b2291e5b200ac8c7c3b92583604051610b6e91815260200190565b60405180910390a3505050565b6000546001600160a01b038281166201000090920416146109ab57600080546001600160a01b038381166201000081810262010000600160b01b0319851617855560405193049190911692909183917f8be0079c531659141344cd1fd0a4f28419497f9722a3daafe3b4186f6b6457e091a35050565b610bfd84848484610f00565b6040518381526001600160a01b038516906000907fddf252ad1be2c89b69c2b068fc378daa952ba7f163c4a11628f55a4df523b3ef9060200160405180910390a350505050565b610c518585858585610fdd565b836001600160a01b0316856001600160a01b03167fddf252ad1be2c89b69c2b068fc378daa952ba7f163c4a11628f55a4df523b3ef85604051610c9691815260200190565b60405180910390a35050505050565b60006001600160e01b03198216631c537ddf60e21b148061037357506301ffc9a760e01b6001600160e01b0319831614610373565b600054610100900460ff16610d015760405162461bcd60e51b815260040161043f90611e34565b61055e838383600061113a565b7f2145e1d6d074577dc71ef54c3807742b41b053a9352ae6b491331509acb9750f8201610d4e576040516385c169bd60e01b815260040160405180910390fd5b7fd0f59754f88971fe6bc5a6618cc9d5f1e859c58d16b22d1c7b2d3e2b246cd8aa8201610d8e57604051630eceab6760e31b815260040160405180910390fd5b6000828152600160205260409020610da68282611ec5565b50817fece574603820d07bc9b91f2a932baadf4628aabcb8afba49776529c14a6104b261010083511115610de757610de283600061010061117a565b610de9565b825b604051610df691906116d3565b60405180910390a25050565b6001600160a01b038216610e29576040516331aaf3b360e11b815260040160405180910390fd5b826001600160a01b0316826001600160a01b031603610e4757505050565b6001600160a01b0380841660009081526005602090815260408083209386168352929052208190558015610ebb5780836001600160a01b0316836001600160a01b03167fd66aff874162a96578e919097b6f6d153dfd89a5cec41bb331fdb0c4aec16e2c60405160405180910390a4505050565b826001600160a01b0316826001600160a01b03167f50546e66e5f44d728365dc3908c63bc5cfeeab470722c1677e3073a6ac294aa160405160405180910390a3505050565b6001600160a01b038416610f2757604051630d2d5ec360e41b815260040160405180910390fd5b338360036000828254610f3a9190611f84565b90915550506001600160a01b03851660009081526004602052604081208054869290610f67908490611f84565b92505081905550846001600160a01b031660006001600160a01b0316826001600160a01b03167f3997e418d2cef0b3b0e907b1e39605c3f7d32dbd061e82ea5b4a770d46a160a6878787604051610fc093929190611f97565b60405180910390a4610fd6600086868686611287565b5050505050565b6001600160a01b0385161580610ffa57506001600160a01b038416155b1561101857604051630d2d5ec360e41b815260040160405180910390fd5b6001600160a01b0385166000908152600460205260409020548084111561106b576040516308d4794960e01b8152600481018290526001600160a01b03871660248201526044810185905260640161043f565b336001600160a01b03871660009081526004602052604081208054879290611094908490611ded565b90915550506001600160a01b038616600090815260046020526040812080548792906110c1908490611f84565b92505081905550856001600160a01b0316876001600160a01b0316826001600160a01b03167f3997e418d2cef0b3b0e907b1e39605c3f7d32dbd061e82ea5b4a770d46a160a688888860405161111993929190611f97565b60405180910390a461112d878787866113bf565b6106728787878787611287565b600054610100900460ff166111615760405162461bcd60e51b815260040161043f90611e34565b6002805460ff19168215151790556104bc848484611493565b60608161118881601f611f84565b10156111c75760405162461bcd60e51b815260206004820152600e60248201526d736c6963655f6f766572666c6f7760901b604482015260640161043f565b6111d18284611f84565b845110156112155760405162461bcd60e51b8152602060048201526011602482015270736c6963655f6f75744f66426f756e647360781b604482015260640161043f565b606082158015611234576040519150600082526020820160405261127e565b6040519150601f8416801560200281840101858101878315602002848b0101015b8183101561126d578051835260209283019201611255565b5050858452601f01601f1916604052505b50949350505050565b61129884631aed5a8560e21b611560565b15611362576000858585846040516020016112b69493929190611fc1565b60408051601f1981840301815290829052631aed5a8560e21b825291506001600160a01b03861690636bb56a1490611314907f20804611b3e2ea21c480dc465142210acf4a2485947541770ec1fb87dee4a55c90859060040161200e565b6000604051808303816000875af1158015611333573d6000803e3d6000fd5b505050506040513d6000823e601f3d908101601f1916820160405261135b9190810190612027565b5050610fd6565b81610fd6576001600160a01b0384163b1561139b576040516353047ddb60e11b81526001600160a01b038516600482015260240161043f565b6040516309b091fd60e21b81526001600160a01b038516600482015260240161043f565b6113d084631aed5a8560e21b611560565b156104bc576000848484846040516020016113ee9493929190611fc1565b60408051601f1981840301815290829052631aed5a8560e21b825291506001600160a01b03861690636bb56a149061144c907f429ac7a06903dbc9c13dfcb3c9d11df8194581fa047c96d7a4171fc7402958ea90859060040161200e565b6000604051808303816000875af115801561146b573d6000803e3d6000fd5b505050506040513d6000823e601f3d908101601f191682016040526108bc9190810190612027565b600054610100900460ff166114ba5760405162461bcd60e51b815260040161043f90611e34565b6114c3816115e9565b61150c7feafec4d89fa9619884b60000a4d96624a38f7ac2d8d9a604ecf07c12c77e480c60001b604051806040016040528060048152602001632936598960e21b815250611610565b6115367fdeba1e292f8ba88238e10ab3c7f88bd4be4fac56cad5194b6ecceaf653468af184611610565b61055e7f2f0a68ab07768e01943a599e73362a0e17a63a72e94dd2e384d2c1d4db93275683611610565b604080516001600160e01b03198316602480830191909152825180830390910181526044909101909152602080820180516001600160e01b03166301ffc9a760e01b178152825160009392849283928392918391908a617530fa92503d915060005190508280156115d2575060208210155b80156115de5750600081115b979650505050505050565b600054610100900460ff1661093d5760405162461bcd60e51b815260040161043f90611e34565b60008281526001602052604090206116288282611ec5565b50817fece574603820d07bc9b91f2a932baadf4628aabcb8afba49776529c14a6104b282604051610df691906116d3565b60006020828403121561166b57600080fd5b81356001600160e01b03198116811461092e57600080fd5b60005b8381101561169e578181015183820152602001611686565b50506000910152565b600081518084526116bf816020860160208601611683565b601f01601f19169290920160200192915050565b60208152600061092e60208301846116a7565b634e487b7160e01b600052604160045260246000fd5b604051601f8201601f191681016001600160401b0381118282101715611724576117246116e6565b604052919050565b60006001600160401b03821115611745576117456116e6565b50601f01601f191660200190565b600082601f83011261176457600080fd5b81356117776117728261172c565b6116fc565b81815284602083860101111561178c57600080fd5b816020850160208301376000918101602001919091529392505050565b80356001600160a01b03811681146117c057600080fd5b919050565b6000806000606084860312156117da57600080fd5b83356001600160401b03808211156117f157600080fd5b6117fd87838801611753565b9450602086013591508082111561181357600080fd5b5061182086828701611753565b92505061182f604085016117a9565b90509250925092565b6000806040838503121561184b57600080fd5b611854836117a9565b946020939093013593505050565b60006001600160401b0382111561187b5761187b6116e6565b5060051b60200190565b600082601f83011261189657600080fd5b813560206118a661177283611862565b82815260059290921b840181019181810190868411156118c557600080fd5b8286015b848110156118e057803583529183019183016118c9565b509695505050505050565b600082601f8301126118fc57600080fd5b8135602061190c61177283611862565b82815260059290921b8401810191818101908684111561192b57600080fd5b8286015b848110156118e05780356001600160401b0381111561194e5760008081fd5b61195c8986838b0101611753565b84525091830191830161192f565b6000806040838503121561197d57600080fd5b82356001600160401b038082111561199457600080fd5b6119a086838701611885565b935060208501359150808211156119b657600080fd5b506119c3858286016118eb565b9150509250929050565b6000806000606084860312156119e257600080fd5b6119eb846117a9565b92506119f9602085016117a9565b9150604084013590509250925092565b600082601f830112611a1a57600080fd5b81356020611a2a61177283611862565b82815260059290921b84018101918181019086841115611a4957600080fd5b8286015b848110156118e057611a5e816117a9565b8352918301918301611a4d565b803580151581146117c057600080fd5b600082601f830112611a8c57600080fd5b81356020611a9c61177283611862565b82815260059290921b84018101918181019086841115611abb57600080fd5b8286015b848110156118e057611ad081611a6b565b8352918301918301611abf565b600080600080600060a08688031215611af557600080fd5b85356001600160401b0380821115611b0c57600080fd5b611b1889838a01611a09565b96506020880135915080821115611b2e57600080fd5b611b3a89838a01611a09565b95506040880135915080821115611b5057600080fd5b611b5c89838a01611885565b94506060880135915080821115611b7257600080fd5b611b7e89838a01611a7b565b93506080880135915080821115611b9457600080fd5b50611ba1888289016118eb565b9150509295509295909350565b600060208284031215611bc057600080fd5b81356001600160401b03811115611bd657600080fd5b611be284828501611885565b949350505050565b6000602080830181845280855180835260408601915060408160051b870101925083870160005b82811015611c3f57603f19888603018452611c2d8583516116a7565b94509285019290850190600101611c11565b5092979650505050505050565b600060208284031215611c5e57600080fd5b5035919050565b60008060408385031215611c7857600080fd5b611c81836117a9565b9150611c8f602084016117a9565b90509250929050565b600060208284031215611caa57600080fd5b61092e826117a9565b60008060008060808587031215611cc957600080fd5b611cd2856117a9565b935060208501359250611ce760408601611a6b565b915060608501356001600160401b03811115611d0257600080fd5b611d0e87828801611753565b91505092959194509250565b600080600080600060a08688031215611d3257600080fd5b611d3b866117a9565b9450611d49602087016117a9565b935060408601359250611d5e60608701611a6b565b915060808601356001600160401b03811115611d7957600080fd5b611ba188828901611753565b60008060408385031215611d9857600080fd5b8235915060208301356001600160401b03811115611db557600080fd5b6119c385828601611753565b634e487b7160e01b600052603260045260246000fd5b634e487b7160e01b600052601160045260246000fd5b8181038181111561037357610373611dd7565b600181811c90821680611e1457607f821691505b60208210810361075057634e487b7160e01b600052602260045260246000fd5b6020808252602b908201527f496e697469616c697a61626c653a20636f6e7472616374206973206e6f74206960408201526a6e697469616c697a696e6760a81b606082015260800190565b601f82111561055e57600081815260208120601f850160051c81016020861015611ea65750805b601f850160051c820191505b818110156108bc57828155600101611eb2565b81516001600160401b03811115611ede57611ede6116e6565b611ef281611eec8454611e00565b84611e7f565b602080601f831160018114611f275760008415611f0f5750858301515b600019600386901b1c1916600185901b1785556108bc565b600085815260208120601f198616915b82811015611f5657888601518255948401946001909101908401611f37565b5085821015611f745787850151600019600388901b60f8161c191681555b5050505050600190811b01905550565b8082018082111561037357610373611dd7565b8381528215156020820152606060408201526000611fb860608301846116a7565b95945050505050565b60006bffffffffffffffffffffffff19808760601b168352808660601b166014840152508360288301528251611ffe816048850160208701611683565b9190910160480195945050505050565b828152604060208201526000611be260408301846116a7565b60006020828403121561203957600080fd5b81516001600160401b0381111561204f57600080fd5b8201601f8101841361206057600080fd5b805161206e6117728261172c565b81815285602083850101111561208357600080fd5b611fb882602083016020860161168356fea26469706673582212208e8fef333a185566af08e3046237450e5af6187f372ca62fbc9b9940e3679b0a64736f6c63430008110033",
    "linkReferences": {}
  },
  "methodIdentifiers": {
    "allowance(address,address)": "dd62ed3e",
    "approve(address,uint256)": "095ea7b3",
    "authorizeOperator(address,uint256)": "47980aa3",
    "authorizedAmountFor(address,address)": "65aeaa95",
    "balanceOf(address)": "70a08231",
    "decimals()": "313ce567",
    "getData(bytes32)": "54f6127f",
    "getData(bytes32[])": "4e3e6e9c",
    "initialize(string,string,address)": "077f224a",
    "mint(address,uint256,bool,bytes)": "7580d920",
    "name()": "06fdde03",
    "owner()": "8da5cb5b",
    "renounceOwnership()": "715018a6",
    "revokeOperator(address)": "fad8b32a",
    "setData(bytes32,bytes)": "7f23690c",
    "setData(bytes32[],bytes[])": "14a6e293",
    "supportsInterface(bytes4)": "01ffc9a7",
    "symbol()": "95d89b41",
    "totalSupply()": "18160ddd",
    "transfer(address,address,uint256,bool,bytes)": "760d9bba",
    "transfer(address,uint256)": "a9059cbb",
    "transferBatch(address[],address[],uint256[],bool[],bytes[])": "2d7667c9",
    "transferFrom(address,address,uint256)": "23b872dd",
    "transferOwnership(address)": "f2fde38b"
  },
  "id": 57
}