{
  "abi": [
    {
      "inputs": [
        {
          "internalType": "string",
          "name": "name",
          "type": "string"
        },
        {
          "internalType": "string",
          "name": "symbol",
          "type": "string"
        },
        {
          "internalType": "address",
          "name": "newOwner",
          "type": "address"
        }
      ],
      "stateMutability": "nonpayable",
      "type": "constructor"
    },
    {
      "inputs": [
        {
          "internalType": "uint256",
          "name": "dataKeysLength",
          "type": "uint256"
        },
        {
          "internalType": "uint256",
          "name": "dataValuesLength",
          "type": "uint256"
        }
      ],
      "name": "ERC725Y_DataKeysValuesLengthMismatch",
      "type": "error"
    },
    {
      "inputs": [],
      "name": "LSP4TokenNameNotEditable",
      "type": "error"
    },
    {
      "inputs": [],
      "name": "LSP4TokenSymbolNotEditable",
      "type": "error"
    },
    {
      "inputs": [
        {
          "internalType": "address",
          "name": "tokenOwner",
          "type": "address"
        },
        {
          "internalType": "uint256",
          "name": "authorizedAmount",
          "type": "uint256"
        },
        {
          "internalType": "address",
          "name": "operator",
          "type": "address"
        },
        {
          "internalType": "uint256",
          "name": "amount",
          "type": "uint256"
        }
      ],
      "name": "LSP7AmountExceedsAuthorizedAmount",
      "type": "error"
    },
    {
      "inputs": [
        {
          "internalType": "uint256",
          "name": "balance",
          "type": "uint256"
        },
        {
          "internalType": "address",
          "name": "tokenOwner",
          "type": "address"
        },
        {
          "internalType": "uint256",
          "name": "amount",
          "type": "uint256"
        }
      ],
      "name": "LSP7AmountExceedsBalance",
      "type": "error"
    },
    {
      "inputs": [],
      "name": "LSP7CannotSendToSelf",
      "type": "error"
    },
    {
      "inputs": [],
      "name": "LSP7CannotSendWithAddressZero",
      "type": "error"
    },
    {
      "inputs": [],
      "name": "LSP7CannotUseAddressZeroAsOperator",
      "type": "error"
    },
    {
      "inputs": [],
      "name": "LSP7InvalidTransferBatch",
      "type": "error"
    },
    {
      "inputs": [
        {
          "internalType": "address",
          "name": "tokenReceiver",
          "type": "address"
        }
      ],
      "name": "LSP7NotifyTokenReceiverContractMissingLSP1Interface",
      "type": "error"
    },
    {
      "inputs": [
        {
          "internalType": "address",
          "name": "tokenReceiver",
          "type": "address"
        }
      ],
      "name": "LSP7NotifyTokenReceiverIsEOA",
      "type": "error"
    },
    {
      "anonymous": false,
      "inputs": [
        {
          "indexed": true,
          "internalType": "address",
          "name": "operator",
          "type": "address"
        },
        {
          "indexed": true,
          "internalType": "address",
          "name": "tokenOwner",
          "type": "address"
        },
        {
          "indexed": true,
          "internalType": "uint256",
          "name": "amount",
          "type": "uint256"
        }
      ],
      "name": "AuthorizedOperator",
      "type": "event"
    },
    {
      "anonymous": false,
      "inputs": [
        {
          "indexed": true,
          "internalType": "bytes32",
          "name": "dataKey",
          "type": "bytes32"
        },
        {
          "indexed": false,
          "internalType": "bytes",
          "name": "dataValue",
          "type": "bytes"
        }
      ],
      "name": "DataChanged",
      "type": "event"
    },
    {
      "anonymous": false,
      "inputs": [
        {
          "indexed": true,
          "internalType": "address",
          "name": "previousOwner",
          "type": "address"
        },
        {
          "indexed": true,
          "internalType": "address",
          "name": "newOwner",
          "type": "address"
        }
      ],
      "name": "OwnershipTransferred",
      "type": "event"
    },
    {
      "anonymous": false,
      "inputs": [
        {
          "indexed": true,
          "internalType": "address",
          "name": "operator",
          "type": "address"
        },
        {
          "indexed": true,
          "internalType": "address",
          "name": "tokenOwner",
          "type": "address"
        }
      ],
      "name": "RevokedOperator",
      "type": "event"
    },
    {
      "anonymous": false,
      "inputs": [
        {
          "indexed": true,
          "internalType": "address",
          "name": "operator",
          "type": "address"
        },
        {
          "indexed": true,
          "internalType": "address",
          "name": "from",
          "type": "address"
        },
        {
          "indexed": true,
          "internalType": "address",
          "name": "to",
          "type": "address"
        },
        {
          "indexed": false,
          "internalType": "uint256",
          "name": "amount",
          "type": "uint256"
        },
        {
          "indexed": false,
          "internalType": "bool",
          "name": "force",
          "type": "bool"
        },
        {
          "indexed": false,
          "internalType": "bytes",
          "name": "data",
          "type": "bytes"
        }
      ],
      "name": "Transfer",
      "type": "event"
    },
    {
      "inputs": [
        {
          "internalType": "address",
          "name": "operator",
          "type": "address"
        },
        {
          "internalType": "uint256",
          "name": "amount",
          "type": "uint256"
        }
      ],
      "name": "authorizeOperator",
      "outputs": [],
      "stateMutability": "nonpayable",
      "type": "function"
    },
    {
      "inputs": [
        {
          "internalType": "address",
          "name": "operator",
          "type": "address"
        },
        {
          "internalType": "address",
          "name": "tokenOwner",
          "type": "address"
        }
      ],
      "name": "authorizedAmountFor",
      "outputs": [
        {
          "internalType": "uint256",
          "name": "",
          "type": "uint256"
        }
      ],
      "stateMutability": "view",
      "type": "function"
    },
    {
      "inputs": [
        {
          "internalType": "address",
          "name": "tokenOwner",
          "type": "address"
        }
      ],
      "name": "balanceOf",
      "outputs": [
        {
          "internalType": "uint256",
          "name": "",
          "type": "uint256"
        }
      ],
      "stateMutability": "view",
      "type": "function"
    },
    {
      "inputs": [
        {
          "internalType": "address",
          "name": "from",
          "type": "address"
        },
        {
          "internalType": "uint256",
          "name": "amount",
          "type": "uint256"
        },
        {
          "internalType": "bytes",
          "name": "data",
          "type": "bytes"
        }
      ],
      "name": "burn",
      "outputs": [],
      "stateMutability": "nonpayable",
      "type": "function"
    },
    {
      "inputs": [],
      "name": "decimals",
      "outputs": [
        {
          "internalType": "uint8",
          "name": "",
          "type": "uint8"
        }
      ],
      "stateMutability": "view",
      "type": "function"
    },
    {
      "inputs": [
        {
          "internalType": "bytes32[]",
          "name": "dataKeys",
          "type": "bytes32[]"
        }
      ],
      "name": "getData",
      "outputs": [
        {
          "internalType": "bytes[]",
          "name": "dataValues",
          "type": "bytes[]"
        }
      ],
      "stateMutability": "view",
      "type": "function"
    },
    {
      "inputs": [
        {
          "internalType": "bytes32",
          "name": "dataKey",
          "type": "bytes32"
        }
      ],
      "name": "getData",
      "outputs": [
        {
          "internalType": "bytes",
          "name": "dataValue",
          "type": "bytes"
        }
      ],
      "stateMutability": "view",
      "type": "function"
    },
    {
      "inputs": [
        {
          "internalType": "address",
          "name": "to",
          "type": "address"
        },
        {
          "internalType": "uint256",
          "name": "amount",
          "type": "uint256"
        },
        {
          "internalType": "bool",
          "name": "force",
          "type": "bool"
        },
        {
          "internalType": "bytes",
          "name": "data",
          "type": "bytes"
        }
      ],
      "name": "mint",
      "outputs": [],
      "stateMutability": "nonpayable",
      "type": "function"
    },
    {
      "inputs": [],
      "name": "owner",
      "outputs": [
        {
          "internalType": "address",
          "name": "",
          "type": "address"
        }
      ],
      "stateMutability": "view",
      "type": "function"
    },
    {
      "inputs": [],
      "name": "renounceOwnership",
      "outputs": [],
      "stateMutability": "nonpayable",
      "type": "function"
    },
    {
      "inputs": [
        {
          "internalType": "address",
          "name": "operator",
          "type": "address"
        }
      ],
      "name": "revokeOperator",
      "outputs": [],
      "stateMutability": "nonpayable",
      "type": "function"
    },
    {
      "inputs": [
        {
          "internalType": "bytes32[]",
          "name": "dataKeys",
          "type": "bytes32[]"
        },
        {
          "internalType": "bytes[]",
          "name": "dataValues",
          "type": "bytes[]"
        }
      ],
      "name": "setData",
      "outputs": [],
      "stateMutability": "nonpayable",
      "type": "function"
    },
    {
      "inputs": [
        {
          "internalType": "bytes32",
          "name": "dataKey",
          "type": "bytes32"
        },
        {
          "internalType": "bytes",
          "name": "dataValue",
          "type": "bytes"
        }
      ],
      "name": "setData",
      "outputs": [],
      "stateMutability": "nonpayable",
      "type": "function"
    },
    {
      "inputs": [
        {
          "internalType": "bytes4",
          "name": "interfaceId",
          "type": "bytes4"
        }
      ],
      "name": "supportsInterface",
      "outputs": [
        {
          "internalType": "bool",
          "name": "",
          "type": "bool"
        }
      ],
      "stateMutability": "view",
      "type": "function"
    },
    {
      "inputs": [],
      "name": "totalSupply",
      "outputs": [
        {
          "internalType": "uint256",
          "name": "",
          "type": "uint256"
        }
      ],
      "stateMutability": "view",
      "type": "function"
    },
    {
      "inputs": [
        {
          "internalType": "address",
          "name": "from",
          "type": "address"
        },
        {
          "internalType": "address",
          "name": "to",
          "type": "address"
        },
        {
          "internalType": "uint256",
          "name": "amount",
          "type": "uint256"
        },
        {
          "internalType": "bool",
          "name": "force",
          "type": "bool"
        },
        {
          "internalType": "bytes",
          "name": "data",
          "type": "bytes"
        }
      ],
      "name": "transfer",
      "outputs": [],
      "stateMutability": "nonpayable",
      "type": "function"
    },
    {
      "inputs": [
        {
          "internalType": "address[]",
          "name": "from",
          "type": "address[]"
        },
        {
          "internalType": "address[]",
          "name": "to",
          "type": "address[]"
        },
        {
          "internalType": "uint256[]",
          "name": "amount",
          "type": "uint256[]"
        },
        {
          "internalType": "bool[]",
          "name": "force",
          "type": "bool[]"
        },
        {
          "internalType": "bytes[]",
          "name": "data",
          "type": "bytes[]"
        }
      ],
      "name": "transferBatch",
      "outputs": [],
      "stateMutability": "nonpayable",
      "type": "function"
    },
    {
      "inputs": [
        {
          "internalType": "address",
          "name": "newOwner",
          "type": "address"
        }
      ],
      "name": "transferOwnership",
      "outputs": [],
      "stateMutability": "nonpayable",
      "type": "function"
    }
  ],
  "bytecode": {
    "object": "0x60806040523480156200001157600080fd5b506040516200222338038062002223833981016040819052620000349162000337565b8282826000838383806001600160a01b038116620000a75760405162461bcd60e51b815260206004820152602660248201527f4f776e61626c653a206e6577206f776e657220697320746865207a65726f206160448201526564647265737360d01b606482015260840160405180910390fd5b620000bd81620001aa60201b620007501760201c565b50620001147feafec4d89fa9619884b60000a4d96624a38f7ac2d8d9a604ecf07c12c77e480c60001b604051806040016040528060048152602001632936598960e21b8152506200021160201b620007b51760201c565b6200014e7fdeba1e292f8ba88238e10ab3c7f88bd4be4fac56cad5194b6ecceaf653468af160001b846200021160201b620007b51760201c565b620001887f2f0a68ab07768e01943a599e73362a0e17a63a72e94dd2e384d2c1d4db93275660001b836200021160201b620007b51760201c565b50506002805460ff191692151592909217909155506200055495505050505050565b6000546001600160a01b038281169116146200020e57600080546001600160a01b038381166001600160a01b0319831681178455604051919092169283917f8be0079c531659141344cd1fd0a4f28419497f9722a3daafe3b4186f6b6457e09190a3505b50565b60008281526001602052604090206200022b828262000453565b50817fece574603820d07bc9b91f2a932baadf4628aabcb8afba49776529c14a6104b2826040516200025e91906200051f565b60405180910390a25050565b634e487b7160e01b600052604160045260246000fd5b60005b838110156200029d57818101518382015260200162000283565b50506000910152565b600082601f830112620002b857600080fd5b81516001600160401b0380821115620002d557620002d56200026a565b604051601f8301601f19908116603f011681019082821181831017156200030057620003006200026a565b816040528381528660208588010111156200031a57600080fd5b6200032d84602083016020890162000280565b9695505050505050565b6000806000606084860312156200034d57600080fd5b83516001600160401b03808211156200036557600080fd5b6200037387838801620002a6565b945060208601519150808211156200038a57600080fd5b506200039986828701620002a6565b604086015190935090506001600160a01b0381168114620003b957600080fd5b809150509250925092565b600181811c90821680620003d957607f821691505b602082108103620003fa57634e487b7160e01b600052602260045260246000fd5b50919050565b601f8211156200044e57600081815260208120601f850160051c81016020861015620004295750805b601f850160051c820191505b818110156200044a5782815560010162000435565b5050505b505050565b81516001600160401b038111156200046f576200046f6200026a565b6200048781620004808454620003c4565b8462000400565b602080601f831160018114620004bf5760008415620004a65750858301515b600019600386901b1c1916600185901b1785556200044a565b600085815260208120601f198616915b82811015620004f057888601518255948401946001909101908401620004cf565b50858210156200050f5787850151600019600388901b60f8161c191681555b5050505050600190811b01905550565b60208152600082518060208401526200054081604085016020870162000280565b601f01601f19169190910160400192915050565b611cbf80620005646000396000f3fe608060405234801561001057600080fd5b50600436106101165760003560e01c806365aeaa95116100a2578063760d9bba11610071578063760d9bba146102545780637f23690c146102675780638da5cb5b1461027a578063f2fde38b14610295578063fad8b32a146102a857600080fd5b806365aeaa95146101fd57806370a0823114610210578063715018a6146102395780637580d9201461024157600080fd5b8063313ce567116100e9578063313ce5671461017d57806344d171871461019757806347980aa3146101aa5780634e3e6e9c146101bd57806354f6127f146101dd57600080fd5b806301ffc9a71461011b57806314a6e2931461014357806318160ddd146101585780632d7667c91461016a575b600080fd5b61012e6101293660046112eb565b6102bb565b60405190151581526020015b60405180910390f35b6101566101513660046114e7565b6102e6565b005b6003545b60405190815260200161013a565b61015661017836600461163a565b610377565b610185610466565b60405160ff909116815260200161013a565b6101566101a536600461170b565b61047f565b6101566101b8366004611761565b61048a565b6101d06101cb36600461178b565b610499565b60405161013a9190611817565b6101f06101eb366004611879565b61054c565b60405161013a9190611892565b61015c61020b3660046118a5565b610557565b61015c61021e3660046118d8565b6001600160a01b031660009081526004602052604090205490565b6101566105be565b61015661024f3660046118f3565b6105d2565b61015661026236600461195a565b6105e4565b6101566102753660046119c5565b6106b9565b6000546040516001600160a01b03909116815260200161013a565b6101566102a33660046118d8565b6106cb565b6101566102b63660046118d8565b610744565b60006001600160e01b03198216633687e17960e21b14806102e057506102e08261080a565b92915050565b6102ee61083f565b805182511461032257815181516040516321d1e13360e11b8152600481019290925260248201526044015b60405180910390fd5b60005b82518110156103725761036a83828151811061034357610343611a01565b602002602001015183838151811061035d5761035d611a01565b60200260200101516108a8565b600101610325565b505050565b845184518114158061038a575083518114155b80610396575082518114155b806103a2575081518114155b156103c05760405163263eee8d60e01b815260040160405180910390fd5b60005b8181101561045d576104558782815181106103e0576103e0611a01565b60200260200101518783815181106103fa576103fa611a01565b602002602001015187848151811061041457610414611a01565b602002602001015187858151811061042e5761042e611a01565b602002602001015187868151811061044857610448611a01565b60200260200101516105e4565b6001016103c3565b50505050505050565b60025460009060ff166104795750601290565b50600090565b610372838383610990565b610495338383610b76565b5050565b606081516001600160401b038111156104b4576104b461131c565b6040519080825280602002602001820160405280156104e757816020015b60608152602001906001900390816104d25790505b50905060005b82518110156105465761051883828151811061050b5761050b611a01565b6020026020010151610c74565b82828151811061052a5761052a611a01565b602002602001018190525061053f8160010190565b90506104ed565b50919050565b60606102e082610c74565b6000826001600160a01b0316826001600160a01b03160361059157506001600160a01b0381166000908152600460205260409020546102e0565b506001600160a01b0380821660009081526005602090815260408083209386168352929052205492915050565b6105c661083f565b6105d06000610750565b565b6105de84848484610d16565b50505050565b836001600160a01b0316856001600160a01b03160361061557604051620b9afb60ec1b815260040160405180910390fd5b336001600160a01b03861681146106a4576001600160a01b038087166000908152600560209081526040808320938516835292905220548085111561068e5760405163f3a6b69160e01b81526001600160a01b038089166004830152602482018390528316604482015260648101869052608401610319565b6106a2878361069d8885611a2d565b610b76565b505b6106b18686868686610dec565b505050505050565b6106c161083f565b61049582826108a8565b6106d361083f565b6001600160a01b0381166107385760405162461bcd60e51b815260206004820152602660248201527f4f776e61626c653a206e6577206f776e657220697320746865207a65726f206160448201526564647265737360d01b6064820152608401610319565b61074181610750565b50565b61074133826000610b76565b6000546001600160a01b0382811691161461074157600080546001600160a01b038381166001600160a01b0319831681178455604051919092169283917f8be0079c531659141344cd1fd0a4f28419497f9722a3daafe3b4186f6b6457e09190a35050565b60008281526001602052604090206107cd8282611aba565b50817fece574603820d07bc9b91f2a932baadf4628aabcb8afba49776529c14a6104b2826040516107fe9190611892565b60405180910390a25050565b60006001600160e01b03198216631c537ddf60e21b14806102e057506301ffc9a760e01b6001600160e01b03198316146102e0565b336108526000546001600160a01b031690565b6001600160a01b0316146105d05760405162461bcd60e51b815260206004820181905260248201527f4f776e61626c653a2063616c6c6572206973206e6f7420746865206f776e65726044820152606401610319565b7f2145e1d6d074577dc71ef54c3807742b41b053a9352ae6b491331509acb9750f82016108e8576040516385c169bd60e01b815260040160405180910390fd5b7fd0f59754f88971fe6bc5a6618cc9d5f1e859c58d16b22d1c7b2d3e2b246cd8aa820161092857604051630eceab6760e31b815260040160405180910390fd5b60008281526001602052604090206109408282611aba565b50817fece574603820d07bc9b91f2a932baadf4628aabcb8afba49776529c14a6104b2610100835111156109815761097c836000610100610f49565b610983565b825b6040516107fe9190611892565b6001600160a01b0383166109b757604051630d2d5ec360e41b815260040160405180910390fd5b6001600160a01b03831660009081526004602052604090205480831115610a0a576040516308d4794960e01b8152600481018290526001600160a01b038516602482015260448101849052606401610319565b336001600160a01b0385168114610ac1576001600160a01b0380861660009081526005602090815260408083209385168352929052205480851115610a835760405163f3a6b69160e01b81526001600160a01b038088166004830152602482018390528316604482015260648101869052608401610319565b6001600160a01b03808716600090815260056020908152604080832093861683529290529081208054879290610aba908490611a2d565b9091555050505b8360036000828254610ad39190611a2d565b90915550506001600160a01b03851660009081526004602052604081208054869290610b00908490611a2d565b9250508190555060006001600160a01b0316856001600160a01b0316826001600160a01b03167f3997e418d2cef0b3b0e907b1e39605c3f7d32dbd061e82ea5b4a770d46a160a687600088604051610b5a93929190611b79565b60405180910390a4610b6f8560008686611056565b5050505050565b6001600160a01b038216610b9d576040516331aaf3b360e11b815260040160405180910390fd5b826001600160a01b0316826001600160a01b031603610bbb57505050565b6001600160a01b0380841660009081526005602090815260408083209386168352929052208190558015610c2f5780836001600160a01b0316836001600160a01b03167fd66aff874162a96578e919097b6f6d153dfd89a5cec41bb331fdb0c4aec16e2c60405160405180910390a4505050565b826001600160a01b0316826001600160a01b03167f50546e66e5f44d728365dc3908c63bc5cfeeab470722c1677e3073a6ac294aa160405160405180910390a3505050565b6000818152600160205260409020805460609190610c9190611a40565b80601f0160208091040260200160405190810160405280929190818152602001828054610cbd90611a40565b8015610d0a5780601f10610cdf57610100808354040283529160200191610d0a565b820191906000526020600020905b815481529060010190602001808311610ced57829003601f168201915b50505050509050919050565b6001600160a01b038416610d3d57604051630d2d5ec360e41b815260040160405180910390fd5b338360036000828254610d509190611ba3565b90915550506001600160a01b03851660009081526004602052604081208054869290610d7d908490611ba3565b92505081905550846001600160a01b031660006001600160a01b0316826001600160a01b03167f3997e418d2cef0b3b0e907b1e39605c3f7d32dbd061e82ea5b4a770d46a160a6878787604051610dd693929190611b79565b60405180910390a4610b6f60008686868661112a565b6001600160a01b0385161580610e0957506001600160a01b038416155b15610e2757604051630d2d5ec360e41b815260040160405180910390fd5b6001600160a01b03851660009081526004602052604090205480841115610e7a576040516308d4794960e01b8152600481018290526001600160a01b038716602482015260448101859052606401610319565b336001600160a01b03871660009081526004602052604081208054879290610ea3908490611a2d565b90915550506001600160a01b03861660009081526004602052604081208054879290610ed0908490611ba3565b92505081905550856001600160a01b0316876001600160a01b0316826001600160a01b03167f3997e418d2cef0b3b0e907b1e39605c3f7d32dbd061e82ea5b4a770d46a160a6888888604051610f2893929190611b79565b60405180910390a4610f3c87878786611056565b61045d878787878761112a565b606081610f5781601f611ba3565b1015610f965760405162461bcd60e51b815260206004820152600e60248201526d736c6963655f6f766572666c6f7760901b6044820152606401610319565b610fa08284611ba3565b84511015610fe45760405162461bcd60e51b8152602060048201526011602482015270736c6963655f6f75744f66426f756e647360781b6044820152606401610319565b606082158015611003576040519150600082526020820160405261104d565b6040519150601f8416801560200281840101858101878315602002848b0101015b8183101561103c578051835260209283019201611024565b5050858452601f01601f1916604052505b50949350505050565b61106784631aed5a8560e21b611262565b156105de576000848484846040516020016110859493929190611bb6565b60408051601f1981840301815290829052631aed5a8560e21b825291506001600160a01b03861690636bb56a14906110e3907f429ac7a06903dbc9c13dfcb3c9d11df8194581fa047c96d7a4171fc7402958ea908590600401611c03565b6000604051808303816000875af1158015611102573d6000803e3d6000fd5b505050506040513d6000823e601f3d908101601f191682016040526106b19190810190611c1c565b61113b84631aed5a8560e21b611262565b15611205576000858585846040516020016111599493929190611bb6565b60408051601f1981840301815290829052631aed5a8560e21b825291506001600160a01b03861690636bb56a14906111b7907f20804611b3e2ea21c480dc465142210acf4a2485947541770ec1fb87dee4a55c908590600401611c03565b6000604051808303816000875af11580156111d6573d6000803e3d6000fd5b505050506040513d6000823e601f3d908101601f191682016040526111fe9190810190611c1c565b5050610b6f565b81610b6f576001600160a01b0384163b1561123e576040516353047ddb60e11b81526001600160a01b0385166004820152602401610319565b6040516309b091fd60e21b81526001600160a01b0385166004820152602401610319565b604080516001600160e01b03198316602480830191909152825180830390910181526044909101909152602080820180516001600160e01b03166301ffc9a760e01b178152825160009392849283928392918391908a617530fa92503d915060005190508280156112d4575060208210155b80156112e05750600081115b979650505050505050565b6000602082840312156112fd57600080fd5b81356001600160e01b03198116811461131557600080fd5b9392505050565b634e487b7160e01b600052604160045260246000fd5b604051601f8201601f191681016001600160401b038111828210171561135a5761135a61131c565b604052919050565b60006001600160401b0382111561137b5761137b61131c565b5060051b60200190565b600082601f83011261139657600080fd5b813560206113ab6113a683611362565b611332565b82815260059290921b840181019181810190868411156113ca57600080fd5b8286015b848110156113e557803583529183019183016113ce565b509695505050505050565b60006001600160401b038211156114095761140961131c565b50601f01601f191660200190565b600082601f83011261142857600080fd5b81356114366113a6826113f0565b81815284602083860101111561144b57600080fd5b816020850160208301376000918101602001919091529392505050565b600082601f83011261147957600080fd5b813560206114896113a683611362565b82815260059290921b840181019181810190868411156114a857600080fd5b8286015b848110156113e55780356001600160401b038111156114cb5760008081fd5b6114d98986838b0101611417565b8452509183019183016114ac565b600080604083850312156114fa57600080fd5b82356001600160401b038082111561151157600080fd5b61151d86838701611385565b9350602085013591508082111561153357600080fd5b5061154085828601611468565b9150509250929050565b80356001600160a01b038116811461156157600080fd5b919050565b600082601f83011261157757600080fd5b813560206115876113a683611362565b82815260059290921b840181019181810190868411156115a657600080fd5b8286015b848110156113e5576115bb8161154a565b83529183019183016115aa565b8035801515811461156157600080fd5b600082601f8301126115e957600080fd5b813560206115f96113a683611362565b82815260059290921b8401810191818101908684111561161857600080fd5b8286015b848110156113e55761162d816115c8565b835291830191830161161c565b600080600080600060a0868803121561165257600080fd5b85356001600160401b038082111561166957600080fd5b61167589838a01611566565b9650602088013591508082111561168b57600080fd5b61169789838a01611566565b955060408801359150808211156116ad57600080fd5b6116b989838a01611385565b945060608801359150808211156116cf57600080fd5b6116db89838a016115d8565b935060808801359150808211156116f157600080fd5b506116fe88828901611468565b9150509295509295909350565b60008060006060848603121561172057600080fd5b6117298461154a565b92506020840135915060408401356001600160401b0381111561174b57600080fd5b61175786828701611417565b9150509250925092565b6000806040838503121561177457600080fd5b61177d8361154a565b946020939093013593505050565b60006020828403121561179d57600080fd5b81356001600160401b038111156117b357600080fd5b6117bf84828501611385565b949350505050565b60005b838110156117e25781810151838201526020016117ca565b50506000910152565b600081518084526118038160208601602086016117c7565b601f01601f19169290920160200192915050565b6000602080830181845280855180835260408601915060408160051b870101925083870160005b8281101561186c57603f1988860301845261185a8583516117eb565b9450928501929085019060010161183e565b5092979650505050505050565b60006020828403121561188b57600080fd5b5035919050565b60208152600061131560208301846117eb565b600080604083850312156118b857600080fd5b6118c18361154a565b91506118cf6020840161154a565b90509250929050565b6000602082840312156118ea57600080fd5b6113158261154a565b6000806000806080858703121561190957600080fd5b6119128561154a565b935060208501359250611927604086016115c8565b915060608501356001600160401b0381111561194257600080fd5b61194e87828801611417565b91505092959194509250565b600080600080600060a0868803121561197257600080fd5b61197b8661154a565b94506119896020870161154a565b93506040860135925061199e606087016115c8565b915060808601356001600160401b038111156119b957600080fd5b6116fe88828901611417565b600080604083850312156119d857600080fd5b8235915060208301356001600160401b038111156119f557600080fd5b61154085828601611417565b634e487b7160e01b600052603260045260246000fd5b634e487b7160e01b600052601160045260246000fd5b818103818111156102e0576102e0611a17565b600181811c90821680611a5457607f821691505b60208210810361054657634e487b7160e01b600052602260045260246000fd5b601f82111561037257600081815260208120601f850160051c81016020861015611a9b5750805b601f850160051c820191505b818110156106b157828155600101611aa7565b81516001600160401b03811115611ad357611ad361131c565b611ae781611ae18454611a40565b84611a74565b602080601f831160018114611b1c5760008415611b045750858301515b600019600386901b1c1916600185901b1785556106b1565b600085815260208120601f198616915b82811015611b4b57888601518255948401946001909101908401611b2c565b5085821015611b695787850151600019600388901b60f8161c191681555b5050505050600190811b01905550565b8381528215156020820152606060408201526000611b9a60608301846117eb565b95945050505050565b808201808211156102e0576102e0611a17565b60006bffffffffffffffffffffffff19808760601b168352808660601b166014840152508360288301528251611bf38160488501602087016117c7565b9190910160480195945050505050565b8281526040602082015260006117bf60408301846117eb565b600060208284031215611c2e57600080fd5b81516001600160401b03811115611c4457600080fd5b8201601f81018413611c5557600080fd5b8051611c636113a6826113f0565b818152856020838501011115611c7857600080fd5b611b9a8260208301602086016117c756fea2646970667358221220a5540afa643523d3a3e98fb7088bee7e4e7b9627cdbab9344e3a6eddf903d08264736f6c63430008110033",
    "linkReferences": {}
  },
  "methodIdentifiers": {
    "authorizeOperator(address,uint256)": "47980aa3",
    "authorizedAmountFor(address,address)": "65aeaa95",
    "balanceOf(address)": "70a08231",
    "burn(address,uint256,bytes)": "44d17187",
    "decimals()": "313ce567",
    "getData(bytes32)": "54f6127f",
    "getData(bytes32[])": "4e3e6e9c",
    "mint(address,uint256,bool,bytes)": "7580d920",
    "owner()": "8da5cb5b",
    "renounceOwnership()": "715018a6",
    "revokeOperator(address)": "fad8b32a",
    "setData(bytes32,bytes)": "7f23690c",
    "setData(bytes32[],bytes[])": "14a6e293",
    "supportsInterface(bytes4)": "01ffc9a7",
    "totalSupply()": "18160ddd",
    "transfer(address,address,uint256,bool,bytes)": "760d9bba",
    "transferBatch(address[],address[],uint256[],bool[],bytes[])": "2d7667c9",
    "transferOwnership(address)": "f2fde38b"
  },
  "id": 133
}