{
  "abi": [
    {
      "inputs": [
        {
          "internalType": "string",
          "name": "name_",
          "type": "string"
        },
        {
          "internalType": "string",
          "name": "symbol_",
          "type": "string"
        },
        {
          "internalType": "address",
          "name": "newOwner_",
          "type": "address"
        }
      ],
      "stateMutability": "nonpayable",
      "type": "constructor"
    },
    {
      "inputs": [
        {
          "internalType": "uint256",
          "name": "dataKeysLength",
          "type": "uint256"
        },
        {
          "internalType": "uint256",
          "name": "dataValuesLength",
          "type": "uint256"
        }
      ],
      "name": "ERC725Y_DataKeysValuesLengthMismatch",
      "type": "error"
    },
    {
      "inputs": [],
      "name": "LSP4TokenNameNotEditable",
      "type": "error"
    },
    {
      "inputs": [],
      "name": "LSP4TokenSymbolNotEditable",
      "type": "error"
    },
    {
      "inputs": [
        {
          "internalType": "address",
          "name": "tokenOwner",
          "type": "address"
        },
        {
          "internalType": "uint256",
          "name": "authorizedAmount",
          "type": "uint256"
        },
        {
          "internalType": "address",
          "name": "operator",
          "type": "address"
        },
        {
          "internalType": "uint256",
          "name": "amount",
          "type": "uint256"
        }
      ],
      "name": "LSP7AmountExceedsAuthorizedAmount",
      "type": "error"
    },
    {
      "inputs": [
        {
          "internalType": "uint256",
          "name": "balance",
          "type": "uint256"
        },
        {
          "internalType": "address",
          "name": "tokenOwner",
          "type": "address"
        },
        {
          "internalType": "uint256",
          "name": "amount",
          "type": "uint256"
        }
      ],
      "name": "LSP7AmountExceedsBalance",
      "type": "error"
    },
    {
      "inputs": [],
      "name": "LSP7CannotSendToSelf",
      "type": "error"
    },
    {
      "inputs": [],
      "name": "LSP7CannotSendWithAddressZero",
      "type": "error"
    },
    {
      "inputs": [],
      "name": "LSP7CannotUseAddressZeroAsOperator",
      "type": "error"
    },
    {
      "inputs": [],
      "name": "LSP7InvalidTransferBatch",
      "type": "error"
    },
    {
      "inputs": [
        {
          "internalType": "address",
          "name": "tokenReceiver",
          "type": "address"
        }
      ],
      "name": "LSP7NotifyTokenReceiverContractMissingLSP1Interface",
      "type": "error"
    },
    {
      "inputs": [
        {
          "internalType": "address",
          "name": "tokenReceiver",
          "type": "address"
        }
      ],
      "name": "LSP7NotifyTokenReceiverIsEOA",
      "type": "error"
    },
    {
      "anonymous": false,
      "inputs": [
        {
          "indexed": true,
          "internalType": "address",
          "name": "owner",
          "type": "address"
        },
        {
          "indexed": true,
          "internalType": "address",
          "name": "spender",
          "type": "address"
        },
        {
          "indexed": false,
          "internalType": "uint256",
          "name": "value",
          "type": "uint256"
        }
      ],
      "name": "Approval",
      "type": "event"
    },
    {
      "anonymous": false,
      "inputs": [
        {
          "indexed": true,
          "internalType": "address",
          "name": "operator",
          "type": "address"
        },
        {
          "indexed": true,
          "internalType": "address",
          "name": "tokenOwner",
          "type": "address"
        },
        {
          "indexed": true,
          "internalType": "uint256",
          "name": "amount",
          "type": "uint256"
        }
      ],
      "name": "AuthorizedOperator",
      "type": "event"
    },
    {
      "anonymous": false,
      "inputs": [
        {
          "indexed": true,
          "internalType": "bytes32",
          "name": "dataKey",
          "type": "bytes32"
        },
        {
          "indexed": false,
          "internalType": "bytes",
          "name": "dataValue",
          "type": "bytes"
        }
      ],
      "name": "DataChanged",
      "type": "event"
    },
    {
      "anonymous": false,
      "inputs": [
        {
          "indexed": true,
          "internalType": "address",
          "name": "previousOwner",
          "type": "address"
        },
        {
          "indexed": true,
          "internalType": "address",
          "name": "newOwner",
          "type": "address"
        }
      ],
      "name": "OwnershipTransferred",
      "type": "event"
    },
    {
      "anonymous": false,
      "inputs": [
        {
          "indexed": true,
          "internalType": "address",
          "name": "operator",
          "type": "address"
        },
        {
          "indexed": true,
          "internalType": "address",
          "name": "tokenOwner",
          "type": "address"
        }
      ],
      "name": "RevokedOperator",
      "type": "event"
    },
    {
      "anonymous": false,
      "inputs": [
        {
          "indexed": true,
          "internalType": "address",
          "name": "from",
          "type": "address"
        },
        {
          "indexed": true,
          "internalType": "address",
          "name": "to",
          "type": "address"
        },
        {
          "indexed": false,
          "internalType": "uint256",
          "name": "value",
          "type": "uint256"
        }
      ],
      "name": "Transfer",
      "type": "event"
    },
    {
      "anonymous": false,
      "inputs": [
        {
          "indexed": true,
          "internalType": "address",
          "name": "operator",
          "type": "address"
        },
        {
          "indexed": true,
          "internalType": "address",
          "name": "from",
          "type": "address"
        },
        {
          "indexed": true,
          "internalType": "address",
          "name": "to",
          "type": "address"
        },
        {
          "indexed": false,
          "internalType": "uint256",
          "name": "amount",
          "type": "uint256"
        },
        {
          "indexed": false,
          "internalType": "bool",
          "name": "force",
          "type": "bool"
        },
        {
          "indexed": false,
          "internalType": "bytes",
          "name": "data",
          "type": "bytes"
        }
      ],
      "name": "Transfer",
      "type": "event"
    },
    {
      "inputs": [
        {
          "internalType": "address",
          "name": "tokenOwner",
          "type": "address"
        },
        {
          "internalType": "address",
          "name": "operator",
          "type": "address"
        }
      ],
      "name": "allowance",
      "outputs": [
        {
          "internalType": "uint256",
          "name": "",
          "type": "uint256"
        }
      ],
      "stateMutability": "view",
      "type": "function"
    },
    {
      "inputs": [
        {
          "internalType": "address",
          "name": "operator",
          "type": "address"
        },
        {
          "internalType": "uint256",
          "name": "amount",
          "type": "uint256"
        }
      ],
      "name": "approve",
      "outputs": [
        {
          "internalType": "bool",
          "name": "",
          "type": "bool"
        }
      ],
      "stateMutability": "nonpayable",
      "type": "function"
    },
    {
      "inputs": [
        {
          "internalType": "address",
          "name": "operator",
          "type": "address"
        },
        {
          "internalType": "uint256",
          "name": "amount",
          "type": "uint256"
        }
      ],
      "name": "authorizeOperator",
      "outputs": [],
      "stateMutability": "nonpayable",
      "type": "function"
    },
    {
      "inputs": [
        {
          "internalType": "address",
          "name": "operator",
          "type": "address"
        },
        {
          "internalType": "address",
          "name": "tokenOwner",
          "type": "address"
        }
      ],
      "name": "authorizedAmountFor",
      "outputs": [
        {
          "internalType": "uint256",
          "name": "",
          "type": "uint256"
        }
      ],
      "stateMutability": "view",
      "type": "function"
    },
    {
      "inputs": [
        {
          "internalType": "address",
          "name": "tokenOwner",
          "type": "address"
        }
      ],
      "name": "balanceOf",
      "outputs": [
        {
          "internalType": "uint256",
          "name": "",
          "type": "uint256"
        }
      ],
      "stateMutability": "view",
      "type": "function"
    },
    {
      "inputs": [
        {
          "internalType": "address",
          "name": "from",
          "type": "address"
        },
        {
          "internalType": "uint256",
          "name": "amount",
          "type": "uint256"
        },
        {
          "internalType": "bytes",
          "name": "data",
          "type": "bytes"
        }
      ],
      "name": "burn",
      "outputs": [],
      "stateMutability": "nonpayable",
      "type": "function"
    },
    {
      "inputs": [],
      "name": "decimals",
      "outputs": [
        {
          "internalType": "uint8",
          "name": "",
          "type": "uint8"
        }
      ],
      "stateMutability": "view",
      "type": "function"
    },
    {
      "inputs": [
        {
          "internalType": "bytes32[]",
          "name": "dataKeys",
          "type": "bytes32[]"
        }
      ],
      "name": "getData",
      "outputs": [
        {
          "internalType": "bytes[]",
          "name": "dataValues",
          "type": "bytes[]"
        }
      ],
      "stateMutability": "view",
      "type": "function"
    },
    {
      "inputs": [
        {
          "internalType": "bytes32",
          "name": "dataKey",
          "type": "bytes32"
        }
      ],
      "name": "getData",
      "outputs": [
        {
          "internalType": "bytes",
          "name": "dataValue",
          "type": "bytes"
        }
      ],
      "stateMutability": "view",
      "type": "function"
    },
    {
      "inputs": [
        {
          "internalType": "address",
          "name": "to",
          "type": "address"
        },
        {
          "internalType": "uint256",
          "name": "amount",
          "type": "uint256"
        },
        {
          "internalType": "bytes",
          "name": "data",
          "type": "bytes"
        }
      ],
      "name": "mint",
      "outputs": [],
      "stateMutability": "nonpayable",
      "type": "function"
    },
    {
      "inputs": [],
      "name": "name",
      "outputs": [
        {
          "internalType": "string",
          "name": "",
          "type": "string"
        }
      ],
      "stateMutability": "view",
      "type": "function"
    },
    {
      "inputs": [],
      "name": "owner",
      "outputs": [
        {
          "internalType": "address",
          "name": "",
          "type": "address"
        }
      ],
      "stateMutability": "view",
      "type": "function"
    },
    {
      "inputs": [],
      "name": "renounceOwnership",
      "outputs": [],
      "stateMutability": "nonpayable",
      "type": "function"
    },
    {
      "inputs": [
        {
          "internalType": "address",
          "name": "operator",
          "type": "address"
        }
      ],
      "name": "revokeOperator",
      "outputs": [],
      "stateMutability": "nonpayable",
      "type": "function"
    },
    {
      "inputs": [
        {
          "internalType": "bytes32[]",
          "name": "dataKeys",
          "type": "bytes32[]"
        },
        {
          "internalType": "bytes[]",
          "name": "dataValues",
          "type": "bytes[]"
        }
      ],
      "name": "setData",
      "outputs": [],
      "stateMutability": "nonpayable",
      "type": "function"
    },
    {
      "inputs": [
        {
          "internalType": "bytes32",
          "name": "dataKey",
          "type": "bytes32"
        },
        {
          "internalType": "bytes",
          "name": "dataValue",
          "type": "bytes"
        }
      ],
      "name": "setData",
      "outputs": [],
      "stateMutability": "nonpayable",
      "type": "function"
    },
    {
      "inputs": [
        {
          "internalType": "bytes4",
          "name": "interfaceId",
          "type": "bytes4"
        }
      ],
      "name": "supportsInterface",
      "outputs": [
        {
          "internalType": "bool",
          "name": "",
          "type": "bool"
        }
      ],
      "stateMutability": "view",
      "type": "function"
    },
    {
      "inputs": [],
      "name": "symbol",
      "outputs": [
        {
          "internalType": "string",
          "name": "",
          "type": "string"
        }
      ],
      "stateMutability": "view",
      "type": "function"
    },
    {
      "inputs": [],
      "name": "totalSupply",
      "outputs": [
        {
          "internalType": "uint256",
          "name": "",
          "type": "uint256"
        }
      ],
      "stateMutability": "view",
      "type": "function"
    },
    {
      "inputs": [
        {
          "internalType": "address",
          "name": "from",
          "type": "address"
        },
        {
          "internalType": "address",
          "name": "to",
          "type": "address"
        },
        {
          "internalType": "uint256",
          "name": "amount",
          "type": "uint256"
        },
        {
          "internalType": "bool",
          "name": "force",
          "type": "bool"
        },
        {
          "internalType": "bytes",
          "name": "data",
          "type": "bytes"
        }
      ],
      "name": "transfer",
      "outputs": [],
      "stateMutability": "nonpayable",
      "type": "function"
    },
    {
      "inputs": [
        {
          "internalType": "address",
          "name": "to",
          "type": "address"
        },
        {
          "internalType": "uint256",
          "name": "amount",
          "type": "uint256"
        }
      ],
      "name": "transfer",
      "outputs": [
        {
          "internalType": "bool",
          "name": "",
          "type": "bool"
        }
      ],
      "stateMutability": "nonpayable",
      "type": "function"
    },
    {
      "inputs": [
        {
          "internalType": "address[]",
          "name": "from",
          "type": "address[]"
        },
        {
          "internalType": "address[]",
          "name": "to",
          "type": "address[]"
        },
        {
          "internalType": "uint256[]",
          "name": "amount",
          "type": "uint256[]"
        },
        {
          "internalType": "bool[]",
          "name": "force",
          "type": "bool[]"
        },
        {
          "internalType": "bytes[]",
          "name": "data",
          "type": "bytes[]"
        }
      ],
      "name": "transferBatch",
      "outputs": [],
      "stateMutability": "nonpayable",
      "type": "function"
    },
    {
      "inputs": [
        {
          "internalType": "address",
          "name": "from",
          "type": "address"
        },
        {
          "internalType": "address",
          "name": "to",
          "type": "address"
        },
        {
          "internalType": "uint256",
          "name": "amount",
          "type": "uint256"
        }
      ],
      "name": "transferFrom",
      "outputs": [
        {
          "internalType": "bool",
          "name": "",
          "type": "bool"
        }
      ],
      "stateMutability": "nonpayable",
      "type": "function"
    },
    {
      "inputs": [
        {
          "internalType": "address",
          "name": "newOwner",
          "type": "address"
        }
      ],
      "name": "transferOwnership",
      "outputs": [],
      "stateMutability": "nonpayable",
      "type": "function"
    }
  ],
  "bytecode": {
    "object": "0x60806040523480156200001157600080fd5b50604051620025663803806200256683398101604081905262000034916200033d565b8282828282826000838383806001600160a01b038116620000aa5760405162461bcd60e51b815260206004820152602660248201527f4f776e61626c653a206e6577206f776e657220697320746865207a65726f206160448201526564647265737360d01b606482015260840160405180910390fd5b620000c081620001b060201b6200090a1760201c565b50620001177feafec4d89fa9619884b60000a4d96624a38f7ac2d8d9a604ecf07c12c77e480c60001b604051806040016040528060048152602001632936598960e21b8152506200021760201b6200096f1760201c565b620001517fdeba1e292f8ba88238e10ab3c7f88bd4be4fac56cad5194b6ecceaf653468af160001b846200021760201b6200096f1760201c565b6200018b7f2f0a68ab07768e01943a599e73362a0e17a63a72e94dd2e384d2c1d4db93275660001b836200021760201b6200096f1760201c565b50506002805460ff191692151592909217909155506200055a98505050505050505050565b6000546001600160a01b038281169116146200021457600080546001600160a01b038381166001600160a01b0319831681178455604051919092169283917f8be0079c531659141344cd1fd0a4f28419497f9722a3daafe3b4186f6b6457e09190a3505b50565b600082815260016020526040902062000231828262000459565b50817fece574603820d07bc9b91f2a932baadf4628aabcb8afba49776529c14a6104b28260405162000264919062000525565b60405180910390a25050565b634e487b7160e01b600052604160045260246000fd5b60005b83811015620002a357818101518382015260200162000289565b50506000910152565b600082601f830112620002be57600080fd5b81516001600160401b0380821115620002db57620002db62000270565b604051601f8301601f19908116603f0116810190828211818310171562000306576200030662000270565b816040528381528660208588010111156200032057600080fd5b6200033384602083016020890162000286565b9695505050505050565b6000806000606084860312156200035357600080fd5b83516001600160401b03808211156200036b57600080fd5b6200037987838801620002ac565b945060208601519150808211156200039057600080fd5b506200039f86828701620002ac565b604086015190935090506001600160a01b0381168114620003bf57600080fd5b809150509250925092565b600181811c90821680620003df57607f821691505b6020821081036200040057634e487b7160e01b600052602260045260246000fd5b50919050565b601f8211156200045457600081815260208120601f850160051c810160208610156200042f5750805b601f850160051c820191505b8181101562000450578281556001016200043b565b5050505b505050565b81516001600160401b0381111562000475576200047562000270565b6200048d81620004868454620003ca565b8462000406565b602080601f831160018114620004c55760008415620004ac5750858301515b600019600386901b1c1916600185901b17855562000450565b600085815260208120601f198616915b82811015620004f657888601518255948401946001909101908401620004d5565b5085821015620005155787850151600019600388901b60f8161c191681555b5050505050600190811b01905550565b60208152600082518060208401526200054681604085016020870162000286565b601f01601f19169190910160400192915050565b611ffc806200056a6000396000f3fe608060405234801561001057600080fd5b50600436106101585760003560e01c806365aeaa95116100c357806394d008ef1161007c57806394d008ef146102f257806395d89b4114610305578063a9059cbb1461030d578063dd62ed3e14610320578063f2fde38b14610333578063fad8b32a1461034657600080fd5b806365aeaa951461026d57806370a0823114610280578063715018a6146102a9578063760d9bba146102b15780637f23690c146102c45780638da5cb5b146102d757600080fd5b80632d7667c9116101155780632d7667c9146101e7578063313ce567146101fa57806344d171871461021457806347980aa3146102275780634e3e6e9c1461023a57806354f6127f1461025a57600080fd5b806301ffc9a71461015d57806306fdde0314610185578063095ea7b31461019a57806314a6e293146101ad57806318160ddd146101c257806323b872dd146101d4575b600080fd5b61017061016b36600461162a565b610359565b60405190151581526020015b60405180910390f35b61018d61036a565b60405161017c91906116a4565b6101706101a83660046116d3565b610397565b6101c06101bb3660046118c8565b6103ac565b005b6003545b60405190815260200161017c565b6101706101e236600461192b565b61043d565b6101c06101f5366004611a3b565b610466565b610202610555565b60405160ff909116815260200161017c565b6101c0610222366004611b0c565b61056e565b6101c06102353660046116d3565b6105b5565b61024d610248366004611b92565b6105c4565b60405161017c9190611bce565b61018d610268366004611c30565b610677565b6101c661027b366004611c49565b610682565b6101c661028e366004611c7c565b6001600160a01b031660009081526004602052604090205490565b6101c06106e8565b6101c06102bf366004611c97565b6106fc565b6101c06102d2366004611d02565b6107d1565b6000546040516001600160a01b03909116815260200161017c565b6101c0610300366004611b0c565b6107e3565b61018d610826565b61017061031b3660046116d3565b610853565b6101c661032e366004611c49565b610872565b6101c0610341366004611c7c565b610885565b6101c0610354366004611c7c565b6108fe565b6000610364826109c4565b92915050565b606060006103647fdeba1e292f8ba88238e10ab3c7f88bd4be4fac56cad5194b6ecceaf653468af16109e9565b60006103a383836105b5565b50600192915050565b6103b4610a8b565b80518251146103e857815181516040516321d1e13360e11b8152600481019290925260248201526044015b60405180910390fd5b60005b82518110156104385761043083828151811061040957610409611d3e565b602002602001015183838151811061042357610423611d3e565b6020026020010151610af4565b6001016103eb565b505050565b600061045c8484846001604051806020016040528060008152506106fc565b5060019392505050565b8451845181141580610479575083518114155b80610485575082518114155b80610491575081518114155b156104af5760405163263eee8d60e01b815260040160405180910390fd5b60005b8181101561054c576105448782815181106104cf576104cf611d3e565b60200260200101518783815181106104e9576104e9611d3e565b602002602001015187848151811061050357610503611d3e565b602002602001015187858151811061051d5761051d611d3e565b602002602001015187868151811061053757610537611d3e565b60200260200101516106fc565b6001016104b2565b50505050505050565b60025460009060ff166105685750601290565b50600090565b6105af848484848080601f016020809104026020016040519081016040528093929190818152602001838380828437600092019190915250610afe92505050565b50505050565b6105c0338383610b50565b5050565b606081516001600160401b038111156105df576105df6116fd565b60405190808252806020026020018201604052801561061257816020015b60608152602001906001900390816105fd5790505b50905060005b82518110156106715761064383828151811061063657610636611d3e565b60200260200101516109e9565b82828151811061065557610655611d3e565b602002602001018190525061066a8160010190565b9050610618565b50919050565b6060610364826109e9565b6000826001600160a01b0316826001600160a01b0316036106bc57506001600160a01b038116600090815260046020526040902054610364565b506001600160a01b03808216600090815260056020908152604080832093861683529290522054610364565b6106f0610a8b565b6106fa600061090a565b565b836001600160a01b0316856001600160a01b03160361072d57604051620b9afb60ec1b815260040160405180910390fd5b336001600160a01b03861681146107bc576001600160a01b03808716600090815260056020908152604080832093851683529290522054808511156107a65760405163f3a6b69160e01b81526001600160a01b0380891660048301526024820183905283166044820152606481018690526084016103df565b6107ba87836107b58885611d6a565b610b50565b505b6107c98686868686610ba0565b505050505050565b6107d9610a8b565b6105c08282610af4565b6105af8484600185858080601f016020809104026020016040519081016040528093929190818152602001838380828437600092019190915250610c0192505050565b606060006103647f2f0a68ab07768e01943a599e73362a0e17a63a72e94dd2e384d2c1d4db9327566109e9565b60006103a33384846001604051806020016040528060008152506106fc565b600061087e8284610682565b9392505050565b61088d610a8b565b6001600160a01b0381166108f25760405162461bcd60e51b815260206004820152602660248201527f4f776e61626c653a206e6577206f776e657220697320746865207a65726f206160448201526564647265737360d01b60648201526084016103df565b6108fb8161090a565b50565b6108fb33826000610b50565b6000546001600160a01b038281169116146108fb57600080546001600160a01b038381166001600160a01b0319831681178455604051919092169283917f8be0079c531659141344cd1fd0a4f28419497f9722a3daafe3b4186f6b6457e09190a35050565b60008281526001602052604090206109878282611df7565b50817fece574603820d07bc9b91f2a932baadf4628aabcb8afba49776529c14a6104b2826040516109b891906116a4565b60405180910390a25050565b60006001600160e01b03198216633687e17960e21b1480610364575061036482610c54565b6000818152600160205260409020805460609190610a0690611d7d565b80601f0160208091040260200160405190810160405280929190818152602001828054610a3290611d7d565b8015610a7f5780601f10610a5457610100808354040283529160200191610a7f565b820191906000526020600020905b815481529060010190602001808311610a6257829003601f168201915b50505050509050919050565b33610a9e6000546001600160a01b031690565b6001600160a01b0316146106fa5760405162461bcd60e51b815260206004820181905260248201527f4f776e61626c653a2063616c6c6572206973206e6f7420746865206f776e657260448201526064016103df565b6105c08282610c89565b610b09838383610d71565b6040518281526000906001600160a01b038516907fddf252ad1be2c89b69c2b068fc378daa952ba7f163c4a11628f55a4df523b3ef906020015b60405180910390a3505050565b610b5b838383610f57565b816001600160a01b0316836001600160a01b03167f8c5be1e5ebec7d5bd14f71427d1e84f3dd0314c0f7b2291e5b200ac8c7c3b92583604051610b4391815260200190565b610bad8585858585611055565b836001600160a01b0316856001600160a01b03167fddf252ad1be2c89b69c2b068fc378daa952ba7f163c4a11628f55a4df523b3ef85604051610bf291815260200190565b60405180910390a35050505050565b610c0d848484846111b2565b6040518381526001600160a01b038516906000907fddf252ad1be2c89b69c2b068fc378daa952ba7f163c4a11628f55a4df523b3ef9060200160405180910390a350505050565b60006001600160e01b03198216631c537ddf60e21b148061036457506301ffc9a760e01b6001600160e01b0319831614610364565b7f2145e1d6d074577dc71ef54c3807742b41b053a9352ae6b491331509acb9750f8201610cc9576040516385c169bd60e01b815260040160405180910390fd5b7fd0f59754f88971fe6bc5a6618cc9d5f1e859c58d16b22d1c7b2d3e2b246cd8aa8201610d0957604051630eceab6760e31b815260040160405180910390fd5b6000828152600160205260409020610d218282611df7565b50817fece574603820d07bc9b91f2a932baadf4628aabcb8afba49776529c14a6104b261010083511115610d6257610d5d836000610100611288565b610d64565b825b6040516109b891906116a4565b6001600160a01b038316610d9857604051630d2d5ec360e41b815260040160405180910390fd5b6001600160a01b03831660009081526004602052604090205480831115610deb576040516308d4794960e01b8152600481018290526001600160a01b0385166024820152604481018490526064016103df565b336001600160a01b0385168114610ea2576001600160a01b0380861660009081526005602090815260408083209385168352929052205480851115610e645760405163f3a6b69160e01b81526001600160a01b0380881660048301526024820183905283166044820152606481018690526084016103df565b6001600160a01b03808716600090815260056020908152604080832093861683529290529081208054879290610e9b908490611d6a565b9091555050505b8360036000828254610eb49190611d6a565b90915550506001600160a01b03851660009081526004602052604081208054869290610ee1908490611d6a565b9250508190555060006001600160a01b0316856001600160a01b0316826001600160a01b03167f3997e418d2cef0b3b0e907b1e39605c3f7d32dbd061e82ea5b4a770d46a160a687600088604051610f3b93929190611eb6565b60405180910390a4610f508560008686611395565b5050505050565b6001600160a01b038216610f7e576040516331aaf3b360e11b815260040160405180910390fd5b826001600160a01b0316826001600160a01b031603610f9c57505050565b6001600160a01b03808416600090815260056020908152604080832093861683529290522081905580156110105780836001600160a01b0316836001600160a01b03167fd66aff874162a96578e919097b6f6d153dfd89a5cec41bb331fdb0c4aec16e2c60405160405180910390a4505050565b826001600160a01b0316826001600160a01b03167f50546e66e5f44d728365dc3908c63bc5cfeeab470722c1677e3073a6ac294aa160405160405180910390a3505050565b6001600160a01b038516158061107257506001600160a01b038416155b1561109057604051630d2d5ec360e41b815260040160405180910390fd5b6001600160a01b038516600090815260046020526040902054808411156110e3576040516308d4794960e01b8152600481018290526001600160a01b0387166024820152604481018590526064016103df565b336001600160a01b0387166000908152600460205260408120805487929061110c908490611d6a565b90915550506001600160a01b03861660009081526004602052604081208054879290611139908490611ee0565b92505081905550856001600160a01b0316876001600160a01b0316826001600160a01b03167f3997e418d2cef0b3b0e907b1e39605c3f7d32dbd061e82ea5b4a770d46a160a688888860405161119193929190611eb6565b60405180910390a46111a587878786611395565b61054c8787878787611469565b6001600160a01b0384166111d957604051630d2d5ec360e41b815260040160405180910390fd5b3383600360008282546111ec9190611ee0565b90915550506001600160a01b03851660009081526004602052604081208054869290611219908490611ee0565b92505081905550846001600160a01b031660006001600160a01b0316826001600160a01b03167f3997e418d2cef0b3b0e907b1e39605c3f7d32dbd061e82ea5b4a770d46a160a687878760405161127293929190611eb6565b60405180910390a4610f50600086868686611469565b60608161129681601f611ee0565b10156112d55760405162461bcd60e51b815260206004820152600e60248201526d736c6963655f6f766572666c6f7760901b60448201526064016103df565b6112df8284611ee0565b845110156113235760405162461bcd60e51b8152602060048201526011602482015270736c6963655f6f75744f66426f756e647360781b60448201526064016103df565b606082158015611342576040519150600082526020820160405261138c565b6040519150601f8416801560200281840101858101878315602002848b0101015b8183101561137b578051835260209283019201611363565b5050858452601f01601f1916604052505b50949350505050565b6113a684631aed5a8560e21b6115a1565b156105af576000848484846040516020016113c49493929190611ef3565b60408051601f1981840301815290829052631aed5a8560e21b825291506001600160a01b03861690636bb56a1490611422907f429ac7a06903dbc9c13dfcb3c9d11df8194581fa047c96d7a4171fc7402958ea908590600401611f40565b6000604051808303816000875af1158015611441573d6000803e3d6000fd5b505050506040513d6000823e601f3d908101601f191682016040526107c99190810190611f59565b61147a84631aed5a8560e21b6115a1565b15611544576000858585846040516020016114989493929190611ef3565b60408051601f1981840301815290829052631aed5a8560e21b825291506001600160a01b03861690636bb56a14906114f6907f20804611b3e2ea21c480dc465142210acf4a2485947541770ec1fb87dee4a55c908590600401611f40565b6000604051808303816000875af1158015611515573d6000803e3d6000fd5b505050506040513d6000823e601f3d908101601f1916820160405261153d9190810190611f59565b5050610f50565b81610f50576001600160a01b0384163b1561157d576040516353047ddb60e11b81526001600160a01b03851660048201526024016103df565b6040516309b091fd60e21b81526001600160a01b03851660048201526024016103df565b604080516001600160e01b03198316602480830191909152825180830390910181526044909101909152602080820180516001600160e01b03166301ffc9a760e01b178152825160009392849283928392918391908a617530fa92503d91506000519050828015611613575060208210155b801561161f5750600081115b979650505050505050565b60006020828403121561163c57600080fd5b81356001600160e01b03198116811461087e57600080fd5b60005b8381101561166f578181015183820152602001611657565b50506000910152565b60008151808452611690816020860160208601611654565b601f01601f19169290920160200192915050565b60208152600061087e6020830184611678565b80356001600160a01b03811681146116ce57600080fd5b919050565b600080604083850312156116e657600080fd5b6116ef836116b7565b946020939093013593505050565b634e487b7160e01b600052604160045260246000fd5b604051601f8201601f191681016001600160401b038111828210171561173b5761173b6116fd565b604052919050565b60006001600160401b0382111561175c5761175c6116fd565b5060051b60200190565b600082601f83011261177757600080fd5b8135602061178c61178783611743565b611713565b82815260059290921b840181019181810190868411156117ab57600080fd5b8286015b848110156117c657803583529183019183016117af565b509695505050505050565b60006001600160401b038211156117ea576117ea6116fd565b50601f01601f191660200190565b600082601f83011261180957600080fd5b8135611817611787826117d1565b81815284602083860101111561182c57600080fd5b816020850160208301376000918101602001919091529392505050565b600082601f83011261185a57600080fd5b8135602061186a61178783611743565b82815260059290921b8401810191818101908684111561188957600080fd5b8286015b848110156117c65780356001600160401b038111156118ac5760008081fd5b6118ba8986838b01016117f8565b84525091830191830161188d565b600080604083850312156118db57600080fd5b82356001600160401b03808211156118f257600080fd5b6118fe86838701611766565b9350602085013591508082111561191457600080fd5b5061192185828601611849565b9150509250929050565b60008060006060848603121561194057600080fd5b611949846116b7565b9250611957602085016116b7565b9150604084013590509250925092565b600082601f83011261197857600080fd5b8135602061198861178783611743565b82815260059290921b840181019181810190868411156119a757600080fd5b8286015b848110156117c6576119bc816116b7565b83529183019183016119ab565b803580151581146116ce57600080fd5b600082601f8301126119ea57600080fd5b813560206119fa61178783611743565b82815260059290921b84018101918181019086841115611a1957600080fd5b8286015b848110156117c657611a2e816119c9565b8352918301918301611a1d565b600080600080600060a08688031215611a5357600080fd5b85356001600160401b0380821115611a6a57600080fd5b611a7689838a01611967565b96506020880135915080821115611a8c57600080fd5b611a9889838a01611967565b95506040880135915080821115611aae57600080fd5b611aba89838a01611766565b94506060880135915080821115611ad057600080fd5b611adc89838a016119d9565b93506080880135915080821115611af257600080fd5b50611aff88828901611849565b9150509295509295909350565b60008060008060608587031215611b2257600080fd5b611b2b856116b7565b93506020850135925060408501356001600160401b0380821115611b4e57600080fd5b818701915087601f830112611b6257600080fd5b813581811115611b7157600080fd5b886020828501011115611b8357600080fd5b95989497505060200194505050565b600060208284031215611ba457600080fd5b81356001600160401b03811115611bba57600080fd5b611bc684828501611766565b949350505050565b6000602080830181845280855180835260408601915060408160051b870101925083870160005b82811015611c2357603f19888603018452611c11858351611678565b94509285019290850190600101611bf5565b5092979650505050505050565b600060208284031215611c4257600080fd5b5035919050565b60008060408385031215611c5c57600080fd5b611c65836116b7565b9150611c73602084016116b7565b90509250929050565b600060208284031215611c8e57600080fd5b61087e826116b7565b600080600080600060a08688031215611caf57600080fd5b611cb8866116b7565b9450611cc6602087016116b7565b935060408601359250611cdb606087016119c9565b915060808601356001600160401b03811115611cf657600080fd5b611aff888289016117f8565b60008060408385031215611d1557600080fd5b8235915060208301356001600160401b03811115611d3257600080fd5b611921858286016117f8565b634e487b7160e01b600052603260045260246000fd5b634e487b7160e01b600052601160045260246000fd5b8181038181111561036457610364611d54565b600181811c90821680611d9157607f821691505b60208210810361067157634e487b7160e01b600052602260045260246000fd5b601f82111561043857600081815260208120601f850160051c81016020861015611dd85750805b601f850160051c820191505b818110156107c957828155600101611de4565b81516001600160401b03811115611e1057611e106116fd565b611e2481611e1e8454611d7d565b84611db1565b602080601f831160018114611e595760008415611e415750858301515b600019600386901b1c1916600185901b1785556107c9565b600085815260208120601f198616915b82811015611e8857888601518255948401946001909101908401611e69565b5085821015611ea65787850151600019600388901b60f8161c191681555b5050505050600190811b01905550565b8381528215156020820152606060408201526000611ed76060830184611678565b95945050505050565b8082018082111561036457610364611d54565b60006bffffffffffffffffffffffff19808760601b168352808660601b166014840152508360288301528251611f30816048850160208701611654565b9190910160480195945050505050565b828152604060208201526000611bc66040830184611678565b600060208284031215611f6b57600080fd5b81516001600160401b03811115611f8157600080fd5b8201601f81018413611f9257600080fd5b8051611fa0611787826117d1565b818152856020838501011115611fb557600080fd5b611ed782602083016020860161165456fea2646970667358221220ab993663ab8b1a5a02bf95693d7c92e83a65f13e4255498fe247f3f878c3e63864736f6c63430008110033",
    "linkReferences": {}
  },
  "methodIdentifiers": {
    "allowance(address,address)": "dd62ed3e",
    "approve(address,uint256)": "095ea7b3",
    "authorizeOperator(address,uint256)": "47980aa3",
    "authorizedAmountFor(address,address)": "65aeaa95",
    "balanceOf(address)": "70a08231",
    "burn(address,uint256,bytes)": "44d17187",
    "decimals()": "313ce567",
    "getData(bytes32)": "54f6127f",
    "getData(bytes32[])": "4e3e6e9c",
    "mint(address,uint256,bytes)": "94d008ef",
    "name()": "06fdde03",
    "owner()": "8da5cb5b",
    "renounceOwnership()": "715018a6",
    "revokeOperator(address)": "fad8b32a",
    "setData(bytes32,bytes)": "7f23690c",
    "setData(bytes32[],bytes[])": "14a6e293",
    "supportsInterface(bytes4)": "01ffc9a7",
    "symbol()": "95d89b41",
    "totalSupply()": "18160ddd",
    "transfer(address,address,uint256,bool,bytes)": "760d9bba",
    "transfer(address,uint256)": "a9059cbb",
    "transferBatch(address[],address[],uint256[],bool[],bytes[])": "2d7667c9",
    "transferFrom(address,address,uint256)": "23b872dd",
    "transferOwnership(address)": "f2fde38b"
  },
  "id": 131
}