{
  "abi": [
    {
      "inputs": [
        {
          "internalType": "address",
          "name": "caller",
          "type": "address"
        }
      ],
      "name": "CannotRegisterEOAsAsAssets",
      "type": "error"
    },
    {
      "inputs": [
        {
          "internalType": "bytes",
          "name": "invalidValue",
          "type": "bytes"
        },
        {
          "internalType": "uint256",
          "name": "invalidValueLength",
          "type": "uint256"
        }
      ],
      "name": "InvalidLSP5ReceivedAssetsArrayLength",
      "type": "error"
    },
    {
      "inputs": [],
      "name": "NativeTokensNotAccepted",
      "type": "error"
    },
    {
      "anonymous": false,
      "inputs": [
        {
          "indexed": true,
          "internalType": "address",
          "name": "from",
          "type": "address"
        },
        {
          "indexed": true,
          "internalType": "uint256",
          "name": "value",
          "type": "uint256"
        },
        {
          "indexed": true,
          "internalType": "bytes32",
          "name": "typeId",
          "type": "bytes32"
        },
        {
          "indexed": false,
          "internalType": "bytes",
          "name": "receivedData",
          "type": "bytes"
        },
        {
          "indexed": false,
          "internalType": "bytes",
          "name": "returnedValue",
          "type": "bytes"
        }
      ],
      "name": "UniversalReceiver",
      "type": "event"
    },
    {
      "inputs": [
        {
          "internalType": "bytes4",
          "name": "interfaceId",
          "type": "bytes4"
        }
      ],
      "name": "supportsInterface",
      "outputs": [
        {
          "internalType": "bool",
          "name": "",
          "type": "bool"
        }
      ],
      "stateMutability": "view",
      "type": "function"
    },
    {
      "inputs": [
        {
          "internalType": "bytes32",
          "name": "typeId",
          "type": "bytes32"
        },
        {
          "internalType": "bytes",
          "name": "",
          "type": "bytes"
        }
      ],
      "name": "universalReceiver",
      "outputs": [
        {
          "internalType": "bytes",
          "name": "result",
          "type": "bytes"
        }
      ],
      "stateMutability": "payable",
      "type": "function"
    }
  ],
  "bytecode": {
    "object": "0x608060405234801561001057600080fd5b506117a8806100206000396000f3fe6080604052600436106100295760003560e01c806301ffc9a71461002e5780636bb56a1414610063575b600080fd5b34801561003a57600080fd5b5061004e6100493660046112a7565b610083565b60405190151581526020015b60405180910390f35b610076610071366004611340565b6100ba565b60405161005a919061141a565b60006001600160e01b03198216631aed5a8560e21b14806100b457506301ffc9a760e01b6001600160e01b03198316145b92915050565b606034156100db576040516308a5b90d60e11b815260040160405180910390fd5b600080366100ea603482611443565b6100f5928290611456565b6100fe91611480565b60601c90506000806000806101128861051a565b9350935093509350838061013657506001600160e01b03198216637050cee960e01b145b1561017d576040518060400160405280601981526020017f4c5350313a20747970654964206f7574206f662073636f706500000000000000815250955050505050506100b4565b326001600160a01b038616036101b65760405163a529534560e01b81526001600160a01b03861660048201526024015b60405180910390fd5b60006101c5848760601b610703565b6040516354f6127f60e01b81526004810182905290915060009033906354f6127f90602401600060405180830381865afa158015610207573d6000803e3d6000fd5b505050506040513d6000823e601f3d908101601f1916820160405261022f91908101906114b0565b905082156103a6576040516370a0823160e01b81523360048201526000906001600160a01b038916906370a0823190602401602060405180830381865afa15801561027e573d6000803e3d6000fd5b505050506040513d601f19601f820116820180604052508101906102a29190611527565b9050806000036102f1576040518060400160405280601981526020017f4c5350313a2062616c616e6365206e6f74207570646174656400000000000000815250985050505050505050506100b4565b60006102fc83611540565b6001600160a01b031916146103335760405180606001604052806029815260200161174a60299139985050505050505050506100b4565b600080610342338b878a610758565b6040516314a6e29360e01b8152919350915033906314a6e2939061036c9085908590600401611577565b600060405180830381600087803b15801561038657600080fd5b505af115801561039a573d6000803e3d6000fd5b5050505050505061050d565b60006103b182611540565b6001600160a01b031916036103e757604051806060016040528060228152602001611708602291399750505050505050506100b4565b6040516370a0823160e01b81523360048201526000906001600160a01b038916906370a0823190602401602060405180830381865afa15801561042e573d6000803e3d6000fd5b505050506040513d601f19601f820116820180604052508101906104529190611527565b9050801561049f576040518060400160405280601e81526020017f4c5350313a2066756c6c2062616c616e6365206973206e6f742073656e740000815250985050505050505050506100b4565b6000806104ad338686610acf565b6040516314a6e29360e01b8152919350915033906314a6e293906104d79085908590600401611577565b600060405180830381600087803b1580156104f157600080fd5b505af1158015610505573d6000803e3d6000fd5b505050505050505b5050505050505092915050565b60008080807f429ac7a06903dbc9c13dfcb3c9d11df8194581fa047c96d7a4171fc7402958ea85148061056c57507f20804611b3e2ea21c480dc465142210acf4a2485947541770ec1fb87dee4a55c85145b156105c35769812c4334633eb816c80d60b01b9250633687e17960e21b91507f20804611b3e2ea21c480dc465142210acf4a2485947541770ec1fb87dee4a55c85146105b95760006105bc565b60015b90506106fc565b7fb23eae7e6d1564b295b4c3e3be402d9a2f0776c57bdf365903496f6fa481ab0085148061061057507f0b084a55ebf70fd3c06fd755269dac2212c4d3f0f4d09079780bfa50c1b2984d85145b1561065d5769812c4334633eb816c80d60b01b925063622e7a0160e01b91507f0b084a55ebf70fd3c06fd755269dac2212c4d3f0f4d09079780bfa50c1b2984d85146105b95760006105bc565b7fa124442e1cc7b52d8e2ede2787d43527dc1f3ae0de87f50dd03e27a71834f74c8514806106aa57507fe32c7debcb817925ba4883fdbfc52797187f28f73f860641dab1a68d9b32902c85145b156106f7576906491230f03e231fc8e360b21b9250637050cee960e01b91507fe32c7debcb817925ba4883fdbfc52797187f28f73f860641dab1a68d9b32902c85146105b95760006105bc565b600193505b9193509193565b604080516001600160b01b0319841660208201526000602a82018190526001600160601b03198416602c830152918291015b6040516020818303038152906040529050806107509061160f565b949350505050565b604080516003808252608082019092526060918291906020820183803683370190505060408051600380825260808201909252919350816020015b60608152602001906001900390816107935790505090508560006107b682611018565b905080516000036109285760008051602061172a83398151915260001b846000815181106107e6576107e6611636565b602002602001018181525050600160001b60405160200161080991815260200190565b6040516020818303038152906040528360008151811061082b5761082b611636565b602090810291909101015261084f60008051602061172a8339815191526000611095565b8460018151811061086257610862611636565b6020026020010181815250508660601b60405160200161089291906001600160601b031991909116815260140190565b604051602081830303815290604052836001815181106108b4576108b4611636565b602002602001018190525085846002815181106108d3576108d3611636565b60200260200101818152505084600060c01b6040516020016108f692919061164c565b6040516020818303038152906040528360028151811061091857610918611636565b6020026020010181905250610ac4565b8051602003610aa757600061093c8261160f565b60001c905060008051602061172a83398151915260001b8560008151811061096657610966611636565b602090810291909101015261097c816001611670565b60408051602081019290925201604051602081830303815290604052846000815181106109ab576109ab611636565b60209081029190910101526109ce60008051602061172a83398151915282611095565b856001815181106109e1576109e1611636565b6020026020010181815250508760601b604051602001610a1191906001600160601b031991909116815260140190565b60405160208183030381529060405284600181518110610a3357610a33611636565b60200260200101819052508685600281518110610a5257610a52611636565b602002602001018181525050858160c01b604051602001610a7492919061164c565b60405160208183030381529060405284600281518110610a9657610a96611636565b602002602001018190525050610ac4565b8051604051631d974f5f60e31b81526101ad918391600401611683565b505094509492505050565b606080846000610ade82611018565b610ae79061160f565b90506000610af6600183611443565b90506000610b0387611119565b90506000610b2960008051602061172a83398151915267ffffffffffffffff8416611095565b9050828267ffffffffffffffff1603610c9f576040805160038082526080820190925290602082016060803683370190505060408051600380825260808201909252919850816020015b6060815260200190600190039081610b7357905050955060008051602061172a83398151915260001b87600081518110610baf57610baf611636565b6020026020010181815250508260001b604051602001610bd191815260200190565b60405160208183030381529060405286600081518110610bf357610bf3611636565b60200260200101819052508087600181518110610c1257610c12611636565b6020026020010181815250506040518060200160405280600081525086600181518110610c4157610c41611636565b60200260200101819052508887600281518110610c6057610c60611636565b6020026020010181815250506040518060200160405280600081525086600281518110610c8f57610c8f611636565b602002602001018190525061100b565b60408051600580825260c08201909252906020820160a0803683370190505060408051600580825260c08201909252919850816020015b6060815260200190600190039081610cd657905050955060008051602061172a83398151915260001b87600081518110610d1257610d12611636565b6020026020010181815250508260001b604051602001610d3491815260200190565b60405160208183030381529060405286600081518110610d5657610d56611636565b60200260200101819052508887600181518110610d7557610d75611636565b6020026020010181815250506040518060200160405280600081525086600181518110610da457610da4611636565b60209081029190910101526000610dc960008051602061172a83398151915285611095565b6040516354f6127f60e01b8152600481018290529091506000906001600160a01b038816906354f6127f90602401600060405180830381865afa158015610e14573d6000803e3d6000fd5b505050506040513d6000823e601f3d908101601f19168201604052610e3c91908101906114b0565b610e45906116a5565b90506000610e6069812c4334633eb816c80d60b01b83610703565b6040516354f6127f60e01b8152600481018290529091506000906001600160a01b038a16906354f6127f90602401600060405180830381865afa158015610eab573d6000803e3d6000fd5b505050506040513d6000823e601f3d908101601f19168201604052610ed391908101906114b0565b90506000610ee4826000600461113d565b9050858c600281518110610efa57610efa611636565b60200260200101818152505083604051602001610f2791906001600160601b031991909116815260140190565b6040516020818303038152906040528b600281518110610f4957610f49611636565b6020026020010181905250848c600381518110610f6857610f68611636565b602002602001018181525050604051806020016040528060008152508b600381518110610f9757610f97611636565b6020026020010181905250828c600481518110610fb657610fb6611636565b602002602001018181525050808760c01b604051602001610fd89291906116d8565b6040516020818303038152906040528b600481518110610ffa57610ffa611636565b602002602001018190525050505050505b5050505050935093915050565b6040516354f6127f60e01b815260008051602061172a83398151915260048201526060906001600160a01b038316906354f6127f90602401600060405180830381865afa15801561106d573d6000803e3d6000fd5b505050506040513d6000823e601f3d908101601f191682016040526100b491908101906114b0565b60006fffffffffffffffffffffffffffffffff8211156110e75760405162461bcd60e51b815260206004820152600d60248201526c496e64657820746f6f2062696760981b60448201526064016101ad565b604080516fffffffffffffffffffffffffffffffff198086166020830152608085901b16603082015260009101610735565b600080611129836004600861113d565b905061113681600061124a565b9392505050565b60608161114b81601f611670565b101561118a5760405162461bcd60e51b815260206004820152600e60248201526d736c6963655f6f766572666c6f7760901b60448201526064016101ad565b6111948284611670565b845110156111d85760405162461bcd60e51b8152602060048201526011602482015270736c6963655f6f75744f66426f756e647360781b60448201526064016101ad565b6060821580156111f75760405191506000825260208201604052611241565b6040519150601f8416801560200281840101858101878315602002848b0101015b81831015611230578051835260209283019201611218565b5050858452601f01601f1916604052505b50949350505050565b6000611257826008611670565b8351101561129e5760405162461bcd60e51b8152602060048201526014602482015273746f55696e7436345f6f75744f66426f756e647360601b60448201526064016101ad565b50016008015190565b6000602082840312156112b957600080fd5b81356001600160e01b03198116811461113657600080fd5b634e487b7160e01b600052604160045260246000fd5b604051601f8201601f1916810167ffffffffffffffff81118282101715611310576113106112d1565b604052919050565b600067ffffffffffffffff821115611332576113326112d1565b50601f01601f191660200190565b6000806040838503121561135357600080fd5b82359150602083013567ffffffffffffffff81111561137157600080fd5b8301601f8101851361138257600080fd5b803561139561139082611318565b6112e7565b8181528660208385010111156113aa57600080fd5b816020840160208301376000602083830101528093505050509250929050565b60005b838110156113e55781810151838201526020016113cd565b50506000910152565b600081518084526114068160208601602086016113ca565b601f01601f19169290920160200192915050565b60208152600061113660208301846113ee565b634e487b7160e01b600052601160045260246000fd5b818103818111156100b4576100b461142d565b6000808585111561146657600080fd5b8386111561147357600080fd5b5050820193919092039150565b6001600160601b031981358181169160148510156114a85780818660140360031b1b83161692505b505092915050565b6000602082840312156114c257600080fd5b815167ffffffffffffffff8111156114d957600080fd5b8201601f810184136114ea57600080fd5b80516114f861139082611318565b81815285602083850101111561150d57600080fd5b61151e8260208301602086016113ca565b95945050505050565b60006020828403121561153957600080fd5b5051919050565b805160208201516001600160a01b0319808216929190600c83101561156f57808184600c0360031b1b83161693505b505050919050565b604080825283519082018190526000906020906060840190828701845b828110156115b057815184529284019290840190600101611594565b50505083810382850152845180825282820190600581901b8301840187850160005b8381101561160057601f198684030185526115ee8383516113ee565b948701949250908601906001016115d2565b50909998505050505050505050565b80516020808301519190811015611630576000198160200360031b1b821691505b50919050565b634e487b7160e01b600052603260045260246000fd5b6001600160e01b03199290921682526001600160c01b0319166004820152600c0190565b808201808211156100b4576100b461142d565b60408152600061169660408301856113ee565b90508260208301529392505050565b805160208201516001600160601b0319808216929190601483101561156f5760149290920360031b82901b161692915050565b600083516116ea8184602088016113ca565b6001600160c01b031993909316919092019081526008019291505056fe4c5350313a2061737365742073656e74206973206e6f7420726567697374657265646460ee3c0aac563ccbf76d6e1d07bada78e3a9514e6382b736ed3f478ab7b90b5552443a20617373657420726563656976656420697320616c72656164792072656769737465726564a2646970667358221220bc78667bf04a151cc70e7e9a5e6b3c674027f61ba485d1a699f358b5db8b558d64736f6c63430008110033",
    "linkReferences": {}
  },
  "methodIdentifiers": {
    "supportsInterface(bytes4)": "01ffc9a7",
    "universalReceiver(bytes32,bytes)": "6bb56a14"
  },
  "id": 23
}