{
  "abi": [
    {
      "inputs": [
        {
          "internalType": "address",
          "name": "newOwner",
          "type": "address"
        }
      ],
      "stateMutability": "nonpayable",
      "type": "constructor"
    },
    {
      "inputs": [
        {
          "internalType": "uint256",
          "name": "dataKeysLength",
          "type": "uint256"
        },
        {
          "internalType": "uint256",
          "name": "dataValuesLength",
          "type": "uint256"
        }
      ],
      "name": "ERC725Y_DataKeysValuesLengthMismatch",
      "type": "error"
    },
    {
      "anonymous": false,
      "inputs": [
        {
          "indexed": true,
          "internalType": "bytes32",
          "name": "dataKey",
          "type": "bytes32"
        },
        {
          "indexed": false,
          "internalType": "bytes",
          "name": "dataValue",
          "type": "bytes"
        }
      ],
      "name": "DataChanged",
      "type": "event"
    },
    {
      "anonymous": false,
      "inputs": [
        {
          "indexed": true,
          "internalType": "address",
          "name": "previousOwner",
          "type": "address"
        },
        {
          "indexed": true,
          "internalType": "address",
          "name": "newOwner",
          "type": "address"
        }
      ],
      "name": "OwnershipTransferred",
      "type": "event"
    },
    {
      "inputs": [
        {
          "internalType": "bytes32[]",
          "name": "dataKeys",
          "type": "bytes32[]"
        }
      ],
      "name": "getData",
      "outputs": [
        {
          "internalType": "bytes[]",
          "name": "dataValues",
          "type": "bytes[]"
        }
      ],
      "stateMutability": "view",
      "type": "function"
    },
    {
      "inputs": [
        {
          "internalType": "bytes32",
          "name": "dataKey",
          "type": "bytes32"
        }
      ],
      "name": "getData",
      "outputs": [
        {
          "internalType": "bytes",
          "name": "dataValue",
          "type": "bytes"
        }
      ],
      "stateMutability": "view",
      "type": "function"
    },
    {
      "inputs": [],
      "name": "owner",
      "outputs": [
        {
          "internalType": "address",
          "name": "",
          "type": "address"
        }
      ],
      "stateMutability": "view",
      "type": "function"
    },
    {
      "inputs": [],
      "name": "renounceOwnership",
      "outputs": [],
      "stateMutability": "nonpayable",
      "type": "function"
    },
    {
      "inputs": [
        {
          "internalType": "bytes32[]",
          "name": "dataKeys",
          "type": "bytes32[]"
        },
        {
          "internalType": "bytes[]",
          "name": "dataValues",
          "type": "bytes[]"
        }
      ],
      "name": "setData",
      "outputs": [],
      "stateMutability": "nonpayable",
      "type": "function"
    },
    {
      "inputs": [
        {
          "internalType": "bytes32",
          "name": "dataKey",
          "type": "bytes32"
        },
        {
          "internalType": "bytes",
          "name": "dataValue",
          "type": "bytes"
        }
      ],
      "name": "setData",
      "outputs": [],
      "stateMutability": "nonpayable",
      "type": "function"
    },
    {
      "inputs": [
        {
          "internalType": "bytes4",
          "name": "interfaceId",
          "type": "bytes4"
        }
      ],
      "name": "supportsInterface",
      "outputs": [
        {
          "internalType": "bool",
          "name": "",
          "type": "bool"
        }
      ],
      "stateMutability": "view",
      "type": "function"
    },
    {
      "inputs": [
        {
          "internalType": "address",
          "name": "newOwner",
          "type": "address"
        }
      ],
      "name": "transferOwnership",
      "outputs": [],
      "stateMutability": "nonpayable",
      "type": "function"
    },
    {
      "inputs": [
        {
          "internalType": "bytes32",
          "name": "key",
          "type": "bytes32"
        },
        {
          "internalType": "bytes",
          "name": "value",
          "type": "bytes"
        }
      ],
      "name": "updateStorage",
      "outputs": [],
      "stateMutability": "nonpayable",
      "type": "function"
    }
  ],
  "bytecode": {
    "object": "0x608060405234801561001057600080fd5b50604051610c2b380380610c2b83398101604081905261002f91610119565b806001600160a01b0381166100995760405162461bcd60e51b815260206004820152602660248201527f4f776e61626c653a206e6577206f776e657220697320746865207a65726f206160448201526564647265737360d01b606482015260840160405180910390fd5b6100ac816100b360201b6103b31760201c565b5050610149565b6000546001600160a01b0382811691161461011657600080546001600160a01b038381166001600160a01b0319831681178455604051919092169283917f8be0079c531659141344cd1fd0a4f28419497f9722a3daafe3b4186f6b6457e09190a3505b50565b60006020828403121561012b57600080fd5b81516001600160a01b038116811461014257600080fd5b9392505050565b610ad3806101586000396000f3fe608060405234801561001057600080fd5b50600436106100935760003560e01c8063715018a611610066578063715018a6146101155780637f15d62a1461011d5780637f23690c146101305780638da5cb5b14610143578063f2fde38b1461015e57600080fd5b806301ffc9a71461009857806314a6e293146100c05780634e3e6e9c146100d557806354f6127f146100f5575b600080fd5b6100ab6100a6366004610578565b610171565b60405190151581526020015b60405180910390f35b6100d36100ce3660046106ef565b6101a8565b005b6100e86100e33660046107c4565b610239565b6040516100b79190610847565b6101086101033660046108a9565b6102ed565b6040516100b791906108c2565b6100d36102f8565b6100d361012b3660046108d5565b61030c565b6100d361013e3660046108d5565b610324565b6000546040516001600160a01b0390911681526020016100b7565b6100d361016c36600461091c565b61033a565b60006001600160e01b03198216631c537ddf60e21b14806101a257506301ffc9a760e01b6001600160e01b03198316145b92915050565b6101b0610418565b80518251146101e457815181516040516321d1e13360e11b8152600481019290925260248201526044015b60405180910390fd5b60005b82518110156102345761022c83828151811061020557610205610945565b602002602001015183838151811061021f5761021f610945565b6020026020010151610481565b6001016101e7565b505050565b6060815167ffffffffffffffff811115610255576102556105a9565b60405190808252806020026020018201604052801561028857816020015b60608152602001906001900390816102735790505b50905060005b82518110156102e7576102b98382815181106102ac576102ac610945565b60200260200101516104d6565b8282815181106102cb576102cb610945565b60200260200101819052506102e08160010190565b905061028e565b50919050565b60606101a2826104d6565b610300610418565b61030a60006103b3565b565b600082815260016020526040902061023482826109dd565b61032c610418565b6103368282610481565b5050565b610342610418565b6001600160a01b0381166103a75760405162461bcd60e51b815260206004820152602660248201527f4f776e61626c653a206e6577206f776e657220697320746865207a65726f206160448201526564647265737360d01b60648201526084016101db565b6103b0816103b3565b50565b6000546001600160a01b038281169116146103b057600080546001600160a01b038381166001600160a01b0319831681178455604051919092169283917f8be0079c531659141344cd1fd0a4f28419497f9722a3daafe3b4186f6b6457e09190a35050565b3361042b6000546001600160a01b031690565b6001600160a01b03161461030a5760405162461bcd60e51b815260206004820181905260248201527f4f776e61626c653a2063616c6c6572206973206e6f7420746865206f776e657260448201526064016101db565b600082815260016020526040902061049982826109dd565b50817fece574603820d07bc9b91f2a932baadf4628aabcb8afba49776529c14a6104b2826040516104ca91906108c2565b60405180910390a25050565b60008181526001602052604090208054606091906104f39061095b565b80601f016020809104026020016040519081016040528092919081815260200182805461051f9061095b565b801561056c5780601f106105415761010080835404028352916020019161056c565b820191906000526020600020905b81548152906001019060200180831161054f57829003601f168201915b50505050509050919050565b60006020828403121561058a57600080fd5b81356001600160e01b0319811681146105a257600080fd5b9392505050565b634e487b7160e01b600052604160045260246000fd5b604051601f8201601f1916810167ffffffffffffffff811182821017156105e8576105e86105a9565b604052919050565b600067ffffffffffffffff82111561060a5761060a6105a9565b5060051b60200190565b600082601f83011261062557600080fd5b8135602061063a610635836105f0565b6105bf565b82815260059290921b8401810191818101908684111561065957600080fd5b8286015b84811015610674578035835291830191830161065d565b509695505050505050565b600082601f83011261069057600080fd5b813567ffffffffffffffff8111156106aa576106aa6105a9565b6106bd601f8201601f19166020016105bf565b8181528460208386010111156106d257600080fd5b816020850160208301376000918101602001919091529392505050565b6000806040838503121561070257600080fd5b823567ffffffffffffffff8082111561071a57600080fd5b61072686838701610614565b935060209150818501358181111561073d57600080fd5b8501601f8101871361074e57600080fd5b803561075c610635826105f0565b81815260059190911b8201840190848101908983111561077b57600080fd5b8584015b838110156107b3578035868111156107975760008081fd5b6107a58c898389010161067f565b84525091860191860161077f565b508096505050505050509250929050565b6000602082840312156107d657600080fd5b813567ffffffffffffffff8111156107ed57600080fd5b6107f984828501610614565b949350505050565b6000815180845260005b818110156108275760208185018101518683018201520161080b565b506000602082860101526020601f19601f83011685010191505092915050565b6000602080830181845280855180835260408601915060408160051b870101925083870160005b8281101561089c57603f1988860301845261088a858351610801565b9450928501929085019060010161086e565b5092979650505050505050565b6000602082840312156108bb57600080fd5b5035919050565b6020815260006105a26020830184610801565b600080604083850312156108e857600080fd5b82359150602083013567ffffffffffffffff81111561090657600080fd5b6109128582860161067f565b9150509250929050565b60006020828403121561092e57600080fd5b81356001600160a01b03811681146105a257600080fd5b634e487b7160e01b600052603260045260246000fd5b600181811c9082168061096f57607f821691505b6020821081036102e757634e487b7160e01b600052602260045260246000fd5b601f82111561023457600081815260208120601f850160051c810160208610156109b65750805b601f850160051c820191505b818110156109d5578281556001016109c2565b505050505050565b815167ffffffffffffffff8111156109f7576109f76105a9565b610a0b81610a05845461095b565b8461098f565b602080601f831160018114610a405760008415610a285750858301515b600019600386901b1c1916600185901b1785556109d5565b600085815260208120601f198616915b82811015610a6f57888601518255948401946001909101908401610a50565b5085821015610a8d5787850151600019600388901b60f8161c191681555b5050505050600190811b0190555056fea2646970667358221220e18cdac9cd9597137f648a07374d8b72f0ea313e2f0f4eba08379677696faa9664736f6c63430008110033",
    "linkReferences": {}
  },
  "methodIdentifiers": {
    "getData(bytes32)": "54f6127f",
    "getData(bytes32[])": "4e3e6e9c",
    "owner()": "8da5cb5b",
    "renounceOwnership()": "715018a6",
    "setData(bytes32,bytes)": "7f23690c",
    "setData(bytes32[],bytes[])": "14a6e293",
    "supportsInterface(bytes4)": "01ffc9a7",
    "transferOwnership(address)": "f2fde38b",
    "updateStorage(bytes32,bytes)": "7f15d62a"
  },
  "id": 114
}