{
  "abi": [
    {
      "inputs": [
        {
          "internalType": "bytes",
          "name": "newSignature",
          "type": "bytes"
        },
        {
          "internalType": "uint256",
          "name": "newNonce",
          "type": "uint256"
        },
        {
          "internalType": "bytes",
          "name": "newPayload",
          "type": "bytes"
        }
      ],
      "name": "prepareRelayCall",
      "outputs": [],
      "stateMutability": "nonpayable",
      "type": "function"
    },
    {
      "inputs": [
        {
          "internalType": "address",
          "name": "keyManagerAddress",
          "type": "address"
        }
      ],
      "name": "relayCallThatReenters",
      "outputs": [
        {
          "internalType": "bytes",
          "name": "",
          "type": "bytes"
        }
      ],
      "stateMutability": "nonpayable",
      "type": "function"
    },
    {
      "stateMutability": "payable",
      "type": "receive"
    }
  ],
  "bytecode": {
    "object": "0x608060405234801561001057600080fd5b5061059a806100206000396000f3fe60806040526004361061002d5760003560e01c806379fff75314610039578063c25708bf1461005b57600080fd5b3661003457005b600080fd5b34801561004557600080fd5b506100596100543660046101fe565b610091565b005b34801561006757600080fd5b5061007b61007636600461026b565b6100b5565b60405161008891906102bf565b60405180910390f35b600061009d848261037b565b50600182905560026100af828261037b565b50505050565b6001546040516304816afd60e51b81526060916001600160a01b0384169163902d5fa0916100ec91600091906002906004016104b8565b6000604051808303816000875af115801561010b573d6000803e3d6000fd5b505050506040513d6000823e601f3d908101601f1916820160405261013391908101906104ed565b92915050565b634e487b7160e01b600052604160045260246000fd5b604051601f8201601f1916810167ffffffffffffffff8111828210171561017857610178610139565b604052919050565b600067ffffffffffffffff82111561019a5761019a610139565b50601f01601f191660200190565b600082601f8301126101b957600080fd5b81356101cc6101c782610180565b61014f565b8181528460208386010111156101e157600080fd5b816020850160208301376000918101602001919091529392505050565b60008060006060848603121561021357600080fd5b833567ffffffffffffffff8082111561022b57600080fd5b610237878388016101a8565b945060208601359350604086013591508082111561025457600080fd5b50610261868287016101a8565b9150509250925092565b60006020828403121561027d57600080fd5b81356001600160a01b038116811461029457600080fd5b9392505050565b60005b838110156102b657818101518382015260200161029e565b50506000910152565b60208152600082518060208401526102de81604085016020870161029b565b601f01601f19169190910160400192915050565b600181811c9082168061030657607f821691505b60208210810361032657634e487b7160e01b600052602260045260246000fd5b50919050565b601f82111561037657600081815260208120601f850160051c810160208610156103535750805b601f850160051c820191505b818110156103725782815560010161035f565b5050505b505050565b815167ffffffffffffffff81111561039557610395610139565b6103a9816103a384546102f2565b8461032c565b602080601f8311600181146103de57600084156103c65750858301515b600019600386901b1c1916600185901b178555610372565b600085815260208120601f198616915b8281101561040d578886015182559484019460019091019084016103ee565b508582101561042b5787850151600019600388901b60f8161c191681555b5050505050600190811b01905550565b60008154610448816102f2565b808552602060018381168015610465576001811461047f576104ad565b60ff1985168884015283151560051b8801830195506104ad565b866000528260002060005b858110156104a55781548a820186015290830190840161048a565b890184019650505b505050505092915050565b6060815260006104cb606083018661043b565b84602084015282810360408401526104e3818561043b565b9695505050505050565b6000602082840312156104ff57600080fd5b815167ffffffffffffffff81111561051657600080fd5b8201601f8101841361052757600080fd5b80516105356101c782610180565b81815285602083850101111561054a57600080fd5b61055b82602083016020860161029b565b9594505050505056fea26469706673582212206692df560cb7dfb05ef43592d6959b87938941687b245cf165b5c710bbec4be964736f6c63430008110033",
    "linkReferences": {}
  },
  "methodIdentifiers": {
    "prepareRelayCall(bytes,uint256,bytes)": "79fff753",
    "relayCallThatReenters(address)": "c25708bf"
  },
  "id": 122
}