{
  "_format": "hh-sol-artifact-1",
  "contractName": "UniversalProfile",
  "sourceName": "contracts/UniversalProfile.sol",
  "abi": [
    {
      "inputs": [
        {
          "internalType": "address",
          "name": "initialOwner",
          "type": "address"
        }
      ],
      "stateMutability": "payable",
      "type": "constructor"
    },
    {
      "inputs": [],
      "name": "ERC725X_ContractDeploymentFailed",
      "type": "error"
    },
    {
      "inputs": [],
      "name": "ERC725X_CreateOperationsRequireEmptyRecipientAddress",
      "type": "error"
    },
    {
      "inputs": [],
      "name": "ERC725X_ExecuteParametersEmptyArray",
      "type": "error"
    },
    {
      "inputs": [],
      "name": "ERC725X_ExecuteParametersLengthMismatch",
      "type": "error"
    },
    {
      "inputs": [
        {
          "internalType": "uint256",
          "name": "balance",
          "type": "uint256"
        },
        {
          "internalType": "uint256",
          "name": "value",
          "type": "uint256"
        }
      ],
      "name": "ERC725X_InsufficientBalance",
      "type": "error"
    },
    {
      "inputs": [],
      "name": "ERC725X_MsgValueDisallowedInDelegateCall",
      "type": "error"
    },
    {
      "inputs": [],
      "name": "ERC725X_MsgValueDisallowedInStaticCall",
      "type": "error"
    },
    {
      "inputs": [],
      "name": "ERC725X_NoContractBytecodeProvided",
      "type": "error"
    },
    {
      "inputs": [
        {
          "internalType": "uint256",
          "name": "operationTypeProvided",
          "type": "uint256"
        }
      ],
      "name": "ERC725X_UnknownOperationType",
      "type": "error"
    },
    {
      "inputs": [],
      "name": "ERC725Y_DataKeysValuesEmptyArray",
      "type": "error"
    },
    {
      "inputs": [],
      "name": "ERC725Y_DataKeysValuesLengthMismatch",
      "type": "error"
    },
    {
      "inputs": [
        {
          "internalType": "address",
          "name": "caller",
          "type": "address"
        }
      ],
      "name": "LSP14CallerNotPendingOwner",
      "type": "error"
    },
    {
      "inputs": [],
      "name": "LSP14CannotTransferOwnershipToSelf",
      "type": "error"
    },
    {
      "inputs": [],
      "name": "LSP14MustAcceptOwnershipInSeparateTransaction",
      "type": "error"
    },
    {
      "inputs": [
        {
          "internalType": "uint256",
          "name": "renounceOwnershipStart",
          "type": "uint256"
        },
        {
          "internalType": "uint256",
          "name": "renounceOwnershipEnd",
          "type": "uint256"
        }
      ],
      "name": "LSP14NotInRenounceOwnershipInterval",
      "type": "error"
    },
    {
      "inputs": [
        {
          "internalType": "bool",
          "name": "postCall",
          "type": "bool"
        },
        {
          "internalType": "bytes4",
          "name": "returnedStatus",
          "type": "bytes4"
        }
      ],
      "name": "LSP20CallVerificationFailed",
      "type": "error"
    },
    {
      "inputs": [
        {
          "internalType": "bool",
          "name": "postCall",
          "type": "bool"
        }
      ],
      "name": "LSP20CallingVerifierFailed",
      "type": "error"
    },
    {
      "inputs": [
        {
          "internalType": "address",
          "name": "logicVerifier",
          "type": "address"
        }
      ],
      "name": "LSP20EOACannotVerifyCall",
      "type": "error"
    },
    {
      "inputs": [
        {
          "internalType": "bytes4",
          "name": "functionSelector",
          "type": "bytes4"
        }
      ],
      "name": "NoExtensionFoundForFunctionSelector",
      "type": "error"
    },
    {
      "anonymous": false,
      "inputs": [
        {
          "indexed": true,
          "internalType": "uint256",
          "name": "operationType",
          "type": "uint256"
        },
        {
          "indexed": true,
          "internalType": "address",
          "name": "contractAddress",
          "type": "address"
        },
        {
          "indexed": true,
          "internalType": "uint256",
          "name": "value",
          "type": "uint256"
        },
        {
          "indexed": false,
          "internalType": "bytes32",
          "name": "salt",
          "type": "bytes32"
        }
      ],
      "name": "ContractCreated",
      "type": "event"
    },
    {
      "anonymous": false,
      "inputs": [
        {
          "indexed": true,
          "internalType": "bytes32",
          "name": "dataKey",
          "type": "bytes32"
        },
        {
          "indexed": false,
          "internalType": "bytes",
          "name": "dataValue",
          "type": "bytes"
        }
      ],
      "name": "DataChanged",
      "type": "event"
    },
    {
      "anonymous": false,
      "inputs": [
        {
          "indexed": true,
          "internalType": "uint256",
          "name": "operationType",
          "type": "uint256"
        },
        {
          "indexed": true,
          "internalType": "address",
          "name": "target",
          "type": "address"
        },
        {
          "indexed": true,
          "internalType": "uint256",
          "name": "value",
          "type": "uint256"
        },
        {
          "indexed": false,
          "internalType": "bytes4",
          "name": "selector",
          "type": "bytes4"
        }
      ],
      "name": "Executed",
      "type": "event"
    },
    {
      "anonymous": false,
      "inputs": [],
      "name": "OwnershipRenounced",
      "type": "event"
    },
    {
      "anonymous": false,
      "inputs": [
        {
          "indexed": true,
          "internalType": "address",
          "name": "previousOwner",
          "type": "address"
        },
        {
          "indexed": true,
          "internalType": "address",
          "name": "newOwner",
          "type": "address"
        }
      ],
      "name": "OwnershipTransferStarted",
      "type": "event"
    },
    {
      "anonymous": false,
      "inputs": [
        {
          "indexed": true,
          "internalType": "address",
          "name": "previousOwner",
          "type": "address"
        },
        {
          "indexed": true,
          "internalType": "address",
          "name": "newOwner",
          "type": "address"
        }
      ],
      "name": "OwnershipTransferred",
      "type": "event"
    },
    {
      "anonymous": false,
      "inputs": [],
      "name": "RenounceOwnershipStarted",
      "type": "event"
    },
    {
      "anonymous": false,
      "inputs": [
        {
          "indexed": true,
          "internalType": "address",
          "name": "from",
          "type": "address"
        },
        {
          "indexed": true,
          "internalType": "uint256",
          "name": "value",
          "type": "uint256"
        },
        {
          "indexed": true,
          "internalType": "bytes32",
          "name": "typeId",
          "type": "bytes32"
        },
        {
          "indexed": false,
          "internalType": "bytes",
          "name": "receivedData",
          "type": "bytes"
        },
        {
          "indexed": false,
          "internalType": "bytes",
          "name": "returnedValue",
          "type": "bytes"
        }
      ],
      "name": "UniversalReceiver",
      "type": "event"
    },
    {
      "stateMutability": "payable",
      "type": "fallback"
    },
    {
      "inputs": [],
      "name": "RENOUNCE_OWNERSHIP_CONFIRMATION_DELAY",
      "outputs": [
        {
          "internalType": "uint256",
          "name": "",
          "type": "uint256"
        }
      ],
      "stateMutability": "view",
      "type": "function"
    },
    {
      "inputs": [],
      "name": "RENOUNCE_OWNERSHIP_CONFIRMATION_PERIOD",
      "outputs": [
        {
          "internalType": "uint256",
          "name": "",
          "type": "uint256"
        }
      ],
      "stateMutability": "view",
      "type": "function"
    },
    {
      "inputs": [],
      "name": "acceptOwnership",
      "outputs": [],
      "stateMutability": "nonpayable",
      "type": "function"
    },
    {
      "inputs": [
        {
          "internalType": "bytes[]",
          "name": "data",
          "type": "bytes[]"
        }
      ],
      "name": "batchCalls",
      "outputs": [
        {
          "internalType": "bytes[]",
          "name": "results",
          "type": "bytes[]"
        }
      ],
      "stateMutability": "nonpayable",
      "type": "function"
    },
    {
      "inputs": [
        {
          "internalType": "uint256",
          "name": "operationType",
          "type": "uint256"
        },
        {
          "internalType": "address",
          "name": "target",
          "type": "address"
        },
        {
          "internalType": "uint256",
          "name": "value",
          "type": "uint256"
        },
        {
          "internalType": "bytes",
          "name": "data",
          "type": "bytes"
        }
      ],
      "name": "execute",
      "outputs": [
        {
          "internalType": "bytes",
          "name": "",
          "type": "bytes"
        }
      ],
      "stateMutability": "payable",
      "type": "function"
    },
    {
      "inputs": [
        {
          "internalType": "uint256[]",
          "name": "operationsType",
          "type": "uint256[]"
        },
        {
          "internalType": "address[]",
          "name": "targets",
          "type": "address[]"
        },
        {
          "internalType": "uint256[]",
          "name": "values",
          "type": "uint256[]"
        },
        {
          "internalType": "bytes[]",
          "name": "datas",
          "type": "bytes[]"
        }
      ],
      "name": "executeBatch",
      "outputs": [
        {
          "internalType": "bytes[]",
          "name": "",
          "type": "bytes[]"
        }
      ],
      "stateMutability": "payable",
      "type": "function"
    },
    {
      "inputs": [
        {
          "internalType": "bytes32",
          "name": "dataKey",
          "type": "bytes32"
        }
      ],
      "name": "getData",
      "outputs": [
        {
          "internalType": "bytes",
          "name": "dataValue",
          "type": "bytes"
        }
      ],
      "stateMutability": "view",
      "type": "function"
    },
    {
      "inputs": [
        {
          "internalType": "bytes32[]",
          "name": "dataKeys",
          "type": "bytes32[]"
        }
      ],
      "name": "getDataBatch",
      "outputs": [
        {
          "internalType": "bytes[]",
          "name": "dataValues",
          "type": "bytes[]"
        }
      ],
      "stateMutability": "view",
      "type": "function"
    },
    {
      "inputs": [
        {
          "internalType": "bytes32",
          "name": "dataHash",
          "type": "bytes32"
        },
        {
          "internalType": "bytes",
          "name": "signature",
          "type": "bytes"
        }
      ],
      "name": "isValidSignature",
      "outputs": [
        {
          "internalType": "bytes4",
          "name": "returnedStatus",
          "type": "bytes4"
        }
      ],
      "stateMutability": "view",
      "type": "function"
    },
    {
      "inputs": [],
      "name": "owner",
      "outputs": [
        {
          "internalType": "address",
          "name": "",
          "type": "address"
        }
      ],
      "stateMutability": "view",
      "type": "function"
    },
    {
      "inputs": [],
      "name": "pendingOwner",
      "outputs": [
        {
          "internalType": "address",
          "name": "",
          "type": "address"
        }
      ],
      "stateMutability": "view",
      "type": "function"
    },
    {
      "inputs": [],
      "name": "renounceOwnership",
      "outputs": [],
      "stateMutability": "nonpayable",
      "type": "function"
    },
    {
      "inputs": [
        {
          "internalType": "bytes32",
          "name": "dataKey",
          "type": "bytes32"
        },
        {
          "internalType": "bytes",
          "name": "dataValue",
          "type": "bytes"
        }
      ],
      "name": "setData",
      "outputs": [],
      "stateMutability": "payable",
      "type": "function"
    },
    {
      "inputs": [
        {
          "internalType": "bytes32[]",
          "name": "dataKeys",
          "type": "bytes32[]"
        },
        {
          "internalType": "bytes[]",
          "name": "dataValues",
          "type": "bytes[]"
        }
      ],
      "name": "setDataBatch",
      "outputs": [],
      "stateMutability": "payable",
      "type": "function"
    },
    {
      "inputs": [
        {
          "internalType": "bytes4",
          "name": "interfaceId",
          "type": "bytes4"
        }
      ],
      "name": "supportsInterface",
      "outputs": [
        {
          "internalType": "bool",
          "name": "",
          "type": "bool"
        }
      ],
      "stateMutability": "view",
      "type": "function"
    },
    {
      "inputs": [
        {
          "internalType": "address",
          "name": "pendingNewOwner",
          "type": "address"
        }
      ],
      "name": "transferOwnership",
      "outputs": [],
      "stateMutability": "nonpayable",
      "type": "function"
    },
    {
      "inputs": [
        {
          "internalType": "bytes32",
          "name": "typeId",
          "type": "bytes32"
        },
        {
          "internalType": "bytes",
          "name": "receivedData",
          "type": "bytes"
        }
      ],
      "name": "universalReceiver",
      "outputs": [
        {
          "internalType": "bytes",
          "name": "returnedValues",
          "type": "bytes"
        }
      ],
      "stateMutability": "payable",
      "type": "function"
    },
    {
      "inputs": [],
      "name": "version",
      "outputs": [
        {
          "internalType": "string",
          "name": "",
          "type": "string"
        }
      ],
      "stateMutability": "view",
      "type": "function"
    },
    {
      "stateMutability": "payable",
      "type": "receive"
    }
  ],
  "bytecode": "0x608060405260405162003be938038062003be9833981016040819052620000269162000326565b803415620000ae577f9c4705229491d365fb5434052e12a386d6771d976bea61070a8c694e8affea3d60001b34336001600160a01b03167f9c3ba68eb5742b8e3961aea0afc7371a71bf433c8a67a831803b64c064a178c2604051620000a5906040808252600090820181905260606020830181905282015260800190565b60405180910390a45b620000c4816200011460201b620016211760201c565b506040805180820190915260048152635ef83ad960e01b60208201526200010d907feafec4d89fa9619884b600005ef83ad9559033e6e941db7d7c495acdce6163479062000182565b5062000541565b6000546001600160a01b038281169116146200017f57600080546040516001600160a01b03808516939216917f8be0079c531659141344cd1fd0a4f28419497f9722a3daafe3b4186f6b6457e091a3600080546001600160a01b0319166001600160a01b0383161790555b50565b60008281526001602052604090206200019c8282620003fd565b50817fece574603820d07bc9b91f2a932baadf4628aabcb8afba49776529c14a6104b261010083511115620001ec57620001e68360006101006200020960201b6200168f1760201c565b620001ee565b825b604051620001fd9190620004c9565b60405180910390a25050565b6060816200021981601f62000519565b10156200025e5760405162461bcd60e51b815260206004820152600e60248201526d736c6963655f6f766572666c6f7760901b60448201526064015b60405180910390fd5b6200026a828462000519565b84511015620002b05760405162461bcd60e51b8152602060048201526011602482015270736c6963655f6f75744f66426f756e647360781b604482015260640162000255565b606082158015620002d157604051915060008252602082016040526200031d565b6040519150601f8416801560200281840101858101878315602002848b0101015b818310156200030c578051835260209283019201620002f2565b5050858452601f01601f1916604052505b50949350505050565b6000602082840312156200033957600080fd5b81516001600160a01b03811681146200035157600080fd5b9392505050565b634e487b7160e01b600052604160045260246000fd5b600181811c908216806200038357607f821691505b602082108103620003a457634e487b7160e01b600052602260045260246000fd5b50919050565b601f821115620003f857600081815260208120601f850160051c81016020861015620003d35750805b601f850160051c820191505b81811015620003f457828155600101620003df565b5050505b505050565b81516001600160401b0381111562000419576200041962000358565b62000431816200042a84546200036e565b84620003aa565b602080601f831160018114620004695760008415620004505750858301515b600019600386901b1c1916600185901b178555620003f4565b600085815260208120601f198616915b828110156200049a5788860151825594840194600190910190840162000479565b5085821015620004b95787850151600019600388901b60f8161c191681555b5050505050600190811b01905550565b600060208083528351808285015260005b81811015620004f857858101830151858201604001528201620004da565b506000604082860101526040601f19601f8301168501019250505092915050565b808201808211156200053b57634e487b7160e01b600052601160045260246000fd5b92915050565b61369880620005516000396000f3fe60806040526004361061012d5760003560e01c8063715018a6116100a55780639790242111610074578063e30c397811610059578063e30c39781461042a578063ead3fbdf1461021e578063f2fde38b1461044857610178565b806397902421146103f7578063dedff9c61461040a57610178565b8063715018a61461038857806379ba50971461039d5780637f23690c146103b25780638da5cb5b146103c557610178565b806344c028fe116100fc57806354fd4d50116100e157806354fd4d501461030f5780636963d438146103555780636bb56a141461037557610178565b806344c028fe146102cf57806354f6127f146102ef57610178565b806301bfba611461021e57806301ffc9a7146102465780631626ba7e1461027657806331858452146102af57610178565b36610178573415610176576101747f9c4705229491d365fb5434052e12a386d6771d976bea61070a8c694e8affea3d60001b60405180602001604052806000815250610468565b505b005b600036606060048210156102065734156101f1576101ef7f9c4705229491d365fb5434052e12a386d6771d976bea61070a8c694e8affea3d60001b84848080601f01602080910402602001604051908101604052809392919081815260200183838082843760009201919091525061046892505050565b505b50604080516020810190915260008152610213565b610210838361073e565b90505b915050805190602001f35b34801561022a57600080fd5b5061023360c881565b6040519081526020015b60405180910390f35b34801561025257600080fd5b50610266610261366004612bf6565b61091a565b604051901515815260200161023d565b34801561028257600080fd5b50610296610291366004612cd8565b610a05565b6040516001600160e01b0319909116815260200161023d565b6102c26102bd366004612e40565b610bcc565b60405161023d9190612f98565b6102e26102dd366004612ffa565b610cd8565b60405161023d919061304f565b3480156102fb57600080fd5b506102e261030a366004613062565b610dbb565b34801561031b57600080fd5b5060408051808201909152600681527f302e31322e30000000000000000000000000000000000000000000000000000060208201526102e2565b34801561036157600080fd5b506102c261037036600461307b565b610dc6565b6102e2610383366004612cd8565b610468565b34801561039457600080fd5b50610176610f22565b3480156103a957600080fd5b50610176610fe5565b6101766103c0366004612cd8565b611120565b3480156103d157600080fd5b506000546001600160a01b03165b6040516001600160a01b03909116815260200161023d565b6101766104053660046130f0565b611203565b34801561041657600080fd5b506102c261042536600461314a565b6113d6565b34801561043657600080fd5b506003546001600160a01b03166103df565b34801561045457600080fd5b5061017661046336600461317f565b611481565b6060341580159061049957507f9c4705229491d365fb5434052e12a386d6771d976bea61070a8c694e8affea3d8314155b15610504576105027f9c4705229491d365fb5434052e12a386d6771d976bea61070a8c694e8affea3d60001b6000368080601f01602080910402602001604051908101604052809392919081815260200183838082843760009201919091525061046892505050565b505b600061052f7f0cfc51aec37c55a4d0b1a65c6255c4bf2fbdf6277f3cc0730c45b828b6db8b476117b9565b9050606060148251106105e05760006105478361319a565b60601c905061055d81635122dded60e11b61185b565b156105de57604051635122dded60e11b81526001600160a01b0382169063a245bbda9061059490339034908b908b906004016131d6565b6000604051808303816000875af11580156105b3573d6000803e3d6000fd5b505050506040513d6000823e601f3d908101601f191682016040526105db9190810190613204565b91505b505b600061060c7f0cfc51aec37c55a4d0b100000000000000000000000000000000000000000000876118f9565b90506000610619826117b9565b9050606060148251106106ca5760006106318361319a565b60601c905061064781635122dded60e11b61185b565b156106c857604051635122dded60e11b81526001600160a01b0382169063a245bbda9061067e90339034908e908e906004016131d6565b6000604051808303816000875af115801561069d573d6000803e3d6000fd5b505050506040513d6000823e601f3d908101601f191682016040526106c59190810190613204565b91505b505b83816040516020016106dd929190613272565b60405160208183030381529060405295508734336001600160a01b03167f9c3ba68eb5742b8e3961aea0afc7371a71bf433c8a67a831803b64c064a178c28a8a60405161072b929190613272565b60405180910390a4505050505092915050565b60606000806107586000356001600160e01b031916611962565b915091503460001415801561076b575080155b156107d5576107d37f9c4705229491d365fb5434052e12a386d6771d976bea61070a8c694e8affea3d60001b86868080601f01602080910402602001604051908101604052809392919081815260200183838082843760009201919091525061046892505050565b505b6000356001600160e01b0319161580156107f657506001600160a01b038216155b15610814576040518060200160405280600081525092505050610914565b6001600160a01b038216610867576040517fbb370b2b0000000000000000000000000000000000000000000000000000000081526001600160e01b03196000351660048201526024015b60405180910390fd5b600080836001600160a01b031683610880576000610882565b345b888833346040516020016108999493929190613297565b60408051601f19818403018152908290526108b3916132c7565b60006040518083038185875af1925050503d80600081146108f0576040519150601f19603f3d011682016040523d82523d6000602084013e6108f5565b606091505b5091509150811561090b57935061091492505050565b80518060208301fd5b92915050565b60006001600160e01b03198216630b135d3f60e11b148061096457506001600160e01b031982167f24871b3d00000000000000000000000000000000000000000000000000000000145b8061097f57506001600160e01b03198216631aed5a8560e21b145b806109b357506001600160e01b031982167f94be599900000000000000000000000000000000000000000000000000000000145b806109e757506001600160e01b031982167f1a0eb6a500000000000000000000000000000000000000000000000000000000145b806109f657506109f682611a42565b80610914575061091482611a80565b600080610a1a6000546001600160a01b031690565b90506001600160a01b0381163b15610b4c57600080826001600160a01b0316631626ba7e60e01b8787604051602401610a549291906132e3565b60408051601f198184030181529181526020820180517bffffffffffffffffffffffffffffffffffffffffffffffffffffffff166001600160e01b0319909416939093179092529051610aa791906132c7565b600060405180830381855afa9150503d8060008114610ae2576040519150601f19603f3d011682016040523d82523d6000602084013e610ae7565b606091505b50915091506000828015610afc575081516020145b8015610b2357508151630b135d3f60e11b90610b2190840160209081019085016132fc565b145b905080610b38576001600160e01b0319610b41565b630b135d3f60e11b5b945050505050610914565b600080610b598686611ab7565b90925090506000816004811115610b7257610b72613315565b14610b8b57506001600160e01b03199250610914915050565b826001600160a01b0316826001600160a01b031614610bb2576001600160e01b0319610bbb565b630b135d3f60e11b5b9350505050610914565b5092915050565b60603415610c57576040516001600160e01b03196000351660208201527f9c4705229491d365fb5434052e12a386d6771d976bea61070a8c694e8affea3d90349033907f9c3ba68eb5742b8e3961aea0afc7371a71bf433c8a67a831803b64c064a178c29060240160408051601f1981840301815290829052610c4e9161332b565b60405180910390a45b6000546001600160a01b031633819003610c7f57610c7786868686611afc565b915050610cd0565b6000610c8a82611c8c565b90506000610c9a88888888611afc565b90508115610ccb57610ccb8382604051602001610cb79190612f98565b604051602081830303815290604052611e58565b925050505b949350505050565b60603415610d63576040516001600160e01b03196000351660208201527f9c4705229491d365fb5434052e12a386d6771d976bea61070a8c694e8affea3d90349033907f9c3ba68eb5742b8e3961aea0afc7371a71bf433c8a67a831803b64c064a178c29060240160408051601f1981840301815290829052610d5a9161332b565b60405180910390a45b6000546001600160a01b031633819003610d8357610c7786868686611f8e565b6000610d8e82611c8c565b90506000610d9e88888888611f8e565b90508115610ccb57610ccb8382604051602001610cb7919061304f565b6060610914826117b9565b60608167ffffffffffffffff811115610de157610de1612c13565b604051908082528060200260200182016040528015610e1457816020015b6060815260200190600190039081610dff5790505b50905060005b82811015610bc55760008030868685818110610e3857610e38613355565b9050602002810190610e4a919061336b565b604051610e589291906133b2565b600060405180830381855af49150503d8060008114610e93576040519150601f19603f3d011682016040523d82523d6000602084013e610e98565b606091505b509150915081610efa57805115610eb25780518082602001fd5b60405162461bcd60e51b815260206004820152601960248201527f4c5350303a20626174636843616c6c7320726576657274656400000000000000604482015260640161085e565b80848481518110610f0d57610f0d613355565b60209081029190910101525050600101610e1a565b6000546001600160a01b031633819003610f4157610f3e6120e4565b50565b6000610f4c82611c8c565b90506000610f626000546001600160a01b031690565b9050610f6c6120e4565b6000546001600160a01b0316610fc157604080516020810190915260008152610fc1906001600160a01b038316907fa4e59c931d14f7c8a7a35027f92ee40b5f2886b9fdcdb78f30bc5ecce5a2f814906121f0565b8115610fe057610fe08360405180602001604052806000815250611e58565b505050565b600354600160a01b900460ff1615611029576040517f5758dd0700000000000000000000000000000000000000000000000000000000815260040160405180910390fd5b600080546003546001600160a01b039182169291169033821461106f5761104f82611c8c565b905061105a82611621565b600380546001600160a01b0319169055611077565b611077612284565b6040805160208101909152600081526110bc906001600160a01b038516907fa4e59c931d14f7c8a7a35027f92ee40b5f2886b9fdcdb78f30bc5ecce5a2f814906121f0565b604080516020810190915260008152611101906001600160a01b038416907fceca317f109c43507871523e82dc2a3cc64dfa18f12da0b6db14f6e23f995538906121f0565b8015610fe057610fe08260405180602001604052806000815250611e58565b34156111a9576040516001600160e01b03196000351660208201527f9c4705229491d365fb5434052e12a386d6771d976bea61070a8c694e8affea3d90349033907f9c3ba68eb5742b8e3961aea0afc7371a71bf433c8a67a831803b64c064a178c29060240160408051601f19818403018152908290526111a09161332b565b60405180910390a45b6000546001600160a01b0316338190036111c757610fe083836122e5565b60006111d282611c8c565b90506111de84846122e5565b80156111fd576111fd8260405180602001604052806000815250611e58565b50505050565b341561128c576040516001600160e01b03196000351660208201527f9c4705229491d365fb5434052e12a386d6771d976bea61070a8c694e8affea3d90349033907f9c3ba68eb5742b8e3961aea0afc7371a71bf433c8a67a831803b64c064a178c29060240160408051601f19818403018152908290526112839161332b565b60405180910390a45b80518251146112c7576040517f3bcc897900000000000000000000000000000000000000000000000000000000815260040160405180910390fd5b8151600003611302576040517f97da5f9500000000000000000000000000000000000000000000000000000000815260040160405180910390fd5b6000546001600160a01b0316338190036113665760005b83518110156111fd5761135e84828151811061133757611337613355565b602002602001015184838151811061135157611351613355565b60200260200101516122e5565b600101611319565b600061137182611c8c565b905060005b84518110156113b6576113ae85828151811061139457611394613355565b602002602001015185838151811061135157611351613355565b600101611376565b5080156111fd576111fd8260405180602001604052806000815250611e58565b6060815167ffffffffffffffff8111156113f2576113f2612c13565b60405190808252806020026020018201604052801561142557816020015b60608152602001906001900390816114105790505b50905060005b825181101561147b5761145683828151811061144957611449613355565b60200260200101516117b9565b82828151811061146857611468613355565b602090810291909101015260010161142b565b50919050565b6000546001600160a01b031633819003611547576003805460ff60a01b1916600160a01b1790556114b182612359565b816001600160a01b0316816001600160a01b03167f38d16b8cac22d99fc7c124b9cd0de2d3fa1faef420bfe791d8c362d765e2270060405160405180910390a3604080516020810190915260008152611536906001600160a01b038416907fe17117c9d2665d1dbeb479ed8058bbebde3c50ac50e2e65619f60006caac6926906121f0565b6003805460ff60a01b191690555050565b600061155282611c8c565b6003805460ff60a01b1916600160a01b179055905061157083612359565b826001600160a01b0316826001600160a01b03167f38d16b8cac22d99fc7c124b9cd0de2d3fa1faef420bfe791d8c362d765e2270060405160405180910390a36040805160208101909152600081526115f5906001600160a01b038516907fe17117c9d2665d1dbeb479ed8058bbebde3c50ac50e2e65619f60006caac6926906121f0565b6003805460ff60a01b191690558015610fe057610fe08260405180602001604052806000815250611e58565b6000546001600160a01b03828116911614610f3e57600080546040516001600160a01b03808516939216917f8be0079c531659141344cd1fd0a4f28419497f9722a3daafe3b4186f6b6457e091a3600080546001600160a01b0383166001600160a01b031990911617905550565b60608161169d81601f6133d8565b10156116eb5760405162461bcd60e51b815260206004820152600e60248201527f736c6963655f6f766572666c6f77000000000000000000000000000000000000604482015260640161085e565b6116f582846133d8565b845110156117455760405162461bcd60e51b815260206004820152601160248201527f736c6963655f6f75744f66426f756e6473000000000000000000000000000000604482015260640161085e565b60608215801561176457604051915060008252602082016040526117ae565b6040519150601f8416801560200281840101858101878315602002848b0101015b8183101561179d578051835260209283019201611785565b5050858452601f01601f1916604052505b5090505b9392505050565b60008181526001602052604090208054606091906117d6906133eb565b80601f0160208091040260200160405190810160405280929190818152602001828054611802906133eb565b801561184f5780601f106118245761010080835404028352916020019161184f565b820191906000526020600020905b81548152906001019060200180831161183257829003601f168201915b50505050509050919050565b604080516001600160e01b03198316602480830191909152825180830390910181526044909101909152602080820180517bffffffffffffffffffffffffffffffffffffffffffffffffffffffff166301ffc9a760e01b178152825160009392849283928392918391908a617530fa92503d915060005190508280156118e2575060208210155b80156118ee5750600081115b979650505050505050565b604080517fffffffffffffffffffff00000000000000000000000000000000000000000000841660208201526000602a82018190526bffffffffffffffffffffffff198416602c83015291829101604051602081830303815290604052905080610cd09061341f565b6000808061199a7fcee78b4094da86011096000000000000000000000000000000000000000000006001600160e01b031986166118f9565b905060006119a7826117b9565b90508051601503611a2a57806014815181106119c5576119c5613355565b01602001517fff00000000000000000000000000000000000000000000000000000000000000167f010000000000000000000000000000000000000000000000000000000000000003611a2a57611a1b8161319a565b60601c95600195509350505050565b611a338161319a565b60601c95600095509350505050565b60006001600160e01b031982167fa918fa6b0000000000000000000000000000000000000000000000000000000014806109145750610914826123c2565b600080611a936301ffc9a760e01b611962565b5090506001600160a01b038116611aad5750600092915050565b6117b2818461185b565b6000808251604103611aed5760208301516040840151606085015160001a611ae187828585612400565b94509450505050611af5565b506000905060025b9250929050565b606083518551141580611b1d575082518451141580611b1d57508151835114155b15611b54576040517f3ff55f4d00000000000000000000000000000000000000000000000000000000815260040160405180910390fd5b8451600003611b8f576040517fe9ad2b5f00000000000000000000000000000000000000000000000000000000815260040160405180910390fd5b6000855167ffffffffffffffff811115611bab57611bab612c13565b604051908082528060200260200182016040528015611bde57816020015b6060815260200190600190039081611bc95790505b50905060005b8651811015611c8257611c5d878281518110611c0257611c02613355565b6020026020010151878381518110611c1c57611c1c613355565b6020026020010151878481518110611c3657611c36613355565b6020026020010151878581518110611c5057611c50613355565b6020026020010151611f8e565b828281518110611c6f57611c6f613355565b6020908102919091010152600101611be4565b5095945050505050565b6000816001600160a01b03163b600003611cdd576040517f0c3923010000000000000000000000000000000000000000000000000000000081526001600160a01b038316600482015260240161085e565b6040517fde928f140000000000000000000000000000000000000000000000000000000081526001600160a01b0383169063de928f1490611d2d9033903090829034906000903690600401613443565b6020604051808303816000875af1925050508015611d68575060408051601f3d908101601f19168201909252611d65918101906134a0565b60015b611da7573d808015611d96576040519150601f19603f3d011682016040523d82523d6000602084013e611d9b565b606091505b5061147b6000826124c4565b7fffffff000000000000000000000000000000000000000000000000000000000081167fde928f000000000000000000000000000000000000000000000000000000000014611e1c57604051639d6741e360e01b8152600060048201526001600160e01b03198216602482015260440161085e565b8060031a60f81b7effffffffffffffffffffffffffffffffffffffffffffffffffffffffffffff1916600160f81b14915050919050565b919050565b816001600160a01b031663d3fc45d333303334600036604051602001611e83969594939291906134bd565b60405160208183030381529060405280519060200120836040518363ffffffff1660e01b8152600401611eb79291906132e3565b6020604051808303816000875af1925050508015611ef2575060408051601f3d908101601f19168201909252611eef918101906134a0565b60015b611f31573d808015611f20576040519150601f19603f3d011682016040523d82523d6000602084013e611f25565b606091505b50610fe06001826124c4565b6001600160e01b031981167fd3fc45d30000000000000000000000000000000000000000000000000000000014610fe057604051639d6741e360e01b8152600160048201526001600160e01b03198216602482015260440161085e565b606084611fa757611fa084848461250a565b9050610cd0565b60018503611fe1576001600160a01b03841615611fd757604051631820c12560e11b815260040160405180910390fd5b611fa08383612636565b6002850361201b576001600160a01b0384161561201157604051631820c12560e11b815260040160405180910390fd5b611fa08383612750565b6003850361206557821561205b576040517f72f2bc6a00000000000000000000000000000000000000000000000000000000815260040160405180910390fd5b611fa0848361283a565b600485036120af5782156120a5576040517f5ac8313500000000000000000000000000000000000000000000000000000000815260040160405180910390fd5b611fa08483612939565b6040517f7583b3bc0000000000000000000000000000000000000000000000000000000081526004810186905260240161085e565b60025443906000906120f89060c8906133d8565b9050600061210760c8836133d8565b9050808311806121175750600254155b1561215f576002839055600380546001600160a01b03191690556040517f81b7f830f1f0084db6497c486cbe6974c86488dcc4e3738eab94ab6d6b1653e790600090a1505050565b818310156121a3576040517f1b080942000000000000000000000000000000000000000000000000000000008152600481018390526024810182905260440161085e565b6121ad6000611621565b60006002819055600380546001600160a01b03191690556040517fd1f66c3d2bc1993a86be5e3d33709d98f0442381befcedd29f578b9b2506b1ce9190a1505050565b61220a6001600160a01b038416631aed5a8560e21b61185b565b15610fe057604051631aed5a8560e21b81526001600160a01b03841690636bb56a149061223d90859085906004016132e3565b6000604051808303816000875af115801561225c573d6000803e3d6000fd5b505050506040513d6000823e601f3d908101601f191682016040526111fd9190810190613204565b6003546001600160a01b031633146122ca576040517f451e452800000000000000000000000000000000000000000000000000000000815233600482015260240161085e565b6122d333611621565b600380546001600160a01b0319169055565b60008281526001602052604090206122fd828261355b565b50817fece574603820d07bc9b91f2a932baadf4628aabcb8afba49776529c14a6104b26101008351111561233e5761233983600061010061168f565b612340565b825b60405161234d919061304f565b60405180910390a25050565b306001600160a01b0382160361239b576040517fe052a6f800000000000000000000000000000000000000000000000000000000815260040160405180910390fd5b600380546001600160a01b0319166001600160a01b03929092169190911790556000600255565b60006001600160e01b031982167f629aa6940000000000000000000000000000000000000000000000000000000014806109145750610914826129e5565b6000807f7fffffffffffffffffffffffffffffff5d576e7357a4501ddfe92f46681b20a083111561243757506000905060036124bb565b6040805160008082526020820180845289905260ff881692820192909252606081018690526080810185905260019060a0016020604051602081039080840390855afa15801561248b573d6000803e3d6000fd5b5050604051601f1901519150506001600160a01b0381166124b4576000600192509250506124bb565b9150600090505b94509492505050565b8051156124d45780518082602001fd5b6040517f8c6a8ae3000000000000000000000000000000000000000000000000000000008152821515600482015260240161085e565b606082471015612536576040516301bf351f60e31b81524760048201526024810184905260440161085e565b826001600160a01b03851660007f4810874456b8e6487bd861375cf6abd8e1c8bb5858c8ce36a86a04dabfac199e61256d8661361b565b6040516001600160e01b0319909116815260200160405180910390a4600080856001600160a01b031685856040516125a591906132c7565b60006040518083038185875af1925050503d80600081146125e2576040519150601f19603f3d011682016040523d82523d6000602084013e6125e7565b606091505b509150915061262c82826040518060400160405280601681526020017f455243373235583a20556e6b6e6f776e204572726f7200000000000000000000815250612a33565b9695505050505050565b606082471015612662576040516301bf351f60e31b81524760048201526024810184905260440161085e565b81516000036126845760405163b81cd8d960e01b815260040160405180910390fd5b600082516020840185f090506001600160a01b0381166126d0576040517f0b07489b00000000000000000000000000000000000000000000000000000000815260040160405180910390fd5b83816001600160a01b031660017fa1fb700aaee2ae4a2ff6f91ce7eba292f89c2f5488b8ec4c5c5c8150692595c36000801b60405161271191815260200190565b60405180910390a46040516bffffffffffffffffffffffff19606083901b16602082015260340160405160208183030381529060405291505092915050565b606081516000036127745760405163b81cd8d960e01b815260040160405180910390fd5b600061278d8360208551612788919061364f565b612a4c565b905060006127aa846000602087516127a5919061364f565b61168f565b905060006127b9868484612ab2565b905085816001600160a01b031660027fa1fb700aaee2ae4a2ff6f91ce7eba292f89c2f5488b8ec4c5c5c8150692595c3866040516127f991815260200190565b60405180910390a46040516bffffffffffffffffffffffff19606083901b166020820152603401604051602081830303815290604052935050505092915050565b606060006001600160a01b03841660037f4810874456b8e6487bd861375cf6abd8e1c8bb5858c8ce36a86a04dabfac199e6128748661361b565b6040516001600160e01b0319909116815260200160405180910390a4600080846001600160a01b0316846040516128ab91906132c7565b600060405180830381855afa9150503d80600081146128e6576040519150601f19603f3d011682016040523d82523d6000602084013e6128eb565b606091505b509150915061293082826040518060400160405280601681526020017f455243373235583a20556e6b6e6f776e204572726f7200000000000000000000815250612a33565b95945050505050565b606060006001600160a01b03841660047f4810874456b8e6487bd861375cf6abd8e1c8bb5858c8ce36a86a04dabfac199e6129738661361b565b6040516001600160e01b0319909116815260200160405180910390a4600080846001600160a01b0316846040516129aa91906132c7565b600060405180830381855af49150503d80600081146128e6576040519150601f19603f3d011682016040523d82523d6000602084013e6128eb565b60006001600160e01b031982167f7545acac00000000000000000000000000000000000000000000000000000000148061091457506301ffc9a760e01b6001600160e01b0319831614610914565b60608315612a425750816117b2565b6117b28383612bb6565b6000612a598260206133d8565b83511015612aa95760405162461bcd60e51b815260206004820152601560248201527f746f427974657333325f6f75744f66426f756e64730000000000000000000000604482015260640161085e565b50016020015190565b600083471015612b045760405162461bcd60e51b815260206004820152601d60248201527f437265617465323a20696e73756666696369656e742062616c616e6365000000604482015260640161085e565b8151600003612b555760405162461bcd60e51b815260206004820181905260248201527f437265617465323a2062797465636f6465206c656e677468206973207a65726f604482015260640161085e565b8282516020840186f590506001600160a01b0381166117b25760405162461bcd60e51b815260206004820152601960248201527f437265617465323a204661696c6564206f6e206465706c6f7900000000000000604482015260640161085e565b815115612bc65781518083602001fd5b8060405162461bcd60e51b815260040161085e919061304f565b6001600160e01b031981168114610f3e57600080fd5b600060208284031215612c0857600080fd5b81356117b281612be0565b634e487b7160e01b600052604160045260246000fd5b604051601f8201601f1916810167ffffffffffffffff81118282101715612c5257612c52612c13565b604052919050565b600067ffffffffffffffff821115612c7457612c74612c13565b50601f01601f191660200190565b600082601f830112612c9357600080fd5b8135612ca6612ca182612c5a565b612c29565b818152846020838601011115612cbb57600080fd5b816020850160208301376000918101602001919091529392505050565b60008060408385031215612ceb57600080fd5b82359150602083013567ffffffffffffffff811115612d0957600080fd5b612d1585828601612c82565b9150509250929050565b600067ffffffffffffffff821115612d3957612d39612c13565b5060051b60200190565b600082601f830112612d5457600080fd5b81356020612d64612ca183612d1f565b82815260059290921b84018101918181019086841115612d8357600080fd5b8286015b84811015612d9e5780358352918301918301612d87565b509695505050505050565b80356001600160a01b0381168114611e5357600080fd5b600082601f830112612dd157600080fd5b81356020612de1612ca183612d1f565b82815260059290921b84018101918181019086841115612e0057600080fd5b8286015b84811015612d9e57803567ffffffffffffffff811115612e245760008081fd5b612e328986838b0101612c82565b845250918301918301612e04565b60008060008060808587031215612e5657600080fd5b843567ffffffffffffffff80821115612e6e57600080fd5b612e7a88838901612d43565b9550602091508187013581811115612e9157600080fd5b8701601f81018913612ea257600080fd5b8035612eb0612ca182612d1f565b81815260059190911b8201840190848101908b831115612ecf57600080fd5b928501925b82841015612ef457612ee584612da9565b82529285019290850190612ed4565b97505050506040870135915080821115612f0d57600080fd5b612f1988838901612d43565b93506060870135915080821115612f2f57600080fd5b50612f3c87828801612dc0565b91505092959194509250565b60005b83811015612f63578181015183820152602001612f4b565b50506000910152565b60008151808452612f84816020860160208601612f48565b601f01601f19169290920160200192915050565b6000602080830181845280855180835260408601915060408160051b870101925083870160005b82811015612fed57603f19888603018452612fdb858351612f6c565b94509285019290850190600101612fbf565b5092979650505050505050565b6000806000806080858703121561301057600080fd5b8435935061302060208601612da9565b925060408501359150606085013567ffffffffffffffff81111561304357600080fd5b612f3c87828801612c82565b6020815260006117b26020830184612f6c565b60006020828403121561307457600080fd5b5035919050565b6000806020838503121561308e57600080fd5b823567ffffffffffffffff808211156130a657600080fd5b818501915085601f8301126130ba57600080fd5b8135818111156130c957600080fd5b8660208260051b85010111156130de57600080fd5b60209290920196919550909350505050565b6000806040838503121561310357600080fd5b823567ffffffffffffffff8082111561311b57600080fd5b61312786838701612d43565b9350602085013591508082111561313d57600080fd5b50612d1585828601612dc0565b60006020828403121561315c57600080fd5b813567ffffffffffffffff81111561317357600080fd5b610cd084828501612d43565b60006020828403121561319157600080fd5b6117b282612da9565b805160208201516bffffffffffffffffffffffff1980821692919060148310156131ce5780818460140360031b1b83161693505b505050919050565b6001600160a01b038516815283602082015282604082015260806060820152600061262c6080830184612f6c565b60006020828403121561321657600080fd5b815167ffffffffffffffff81111561322d57600080fd5b8201601f8101841361323e57600080fd5b805161324c612ca182612c5a565b81815285602083850101111561326157600080fd5b612930826020830160208601612f48565b6040815260006132856040830185612f6c565b82810360208401526129308185612f6c565b8385823760609290921b6bffffffffffffffffffffffff1916919092019081526014810191909152603401919050565b600082516132d9818460208701612f48565b9190910192915050565b828152604060208201526000610cd06040830184612f6c565b60006020828403121561330e57600080fd5b5051919050565b634e487b7160e01b600052602160045260246000fd5b60408152600061333e6040830184612f6c565b828103602093840152600081529190910192915050565b634e487b7160e01b600052603260045260246000fd5b6000808335601e1984360301811261338257600080fd5b83018035915067ffffffffffffffff82111561339d57600080fd5b602001915036819003821315611af557600080fd5b8183823760009101908152919050565b634e487b7160e01b600052601160045260246000fd5b80820180821115610914576109146133c2565b600181811c908216806133ff57607f821691505b60208210810361147b57634e487b7160e01b600052602260045260246000fd5b8051602080830151919081101561147b5760001960209190910360031b1b16919050565b60006001600160a01b038089168352808816602084015280871660408401525084606083015260a060808301528260a0830152828460c0840137600060c0848401015260c0601f19601f8501168301019050979650505050505050565b6000602082840312156134b257600080fd5b81516117b281612be0565b60006bffffffffffffffffffffffff19808960601b168352808860601b166014840152808760601b1660288401525084603c8301528284605c8401375060009101605c0190815295945050505050565b601f821115610fe057600081815260208120601f850160051c810160208610156135345750805b601f850160051c820191505b8181101561355357828155600101613540565b505050505050565b815167ffffffffffffffff81111561357557613575612c13565b6135898161358384546133eb565b8461350d565b602080601f8311600181146135be57600084156135a65750858301515b600019600386901b1c1916600185901b178555613553565b600085815260208120601f198616915b828110156135ed578886015182559484019460019091019084016135ce565b508582101561360b5787850151600019600388901b60f8161c191681555b5050505050600190811b01905550565b6000815160208301516001600160e01b0319808216935060048310156131ce5760049290920360031b82901b161692915050565b81810381811115610914576109146133c256fea2646970667358221220889917809caefa3e812c5b5c154c78858b7d3972b454ebc8d8e6dfffe85133ab64736f6c63430008110033",
  "linkReferences": {},
  "deployedLinkReferences": {}
}