{
  "abi": [
    {
      "inputs": [
        {
          "internalType": "address",
          "name": "newControllerAddress",
          "type": "address"
        },
        {
          "internalType": "bytes32",
          "name": "newURDTypeId",
          "type": "bytes32"
        },
        {
          "internalType": "address",
          "name": "newURDAddress",
          "type": "address"
        }
      ],
      "stateMutability": "nonpayable",
      "type": "constructor"
    },
    {
      "anonymous": false,
      "inputs": [
        {
          "indexed": false,
          "internalType": "uint256",
          "name": "",
          "type": "uint256"
        }
      ],
      "name": "ValueReceived",
      "type": "event"
    },
    {
      "inputs": [
        {
          "internalType": "address",
          "name": "keyManagerAddress",
          "type": "address"
        },
        {
          "internalType": "string",
          "name": "payloadType",
          "type": "string"
        }
      ],
      "name": "callThatReenters",
      "outputs": [
        {
          "internalType": "bytes",
          "name": "",
          "type": "bytes"
        }
      ],
      "stateMutability": "nonpayable",
      "type": "function"
    },
    {
      "stateMutability": "payable",
      "type": "receive"
    }
  ],
  "bytecode": {
    "object": "0x608060405234801561001057600080fd5b5060405162000b6038038062000b6083398101604081905261003191610530565b604051600060248201819052306044830152670de0b6b3a764000060648301526080608483015260a482015260c40160408051601f198184030181529181526020820180516001600160e01b0316632260147f60e11b179052516000906100ab906c5452414e5346455256414c554560981b8152600d0190565b908152602001604051809103902090816100c5919061060b565b5060408051808201825260128082527114dbdb5954985b991bdb55195e1d155cd95960721b602092830181905283518085018552918252918101919091529051610133917f8d460c8000cf73b84d25f9f56781a0017826c5932f176b0e0e6038077c237a77916024016106ca565b60408051601f198184030181529181526020820180516001600160e01b0316631fc8da4360e21b1790525160009061017890665345544441544160c81b815260070190565b90815260200160405180910390209081610192919061060b565b5060408051694b80742de2bf82acb36360b01b60208201526000602a8201526001600160601b0319606086901b16602c820152016040516020818303038152906040526101de90610720565b60408051601060208201520160408051601f198184030181529082905261020892916024016106ca565b60408051601f198184030181529181526020820180516001600160e01b0316631fc8da4360e21b17905251600090610254906d4144445045524d495353494f4e5360901b8152600e0190565b9081526020016040518091039020908161026e919061060b565b5060408051694b80742de2bf82acb36360b01b60208201526000602a8201526001600160601b0319606086901b16602c820152016040516020818303038152906040526102ba90610720565b60408051602481019290925260448201526000606482015260840160408051601f198184030181529181526020820180516001600160e01b0316631fc8da4360e21b1790525160009061032490704348414e47455045524d495353494f4e5360781b815260110190565b9081526020016040518091039020908161033e919061060b565b5060408051690cfc51aec37c55a4d0b160b01b60208201526000602a8201526001600160601b03198416602c8201520160405160208183030381529060405261038690610720565b6040516001600160601b0319606084901b16602082015260340160408051601f19818403018152908290526103be92916024016106ca565b60408051601f198184030181529181526020820180516001600160e01b0316631fc8da4360e21b17905251600090610419907f414444554e4956455253414c524543454956455244454c4547415445000000008152601c0190565b90815260200160405180910390209081610433919061060b565b5060408051690cfc51aec37c55a4d0b160b01b60208201526000602a8201526001600160601b03198416602c8201520160405160208183030381529060405261047b90610720565b60408051602481019290925260448201526000606482015260840160408051601f198184030181529181526020820180516001600160e01b0316631fc8da4360e21b179052516000906104f1907f4348414e4745554e4956455253414c524543454956455244454c4547415445008152601f0190565b9081526020016040518091039020908161050b919061060b565b50505050610744565b80516001600160a01b038116811461052b57600080fd5b919050565b60008060006060848603121561054557600080fd5b61054e84610514565b92506020840151915061056360408501610514565b90509250925092565b634e487b7160e01b600052604160045260246000fd5b600181811c9082168061059657607f821691505b6020821081036105b657634e487b7160e01b600052602260045260246000fd5b50919050565b601f82111561060657600081815260208120601f850160051c810160208610156105e35750805b601f850160051c820191505b81811015610602578281556001016105ef565b5050505b505050565b81516001600160401b038111156106245761062461056c565b610638816106328454610582565b846105bc565b602080601f83116001811461066d57600084156106555750858301515b600019600386901b1c1916600185901b178555610602565b600085815260208120601f198616915b8281101561069c5788860151825594840194600190910190840161067d565b50858210156106ba5787850151600019600388901b60f8161c191681555b5050505050600190811b01905550565b82815260006020604081840152835180604085015260005b818110156106fe578581018301518582016060015282016106e2565b506000606082860101526060601f19601f830116850101925050509392505050565b805160208083015191908110156105b65760001960209190910360031b1b16919050565b61040c80620007546000396000f3fe6080604052600436106100225760003560e01c806389ea46a61461006157600080fd5b3661005c576040513481527fe12e3b7047ff60a2dd763cf536a43597e5ce7fe7aa7476345bd4cd079912bcef9060200160405180910390a1005b600080fd5b34801561006d57600080fd5b5061008161007c3660046101a1565b610097565b60405161008e9190610264565b60405180910390f35b6060826001600160a01b03166309c5eabe6000846040516100b89190610297565b9081526040519081900360200181206001600160e01b031960e084901b1682526100e4916004016102b3565b6000604051808303816000875af1158015610103573d6000803e3d6000fd5b505050506040513d6000823e601f3d908101601f1916820160405261012b919081019061035f565b9392505050565b634e487b7160e01b600052604160045260246000fd5b604051601f8201601f1916810167ffffffffffffffff8111828210171561017157610171610132565b604052919050565b600067ffffffffffffffff82111561019357610193610132565b50601f01601f191660200190565b600080604083850312156101b457600080fd5b82356001600160a01b03811681146101cb57600080fd5b9150602083013567ffffffffffffffff8111156101e757600080fd5b8301601f810185136101f857600080fd5b803561020b61020682610179565b610148565b81815286602083850101111561022057600080fd5b816020840160208301376000602083830101528093505050509250929050565b60005b8381101561025b578181015183820152602001610243565b50506000910152565b6020815260008251806020840152610283816040850160208701610240565b601f01601f19169190910160400192915050565b600082516102a9818460208701610240565b9190910192915050565b600060208083526000845481600182811c9150808316806102d557607f831692505b85831081036102f257634e487b7160e01b85526022600452602485fd5b87860183815260200181801561030f576001811461032557610350565b60ff198616825284151560051b82019650610350565b60008b81526020902060005b8681101561034a57815484820152908501908901610331565b83019750505b50949998505050505050505050565b60006020828403121561037157600080fd5b815167ffffffffffffffff81111561038857600080fd5b8201601f8101841361039957600080fd5b80516103a761020682610179565b8181528560208385010111156103bc57600080fd5b6103cd826020830160208601610240565b9594505050505056fea264697066735822122068eb99728c230d7ac6cad758961a0a5bcbff9e09bfc9befd23d1c48724c5476064736f6c63430008110033",
    "linkReferences": {}
  },
  "methodIdentifiers": {
    "callThatReenters(address,string)": "89ea46a6"
  },
  "id": 121
}