{
  "abi": [
    {
      "inputs": [
        {
          "internalType": "address",
          "name": "newOwner",
          "type": "address"
        }
      ],
      "stateMutability": "nonpayable",
      "type": "constructor"
    },
    {
      "inputs": [],
      "name": "ERC725X_ContractDeploymentFailed",
      "type": "error"
    },
    {
      "inputs": [],
      "name": "ERC725X_CreateOperationsRequireEmptyRecipientAddress",
      "type": "error"
    },
    {
      "inputs": [],
      "name": "ERC725X_ExecuteParametersLengthMismatch",
      "type": "error"
    },
    {
      "inputs": [
        {
          "internalType": "uint256",
          "name": "balance",
          "type": "uint256"
        },
        {
          "internalType": "uint256",
          "name": "value",
          "type": "uint256"
        }
      ],
      "name": "ERC725X_InsufficientBalance",
      "type": "error"
    },
    {
      "inputs": [],
      "name": "ERC725X_MsgValueDisallowedInDelegateCall",
      "type": "error"
    },
    {
      "inputs": [],
      "name": "ERC725X_MsgValueDisallowedInStaticCall",
      "type": "error"
    },
    {
      "inputs": [],
      "name": "ERC725X_NoContractBytecodeProvided",
      "type": "error"
    },
    {
      "inputs": [
        {
          "internalType": "uint256",
          "name": "operationTypeProvided",
          "type": "uint256"
        }
      ],
      "name": "ERC725X_UnknownOperationType",
      "type": "error"
    },
    {
      "inputs": [
        {
          "internalType": "uint256",
          "name": "dataKeysLength",
          "type": "uint256"
        },
        {
          "internalType": "uint256",
          "name": "dataValuesLength",
          "type": "uint256"
        }
      ],
      "name": "ERC725Y_DataKeysValuesLengthMismatch",
      "type": "error"
    },
    {
      "anonymous": false,
      "inputs": [
        {
          "indexed": true,
          "internalType": "uint256",
          "name": "operationType",
          "type": "uint256"
        },
        {
          "indexed": true,
          "internalType": "address",
          "name": "contractAddress",
          "type": "address"
        },
        {
          "indexed": true,
          "internalType": "uint256",
          "name": "value",
          "type": "uint256"
        },
        {
          "indexed": false,
          "internalType": "bytes32",
          "name": "salt",
          "type": "bytes32"
        }
      ],
      "name": "ContractCreated",
      "type": "event"
    },
    {
      "anonymous": false,
      "inputs": [
        {
          "indexed": true,
          "internalType": "bytes32",
          "name": "dataKey",
          "type": "bytes32"
        },
        {
          "indexed": false,
          "internalType": "bytes",
          "name": "dataValue",
          "type": "bytes"
        }
      ],
      "name": "DataChanged",
      "type": "event"
    },
    {
      "anonymous": false,
      "inputs": [
        {
          "indexed": true,
          "internalType": "uint256",
          "name": "operationType",
          "type": "uint256"
        },
        {
          "indexed": true,
          "internalType": "address",
          "name": "target",
          "type": "address"
        },
        {
          "indexed": true,
          "internalType": "uint256",
          "name": "value",
          "type": "uint256"
        },
        {
          "indexed": false,
          "internalType": "bytes4",
          "name": "selector",
          "type": "bytes4"
        }
      ],
      "name": "Executed",
      "type": "event"
    },
    {
      "anonymous": false,
      "inputs": [
        {
          "indexed": true,
          "internalType": "address",
          "name": "previousOwner",
          "type": "address"
        },
        {
          "indexed": true,
          "internalType": "address",
          "name": "newOwner",
          "type": "address"
        }
      ],
      "name": "OwnershipTransferred",
      "type": "event"
    },
    {
      "inputs": [
        {
          "internalType": "uint256[]",
          "name": "operationsType",
          "type": "uint256[]"
        },
        {
          "internalType": "address[]",
          "name": "targets",
          "type": "address[]"
        },
        {
          "internalType": "uint256[]",
          "name": "values",
          "type": "uint256[]"
        },
        {
          "internalType": "bytes[]",
          "name": "datas",
          "type": "bytes[]"
        }
      ],
      "name": "execute",
      "outputs": [
        {
          "internalType": "bytes[]",
          "name": "",
          "type": "bytes[]"
        }
      ],
      "stateMutability": "payable",
      "type": "function"
    },
    {
      "inputs": [
        {
          "internalType": "uint256",
          "name": "operationType",
          "type": "uint256"
        },
        {
          "internalType": "address",
          "name": "target",
          "type": "address"
        },
        {
          "internalType": "uint256",
          "name": "value",
          "type": "uint256"
        },
        {
          "internalType": "bytes",
          "name": "data",
          "type": "bytes"
        }
      ],
      "name": "execute",
      "outputs": [
        {
          "internalType": "bytes",
          "name": "",
          "type": "bytes"
        }
      ],
      "stateMutability": "payable",
      "type": "function"
    },
    {
      "inputs": [
        {
          "internalType": "bytes32[]",
          "name": "dataKeys",
          "type": "bytes32[]"
        }
      ],
      "name": "getData",
      "outputs": [
        {
          "internalType": "bytes[]",
          "name": "dataValues",
          "type": "bytes[]"
        }
      ],
      "stateMutability": "view",
      "type": "function"
    },
    {
      "inputs": [
        {
          "internalType": "bytes32",
          "name": "dataKey",
          "type": "bytes32"
        }
      ],
      "name": "getData",
      "outputs": [
        {
          "internalType": "bytes",
          "name": "dataValue",
          "type": "bytes"
        }
      ],
      "stateMutability": "view",
      "type": "function"
    },
    {
      "inputs": [],
      "name": "owner",
      "outputs": [
        {
          "internalType": "address",
          "name": "",
          "type": "address"
        }
      ],
      "stateMutability": "view",
      "type": "function"
    },
    {
      "inputs": [],
      "name": "renounceOwnership",
      "outputs": [],
      "stateMutability": "nonpayable",
      "type": "function"
    },
    {
      "inputs": [
        {
          "internalType": "bytes32[]",
          "name": "dataKeys",
          "type": "bytes32[]"
        },
        {
          "internalType": "bytes[]",
          "name": "dataValues",
          "type": "bytes[]"
        }
      ],
      "name": "setData",
      "outputs": [],
      "stateMutability": "nonpayable",
      "type": "function"
    },
    {
      "inputs": [
        {
          "internalType": "bytes32",
          "name": "dataKey",
          "type": "bytes32"
        },
        {
          "internalType": "bytes",
          "name": "dataValue",
          "type": "bytes"
        }
      ],
      "name": "setData",
      "outputs": [],
      "stateMutability": "nonpayable",
      "type": "function"
    },
    {
      "inputs": [
        {
          "internalType": "bytes4",
          "name": "interfaceId",
          "type": "bytes4"
        }
      ],
      "name": "supportsInterface",
      "outputs": [
        {
          "internalType": "bool",
          "name": "",
          "type": "bool"
        }
      ],
      "stateMutability": "view",
      "type": "function"
    },
    {
      "inputs": [
        {
          "internalType": "address",
          "name": "newOwner",
          "type": "address"
        }
      ],
      "name": "transferOwnership",
      "outputs": [],
      "stateMutability": "nonpayable",
      "type": "function"
    }
  ],
  "bytecode": {
    "object": "0x60806040523480156200001157600080fd5b50604051620018e7380380620018e7833981016040819052620000349162000122565b6001600160a01b0381166200009e5760405162461bcd60e51b815260206004820152602660248201527f4f776e61626c653a206e6577206f776e657220697320746865207a65726f206160448201526564647265737360d01b606482015260840160405180910390fd5b620000b481620000bb60201b6200045a1760201c565b5062000154565b6000546001600160a01b038281169116146200011f57600080546001600160a01b038381166001600160a01b0319831681178455604051919092169283917f8be0079c531659141344cd1fd0a4f28419497f9722a3daafe3b4186f6b6457e09190a3505b50565b6000602082840312156200013557600080fd5b81516001600160a01b03811681146200014d57600080fd5b9392505050565b61178380620001646000396000f3fe6080604052600436106100915760003560e01c806354f6127f1161005957806354f6127f1461014d578063715018a61461016d5780637f23690c146101825780638da5cb5b146101a2578063f2fde38b146101ca57600080fd5b806301ffc9a71461009657806313ced88d146100cb57806314a6e293146100eb57806344c028fe1461010d5780634e3e6e9c1461012d575b600080fd5b3480156100a257600080fd5b506100b66100b136600461102e565b6101ea565b60405190151581526020015b60405180910390f35b6100de6100d936600461123a565b610230565b6040516100c29190611392565b3480156100f757600080fd5b5061010b6101063660046113f4565b610251565b005b61012061011b366004611458565b6102e2565b6040516100c291906114ad565b34801561013957600080fd5b506100de6101483660046114c0565b6102f8565b34801561015957600080fd5b506101206101683660046114f5565b6103ac565b34801561017957600080fd5b5061010b6103b7565b34801561018e57600080fd5b5061010b61019d36600461150e565b6103cb565b3480156101ae57600080fd5b506000546040516001600160a01b0390911681526020016100c2565b3480156101d657600080fd5b5061010b6101e536600461154b565b6103e1565b60006001600160e01b0319821663570ef07360e01b148061021b57506001600160e01b03198216631c537ddf60e21b145b8061022a575061022a826104bf565b92915050565b606061023a6104e4565b6102468585858561054d565b90505b949350505050565b6102596104e4565b805182511461028d57815181516040516321d1e13360e11b8152600481019290925260248201526044015b60405180910390fd5b60005b82518110156102dd576102d58382815181106102ae576102ae611566565b60200260200101518383815181106102c8576102c8611566565b6020026020010151610692565b600101610290565b505050565b60606102ec6104e4565b610246858585856106e7565b6060815167ffffffffffffffff81111561031457610314611058565b60405190808252806020026020018201604052801561034757816020015b60608152602001906001900390816103325790505b50905060005b82518110156103a65761037883828151811061036b5761036b611566565b60200260200101516107f2565b82828151811061038a5761038a611566565b602002602001018190525061039f8160010190565b905061034d565b50919050565b606061022a826107f2565b6103bf6104e4565b6103c9600061045a565b565b6103d36104e4565b6103dd8282610692565b5050565b6103e96104e4565b6001600160a01b03811661044e5760405162461bcd60e51b815260206004820152602660248201527f4f776e61626c653a206e6577206f776e657220697320746865207a65726f206160448201526564647265737360d01b6064820152608401610284565b6104578161045a565b50565b6000546001600160a01b0382811691161461045757600080546001600160a01b038381166001600160a01b0319831681178455604051919092169283917f8be0079c531659141344cd1fd0a4f28419497f9722a3daafe3b4186f6b6457e09190a35050565b60006001600160e01b03198216631c537ddf60e21b148061022a575061022a82610894565b336104f76000546001600160a01b031690565b6001600160a01b0316146103c95760405162461bcd60e51b815260206004820181905260248201527f4f776e61626c653a2063616c6c6572206973206e6f7420746865206f776e65726044820152606401610284565b60608351855114158061056e57508251845114158061056e57508151835114155b1561058c57604051633ff55f4d60e01b815260040160405180910390fd5b6000855167ffffffffffffffff8111156105a8576105a8611058565b6040519080825280602002602001820160405280156105db57816020015b60608152602001906001900390816105c65790505b50905060005b86518110156106885761065a8782815181106105ff576105ff611566565b602002602001015187838151811061061957610619611566565b602002602001015187848151811061063357610633611566565b602002602001015187858151811061064d5761064d611566565b60200260200101516106e7565b82828151811061066c5761066c611566565b60200260200101819052506106818160010190565b90506105e1565b5095945050505050565b60008281526001602052604090206106aa82826115fe565b50817fece574603820d07bc9b91f2a932baadf4628aabcb8afba49776529c14a6104b2826040516106db91906114ad565b60405180910390a25050565b606084610700576106f98484846108c9565b9050610249565b6001850361073a576001600160a01b0384161561073057604051631820c12560e11b815260040160405180910390fd5b6106f983836109ee565b60028503610774576001600160a01b0384161561076a57604051631820c12560e11b815260040160405180910390fd5b6106f98383610aef565b600385036107a557821561079b576040516339795e3560e11b815260040160405180910390fd5b6106f98483610bda565b600485036107d65782156107cc57604051635ac8313560e01b815260040160405180910390fd5b6106f98483610cd2565b604051631d60ecef60e21b815260048101869052602401610284565b600081815260016020526040902080546060919061080f9061157c565b80601f016020809104026020016040519081016040528092919081815260200182805461083b9061157c565b80156108885780601f1061085d57610100808354040283529160200191610888565b820191906000526020600020905b81548152906001019060200180831161086b57829003601f168201915b50505050509050919050565b60006001600160e01b0319821663570ef07360e01b148061022a57506301ffc9a760e01b6001600160e01b031983161461022a565b6060824710156108f5576040516301bf351f60e31b815247600482015260248101849052604401610284565b826001600160a01b03851660007f4810874456b8e6487bd861375cf6abd8e1c8bb5858c8ce36a86a04dabfac199e61092c866116be565b6040516001600160e01b0319909116815260200160405180910390a4600080856001600160a01b0316858560405161096491906116f5565b60006040518083038185875af1925050503d80600081146109a1576040519150601f19603f3d011682016040523d82523d6000602084013e6109a6565b606091505b50915091506109e482826040518060400160405280601681526020017522a9219b991aac1d102ab735b737bbb71022b93937b960511b815250610d7e565b9695505050505050565b606082471015610a1a576040516301bf351f60e31b815247600482015260248101849052604401610284565b8151600003610a3c5760405163b81cd8d960e01b815260040160405180910390fd5b600082516020840185f090506001600160a01b038116610a6f57604051630b07489b60e01b815260040160405180910390fd5b6040516bffffffffffffffffffffffff19606083901b166020820152603401604051602081830303815290604052915083816001600160a01b031660017fa1fb700aaee2ae4a2ff6f91ce7eba292f89c2f5488b8ec4c5c5c8150692595c36000801b604051610ae091815260200190565b60405180910390a45092915050565b60608151600003610b135760405163b81cd8d960e01b815260040160405180910390fd5b6000610b2c8360208551610b279190611727565b610dbe565b90506000610b4984600060208751610b449190611727565b610e1c565b90506000610b58868484610f29565b6040516bffffffffffffffffffffffff19606083901b166020820152909150603401604051602081830303815290604052935085816001600160a01b031660027fa1fb700aaee2ae4a2ff6f91ce7eba292f89c2f5488b8ec4c5c5c8150692595c386604051610bc991815260200190565b60405180910390a450505092915050565b606060006001600160a01b03841660037f4810874456b8e6487bd861375cf6abd8e1c8bb5858c8ce36a86a04dabfac199e610c14866116be565b6040516001600160e01b0319909116815260200160405180910390a4600080846001600160a01b031684604051610c4b91906116f5565b600060405180830381855afa9150503d8060008114610c86576040519150601f19603f3d011682016040523d82523d6000602084013e610c8b565b606091505b5091509150610cc982826040518060400160405280601681526020017522a9219b991aac1d102ab735b737bbb71022b93937b960511b815250610d7e565b95945050505050565b606060006001600160a01b03841660047f4810874456b8e6487bd861375cf6abd8e1c8bb5858c8ce36a86a04dabfac199e610d0c866116be565b6040516001600160e01b0319909116815260200160405180910390a4600080846001600160a01b031684604051610d4391906116f5565b600060405180830381855af49150503d8060008114610c86576040519150601f19603f3d011682016040523d82523d6000602084013e610c8b565b60608315610d8d575081610db7565b825115610d9d5782518084602001fd5b8160405162461bcd60e51b815260040161028491906114ad565b9392505050565b6000610dcb82602061173a565b83511015610e135760405162461bcd60e51b8152602060048201526015602482015274746f427974657333325f6f75744f66426f756e647360581b6044820152606401610284565b50016020015190565b606081610e2a81601f61173a565b1015610e695760405162461bcd60e51b815260206004820152600e60248201526d736c6963655f6f766572666c6f7760901b6044820152606401610284565b610e73828461173a565b84511015610eb75760405162461bcd60e51b8152602060048201526011602482015270736c6963655f6f75744f66426f756e647360781b6044820152606401610284565b606082158015610ed65760405191506000825260208201604052610f20565b6040519150601f8416801560200281840101858101878315602002848b0101015b81831015610f0f578051835260209283019201610ef7565b5050858452601f01601f1916604052505b50949350505050565b60008084471015610f7c5760405162461bcd60e51b815260206004820152601d60248201527f437265617465323a20696e73756666696369656e742062616c616e63650000006044820152606401610284565b8251600003610fcd5760405162461bcd60e51b815260206004820181905260248201527f437265617465323a2062797465636f6465206c656e677468206973207a65726f6044820152606401610284565b8383516020850187f590506001600160a01b0381166102495760405162461bcd60e51b815260206004820152601960248201527f437265617465323a204661696c6564206f6e206465706c6f79000000000000006044820152606401610284565b60006020828403121561104057600080fd5b81356001600160e01b031981168114610db757600080fd5b634e487b7160e01b600052604160045260246000fd5b604051601f8201601f1916810167ffffffffffffffff8111828210171561109757611097611058565b604052919050565b600067ffffffffffffffff8211156110b9576110b9611058565b5060051b60200190565b600082601f8301126110d457600080fd5b813560206110e96110e48361109f565b61106e565b82815260059290921b8401810191818101908684111561110857600080fd5b8286015b84811015611123578035835291830191830161110c565b509695505050505050565b80356001600160a01b038116811461114557600080fd5b919050565b600082601f83011261115b57600080fd5b813567ffffffffffffffff81111561117557611175611058565b611188601f8201601f191660200161106e565b81815284602083860101111561119d57600080fd5b816020850160208301376000918101602001919091529392505050565b600082601f8301126111cb57600080fd5b813560206111db6110e48361109f565b82815260059290921b840181019181810190868411156111fa57600080fd5b8286015b8481101561112357803567ffffffffffffffff81111561121e5760008081fd5b61122c8986838b010161114a565b8452509183019183016111fe565b6000806000806080858703121561125057600080fd5b843567ffffffffffffffff8082111561126857600080fd5b611274888389016110c3565b955060209150818701358181111561128b57600080fd5b8701601f8101891361129c57600080fd5b80356112aa6110e48261109f565b81815260059190911b8201840190848101908b8311156112c957600080fd5b928501925b828410156112ee576112df8461112e565b825292850192908501906112ce565b9750505050604087013591508082111561130757600080fd5b611313888389016110c3565b9350606087013591508082111561132957600080fd5b50611336878288016111ba565b91505092959194509250565b60005b8381101561135d578181015183820152602001611345565b50506000910152565b6000815180845261137e816020860160208601611342565b601f01601f19169290920160200192915050565b6000602080830181845280855180835260408601915060408160051b870101925083870160005b828110156113e757603f198886030184526113d5858351611366565b945092850192908501906001016113b9565b5092979650505050505050565b6000806040838503121561140757600080fd5b823567ffffffffffffffff8082111561141f57600080fd5b61142b868387016110c3565b9350602085013591508082111561144157600080fd5b5061144e858286016111ba565b9150509250929050565b6000806000806080858703121561146e57600080fd5b8435935061147e6020860161112e565b925060408501359150606085013567ffffffffffffffff8111156114a157600080fd5b6113368782880161114a565b602081526000610db76020830184611366565b6000602082840312156114d257600080fd5b813567ffffffffffffffff8111156114e957600080fd5b610249848285016110c3565b60006020828403121561150757600080fd5b5035919050565b6000806040838503121561152157600080fd5b82359150602083013567ffffffffffffffff81111561153f57600080fd5b61144e8582860161114a565b60006020828403121561155d57600080fd5b610db78261112e565b634e487b7160e01b600052603260045260246000fd5b600181811c9082168061159057607f821691505b6020821081036103a657634e487b7160e01b600052602260045260246000fd5b601f8211156102dd57600081815260208120601f850160051c810160208610156115d75750805b601f850160051c820191505b818110156115f6578281556001016115e3565b505050505050565b815167ffffffffffffffff81111561161857611618611058565b61162c81611626845461157c565b846115b0565b602080601f83116001811461166157600084156116495750858301515b600019600386901b1c1916600185901b1785556115f6565b600085815260208120601f198616915b8281101561169057888601518255948401946001909101908401611671565b50858210156116ae5787850151600019600388901b60f8161c191681555b5050505050600190811b01905550565b805160208201516001600160e01b031980821692919060048310156116ed5780818460040360031b1b83161693505b505050919050565b60008251611707818460208701611342565b9190910192915050565b634e487b7160e01b600052601160045260246000fd5b8181038181111561022a5761022a611711565b8082018082111561022a5761022a61171156fea264697066735822122037375dc9b591872f73ada1b2ccab3e840eaa376f8168563b159ae4e5f33f82ad64736f6c63430008110033",
    "linkReferences": {}
  },
  "methodIdentifiers": {
    "execute(uint256,address,uint256,bytes)": "44c028fe",
    "execute(uint256[],address[],uint256[],bytes[])": "13ced88d",
    "getData(bytes32)": "54f6127f",
    "getData(bytes32[])": "4e3e6e9c",
    "owner()": "8da5cb5b",
    "renounceOwnership()": "715018a6",
    "setData(bytes32,bytes)": "7f23690c",
    "setData(bytes32[],bytes[])": "14a6e293",
    "supportsInterface(bytes4)": "01ffc9a7",
    "transferOwnership(address)": "f2fde38b"
  },
  "id": 171
}