{
  "abi": [
    {
      "inputs": [
        {
          "internalType": "bytes",
          "name": "_data",
          "type": "bytes"
        }
      ],
      "name": "isEncodedArray",
      "outputs": [
        {
          "internalType": "bool",
          "name": "",
          "type": "bool"
        }
      ],
      "stateMutability": "pure",
      "type": "function"
    }
  ],
  "bytecode": {
    "object": "0x608060405234801561001057600080fd5b506102a6806100206000396000f3fe608060405234801561001057600080fd5b506004361061002b5760003560e01c8063f326ddf014610030575b600080fd5b61004361003e366004610158565b610057565b604051901515815260200160405180910390f35b600061006282610068565b92915050565b80516000908161007784610209565b9050610084816020610246565b821015610095575060009392505050565b60006100a185836100e0565b90506100ae816020610259565b6100b9836020610246565b6100c39190610246565b8310156100d557506000949350505050565b506001949350505050565b60006100ed826020610246565b835110156101395760405162461bcd60e51b8152602060048201526015602482015274746f55696e743235365f6f75744f66426f756e647360581b604482015260640160405180910390fd5b50016020015190565b634e487b7160e01b600052604160045260246000fd5b60006020828403121561016a57600080fd5b813567ffffffffffffffff8082111561018257600080fd5b818401915084601f83011261019657600080fd5b8135818111156101a8576101a8610142565b604051601f8201601f19908116603f011681019083821181831017156101d0576101d0610142565b816040528281528760208487010111156101e957600080fd5b826020860160208301376000928101602001929092525095945050505050565b8051602080830151919081101561022a576000198160200360031b1b821691505b50919050565b634e487b7160e01b600052601160045260246000fd5b8082018082111561006257610062610230565b80820281158282048414176100625761006261023056fea26469706673582212200af55266342dd5a12cdd6a17122a2a438757b0588175269e39ff076585cb548864736f6c63430008110033",
    "linkReferences": {}
  },
  "methodIdentifiers": {
    "isEncodedArray(bytes)": "f326ddf0"
  },
  "id": 117
}