{
  "abi": [
    {
      "inputs": [],
      "name": "getName",
      "outputs": [
        {
          "internalType": "string",
          "name": "",
          "type": "string"
        }
      ],
      "stateMutability": "view",
      "type": "function"
    },
    {
      "inputs": [],
      "name": "getNumber",
      "outputs": [
        {
          "internalType": "uint256",
          "name": "",
          "type": "uint256"
        }
      ],
      "stateMutability": "view",
      "type": "function"
    },
    {
      "inputs": [],
      "name": "revertCall",
      "outputs": [],
      "stateMutability": "pure",
      "type": "function"
    },
    {
      "inputs": [
        {
          "internalType": "string",
          "name": "name",
          "type": "string"
        }
      ],
      "name": "setName",
      "outputs": [],
      "stateMutability": "nonpayable",
      "type": "function"
    },
    {
      "inputs": [
        {
          "internalType": "string",
          "name": "name",
          "type": "string"
        }
      ],
      "name": "setNamePayable",
      "outputs": [],
      "stateMutability": "payable",
      "type": "function"
    },
    {
      "inputs": [
        {
          "internalType": "uint256",
          "name": "newNumber",
          "type": "uint256"
        }
      ],
      "name": "setNumber",
      "outputs": [],
      "stateMutability": "nonpayable",
      "type": "function"
    }
  ],
  "bytecode": {
    "object": "0x600560005560c0604052601460809081527f53696d706c6520436f6e7472616374204e616d6500000000000000000000000060a05260019061004190826100f3565b5034801561004e57600080fd5b506101b2565b634e487b7160e01b600052604160045260246000fd5b600181811c9082168061007e57607f821691505b60208210810361009e57634e487b7160e01b600052602260045260246000fd5b50919050565b601f8211156100ee57600081815260208120601f850160051c810160208610156100cb5750805b601f850160051c820191505b818110156100ea578281556001016100d7565b5050505b505050565b81516001600160401b0381111561010c5761010c610054565b6101208161011a845461006a565b846100a4565b602080601f831160018114610155576000841561013d5750858301515b600019600386901b1c1916600185901b1785556100ea565b600085815260208120601f198616915b8281101561018457888601518255948401946001909101908401610165565b50858210156101a25787850151600019600388901b60f8161c191681555b5050505050600190811b01905550565b610519806101c16000396000f3fe6080604052600436106100555760003560e01c806317d7de7c1461005a5780633fb5c1cb14610085578063568a1c69146100a7578063c47f0027146100ba578063f2c9ecd8146100da578063f38fb65b146100f8575b600080fd5b34801561006657600080fd5b5061006f61010d565b60405161007c919061026c565b60405180910390f35b34801561009157600080fd5b506100a56100a03660046102ba565b600055565b005b6100a56100b53660046102e9565b61019f565b3480156100c657600080fd5b506100a56100d53660046102e9565b6101f5565b3480156100e657600080fd5b5060005460405190815260200161007c565b34801561010457600080fd5b506100a5610205565b60606001805461011c9061039a565b80601f01602080910402602001604051908101604052809291908181526020018280546101489061039a565b80156101955780601f1061016a57610100808354040283529160200191610195565b820191906000526020600020905b81548152906001019060200180831161017857829003601f168201915b5050505050905090565b60323410156101f55760405162461bcd60e51b815260206004820152601960248201527f4e6f7420656e6f7567682076616c75652070726f76696465640000000000000060448201526064015b60405180910390fd5b60016102018282610423565b5050565b60405162461bcd60e51b815260206004820152603660248201527f546172676574436f6e74726163743a72657665727443616c6c3a20746869732060448201527566756e6374696f6e206861732072657665727465642160501b60648201526084016101ec565b600060208083528351808285015260005b818110156102995785810183015185820160400152820161027d565b506000604082860101526040601f19601f8301168501019250505092915050565b6000602082840312156102cc57600080fd5b5035919050565b634e487b7160e01b600052604160045260246000fd5b6000602082840312156102fb57600080fd5b813567ffffffffffffffff8082111561031357600080fd5b818401915084601f83011261032757600080fd5b813581811115610339576103396102d3565b604051601f8201601f19908116603f01168101908382118183101715610361576103616102d3565b8160405282815287602084870101111561037a57600080fd5b826020860160208301376000928101602001929092525095945050505050565b600181811c908216806103ae57607f821691505b6020821081036103ce57634e487b7160e01b600052602260045260246000fd5b50919050565b601f82111561041e57600081815260208120601f850160051c810160208610156103fb5750805b601f850160051c820191505b8181101561041a57828155600101610407565b5050505b505050565b815167ffffffffffffffff81111561043d5761043d6102d3565b6104518161044b845461039a565b846103d4565b602080601f831160018114610486576000841561046e5750858301515b600019600386901b1c1916600185901b17855561041a565b600085815260208120601f198616915b828110156104b557888601518255948401946001909101908401610496565b50858210156104d35787850151600019600388901b60f8161c191681555b5050505050600190811b0190555056fea2646970667358221220511d350e11d36a5304c14f6635e131525a01ee6d03a3243c4cfd734f54c3a43164736f6c63430008110033",
    "linkReferences": {}
  },
  "methodIdentifiers": {
    "getName()": "17d7de7c",
    "getNumber()": "f2c9ecd8",
    "revertCall()": "f38fb65b",
    "setName(string)": "c47f0027",
    "setNamePayable(string)": "568a1c69",
    "setNumber(uint256)": "3fb5c1cb"
  },
  "id": 125
}