{
  "abi": [
    {
      "inputs": [
        {
          "internalType": "string",
          "name": "name_",
          "type": "string"
        },
        {
          "internalType": "string",
          "name": "symbol_",
          "type": "string"
        },
        {
          "internalType": "address",
          "name": "newOwner_",
          "type": "address"
        },
        {
          "internalType": "bool",
          "name": "isNonDivisible_",
          "type": "bool"
        }
      ],
      "stateMutability": "nonpayable",
      "type": "constructor"
    },
    {
      "inputs": [
        {
          "internalType": "uint256",
          "name": "dataKeysLength",
          "type": "uint256"
        },
        {
          "internalType": "uint256",
          "name": "dataValuesLength",
          "type": "uint256"
        }
      ],
      "name": "ERC725Y_DataKeysValuesLengthMismatch",
      "type": "error"
    },
    {
      "inputs": [],
      "name": "LSP4TokenNameNotEditable",
      "type": "error"
    },
    {
      "inputs": [],
      "name": "LSP4TokenSymbolNotEditable",
      "type": "error"
    },
    {
      "inputs": [
        {
          "internalType": "address",
          "name": "tokenOwner",
          "type": "address"
        },
        {
          "internalType": "uint256",
          "name": "authorizedAmount",
          "type": "uint256"
        },
        {
          "internalType": "address",
          "name": "operator",
          "type": "address"
        },
        {
          "internalType": "uint256",
          "name": "amount",
          "type": "uint256"
        }
      ],
      "name": "LSP7AmountExceedsAuthorizedAmount",
      "type": "error"
    },
    {
      "inputs": [
        {
          "internalType": "uint256",
          "name": "balance",
          "type": "uint256"
        },
        {
          "internalType": "address",
          "name": "tokenOwner",
          "type": "address"
        },
        {
          "internalType": "uint256",
          "name": "amount",
          "type": "uint256"
        }
      ],
      "name": "LSP7AmountExceedsBalance",
      "type": "error"
    },
    {
      "inputs": [],
      "name": "LSP7CannotSendToSelf",
      "type": "error"
    },
    {
      "inputs": [],
      "name": "LSP7CannotSendWithAddressZero",
      "type": "error"
    },
    {
      "inputs": [],
      "name": "LSP7CannotUseAddressZeroAsOperator",
      "type": "error"
    },
    {
      "inputs": [],
      "name": "LSP7InvalidTransferBatch",
      "type": "error"
    },
    {
      "inputs": [
        {
          "internalType": "address",
          "name": "tokenReceiver",
          "type": "address"
        }
      ],
      "name": "LSP7NotifyTokenReceiverContractMissingLSP1Interface",
      "type": "error"
    },
    {
      "inputs": [
        {
          "internalType": "address",
          "name": "tokenReceiver",
          "type": "address"
        }
      ],
      "name": "LSP7NotifyTokenReceiverIsEOA",
      "type": "error"
    },
    {
      "anonymous": false,
      "inputs": [
        {
          "indexed": true,
          "internalType": "address",
          "name": "operator",
          "type": "address"
        },
        {
          "indexed": true,
          "internalType": "address",
          "name": "tokenOwner",
          "type": "address"
        },
        {
          "indexed": true,
          "internalType": "uint256",
          "name": "amount",
          "type": "uint256"
        }
      ],
      "name": "AuthorizedOperator",
      "type": "event"
    },
    {
      "anonymous": false,
      "inputs": [
        {
          "indexed": true,
          "internalType": "bytes32",
          "name": "dataKey",
          "type": "bytes32"
        },
        {
          "indexed": false,
          "internalType": "bytes",
          "name": "dataValue",
          "type": "bytes"
        }
      ],
      "name": "DataChanged",
      "type": "event"
    },
    {
      "anonymous": false,
      "inputs": [
        {
          "indexed": true,
          "internalType": "address",
          "name": "previousOwner",
          "type": "address"
        },
        {
          "indexed": true,
          "internalType": "address",
          "name": "newOwner",
          "type": "address"
        }
      ],
      "name": "OwnershipTransferred",
      "type": "event"
    },
    {
      "anonymous": false,
      "inputs": [
        {
          "indexed": true,
          "internalType": "address",
          "name": "operator",
          "type": "address"
        },
        {
          "indexed": true,
          "internalType": "address",
          "name": "tokenOwner",
          "type": "address"
        }
      ],
      "name": "RevokedOperator",
      "type": "event"
    },
    {
      "anonymous": false,
      "inputs": [
        {
          "indexed": true,
          "internalType": "address",
          "name": "operator",
          "type": "address"
        },
        {
          "indexed": true,
          "internalType": "address",
          "name": "from",
          "type": "address"
        },
        {
          "indexed": true,
          "internalType": "address",
          "name": "to",
          "type": "address"
        },
        {
          "indexed": false,
          "internalType": "uint256",
          "name": "amount",
          "type": "uint256"
        },
        {
          "indexed": false,
          "internalType": "bool",
          "name": "force",
          "type": "bool"
        },
        {
          "indexed": false,
          "internalType": "bytes",
          "name": "data",
          "type": "bytes"
        }
      ],
      "name": "Transfer",
      "type": "event"
    },
    {
      "inputs": [
        {
          "internalType": "address",
          "name": "operator",
          "type": "address"
        },
        {
          "internalType": "uint256",
          "name": "amount",
          "type": "uint256"
        }
      ],
      "name": "authorizeOperator",
      "outputs": [],
      "stateMutability": "nonpayable",
      "type": "function"
    },
    {
      "inputs": [
        {
          "internalType": "address",
          "name": "operator",
          "type": "address"
        },
        {
          "internalType": "address",
          "name": "tokenOwner",
          "type": "address"
        }
      ],
      "name": "authorizedAmountFor",
      "outputs": [
        {
          "internalType": "uint256",
          "name": "",
          "type": "uint256"
        }
      ],
      "stateMutability": "view",
      "type": "function"
    },
    {
      "inputs": [
        {
          "internalType": "address",
          "name": "tokenOwner",
          "type": "address"
        }
      ],
      "name": "balanceOf",
      "outputs": [
        {
          "internalType": "uint256",
          "name": "",
          "type": "uint256"
        }
      ],
      "stateMutability": "view",
      "type": "function"
    },
    {
      "inputs": [],
      "name": "decimals",
      "outputs": [
        {
          "internalType": "uint8",
          "name": "",
          "type": "uint8"
        }
      ],
      "stateMutability": "view",
      "type": "function"
    },
    {
      "inputs": [
        {
          "internalType": "bytes32[]",
          "name": "dataKeys",
          "type": "bytes32[]"
        }
      ],
      "name": "getData",
      "outputs": [
        {
          "internalType": "bytes[]",
          "name": "dataValues",
          "type": "bytes[]"
        }
      ],
      "stateMutability": "view",
      "type": "function"
    },
    {
      "inputs": [
        {
          "internalType": "bytes32",
          "name": "dataKey",
          "type": "bytes32"
        }
      ],
      "name": "getData",
      "outputs": [
        {
          "internalType": "bytes",
          "name": "dataValue",
          "type": "bytes"
        }
      ],
      "stateMutability": "view",
      "type": "function"
    },
    {
      "inputs": [
        {
          "internalType": "address",
          "name": "to",
          "type": "address"
        },
        {
          "internalType": "uint256",
          "name": "amount",
          "type": "uint256"
        },
        {
          "internalType": "bool",
          "name": "force",
          "type": "bool"
        },
        {
          "internalType": "bytes",
          "name": "data",
          "type": "bytes"
        }
      ],
      "name": "mint",
      "outputs": [],
      "stateMutability": "nonpayable",
      "type": "function"
    },
    {
      "inputs": [],
      "name": "owner",
      "outputs": [
        {
          "internalType": "address",
          "name": "",
          "type": "address"
        }
      ],
      "stateMutability": "view",
      "type": "function"
    },
    {
      "inputs": [],
      "name": "renounceOwnership",
      "outputs": [],
      "stateMutability": "nonpayable",
      "type": "function"
    },
    {
      "inputs": [
        {
          "internalType": "address",
          "name": "operator",
          "type": "address"
        }
      ],
      "name": "revokeOperator",
      "outputs": [],
      "stateMutability": "nonpayable",
      "type": "function"
    },
    {
      "inputs": [
        {
          "internalType": "bytes32[]",
          "name": "dataKeys",
          "type": "bytes32[]"
        },
        {
          "internalType": "bytes[]",
          "name": "dataValues",
          "type": "bytes[]"
        }
      ],
      "name": "setData",
      "outputs": [],
      "stateMutability": "nonpayable",
      "type": "function"
    },
    {
      "inputs": [
        {
          "internalType": "bytes32",
          "name": "dataKey",
          "type": "bytes32"
        },
        {
          "internalType": "bytes",
          "name": "dataValue",
          "type": "bytes"
        }
      ],
      "name": "setData",
      "outputs": [],
      "stateMutability": "nonpayable",
      "type": "function"
    },
    {
      "inputs": [
        {
          "internalType": "bytes4",
          "name": "interfaceId",
          "type": "bytes4"
        }
      ],
      "name": "supportsInterface",
      "outputs": [
        {
          "internalType": "bool",
          "name": "",
          "type": "bool"
        }
      ],
      "stateMutability": "view",
      "type": "function"
    },
    {
      "inputs": [],
      "name": "totalSupply",
      "outputs": [
        {
          "internalType": "uint256",
          "name": "",
          "type": "uint256"
        }
      ],
      "stateMutability": "view",
      "type": "function"
    },
    {
      "inputs": [
        {
          "internalType": "address",
          "name": "from",
          "type": "address"
        },
        {
          "internalType": "address",
          "name": "to",
          "type": "address"
        },
        {
          "internalType": "uint256",
          "name": "amount",
          "type": "uint256"
        },
        {
          "internalType": "bool",
          "name": "force",
          "type": "bool"
        },
        {
          "internalType": "bytes",
          "name": "data",
          "type": "bytes"
        }
      ],
      "name": "transfer",
      "outputs": [],
      "stateMutability": "nonpayable",
      "type": "function"
    },
    {
      "inputs": [
        {
          "internalType": "address[]",
          "name": "from",
          "type": "address[]"
        },
        {
          "internalType": "address[]",
          "name": "to",
          "type": "address[]"
        },
        {
          "internalType": "uint256[]",
          "name": "amount",
          "type": "uint256[]"
        },
        {
          "internalType": "bool[]",
          "name": "force",
          "type": "bool[]"
        },
        {
          "internalType": "bytes[]",
          "name": "data",
          "type": "bytes[]"
        }
      ],
      "name": "transferBatch",
      "outputs": [],
      "stateMutability": "nonpayable",
      "type": "function"
    },
    {
      "inputs": [
        {
          "internalType": "address",
          "name": "newOwner",
          "type": "address"
        }
      ],
      "name": "transferOwnership",
      "outputs": [],
      "stateMutability": "nonpayable",
      "type": "function"
    }
  ],
  "bytecode": {
    "object": "0x60806040523480156200001157600080fd5b5060405162001fe538038062001fe5833981016040819052620000349162000337565b83838383838383806001600160a01b038116620000a65760405162461bcd60e51b815260206004820152602660248201527f4f776e61626c653a206e6577206f776e657220697320746865207a65726f206160448201526564647265737360d01b606482015260840160405180910390fd5b620000bc81620001aa60201b6200072f1760201c565b50620001137feafec4d89fa9619884b60000a4d96624a38f7ac2d8d9a604ecf07c12c77e480c60001b604051806040016040528060048152602001632936598960e21b8152506200021160201b620007941760201c565b6200014d7fdeba1e292f8ba88238e10ab3c7f88bd4be4fac56cad5194b6ecceaf653468af160001b846200021160201b620007941760201c565b620001877f2f0a68ab07768e01943a599e73362a0e17a63a72e94dd2e384d2c1d4db93275660001b836200021160201b620007941760201c565b50506002805460ff191692151592909217909155506200056c9650505050505050565b6000546001600160a01b038281169116146200020e57600080546001600160a01b038381166001600160a01b0319831681178455604051919092169283917f8be0079c531659141344cd1fd0a4f28419497f9722a3daafe3b4186f6b6457e09190a3505b50565b60008281526001602052604090206200022b82826200046b565b50817fece574603820d07bc9b91f2a932baadf4628aabcb8afba49776529c14a6104b2826040516200025e919062000537565b60405180910390a25050565b634e487b7160e01b600052604160045260246000fd5b60005b838110156200029d57818101518382015260200162000283565b50506000910152565b600082601f830112620002b857600080fd5b81516001600160401b0380821115620002d557620002d56200026a565b604051601f8301601f19908116603f011681019082821181831017156200030057620003006200026a565b816040528381528660208588010111156200031a57600080fd5b6200032d84602083016020890162000280565b9695505050505050565b600080600080608085870312156200034e57600080fd5b84516001600160401b03808211156200036657600080fd5b6200037488838901620002a6565b955060208701519150808211156200038b57600080fd5b506200039a87828801620002a6565b604087015190945090506001600160a01b0381168114620003ba57600080fd5b60608601519092508015158114620003d157600080fd5b939692955090935050565b600181811c90821680620003f157607f821691505b6020821081036200041257634e487b7160e01b600052602260045260246000fd5b50919050565b601f8211156200046657600081815260208120601f850160051c81016020861015620004415750805b601f850160051c820191505b8181101562000462578281556001016200044d565b5050505b505050565b81516001600160401b038111156200048757620004876200026a565b6200049f81620004988454620003dc565b8462000418565b602080601f831160018114620004d75760008415620004be5750858301515b600019600386901b1c1916600185901b17855562000462565b600085815260208120601f198616915b828110156200050857888601518255948401946001909101908401620004e7565b5085821015620005275787850151600019600388901b60f8161c191681555b5050505050600190811b01905550565b60208152600082518060208401526200055881604085016020870162000280565b601f01601f19169190910160400192915050565b611a69806200057c6000396000f3fe608060405234801561001057600080fd5b506004361061010b5760003560e01c806365aeaa95116100a2578063760d9bba11610071578063760d9bba146102365780637f23690c146102495780638da5cb5b1461025c578063f2fde38b14610277578063fad8b32a1461028a57600080fd5b806365aeaa95146101df57806370a08231146101f2578063715018a61461021b5780637580d9201461022357600080fd5b8063313ce567116100de578063313ce5671461017257806347980aa31461018c5780634e3e6e9c1461019f57806354f6127f146101bf57600080fd5b806301ffc9a71461011057806314a6e2931461013857806318160ddd1461014d5780632d7667c91461015f575b600080fd5b61012361011e3660046110eb565b61029d565b60405190151581526020015b60405180910390f35b61014b6101463660046112e7565b6102c8565b005b6003545b60405190815260200161012f565b61014b61016d36600461143a565b610359565b61017a610448565b60405160ff909116815260200161012f565b61014b61019a36600461150b565b610461565b6101b26101ad366004611535565b610470565b60405161012f91906115c1565b6101d26101cd366004611623565b610523565b60405161012f919061163c565b6101516101ed36600461164f565b61052e565b610151610200366004611682565b6001600160a01b031660009081526004602052604090205490565b61014b610595565b61014b61023136600461169d565b6105a9565b61014b610244366004611704565b6105c3565b61014b61025736600461176f565b610698565b6000546040516001600160a01b03909116815260200161012f565b61014b610285366004611682565b6106aa565b61014b610298366004611682565b610723565b60006001600160e01b03198216633687e17960e21b14806102c257506102c2826107e9565b92915050565b6102d061081e565b805182511461030457815181516040516321d1e13360e11b8152600481019290925260248201526044015b60405180910390fd5b60005b82518110156103545761034c838281518110610325576103256117ab565b602002602001015183838151811061033f5761033f6117ab565b6020026020010151610887565b600101610307565b505050565b845184518114158061036c575083518114155b80610378575082518114155b80610384575081518114155b156103a25760405163263eee8d60e01b815260040160405180910390fd5b60005b8181101561043f576104378782815181106103c2576103c26117ab565b60200260200101518783815181106103dc576103dc6117ab565b60200260200101518784815181106103f6576103f66117ab565b6020026020010151878581518110610410576104106117ab565b602002602001015187868151811061042a5761042a6117ab565b60200260200101516105c3565b6001016103a5565b50505050505050565b60025460009060ff1661045b5750601290565b50600090565b61046c33838361096f565b5050565b606081516001600160401b0381111561048b5761048b61111c565b6040519080825280602002602001820160405280156104be57816020015b60608152602001906001900390816104a95790505b50905060005b825181101561051d576104ef8382815181106104e2576104e26117ab565b6020026020010151610a6d565b828281518110610501576105016117ab565b60200260200101819052506105168160010190565b90506104c4565b50919050565b60606102c282610a6d565b6000826001600160a01b0316826001600160a01b03160361056857506001600160a01b0381166000908152600460205260409020546102c2565b506001600160a01b0380821660009081526005602090815260408083209386168352929052205492915050565b61059d61081e565b6105a7600061072f565b565b6105b161081e565b6105bd84848484610b0f565b50505050565b836001600160a01b0316856001600160a01b0316036105f457604051620b9afb60ec1b815260040160405180910390fd5b336001600160a01b0386168114610683576001600160a01b038087166000908152600560209081526040808320938516835292905220548085111561066d5760405163f3a6b69160e01b81526001600160a01b0380891660048301526024820183905283166044820152606481018690526084016102fb565b610681878361067c88856117d7565b61096f565b505b6106908686868686610bec565b505050505050565b6106a061081e565b61046c8282610887565b6106b261081e565b6001600160a01b0381166107175760405162461bcd60e51b815260206004820152602660248201527f4f776e61626c653a206e6577206f776e657220697320746865207a65726f206160448201526564647265737360d01b60648201526084016102fb565b6107208161072f565b50565b6107203382600061096f565b6000546001600160a01b0382811691161461072057600080546001600160a01b038381166001600160a01b0319831681178455604051919092169283917f8be0079c531659141344cd1fd0a4f28419497f9722a3daafe3b4186f6b6457e09190a35050565b60008281526001602052604090206107ac8282611864565b50817fece574603820d07bc9b91f2a932baadf4628aabcb8afba49776529c14a6104b2826040516107dd919061163c565b60405180910390a25050565b60006001600160e01b03198216631c537ddf60e21b14806102c257506301ffc9a760e01b6001600160e01b03198316146102c2565b336108316000546001600160a01b031690565b6001600160a01b0316146105a75760405162461bcd60e51b815260206004820181905260248201527f4f776e61626c653a2063616c6c6572206973206e6f7420746865206f776e657260448201526064016102fb565b7f2145e1d6d074577dc71ef54c3807742b41b053a9352ae6b491331509acb9750f82016108c7576040516385c169bd60e01b815260040160405180910390fd5b7fd0f59754f88971fe6bc5a6618cc9d5f1e859c58d16b22d1c7b2d3e2b246cd8aa820161090757604051630eceab6760e31b815260040160405180910390fd5b600082815260016020526040902061091f8282611864565b50817fece574603820d07bc9b91f2a932baadf4628aabcb8afba49776529c14a6104b2610100835111156109605761095b836000610100610d49565b610962565b825b6040516107dd919061163c565b6001600160a01b038216610996576040516331aaf3b360e11b815260040160405180910390fd5b826001600160a01b0316826001600160a01b0316036109b457505050565b6001600160a01b0380841660009081526005602090815260408083209386168352929052208190558015610a285780836001600160a01b0316836001600160a01b03167fd66aff874162a96578e919097b6f6d153dfd89a5cec41bb331fdb0c4aec16e2c60405160405180910390a4505050565b826001600160a01b0316826001600160a01b03167f50546e66e5f44d728365dc3908c63bc5cfeeab470722c1677e3073a6ac294aa160405160405180910390a3505050565b6000818152600160205260409020805460609190610a8a906117ea565b80601f0160208091040260200160405190810160405280929190818152602001828054610ab6906117ea565b8015610b035780601f10610ad857610100808354040283529160200191610b03565b820191906000526020600020905b815481529060010190602001808311610ae657829003601f168201915b50505050509050919050565b6001600160a01b038416610b3657604051630d2d5ec360e41b815260040160405180910390fd5b338360036000828254610b499190611923565b90915550506001600160a01b03851660009081526004602052604081208054869290610b76908490611923565b92505081905550846001600160a01b031660006001600160a01b0316826001600160a01b03167f3997e418d2cef0b3b0e907b1e39605c3f7d32dbd061e82ea5b4a770d46a160a6878787604051610bcf93929190611936565b60405180910390a4610be5600086868686610e56565b5050505050565b6001600160a01b0385161580610c0957506001600160a01b038416155b15610c2757604051630d2d5ec360e41b815260040160405180910390fd5b6001600160a01b03851660009081526004602052604090205480841115610c7a576040516308d4794960e01b8152600481018290526001600160a01b0387166024820152604481018590526064016102fb565b336001600160a01b03871660009081526004602052604081208054879290610ca39084906117d7565b90915550506001600160a01b03861660009081526004602052604081208054879290610cd0908490611923565b92505081905550856001600160a01b0316876001600160a01b0316826001600160a01b03167f3997e418d2cef0b3b0e907b1e39605c3f7d32dbd061e82ea5b4a770d46a160a6888888604051610d2893929190611936565b60405180910390a4610d3c87878786610f8e565b61043f8787878787610e56565b606081610d5781601f611923565b1015610d965760405162461bcd60e51b815260206004820152600e60248201526d736c6963655f6f766572666c6f7760901b60448201526064016102fb565b610da08284611923565b84511015610de45760405162461bcd60e51b8152602060048201526011602482015270736c6963655f6f75744f66426f756e647360781b60448201526064016102fb565b606082158015610e035760405191506000825260208201604052610e4d565b6040519150601f8416801560200281840101858101878315602002848b0101015b81831015610e3c578051835260209283019201610e24565b5050858452601f01601f1916604052505b50949350505050565b610e6784631aed5a8560e21b611062565b15610f3157600085858584604051602001610e859493929190611960565b60408051601f1981840301815290829052631aed5a8560e21b825291506001600160a01b03861690636bb56a1490610ee3907f20804611b3e2ea21c480dc465142210acf4a2485947541770ec1fb87dee4a55c9085906004016119ad565b6000604051808303816000875af1158015610f02573d6000803e3d6000fd5b505050506040513d6000823e601f3d908101601f19168201604052610f2a91908101906119c6565b5050610be5565b81610be5576001600160a01b0384163b15610f6a576040516353047ddb60e11b81526001600160a01b03851660048201526024016102fb565b6040516309b091fd60e21b81526001600160a01b03851660048201526024016102fb565b610f9f84631aed5a8560e21b611062565b156105bd57600084848484604051602001610fbd9493929190611960565b60408051601f1981840301815290829052631aed5a8560e21b825291506001600160a01b03861690636bb56a149061101b907f429ac7a06903dbc9c13dfcb3c9d11df8194581fa047c96d7a4171fc7402958ea9085906004016119ad565b6000604051808303816000875af115801561103a573d6000803e3d6000fd5b505050506040513d6000823e601f3d908101601f1916820160405261069091908101906119c6565b604080516001600160e01b03198316602480830191909152825180830390910181526044909101909152602080820180516001600160e01b03166301ffc9a760e01b178152825160009392849283928392918391908a617530fa92503d915060005190508280156110d4575060208210155b80156110e05750600081115b979650505050505050565b6000602082840312156110fd57600080fd5b81356001600160e01b03198116811461111557600080fd5b9392505050565b634e487b7160e01b600052604160045260246000fd5b604051601f8201601f191681016001600160401b038111828210171561115a5761115a61111c565b604052919050565b60006001600160401b0382111561117b5761117b61111c565b5060051b60200190565b600082601f83011261119657600080fd5b813560206111ab6111a683611162565b611132565b82815260059290921b840181019181810190868411156111ca57600080fd5b8286015b848110156111e557803583529183019183016111ce565b509695505050505050565b60006001600160401b038211156112095761120961111c565b50601f01601f191660200190565b600082601f83011261122857600080fd5b81356112366111a6826111f0565b81815284602083860101111561124b57600080fd5b816020850160208301376000918101602001919091529392505050565b600082601f83011261127957600080fd5b813560206112896111a683611162565b82815260059290921b840181019181810190868411156112a857600080fd5b8286015b848110156111e55780356001600160401b038111156112cb5760008081fd5b6112d98986838b0101611217565b8452509183019183016112ac565b600080604083850312156112fa57600080fd5b82356001600160401b038082111561131157600080fd5b61131d86838701611185565b9350602085013591508082111561133357600080fd5b5061134085828601611268565b9150509250929050565b80356001600160a01b038116811461136157600080fd5b919050565b600082601f83011261137757600080fd5b813560206113876111a683611162565b82815260059290921b840181019181810190868411156113a657600080fd5b8286015b848110156111e5576113bb8161134a565b83529183019183016113aa565b8035801515811461136157600080fd5b600082601f8301126113e957600080fd5b813560206113f96111a683611162565b82815260059290921b8401810191818101908684111561141857600080fd5b8286015b848110156111e55761142d816113c8565b835291830191830161141c565b600080600080600060a0868803121561145257600080fd5b85356001600160401b038082111561146957600080fd5b61147589838a01611366565b9650602088013591508082111561148b57600080fd5b61149789838a01611366565b955060408801359150808211156114ad57600080fd5b6114b989838a01611185565b945060608801359150808211156114cf57600080fd5b6114db89838a016113d8565b935060808801359150808211156114f157600080fd5b506114fe88828901611268565b9150509295509295909350565b6000806040838503121561151e57600080fd5b6115278361134a565b946020939093013593505050565b60006020828403121561154757600080fd5b81356001600160401b0381111561155d57600080fd5b61156984828501611185565b949350505050565b60005b8381101561158c578181015183820152602001611574565b50506000910152565b600081518084526115ad816020860160208601611571565b601f01601f19169290920160200192915050565b6000602080830181845280855180835260408601915060408160051b870101925083870160005b8281101561161657603f19888603018452611604858351611595565b945092850192908501906001016115e8565b5092979650505050505050565b60006020828403121561163557600080fd5b5035919050565b6020815260006111156020830184611595565b6000806040838503121561166257600080fd5b61166b8361134a565b91506116796020840161134a565b90509250929050565b60006020828403121561169457600080fd5b6111158261134a565b600080600080608085870312156116b357600080fd5b6116bc8561134a565b9350602085013592506116d1604086016113c8565b915060608501356001600160401b038111156116ec57600080fd5b6116f887828801611217565b91505092959194509250565b600080600080600060a0868803121561171c57600080fd5b6117258661134a565b94506117336020870161134a565b935060408601359250611748606087016113c8565b915060808601356001600160401b0381111561176357600080fd5b6114fe88828901611217565b6000806040838503121561178257600080fd5b8235915060208301356001600160401b0381111561179f57600080fd5b61134085828601611217565b634e487b7160e01b600052603260045260246000fd5b634e487b7160e01b600052601160045260246000fd5b818103818111156102c2576102c26117c1565b600181811c908216806117fe57607f821691505b60208210810361051d57634e487b7160e01b600052602260045260246000fd5b601f82111561035457600081815260208120601f850160051c810160208610156118455750805b601f850160051c820191505b8181101561069057828155600101611851565b81516001600160401b0381111561187d5761187d61111c565b6118918161188b84546117ea565b8461181e565b602080601f8311600181146118c657600084156118ae5750858301515b600019600386901b1c1916600185901b178555610690565b600085815260208120601f198616915b828110156118f5578886015182559484019460019091019084016118d6565b50858210156119135787850151600019600388901b60f8161c191681555b5050505050600190811b01905550565b808201808211156102c2576102c26117c1565b83815282151560208201526060604082015260006119576060830184611595565b95945050505050565b60006bffffffffffffffffffffffff19808760601b168352808660601b16601484015250836028830152825161199d816048850160208701611571565b9190910160480195945050505050565b8281526040602082015260006115696040830184611595565b6000602082840312156119d857600080fd5b81516001600160401b038111156119ee57600080fd5b8201601f810184136119ff57600080fd5b8051611a0d6111a6826111f0565b818152856020838501011115611a2257600080fd5b61195782602083016020860161157156fea26469706673582212200477f3afd7aae1e5c2fb396b5a108ef2fc52be533e86abb82a81392129c6ca3f64736f6c63430008110033",
    "linkReferences": {}
  },
  "methodIdentifiers": {
    "authorizeOperator(address,uint256)": "47980aa3",
    "authorizedAmountFor(address,address)": "65aeaa95",
    "balanceOf(address)": "70a08231",
    "decimals()": "313ce567",
    "getData(bytes32)": "54f6127f",
    "getData(bytes32[])": "4e3e6e9c",
    "mint(address,uint256,bool,bytes)": "7580d920",
    "owner()": "8da5cb5b",
    "renounceOwnership()": "715018a6",
    "revokeOperator(address)": "fad8b32a",
    "setData(bytes32,bytes)": "7f23690c",
    "setData(bytes32[],bytes[])": "14a6e293",
    "supportsInterface(bytes4)": "01ffc9a7",
    "totalSupply()": "18160ddd",
    "transfer(address,address,uint256,bool,bytes)": "760d9bba",
    "transferBatch(address[],address[],uint256[],bool[],bytes[])": "2d7667c9",
    "transferOwnership(address)": "f2fde38b"
  },
  "id": 59
}