{
  "abi": [
    {
      "inputs": [
        {
          "internalType": "address",
          "name": "newOwner",
          "type": "address"
        }
      ],
      "stateMutability": "payable",
      "type": "constructor"
    },
    {
      "inputs": [],
      "name": "CannotTransferOwnershipToSelf",
      "type": "error"
    },
    {
      "inputs": [],
      "name": "ERC725X_ContractDeploymentFailed",
      "type": "error"
    },
    {
      "inputs": [],
      "name": "ERC725X_CreateOperationsRequireEmptyRecipientAddress",
      "type": "error"
    },
    {
      "inputs": [],
      "name": "ERC725X_ExecuteParametersLengthMismatch",
      "type": "error"
    },
    {
      "inputs": [
        {
          "internalType": "uint256",
          "name": "balance",
          "type": "uint256"
        },
        {
          "internalType": "uint256",
          "name": "value",
          "type": "uint256"
        }
      ],
      "name": "ERC725X_InsufficientBalance",
      "type": "error"
    },
    {
      "inputs": [],
      "name": "ERC725X_MsgValueDisallowedInStaticCall",
      "type": "error"
    },
    {
      "inputs": [],
      "name": "ERC725X_NoContractBytecodeProvided",
      "type": "error"
    },
    {
      "inputs": [
        {
          "internalType": "uint256",
          "name": "operationTypeProvided",
          "type": "uint256"
        }
      ],
      "name": "ERC725X_UnknownOperationType",
      "type": "error"
    },
    {
      "inputs": [
        {
          "internalType": "uint256",
          "name": "dataKeysLength",
          "type": "uint256"
        },
        {
          "internalType": "uint256",
          "name": "dataValuesLength",
          "type": "uint256"
        }
      ],
      "name": "ERC725Y_DataKeysValuesLengthMismatch",
      "type": "error"
    },
    {
      "inputs": [
        {
          "internalType": "uint256",
          "name": "renounceOwnershipStart",
          "type": "uint256"
        },
        {
          "internalType": "uint256",
          "name": "renounceOwnershipEnd",
          "type": "uint256"
        }
      ],
      "name": "NotInRenounceOwnershipInterval",
      "type": "error"
    },
    {
      "anonymous": false,
      "inputs": [
        {
          "indexed": true,
          "internalType": "uint256",
          "name": "operationType",
          "type": "uint256"
        },
        {
          "indexed": true,
          "internalType": "address",
          "name": "contractAddress",
          "type": "address"
        },
        {
          "indexed": true,
          "internalType": "uint256",
          "name": "value",
          "type": "uint256"
        },
        {
          "indexed": false,
          "internalType": "bytes32",
          "name": "salt",
          "type": "bytes32"
        }
      ],
      "name": "ContractCreated",
      "type": "event"
    },
    {
      "anonymous": false,
      "inputs": [
        {
          "indexed": true,
          "internalType": "bytes32",
          "name": "dataKey",
          "type": "bytes32"
        },
        {
          "indexed": false,
          "internalType": "bytes",
          "name": "dataValue",
          "type": "bytes"
        }
      ],
      "name": "DataChanged",
      "type": "event"
    },
    {
      "anonymous": false,
      "inputs": [
        {
          "indexed": true,
          "internalType": "uint256",
          "name": "operationType",
          "type": "uint256"
        },
        {
          "indexed": true,
          "internalType": "address",
          "name": "target",
          "type": "address"
        },
        {
          "indexed": true,
          "internalType": "uint256",
          "name": "value",
          "type": "uint256"
        },
        {
          "indexed": false,
          "internalType": "bytes4",
          "name": "selector",
          "type": "bytes4"
        }
      ],
      "name": "Executed",
      "type": "event"
    },
    {
      "anonymous": false,
      "inputs": [],
      "name": "OwnershipRenounced",
      "type": "event"
    },
    {
      "anonymous": false,
      "inputs": [
        {
          "indexed": true,
          "internalType": "address",
          "name": "previousOwner",
          "type": "address"
        },
        {
          "indexed": true,
          "internalType": "address",
          "name": "newOwner",
          "type": "address"
        }
      ],
      "name": "OwnershipTransferStarted",
      "type": "event"
    },
    {
      "anonymous": false,
      "inputs": [
        {
          "indexed": true,
          "internalType": "address",
          "name": "previousOwner",
          "type": "address"
        },
        {
          "indexed": true,
          "internalType": "address",
          "name": "newOwner",
          "type": "address"
        }
      ],
      "name": "OwnershipTransferred",
      "type": "event"
    },
    {
      "anonymous": false,
      "inputs": [],
      "name": "RenounceOwnershipInitiated",
      "type": "event"
    },
    {
      "anonymous": false,
      "inputs": [
        {
          "indexed": true,
          "internalType": "address",
          "name": "from",
          "type": "address"
        },
        {
          "indexed": true,
          "internalType": "uint256",
          "name": "value",
          "type": "uint256"
        },
        {
          "indexed": true,
          "internalType": "bytes32",
          "name": "typeId",
          "type": "bytes32"
        },
        {
          "indexed": false,
          "internalType": "bytes",
          "name": "receivedData",
          "type": "bytes"
        },
        {
          "indexed": false,
          "internalType": "bytes",
          "name": "returnedValue",
          "type": "bytes"
        }
      ],
      "name": "UniversalReceiver",
      "type": "event"
    },
    {
      "anonymous": false,
      "inputs": [
        {
          "indexed": true,
          "internalType": "address",
          "name": "sender",
          "type": "address"
        },
        {
          "indexed": true,
          "internalType": "uint256",
          "name": "value",
          "type": "uint256"
        }
      ],
      "name": "ValueReceived",
      "type": "event"
    },
    {
      "stateMutability": "payable",
      "type": "fallback"
    },
    {
      "inputs": [],
      "name": "acceptOwnership",
      "outputs": [],
      "stateMutability": "nonpayable",
      "type": "function"
    },
    {
      "inputs": [
        {
          "internalType": "uint256[]",
          "name": "operationsType",
          "type": "uint256[]"
        },
        {
          "internalType": "address[]",
          "name": "targets",
          "type": "address[]"
        },
        {
          "internalType": "uint256[]",
          "name": "values",
          "type": "uint256[]"
        },
        {
          "internalType": "bytes[]",
          "name": "datas",
          "type": "bytes[]"
        }
      ],
      "name": "execute",
      "outputs": [
        {
          "internalType": "bytes[]",
          "name": "",
          "type": "bytes[]"
        }
      ],
      "stateMutability": "payable",
      "type": "function"
    },
    {
      "inputs": [
        {
          "internalType": "uint256",
          "name": "operationType",
          "type": "uint256"
        },
        {
          "internalType": "address",
          "name": "target",
          "type": "address"
        },
        {
          "internalType": "uint256",
          "name": "value",
          "type": "uint256"
        },
        {
          "internalType": "bytes",
          "name": "data",
          "type": "bytes"
        }
      ],
      "name": "execute",
      "outputs": [
        {
          "internalType": "bytes",
          "name": "",
          "type": "bytes"
        }
      ],
      "stateMutability": "payable",
      "type": "function"
    },
    {
      "inputs": [
        {
          "internalType": "bytes32[]",
          "name": "dataKeys",
          "type": "bytes32[]"
        }
      ],
      "name": "getData",
      "outputs": [
        {
          "internalType": "bytes[]",
          "name": "dataValues",
          "type": "bytes[]"
        }
      ],
      "stateMutability": "view",
      "type": "function"
    },
    {
      "inputs": [
        {
          "internalType": "bytes32",
          "name": "dataKey",
          "type": "bytes32"
        }
      ],
      "name": "getData",
      "outputs": [
        {
          "internalType": "bytes",
          "name": "dataValue",
          "type": "bytes"
        }
      ],
      "stateMutability": "view",
      "type": "function"
    },
    {
      "inputs": [],
      "name": "owner",
      "outputs": [
        {
          "internalType": "address",
          "name": "",
          "type": "address"
        }
      ],
      "stateMutability": "view",
      "type": "function"
    },
    {
      "inputs": [],
      "name": "pendingOwner",
      "outputs": [
        {
          "internalType": "address",
          "name": "",
          "type": "address"
        }
      ],
      "stateMutability": "view",
      "type": "function"
    },
    {
      "inputs": [],
      "name": "renounceOwnership",
      "outputs": [],
      "stateMutability": "nonpayable",
      "type": "function"
    },
    {
      "inputs": [
        {
          "internalType": "bytes32[]",
          "name": "dataKeys",
          "type": "bytes32[]"
        },
        {
          "internalType": "bytes[]",
          "name": "dataValues",
          "type": "bytes[]"
        }
      ],
      "name": "setData",
      "outputs": [],
      "stateMutability": "nonpayable",
      "type": "function"
    },
    {
      "inputs": [
        {
          "internalType": "bytes32",
          "name": "dataKey",
          "type": "bytes32"
        },
        {
          "internalType": "bytes",
          "name": "dataValue",
          "type": "bytes"
        }
      ],
      "name": "setData",
      "outputs": [],
      "stateMutability": "nonpayable",
      "type": "function"
    },
    {
      "inputs": [
        {
          "internalType": "bytes4",
          "name": "interfaceId",
          "type": "bytes4"
        }
      ],
      "name": "supportsInterface",
      "outputs": [
        {
          "internalType": "bool",
          "name": "",
          "type": "bool"
        }
      ],
      "stateMutability": "view",
      "type": "function"
    },
    {
      "inputs": [
        {
          "internalType": "address",
          "name": "_newOwner",
          "type": "address"
        }
      ],
      "name": "transferOwnership",
      "outputs": [],
      "stateMutability": "nonpayable",
      "type": "function"
    },
    {
      "inputs": [
        {
          "internalType": "bytes32",
          "name": "typeId",
          "type": "bytes32"
        },
        {
          "internalType": "bytes",
          "name": "receivedData",
          "type": "bytes"
        }
      ],
      "name": "universalReceiver",
      "outputs": [
        {
          "internalType": "bytes",
          "name": "returnedValues",
          "type": "bytes"
        }
      ],
      "stateMutability": "payable",
      "type": "function"
    },
    {
      "stateMutability": "payable",
      "type": "receive"
    }
  ],
  "bytecode": {
    "object": "0x608060405260405162002aab38038062002aab83398101604081905262000026916200043b565b34156200005b57604051349033907f7e71433ddf847725166244795048ecf3e3f9f35628254ecbf73605666423349390600090a35b6200007181620000fe60201b620007d21760201c565b6040805180820190915260048152637c0334a160e01b6020820152620000b9907feafec4d89fa9619884b600007c0334a14085fefa8b51ae5a40895018882bdb909062000165565b604080516020810190915260008152620000f79082907fe32c7debcb817925ba4883fdbfc52797187f28f73f860641dab1a68d9b32902c90620001ec565b5062000743565b6000546001600160a01b038281169116146200016257600080546001600160a01b038381166001600160a01b0319831681178455604051919092169283917f8be0079c531659141344cd1fd0a4f28419497f9722a3daafe3b4186f6b6457e09190a3505b50565b60008281526001602052604090206200017f828262000511565b50817fece574603820d07bc9b91f2a932baadf4628aabcb8afba49776529c14a6104b261010083511115620001cf57620001c98360006101006200029160201b620008371760201c565b620001d1565b825b604051620001e0919062000631565b60405180910390a25050565b6200020a83636bb56a1460e01b620003ae60201b620009461760201c565b156200028c57604051631aed5a8560e21b81526001600160a01b03841690636bb56a149062000240908590859060040162000646565b6000604051808303816000875af115801562000260573d6000803e3d6000fd5b505050506040513d6000823e601f3d908101601f191682016040526200028a919081019062000669565b505b505050565b606081620002a181601f62000721565b1015620002e65760405162461bcd60e51b815260206004820152600e60248201526d736c6963655f6f766572666c6f7760901b60448201526064015b60405180910390fd5b620002f2828462000721565b84511015620003385760405162461bcd60e51b8152602060048201526011602482015270736c6963655f6f75744f66426f756e647360781b6044820152606401620002dd565b606082158015620003595760405191506000825260208201604052620003a5565b6040519150601f8416801560200281840101858101878315602002848b0101015b81831015620003945780518352602092830192016200037a565b5050858452601f01601f1916604052505b50949350505050565b604080516001600160e01b03198316602480830191909152825180830390910181526044909101909152602080820180516001600160e01b03166301ffc9a760e01b178152825160009392849283928392918391908a617530fa92503d9150600051905082801562000421575060208210155b80156200042e5750600081115b9450505050505b92915050565b6000602082840312156200044e57600080fd5b81516001600160a01b03811681146200046657600080fd5b9392505050565b634e487b7160e01b600052604160045260246000fd5b600181811c908216806200049857607f821691505b602082108103620004b957634e487b7160e01b600052602260045260246000fd5b50919050565b601f8211156200028c57600081815260208120601f850160051c81016020861015620004e85750805b601f850160051c820191505b818110156200050957828155600101620004f4565b505050505050565b81516001600160401b038111156200052d576200052d6200046d565b62000545816200053e845462000483565b84620004bf565b602080601f8311600181146200057d5760008415620005645750858301515b600019600386901b1c1916600185901b17855562000509565b600085815260208120601f198616915b82811015620005ae578886015182559484019460019091019084016200058d565b5085821015620005cd5787850151600019600388901b60f8161c191681555b5050505050600190811b01905550565b60005b83811015620005fa578181015183820152602001620005e0565b50506000910152565b600081518084526200061d816020860160208601620005dd565b601f01601f19169290920160200192915050565b60208152600062000466602083018462000603565b82815260406020820152600062000661604083018462000603565b949350505050565b6000602082840312156200067c57600080fd5b81516001600160401b03808211156200069457600080fd5b818401915084601f830112620006a957600080fd5b815181811115620006be57620006be6200046d565b604051601f8201601f19908116603f01168101908382118183101715620006e957620006e96200046d565b816040528281528760208487010111156200070357600080fd5b62000716836020830160208801620005dd565b979650505050505050565b808201808211156200043557634e487b7160e01b600052601160045260246000fd5b61235880620007536000396000f3fe6080604052600436106100c65760003560e01c80636bb56a141161007f5780637f23690c116100595780637f23690c1461022b5780638da5cb5b1461024b578063e30c39781461027d578063f2fde38b1461029b576100ef565b80636bb56a14146101ee578063715018a61461020157806379ba509714610216576100ef565b806301ffc9a71461011957806313ced88d1461014e57806314a6e2931461016e57806344c028fe1461018e5780634e3e6e9c146101ae57806354f6127f146101ce576100ef565b366100ef5734156100ed576040513490339060008051602061230383398151915290600090a35b005b3415610111576040513490339060008051602061230383398151915290600090a35b6100ed6102bb565b34801561012557600080fd5b50610139610134366004611967565b610329565b60405190151581526020015b60405180910390f35b61016161015c366004611b78565b610399565b6040516101459190611ccf565b34801561017a57600080fd5b506100ed610189366004611d31565b6103dc565b6101a161019c366004611d94565b6104a0565b6040516101459190611de8565b3480156101ba57600080fd5b506101616101c9366004611dfb565b6104d8565b3480156101da57600080fd5b506101a16101e9366004611e2f565b61058b565b6101a16101fc366004611e48565b610596565b34801561020d57600080fd5b506100ed61075a565b34801561022257600080fd5b506100ed61076c565b34801561023757600080fd5b506100ed610246366004611ec3565b610774565b34801561025757600080fd5b506000546001600160a01b03165b6040516001600160a01b039091168152602001610145565b34801561028957600080fd5b506003546001600160a01b0316610265565b3480156102a757600080fd5b506100ed6102b6366004611eff565b6107be565b60043610156102c657565b60006102dd6000356001600160e01b0319166109cf565b90506001600160a01b0381166102f05750565b36600080373360601b365234601436015260008060343601600080855af13d6000803e80801561031f573d6000f35b3d6000fd5b505050565b60006001600160e01b03198216637050cee960e01b148061035a57506001600160e01b03198216631aed5a8560e21b145b8061037557506001600160e01b031982166394be599960e01b145b80610384575061038482610a14565b80610393575061039382610a39565b92915050565b60606103a3610a6f565b34156103c5576040513490339060008051602061230383398151915290600090a35b6103d185858585610ad8565b90505b949350505050565b6000546001600160a01b03163314610421576004546001600160a01b031633146104215760405162461bcd60e51b815260040161041890611f1a565b60405180910390fd5b805182511461045057815181516040516321d1e13360e11b815260048101929092526024820152604401610418565b60005b82518110156103245761049883828151811061047157610471611f77565b602002602001015183838151811061048b5761048b611f77565b6020026020010151610c1c565b600101610453565b60606104aa610a6f565b34156104cc576040513490339060008051602061230383398151915290600090a35b6103d185858585610c90565b606081516001600160401b038111156104f3576104f3611991565b60405190808252806020026020018201604052801561052657816020015b60608152602001906001900390816105115790505b50905060005b82518110156105855761055783828151811061054a5761054a611f77565b6020026020010151610d6a565b82828151811061056957610569611f77565b602002602001018190525061057e8160010190565b905061052c565b50919050565b606061039382610d6a565b606034156105ba576040513490339060008051602061230383398151915290600090a35b60006105e57f0cfc51aec37c55a4d0b1a65c6255c4bf2fbdf6277f3cc0730c45b828b6db8b47610d6a565b9050606060148251106106495760006105fd83611f8d565b60601c905061061381631aed5a8560e21b610946565b1561064757600480546001600160a01b0319166001600160a01b038316908117909155610644908888883334610e0c565b91505b505b6000610662690cfc51aec37c55a4d0b160b01b88610f54565b9050600061066f82610d6a565b9050606060148251106106d357600061068783611f8d565b60601c905061069d81631aed5a8560e21b610946565b156106d157600480546001600160a01b0319166001600160a01b0383169081179091556106ce908b8b8b3334610e0c565b91505b505b600480546001600160a01b03191690556040516106f69085908390602001611fc4565b60405160208183030381529060405295508834336001600160a01b03167f9c3ba68eb5742b8e3961aea0afc7371a71bf433c8a67a831803b64c064a178c28b8b8b60405161074693929190612012565b60405180910390a450505050509392505050565b610762610a6f565b61076a610fa0565b565b61076a611078565b6000546001600160a01b031633146107b0576004546001600160a01b031633146107b05760405162461bcd60e51b815260040161041890611f1a565b6107ba8282610c1c565b5050565b6107c6610a6f565b6107cf81611185565b50565b6000546001600160a01b038281169116146107cf57600080546001600160a01b038381166001600160a01b0319831681178455604051919092169283917f8be0079c531659141344cd1fd0a4f28419497f9722a3daafe3b4186f6b6457e09190a35050565b60608161084581601f61204e565b10156108845760405162461bcd60e51b815260206004820152600e60248201526d736c6963655f6f766572666c6f7760901b6044820152606401610418565b61088e828461204e565b845110156108d25760405162461bcd60e51b8152602060048201526011602482015270736c6963655f6f75744f66426f756e647360781b6044820152606401610418565b6060821580156108f1576040519150600082526020820160405261093b565b6040519150601f8416801560200281840101858101878315602002848b0101015b8183101561092a578051835260209283019201610912565b5050858452601f01601f1916604052505b5090505b9392505050565b604080516001600160e01b03198316602480830191909152825180830390910181526044909101909152602080820180516001600160e01b03166301ffc9a760e01b178152825160009392849283928392918391908a617530fa92503d915060005190508280156109b8575060208210155b80156109c45750600081115b979650505050505050565b6000806109f3696773c5a04a6d4300884b60b11b6001600160e01b03198516610f54565b90506000610a0082610d6a565b610a0990611f8d565b60601c949350505050565b60006001600160e01b0319821663a918fa6b60e01b14806103935750610393826112e1565b600080610a4c6301ffc9a760e01b6109cf565b90506001600160a01b038116610a655750600092915050565b61093f8184610946565b33610a826000546001600160a01b031690565b6001600160a01b03161461076a5760405162461bcd60e51b815260206004820181905260248201527f4f776e61626c653a2063616c6c6572206973206e6f7420746865206f776e65726044820152606401610418565b606083518551141580610af9575082518451141580610af957508151835114155b15610b1757604051633ff55f4d60e01b815260040160405180910390fd5b600085516001600160401b03811115610b3257610b32611991565b604051908082528060200260200182016040528015610b6557816020015b6060815260200190600190039081610b505790505b50905060005b8651811015610c1257610be4878281518110610b8957610b89611f77565b6020026020010151878381518110610ba357610ba3611f77565b6020026020010151878481518110610bbd57610bbd611f77565b6020026020010151878581518110610bd757610bd7611f77565b6020026020010151610c90565b828281518110610bf657610bf6611f77565b6020026020010181905250610c0b8160010190565b9050610b6b565b5095945050505050565b6000828152600160205260409020610c3482826120e3565b50817fece574603820d07bc9b91f2a932baadf4628aabcb8afba49776529c14a6104b261010083511115610c7557610c70836000610100610837565b610c77565b825b604051610c849190611de8565b60405180910390a25050565b606084610ca957610ca2848484611306565b90506103d4565b60018503610ce3576001600160a01b03841615610cd957604051631820c12560e11b815260040160405180910390fd5b610ca2838361142b565b60028503610d1d576001600160a01b03841615610d1357604051631820c12560e11b815260040160405180910390fd5b610ca28383611527565b60038503610d4e578215610d44576040516339795e3560e11b815260040160405180910390fd5b610ca2848361160d565b604051631d60ecef60e21b815260048101869052602401610418565b6000818152600160205260409020805460609190610d8790612061565b80601f0160208091040260200160405190810160405280929190818152602001828054610db390612061565b8015610e005780601f10610dd557610100808354040283529160200191610e00565b820191906000526020600020905b815481529060010190602001808311610de357829003601f168201915b50505050509050919050565b60606000636bb56a1460e01b878787604051602401610e2d939291906121a2565b60408051601f19818403018152918152602080830180516001600160e01b03166001600160e01b03199095169490941790935251610e6f9287918791016121bc565b6040516020818303038152906040529050600080896001600160a01b031683604051610e9b91906121f6565b6000604051808303816000865af19150503d8060008114610ed8576040519150601f19603f3d011682016040523d82523d6000602084013e610edd565b606091505b5091509150610f2282826040518060400160405280602081526020017f43616c6c20746f20756e6976657273616c5265636569766572206661696c6564815250611705565b508051600003610f325780610f46565b80806020019051810190610f469190612212565b9a9950505050505050505050565b604080516001600160b01b0319841660208201526000602a82018190526001600160601b03198416602c830152918291016040516020818303038152906040529050806103d49061227f565b6002544390600090610fb49060649061204e565b90506000610fc360648361204e565b9050808311156110005760028390556040517f56272768d104766ae5e663c58927d0a9e47effb40b9a8f6644ac5dfbc9e56f8490600090a1505050565b8183101561102b57604051638b9bf50760e01b81526004810183905260248101829052604401610418565b61103560006107d2565b60006002819055600380546001600160a01b03191690556040517fd1f66c3d2bc1993a86be5e3d33709d98f0442381befcedd29f578b9b2506b1ce9190a1505050565b6003546001600160a01b031633146110e05760405162461bcd60e51b815260206004820152602560248201527f4c535031343a2063616c6c6572206973206e6f74207468652070656e64696e6760448201526427bbb732b960d91b6064820152608401610418565b6000546003546001600160a01b03918216916110fc91166107d2565b600380546001600160a01b03191690556040805160208101909152600081526111489082907fa124442e1cc7b52d8e2ede2787d43527dc1f3ae0de87f50dd03e27a71834f74c9061173e565b6107cf337fe32c7debcb817925ba4883fdbfc52797187f28f73f860641dab1a68d9b32902c60001b6040518060200160405280600081525061173e565b306001600160a01b038216036111ae576040516343b248cd60e01b815260040160405180910390fd5b600380546001600160a01b0383166001600160a01b031990911617905560006111df6000546001600160a01b031690565b9050816001600160a01b0316816001600160a01b03167f38d16b8cac22d99fc7c124b9cd0de2d3fa1faef420bfe791d8c362d765e2270060405160405180910390a361125e827fee9a7c0924f740a2ca33d59b7f0c2929821ea9837ce043ce91c1823e9c4e52c060001b6040518060200160405280600081525061173e565b6000546001600160a01b038281169116146107ba5760405162461bcd60e51b815260206004820152603f60248201527f4c535031343a206e65774f776e6572204d55535420616363657074206f776e6560448201527f727368697020696e2061207365706172617465207472616e73616374696f6e006064820152608401610418565b60006001600160e01b03198216631c537ddf60e21b14806103935750610393826117cf565b606082471015611332576040516301bf351f60e31b815247600482015260248101849052604401610418565b826001600160a01b03851660007f4810874456b8e6487bd861375cf6abd8e1c8bb5858c8ce36a86a04dabfac199e611369866122a3565b6040516001600160e01b0319909116815260200160405180910390a4600080856001600160a01b031685856040516113a191906121f6565b60006040518083038185875af1925050503d80600081146113de576040519150601f19603f3d011682016040523d82523d6000602084013e6113e3565b606091505b509150915061142182826040518060400160405280601681526020017522a9219b991aac1d102ab735b737bbb71022b93937b960511b815250611705565b9695505050505050565b606082471015611457576040516301bf351f60e31b815247600482015260248101849052604401610418565b81516000036114795760405163b81cd8d960e01b815260040160405180910390fd5b600082516020840185f090506001600160a01b0381166114ac57604051630b07489b60e01b815260040160405180910390fd5b6040516001600160601b0319606083901b166020820152603401604051602081830303815290604052915083816001600160a01b031660017fa1fb700aaee2ae4a2ff6f91ce7eba292f89c2f5488b8ec4c5c5c8150692595c36000801b60405161151891815260200190565b60405180910390a45092915050565b6060815160000361154b5760405163b81cd8d960e01b815260040160405180910390fd5b6000611564836020855161155f91906122d6565b611804565b905060006115818460006020875161157c91906122d6565b610837565b90506000611590868484611862565b6040516001600160601b0319606083901b166020820152909150603401604051602081830303815290604052935085816001600160a01b031660027fa1fb700aaee2ae4a2ff6f91ce7eba292f89c2f5488b8ec4c5c5c8150692595c3866040516115fc91815260200190565b60405180910390a450505092915050565b606060006001600160a01b03841660037f4810874456b8e6487bd861375cf6abd8e1c8bb5858c8ce36a86a04dabfac199e611647866122a3565b6040516001600160e01b0319909116815260200160405180910390a4600080846001600160a01b03168460405161167e91906121f6565b600060405180830381855afa9150503d80600081146116b9576040519150601f19603f3d011682016040523d82523d6000602084013e6116be565b606091505b50915091506116fc82826040518060400160405280601681526020017522a9219b991aac1d102ab735b737bbb71022b93937b960511b815250611705565b95945050505050565b6060831561171457508161093f565b8251156117245782518084602001fd5b8160405162461bcd60e51b81526004016104189190611de8565b61174f83631aed5a8560e21b610946565b1561032457604051631aed5a8560e21b81526001600160a01b03841690636bb56a149061178290859085906004016122e9565b6000604051808303816000875af11580156117a1573d6000803e3d6000fd5b505050506040513d6000823e601f3d908101601f191682016040526117c99190810190612212565b50505050565b60006001600160e01b0319821663570ef07360e01b148061039357506301ffc9a760e01b6001600160e01b0319831614610393565b600061181182602061204e565b835110156118595760405162461bcd60e51b8152602060048201526015602482015274746f427974657333325f6f75744f66426f756e647360581b6044820152606401610418565b50016020015190565b600080844710156118b55760405162461bcd60e51b815260206004820152601d60248201527f437265617465323a20696e73756666696369656e742062616c616e63650000006044820152606401610418565b82516000036119065760405162461bcd60e51b815260206004820181905260248201527f437265617465323a2062797465636f6465206c656e677468206973207a65726f6044820152606401610418565b8383516020850187f590506001600160a01b0381166103d45760405162461bcd60e51b815260206004820152601960248201527f437265617465323a204661696c6564206f6e206465706c6f79000000000000006044820152606401610418565b60006020828403121561197957600080fd5b81356001600160e01b03198116811461093f57600080fd5b634e487b7160e01b600052604160045260246000fd5b604051601f8201601f191681016001600160401b03811182821017156119cf576119cf611991565b604052919050565b60006001600160401b038211156119f0576119f0611991565b5060051b60200190565b600082601f830112611a0b57600080fd5b81356020611a20611a1b836119d7565b6119a7565b82815260059290921b84018101918181019086841115611a3f57600080fd5b8286015b84811015611a5a5780358352918301918301611a43565b509695505050505050565b80356001600160a01b0381168114611a7c57600080fd5b919050565b60006001600160401b03821115611a9a57611a9a611991565b50601f01601f191660200190565b600082601f830112611ab957600080fd5b8135611ac7611a1b82611a81565b818152846020838601011115611adc57600080fd5b816020850160208301376000918101602001919091529392505050565b600082601f830112611b0a57600080fd5b81356020611b1a611a1b836119d7565b82815260059290921b84018101918181019086841115611b3957600080fd5b8286015b84811015611a5a5780356001600160401b03811115611b5c5760008081fd5b611b6a8986838b0101611aa8565b845250918301918301611b3d565b60008060008060808587031215611b8e57600080fd5b84356001600160401b0380821115611ba557600080fd5b611bb1888389016119fa565b9550602091508187013581811115611bc857600080fd5b8701601f81018913611bd957600080fd5b8035611be7611a1b826119d7565b81815260059190911b8201840190848101908b831115611c0657600080fd5b928501925b82841015611c2b57611c1c84611a65565b82529285019290850190611c0b565b97505050506040870135915080821115611c4457600080fd5b611c50888389016119fa565b93506060870135915080821115611c6657600080fd5b50611c7387828801611af9565b91505092959194509250565b60005b83811015611c9a578181015183820152602001611c82565b50506000910152565b60008151808452611cbb816020860160208601611c7f565b601f01601f19169290920160200192915050565b6000602080830181845280855180835260408601915060408160051b870101925083870160005b82811015611d2457603f19888603018452611d12858351611ca3565b94509285019290850190600101611cf6565b5092979650505050505050565b60008060408385031215611d4457600080fd5b82356001600160401b0380821115611d5b57600080fd5b611d67868387016119fa565b93506020850135915080821115611d7d57600080fd5b50611d8a85828601611af9565b9150509250929050565b60008060008060808587031215611daa57600080fd5b84359350611dba60208601611a65565b92506040850135915060608501356001600160401b03811115611ddc57600080fd5b611c7387828801611aa8565b60208152600061093f6020830184611ca3565b600060208284031215611e0d57600080fd5b81356001600160401b03811115611e2357600080fd5b6103d4848285016119fa565b600060208284031215611e4157600080fd5b5035919050565b600080600060408486031215611e5d57600080fd5b8335925060208401356001600160401b0380821115611e7b57600080fd5b818601915086601f830112611e8f57600080fd5b813581811115611e9e57600080fd5b876020828501011115611eb057600080fd5b6020830194508093505050509250925092565b60008060408385031215611ed657600080fd5b8235915060208301356001600160401b03811115611ef357600080fd5b611d8a85828601611aa8565b600060208284031215611f1157600080fd5b61093f82611a65565b6020808252603b908201527f4f6e6c79204f776e6572206f72207265656e746572656420556e69766572736160408201527f6c2052656365697665722044656c656761746520616c6c6f7765640000000000606082015260800190565b634e487b7160e01b600052603260045260246000fd5b805160208201516001600160601b03198082169291906014831015611fbc5780818460140360031b1b83161693505b505050919050565b604081526000611fd76040830185611ca3565b82810360208401526116fc8185611ca3565b81835281816020850137506000828201602090810191909152601f909101601f19169091010190565b604081526000612026604083018587611fe9565b82810360208401526114218185611ca3565b634e487b7160e01b600052601160045260246000fd5b8082018082111561039357610393612038565b600181811c9082168061207557607f821691505b60208210810361058557634e487b7160e01b600052602260045260246000fd5b601f82111561032457600081815260208120601f850160051c810160208610156120bc5750805b601f850160051c820191505b818110156120db578281556001016120c8565b505050505050565b81516001600160401b038111156120fc576120fc611991565b6121108161210a8454612061565b84612095565b602080601f831160018114612145576000841561212d5750858301515b600019600386901b1c1916600185901b1785556120db565b600085815260208120601f198616915b8281101561217457888601518255948401946001909101908401612155565b50858210156121925787850151600019600388901b60f8161c191681555b5050505050600190811b01905550565b8381526040602082015260006103d1604083018486611fe9565b600084516121ce818460208901611c7f565b60609490941b6001600160601b03191691909301908152601481019190915260340192915050565b60008251612208818460208701611c7f565b9190910192915050565b60006020828403121561222457600080fd5b81516001600160401b0381111561223a57600080fd5b8201601f8101841361224b57600080fd5b8051612259611a1b82611a81565b81815285602083850101111561226e57600080fd5b6116fc826020830160208601611c7f565b805160208083015191908110156105855760001960209190910360031b1b16919050565b805160208201516001600160e01b03198082169291906004831015611fbc5760049290920360031b82901b161692915050565b8181038181111561039357610393612038565b8281526040602082015260006103d46040830184611ca356fe7e71433ddf847725166244795048ecf3e3f9f35628254ecbf736056664233493a2646970667358221220cad4e51c68a23680227eff67744557afa37ecd91fbce9e7e5ca518ae607bd18b64736f6c63430008110033",
    "linkReferences": {}
  },
  "methodIdentifiers": {
    "acceptOwnership()": "79ba5097",
    "execute(uint256,address,uint256,bytes)": "44c028fe",
    "execute(uint256[],address[],uint256[],bytes[])": "13ced88d",
    "getData(bytes32)": "54f6127f",
    "getData(bytes32[])": "4e3e6e9c",
    "owner()": "8da5cb5b",
    "pendingOwner()": "e30c3978",
    "renounceOwnership()": "715018a6",
    "setData(bytes32,bytes)": "7f23690c",
    "setData(bytes32[],bytes[])": "14a6e293",
    "supportsInterface(bytes4)": "01ffc9a7",
    "transferOwnership(address)": "f2fde38b",
    "universalReceiver(bytes32,bytes)": "6bb56a14"
  },
  "id": 84
}