{
  "abi": [
    {
      "inputs": [],
      "stateMutability": "nonpayable",
      "type": "constructor"
    },
    {
      "inputs": [
        {
          "internalType": "uint256",
          "name": "dataKeysLength",
          "type": "uint256"
        },
        {
          "internalType": "uint256",
          "name": "dataValuesLength",
          "type": "uint256"
        }
      ],
      "name": "ERC725Y_DataKeysValuesLengthMismatch",
      "type": "error"
    },
    {
      "inputs": [],
      "name": "LSP4TokenNameNotEditable",
      "type": "error"
    },
    {
      "inputs": [],
      "name": "LSP4TokenSymbolNotEditable",
      "type": "error"
    },
    {
      "inputs": [],
      "name": "LSP8CannotSendToAddressZero",
      "type": "error"
    },
    {
      "inputs": [],
      "name": "LSP8CannotSendToSelf",
      "type": "error"
    },
    {
      "inputs": [],
      "name": "LSP8CannotUseAddressZeroAsOperator",
      "type": "error"
    },
    {
      "inputs": [],
      "name": "LSP8InvalidTransferBatch",
      "type": "error"
    },
    {
      "inputs": [
        {
          "internalType": "bytes32",
          "name": "tokenId",
          "type": "bytes32"
        }
      ],
      "name": "LSP8NonExistentTokenId",
      "type": "error"
    },
    {
      "inputs": [
        {
          "internalType": "address",
          "name": "operator",
          "type": "address"
        },
        {
          "internalType": "bytes32",
          "name": "tokenId",
          "type": "bytes32"
        }
      ],
      "name": "LSP8NonExistingOperator",
      "type": "error"
    },
    {
      "inputs": [
        {
          "internalType": "bytes32",
          "name": "tokenId",
          "type": "bytes32"
        },
        {
          "internalType": "address",
          "name": "caller",
          "type": "address"
        }
      ],
      "name": "LSP8NotTokenOperator",
      "type": "error"
    },
    {
      "inputs": [
        {
          "internalType": "address",
          "name": "tokenOwner",
          "type": "address"
        },
        {
          "internalType": "bytes32",
          "name": "tokenId",
          "type": "bytes32"
        },
        {
          "internalType": "address",
          "name": "caller",
          "type": "address"
        }
      ],
      "name": "LSP8NotTokenOwner",
      "type": "error"
    },
    {
      "inputs": [
        {
          "internalType": "address",
          "name": "tokenReceiver",
          "type": "address"
        }
      ],
      "name": "LSP8NotifyTokenReceiverContractMissingLSP1Interface",
      "type": "error"
    },
    {
      "inputs": [
        {
          "internalType": "address",
          "name": "tokenReceiver",
          "type": "address"
        }
      ],
      "name": "LSP8NotifyTokenReceiverIsEOA",
      "type": "error"
    },
    {
      "inputs": [
        {
          "internalType": "address",
          "name": "operator",
          "type": "address"
        },
        {
          "internalType": "bytes32",
          "name": "tokenId",
          "type": "bytes32"
        }
      ],
      "name": "LSP8OperatorAlreadyAuthorized",
      "type": "error"
    },
    {
      "inputs": [
        {
          "internalType": "bytes32",
          "name": "tokenId",
          "type": "bytes32"
        }
      ],
      "name": "LSP8TokenIdAlreadyMinted",
      "type": "error"
    },
    {
      "anonymous": false,
      "inputs": [
        {
          "indexed": true,
          "internalType": "address",
          "name": "owner",
          "type": "address"
        },
        {
          "indexed": true,
          "internalType": "address",
          "name": "approved",
          "type": "address"
        },
        {
          "indexed": true,
          "internalType": "uint256",
          "name": "tokenId",
          "type": "uint256"
        }
      ],
      "name": "Approval",
      "type": "event"
    },
    {
      "anonymous": false,
      "inputs": [
        {
          "indexed": true,
          "internalType": "address",
          "name": "_owner",
          "type": "address"
        },
        {
          "indexed": true,
          "internalType": "address",
          "name": "_operator",
          "type": "address"
        },
        {
          "indexed": false,
          "internalType": "bool",
          "name": "_approved",
          "type": "bool"
        }
      ],
      "name": "ApprovalForAll",
      "type": "event"
    },
    {
      "anonymous": false,
      "inputs": [
        {
          "indexed": true,
          "internalType": "address",
          "name": "operator",
          "type": "address"
        },
        {
          "indexed": true,
          "internalType": "address",
          "name": "tokenOwner",
          "type": "address"
        },
        {
          "indexed": true,
          "internalType": "bytes32",
          "name": "tokenId",
          "type": "bytes32"
        }
      ],
      "name": "AuthorizedOperator",
      "type": "event"
    },
    {
      "anonymous": false,
      "inputs": [
        {
          "indexed": true,
          "internalType": "bytes32",
          "name": "dataKey",
          "type": "bytes32"
        },
        {
          "indexed": false,
          "internalType": "bytes",
          "name": "dataValue",
          "type": "bytes"
        }
      ],
      "name": "DataChanged",
      "type": "event"
    },
    {
      "anonymous": false,
      "inputs": [
        {
          "indexed": false,
          "internalType": "uint8",
          "name": "version",
          "type": "uint8"
        }
      ],
      "name": "Initialized",
      "type": "event"
    },
    {
      "anonymous": false,
      "inputs": [
        {
          "indexed": true,
          "internalType": "address",
          "name": "previousOwner",
          "type": "address"
        },
        {
          "indexed": true,
          "internalType": "address",
          "name": "newOwner",
          "type": "address"
        }
      ],
      "name": "OwnershipTransferred",
      "type": "event"
    },
    {
      "anonymous": false,
      "inputs": [
        {
          "indexed": true,
          "internalType": "address",
          "name": "operator",
          "type": "address"
        },
        {
          "indexed": true,
          "internalType": "address",
          "name": "tokenOwner",
          "type": "address"
        },
        {
          "indexed": true,
          "internalType": "bytes32",
          "name": "tokenId",
          "type": "bytes32"
        }
      ],
      "name": "RevokedOperator",
      "type": "event"
    },
    {
      "anonymous": false,
      "inputs": [
        {
          "indexed": true,
          "internalType": "address",
          "name": "from",
          "type": "address"
        },
        {
          "indexed": true,
          "internalType": "address",
          "name": "to",
          "type": "address"
        },
        {
          "indexed": true,
          "internalType": "uint256",
          "name": "tokenId",
          "type": "uint256"
        }
      ],
      "name": "Transfer",
      "type": "event"
    },
    {
      "anonymous": false,
      "inputs": [
        {
          "indexed": false,
          "internalType": "address",
          "name": "operator",
          "type": "address"
        },
        {
          "indexed": true,
          "internalType": "address",
          "name": "from",
          "type": "address"
        },
        {
          "indexed": true,
          "internalType": "address",
          "name": "to",
          "type": "address"
        },
        {
          "indexed": true,
          "internalType": "bytes32",
          "name": "tokenId",
          "type": "bytes32"
        },
        {
          "indexed": false,
          "internalType": "bool",
          "name": "force",
          "type": "bool"
        },
        {
          "indexed": false,
          "internalType": "bytes",
          "name": "data",
          "type": "bytes"
        }
      ],
      "name": "Transfer",
      "type": "event"
    },
    {
      "inputs": [
        {
          "internalType": "address",
          "name": "operator",
          "type": "address"
        },
        {
          "internalType": "uint256",
          "name": "tokenId",
          "type": "uint256"
        }
      ],
      "name": "approve",
      "outputs": [],
      "stateMutability": "nonpayable",
      "type": "function"
    },
    {
      "inputs": [
        {
          "internalType": "address",
          "name": "operator",
          "type": "address"
        },
        {
          "internalType": "bytes32",
          "name": "tokenId",
          "type": "bytes32"
        }
      ],
      "name": "authorizeOperator",
      "outputs": [],
      "stateMutability": "nonpayable",
      "type": "function"
    },
    {
      "inputs": [
        {
          "internalType": "address",
          "name": "tokenOwner",
          "type": "address"
        }
      ],
      "name": "balanceOf",
      "outputs": [
        {
          "internalType": "uint256",
          "name": "",
          "type": "uint256"
        }
      ],
      "stateMutability": "view",
      "type": "function"
    },
    {
      "inputs": [
        {
          "internalType": "uint256",
          "name": "tokenId",
          "type": "uint256"
        },
        {
          "internalType": "bytes",
          "name": "data",
          "type": "bytes"
        }
      ],
      "name": "burn",
      "outputs": [],
      "stateMutability": "nonpayable",
      "type": "function"
    },
    {
      "inputs": [
        {
          "internalType": "uint256",
          "name": "tokenId",
          "type": "uint256"
        }
      ],
      "name": "getApproved",
      "outputs": [
        {
          "internalType": "address",
          "name": "",
          "type": "address"
        }
      ],
      "stateMutability": "view",
      "type": "function"
    },
    {
      "inputs": [
        {
          "internalType": "bytes32[]",
          "name": "dataKeys",
          "type": "bytes32[]"
        }
      ],
      "name": "getData",
      "outputs": [
        {
          "internalType": "bytes[]",
          "name": "dataValues",
          "type": "bytes[]"
        }
      ],
      "stateMutability": "view",
      "type": "function"
    },
    {
      "inputs": [
        {
          "internalType": "bytes32",
          "name": "dataKey",
          "type": "bytes32"
        }
      ],
      "name": "getData",
      "outputs": [
        {
          "internalType": "bytes",
          "name": "dataValue",
          "type": "bytes"
        }
      ],
      "stateMutability": "view",
      "type": "function"
    },
    {
      "inputs": [
        {
          "internalType": "bytes32",
          "name": "tokenId",
          "type": "bytes32"
        }
      ],
      "name": "getOperatorsOf",
      "outputs": [
        {
          "internalType": "address[]",
          "name": "",
          "type": "address[]"
        }
      ],
      "stateMutability": "view",
      "type": "function"
    },
    {
      "inputs": [
        {
          "internalType": "string",
          "name": "name",
          "type": "string"
        },
        {
          "internalType": "string",
          "name": "symbol",
          "type": "string"
        },
        {
          "internalType": "address",
          "name": "newOwner",
          "type": "address"
        },
        {
          "internalType": "bytes",
          "name": "tokenURIValue",
          "type": "bytes"
        }
      ],
      "name": "initialize",
      "outputs": [],
      "stateMutability": "nonpayable",
      "type": "function"
    },
    {
      "inputs": [
        {
          "internalType": "address",
          "name": "tokenOwner",
          "type": "address"
        },
        {
          "internalType": "address",
          "name": "operator",
          "type": "address"
        }
      ],
      "name": "isApprovedForAll",
      "outputs": [
        {
          "internalType": "bool",
          "name": "",
          "type": "bool"
        }
      ],
      "stateMutability": "view",
      "type": "function"
    },
    {
      "inputs": [
        {
          "internalType": "address",
          "name": "operator",
          "type": "address"
        },
        {
          "internalType": "bytes32",
          "name": "tokenId",
          "type": "bytes32"
        }
      ],
      "name": "isOperatorFor",
      "outputs": [
        {
          "internalType": "bool",
          "name": "",
          "type": "bool"
        }
      ],
      "stateMutability": "view",
      "type": "function"
    },
    {
      "inputs": [
        {
          "internalType": "address",
          "name": "to",
          "type": "address"
        },
        {
          "internalType": "uint256",
          "name": "tokenId",
          "type": "uint256"
        },
        {
          "internalType": "bytes",
          "name": "data",
          "type": "bytes"
        }
      ],
      "name": "mint",
      "outputs": [],
      "stateMutability": "nonpayable",
      "type": "function"
    },
    {
      "inputs": [],
      "name": "name",
      "outputs": [
        {
          "internalType": "string",
          "name": "",
          "type": "string"
        }
      ],
      "stateMutability": "view",
      "type": "function"
    },
    {
      "inputs": [],
      "name": "owner",
      "outputs": [
        {
          "internalType": "address",
          "name": "",
          "type": "address"
        }
      ],
      "stateMutability": "view",
      "type": "function"
    },
    {
      "inputs": [
        {
          "internalType": "uint256",
          "name": "tokenId",
          "type": "uint256"
        }
      ],
      "name": "ownerOf",
      "outputs": [
        {
          "internalType": "address",
          "name": "",
          "type": "address"
        }
      ],
      "stateMutability": "view",
      "type": "function"
    },
    {
      "inputs": [],
      "name": "renounceOwnership",
      "outputs": [],
      "stateMutability": "nonpayable",
      "type": "function"
    },
    {
      "inputs": [
        {
          "internalType": "address",
          "name": "operator",
          "type": "address"
        },
        {
          "internalType": "bytes32",
          "name": "tokenId",
          "type": "bytes32"
        }
      ],
      "name": "revokeOperator",
      "outputs": [],
      "stateMutability": "nonpayable",
      "type": "function"
    },
    {
      "inputs": [
        {
          "internalType": "address",
          "name": "from",
          "type": "address"
        },
        {
          "internalType": "address",
          "name": "to",
          "type": "address"
        },
        {
          "internalType": "uint256",
          "name": "tokenId",
          "type": "uint256"
        }
      ],
      "name": "safeTransferFrom",
      "outputs": [],
      "stateMutability": "nonpayable",
      "type": "function"
    },
    {
      "inputs": [
        {
          "internalType": "address",
          "name": "from",
          "type": "address"
        },
        {
          "internalType": "address",
          "name": "to",
          "type": "address"
        },
        {
          "internalType": "uint256",
          "name": "tokenId",
          "type": "uint256"
        },
        {
          "internalType": "bytes",
          "name": "data",
          "type": "bytes"
        }
      ],
      "name": "safeTransferFrom",
      "outputs": [],
      "stateMutability": "nonpayable",
      "type": "function"
    },
    {
      "inputs": [
        {
          "internalType": "address",
          "name": "operator",
          "type": "address"
        },
        {
          "internalType": "bool",
          "name": "approved",
          "type": "bool"
        }
      ],
      "name": "setApprovalForAll",
      "outputs": [],
      "stateMutability": "nonpayable",
      "type": "function"
    },
    {
      "inputs": [
        {
          "internalType": "bytes32[]",
          "name": "dataKeys",
          "type": "bytes32[]"
        },
        {
          "internalType": "bytes[]",
          "name": "dataValues",
          "type": "bytes[]"
        }
      ],
      "name": "setData",
      "outputs": [],
      "stateMutability": "nonpayable",
      "type": "function"
    },
    {
      "inputs": [
        {
          "internalType": "bytes32",
          "name": "dataKey",
          "type": "bytes32"
        },
        {
          "internalType": "bytes",
          "name": "dataValue",
          "type": "bytes"
        }
      ],
      "name": "setData",
      "outputs": [],
      "stateMutability": "nonpayable",
      "type": "function"
    },
    {
      "inputs": [
        {
          "internalType": "bytes4",
          "name": "interfaceId",
          "type": "bytes4"
        }
      ],
      "name": "supportsInterface",
      "outputs": [
        {
          "internalType": "bool",
          "name": "",
          "type": "bool"
        }
      ],
      "stateMutability": "view",
      "type": "function"
    },
    {
      "inputs": [],
      "name": "symbol",
      "outputs": [
        {
          "internalType": "string",
          "name": "",
          "type": "string"
        }
      ],
      "stateMutability": "view",
      "type": "function"
    },
    {
      "inputs": [
        {
          "internalType": "address",
          "name": "tokenOwner",
          "type": "address"
        }
      ],
      "name": "tokenIdsOf",
      "outputs": [
        {
          "internalType": "bytes32[]",
          "name": "",
          "type": "bytes32[]"
        }
      ],
      "stateMutability": "view",
      "type": "function"
    },
    {
      "inputs": [
        {
          "internalType": "bytes32",
          "name": "tokenId",
          "type": "bytes32"
        }
      ],
      "name": "tokenOwnerOf",
      "outputs": [
        {
          "internalType": "address",
          "name": "",
          "type": "address"
        }
      ],
      "stateMutability": "view",
      "type": "function"
    },
    {
      "inputs": [
        {
          "internalType": "uint256",
          "name": "",
          "type": "uint256"
        }
      ],
      "name": "tokenURI",
      "outputs": [
        {
          "internalType": "string",
          "name": "",
          "type": "string"
        }
      ],
      "stateMutability": "view",
      "type": "function"
    },
    {
      "inputs": [],
      "name": "totalSupply",
      "outputs": [
        {
          "internalType": "uint256",
          "name": "",
          "type": "uint256"
        }
      ],
      "stateMutability": "view",
      "type": "function"
    },
    {
      "inputs": [
        {
          "internalType": "address",
          "name": "from",
          "type": "address"
        },
        {
          "internalType": "address",
          "name": "to",
          "type": "address"
        },
        {
          "internalType": "bytes32",
          "name": "tokenId",
          "type": "bytes32"
        },
        {
          "internalType": "bool",
          "name": "force",
          "type": "bool"
        },
        {
          "internalType": "bytes",
          "name": "data",
          "type": "bytes"
        }
      ],
      "name": "transfer",
      "outputs": [],
      "stateMutability": "nonpayable",
      "type": "function"
    },
    {
      "inputs": [
        {
          "internalType": "address[]",
          "name": "from",
          "type": "address[]"
        },
        {
          "internalType": "address[]",
          "name": "to",
          "type": "address[]"
        },
        {
          "internalType": "bytes32[]",
          "name": "tokenId",
          "type": "bytes32[]"
        },
        {
          "internalType": "bool[]",
          "name": "force",
          "type": "bool[]"
        },
        {
          "internalType": "bytes[]",
          "name": "data",
          "type": "bytes[]"
        }
      ],
      "name": "transferBatch",
      "outputs": [],
      "stateMutability": "nonpayable",
      "type": "function"
    },
    {
      "inputs": [
        {
          "internalType": "address",
          "name": "from",
          "type": "address"
        },
        {
          "internalType": "address",
          "name": "to",
          "type": "address"
        },
        {
          "internalType": "uint256",
          "name": "tokenId",
          "type": "uint256"
        }
      ],
      "name": "transferFrom",
      "outputs": [],
      "stateMutability": "nonpayable",
      "type": "function"
    },
    {
      "inputs": [
        {
          "internalType": "address",
          "name": "newOwner",
          "type": "address"
        }
      ],
      "name": "transferOwnership",
      "outputs": [],
      "stateMutability": "nonpayable",
      "type": "function"
    }
  ],
  "bytecode": {
    "object": "0x60806040523480156200001157600080fd5b506200001c62000022565b620000e4565b600054610100900460ff16156200008f5760405162461bcd60e51b815260206004820152602760248201527f496e697469616c697a61626c653a20636f6e747261637420697320696e697469604482015266616c697a696e6760c81b606482015260840160405180910390fd5b60005460ff9081161015620000e2576000805460ff191660ff9081179091556040519081527f7f26b83ff96e1f2b6a682f133852f6798a09c465da95921460cefb38474024989060200160405180910390a15b565b612beb80620000f46000396000f3fe608060405234801561001057600080fd5b50600436106101f05760003560e01c80636352211e1161010f578063a22cb465116100a2578063cf5182ba11610071578063cf5182ba1461044e578063e985e9c514610461578063f2fde38b1461049d578063fe9d9303146104b057600080fd5b8063a22cb465146103f5578063a3b261f214610408578063b88d4fde14610428578063c87b56dd1461043b57600080fd5b80637f23690c116100de5780637f23690c146103b05780638da5cb5b146103c357806394d008ef146103da57806395d89b41146103ed57600080fd5b80636352211e1461036f57806370a0823114610382578063715018a6146103955780637e87632c1461039d57600080fd5b8063217b22701161018757806349a6078d1161015657806349a6078d146103095780634e3e6e9c14610329578063511b69521461034957806354f6127f1461035c57600080fd5b8063217b2270146102bd57806323b872dd146102d05780632a3654a4146102e357806342842e0e146102f657600080fd5b80630b0c6d82116101c35780630b0c6d821461027257806314a6e2931461028557806318160ddd146102985780631eb40e21146102aa57600080fd5b806301ffc9a7146101f557806306fdde031461021d578063081812fc14610232578063095ea7b31461025d575b600080fd5b610208610203366004611fb6565b6104c3565b60405190151581526020015b60405180910390f35b610225610509565b6040516102149190612030565b610245610240366004612043565b610536565b6040516001600160a01b039091168152602001610214565b61027061026b366004612078565b61058d565b005b610270610280366004612078565b6105e4565b61027061029336600461226d565b610691565b6002545b604051908152602001610214565b6102706102b83660046122d0565b61071d565b6102456102cb366004612043565b61085f565b6102706102de366004612368565b610898565b6102086102f1366004612078565b6108b8565b610270610304366004612368565b6108d4565b61031c610317366004612043565b6108f4565b60405161021491906123a4565b61033c6103373660046123f1565b610916565b6040516102149190612425565b610270610357366004612497565b6109c9565b61022561036a366004612043565b610a18565b61024561037d366004612043565b610a23565b61029c61039036600461250f565b610a2e565b610270610a4f565b6102706103ab3660046125ee565b610a63565b6102706103be3660046126b2565b610b52565b6000546201000090046001600160a01b0316610245565b6102706103e8366004612736565b610b68565b610225610bae565b61027061040336600461278f565b610bdb565b61041b61041636600461250f565b610be6565b60405161021491906127c2565b6102706104363660046127fa565b610c0a565b610225610449366004612043565b610c18565b61027061045c366004612078565b610c66565b61020861046f366004612855565b6001600160a01b03918216600090815260076020908152604080832093909416825291909152205460ff1690565b6102706104ab36600461250f565b610c70565b6102706104be36600461287f565b610ce9565b60006001600160e01b031982166380ac58cd60e01b14806104f457506001600160e01b03198216635b5e139f60e01b145b80610503575061050382610d2c565b92915050565b606060006105037fdeba1e292f8ba88238e10ab3c7f88bd4be4fac56cad5194b6ecceaf653468af1610d51565b60008161054281610df3565b60008181526005602052604081209061055a82610e2b565b90508060000361056f57506000949350505050565b61058461057d6001836128e0565b8390610e35565b95945050505050565b6105978282610c66565b806001600160a01b0383166105ab8261085f565b6001600160a01b03167f8c5be1e5ebec7d5bd14f71427d1e84f3dd0314c0f7b2291e5b200ac8c7c3b92560405160405180910390a45050565b60006105ef8261085f565b9050336001600160a01b038216811461063a57604051632d938f5160e11b81526001600160a01b03808416600483015260248201859052821660448201526064015b60405180910390fd5b6001600160a01b03841661066157604051639577b8b360e01b815260040160405180910390fd5b836001600160a01b0316826001600160a01b0316036106805750505050565b61068b848385610e41565b50505050565b610699610ed2565b80518251146106c857815181516040516321d1e13360e11b815260048101929092526024820152604401610631565b60005b8251811015610718576107108382815181106106e9576106e96128f3565b6020026020010151838381518110610703576107036128f3565b6020026020010151610f33565b6001016106cb565b505050565b600054610100900460ff161580801561073d5750600054600160ff909116105b806107575750303b158015610757575060005460ff166001145b6107ba5760405162461bcd60e51b815260206004820152602e60248201527f496e697469616c697a61626c653a20636f6e747261637420697320616c72656160448201526d191e481a5b9a5d1a585b1a5e995960921b6064820152608401610631565b6000805460ff1916600117905580156107dd576000805461ff0019166101001790555b6107e8858585610f3d565b6108127f9afb95cacc9f95858ec44aa8c3b685511002e30ae54415823f406128b85b238e83610f33565b8015610858576000805461ff0019169055604051600181527f7f26b83ff96e1f2b6a682f133852f6798a09c465da95921460cefb38474024989060200160405180910390a15b5050505050565b6000818152600360205260408120546001600160a01b03168061050357604051635747cd1b60e11b815260048101849052602401610631565b61071883838360001b600160405180602001604052806000815250610f6f565b60006108c382610df3565b6108cd838361102b565b9392505050565b61071883838360001b600060405180602001604052806000815250610f6f565b60606108ff82610df3565b600082815260056020526040902061050390611074565b606081516001600160401b03811115610931576109316120a2565b60405190808252806020026020018201604052801561096457816020015b606081526020019060019003908161094f5790505b50905060005b82518110156109c357610995838281518110610988576109886128f3565b6020026020010151610d51565b8282815181106109a7576109a76128f3565b60200260200101819052506109bc8160010190565b905061096a565b50919050565b336109d4818561102b565b610a0357604051631294d2a960e01b8152600481018590526001600160a01b0382166024820152604401610631565b610a108686868686610f6f565b505050505050565b606061050382610d51565b60006105038261085f565b6001600160a01b038116600090815260046020526040812061050390610e2b565b610a57610ed2565b610a616000611081565b565b8451845181141580610a76575083518114155b80610a82575082518114155b80610a8e575081518114155b15610aac576040516393a8311960e01b815260040160405180910390fd5b60005b81811015610b4957610b41878281518110610acc57610acc6128f3565b6020026020010151878381518110610ae657610ae66128f3565b6020026020010151878481518110610b0057610b006128f3565b6020026020010151878581518110610b1a57610b1a6128f3565b6020026020010151878681518110610b3457610b346128f3565b60200260200101516109c9565b600101610aaf565b50505050505050565b610b5a610ed2565b610b648282610f33565b5050565b61068b848460001b600185858080601f0160208091040260200160405190810160405280939291908181526020018383808284376000920191909152506110f792505050565b606060006105037f2f0a68ab07768e01943a599e73362a0e17a63a72e94dd2e384d2c1d4db932756610d51565b610b64338383611141565b6001600160a01b03811660009081526004602052604090206060906105039061121f565b61068b848484600085610f6f565b60606000610c457f9afb95cacc9f95858ec44aa8c3b685511002e30ae54415823f406128b85b238e610d51565b905060006024905060006105848383848651610c6191906128e0565b61122a565b6105978282611337565b610c78610ed2565b6001600160a01b038116610cdd5760405162461bcd60e51b815260206004820152602660248201527f4f776e61626c653a206e6577206f776e657220697320746865207a65726f206160448201526564647265737360d01b6064820152608401610631565b610ce681611081565b50565b6107188360001b83838080601f01602080910402602001604051908101604052809392919081815260200183838082843760009201919091525061146092505050565b60006001600160e01b0319821663622e7a0160e01b14806105035750610503826114b4565b6000818152600160205260409020805460609190610d6e90612909565b80601f0160208091040260200160405190810160405280929190818152602001828054610d9a90612909565b8015610de75780601f10610dbc57610100808354040283529160200191610de7565b820191906000526020600020905b815481529060010190602001808311610dca57829003601f168201915b50505050509050919050565b6000818152600360205260409020546001600160a01b0316610ce657604051635747cd1b60e11b815260048101829052602401610631565b6000610503825490565b60006108cd83836114e9565b6000818152600560205260408120610e599085611513565b905080610e8b576040516312a8c6a360e21b81526001600160a01b038516600482015260248101839052604401610631565b81836001600160a01b0316856001600160a01b03167f17d5389f6ab6adb2647dfa0aa365c323d37adacc30b33a65310b6158ce1373d560405160405180910390a450505050565b6000546001600160a01b0362010000909104163314610a615760405162461bcd60e51b815260206004820181905260248201527f4f776e61626c653a2063616c6c6572206973206e6f7420746865206f776e65726044820152606401610631565b610b648282611528565b600054610100900460ff16610f645760405162461bcd60e51b81526004016106319061293d565b61071883838361161c565b6001600160a01b03851660009081526007602090815260408083203380855292529091205460ff16158015610fab5750610fa9818561102b565b155b15610fdb57604051631294d2a960e01b8152600481018590526001600160a01b0382166024820152604401610631565b610fe8868686868661164e565b60405184906001600160a01b0380881691908916907fddf252ad1be2c89b69c2b068fc378daa952ba7f163c4a11628f55a4df523b3ef90600090a4505050505050565b6000806110378361085f565b9050806001600160a01b0316846001600160a01b0316148061106c5750600083815260056020526040902061106c90856117d8565b949350505050565b606060006108cd836117fa565b6000546001600160a01b03828116620100009092041614610ce657600080546001600160a01b038381166201000081810262010000600160b01b0319851617855560405193049190911692909183917f8be0079c531659141344cd1fd0a4f28419497f9722a3daafe3b4186f6b6457e091a35050565b61110384848484611855565b60405183906001600160a01b038616906000907fddf252ad1be2c89b69c2b068fc378daa952ba7f163c4a11628f55a4df523b3ef908290a450505050565b816001600160a01b0316836001600160a01b0316036111b25760405162461bcd60e51b815260206004820152602760248201527f4c535038436f6d70617469626c654552433732313a20617070726f766520746f6044820152661031b0b63632b960c91b6064820152608401610631565b6001600160a01b03838116600081815260076020908152604080832094871680845294825291829020805460ff191686151590811790915591519182527f17307eab39ab6107e8899845ad3d59bd9653f200f220920489ca2b5937696c31910160405180910390a3505050565b6060610503826117fa565b60608161123881601f612988565b10156112775760405162461bcd60e51b815260206004820152600e60248201526d736c6963655f6f766572666c6f7760901b6044820152606401610631565b6112818284612988565b845110156112c55760405162461bcd60e51b8152602060048201526011602482015270736c6963655f6f75744f66426f756e647360781b6044820152606401610631565b6060821580156112e4576040519150600082526020820160405261132e565b6040519150601f8416801560200281840101858101878315602002848b0101015b8183101561131d578051835260209283019201611305565b5050858452601f01601f1916604052505b50949350505050565b60006113428261085f565b9050336001600160a01b038216811461138857604051632d938f5160e11b81526001600160a01b0380841660048301526024820185905282166044820152606401610631565b6001600160a01b0384166113af57604051639577b8b360e01b815260040160405180910390fd5b836001600160a01b0316826001600160a01b0316036113ce5750505050565b60008381526005602052604081206113e69086611968565b905080611418576040516314ec4d6d60e31b81526001600160a01b038616600482015260248101859052604401610631565b83836001600160a01b0316866001600160a01b03167f34b797fc5a526f7bf1d2b5de25f6564fd85ae364e3ee939aee7c1ac27871a98860405160405180910390a45050505050565b600061146b8361085f565b9050611477838361197d565b60405183906000906001600160a01b038416907fddf252ad1be2c89b69c2b068fc378daa952ba7f163c4a11628f55a4df523b3ef908390a4505050565b60006001600160e01b03198216631c537ddf60e21b148061050357506301ffc9a760e01b6001600160e01b0319831614610503565b6000826000018281548110611500576115006128f3565b9060005260206000200154905092915050565b60006108cd836001600160a01b038416611a43565b7f2145e1d6d074577dc71ef54c3807742b41b053a9352ae6b491331509acb9750f8201611568576040516385c169bd60e01b815260040160405180910390fd5b7fd0f59754f88971fe6bc5a6618cc9d5f1e859c58d16b22d1c7b2d3e2b246cd8aa82016115a857604051630eceab6760e31b815260040160405180910390fd5b60008281526001602052604090206115c082826129e1565b50817fece574603820d07bc9b91f2a932baadf4628aabcb8afba49776529c14a6104b261010083511115611601576115fc83600061010061122a565b611603565b825b6040516116109190612030565b60405180910390a25050565b600054610100900460ff166116435760405162461bcd60e51b81526004016106319061293d565b610718838383611b36565b836001600160a01b0316856001600160a01b03160361168057604051635d67d6c160e01b815260040160405180910390fd5b600061168b8461085f565b9050856001600160a01b0316816001600160a01b0316146116d957604051632d938f5160e11b81526001600160a01b0380831660048301526024820186905287166044820152606401610631565b6001600160a01b038516611700576040516324ecef4d60e01b815260040160405180910390fd5b3361170b8786611c03565b6001600160a01b038716600090815260046020526040902061172d9086611c4a565b506001600160a01b03861660009081526004602052604090206117509086611c56565b506000858152600360205260409081902080546001600160a01b0319166001600160a01b0389811691821790925591518792918a16907fb333c813a7426a7a11e2b190cad52c44119421594b47f6f32ace6d8c7207b2bf906117b79086908a908a90612aa0565b60405180910390a46117cb87878786611c62565b610b498787878787611d36565b6001600160a01b038116600090815260018301602052604081205415156108cd565b606081600001805480602002602001604051908101604052809291908181526020018280548015610de757602002820191906000526020600020905b8154815260200190600101908083116118365750505050509050919050565b6001600160a01b03841661187c576040516324ecef4d60e01b815260040160405180910390fd5b6000838152600360205260409020546001600160a01b0316156118b5576040516334c7b51160e01b815260048101849052602401610631565b336001600260008282546118c99190612988565b90915550506001600160a01b03851660009081526004602052604090206118f09085611c56565b5060008481526003602052604080822080546001600160a01b0319166001600160a01b03891690811790915590518692907fb333c813a7426a7a11e2b190cad52c44119421594b47f6f32ace6d8c7207b2bf9061195290869089908990612aa0565b60405180910390a4610858600086868686611d36565b60006108cd836001600160a01b038416611e6e565b60006119888361085f565b90503360016002600082825461199e91906128e0565b909155506119ae90508285611c03565b6001600160a01b03821660009081526004602052604090206119d09085611c4a565b5060008481526003602052604080822080546001600160a01b0319169055518591906001600160a01b038516907fb333c813a7426a7a11e2b190cad52c44119421594b47f6f32ace6d8c7207b2bf90611a2e90869085908a90612aa0565b60405180910390a461068b8260008686611c62565b60008181526001830160205260408120548015611b2c576000611a676001836128e0565b8554909150600090611a7b906001906128e0565b9050818114611ae0576000866000018281548110611a9b57611a9b6128f3565b9060005260206000200154905080876000018481548110611abe57611abe6128f3565b6000918252602080832090910192909255918252600188019052604090208390555b8554869080611af157611af1612acc565b600190038181906000526020600020016000905590558560010160008681526020019081526020016000206000905560019350505050610503565b6000915050610503565b600054610100900460ff16611b5d5760405162461bcd60e51b81526004016106319061293d565b611b6681611ebd565b611baf7feafec4d89fa9619884b60000a4d96624a38f7ac2d8d9a604ecf07c12c77e480c60001b604051806040016040528060048152602001632936598960e21b815250611ee4565b611bd97fdeba1e292f8ba88238e10ab3c7f88bd4be4fac56cad5194b6ecceaf653468af184611ee4565b6107187f2f0a68ab07768e01943a599e73362a0e17a63a72e94dd2e384d2c1d4db93275683611ee4565b600081815260056020526040812090611c1b82610e2b565b905060005b81811015610858576000611c348482610e35565b9050611c41818787610e41565b50600101611c20565b60006108cd8383611a43565b60006108cd8383611e6e565b611c7384631aed5a8560e21b611f2d565b1561068b57600084848484604051602001611c919493929190612ae2565b60408051601f1981840301815290829052631aed5a8560e21b825291506001600160a01b03861690636bb56a1490611cef907fb23eae7e6d1564b295b4c3e3be402d9a2f0776c57bdf365903496f6fa481ab00908590600401612b2f565b6000604051808303816000875af1158015611d0e573d6000803e3d6000fd5b505050506040513d6000823e601f3d908101601f19168201604052610a109190810190612b48565b611d4784631aed5a8560e21b611f2d565b15611e1157600085858584604051602001611d659493929190612ae2565b60408051601f1981840301815290829052631aed5a8560e21b825291506001600160a01b03861690636bb56a1490611dc3907f0b084a55ebf70fd3c06fd755269dac2212c4d3f0f4d09079780bfa50c1b2984d908590600401612b2f565b6000604051808303816000875af1158015611de2573d6000803e3d6000fd5b505050506040513d6000823e601f3d908101601f19168201604052611e0a9190810190612b48565b5050610858565b81610858576001600160a01b0384163b15611e4a57604051634349776d60e01b81526001600160a01b0385166004820152602401610631565b604051630317313760e01b81526001600160a01b0385166004820152602401610631565b6000818152600183016020526040812054611eb557508154600181810184556000848152602080822090930184905584548482528286019093526040902091909155610503565b506000610503565b600054610100900460ff16610c785760405162461bcd60e51b81526004016106319061293d565b6000828152600160205260409020611efc82826129e1565b50817fece574603820d07bc9b91f2a932baadf4628aabcb8afba49776529c14a6104b2826040516116109190612030565b604080516001600160e01b03198316602480830191909152825180830390910181526044909101909152602080820180516001600160e01b03166301ffc9a760e01b178152825160009392849283928392918391908a617530fa92503d91506000519050828015611f9f575060208210155b8015611fab5750600081115b979650505050505050565b600060208284031215611fc857600080fd5b81356001600160e01b0319811681146108cd57600080fd5b60005b83811015611ffb578181015183820152602001611fe3565b50506000910152565b6000815180845261201c816020860160208601611fe0565b601f01601f19169290920160200192915050565b6020815260006108cd6020830184612004565b60006020828403121561205557600080fd5b5035919050565b80356001600160a01b038116811461207357600080fd5b919050565b6000806040838503121561208b57600080fd5b6120948361205c565b946020939093013593505050565b634e487b7160e01b600052604160045260246000fd5b604051601f8201601f191681016001600160401b03811182821017156120e0576120e06120a2565b604052919050565b60006001600160401b03821115612101576121016120a2565b5060051b60200190565b600082601f83011261211c57600080fd5b8135602061213161212c836120e8565b6120b8565b82815260059290921b8401810191818101908684111561215057600080fd5b8286015b8481101561216b5780358352918301918301612154565b509695505050505050565b60006001600160401b0382111561218f5761218f6120a2565b50601f01601f191660200190565b600082601f8301126121ae57600080fd5b81356121bc61212c82612176565b8181528460208386010111156121d157600080fd5b816020850160208301376000918101602001919091529392505050565b600082601f8301126121ff57600080fd5b8135602061220f61212c836120e8565b82815260059290921b8401810191818101908684111561222e57600080fd5b8286015b8481101561216b5780356001600160401b038111156122515760008081fd5b61225f8986838b010161219d565b845250918301918301612232565b6000806040838503121561228057600080fd5b82356001600160401b038082111561229757600080fd5b6122a38683870161210b565b935060208501359150808211156122b957600080fd5b506122c6858286016121ee565b9150509250929050565b600080600080608085870312156122e657600080fd5b84356001600160401b03808211156122fd57600080fd5b6123098883890161219d565b9550602087013591508082111561231f57600080fd5b61232b8883890161219d565b94506123396040880161205c565b9350606087013591508082111561234f57600080fd5b5061235c8782880161219d565b91505092959194509250565b60008060006060848603121561237d57600080fd5b6123868461205c565b92506123946020850161205c565b9150604084013590509250925092565b6020808252825182820181905260009190848201906040850190845b818110156123e55783516001600160a01b0316835292840192918401916001016123c0565b50909695505050505050565b60006020828403121561240357600080fd5b81356001600160401b0381111561241957600080fd5b61106c8482850161210b565b6000602080830181845280855180835260408601915060408160051b870101925083870160005b8281101561247a57603f19888603018452612468858351612004565b9450928501929085019060010161244c565b5092979650505050505050565b8035801515811461207357600080fd5b600080600080600060a086880312156124af57600080fd5b6124b88661205c565b94506124c66020870161205c565b9350604086013592506124db60608701612487565b915060808601356001600160401b038111156124f657600080fd5b6125028882890161219d565b9150509295509295909350565b60006020828403121561252157600080fd5b6108cd8261205c565b600082601f83011261253b57600080fd5b8135602061254b61212c836120e8565b82815260059290921b8401810191818101908684111561256a57600080fd5b8286015b8481101561216b5761257f8161205c565b835291830191830161256e565b600082601f83011261259d57600080fd5b813560206125ad61212c836120e8565b82815260059290921b840181019181810190868411156125cc57600080fd5b8286015b8481101561216b576125e181612487565b83529183019183016125d0565b600080600080600060a0868803121561260657600080fd5b85356001600160401b038082111561261d57600080fd5b61262989838a0161252a565b9650602088013591508082111561263f57600080fd5b61264b89838a0161252a565b9550604088013591508082111561266157600080fd5b61266d89838a0161210b565b9450606088013591508082111561268357600080fd5b61268f89838a0161258c565b935060808801359150808211156126a557600080fd5b50612502888289016121ee565b600080604083850312156126c557600080fd5b8235915060208301356001600160401b038111156126e257600080fd5b6122c68582860161219d565b60008083601f84011261270057600080fd5b5081356001600160401b0381111561271757600080fd5b60208301915083602082850101111561272f57600080fd5b9250929050565b6000806000806060858703121561274c57600080fd5b6127558561205c565b93506020850135925060408501356001600160401b0381111561277757600080fd5b612783878288016126ee565b95989497509550505050565b600080604083850312156127a257600080fd5b6127ab8361205c565b91506127b960208401612487565b90509250929050565b6020808252825182820181905260009190848201906040850190845b818110156123e5578351835292840192918401916001016127de565b6000806000806080858703121561281057600080fd5b6128198561205c565b93506128276020860161205c565b92506040850135915060608501356001600160401b0381111561284957600080fd5b61235c8782880161219d565b6000806040838503121561286857600080fd5b6128718361205c565b91506127b96020840161205c565b60008060006040848603121561289457600080fd5b8335925060208401356001600160401b038111156128b157600080fd5b6128bd868287016126ee565b9497909650939450505050565b634e487b7160e01b600052601160045260246000fd5b81810381811115610503576105036128ca565b634e487b7160e01b600052603260045260246000fd5b600181811c9082168061291d57607f821691505b6020821081036109c357634e487b7160e01b600052602260045260246000fd5b6020808252602b908201527f496e697469616c697a61626c653a20636f6e7472616374206973206e6f74206960408201526a6e697469616c697a696e6760a81b606082015260800190565b80820180821115610503576105036128ca565b601f82111561071857600081815260208120601f850160051c810160208610156129c25750805b601f850160051c820191505b81811015610a10578281556001016129ce565b81516001600160401b038111156129fa576129fa6120a2565b612a0e81612a088454612909565b8461299b565b602080601f831160018114612a435760008415612a2b5750858301515b600019600386901b1c1916600185901b178555610a10565b600085815260208120601f198616915b82811015612a7257888601518255948401946001909101908401612a53565b5085821015612a905787850151600019600388901b60f8161c191681555b5050505050600190811b01905550565b6001600160a01b0384168152821515602082015260606040820181905260009061058490830184612004565b634e487b7160e01b600052603160045260246000fd5b60006bffffffffffffffffffffffff19808760601b168352808660601b166014840152508360288301528251612b1f816048850160208701611fe0565b9190910160480195945050505050565b82815260406020820152600061106c6040830184612004565b600060208284031215612b5a57600080fd5b81516001600160401b03811115612b7057600080fd5b8201601f81018413612b8157600080fd5b8051612b8f61212c82612176565b818152856020838501011115612ba457600080fd5b610584826020830160208601611fe056fea264697066735822122026d0cc03b77ba744e9ec8f1e9e27024f40a7143e3f4e9e72fae6f7a0d429bcbb64736f6c63430008110033",
    "linkReferences": {}
  },
  "methodIdentifiers": {
    "approve(address,uint256)": "095ea7b3",
    "authorizeOperator(address,bytes32)": "cf5182ba",
    "balanceOf(address)": "70a08231",
    "burn(uint256,bytes)": "fe9d9303",
    "getApproved(uint256)": "081812fc",
    "getData(bytes32)": "54f6127f",
    "getData(bytes32[])": "4e3e6e9c",
    "getOperatorsOf(bytes32)": "49a6078d",
    "initialize(string,string,address,bytes)": "1eb40e21",
    "isApprovedForAll(address,address)": "e985e9c5",
    "isOperatorFor(address,bytes32)": "2a3654a4",
    "mint(address,uint256,bytes)": "94d008ef",
    "name()": "06fdde03",
    "owner()": "8da5cb5b",
    "ownerOf(uint256)": "6352211e",
    "renounceOwnership()": "715018a6",
    "revokeOperator(address,bytes32)": "0b0c6d82",
    "safeTransferFrom(address,address,uint256)": "42842e0e",
    "safeTransferFrom(address,address,uint256,bytes)": "b88d4fde",
    "setApprovalForAll(address,bool)": "a22cb465",
    "setData(bytes32,bytes)": "7f23690c",
    "setData(bytes32[],bytes[])": "14a6e293",
    "supportsInterface(bytes4)": "01ffc9a7",
    "symbol()": "95d89b41",
    "tokenIdsOf(address)": "a3b261f2",
    "tokenOwnerOf(bytes32)": "217b2270",
    "tokenURI(uint256)": "c87b56dd",
    "totalSupply()": "18160ddd",
    "transfer(address,address,bytes32,bool,bytes)": "511b6952",
    "transferBatch(address[],address[],bytes32[],bool[],bytes[])": "7e87632c",
    "transferFrom(address,address,uint256)": "23b872dd",
    "transferOwnership(address)": "f2fde38b"
  },
  "id": 137
}