{
  "abi": [
    {
      "inputs": [
        {
          "internalType": "uint256",
          "name": "dataKeysLength",
          "type": "uint256"
        },
        {
          "internalType": "uint256",
          "name": "dataValuesLength",
          "type": "uint256"
        }
      ],
      "name": "ERC725Y_DataKeysValuesLengthMismatch",
      "type": "error"
    },
    {
      "inputs": [],
      "name": "LSP4TokenNameNotEditable",
      "type": "error"
    },
    {
      "inputs": [],
      "name": "LSP4TokenSymbolNotEditable",
      "type": "error"
    },
    {
      "inputs": [],
      "name": "LSP8CannotSendToAddressZero",
      "type": "error"
    },
    {
      "inputs": [],
      "name": "LSP8CannotSendToSelf",
      "type": "error"
    },
    {
      "inputs": [],
      "name": "LSP8CannotUseAddressZeroAsOperator",
      "type": "error"
    },
    {
      "inputs": [],
      "name": "LSP8CappedSupplyCannotMintOverCap",
      "type": "error"
    },
    {
      "inputs": [],
      "name": "LSP8CappedSupplyRequired",
      "type": "error"
    },
    {
      "inputs": [],
      "name": "LSP8InvalidTransferBatch",
      "type": "error"
    },
    {
      "inputs": [
        {
          "internalType": "bytes32",
          "name": "tokenId",
          "type": "bytes32"
        }
      ],
      "name": "LSP8NonExistentTokenId",
      "type": "error"
    },
    {
      "inputs": [
        {
          "internalType": "address",
          "name": "operator",
          "type": "address"
        },
        {
          "internalType": "bytes32",
          "name": "tokenId",
          "type": "bytes32"
        }
      ],
      "name": "LSP8NonExistingOperator",
      "type": "error"
    },
    {
      "inputs": [
        {
          "internalType": "bytes32",
          "name": "tokenId",
          "type": "bytes32"
        },
        {
          "internalType": "address",
          "name": "caller",
          "type": "address"
        }
      ],
      "name": "LSP8NotTokenOperator",
      "type": "error"
    },
    {
      "inputs": [
        {
          "internalType": "address",
          "name": "tokenOwner",
          "type": "address"
        },
        {
          "internalType": "bytes32",
          "name": "tokenId",
          "type": "bytes32"
        },
        {
          "internalType": "address",
          "name": "caller",
          "type": "address"
        }
      ],
      "name": "LSP8NotTokenOwner",
      "type": "error"
    },
    {
      "inputs": [
        {
          "internalType": "address",
          "name": "tokenReceiver",
          "type": "address"
        }
      ],
      "name": "LSP8NotifyTokenReceiverContractMissingLSP1Interface",
      "type": "error"
    },
    {
      "inputs": [
        {
          "internalType": "address",
          "name": "tokenReceiver",
          "type": "address"
        }
      ],
      "name": "LSP8NotifyTokenReceiverIsEOA",
      "type": "error"
    },
    {
      "inputs": [
        {
          "internalType": "address",
          "name": "operator",
          "type": "address"
        },
        {
          "internalType": "bytes32",
          "name": "tokenId",
          "type": "bytes32"
        }
      ],
      "name": "LSP8OperatorAlreadyAuthorized",
      "type": "error"
    },
    {
      "inputs": [
        {
          "internalType": "bytes32",
          "name": "tokenId",
          "type": "bytes32"
        }
      ],
      "name": "LSP8TokenIdAlreadyMinted",
      "type": "error"
    },
    {
      "anonymous": false,
      "inputs": [
        {
          "indexed": true,
          "internalType": "address",
          "name": "operator",
          "type": "address"
        },
        {
          "indexed": true,
          "internalType": "address",
          "name": "tokenOwner",
          "type": "address"
        },
        {
          "indexed": true,
          "internalType": "bytes32",
          "name": "tokenId",
          "type": "bytes32"
        }
      ],
      "name": "AuthorizedOperator",
      "type": "event"
    },
    {
      "anonymous": false,
      "inputs": [
        {
          "indexed": true,
          "internalType": "bytes32",
          "name": "dataKey",
          "type": "bytes32"
        },
        {
          "indexed": false,
          "internalType": "bytes",
          "name": "dataValue",
          "type": "bytes"
        }
      ],
      "name": "DataChanged",
      "type": "event"
    },
    {
      "anonymous": false,
      "inputs": [
        {
          "indexed": false,
          "internalType": "uint8",
          "name": "version",
          "type": "uint8"
        }
      ],
      "name": "Initialized",
      "type": "event"
    },
    {
      "anonymous": false,
      "inputs": [
        {
          "indexed": true,
          "internalType": "address",
          "name": "previousOwner",
          "type": "address"
        },
        {
          "indexed": true,
          "internalType": "address",
          "name": "newOwner",
          "type": "address"
        }
      ],
      "name": "OwnershipTransferred",
      "type": "event"
    },
    {
      "anonymous": false,
      "inputs": [
        {
          "indexed": true,
          "internalType": "address",
          "name": "operator",
          "type": "address"
        },
        {
          "indexed": true,
          "internalType": "address",
          "name": "tokenOwner",
          "type": "address"
        },
        {
          "indexed": true,
          "internalType": "bytes32",
          "name": "tokenId",
          "type": "bytes32"
        }
      ],
      "name": "RevokedOperator",
      "type": "event"
    },
    {
      "anonymous": false,
      "inputs": [
        {
          "indexed": false,
          "internalType": "address",
          "name": "operator",
          "type": "address"
        },
        {
          "indexed": true,
          "internalType": "address",
          "name": "from",
          "type": "address"
        },
        {
          "indexed": true,
          "internalType": "address",
          "name": "to",
          "type": "address"
        },
        {
          "indexed": true,
          "internalType": "bytes32",
          "name": "tokenId",
          "type": "bytes32"
        },
        {
          "indexed": false,
          "internalType": "bool",
          "name": "force",
          "type": "bool"
        },
        {
          "indexed": false,
          "internalType": "bytes",
          "name": "data",
          "type": "bytes"
        }
      ],
      "name": "Transfer",
      "type": "event"
    },
    {
      "inputs": [
        {
          "internalType": "address",
          "name": "operator",
          "type": "address"
        },
        {
          "internalType": "bytes32",
          "name": "tokenId",
          "type": "bytes32"
        }
      ],
      "name": "authorizeOperator",
      "outputs": [],
      "stateMutability": "nonpayable",
      "type": "function"
    },
    {
      "inputs": [
        {
          "internalType": "address",
          "name": "tokenOwner",
          "type": "address"
        }
      ],
      "name": "balanceOf",
      "outputs": [
        {
          "internalType": "uint256",
          "name": "",
          "type": "uint256"
        }
      ],
      "stateMutability": "view",
      "type": "function"
    },
    {
      "inputs": [
        {
          "internalType": "bytes32",
          "name": "tokenId",
          "type": "bytes32"
        }
      ],
      "name": "burn",
      "outputs": [],
      "stateMutability": "nonpayable",
      "type": "function"
    },
    {
      "inputs": [
        {
          "internalType": "bytes32[]",
          "name": "dataKeys",
          "type": "bytes32[]"
        }
      ],
      "name": "getData",
      "outputs": [
        {
          "internalType": "bytes[]",
          "name": "dataValues",
          "type": "bytes[]"
        }
      ],
      "stateMutability": "view",
      "type": "function"
    },
    {
      "inputs": [
        {
          "internalType": "bytes32",
          "name": "dataKey",
          "type": "bytes32"
        }
      ],
      "name": "getData",
      "outputs": [
        {
          "internalType": "bytes",
          "name": "dataValue",
          "type": "bytes"
        }
      ],
      "stateMutability": "view",
      "type": "function"
    },
    {
      "inputs": [
        {
          "internalType": "bytes32",
          "name": "tokenId",
          "type": "bytes32"
        }
      ],
      "name": "getOperatorsOf",
      "outputs": [
        {
          "internalType": "address[]",
          "name": "",
          "type": "address[]"
        }
      ],
      "stateMutability": "view",
      "type": "function"
    },
    {
      "inputs": [
        {
          "internalType": "string",
          "name": "name",
          "type": "string"
        },
        {
          "internalType": "string",
          "name": "symbol",
          "type": "string"
        },
        {
          "internalType": "address",
          "name": "newOwner",
          "type": "address"
        },
        {
          "internalType": "uint256",
          "name": "tokenSupplyCap",
          "type": "uint256"
        }
      ],
      "name": "initialize",
      "outputs": [],
      "stateMutability": "nonpayable",
      "type": "function"
    },
    {
      "inputs": [
        {
          "internalType": "address",
          "name": "operator",
          "type": "address"
        },
        {
          "internalType": "bytes32",
          "name": "tokenId",
          "type": "bytes32"
        }
      ],
      "name": "isOperatorFor",
      "outputs": [
        {
          "internalType": "bool",
          "name": "",
          "type": "bool"
        }
      ],
      "stateMutability": "view",
      "type": "function"
    },
    {
      "inputs": [
        {
          "internalType": "address",
          "name": "to",
          "type": "address"
        },
        {
          "internalType": "bytes32",
          "name": "tokenId",
          "type": "bytes32"
        }
      ],
      "name": "mint",
      "outputs": [],
      "stateMutability": "nonpayable",
      "type": "function"
    },
    {
      "inputs": [],
      "name": "owner",
      "outputs": [
        {
          "internalType": "address",
          "name": "",
          "type": "address"
        }
      ],
      "stateMutability": "view",
      "type": "function"
    },
    {
      "inputs": [],
      "name": "renounceOwnership",
      "outputs": [],
      "stateMutability": "nonpayable",
      "type": "function"
    },
    {
      "inputs": [
        {
          "internalType": "address",
          "name": "operator",
          "type": "address"
        },
        {
          "internalType": "bytes32",
          "name": "tokenId",
          "type": "bytes32"
        }
      ],
      "name": "revokeOperator",
      "outputs": [],
      "stateMutability": "nonpayable",
      "type": "function"
    },
    {
      "inputs": [
        {
          "internalType": "bytes32[]",
          "name": "dataKeys",
          "type": "bytes32[]"
        },
        {
          "internalType": "bytes[]",
          "name": "dataValues",
          "type": "bytes[]"
        }
      ],
      "name": "setData",
      "outputs": [],
      "stateMutability": "nonpayable",
      "type": "function"
    },
    {
      "inputs": [
        {
          "internalType": "bytes32",
          "name": "dataKey",
          "type": "bytes32"
        },
        {
          "internalType": "bytes",
          "name": "dataValue",
          "type": "bytes"
        }
      ],
      "name": "setData",
      "outputs": [],
      "stateMutability": "nonpayable",
      "type": "function"
    },
    {
      "inputs": [
        {
          "internalType": "bytes4",
          "name": "interfaceId",
          "type": "bytes4"
        }
      ],
      "name": "supportsInterface",
      "outputs": [
        {
          "internalType": "bool",
          "name": "",
          "type": "bool"
        }
      ],
      "stateMutability": "view",
      "type": "function"
    },
    {
      "inputs": [
        {
          "internalType": "address",
          "name": "tokenOwner",
          "type": "address"
        }
      ],
      "name": "tokenIdsOf",
      "outputs": [
        {
          "internalType": "bytes32[]",
          "name": "",
          "type": "bytes32[]"
        }
      ],
      "stateMutability": "view",
      "type": "function"
    },
    {
      "inputs": [
        {
          "internalType": "bytes32",
          "name": "tokenId",
          "type": "bytes32"
        }
      ],
      "name": "tokenOwnerOf",
      "outputs": [
        {
          "internalType": "address",
          "name": "",
          "type": "address"
        }
      ],
      "stateMutability": "view",
      "type": "function"
    },
    {
      "inputs": [],
      "name": "tokenSupplyCap",
      "outputs": [
        {
          "internalType": "uint256",
          "name": "",
          "type": "uint256"
        }
      ],
      "stateMutability": "view",
      "type": "function"
    },
    {
      "inputs": [],
      "name": "totalSupply",
      "outputs": [
        {
          "internalType": "uint256",
          "name": "",
          "type": "uint256"
        }
      ],
      "stateMutability": "view",
      "type": "function"
    },
    {
      "inputs": [
        {
          "internalType": "address",
          "name": "from",
          "type": "address"
        },
        {
          "internalType": "address",
          "name": "to",
          "type": "address"
        },
        {
          "internalType": "bytes32",
          "name": "tokenId",
          "type": "bytes32"
        },
        {
          "internalType": "bool",
          "name": "force",
          "type": "bool"
        },
        {
          "internalType": "bytes",
          "name": "data",
          "type": "bytes"
        }
      ],
      "name": "transfer",
      "outputs": [],
      "stateMutability": "nonpayable",
      "type": "function"
    },
    {
      "inputs": [
        {
          "internalType": "address[]",
          "name": "from",
          "type": "address[]"
        },
        {
          "internalType": "address[]",
          "name": "to",
          "type": "address[]"
        },
        {
          "internalType": "bytes32[]",
          "name": "tokenId",
          "type": "bytes32[]"
        },
        {
          "internalType": "bool[]",
          "name": "force",
          "type": "bool[]"
        },
        {
          "internalType": "bytes[]",
          "name": "data",
          "type": "bytes[]"
        }
      ],
      "name": "transferBatch",
      "outputs": [],
      "stateMutability": "nonpayable",
      "type": "function"
    },
    {
      "inputs": [
        {
          "internalType": "address",
          "name": "newOwner",
          "type": "address"
        }
      ],
      "name": "transferOwnership",
      "outputs": [],
      "stateMutability": "nonpayable",
      "type": "function"
    }
  ],
  "bytecode": {
    "object": "0x608060405234801561001057600080fd5b5061243d806100206000396000f3fe608060405234801561001057600080fd5b50600436106101425760003560e01c806352058d8a116100b85780637f23690c1161007c5780637f23690c146102b65780638da5cb5b146102c9578063a3b261f2146102e0578063cf5182ba14610300578063f2fde38b14610313578063f542033f1461032657600080fd5b806352058d8a1461026057806354f6127f1461026857806370a0823114610288578063715018a61461029b5780637e87632c146102a357600080fd5b8063217b22701161010a578063217b2270146101bc5780632a3654a4146101e75780632cfd3005146101fa57806349a6078d1461020d5780634e3e6e9c1461022d578063511b69521461024d57600080fd5b806301ffc9a71461014757806308a1eee11461016f5780630b0c6d821461018457806314a6e2931461019757806318160ddd146101aa575b600080fd5b61015a6101553660046119fc565b610339565b60405190151581526020015b60405180910390f35b61018261017d366004611a26565b610364565b005b610182610192366004611a5b565b610396565b6101826101a5366004611c50565b610443565b6002545b604051908152602001610166565b6101cf6101ca366004611a26565b6104cf565b6040516001600160a01b039091168152602001610166565b61015a6101f5366004611a5b565b610508565b610182610208366004611a5b565b610524565b61022061021b366004611a26565b610562565b6040516101669190611cb3565b61024061023b366004611d00565b610584565b6040516101669190611d84565b61018261025b366004611df6565b610637565b6007546101ae565b61027b610276366004611a26565b610686565b6040516101669190611e6e565b6101ae610296366004611e81565b610691565b6101826106b2565b6101826102b1366004611f60565b6106c6565b6101826102c4366004612024565b6107b5565b6000546201000090046001600160a01b03166101cf565b6102f36102ee366004611e81565b6107c7565b6040516101669190612060565b61018261030e366004611a5b565b6107eb565b610182610321366004611e81565b610914565b610182610334366004612098565b61098a565b60006001600160e01b0319821663622e7a0160e01b148061035e575061035e82610aab565b92915050565b610393816040518060400160405280600d81526020016c3332b2b6103a343290313ab93760991b815250610ae0565b50565b60006103a1826104cf565b9050336001600160a01b03821681146103ec57604051632d938f5160e11b81526001600160a01b03808416600483015260248201859052821660448201526064015b60405180910390fd5b6001600160a01b03841661041357604051639577b8b360e01b815260040160405180910390fd5b836001600160a01b0316826001600160a01b0316036104325750505050565b61043d848385610ba6565b50505050565b61044b610c37565b805182511461047a57815181516040516321d1e13360e11b8152600481019290925260248201526044016103e3565b60005b82518110156104ca576104c283828151811061049b5761049b612113565b60200260200101518383815181106104b5576104b5612113565b6020026020010151610c98565b60010161047d565b505050565b6000818152600360205260408120546001600160a01b03168061035e57604051635747cd1b60e11b8152600481018490526024016103e3565b600061051382610d8c565b61051d8383610dc4565b9392505050565b61055e82826001604051806040016040528060158152602001743a37b5b2b710383934b73a32b91033b7903139393960591b815250610e0d565b5050565b606061056d82610d8c565b600082815260056020526040902061035e90610e49565b606081516001600160401b0381111561059f5761059f611a85565b6040519080825280602002602001820160405280156105d257816020015b60608152602001906001900390816105bd5790505b50905060005b8251811015610631576106038382815181106105f6576105f6612113565b6020026020010151610e56565b82828151811061061557610615612113565b602002602001018190525061062a8160010190565b90506105d8565b50919050565b336106428185610dc4565b61067157604051631294d2a960e01b8152600481018590526001600160a01b03821660248201526044016103e3565b61067e8686868686610ef8565b505050505050565b606061035e82610e56565b6001600160a01b038116600090815260046020526040812061035e90611082565b6106ba610c37565b6106c4600061108c565b565b84518451811415806106d9575083518114155b806106e5575082518114155b806106f1575081518114155b1561070f576040516393a8311960e01b815260040160405180910390fd5b60005b818110156107ac576107a487828151811061072f5761072f612113565b602002602001015187838151811061074957610749612113565b602002602001015187848151811061076357610763612113565b602002602001015187858151811061077d5761077d612113565b602002602001015187868151811061079757610797612113565b6020026020010151610637565b600101610712565b50505050505050565b6107bd610c37565b61055e8282610c98565b6001600160a01b038116600090815260046020526040902060609061035e90611102565b60006107f6826104cf565b9050336001600160a01b038216811461083c57604051632d938f5160e11b81526001600160a01b03808416600483015260248201859052821660448201526064016103e3565b6001600160a01b03841661086357604051639577b8b360e01b815260040160405180910390fd5b836001600160a01b0316826001600160a01b0316036108825750505050565b600083815260056020526040812061089a908661110d565b9050806108cc576040516314ec4d6d60e31b81526001600160a01b0386166004820152602481018590526044016103e3565b83836001600160a01b0316866001600160a01b03167f34b797fc5a526f7bf1d2b5de25f6564fd85ae364e3ee939aee7c1ac27871a98860405160405180910390a45050505050565b61091c610c37565b6001600160a01b0381166109815760405162461bcd60e51b815260206004820152602660248201527f4f776e61626c653a206e6577206f776e657220697320746865207a65726f206160448201526564647265737360d01b60648201526084016103e3565b6103938161108c565b600054610100900460ff16158080156109aa5750600054600160ff909116105b806109c45750303b1580156109c4575060005460ff166001145b610a275760405162461bcd60e51b815260206004820152602e60248201527f496e697469616c697a61626c653a20636f6e747261637420697320616c72656160448201526d191e481a5b9a5d1a585b1a5e995960921b60648201526084016103e3565b6000805460ff191660011790558015610a4a576000805461ff0019166101001790555b610a55858585611122565b610a5e82611154565b8015610aa4576000805461ff0019169055604051600181527f7f26b83ff96e1f2b6a682f133852f6798a09c465da95921460cefb38474024989060200160405180910390a15b5050505050565b60006001600160e01b03198216631c537ddf60e21b148061035e57506301ffc9a760e01b6001600160e01b031983161461035e565b6000610aeb836104cf565b905033600160026000828254610b01919061213f565b90915550610b11905082856111a1565b6001600160a01b0382166000908152600460205260409020610b3390856111e8565b5060008481526003602052604080822080546001600160a01b0319169055518591906001600160a01b038516907fb333c813a7426a7a11e2b190cad52c44119421594b47f6f32ace6d8c7207b2bf90610b9190869085908a90612152565b60405180910390a461043d82600086866111f4565b6000818152600560205260408120610bbe90856112c8565b905080610bf0576040516312a8c6a360e21b81526001600160a01b0385166004820152602481018390526044016103e3565b81836001600160a01b0316856001600160a01b03167f17d5389f6ab6adb2647dfa0aa365c323d37adacc30b33a65310b6158ce1373d560405160405180910390a450505050565b6000546001600160a01b03620100009091041633146106c45760405162461bcd60e51b815260206004820181905260248201527f4f776e61626c653a2063616c6c6572206973206e6f7420746865206f776e657260448201526064016103e3565b7f2145e1d6d074577dc71ef54c3807742b41b053a9352ae6b491331509acb9750f8201610cd8576040516385c169bd60e01b815260040160405180910390fd5b7fd0f59754f88971fe6bc5a6618cc9d5f1e859c58d16b22d1c7b2d3e2b246cd8aa8201610d1857604051630eceab6760e31b815260040160405180910390fd5b6000828152600160205260409020610d308282612201565b50817fece574603820d07bc9b91f2a932baadf4628aabcb8afba49776529c14a6104b261010083511115610d7157610d6c8360006101006112dd565b610d73565b825b604051610d809190611e6e565b60405180910390a25050565b6000818152600360205260409020546001600160a01b031661039357604051635747cd1b60e11b8152600481018290526024016103e3565b600080610dd0836104cf565b9050806001600160a01b0316846001600160a01b03161480610e0557506000838152600560205260409020610e0590856113ea565b949350505050565b600754600254610e1e9060016122c0565b1115610e3d5760405163e8ba229160e01b815260040160405180910390fd5b61043d8484848461140c565b6060600061051d8361151f565b6000818152600160205260409020805460609190610e7390612187565b80601f0160208091040260200160405190810160405280929190818152602001828054610e9f90612187565b8015610eec5780601f10610ec157610100808354040283529160200191610eec565b820191906000526020600020905b815481529060010190602001808311610ecf57829003601f168201915b50505050509050919050565b836001600160a01b0316856001600160a01b031603610f2a57604051635d67d6c160e01b815260040160405180910390fd5b6000610f35846104cf565b9050856001600160a01b0316816001600160a01b031614610f8357604051632d938f5160e11b81526001600160a01b03808316600483015260248201869052871660448201526064016103e3565b6001600160a01b038516610faa576040516324ecef4d60e01b815260040160405180910390fd5b33610fb587866111a1565b6001600160a01b0387166000908152600460205260409020610fd790866111e8565b506001600160a01b0386166000908152600460205260409020610ffa908661157a565b506000858152600360205260409081902080546001600160a01b0319166001600160a01b0389811691821790925591518792918a16907fb333c813a7426a7a11e2b190cad52c44119421594b47f6f32ace6d8c7207b2bf906110619086908a908a90612152565b60405180910390a4611075878787866111f4565b6107ac8787878787611586565b600061035e825490565b6000546001600160a01b0382811662010000909204161461039357600080546001600160a01b038381166201000081810262010000600160b01b0319851617855560405193049190911692909183917f8be0079c531659141344cd1fd0a4f28419497f9722a3daafe3b4186f6b6457e091a35050565b606061035e8261151f565b600061051d836001600160a01b0384166116be565b600054610100900460ff166111495760405162461bcd60e51b81526004016103e3906122d3565b6104ca83838361170d565b600054610100900460ff1661117b5760405162461bcd60e51b81526004016103e3906122d3565b8060000361119c5760405163038d9fc360e41b815260040160405180910390fd5b600755565b6000818152600560205260408120906111b982611082565b905060005b81811015610aa45760006111d284826117da565b90506111df818787610ba6565b506001016111be565b600061051d83836117e6565b61120584631aed5a8560e21b6118d9565b1561043d57600084848484604051602001611223949392919061231e565b60408051601f1981840301815290829052631aed5a8560e21b825291506001600160a01b03861690636bb56a1490611281907fb23eae7e6d1564b295b4c3e3be402d9a2f0776c57bdf365903496f6fa481ab0090859060040161236b565b6000604051808303816000875af11580156112a0573d6000803e3d6000fd5b505050506040513d6000823e601f3d908101601f1916820160405261067e9190810190612384565b600061051d836001600160a01b0384166117e6565b6060816112eb81601f6122c0565b101561132a5760405162461bcd60e51b815260206004820152600e60248201526d736c6963655f6f766572666c6f7760901b60448201526064016103e3565b61133482846122c0565b845110156113785760405162461bcd60e51b8152602060048201526011602482015270736c6963655f6f75744f66426f756e647360781b60448201526064016103e3565b60608215801561139757604051915060008252602082016040526113e1565b6040519150601f8416801560200281840101858101878315602002848b0101015b818310156113d05780518352602092830192016113b8565b5050858452601f01601f1916604052505b50949350505050565b6001600160a01b0381166000908152600183016020526040812054151561051d565b6001600160a01b038416611433576040516324ecef4d60e01b815260040160405180910390fd5b6000838152600360205260409020546001600160a01b03161561146c576040516334c7b51160e01b8152600481018490526024016103e3565b3360016002600082825461148091906122c0565b90915550506001600160a01b03851660009081526004602052604090206114a7908561157a565b5060008481526003602052604080822080546001600160a01b0319166001600160a01b03891690811790915590518692907fb333c813a7426a7a11e2b190cad52c44119421594b47f6f32ace6d8c7207b2bf9061150990869089908990612152565b60405180910390a4610aa4600086868686611586565b606081600001805480602002602001604051908101604052809291908181526020018280548015610eec57602002820191906000526020600020905b81548152602001906001019080831161155b5750505050509050919050565b600061051d83836116be565b61159784631aed5a8560e21b6118d9565b15611661576000858585846040516020016115b5949392919061231e565b60408051601f1981840301815290829052631aed5a8560e21b825291506001600160a01b03861690636bb56a1490611613907f0b084a55ebf70fd3c06fd755269dac2212c4d3f0f4d09079780bfa50c1b2984d90859060040161236b565b6000604051808303816000875af1158015611632573d6000803e3d6000fd5b505050506040513d6000823e601f3d908101601f1916820160405261165a9190810190612384565b5050610aa4565b81610aa4576001600160a01b0384163b1561169a57604051634349776d60e01b81526001600160a01b03851660048201526024016103e3565b604051630317313760e01b81526001600160a01b03851660048201526024016103e3565b60008181526001830160205260408120546117055750815460018181018455600084815260208082209093018490558454848252828601909352604090209190915561035e565b50600061035e565b600054610100900460ff166117345760405162461bcd60e51b81526004016103e3906122d3565b61173d81611962565b6117867feafec4d89fa9619884b60000a4d96624a38f7ac2d8d9a604ecf07c12c77e480c60001b604051806040016040528060048152602001632936598960e21b815250611989565b6117b07fdeba1e292f8ba88238e10ab3c7f88bd4be4fac56cad5194b6ecceaf653468af184611989565b6104ca7f2f0a68ab07768e01943a599e73362a0e17a63a72e94dd2e384d2c1d4db93275683611989565b600061051d83836119d2565b600081815260018301602052604081205480156118cf57600061180a60018361213f565b855490915060009061181e9060019061213f565b905081811461188357600086600001828154811061183e5761183e612113565b906000526020600020015490508087600001848154811061186157611861612113565b6000918252602080832090910192909255918252600188019052604090208390555b8554869080611894576118946123f1565b60019003818190600052602060002001600090559055856001016000868152602001908152602001600020600090556001935050505061035e565b600091505061035e565b604080516001600160e01b03198316602480830191909152825180830390910181526044909101909152602080820180516001600160e01b03166301ffc9a760e01b178152825160009392849283928392918391908a617530fa92503d9150600051905082801561194b575060208210155b80156119575750600081115b979650505050505050565b600054610100900460ff1661091c5760405162461bcd60e51b81526004016103e3906122d3565b60008281526001602052604090206119a18282612201565b50817fece574603820d07bc9b91f2a932baadf4628aabcb8afba49776529c14a6104b282604051610d809190611e6e565b60008260000182815481106119e9576119e9612113565b9060005260206000200154905092915050565b600060208284031215611a0e57600080fd5b81356001600160e01b03198116811461051d57600080fd5b600060208284031215611a3857600080fd5b5035919050565b80356001600160a01b0381168114611a5657600080fd5b919050565b60008060408385031215611a6e57600080fd5b611a7783611a3f565b946020939093013593505050565b634e487b7160e01b600052604160045260246000fd5b604051601f8201601f191681016001600160401b0381118282101715611ac357611ac3611a85565b604052919050565b60006001600160401b03821115611ae457611ae4611a85565b5060051b60200190565b600082601f830112611aff57600080fd5b81356020611b14611b0f83611acb565b611a9b565b82815260059290921b84018101918181019086841115611b3357600080fd5b8286015b84811015611b4e5780358352918301918301611b37565b509695505050505050565b60006001600160401b03821115611b7257611b72611a85565b50601f01601f191660200190565b600082601f830112611b9157600080fd5b8135611b9f611b0f82611b59565b818152846020838601011115611bb457600080fd5b816020850160208301376000918101602001919091529392505050565b600082601f830112611be257600080fd5b81356020611bf2611b0f83611acb565b82815260059290921b84018101918181019086841115611c1157600080fd5b8286015b84811015611b4e5780356001600160401b03811115611c345760008081fd5b611c428986838b0101611b80565b845250918301918301611c15565b60008060408385031215611c6357600080fd5b82356001600160401b0380821115611c7a57600080fd5b611c8686838701611aee565b93506020850135915080821115611c9c57600080fd5b50611ca985828601611bd1565b9150509250929050565b6020808252825182820181905260009190848201906040850190845b81811015611cf45783516001600160a01b031683529284019291840191600101611ccf565b50909695505050505050565b600060208284031215611d1257600080fd5b81356001600160401b03811115611d2857600080fd5b610e0584828501611aee565b60005b83811015611d4f578181015183820152602001611d37565b50506000910152565b60008151808452611d70816020860160208601611d34565b601f01601f19169290920160200192915050565b6000602080830181845280855180835260408601915060408160051b870101925083870160005b82811015611dd957603f19888603018452611dc7858351611d58565b94509285019290850190600101611dab565b5092979650505050505050565b80358015158114611a5657600080fd5b600080600080600060a08688031215611e0e57600080fd5b611e1786611a3f565b9450611e2560208701611a3f565b935060408601359250611e3a60608701611de6565b915060808601356001600160401b03811115611e5557600080fd5b611e6188828901611b80565b9150509295509295909350565b60208152600061051d6020830184611d58565b600060208284031215611e9357600080fd5b61051d82611a3f565b600082601f830112611ead57600080fd5b81356020611ebd611b0f83611acb565b82815260059290921b84018101918181019086841115611edc57600080fd5b8286015b84811015611b4e57611ef181611a3f565b8352918301918301611ee0565b600082601f830112611f0f57600080fd5b81356020611f1f611b0f83611acb565b82815260059290921b84018101918181019086841115611f3e57600080fd5b8286015b84811015611b4e57611f5381611de6565b8352918301918301611f42565b600080600080600060a08688031215611f7857600080fd5b85356001600160401b0380821115611f8f57600080fd5b611f9b89838a01611e9c565b96506020880135915080821115611fb157600080fd5b611fbd89838a01611e9c565b95506040880135915080821115611fd357600080fd5b611fdf89838a01611aee565b94506060880135915080821115611ff557600080fd5b61200189838a01611efe565b9350608088013591508082111561201757600080fd5b50611e6188828901611bd1565b6000806040838503121561203757600080fd5b8235915060208301356001600160401b0381111561205457600080fd5b611ca985828601611b80565b6020808252825182820181905260009190848201906040850190845b81811015611cf45783518352928401929184019160010161207c565b600080600080608085870312156120ae57600080fd5b84356001600160401b03808211156120c557600080fd5b6120d188838901611b80565b955060208701359150808211156120e757600080fd5b506120f487828801611b80565b93505061210360408601611a3f565b9396929550929360600135925050565b634e487b7160e01b600052603260045260246000fd5b634e487b7160e01b600052601160045260246000fd5b8181038181111561035e5761035e612129565b6001600160a01b0384168152821515602082015260606040820181905260009061217e90830184611d58565b95945050505050565b600181811c9082168061219b57607f821691505b60208210810361063157634e487b7160e01b600052602260045260246000fd5b601f8211156104ca57600081815260208120601f850160051c810160208610156121e25750805b601f850160051c820191505b8181101561067e578281556001016121ee565b81516001600160401b0381111561221a5761221a611a85565b61222e816122288454612187565b846121bb565b602080601f831160018114612263576000841561224b5750858301515b600019600386901b1c1916600185901b17855561067e565b600085815260208120601f198616915b8281101561229257888601518255948401946001909101908401612273565b50858210156122b05787850151600019600388901b60f8161c191681555b5050505050600190811b01905550565b8082018082111561035e5761035e612129565b6020808252602b908201527f496e697469616c697a61626c653a20636f6e7472616374206973206e6f74206960408201526a6e697469616c697a696e6760a81b606082015260800190565b60006bffffffffffffffffffffffff19808760601b168352808660601b16601484015250836028830152825161235b816048850160208701611d34565b9190910160480195945050505050565b828152604060208201526000610e056040830184611d58565b60006020828403121561239657600080fd5b81516001600160401b038111156123ac57600080fd5b8201601f810184136123bd57600080fd5b80516123cb611b0f82611b59565b8181528560208385010111156123e057600080fd5b61217e826020830160208601611d34565b634e487b7160e01b600052603160045260246000fdfea2646970667358221220ad2d19b7bd06d9cd1af490fdd6331e46f0feee073d8c032215766c99982bb61f64736f6c63430008110033",
    "linkReferences": {}
  },
  "methodIdentifiers": {
    "authorizeOperator(address,bytes32)": "cf5182ba",
    "balanceOf(address)": "70a08231",
    "burn(bytes32)": "08a1eee1",
    "getData(bytes32)": "54f6127f",
    "getData(bytes32[])": "4e3e6e9c",
    "getOperatorsOf(bytes32)": "49a6078d",
    "initialize(string,string,address,uint256)": "f542033f",
    "isOperatorFor(address,bytes32)": "2a3654a4",
    "mint(address,bytes32)": "2cfd3005",
    "owner()": "8da5cb5b",
    "renounceOwnership()": "715018a6",
    "revokeOperator(address,bytes32)": "0b0c6d82",
    "setData(bytes32,bytes)": "7f23690c",
    "setData(bytes32[],bytes[])": "14a6e293",
    "supportsInterface(bytes4)": "01ffc9a7",
    "tokenIdsOf(address)": "a3b261f2",
    "tokenOwnerOf(bytes32)": "217b2270",
    "tokenSupplyCap()": "52058d8a",
    "totalSupply()": "18160ddd",
    "transfer(address,address,bytes32,bool,bytes)": "511b6952",
    "transferBatch(address[],address[],bytes32[],bool[],bytes[])": "7e87632c",
    "transferOwnership(address)": "f2fde38b"
  },
  "id": 134
}