{
  "abi": [
    {
      "inputs": [
        {
          "internalType": "uint256",
          "name": "dataKeysLength",
          "type": "uint256"
        },
        {
          "internalType": "uint256",
          "name": "dataValuesLength",
          "type": "uint256"
        }
      ],
      "name": "ERC725Y_DataKeysValuesLengthMismatch",
      "type": "error"
    },
    {
      "inputs": [],
      "name": "LSP4TokenNameNotEditable",
      "type": "error"
    },
    {
      "inputs": [],
      "name": "LSP4TokenSymbolNotEditable",
      "type": "error"
    },
    {
      "inputs": [],
      "name": "LSP8CannotSendToAddressZero",
      "type": "error"
    },
    {
      "inputs": [],
      "name": "LSP8CannotSendToSelf",
      "type": "error"
    },
    {
      "inputs": [],
      "name": "LSP8CannotUseAddressZeroAsOperator",
      "type": "error"
    },
    {
      "inputs": [],
      "name": "LSP8InvalidTransferBatch",
      "type": "error"
    },
    {
      "inputs": [
        {
          "internalType": "bytes32",
          "name": "tokenId",
          "type": "bytes32"
        }
      ],
      "name": "LSP8NonExistentTokenId",
      "type": "error"
    },
    {
      "inputs": [
        {
          "internalType": "address",
          "name": "operator",
          "type": "address"
        },
        {
          "internalType": "bytes32",
          "name": "tokenId",
          "type": "bytes32"
        }
      ],
      "name": "LSP8NonExistingOperator",
      "type": "error"
    },
    {
      "inputs": [
        {
          "internalType": "bytes32",
          "name": "tokenId",
          "type": "bytes32"
        },
        {
          "internalType": "address",
          "name": "caller",
          "type": "address"
        }
      ],
      "name": "LSP8NotTokenOperator",
      "type": "error"
    },
    {
      "inputs": [
        {
          "internalType": "address",
          "name": "tokenOwner",
          "type": "address"
        },
        {
          "internalType": "bytes32",
          "name": "tokenId",
          "type": "bytes32"
        },
        {
          "internalType": "address",
          "name": "caller",
          "type": "address"
        }
      ],
      "name": "LSP8NotTokenOwner",
      "type": "error"
    },
    {
      "inputs": [
        {
          "internalType": "address",
          "name": "tokenReceiver",
          "type": "address"
        }
      ],
      "name": "LSP8NotifyTokenReceiverContractMissingLSP1Interface",
      "type": "error"
    },
    {
      "inputs": [
        {
          "internalType": "address",
          "name": "tokenReceiver",
          "type": "address"
        }
      ],
      "name": "LSP8NotifyTokenReceiverIsEOA",
      "type": "error"
    },
    {
      "inputs": [
        {
          "internalType": "address",
          "name": "operator",
          "type": "address"
        },
        {
          "internalType": "bytes32",
          "name": "tokenId",
          "type": "bytes32"
        }
      ],
      "name": "LSP8OperatorAlreadyAuthorized",
      "type": "error"
    },
    {
      "inputs": [
        {
          "internalType": "bytes32",
          "name": "tokenId",
          "type": "bytes32"
        }
      ],
      "name": "LSP8TokenIdAlreadyMinted",
      "type": "error"
    },
    {
      "anonymous": false,
      "inputs": [
        {
          "indexed": true,
          "internalType": "address",
          "name": "owner",
          "type": "address"
        },
        {
          "indexed": true,
          "internalType": "address",
          "name": "approved",
          "type": "address"
        },
        {
          "indexed": true,
          "internalType": "uint256",
          "name": "tokenId",
          "type": "uint256"
        }
      ],
      "name": "Approval",
      "type": "event"
    },
    {
      "anonymous": false,
      "inputs": [
        {
          "indexed": true,
          "internalType": "address",
          "name": "_owner",
          "type": "address"
        },
        {
          "indexed": true,
          "internalType": "address",
          "name": "_operator",
          "type": "address"
        },
        {
          "indexed": false,
          "internalType": "bool",
          "name": "_approved",
          "type": "bool"
        }
      ],
      "name": "ApprovalForAll",
      "type": "event"
    },
    {
      "anonymous": false,
      "inputs": [
        {
          "indexed": true,
          "internalType": "address",
          "name": "operator",
          "type": "address"
        },
        {
          "indexed": true,
          "internalType": "address",
          "name": "tokenOwner",
          "type": "address"
        },
        {
          "indexed": true,
          "internalType": "bytes32",
          "name": "tokenId",
          "type": "bytes32"
        }
      ],
      "name": "AuthorizedOperator",
      "type": "event"
    },
    {
      "anonymous": false,
      "inputs": [
        {
          "indexed": true,
          "internalType": "bytes32",
          "name": "dataKey",
          "type": "bytes32"
        },
        {
          "indexed": false,
          "internalType": "bytes",
          "name": "dataValue",
          "type": "bytes"
        }
      ],
      "name": "DataChanged",
      "type": "event"
    },
    {
      "anonymous": false,
      "inputs": [
        {
          "indexed": false,
          "internalType": "uint8",
          "name": "version",
          "type": "uint8"
        }
      ],
      "name": "Initialized",
      "type": "event"
    },
    {
      "anonymous": false,
      "inputs": [
        {
          "indexed": true,
          "internalType": "address",
          "name": "previousOwner",
          "type": "address"
        },
        {
          "indexed": true,
          "internalType": "address",
          "name": "newOwner",
          "type": "address"
        }
      ],
      "name": "OwnershipTransferred",
      "type": "event"
    },
    {
      "anonymous": false,
      "inputs": [
        {
          "indexed": true,
          "internalType": "address",
          "name": "operator",
          "type": "address"
        },
        {
          "indexed": true,
          "internalType": "address",
          "name": "tokenOwner",
          "type": "address"
        },
        {
          "indexed": true,
          "internalType": "bytes32",
          "name": "tokenId",
          "type": "bytes32"
        }
      ],
      "name": "RevokedOperator",
      "type": "event"
    },
    {
      "anonymous": false,
      "inputs": [
        {
          "indexed": true,
          "internalType": "address",
          "name": "from",
          "type": "address"
        },
        {
          "indexed": true,
          "internalType": "address",
          "name": "to",
          "type": "address"
        },
        {
          "indexed": true,
          "internalType": "uint256",
          "name": "tokenId",
          "type": "uint256"
        }
      ],
      "name": "Transfer",
      "type": "event"
    },
    {
      "anonymous": false,
      "inputs": [
        {
          "indexed": false,
          "internalType": "address",
          "name": "operator",
          "type": "address"
        },
        {
          "indexed": true,
          "internalType": "address",
          "name": "from",
          "type": "address"
        },
        {
          "indexed": true,
          "internalType": "address",
          "name": "to",
          "type": "address"
        },
        {
          "indexed": true,
          "internalType": "bytes32",
          "name": "tokenId",
          "type": "bytes32"
        },
        {
          "indexed": false,
          "internalType": "bool",
          "name": "force",
          "type": "bool"
        },
        {
          "indexed": false,
          "internalType": "bytes",
          "name": "data",
          "type": "bytes"
        }
      ],
      "name": "Transfer",
      "type": "event"
    },
    {
      "inputs": [
        {
          "internalType": "address",
          "name": "operator",
          "type": "address"
        },
        {
          "internalType": "uint256",
          "name": "tokenId",
          "type": "uint256"
        }
      ],
      "name": "approve",
      "outputs": [],
      "stateMutability": "nonpayable",
      "type": "function"
    },
    {
      "inputs": [
        {
          "internalType": "address",
          "name": "operator",
          "type": "address"
        },
        {
          "internalType": "bytes32",
          "name": "tokenId",
          "type": "bytes32"
        }
      ],
      "name": "authorizeOperator",
      "outputs": [],
      "stateMutability": "nonpayable",
      "type": "function"
    },
    {
      "inputs": [
        {
          "internalType": "address",
          "name": "tokenOwner",
          "type": "address"
        }
      ],
      "name": "balanceOf",
      "outputs": [
        {
          "internalType": "uint256",
          "name": "",
          "type": "uint256"
        }
      ],
      "stateMutability": "view",
      "type": "function"
    },
    {
      "inputs": [
        {
          "internalType": "uint256",
          "name": "tokenId",
          "type": "uint256"
        }
      ],
      "name": "getApproved",
      "outputs": [
        {
          "internalType": "address",
          "name": "",
          "type": "address"
        }
      ],
      "stateMutability": "view",
      "type": "function"
    },
    {
      "inputs": [
        {
          "internalType": "bytes32[]",
          "name": "dataKeys",
          "type": "bytes32[]"
        }
      ],
      "name": "getData",
      "outputs": [
        {
          "internalType": "bytes[]",
          "name": "dataValues",
          "type": "bytes[]"
        }
      ],
      "stateMutability": "view",
      "type": "function"
    },
    {
      "inputs": [
        {
          "internalType": "bytes32",
          "name": "dataKey",
          "type": "bytes32"
        }
      ],
      "name": "getData",
      "outputs": [
        {
          "internalType": "bytes",
          "name": "dataValue",
          "type": "bytes"
        }
      ],
      "stateMutability": "view",
      "type": "function"
    },
    {
      "inputs": [
        {
          "internalType": "bytes32",
          "name": "tokenId",
          "type": "bytes32"
        }
      ],
      "name": "getOperatorsOf",
      "outputs": [
        {
          "internalType": "address[]",
          "name": "",
          "type": "address[]"
        }
      ],
      "stateMutability": "view",
      "type": "function"
    },
    {
      "inputs": [
        {
          "internalType": "address",
          "name": "tokenOwner",
          "type": "address"
        },
        {
          "internalType": "address",
          "name": "operator",
          "type": "address"
        }
      ],
      "name": "isApprovedForAll",
      "outputs": [
        {
          "internalType": "bool",
          "name": "",
          "type": "bool"
        }
      ],
      "stateMutability": "view",
      "type": "function"
    },
    {
      "inputs": [
        {
          "internalType": "address",
          "name": "operator",
          "type": "address"
        },
        {
          "internalType": "bytes32",
          "name": "tokenId",
          "type": "bytes32"
        }
      ],
      "name": "isOperatorFor",
      "outputs": [
        {
          "internalType": "bool",
          "name": "",
          "type": "bool"
        }
      ],
      "stateMutability": "view",
      "type": "function"
    },
    {
      "inputs": [
        {
          "internalType": "address",
          "name": "to",
          "type": "address"
        },
        {
          "internalType": "bytes32",
          "name": "tokenId",
          "type": "bytes32"
        },
        {
          "internalType": "bool",
          "name": "force",
          "type": "bool"
        },
        {
          "internalType": "bytes",
          "name": "data",
          "type": "bytes"
        }
      ],
      "name": "mint",
      "outputs": [],
      "stateMutability": "nonpayable",
      "type": "function"
    },
    {
      "inputs": [],
      "name": "name",
      "outputs": [
        {
          "internalType": "string",
          "name": "",
          "type": "string"
        }
      ],
      "stateMutability": "view",
      "type": "function"
    },
    {
      "inputs": [],
      "name": "owner",
      "outputs": [
        {
          "internalType": "address",
          "name": "",
          "type": "address"
        }
      ],
      "stateMutability": "view",
      "type": "function"
    },
    {
      "inputs": [
        {
          "internalType": "uint256",
          "name": "tokenId",
          "type": "uint256"
        }
      ],
      "name": "ownerOf",
      "outputs": [
        {
          "internalType": "address",
          "name": "",
          "type": "address"
        }
      ],
      "stateMutability": "view",
      "type": "function"
    },
    {
      "inputs": [],
      "name": "renounceOwnership",
      "outputs": [],
      "stateMutability": "nonpayable",
      "type": "function"
    },
    {
      "inputs": [
        {
          "internalType": "address",
          "name": "operator",
          "type": "address"
        },
        {
          "internalType": "bytes32",
          "name": "tokenId",
          "type": "bytes32"
        }
      ],
      "name": "revokeOperator",
      "outputs": [],
      "stateMutability": "nonpayable",
      "type": "function"
    },
    {
      "inputs": [
        {
          "internalType": "address",
          "name": "from",
          "type": "address"
        },
        {
          "internalType": "address",
          "name": "to",
          "type": "address"
        },
        {
          "internalType": "uint256",
          "name": "tokenId",
          "type": "uint256"
        }
      ],
      "name": "safeTransferFrom",
      "outputs": [],
      "stateMutability": "nonpayable",
      "type": "function"
    },
    {
      "inputs": [
        {
          "internalType": "address",
          "name": "from",
          "type": "address"
        },
        {
          "internalType": "address",
          "name": "to",
          "type": "address"
        },
        {
          "internalType": "uint256",
          "name": "tokenId",
          "type": "uint256"
        },
        {
          "internalType": "bytes",
          "name": "data",
          "type": "bytes"
        }
      ],
      "name": "safeTransferFrom",
      "outputs": [],
      "stateMutability": "nonpayable",
      "type": "function"
    },
    {
      "inputs": [
        {
          "internalType": "address",
          "name": "operator",
          "type": "address"
        },
        {
          "internalType": "bool",
          "name": "approved",
          "type": "bool"
        }
      ],
      "name": "setApprovalForAll",
      "outputs": [],
      "stateMutability": "nonpayable",
      "type": "function"
    },
    {
      "inputs": [
        {
          "internalType": "bytes32[]",
          "name": "dataKeys",
          "type": "bytes32[]"
        },
        {
          "internalType": "bytes[]",
          "name": "dataValues",
          "type": "bytes[]"
        }
      ],
      "name": "setData",
      "outputs": [],
      "stateMutability": "nonpayable",
      "type": "function"
    },
    {
      "inputs": [
        {
          "internalType": "bytes32",
          "name": "dataKey",
          "type": "bytes32"
        },
        {
          "internalType": "bytes",
          "name": "dataValue",
          "type": "bytes"
        }
      ],
      "name": "setData",
      "outputs": [],
      "stateMutability": "nonpayable",
      "type": "function"
    },
    {
      "inputs": [
        {
          "internalType": "bytes4",
          "name": "interfaceId",
          "type": "bytes4"
        }
      ],
      "name": "supportsInterface",
      "outputs": [
        {
          "internalType": "bool",
          "name": "",
          "type": "bool"
        }
      ],
      "stateMutability": "view",
      "type": "function"
    },
    {
      "inputs": [],
      "name": "symbol",
      "outputs": [
        {
          "internalType": "string",
          "name": "",
          "type": "string"
        }
      ],
      "stateMutability": "view",
      "type": "function"
    },
    {
      "inputs": [
        {
          "internalType": "address",
          "name": "tokenOwner",
          "type": "address"
        }
      ],
      "name": "tokenIdsOf",
      "outputs": [
        {
          "internalType": "bytes32[]",
          "name": "",
          "type": "bytes32[]"
        }
      ],
      "stateMutability": "view",
      "type": "function"
    },
    {
      "inputs": [
        {
          "internalType": "bytes32",
          "name": "tokenId",
          "type": "bytes32"
        }
      ],
      "name": "tokenOwnerOf",
      "outputs": [
        {
          "internalType": "address",
          "name": "",
          "type": "address"
        }
      ],
      "stateMutability": "view",
      "type": "function"
    },
    {
      "inputs": [
        {
          "internalType": "uint256",
          "name": "",
          "type": "uint256"
        }
      ],
      "name": "tokenURI",
      "outputs": [
        {
          "internalType": "string",
          "name": "",
          "type": "string"
        }
      ],
      "stateMutability": "view",
      "type": "function"
    },
    {
      "inputs": [],
      "name": "totalSupply",
      "outputs": [
        {
          "internalType": "uint256",
          "name": "",
          "type": "uint256"
        }
      ],
      "stateMutability": "view",
      "type": "function"
    },
    {
      "inputs": [
        {
          "internalType": "address",
          "name": "from",
          "type": "address"
        },
        {
          "internalType": "address",
          "name": "to",
          "type": "address"
        },
        {
          "internalType": "bytes32",
          "name": "tokenId",
          "type": "bytes32"
        },
        {
          "internalType": "bool",
          "name": "force",
          "type": "bool"
        },
        {
          "internalType": "bytes",
          "name": "data",
          "type": "bytes"
        }
      ],
      "name": "transfer",
      "outputs": [],
      "stateMutability": "nonpayable",
      "type": "function"
    },
    {
      "inputs": [
        {
          "internalType": "address[]",
          "name": "from",
          "type": "address[]"
        },
        {
          "internalType": "address[]",
          "name": "to",
          "type": "address[]"
        },
        {
          "internalType": "bytes32[]",
          "name": "tokenId",
          "type": "bytes32[]"
        },
        {
          "internalType": "bool[]",
          "name": "force",
          "type": "bool[]"
        },
        {
          "internalType": "bytes[]",
          "name": "data",
          "type": "bytes[]"
        }
      ],
      "name": "transferBatch",
      "outputs": [],
      "stateMutability": "nonpayable",
      "type": "function"
    },
    {
      "inputs": [
        {
          "internalType": "address",
          "name": "from",
          "type": "address"
        },
        {
          "internalType": "address",
          "name": "to",
          "type": "address"
        },
        {
          "internalType": "uint256",
          "name": "tokenId",
          "type": "uint256"
        }
      ],
      "name": "transferFrom",
      "outputs": [],
      "stateMutability": "nonpayable",
      "type": "function"
    },
    {
      "inputs": [
        {
          "internalType": "address",
          "name": "newOwner",
          "type": "address"
        }
      ],
      "name": "transferOwnership",
      "outputs": [],
      "stateMutability": "nonpayable",
      "type": "function"
    }
  ],
  "bytecode": {
    "object": "0x608060405234801561001057600080fd5b506125d0806100206000396000f3fe608060405234801561001057600080fd5b50600436106101da5760003560e01c80636352211e11610104578063a22cb465116100a2578063c87b56dd11610071578063c87b56dd14610412578063cf5182ba14610425578063e985e9c514610438578063f2fde38b1461047457600080fd5b8063a22cb465146103b9578063a3b261f2146103cc578063af255b61146103ec578063b88d4fde146103ff57600080fd5b80637e87632c116100de5780637e87632c146103745780637f23690c146103875780638da5cb5b1461039a57806395d89b41146103b157600080fd5b80636352211e1461034657806370a0823114610359578063715018a61461036c57600080fd5b8063217b22701161017c57806349a6078d1161014b57806349a6078d146102e05780634e3e6e9c14610300578063511b69521461032057806354f6127f1461033357600080fd5b8063217b22701461029457806323b872dd146102a75780632a3654a4146102ba57806342842e0e146102cd57600080fd5b8063095ea7b3116101b8578063095ea7b3146102475780630b0c6d821461025c57806314a6e2931461026f57806318160ddd1461028257600080fd5b806301ffc9a7146101df57806306fdde0314610207578063081812fc1461021c575b600080fd5b6101f26101ed366004611b0f565b610487565b60405190151581526020015b60405180910390f35b61020f6104cd565b6040516101fe9190611b89565b61022f61022a366004611b9c565b6104fa565b6040516001600160a01b0390911681526020016101fe565b61025a610255366004611bd1565b610551565b005b61025a61026a366004611bd1565b6105a8565b61025a61027d366004611dc6565b610655565b6002545b6040519081526020016101fe565b61022f6102a2366004611b9c565b6106e1565b61025a6102b5366004611e29565b61071a565b6101f26102c8366004611bd1565b61073a565b61025a6102db366004611e29565b610756565b6102f36102ee366004611b9c565b610776565b6040516101fe9190611e65565b61031361030e366004611eb2565b610798565b6040516101fe9190611ee6565b61025a61032e366004611f58565b61084b565b61020f610341366004611b9c565b61089a565b61022f610354366004611b9c565b6108a5565b610286610367366004611fd0565b6108b0565b61025a6108d1565b61025a6103823660046120af565b6108e5565b61025a610395366004612173565b6109d4565b6000546201000090046001600160a01b031661022f565b61020f6109ea565b61025a6103c73660046121af565b610a17565b6103df6103da366004611fd0565b610a22565b6040516101fe91906121e2565b61025a6103fa36600461221a565b610a46565b61025a61040d366004612281565b610a5a565b61020f610420366004611b9c565b610a68565b61025a610433366004611bd1565b610ab6565b6101f26104463660046122d0565b6001600160a01b03918216600090815260076020908152604080832093909416825291909152205460ff1690565b61025a610482366004611fd0565b610ac0565b60006001600160e01b031982166380ac58cd60e01b14806104b857506001600160e01b03198216635b5e139f60e01b145b806104c757506104c782610b39565b92915050565b606060006104c77fdeba1e292f8ba88238e10ab3c7f88bd4be4fac56cad5194b6ecceaf653468af1610b5e565b60008161050681610c00565b60008181526005602052604081209061051e82610c38565b90508060000361053357506000949350505050565b610548610541600183612310565b8390610c42565b95945050505050565b61055b8282610ab6565b806001600160a01b03831661056f826106e1565b6001600160a01b03167f8c5be1e5ebec7d5bd14f71427d1e84f3dd0314c0f7b2291e5b200ac8c7c3b92560405160405180910390a45050565b60006105b3826106e1565b9050336001600160a01b03821681146105fe57604051632d938f5160e11b81526001600160a01b03808416600483015260248201859052821660448201526064015b60405180910390fd5b6001600160a01b03841661062557604051639577b8b360e01b815260040160405180910390fd5b836001600160a01b0316826001600160a01b0316036106445750505050565b61064f848385610c4e565b50505050565b61065d610cdf565b805182511461068c57815181516040516321d1e13360e11b8152600481019290925260248201526044016105f5565b60005b82518110156106dc576106d48382815181106106ad576106ad612323565b60200260200101518383815181106106c7576106c7612323565b6020026020010151610d40565b60010161068f565b505050565b6000818152600360205260408120546001600160a01b0316806104c757604051635747cd1b60e11b8152600481018490526024016105f5565b6106dc83838360001b600160405180602001604052806000815250610d4a565b600061074582610c00565b61074f8383610e06565b9392505050565b6106dc83838360001b600060405180602001604052806000815250610d4a565b606061078182610c00565b60008281526005602052604090206104c790610e4f565b606081516001600160401b038111156107b3576107b3611bfb565b6040519080825280602002602001820160405280156107e657816020015b60608152602001906001900390816107d15790505b50905060005b82518110156108455761081783828151811061080a5761080a612323565b6020026020010151610b5e565b82828151811061082957610829612323565b602002602001018190525061083e8160010190565b90506107ec565b50919050565b336108568185610e06565b61088557604051631294d2a960e01b8152600481018590526001600160a01b03821660248201526044016105f5565b6108928686868686610d4a565b505050505050565b60606104c782610b5e565b60006104c7826106e1565b6001600160a01b03811660009081526004602052604081206104c790610c38565b6108d9610cdf565b6108e36000610e5c565b565b84518451811415806108f8575083518114155b80610904575082518114155b80610910575081518114155b1561092e576040516393a8311960e01b815260040160405180910390fd5b60005b818110156109cb576109c387828151811061094e5761094e612323565b602002602001015187838151811061096857610968612323565b602002602001015187848151811061098257610982612323565b602002602001015187858151811061099c5761099c612323565b60200260200101518786815181106109b6576109b6612323565b602002602001015161084b565b600101610931565b50505050505050565b6109dc610cdf565b6109e68282610d40565b5050565b606060006104c77f2f0a68ab07768e01943a599e73362a0e17a63a72e94dd2e384d2c1d4db932756610b5e565b6109e6338383610ed2565b6001600160a01b03811660009081526004602052604090206060906104c790610fb0565b610a4e610cdf565b61064f84848484610fbb565b61064f848484600085610d4a565b60606000610a957f9afb95cacc9f95858ec44aa8c3b685511002e30ae54415823f406128b85b238e610b5e565b905060006024905060006105488383848651610ab19190612310565b611005565b61055b8282611112565b610ac8610cdf565b6001600160a01b038116610b2d5760405162461bcd60e51b815260206004820152602660248201527f4f776e61626c653a206e6577206f776e657220697320746865207a65726f206160448201526564647265737360d01b60648201526084016105f5565b610b3681610e5c565b50565b60006001600160e01b0319821663622e7a0160e01b14806104c757506104c78261123b565b6000818152600160205260409020805460609190610b7b90612339565b80601f0160208091040260200160405190810160405280929190818152602001828054610ba790612339565b8015610bf45780601f10610bc957610100808354040283529160200191610bf4565b820191906000526020600020905b815481529060010190602001808311610bd757829003601f168201915b50505050509050919050565b6000818152600360205260409020546001600160a01b0316610b3657604051635747cd1b60e11b8152600481018290526024016105f5565b60006104c7825490565b600061074f8383611270565b6000818152600560205260408120610c66908561129a565b905080610c98576040516312a8c6a360e21b81526001600160a01b0385166004820152602481018390526044016105f5565b81836001600160a01b0316856001600160a01b03167f17d5389f6ab6adb2647dfa0aa365c323d37adacc30b33a65310b6158ce1373d560405160405180910390a450505050565b6000546001600160a01b03620100009091041633146108e35760405162461bcd60e51b815260206004820181905260248201527f4f776e61626c653a2063616c6c6572206973206e6f7420746865206f776e657260448201526064016105f5565b6109e682826112af565b6001600160a01b03851660009081526007602090815260408083203380855292529091205460ff16158015610d865750610d848185610e06565b155b15610db657604051631294d2a960e01b8152600481018590526001600160a01b03821660248201526044016105f5565b610dc386868686866113a3565b60405184906001600160a01b0380881691908916907fddf252ad1be2c89b69c2b068fc378daa952ba7f163c4a11628f55a4df523b3ef90600090a4505050505050565b600080610e12836106e1565b9050806001600160a01b0316846001600160a01b03161480610e4757506000838152600560205260409020610e47908561152d565b949350505050565b6060600061074f8361154f565b6000546001600160a01b03828116620100009092041614610b3657600080546001600160a01b038381166201000081810262010000600160b01b0319851617855560405193049190911692909183917f8be0079c531659141344cd1fd0a4f28419497f9722a3daafe3b4186f6b6457e091a35050565b816001600160a01b0316836001600160a01b031603610f435760405162461bcd60e51b815260206004820152602760248201527f4c535038436f6d70617469626c654552433732313a20617070726f766520746f6044820152661031b0b63632b960c91b60648201526084016105f5565b6001600160a01b03838116600081815260076020908152604080832094871680845294825291829020805460ff191686151590811790915591519182527f17307eab39ab6107e8899845ad3d59bd9653f200f220920489ca2b5937696c31910160405180910390a3505050565b60606104c78261154f565b610fc7848484846115aa565b60405183906001600160a01b038616906000907fddf252ad1be2c89b69c2b068fc378daa952ba7f163c4a11628f55a4df523b3ef908290a450505050565b60608161101381601f61236d565b10156110525760405162461bcd60e51b815260206004820152600e60248201526d736c6963655f6f766572666c6f7760901b60448201526064016105f5565b61105c828461236d565b845110156110a05760405162461bcd60e51b8152602060048201526011602482015270736c6963655f6f75744f66426f756e647360781b60448201526064016105f5565b6060821580156110bf5760405191506000825260208201604052611109565b6040519150601f8416801560200281840101858101878315602002848b0101015b818310156110f85780518352602092830192016110e0565b5050858452601f01601f1916604052505b50949350505050565b600061111d826106e1565b9050336001600160a01b038216811461116357604051632d938f5160e11b81526001600160a01b03808416600483015260248201859052821660448201526064016105f5565b6001600160a01b03841661118a57604051639577b8b360e01b815260040160405180910390fd5b836001600160a01b0316826001600160a01b0316036111a95750505050565b60008381526005602052604081206111c190866116c4565b9050806111f3576040516314ec4d6d60e31b81526001600160a01b0386166004820152602481018590526044016105f5565b83836001600160a01b0316866001600160a01b03167f34b797fc5a526f7bf1d2b5de25f6564fd85ae364e3ee939aee7c1ac27871a98860405160405180910390a45050505050565b60006001600160e01b03198216631c537ddf60e21b14806104c757506301ffc9a760e01b6001600160e01b03198316146104c7565b600082600001828154811061128757611287612323565b9060005260206000200154905092915050565b600061074f836001600160a01b0384166116d9565b7f2145e1d6d074577dc71ef54c3807742b41b053a9352ae6b491331509acb9750f82016112ef576040516385c169bd60e01b815260040160405180910390fd5b7fd0f59754f88971fe6bc5a6618cc9d5f1e859c58d16b22d1c7b2d3e2b246cd8aa820161132f57604051630eceab6760e31b815260040160405180910390fd5b600082815260016020526040902061134782826123c6565b50817fece574603820d07bc9b91f2a932baadf4628aabcb8afba49776529c14a6104b26101008351111561138857611383836000610100611005565b61138a565b825b6040516113979190611b89565b60405180910390a25050565b836001600160a01b0316856001600160a01b0316036113d557604051635d67d6c160e01b815260040160405180910390fd5b60006113e0846106e1565b9050856001600160a01b0316816001600160a01b03161461142e57604051632d938f5160e11b81526001600160a01b03808316600483015260248201869052871660448201526064016105f5565b6001600160a01b038516611455576040516324ecef4d60e01b815260040160405180910390fd5b3361146087866117cc565b6001600160a01b03871660009081526004602052604090206114829086611813565b506001600160a01b03861660009081526004602052604090206114a5908661181f565b506000858152600360205260409081902080546001600160a01b0319166001600160a01b0389811691821790925591518792918a16907fb333c813a7426a7a11e2b190cad52c44119421594b47f6f32ace6d8c7207b2bf9061150c9086908a908a90612485565b60405180910390a46115208787878661182b565b6109cb87878787876118ff565b6001600160a01b0381166000908152600183016020526040812054151561074f565b606081600001805480602002602001604051908101604052809291908181526020018280548015610bf457602002820191906000526020600020905b81548152602001906001019080831161158b5750505050509050919050565b6001600160a01b0384166115d1576040516324ecef4d60e01b815260040160405180910390fd5b6000838152600360205260409020546001600160a01b03161561160a576040516334c7b51160e01b8152600481018490526024016105f5565b3360016002600082825461161e919061236d565b90915550506001600160a01b0385166000908152600460205260409020611645908561181f565b5060008481526003602052604080822080546001600160a01b0319166001600160a01b03891690811790915590518692907fb333c813a7426a7a11e2b190cad52c44119421594b47f6f32ace6d8c7207b2bf906116a790869089908990612485565b60405180910390a46116bd6000868686866118ff565b5050505050565b600061074f836001600160a01b038416611a37565b600081815260018301602052604081205480156117c25760006116fd600183612310565b855490915060009061171190600190612310565b905081811461177657600086600001828154811061173157611731612323565b906000526020600020015490508087600001848154811061175457611754612323565b6000918252602080832090910192909255918252600188019052604090208390555b8554869080611787576117876124b1565b6001900381819060005260206000200160009055905585600101600086815260200190815260200160002060009055600193505050506104c7565b60009150506104c7565b6000818152600560205260408120906117e482610c38565b905060005b818110156116bd5760006117fd8482610c42565b905061180a818787610c4e565b506001016117e9565b600061074f83836116d9565b600061074f8383611a37565b61183c84631aed5a8560e21b611a86565b1561064f5760008484848460405160200161185a94939291906124c7565b60408051601f1981840301815290829052631aed5a8560e21b825291506001600160a01b03861690636bb56a14906118b8907fb23eae7e6d1564b295b4c3e3be402d9a2f0776c57bdf365903496f6fa481ab00908590600401612514565b6000604051808303816000875af11580156118d7573d6000803e3d6000fd5b505050506040513d6000823e601f3d908101601f19168201604052610892919081019061252d565b61191084631aed5a8560e21b611a86565b156119da5760008585858460405160200161192e94939291906124c7565b60408051601f1981840301815290829052631aed5a8560e21b825291506001600160a01b03861690636bb56a149061198c907f0b084a55ebf70fd3c06fd755269dac2212c4d3f0f4d09079780bfa50c1b2984d908590600401612514565b6000604051808303816000875af11580156119ab573d6000803e3d6000fd5b505050506040513d6000823e601f3d908101601f191682016040526119d3919081019061252d565b50506116bd565b816116bd576001600160a01b0384163b15611a1357604051634349776d60e01b81526001600160a01b03851660048201526024016105f5565b604051630317313760e01b81526001600160a01b03851660048201526024016105f5565b6000818152600183016020526040812054611a7e575081546001818101845560008481526020808220909301849055845484825282860190935260409020919091556104c7565b5060006104c7565b604080516001600160e01b03198316602480830191909152825180830390910181526044909101909152602080820180516001600160e01b03166301ffc9a760e01b178152825160009392849283928392918391908a617530fa92503d91506000519050828015611af8575060208210155b8015611b045750600081115b979650505050505050565b600060208284031215611b2157600080fd5b81356001600160e01b03198116811461074f57600080fd5b60005b83811015611b54578181015183820152602001611b3c565b50506000910152565b60008151808452611b75816020860160208601611b39565b601f01601f19169290920160200192915050565b60208152600061074f6020830184611b5d565b600060208284031215611bae57600080fd5b5035919050565b80356001600160a01b0381168114611bcc57600080fd5b919050565b60008060408385031215611be457600080fd5b611bed83611bb5565b946020939093013593505050565b634e487b7160e01b600052604160045260246000fd5b604051601f8201601f191681016001600160401b0381118282101715611c3957611c39611bfb565b604052919050565b60006001600160401b03821115611c5a57611c5a611bfb565b5060051b60200190565b600082601f830112611c7557600080fd5b81356020611c8a611c8583611c41565b611c11565b82815260059290921b84018101918181019086841115611ca957600080fd5b8286015b84811015611cc45780358352918301918301611cad565b509695505050505050565b60006001600160401b03821115611ce857611ce8611bfb565b50601f01601f191660200190565b600082601f830112611d0757600080fd5b8135611d15611c8582611ccf565b818152846020838601011115611d2a57600080fd5b816020850160208301376000918101602001919091529392505050565b600082601f830112611d5857600080fd5b81356020611d68611c8583611c41565b82815260059290921b84018101918181019086841115611d8757600080fd5b8286015b84811015611cc45780356001600160401b03811115611daa5760008081fd5b611db88986838b0101611cf6565b845250918301918301611d8b565b60008060408385031215611dd957600080fd5b82356001600160401b0380821115611df057600080fd5b611dfc86838701611c64565b93506020850135915080821115611e1257600080fd5b50611e1f85828601611d47565b9150509250929050565b600080600060608486031215611e3e57600080fd5b611e4784611bb5565b9250611e5560208501611bb5565b9150604084013590509250925092565b6020808252825182820181905260009190848201906040850190845b81811015611ea65783516001600160a01b031683529284019291840191600101611e81565b50909695505050505050565b600060208284031215611ec457600080fd5b81356001600160401b03811115611eda57600080fd5b610e4784828501611c64565b6000602080830181845280855180835260408601915060408160051b870101925083870160005b82811015611f3b57603f19888603018452611f29858351611b5d565b94509285019290850190600101611f0d565b5092979650505050505050565b80358015158114611bcc57600080fd5b600080600080600060a08688031215611f7057600080fd5b611f7986611bb5565b9450611f8760208701611bb5565b935060408601359250611f9c60608701611f48565b915060808601356001600160401b03811115611fb757600080fd5b611fc388828901611cf6565b9150509295509295909350565b600060208284031215611fe257600080fd5b61074f82611bb5565b600082601f830112611ffc57600080fd5b8135602061200c611c8583611c41565b82815260059290921b8401810191818101908684111561202b57600080fd5b8286015b84811015611cc45761204081611bb5565b835291830191830161202f565b600082601f83011261205e57600080fd5b8135602061206e611c8583611c41565b82815260059290921b8401810191818101908684111561208d57600080fd5b8286015b84811015611cc4576120a281611f48565b8352918301918301612091565b600080600080600060a086880312156120c757600080fd5b85356001600160401b03808211156120de57600080fd5b6120ea89838a01611feb565b9650602088013591508082111561210057600080fd5b61210c89838a01611feb565b9550604088013591508082111561212257600080fd5b61212e89838a01611c64565b9450606088013591508082111561214457600080fd5b61215089838a0161204d565b9350608088013591508082111561216657600080fd5b50611fc388828901611d47565b6000806040838503121561218657600080fd5b8235915060208301356001600160401b038111156121a357600080fd5b611e1f85828601611cf6565b600080604083850312156121c257600080fd5b6121cb83611bb5565b91506121d960208401611f48565b90509250929050565b6020808252825182820181905260009190848201906040850190845b81811015611ea6578351835292840192918401916001016121fe565b6000806000806080858703121561223057600080fd5b61223985611bb5565b93506020850135925061224e60408601611f48565b915060608501356001600160401b0381111561226957600080fd5b61227587828801611cf6565b91505092959194509250565b6000806000806080858703121561229757600080fd5b6122a085611bb5565b93506122ae60208601611bb5565b92506040850135915060608501356001600160401b0381111561226957600080fd5b600080604083850312156122e357600080fd5b6122ec83611bb5565b91506121d960208401611bb5565b634e487b7160e01b600052601160045260246000fd5b818103818111156104c7576104c76122fa565b634e487b7160e01b600052603260045260246000fd5b600181811c9082168061234d57607f821691505b60208210810361084557634e487b7160e01b600052602260045260246000fd5b808201808211156104c7576104c76122fa565b601f8211156106dc57600081815260208120601f850160051c810160208610156123a75750805b601f850160051c820191505b81811015610892578281556001016123b3565b81516001600160401b038111156123df576123df611bfb565b6123f3816123ed8454612339565b84612380565b602080601f83116001811461242857600084156124105750858301515b600019600386901b1c1916600185901b178555610892565b600085815260208120601f198616915b8281101561245757888601518255948401946001909101908401612438565b50858210156124755787850151600019600388901b60f8161c191681555b5050505050600190811b01905550565b6001600160a01b0384168152821515602082015260606040820181905260009061054890830184611b5d565b634e487b7160e01b600052603160045260246000fd5b60006bffffffffffffffffffffffff19808760601b168352808660601b166014840152508360288301528251612504816048850160208701611b39565b9190910160480195945050505050565b828152604060208201526000610e476040830184611b5d565b60006020828403121561253f57600080fd5b81516001600160401b0381111561255557600080fd5b8201601f8101841361256657600080fd5b8051612574611c8582611ccf565b81815285602083850101111561258957600080fd5b610548826020830160208601611b3956fea2646970667358221220056d4f4ed1cbd7864ba53da023d42b750b0eef12b9751bec5fcc9d072fc297b464736f6c63430008110033",
    "linkReferences": {}
  },
  "methodIdentifiers": {
    "approve(address,uint256)": "095ea7b3",
    "authorizeOperator(address,bytes32)": "cf5182ba",
    "balanceOf(address)": "70a08231",
    "getApproved(uint256)": "081812fc",
    "getData(bytes32)": "54f6127f",
    "getData(bytes32[])": "4e3e6e9c",
    "getOperatorsOf(bytes32)": "49a6078d",
    "isApprovedForAll(address,address)": "e985e9c5",
    "isOperatorFor(address,bytes32)": "2a3654a4",
    "mint(address,bytes32,bool,bytes)": "af255b61",
    "name()": "06fdde03",
    "owner()": "8da5cb5b",
    "ownerOf(uint256)": "6352211e",
    "renounceOwnership()": "715018a6",
    "revokeOperator(address,bytes32)": "0b0c6d82",
    "safeTransferFrom(address,address,uint256)": "42842e0e",
    "safeTransferFrom(address,address,uint256,bytes)": "b88d4fde",
    "setApprovalForAll(address,bool)": "a22cb465",
    "setData(bytes32,bytes)": "7f23690c",
    "setData(bytes32[],bytes[])": "14a6e293",
    "supportsInterface(bytes4)": "01ffc9a7",
    "symbol()": "95d89b41",
    "tokenIdsOf(address)": "a3b261f2",
    "tokenOwnerOf(bytes32)": "217b2270",
    "tokenURI(uint256)": "c87b56dd",
    "totalSupply()": "18160ddd",
    "transfer(address,address,bytes32,bool,bytes)": "511b6952",
    "transferBatch(address[],address[],bytes32[],bool[],bytes[])": "7e87632c",
    "transferFrom(address,address,uint256)": "23b872dd",
    "transferOwnership(address)": "f2fde38b"
  },
  "id": 79
}