{
  "abi": [
    {
      "inputs": [
        {
          "internalType": "bytes",
          "name": "c",
          "type": "bytes"
        }
      ],
      "name": "decode",
      "outputs": [
        {
          "internalType": "bytes",
          "name": "a",
          "type": "bytes"
        },
        {
          "internalType": "bytes",
          "name": "b",
          "type": "bytes"
        }
      ],
      "stateMutability": "pure",
      "type": "function"
    },
    {
      "inputs": [
        {
          "internalType": "bytes",
          "name": "a",
          "type": "bytes"
        },
        {
          "internalType": "bytes",
          "name": "b",
          "type": "bytes"
        }
      ],
      "name": "encode",
      "outputs": [
        {
          "internalType": "bytes",
          "name": "c",
          "type": "bytes"
        },
        {
          "internalType": "uint256",
          "name": "gasUsed",
          "type": "uint256"
        }
      ],
      "stateMutability": "view",
      "type": "function"
    }
  ],
  "bytecode": {
    "object": "0x608060405234801561001057600080fd5b506103ef806100206000396000f3fe608060405234801561001057600080fd5b50600436106100365760003560e01c80632480e5e81461003b578063e5c5e9a314610065575b600080fd5b61004e6100493660046101b2565b610086565b60405161005c929190610266565b60405180910390f35b610078610073366004610288565b6100cc565b60405161005c9291906102c5565b60606000805a905084846040516020016100a19291906102c5565b604051602081830303815290604052925060005a90506100c181836102f3565b925050509250929050565b606080828060200190518101906100e3919061035f565b9094909350915050565b634e487b7160e01b600052604160045260246000fd5b604051601f8201601f1916810167ffffffffffffffff8111828210171561012c5761012c6100ed565b604052919050565b600067ffffffffffffffff82111561014e5761014e6100ed565b50601f01601f191660200190565b600082601f83011261016d57600080fd5b813561018061017b82610134565b610103565b81815284602083860101111561019557600080fd5b816020850160208301376000918101602001919091529392505050565b600080604083850312156101c557600080fd5b823567ffffffffffffffff808211156101dd57600080fd5b6101e98683870161015c565b935060208501359150808211156101ff57600080fd5b5061020c8582860161015c565b9150509250929050565b60005b83811015610231578181015183820152602001610219565b50506000910152565b60008151808452610252816020860160208601610216565b601f01601f19169290920160200192915050565b604081526000610279604083018561023a565b90508260208301529392505050565b60006020828403121561029a57600080fd5b813567ffffffffffffffff8111156102b157600080fd5b6102bd8482850161015c565b949350505050565b6040815260006102d8604083018561023a565b82810360208401526102ea818561023a565b95945050505050565b8181038181111561031457634e487b7160e01b600052601160045260246000fd5b92915050565b600082601f83011261032b57600080fd5b815161033961017b82610134565b81815284602083860101111561034e57600080fd5b6102bd826020830160208701610216565b6000806040838503121561037257600080fd5b825167ffffffffffffffff8082111561038a57600080fd5b6103968683870161031a565b935060208501519150808211156103ac57600080fd5b5061020c8582860161031a56fea2646970667358221220ac72404af21f175a6000e58b7b021bc7cbcad3f5ac2b8d786bf32569ec38346964736f6c63430008110033",
    "linkReferences": {}
  },
  "methodIdentifiers": {
    "decode(bytes)": "e5c5e9a3",
    "encode(bytes,bytes)": "2480e5e8"
  },
  "id": 91
}