{
  "abi": [
    {
      "inputs": [
        {
          "internalType": "string",
          "name": "name_",
          "type": "string"
        },
        {
          "internalType": "string",
          "name": "symbol_",
          "type": "string"
        },
        {
          "internalType": "address",
          "name": "newOwner_",
          "type": "address"
        }
      ],
      "stateMutability": "nonpayable",
      "type": "constructor"
    },
    {
      "inputs": [
        {
          "internalType": "uint256",
          "name": "dataKeysLength",
          "type": "uint256"
        },
        {
          "internalType": "uint256",
          "name": "dataValuesLength",
          "type": "uint256"
        }
      ],
      "name": "ERC725Y_DataKeysValuesLengthMismatch",
      "type": "error"
    },
    {
      "inputs": [],
      "name": "LSP4TokenNameNotEditable",
      "type": "error"
    },
    {
      "inputs": [],
      "name": "LSP4TokenSymbolNotEditable",
      "type": "error"
    },
    {
      "inputs": [],
      "name": "LSP8CannotSendToAddressZero",
      "type": "error"
    },
    {
      "inputs": [],
      "name": "LSP8CannotSendToSelf",
      "type": "error"
    },
    {
      "inputs": [],
      "name": "LSP8CannotUseAddressZeroAsOperator",
      "type": "error"
    },
    {
      "inputs": [],
      "name": "LSP8InvalidTransferBatch",
      "type": "error"
    },
    {
      "inputs": [
        {
          "internalType": "bytes32",
          "name": "tokenId",
          "type": "bytes32"
        }
      ],
      "name": "LSP8NonExistentTokenId",
      "type": "error"
    },
    {
      "inputs": [
        {
          "internalType": "address",
          "name": "operator",
          "type": "address"
        },
        {
          "internalType": "bytes32",
          "name": "tokenId",
          "type": "bytes32"
        }
      ],
      "name": "LSP8NonExistingOperator",
      "type": "error"
    },
    {
      "inputs": [
        {
          "internalType": "bytes32",
          "name": "tokenId",
          "type": "bytes32"
        },
        {
          "internalType": "address",
          "name": "caller",
          "type": "address"
        }
      ],
      "name": "LSP8NotTokenOperator",
      "type": "error"
    },
    {
      "inputs": [
        {
          "internalType": "address",
          "name": "tokenOwner",
          "type": "address"
        },
        {
          "internalType": "bytes32",
          "name": "tokenId",
          "type": "bytes32"
        },
        {
          "internalType": "address",
          "name": "caller",
          "type": "address"
        }
      ],
      "name": "LSP8NotTokenOwner",
      "type": "error"
    },
    {
      "inputs": [
        {
          "internalType": "address",
          "name": "tokenReceiver",
          "type": "address"
        }
      ],
      "name": "LSP8NotifyTokenReceiverContractMissingLSP1Interface",
      "type": "error"
    },
    {
      "inputs": [
        {
          "internalType": "address",
          "name": "tokenReceiver",
          "type": "address"
        }
      ],
      "name": "LSP8NotifyTokenReceiverIsEOA",
      "type": "error"
    },
    {
      "inputs": [
        {
          "internalType": "address",
          "name": "operator",
          "type": "address"
        },
        {
          "internalType": "bytes32",
          "name": "tokenId",
          "type": "bytes32"
        }
      ],
      "name": "LSP8OperatorAlreadyAuthorized",
      "type": "error"
    },
    {
      "inputs": [
        {
          "internalType": "bytes32",
          "name": "tokenId",
          "type": "bytes32"
        }
      ],
      "name": "LSP8TokenIdAlreadyMinted",
      "type": "error"
    },
    {
      "anonymous": false,
      "inputs": [
        {
          "indexed": true,
          "internalType": "address",
          "name": "owner",
          "type": "address"
        },
        {
          "indexed": true,
          "internalType": "address",
          "name": "approved",
          "type": "address"
        },
        {
          "indexed": true,
          "internalType": "uint256",
          "name": "tokenId",
          "type": "uint256"
        }
      ],
      "name": "Approval",
      "type": "event"
    },
    {
      "anonymous": false,
      "inputs": [
        {
          "indexed": true,
          "internalType": "address",
          "name": "_owner",
          "type": "address"
        },
        {
          "indexed": true,
          "internalType": "address",
          "name": "_operator",
          "type": "address"
        },
        {
          "indexed": false,
          "internalType": "bool",
          "name": "_approved",
          "type": "bool"
        }
      ],
      "name": "ApprovalForAll",
      "type": "event"
    },
    {
      "anonymous": false,
      "inputs": [
        {
          "indexed": true,
          "internalType": "address",
          "name": "operator",
          "type": "address"
        },
        {
          "indexed": true,
          "internalType": "address",
          "name": "tokenOwner",
          "type": "address"
        },
        {
          "indexed": true,
          "internalType": "bytes32",
          "name": "tokenId",
          "type": "bytes32"
        }
      ],
      "name": "AuthorizedOperator",
      "type": "event"
    },
    {
      "anonymous": false,
      "inputs": [
        {
          "indexed": true,
          "internalType": "bytes32",
          "name": "dataKey",
          "type": "bytes32"
        },
        {
          "indexed": false,
          "internalType": "bytes",
          "name": "dataValue",
          "type": "bytes"
        }
      ],
      "name": "DataChanged",
      "type": "event"
    },
    {
      "anonymous": false,
      "inputs": [
        {
          "indexed": true,
          "internalType": "address",
          "name": "previousOwner",
          "type": "address"
        },
        {
          "indexed": true,
          "internalType": "address",
          "name": "newOwner",
          "type": "address"
        }
      ],
      "name": "OwnershipTransferred",
      "type": "event"
    },
    {
      "anonymous": false,
      "inputs": [
        {
          "indexed": true,
          "internalType": "address",
          "name": "operator",
          "type": "address"
        },
        {
          "indexed": true,
          "internalType": "address",
          "name": "tokenOwner",
          "type": "address"
        },
        {
          "indexed": true,
          "internalType": "bytes32",
          "name": "tokenId",
          "type": "bytes32"
        }
      ],
      "name": "RevokedOperator",
      "type": "event"
    },
    {
      "anonymous": false,
      "inputs": [
        {
          "indexed": true,
          "internalType": "address",
          "name": "from",
          "type": "address"
        },
        {
          "indexed": true,
          "internalType": "address",
          "name": "to",
          "type": "address"
        },
        {
          "indexed": true,
          "internalType": "uint256",
          "name": "tokenId",
          "type": "uint256"
        }
      ],
      "name": "Transfer",
      "type": "event"
    },
    {
      "anonymous": false,
      "inputs": [
        {
          "indexed": false,
          "internalType": "address",
          "name": "operator",
          "type": "address"
        },
        {
          "indexed": true,
          "internalType": "address",
          "name": "from",
          "type": "address"
        },
        {
          "indexed": true,
          "internalType": "address",
          "name": "to",
          "type": "address"
        },
        {
          "indexed": true,
          "internalType": "bytes32",
          "name": "tokenId",
          "type": "bytes32"
        },
        {
          "indexed": false,
          "internalType": "bool",
          "name": "force",
          "type": "bool"
        },
        {
          "indexed": false,
          "internalType": "bytes",
          "name": "data",
          "type": "bytes"
        }
      ],
      "name": "Transfer",
      "type": "event"
    },
    {
      "inputs": [
        {
          "internalType": "address",
          "name": "operator",
          "type": "address"
        },
        {
          "internalType": "uint256",
          "name": "tokenId",
          "type": "uint256"
        }
      ],
      "name": "approve",
      "outputs": [],
      "stateMutability": "nonpayable",
      "type": "function"
    },
    {
      "inputs": [
        {
          "internalType": "address",
          "name": "operator",
          "type": "address"
        },
        {
          "internalType": "bytes32",
          "name": "tokenId",
          "type": "bytes32"
        }
      ],
      "name": "authorizeOperator",
      "outputs": [],
      "stateMutability": "nonpayable",
      "type": "function"
    },
    {
      "inputs": [
        {
          "internalType": "address",
          "name": "tokenOwner",
          "type": "address"
        }
      ],
      "name": "balanceOf",
      "outputs": [
        {
          "internalType": "uint256",
          "name": "",
          "type": "uint256"
        }
      ],
      "stateMutability": "view",
      "type": "function"
    },
    {
      "inputs": [
        {
          "internalType": "uint256",
          "name": "tokenId",
          "type": "uint256"
        }
      ],
      "name": "getApproved",
      "outputs": [
        {
          "internalType": "address",
          "name": "",
          "type": "address"
        }
      ],
      "stateMutability": "view",
      "type": "function"
    },
    {
      "inputs": [
        {
          "internalType": "bytes32[]",
          "name": "dataKeys",
          "type": "bytes32[]"
        }
      ],
      "name": "getData",
      "outputs": [
        {
          "internalType": "bytes[]",
          "name": "dataValues",
          "type": "bytes[]"
        }
      ],
      "stateMutability": "view",
      "type": "function"
    },
    {
      "inputs": [
        {
          "internalType": "bytes32",
          "name": "dataKey",
          "type": "bytes32"
        }
      ],
      "name": "getData",
      "outputs": [
        {
          "internalType": "bytes",
          "name": "dataValue",
          "type": "bytes"
        }
      ],
      "stateMutability": "view",
      "type": "function"
    },
    {
      "inputs": [
        {
          "internalType": "bytes32",
          "name": "tokenId",
          "type": "bytes32"
        }
      ],
      "name": "getOperatorsOf",
      "outputs": [
        {
          "internalType": "address[]",
          "name": "",
          "type": "address[]"
        }
      ],
      "stateMutability": "view",
      "type": "function"
    },
    {
      "inputs": [
        {
          "internalType": "address",
          "name": "tokenOwner",
          "type": "address"
        },
        {
          "internalType": "address",
          "name": "operator",
          "type": "address"
        }
      ],
      "name": "isApprovedForAll",
      "outputs": [
        {
          "internalType": "bool",
          "name": "",
          "type": "bool"
        }
      ],
      "stateMutability": "view",
      "type": "function"
    },
    {
      "inputs": [
        {
          "internalType": "address",
          "name": "operator",
          "type": "address"
        },
        {
          "internalType": "bytes32",
          "name": "tokenId",
          "type": "bytes32"
        }
      ],
      "name": "isOperatorFor",
      "outputs": [
        {
          "internalType": "bool",
          "name": "",
          "type": "bool"
        }
      ],
      "stateMutability": "view",
      "type": "function"
    },
    {
      "inputs": [
        {
          "internalType": "address",
          "name": "to",
          "type": "address"
        },
        {
          "internalType": "bytes32",
          "name": "tokenId",
          "type": "bytes32"
        },
        {
          "internalType": "bool",
          "name": "force",
          "type": "bool"
        },
        {
          "internalType": "bytes",
          "name": "data",
          "type": "bytes"
        }
      ],
      "name": "mint",
      "outputs": [],
      "stateMutability": "nonpayable",
      "type": "function"
    },
    {
      "inputs": [],
      "name": "name",
      "outputs": [
        {
          "internalType": "string",
          "name": "",
          "type": "string"
        }
      ],
      "stateMutability": "view",
      "type": "function"
    },
    {
      "inputs": [],
      "name": "owner",
      "outputs": [
        {
          "internalType": "address",
          "name": "",
          "type": "address"
        }
      ],
      "stateMutability": "view",
      "type": "function"
    },
    {
      "inputs": [
        {
          "internalType": "uint256",
          "name": "tokenId",
          "type": "uint256"
        }
      ],
      "name": "ownerOf",
      "outputs": [
        {
          "internalType": "address",
          "name": "",
          "type": "address"
        }
      ],
      "stateMutability": "view",
      "type": "function"
    },
    {
      "inputs": [],
      "name": "renounceOwnership",
      "outputs": [],
      "stateMutability": "nonpayable",
      "type": "function"
    },
    {
      "inputs": [
        {
          "internalType": "address",
          "name": "operator",
          "type": "address"
        },
        {
          "internalType": "bytes32",
          "name": "tokenId",
          "type": "bytes32"
        }
      ],
      "name": "revokeOperator",
      "outputs": [],
      "stateMutability": "nonpayable",
      "type": "function"
    },
    {
      "inputs": [
        {
          "internalType": "address",
          "name": "from",
          "type": "address"
        },
        {
          "internalType": "address",
          "name": "to",
          "type": "address"
        },
        {
          "internalType": "uint256",
          "name": "tokenId",
          "type": "uint256"
        }
      ],
      "name": "safeTransferFrom",
      "outputs": [],
      "stateMutability": "nonpayable",
      "type": "function"
    },
    {
      "inputs": [
        {
          "internalType": "address",
          "name": "from",
          "type": "address"
        },
        {
          "internalType": "address",
          "name": "to",
          "type": "address"
        },
        {
          "internalType": "uint256",
          "name": "tokenId",
          "type": "uint256"
        },
        {
          "internalType": "bytes",
          "name": "data",
          "type": "bytes"
        }
      ],
      "name": "safeTransferFrom",
      "outputs": [],
      "stateMutability": "nonpayable",
      "type": "function"
    },
    {
      "inputs": [
        {
          "internalType": "address",
          "name": "operator",
          "type": "address"
        },
        {
          "internalType": "bool",
          "name": "approved",
          "type": "bool"
        }
      ],
      "name": "setApprovalForAll",
      "outputs": [],
      "stateMutability": "nonpayable",
      "type": "function"
    },
    {
      "inputs": [
        {
          "internalType": "bytes32[]",
          "name": "dataKeys",
          "type": "bytes32[]"
        },
        {
          "internalType": "bytes[]",
          "name": "dataValues",
          "type": "bytes[]"
        }
      ],
      "name": "setData",
      "outputs": [],
      "stateMutability": "nonpayable",
      "type": "function"
    },
    {
      "inputs": [
        {
          "internalType": "bytes32",
          "name": "dataKey",
          "type": "bytes32"
        },
        {
          "internalType": "bytes",
          "name": "dataValue",
          "type": "bytes"
        }
      ],
      "name": "setData",
      "outputs": [],
      "stateMutability": "nonpayable",
      "type": "function"
    },
    {
      "inputs": [
        {
          "internalType": "bytes4",
          "name": "interfaceId",
          "type": "bytes4"
        }
      ],
      "name": "supportsInterface",
      "outputs": [
        {
          "internalType": "bool",
          "name": "",
          "type": "bool"
        }
      ],
      "stateMutability": "view",
      "type": "function"
    },
    {
      "inputs": [],
      "name": "symbol",
      "outputs": [
        {
          "internalType": "string",
          "name": "",
          "type": "string"
        }
      ],
      "stateMutability": "view",
      "type": "function"
    },
    {
      "inputs": [
        {
          "internalType": "address",
          "name": "tokenOwner",
          "type": "address"
        }
      ],
      "name": "tokenIdsOf",
      "outputs": [
        {
          "internalType": "bytes32[]",
          "name": "",
          "type": "bytes32[]"
        }
      ],
      "stateMutability": "view",
      "type": "function"
    },
    {
      "inputs": [
        {
          "internalType": "bytes32",
          "name": "tokenId",
          "type": "bytes32"
        }
      ],
      "name": "tokenOwnerOf",
      "outputs": [
        {
          "internalType": "address",
          "name": "",
          "type": "address"
        }
      ],
      "stateMutability": "view",
      "type": "function"
    },
    {
      "inputs": [
        {
          "internalType": "uint256",
          "name": "",
          "type": "uint256"
        }
      ],
      "name": "tokenURI",
      "outputs": [
        {
          "internalType": "string",
          "name": "",
          "type": "string"
        }
      ],
      "stateMutability": "view",
      "type": "function"
    },
    {
      "inputs": [],
      "name": "totalSupply",
      "outputs": [
        {
          "internalType": "uint256",
          "name": "",
          "type": "uint256"
        }
      ],
      "stateMutability": "view",
      "type": "function"
    },
    {
      "inputs": [
        {
          "internalType": "address",
          "name": "from",
          "type": "address"
        },
        {
          "internalType": "address",
          "name": "to",
          "type": "address"
        },
        {
          "internalType": "bytes32",
          "name": "tokenId",
          "type": "bytes32"
        },
        {
          "internalType": "bool",
          "name": "force",
          "type": "bool"
        },
        {
          "internalType": "bytes",
          "name": "data",
          "type": "bytes"
        }
      ],
      "name": "transfer",
      "outputs": [],
      "stateMutability": "nonpayable",
      "type": "function"
    },
    {
      "inputs": [
        {
          "internalType": "address[]",
          "name": "from",
          "type": "address[]"
        },
        {
          "internalType": "address[]",
          "name": "to",
          "type": "address[]"
        },
        {
          "internalType": "bytes32[]",
          "name": "tokenId",
          "type": "bytes32[]"
        },
        {
          "internalType": "bool[]",
          "name": "force",
          "type": "bool[]"
        },
        {
          "internalType": "bytes[]",
          "name": "data",
          "type": "bytes[]"
        }
      ],
      "name": "transferBatch",
      "outputs": [],
      "stateMutability": "nonpayable",
      "type": "function"
    },
    {
      "inputs": [
        {
          "internalType": "address",
          "name": "from",
          "type": "address"
        },
        {
          "internalType": "address",
          "name": "to",
          "type": "address"
        },
        {
          "internalType": "uint256",
          "name": "tokenId",
          "type": "uint256"
        }
      ],
      "name": "transferFrom",
      "outputs": [],
      "stateMutability": "nonpayable",
      "type": "function"
    },
    {
      "inputs": [
        {
          "internalType": "address",
          "name": "newOwner",
          "type": "address"
        }
      ],
      "name": "transferOwnership",
      "outputs": [],
      "stateMutability": "nonpayable",
      "type": "function"
    }
  ],
  "bytecode": {
    "object": "0x60806040523480156200001157600080fd5b5060405162002b5f38038062002b5f833981016040819052620000349162000328565b828282828282828282806001600160a01b038116620000a85760405162461bcd60e51b815260206004820152602660248201527f4f776e61626c653a206e6577206f776e657220697320746865207a65726f206160448201526564647265737360d01b606482015260840160405180910390fd5b620000be816200019b60201b62000b331760201c565b50620001157feafec4d89fa9619884b60000a4d96624a38f7ac2d8d9a604ecf07c12c77e480c60001b604051806040016040528060048152602001632936598960e21b8152506200020260201b62000b981760201c565b6200014f7fdeba1e292f8ba88238e10ab3c7f88bd4be4fac56cad5194b6ecceaf653468af160001b846200020260201b62000b981760201c565b620001897f2f0a68ab07768e01943a599e73362a0e17a63a72e94dd2e384d2c1d4db93275660001b836200020260201b62000b981760201c565b50505050505050505050505062000545565b6000546001600160a01b03828116911614620001ff57600080546001600160a01b038381166001600160a01b0319831681178455604051919092169283917f8be0079c531659141344cd1fd0a4f28419497f9722a3daafe3b4186f6b6457e09190a3505b50565b60008281526001602052604090206200021c828262000444565b50817fece574603820d07bc9b91f2a932baadf4628aabcb8afba49776529c14a6104b2826040516200024f919062000510565b60405180910390a25050565b634e487b7160e01b600052604160045260246000fd5b60005b838110156200028e57818101518382015260200162000274565b50506000910152565b600082601f830112620002a957600080fd5b81516001600160401b0380821115620002c657620002c66200025b565b604051601f8301601f19908116603f01168101908282118183101715620002f157620002f16200025b565b816040528381528660208588010111156200030b57600080fd5b6200031e84602083016020890162000271565b9695505050505050565b6000806000606084860312156200033e57600080fd5b83516001600160401b03808211156200035657600080fd5b620003648783880162000297565b945060208601519150808211156200037b57600080fd5b506200038a8682870162000297565b604086015190935090506001600160a01b0381168114620003aa57600080fd5b809150509250925092565b600181811c90821680620003ca57607f821691505b602082108103620003eb57634e487b7160e01b600052602260045260246000fd5b50919050565b601f8211156200043f57600081815260208120601f850160051c810160208610156200041a5750805b601f850160051c820191505b818110156200043b5782815560010162000426565b5050505b505050565b81516001600160401b038111156200046057620004606200025b565b6200047881620004718454620003b5565b84620003f1565b602080601f831160018114620004b05760008415620004975750858301515b600019600386901b1c1916600185901b1785556200043b565b600085815260208120601f198616915b82811015620004e157888601518255948401946001909101908401620004c0565b5085821015620005005787850151600019600388901b60f8161c191681555b5050505050600190811b01905550565b60208152600082518060208401526200053181604085016020870162000271565b601f01601f19169190910160400192915050565b61260a80620005556000396000f3fe608060405234801561001057600080fd5b50600436106101da5760003560e01c80636352211e11610104578063a22cb465116100a2578063c87b56dd11610071578063c87b56dd1461040c578063cf5182ba1461041f578063e985e9c514610432578063f2fde38b1461046e57600080fd5b8063a22cb465146103b3578063a3b261f2146103c6578063af255b61146103e6578063b88d4fde146103f957600080fd5b80637e87632c116100de5780637e87632c146103745780637f23690c146103875780638da5cb5b1461039a57806395d89b41146103ab57600080fd5b80636352211e1461034657806370a0823114610359578063715018a61461036c57600080fd5b8063217b22701161017c57806349a6078d1161014b57806349a6078d146102e05780634e3e6e9c14610300578063511b69521461032057806354f6127f1461033357600080fd5b8063217b22701461029457806323b872dd146102a75780632a3654a4146102ba57806342842e0e146102cd57600080fd5b8063095ea7b3116101b8578063095ea7b3146102475780630b0c6d821461025c57806314a6e2931461026f57806318160ddd1461028257600080fd5b806301ffc9a7146101df57806306fdde0314610207578063081812fc1461021c575b600080fd5b6101f26101ed366004611b49565b610481565b60405190151581526020015b60405180910390f35b61020f6104c7565b6040516101fe9190611bc3565b61022f61022a366004611bd6565b6104f4565b6040516001600160a01b0390911681526020016101fe565b61025a610255366004611c0b565b61054b565b005b61025a61026a366004611c0b565b6105a2565b61025a61027d366004611e00565b61064f565b6002545b6040519081526020016101fe565b61022f6102a2366004611bd6565b6106db565b61025a6102b5366004611e63565b610714565b6101f26102c8366004611c0b565b610734565b61025a6102db366004611e63565b610750565b6102f36102ee366004611bd6565b610770565b6040516101fe9190611e9f565b61031361030e366004611eec565b610792565b6040516101fe9190611f20565b61025a61032e366004611f92565b610845565b61020f610341366004611bd6565b610894565b61022f610354366004611bd6565b61089f565b61028661036736600461200a565b6108aa565b61025a6108cb565b61025a6103823660046120e9565b6108df565b61025a6103953660046121ad565b6109ce565b6000546001600160a01b031661022f565b61020f6109e4565b61025a6103c13660046121e9565b610a11565b6103d96103d436600461200a565b610a1c565b6040516101fe919061221c565b61025a6103f4366004612254565b610a40565b61025a6104073660046122bb565b610a54565b61020f61041a366004611bd6565b610a62565b61025a61042d366004611c0b565b610ab0565b6101f261044036600461230a565b6001600160a01b03918216600090815260076020908152604080832093909416825291909152205460ff1690565b61025a61047c36600461200a565b610aba565b60006001600160e01b031982166380ac58cd60e01b14806104b257506001600160e01b03198216635b5e139f60e01b145b806104c157506104c182610bed565b92915050565b606060006104c17fdeba1e292f8ba88238e10ab3c7f88bd4be4fac56cad5194b6ecceaf653468af1610c12565b60008161050081610cb4565b60008181526005602052604081209061051882610cec565b90508060000361052d57506000949350505050565b61054261053b60018361234a565b8390610cf6565b95945050505050565b6105558282610ab0565b806001600160a01b038316610569826106db565b6001600160a01b03167f8c5be1e5ebec7d5bd14f71427d1e84f3dd0314c0f7b2291e5b200ac8c7c3b92560405160405180910390a45050565b60006105ad826106db565b9050336001600160a01b03821681146105f857604051632d938f5160e11b81526001600160a01b03808416600483015260248201859052821660448201526064015b60405180910390fd5b6001600160a01b03841661061f57604051639577b8b360e01b815260040160405180910390fd5b836001600160a01b0316826001600160a01b03160361063e5750505050565b610649848385610d02565b50505050565b610657610d93565b805182511461068657815181516040516321d1e13360e11b8152600481019290925260248201526044016105ef565b60005b82518110156106d6576106ce8382815181106106a7576106a761235d565b60200260200101518383815181106106c1576106c161235d565b6020026020010151610dfc565b600101610689565b505050565b6000818152600360205260408120546001600160a01b0316806104c157604051635747cd1b60e11b8152600481018490526024016105ef565b6106d683838360001b600160405180602001604052806000815250610e06565b600061073f82610cb4565b6107498383610ec2565b9392505050565b6106d683838360001b600060405180602001604052806000815250610e06565b606061077b82610cb4565b60008281526005602052604090206104c190610f0b565b606081516001600160401b038111156107ad576107ad611c35565b6040519080825280602002602001820160405280156107e057816020015b60608152602001906001900390816107cb5790505b50905060005b825181101561083f576108118382815181106108045761080461235d565b6020026020010151610c12565b8282815181106108235761082361235d565b60200260200101819052506108388160010190565b90506107e6565b50919050565b336108508185610ec2565b61087f57604051631294d2a960e01b8152600481018590526001600160a01b03821660248201526044016105ef565b61088c8686868686610e06565b505050505050565b60606104c182610c12565b60006104c1826106db565b6001600160a01b03811660009081526004602052604081206104c190610cec565b6108d3610d93565b6108dd6000610b33565b565b84518451811415806108f2575083518114155b806108fe575082518114155b8061090a575081518114155b15610928576040516393a8311960e01b815260040160405180910390fd5b60005b818110156109c5576109bd8782815181106109485761094861235d565b60200260200101518783815181106109625761096261235d565b602002602001015187848151811061097c5761097c61235d565b60200260200101518785815181106109965761099661235d565b60200260200101518786815181106109b0576109b061235d565b6020026020010151610845565b60010161092b565b50505050505050565b6109d6610d93565b6109e08282610dfc565b5050565b606060006104c17f2f0a68ab07768e01943a599e73362a0e17a63a72e94dd2e384d2c1d4db932756610c12565b6109e0338383610f18565b6001600160a01b03811660009081526004602052604090206060906104c190610ff6565b610a48610d93565b61064984848484611001565b610649848484600085610e06565b60606000610a8f7f9afb95cacc9f95858ec44aa8c3b685511002e30ae54415823f406128b85b238e610c12565b905060006024905060006105428383848651610aab919061234a565b61104b565b6105558282611158565b610ac2610d93565b6001600160a01b038116610b275760405162461bcd60e51b815260206004820152602660248201527f4f776e61626c653a206e6577206f776e657220697320746865207a65726f206160448201526564647265737360d01b60648201526084016105ef565b610b3081610b33565b50565b6000546001600160a01b03828116911614610b3057600080546001600160a01b038381166001600160a01b0319831681178455604051919092169283917f8be0079c531659141344cd1fd0a4f28419497f9722a3daafe3b4186f6b6457e09190a35050565b6000828152600160205260409020610bb082826123ed565b50817fece574603820d07bc9b91f2a932baadf4628aabcb8afba49776529c14a6104b282604051610be19190611bc3565b60405180910390a25050565b60006001600160e01b0319821663622e7a0160e01b14806104c157506104c182611281565b6000818152600160205260409020805460609190610c2f90612373565b80601f0160208091040260200160405190810160405280929190818152602001828054610c5b90612373565b8015610ca85780601f10610c7d57610100808354040283529160200191610ca8565b820191906000526020600020905b815481529060010190602001808311610c8b57829003601f168201915b50505050509050919050565b6000818152600360205260409020546001600160a01b0316610b3057604051635747cd1b60e11b8152600481018290526024016105ef565b60006104c1825490565b600061074983836112b6565b6000818152600560205260408120610d1a90856112e0565b905080610d4c576040516312a8c6a360e21b81526001600160a01b0385166004820152602481018390526044016105ef565b81836001600160a01b0316856001600160a01b03167f17d5389f6ab6adb2647dfa0aa365c323d37adacc30b33a65310b6158ce1373d560405160405180910390a450505050565b33610da66000546001600160a01b031690565b6001600160a01b0316146108dd5760405162461bcd60e51b815260206004820181905260248201527f4f776e61626c653a2063616c6c6572206973206e6f7420746865206f776e657260448201526064016105ef565b6109e082826112f5565b6001600160a01b03851660009081526007602090815260408083203380855292529091205460ff16158015610e425750610e408185610ec2565b155b15610e7257604051631294d2a960e01b8152600481018590526001600160a01b03821660248201526044016105ef565b610e7f86868686866113dd565b60405184906001600160a01b0380881691908916907fddf252ad1be2c89b69c2b068fc378daa952ba7f163c4a11628f55a4df523b3ef90600090a4505050505050565b600080610ece836106db565b9050806001600160a01b0316846001600160a01b03161480610f0357506000838152600560205260409020610f039085611567565b949350505050565b6060600061074983611589565b816001600160a01b0316836001600160a01b031603610f895760405162461bcd60e51b815260206004820152602760248201527f4c535038436f6d70617469626c654552433732313a20617070726f766520746f6044820152661031b0b63632b960c91b60648201526084016105ef565b6001600160a01b03838116600081815260076020908152604080832094871680845294825291829020805460ff191686151590811790915591519182527f17307eab39ab6107e8899845ad3d59bd9653f200f220920489ca2b5937696c31910160405180910390a3505050565b60606104c182611589565b61100d848484846115e4565b60405183906001600160a01b038616906000907fddf252ad1be2c89b69c2b068fc378daa952ba7f163c4a11628f55a4df523b3ef908290a450505050565b60608161105981601f6124ac565b10156110985760405162461bcd60e51b815260206004820152600e60248201526d736c6963655f6f766572666c6f7760901b60448201526064016105ef565b6110a282846124ac565b845110156110e65760405162461bcd60e51b8152602060048201526011602482015270736c6963655f6f75744f66426f756e647360781b60448201526064016105ef565b606082158015611105576040519150600082526020820160405261114f565b6040519150601f8416801560200281840101858101878315602002848b0101015b8183101561113e578051835260209283019201611126565b5050858452601f01601f1916604052505b50949350505050565b6000611163826106db565b9050336001600160a01b03821681146111a957604051632d938f5160e11b81526001600160a01b03808416600483015260248201859052821660448201526064016105ef565b6001600160a01b0384166111d057604051639577b8b360e01b815260040160405180910390fd5b836001600160a01b0316826001600160a01b0316036111ef5750505050565b600083815260056020526040812061120790866116fe565b905080611239576040516314ec4d6d60e31b81526001600160a01b0386166004820152602481018590526044016105ef565b83836001600160a01b0316866001600160a01b03167f34b797fc5a526f7bf1d2b5de25f6564fd85ae364e3ee939aee7c1ac27871a98860405160405180910390a45050505050565b60006001600160e01b03198216631c537ddf60e21b14806104c157506301ffc9a760e01b6001600160e01b03198316146104c1565b60008260000182815481106112cd576112cd61235d565b9060005260206000200154905092915050565b6000610749836001600160a01b038416611713565b7f2145e1d6d074577dc71ef54c3807742b41b053a9352ae6b491331509acb9750f8201611335576040516385c169bd60e01b815260040160405180910390fd5b7fd0f59754f88971fe6bc5a6618cc9d5f1e859c58d16b22d1c7b2d3e2b246cd8aa820161137557604051630eceab6760e31b815260040160405180910390fd5b600082815260016020526040902061138d82826123ed565b50817fece574603820d07bc9b91f2a932baadf4628aabcb8afba49776529c14a6104b2610100835111156113ce576113c983600061010061104b565b6113d0565b825b604051610be19190611bc3565b836001600160a01b0316856001600160a01b03160361140f57604051635d67d6c160e01b815260040160405180910390fd5b600061141a846106db565b9050856001600160a01b0316816001600160a01b03161461146857604051632d938f5160e11b81526001600160a01b03808316600483015260248201869052871660448201526064016105ef565b6001600160a01b03851661148f576040516324ecef4d60e01b815260040160405180910390fd5b3361149a8786611806565b6001600160a01b03871660009081526004602052604090206114bc908661184d565b506001600160a01b03861660009081526004602052604090206114df9086611859565b506000858152600360205260409081902080546001600160a01b0319166001600160a01b0389811691821790925591518792918a16907fb333c813a7426a7a11e2b190cad52c44119421594b47f6f32ace6d8c7207b2bf906115469086908a908a906124bf565b60405180910390a461155a87878786611865565b6109c58787878787611939565b6001600160a01b03811660009081526001830160205260408120541515610749565b606081600001805480602002602001604051908101604052809291908181526020018280548015610ca857602002820191906000526020600020905b8154815260200190600101908083116115c55750505050509050919050565b6001600160a01b03841661160b576040516324ecef4d60e01b815260040160405180910390fd5b6000838152600360205260409020546001600160a01b031615611644576040516334c7b51160e01b8152600481018490526024016105ef565b3360016002600082825461165891906124ac565b90915550506001600160a01b038516600090815260046020526040902061167f9085611859565b5060008481526003602052604080822080546001600160a01b0319166001600160a01b03891690811790915590518692907fb333c813a7426a7a11e2b190cad52c44119421594b47f6f32ace6d8c7207b2bf906116e1908690899089906124bf565b60405180910390a46116f7600086868686611939565b5050505050565b6000610749836001600160a01b038416611a71565b600081815260018301602052604081205480156117fc57600061173760018361234a565b855490915060009061174b9060019061234a565b90508181146117b057600086600001828154811061176b5761176b61235d565b906000526020600020015490508087600001848154811061178e5761178e61235d565b6000918252602080832090910192909255918252600188019052604090208390555b85548690806117c1576117c16124eb565b6001900381819060005260206000200160009055905585600101600086815260200190815260200160002060009055600193505050506104c1565b60009150506104c1565b60008181526005602052604081209061181e82610cec565b905060005b818110156116f75760006118378482610cf6565b9050611844818787610d02565b50600101611823565b60006107498383611713565b60006107498383611a71565b61187684631aed5a8560e21b611ac0565b15610649576000848484846040516020016118949493929190612501565b60408051601f1981840301815290829052631aed5a8560e21b825291506001600160a01b03861690636bb56a14906118f2907fb23eae7e6d1564b295b4c3e3be402d9a2f0776c57bdf365903496f6fa481ab0090859060040161254e565b6000604051808303816000875af1158015611911573d6000803e3d6000fd5b505050506040513d6000823e601f3d908101601f1916820160405261088c9190810190612567565b61194a84631aed5a8560e21b611ac0565b15611a14576000858585846040516020016119689493929190612501565b60408051601f1981840301815290829052631aed5a8560e21b825291506001600160a01b03861690636bb56a14906119c6907f0b084a55ebf70fd3c06fd755269dac2212c4d3f0f4d09079780bfa50c1b2984d90859060040161254e565b6000604051808303816000875af11580156119e5573d6000803e3d6000fd5b505050506040513d6000823e601f3d908101601f19168201604052611a0d9190810190612567565b50506116f7565b816116f7576001600160a01b0384163b15611a4d57604051634349776d60e01b81526001600160a01b03851660048201526024016105ef565b604051630317313760e01b81526001600160a01b03851660048201526024016105ef565b6000818152600183016020526040812054611ab8575081546001818101845560008481526020808220909301849055845484825282860190935260409020919091556104c1565b5060006104c1565b604080516001600160e01b03198316602480830191909152825180830390910181526044909101909152602080820180516001600160e01b03166301ffc9a760e01b178152825160009392849283928392918391908a617530fa92503d91506000519050828015611b32575060208210155b8015611b3e5750600081115b979650505050505050565b600060208284031215611b5b57600080fd5b81356001600160e01b03198116811461074957600080fd5b60005b83811015611b8e578181015183820152602001611b76565b50506000910152565b60008151808452611baf816020860160208601611b73565b601f01601f19169290920160200192915050565b6020815260006107496020830184611b97565b600060208284031215611be857600080fd5b5035919050565b80356001600160a01b0381168114611c0657600080fd5b919050565b60008060408385031215611c1e57600080fd5b611c2783611bef565b946020939093013593505050565b634e487b7160e01b600052604160045260246000fd5b604051601f8201601f191681016001600160401b0381118282101715611c7357611c73611c35565b604052919050565b60006001600160401b03821115611c9457611c94611c35565b5060051b60200190565b600082601f830112611caf57600080fd5b81356020611cc4611cbf83611c7b565b611c4b565b82815260059290921b84018101918181019086841115611ce357600080fd5b8286015b84811015611cfe5780358352918301918301611ce7565b509695505050505050565b60006001600160401b03821115611d2257611d22611c35565b50601f01601f191660200190565b600082601f830112611d4157600080fd5b8135611d4f611cbf82611d09565b818152846020838601011115611d6457600080fd5b816020850160208301376000918101602001919091529392505050565b600082601f830112611d9257600080fd5b81356020611da2611cbf83611c7b565b82815260059290921b84018101918181019086841115611dc157600080fd5b8286015b84811015611cfe5780356001600160401b03811115611de45760008081fd5b611df28986838b0101611d30565b845250918301918301611dc5565b60008060408385031215611e1357600080fd5b82356001600160401b0380821115611e2a57600080fd5b611e3686838701611c9e565b93506020850135915080821115611e4c57600080fd5b50611e5985828601611d81565b9150509250929050565b600080600060608486031215611e7857600080fd5b611e8184611bef565b9250611e8f60208501611bef565b9150604084013590509250925092565b6020808252825182820181905260009190848201906040850190845b81811015611ee05783516001600160a01b031683529284019291840191600101611ebb565b50909695505050505050565b600060208284031215611efe57600080fd5b81356001600160401b03811115611f1457600080fd5b610f0384828501611c9e565b6000602080830181845280855180835260408601915060408160051b870101925083870160005b82811015611f7557603f19888603018452611f63858351611b97565b94509285019290850190600101611f47565b5092979650505050505050565b80358015158114611c0657600080fd5b600080600080600060a08688031215611faa57600080fd5b611fb386611bef565b9450611fc160208701611bef565b935060408601359250611fd660608701611f82565b915060808601356001600160401b03811115611ff157600080fd5b611ffd88828901611d30565b9150509295509295909350565b60006020828403121561201c57600080fd5b61074982611bef565b600082601f83011261203657600080fd5b81356020612046611cbf83611c7b565b82815260059290921b8401810191818101908684111561206557600080fd5b8286015b84811015611cfe5761207a81611bef565b8352918301918301612069565b600082601f83011261209857600080fd5b813560206120a8611cbf83611c7b565b82815260059290921b840181019181810190868411156120c757600080fd5b8286015b84811015611cfe576120dc81611f82565b83529183019183016120cb565b600080600080600060a0868803121561210157600080fd5b85356001600160401b038082111561211857600080fd5b61212489838a01612025565b9650602088013591508082111561213a57600080fd5b61214689838a01612025565b9550604088013591508082111561215c57600080fd5b61216889838a01611c9e565b9450606088013591508082111561217e57600080fd5b61218a89838a01612087565b935060808801359150808211156121a057600080fd5b50611ffd88828901611d81565b600080604083850312156121c057600080fd5b8235915060208301356001600160401b038111156121dd57600080fd5b611e5985828601611d30565b600080604083850312156121fc57600080fd5b61220583611bef565b915061221360208401611f82565b90509250929050565b6020808252825182820181905260009190848201906040850190845b81811015611ee057835183529284019291840191600101612238565b6000806000806080858703121561226a57600080fd5b61227385611bef565b93506020850135925061228860408601611f82565b915060608501356001600160401b038111156122a357600080fd5b6122af87828801611d30565b91505092959194509250565b600080600080608085870312156122d157600080fd5b6122da85611bef565b93506122e860208601611bef565b92506040850135915060608501356001600160401b038111156122a357600080fd5b6000806040838503121561231d57600080fd5b61232683611bef565b915061221360208401611bef565b634e487b7160e01b600052601160045260246000fd5b818103818111156104c1576104c1612334565b634e487b7160e01b600052603260045260246000fd5b600181811c9082168061238757607f821691505b60208210810361083f57634e487b7160e01b600052602260045260246000fd5b601f8211156106d657600081815260208120601f850160051c810160208610156123ce5750805b601f850160051c820191505b8181101561088c578281556001016123da565b81516001600160401b0381111561240657612406611c35565b61241a816124148454612373565b846123a7565b602080601f83116001811461244f57600084156124375750858301515b600019600386901b1c1916600185901b17855561088c565b600085815260208120601f198616915b8281101561247e5788860151825594840194600190910190840161245f565b508582101561249c5787850151600019600388901b60f8161c191681555b5050505050600190811b01905550565b808201808211156104c1576104c1612334565b6001600160a01b0384168152821515602082015260606040820181905260009061054290830184611b97565b634e487b7160e01b600052603160045260246000fd5b60006bffffffffffffffffffffffff19808760601b168352808660601b16601484015250836028830152825161253e816048850160208701611b73565b9190910160480195945050505050565b828152604060208201526000610f036040830184611b97565b60006020828403121561257957600080fd5b81516001600160401b0381111561258f57600080fd5b8201601f810184136125a057600080fd5b80516125ae611cbf82611d09565b8181528560208385010111156125c357600080fd5b610542826020830160208601611b7356fea26469706673582212205a18a4b678d6d76afeb97e121ceae3b867d073f986160635f48dbb8280cfcb5e64736f6c63430008110033",
    "linkReferences": {}
  },
  "methodIdentifiers": {
    "approve(address,uint256)": "095ea7b3",
    "authorizeOperator(address,bytes32)": "cf5182ba",
    "balanceOf(address)": "70a08231",
    "getApproved(uint256)": "081812fc",
    "getData(bytes32)": "54f6127f",
    "getData(bytes32[])": "4e3e6e9c",
    "getOperatorsOf(bytes32)": "49a6078d",
    "isApprovedForAll(address,address)": "e985e9c5",
    "isOperatorFor(address,bytes32)": "2a3654a4",
    "mint(address,bytes32,bool,bytes)": "af255b61",
    "name()": "06fdde03",
    "owner()": "8da5cb5b",
    "ownerOf(uint256)": "6352211e",
    "renounceOwnership()": "715018a6",
    "revokeOperator(address,bytes32)": "0b0c6d82",
    "safeTransferFrom(address,address,uint256)": "42842e0e",
    "safeTransferFrom(address,address,uint256,bytes)": "b88d4fde",
    "setApprovalForAll(address,bool)": "a22cb465",
    "setData(bytes32,bytes)": "7f23690c",
    "setData(bytes32[],bytes[])": "14a6e293",
    "supportsInterface(bytes4)": "01ffc9a7",
    "symbol()": "95d89b41",
    "tokenIdsOf(address)": "a3b261f2",
    "tokenOwnerOf(bytes32)": "217b2270",
    "tokenURI(uint256)": "c87b56dd",
    "totalSupply()": "18160ddd",
    "transfer(address,address,bytes32,bool,bytes)": "511b6952",
    "transferBatch(address[],address[],bytes32[],bool[],bytes[])": "7e87632c",
    "transferFrom(address,address,uint256)": "23b872dd",
    "transferOwnership(address)": "f2fde38b"
  },
  "id": 77
}