{
  "address": "0x52c90985AF970D4E0DC26Cb5D052505278aF32A9",
  "abi": [
    {
      "inputs": [],
      "stateMutability": "nonpayable",
      "type": "constructor"
    },
    {
      "inputs": [],
      "name": "ERC725X_ContractDeploymentFailed",
      "type": "error"
    },
    {
      "inputs": [],
      "name": "ERC725X_CreateOperationsRequireEmptyRecipientAddress",
      "type": "error"
    },
    {
      "inputs": [],
      "name": "ERC725X_ExecuteParametersEmptyArray",
      "type": "error"
    },
    {
      "inputs": [],
      "name": "ERC725X_ExecuteParametersLengthMismatch",
      "type": "error"
    },
    {
      "inputs": [
        {
          "internalType": "uint256",
          "name": "balance",
          "type": "uint256"
        },
        {
          "internalType": "uint256",
          "name": "value",
          "type": "uint256"
        }
      ],
      "name": "ERC725X_InsufficientBalance",
      "type": "error"
    },
    {
      "inputs": [],
      "name": "ERC725X_MsgValueDisallowedInDelegateCall",
      "type": "error"
    },
    {
      "inputs": [],
      "name": "ERC725X_MsgValueDisallowedInStaticCall",
      "type": "error"
    },
    {
      "inputs": [],
      "name": "ERC725X_NoContractBytecodeProvided",
      "type": "error"
    },
    {
      "inputs": [
        {
          "internalType": "uint256",
          "name": "operationTypeProvided",
          "type": "uint256"
        }
      ],
      "name": "ERC725X_UnknownOperationType",
      "type": "error"
    },
    {
      "inputs": [],
      "name": "ERC725Y_DataKeysValuesEmptyArray",
      "type": "error"
    },
    {
      "inputs": [],
      "name": "ERC725Y_DataKeysValuesLengthMismatch",
      "type": "error"
    },
    {
      "inputs": [
        {
          "internalType": "address",
          "name": "caller",
          "type": "address"
        }
      ],
      "name": "LSP14CallerNotPendingOwner",
      "type": "error"
    },
    {
      "inputs": [],
      "name": "LSP14CannotTransferOwnershipToSelf",
      "type": "error"
    },
    {
      "inputs": [],
      "name": "LSP14MustAcceptOwnershipInSeparateTransaction",
      "type": "error"
    },
    {
      "inputs": [
        {
          "internalType": "uint256",
          "name": "renounceOwnershipStart",
          "type": "uint256"
        },
        {
          "internalType": "uint256",
          "name": "renounceOwnershipEnd",
          "type": "uint256"
        }
      ],
      "name": "LSP14NotInRenounceOwnershipInterval",
      "type": "error"
    },
    {
      "inputs": [
        {
          "internalType": "bool",
          "name": "postCall",
          "type": "bool"
        },
        {
          "internalType": "bytes4",
          "name": "returnedStatus",
          "type": "bytes4"
        }
      ],
      "name": "LSP20CallVerificationFailed",
      "type": "error"
    },
    {
      "inputs": [
        {
          "internalType": "bool",
          "name": "postCall",
          "type": "bool"
        }
      ],
      "name": "LSP20CallingVerifierFailed",
      "type": "error"
    },
    {
      "inputs": [
        {
          "internalType": "address",
          "name": "logicVerifier",
          "type": "address"
        }
      ],
      "name": "LSP20EOACannotVerifyCall",
      "type": "error"
    },
    {
      "inputs": [
        {
          "internalType": "bytes4",
          "name": "functionSelector",
          "type": "bytes4"
        }
      ],
      "name": "NoExtensionFoundForFunctionSelector",
      "type": "error"
    },
    {
      "anonymous": false,
      "inputs": [
        {
          "indexed": true,
          "internalType": "uint256",
          "name": "operationType",
          "type": "uint256"
        },
        {
          "indexed": true,
          "internalType": "address",
          "name": "contractAddress",
          "type": "address"
        },
        {
          "indexed": true,
          "internalType": "uint256",
          "name": "value",
          "type": "uint256"
        },
        {
          "indexed": false,
          "internalType": "bytes32",
          "name": "salt",
          "type": "bytes32"
        }
      ],
      "name": "ContractCreated",
      "type": "event"
    },
    {
      "anonymous": false,
      "inputs": [
        {
          "indexed": true,
          "internalType": "bytes32",
          "name": "dataKey",
          "type": "bytes32"
        },
        {
          "indexed": false,
          "internalType": "bytes",
          "name": "dataValue",
          "type": "bytes"
        }
      ],
      "name": "DataChanged",
      "type": "event"
    },
    {
      "anonymous": false,
      "inputs": [
        {
          "indexed": true,
          "internalType": "uint256",
          "name": "operationType",
          "type": "uint256"
        },
        {
          "indexed": true,
          "internalType": "address",
          "name": "target",
          "type": "address"
        },
        {
          "indexed": true,
          "internalType": "uint256",
          "name": "value",
          "type": "uint256"
        },
        {
          "indexed": false,
          "internalType": "bytes4",
          "name": "selector",
          "type": "bytes4"
        }
      ],
      "name": "Executed",
      "type": "event"
    },
    {
      "anonymous": false,
      "inputs": [
        {
          "indexed": false,
          "internalType": "uint8",
          "name": "version",
          "type": "uint8"
        }
      ],
      "name": "Initialized",
      "type": "event"
    },
    {
      "anonymous": false,
      "inputs": [],
      "name": "OwnershipRenounced",
      "type": "event"
    },
    {
      "anonymous": false,
      "inputs": [
        {
          "indexed": true,
          "internalType": "address",
          "name": "previousOwner",
          "type": "address"
        },
        {
          "indexed": true,
          "internalType": "address",
          "name": "newOwner",
          "type": "address"
        }
      ],
      "name": "OwnershipTransferStarted",
      "type": "event"
    },
    {
      "anonymous": false,
      "inputs": [
        {
          "indexed": true,
          "internalType": "address",
          "name": "previousOwner",
          "type": "address"
        },
        {
          "indexed": true,
          "internalType": "address",
          "name": "newOwner",
          "type": "address"
        }
      ],
      "name": "OwnershipTransferred",
      "type": "event"
    },
    {
      "anonymous": false,
      "inputs": [],
      "name": "RenounceOwnershipStarted",
      "type": "event"
    },
    {
      "anonymous": false,
      "inputs": [
        {
          "indexed": true,
          "internalType": "address",
          "name": "from",
          "type": "address"
        },
        {
          "indexed": true,
          "internalType": "uint256",
          "name": "value",
          "type": "uint256"
        },
        {
          "indexed": true,
          "internalType": "bytes32",
          "name": "typeId",
          "type": "bytes32"
        },
        {
          "indexed": false,
          "internalType": "bytes",
          "name": "receivedData",
          "type": "bytes"
        },
        {
          "indexed": false,
          "internalType": "bytes",
          "name": "returnedValue",
          "type": "bytes"
        }
      ],
      "name": "UniversalReceiver",
      "type": "event"
    },
    {
      "stateMutability": "payable",
      "type": "fallback"
    },
    {
      "inputs": [],
      "name": "RENOUNCE_OWNERSHIP_CONFIRMATION_DELAY",
      "outputs": [
        {
          "internalType": "uint256",
          "name": "",
          "type": "uint256"
        }
      ],
      "stateMutability": "view",
      "type": "function"
    },
    {
      "inputs": [],
      "name": "RENOUNCE_OWNERSHIP_CONFIRMATION_PERIOD",
      "outputs": [
        {
          "internalType": "uint256",
          "name": "",
          "type": "uint256"
        }
      ],
      "stateMutability": "view",
      "type": "function"
    },
    {
      "inputs": [],
      "name": "VERSION",
      "outputs": [
        {
          "internalType": "string",
          "name": "",
          "type": "string"
        }
      ],
      "stateMutability": "view",
      "type": "function"
    },
    {
      "inputs": [],
      "name": "acceptOwnership",
      "outputs": [],
      "stateMutability": "nonpayable",
      "type": "function"
    },
    {
      "inputs": [
        {
          "internalType": "bytes[]",
          "name": "data",
          "type": "bytes[]"
        }
      ],
      "name": "batchCalls",
      "outputs": [
        {
          "internalType": "bytes[]",
          "name": "results",
          "type": "bytes[]"
        }
      ],
      "stateMutability": "nonpayable",
      "type": "function"
    },
    {
      "inputs": [
        {
          "internalType": "uint256",
          "name": "operationType",
          "type": "uint256"
        },
        {
          "internalType": "address",
          "name": "target",
          "type": "address"
        },
        {
          "internalType": "uint256",
          "name": "value",
          "type": "uint256"
        },
        {
          "internalType": "bytes",
          "name": "data",
          "type": "bytes"
        }
      ],
      "name": "execute",
      "outputs": [
        {
          "internalType": "bytes",
          "name": "",
          "type": "bytes"
        }
      ],
      "stateMutability": "payable",
      "type": "function"
    },
    {
      "inputs": [
        {
          "internalType": "uint256[]",
          "name": "operationsType",
          "type": "uint256[]"
        },
        {
          "internalType": "address[]",
          "name": "targets",
          "type": "address[]"
        },
        {
          "internalType": "uint256[]",
          "name": "values",
          "type": "uint256[]"
        },
        {
          "internalType": "bytes[]",
          "name": "datas",
          "type": "bytes[]"
        }
      ],
      "name": "executeBatch",
      "outputs": [
        {
          "internalType": "bytes[]",
          "name": "",
          "type": "bytes[]"
        }
      ],
      "stateMutability": "payable",
      "type": "function"
    },
    {
      "inputs": [
        {
          "internalType": "bytes32",
          "name": "dataKey",
          "type": "bytes32"
        }
      ],
      "name": "getData",
      "outputs": [
        {
          "internalType": "bytes",
          "name": "dataValue",
          "type": "bytes"
        }
      ],
      "stateMutability": "view",
      "type": "function"
    },
    {
      "inputs": [
        {
          "internalType": "bytes32[]",
          "name": "dataKeys",
          "type": "bytes32[]"
        }
      ],
      "name": "getDataBatch",
      "outputs": [
        {
          "internalType": "bytes[]",
          "name": "dataValues",
          "type": "bytes[]"
        }
      ],
      "stateMutability": "view",
      "type": "function"
    },
    {
      "inputs": [
        {
          "internalType": "address",
          "name": "initialOwner",
          "type": "address"
        }
      ],
      "name": "initialize",
      "outputs": [],
      "stateMutability": "payable",
      "type": "function"
    },
    {
      "inputs": [
        {
          "internalType": "bytes32",
          "name": "dataHash",
          "type": "bytes32"
        },
        {
          "internalType": "bytes",
          "name": "signature",
          "type": "bytes"
        }
      ],
      "name": "isValidSignature",
      "outputs": [
        {
          "internalType": "bytes4",
          "name": "returnedStatus",
          "type": "bytes4"
        }
      ],
      "stateMutability": "view",
      "type": "function"
    },
    {
      "inputs": [],
      "name": "owner",
      "outputs": [
        {
          "internalType": "address",
          "name": "",
          "type": "address"
        }
      ],
      "stateMutability": "view",
      "type": "function"
    },
    {
      "inputs": [],
      "name": "pendingOwner",
      "outputs": [
        {
          "internalType": "address",
          "name": "",
          "type": "address"
        }
      ],
      "stateMutability": "view",
      "type": "function"
    },
    {
      "inputs": [],
      "name": "renounceOwnership",
      "outputs": [],
      "stateMutability": "nonpayable",
      "type": "function"
    },
    {
      "inputs": [
        {
          "internalType": "bytes32",
          "name": "dataKey",
          "type": "bytes32"
        },
        {
          "internalType": "bytes",
          "name": "dataValue",
          "type": "bytes"
        }
      ],
      "name": "setData",
      "outputs": [],
      "stateMutability": "payable",
      "type": "function"
    },
    {
      "inputs": [
        {
          "internalType": "bytes32[]",
          "name": "dataKeys",
          "type": "bytes32[]"
        },
        {
          "internalType": "bytes[]",
          "name": "dataValues",
          "type": "bytes[]"
        }
      ],
      "name": "setDataBatch",
      "outputs": [],
      "stateMutability": "payable",
      "type": "function"
    },
    {
      "inputs": [
        {
          "internalType": "bytes4",
          "name": "interfaceId",
          "type": "bytes4"
        }
      ],
      "name": "supportsInterface",
      "outputs": [
        {
          "internalType": "bool",
          "name": "",
          "type": "bool"
        }
      ],
      "stateMutability": "view",
      "type": "function"
    },
    {
      "inputs": [
        {
          "internalType": "address",
          "name": "pendingNewOwner",
          "type": "address"
        }
      ],
      "name": "transferOwnership",
      "outputs": [],
      "stateMutability": "nonpayable",
      "type": "function"
    },
    {
      "inputs": [
        {
          "internalType": "bytes32",
          "name": "typeId",
          "type": "bytes32"
        },
        {
          "internalType": "bytes",
          "name": "receivedData",
          "type": "bytes"
        }
      ],
      "name": "universalReceiver",
      "outputs": [
        {
          "internalType": "bytes",
          "name": "returnedValues",
          "type": "bytes"
        }
      ],
      "stateMutability": "payable",
      "type": "function"
    },
    {
      "stateMutability": "payable",
      "type": "receive"
    }
  ],
  "args": [],
  "numDeployments": 1,
  "solcInputHash": "a81eb4b6759077876ef1c53643f73fa0",
  "bytecode": "0x60806040523480156200001157600080fd5b506200001c62000022565b620000e3565b600054610100900460ff16156200008f5760405162461bcd60e51b815260206004820152602760248201527f496e697469616c697a61626c653a20636f6e747261637420697320696e697469604482015266616c697a696e6760c81b606482015260840160405180910390fd5b60005460ff90811614620000e1576000805460ff191660ff9081179091556040519081527f7f26b83ff96e1f2b6a682f133852f6798a09c465da95921460cefb38474024989060200160405180910390a15b565b613b2080620000f36000396000f3fe6080604052600436106101485760003560e01c806379ba5097116100c0578063dedff9c611610074578063ead3fbdf11610059578063ead3fbdf14610239578063f2fde38b14610436578063ffa1ad741461045657610193565b8063dedff9c6146103f8578063e30c39781461041857610193565b80638da5cb5b116100a55780638da5cb5b1461039a57806397902421146103d2578063c4d66de8146103e557610193565b806379ba5097146103725780637f23690c1461038757610193565b806344c028fe116101175780636963d438116100fc5780636963d4381461032a5780636bb56a141461034a578063715018a61461035d57610193565b806344c028fe146102ea57806354f6127f1461030a57610193565b806301bfba611461023957806301ffc9a7146102615780631626ba7e1461029157806331858452146102ca57610193565b366101935734156101915761018f7f9c4705229491d365fb5434052e12a386d6771d976bea61070a8c694e8affea3d60001b6040518060200160405280600081525061049f565b505b005b6000366060600482101561022157341561020c5761020a7f9c4705229491d365fb5434052e12a386d6771d976bea61070a8c694e8affea3d60001b84848080601f01602080910402602001604051908101604052809392919081815260200183838082843760009201919091525061049f92505050565b505b5060408051602081019091526000815261022e565b61022b8383610775565b90505b915050805190602001f35b34801561024557600080fd5b5061024e60c881565b6040519081526020015b60405180910390f35b34801561026d57600080fd5b5061028161027c36600461307e565b610951565b6040519015158152602001610258565b34801561029d57600080fd5b506102b16102ac366004613160565b610a3c565b6040516001600160e01b03199091168152602001610258565b6102dd6102d83660046132c8565b610bf6565b6040516102589190613420565b6102fd6102f8366004613482565b610d08565b60405161025891906134d7565b34801561031657600080fd5b506102fd6103253660046134ea565b610df1565b34801561033657600080fd5b506102dd610345366004613503565b610dfc565b6102fd610358366004613160565b61049f565b34801561036957600080fd5b50610191610f58565b34801561037e57600080fd5b506101916110c4565b610191610395366004613160565b611250565b3480156103a657600080fd5b506000546201000090046001600160a01b03165b6040516001600160a01b039091168152602001610258565b6101916103e0366004613578565b611339565b6101916103f33660046135d2565b611512565b34801561040457600080fd5b506102dd6104133660046135ed565b611633565b34801561042457600080fd5b506003546001600160a01b03166103ba565b34801561044257600080fd5b506101916104513660046135d2565b6116de565b34801561046257600080fd5b506102fd6040518060400160405280600681526020017f302e31322e31000000000000000000000000000000000000000000000000000081525081565b606034158015906104d057507f9c4705229491d365fb5434052e12a386d6771d976bea61070a8c694e8affea3d8314155b1561053b576105397f9c4705229491d365fb5434052e12a386d6771d976bea61070a8c694e8affea3d60001b6000368080601f01602080910402602001604051908101604052809392919081815260200183838082843760009201919091525061049f92505050565b505b60006105667f0cfc51aec37c55a4d0b1a65c6255c4bf2fbdf6277f3cc0730c45b828b6db8b47611890565b90506060601482511061061757600061057e83613622565b60601c905061059481635122dded60e11b611932565b1561061557604051635122dded60e11b81526001600160a01b0382169063a245bbda906105cb90339034908b908b9060040161365e565b6000604051808303816000875af11580156105ea573d6000803e3d6000fd5b505050506040513d6000823e601f3d908101601f19168201604052610612919081019061368c565b91505b505b60006106437f0cfc51aec37c55a4d0b100000000000000000000000000000000000000000000876119d0565b9050600061065082611890565b90506060601482511061070157600061066883613622565b60601c905061067e81635122dded60e11b611932565b156106ff57604051635122dded60e11b81526001600160a01b0382169063a245bbda906106b590339034908e908e9060040161365e565b6000604051808303816000875af11580156106d4573d6000803e3d6000fd5b505050506040513d6000823e601f3d908101601f191682016040526106fc919081019061368c565b91505b505b83816040516020016107149291906136fa565b60405160208183030381529060405295508734336001600160a01b03167f9c3ba68eb5742b8e3961aea0afc7371a71bf433c8a67a831803b64c064a178c28a8a6040516107629291906136fa565b60405180910390a4505050505092915050565b606060008061078f6000356001600160e01b031916611a39565b91509150346000141580156107a2575080155b1561080c5761080a7f9c4705229491d365fb5434052e12a386d6771d976bea61070a8c694e8affea3d60001b86868080601f01602080910402602001604051908101604052809392919081815260200183838082843760009201919091525061049f92505050565b505b6000356001600160e01b03191615801561082d57506001600160a01b038216155b1561084b57604051806020016040528060008152509250505061094b565b6001600160a01b03821661089e576040517fbb370b2b0000000000000000000000000000000000000000000000000000000081526001600160e01b03196000351660048201526024015b60405180910390fd5b600080836001600160a01b0316836108b75760006108b9565b345b888833346040516020016108d0949392919061371f565b60408051601f19818403018152908290526108ea9161374f565b60006040518083038185875af1925050503d8060008114610927576040519150601f19603f3d011682016040523d82523d6000602084013e61092c565b606091505b5091509150811561094257935061094b92505050565b80518060208301fd5b92915050565b60006001600160e01b03198216630b135d3f60e11b148061099b57506001600160e01b031982167f24871b3d00000000000000000000000000000000000000000000000000000000145b806109b657506001600160e01b03198216631aed5a8560e21b145b806109ea57506001600160e01b031982167f94be599900000000000000000000000000000000000000000000000000000000145b80610a1e57506001600160e01b031982167f1a0eb6a500000000000000000000000000000000000000000000000000000000145b80610a2d5750610a2d82611b30565b8061094b575061094b82611b6e565b600080546201000090046001600160a01b0316803b15610b7657600080826001600160a01b0316631626ba7e60e01b8787604051602401610a7e92919061376b565b60408051601f198184030181529181526020820180517bffffffffffffffffffffffffffffffffffffffffffffffffffffffff166001600160e01b0319909416939093179092529051610ad1919061374f565b600060405180830381855afa9150503d8060008114610b0c576040519150601f19603f3d011682016040523d82523d6000602084013e610b11565b606091505b50915091506000828015610b26575081516020145b8015610b4d57508151630b135d3f60e11b90610b4b9084016020908101908501613784565b145b905080610b62576001600160e01b0319610b6b565b630b135d3f60e11b5b94505050505061094b565b600080610b838686611bac565b90925090506000816004811115610b9c57610b9c61379d565b14610bb557506001600160e01b0319925061094b915050565b826001600160a01b0316826001600160a01b031614610bdc576001600160e01b0319610be5565b630b135d3f60e11b5b935050505061094b565b5092915050565b60603415610c81576040516001600160e01b03196000351660208201527f9c4705229491d365fb5434052e12a386d6771d976bea61070a8c694e8affea3d90349033907f9c3ba68eb5742b8e3961aea0afc7371a71bf433c8a67a831803b64c064a178c29060240160408051601f1981840301815290829052610c78916137b3565b60405180910390a45b6000546201000090046001600160a01b031633819003610caf57610ca786868686611bf1565b915050610d00565b6000610cba82611d81565b90506000610cca88888888611bf1565b90508115610cfb57610cfb8382604051602001610ce79190613420565b604051602081830303815290604052611f4d565b925050505b949350505050565b60603415610d93576040516001600160e01b03196000351660208201527f9c4705229491d365fb5434052e12a386d6771d976bea61070a8c694e8affea3d90349033907f9c3ba68eb5742b8e3961aea0afc7371a71bf433c8a67a831803b64c064a178c29060240160408051601f1981840301815290829052610d8a916137b3565b60405180910390a45b6000546201000090046001600160a01b031633819003610db957610ca786868686612083565b6000610dc482611d81565b90506000610dd488888888612083565b90508115610cfb57610cfb8382604051602001610ce791906134d7565b606061094b82611890565b60608167ffffffffffffffff811115610e1757610e1761309b565b604051908082528060200260200182016040528015610e4a57816020015b6060815260200190600190039081610e355790505b50905060005b82811015610bef5760008030868685818110610e6e57610e6e6137dd565b9050602002810190610e8091906137f3565b604051610e8e92919061383a565b600060405180830381855af49150503d8060008114610ec9576040519150601f19603f3d011682016040523d82523d6000602084013e610ece565b606091505b509150915081610f3057805115610ee85780518082602001fd5b60405162461bcd60e51b815260206004820152601960248201527f4c5350303a20626174636843616c6c73207265766572746564000000000000006044820152606401610895565b80848481518110610f4357610f436137dd565b60209081029190910101525050600101610e50565b6000546201000090046001600160a01b03163381900361100d576000546201000090046001600160a01b0316610f8c6121d9565b6000546201000090046001600160a01b031661100957604080516001600160a01b0384166020820152600091810191909152611009907fa4e59c931d14f7c8a7a35027f92ee40b5f2886b9fdcdb78f30bc5ecce5a2f814906060015b60408051601f198184030181529190526001600160a01b03841691906122e5565b5050565b600061101882611d81565b905060006110356000546001600160a01b03620100009091041690565b905061103f6121d9565b6000546201000090046001600160a01b031661109f57604080516001600160a01b038516602082015260009181019190915261109f907fa4e59c931d14f7c8a7a35027f92ee40b5f2886b9fdcdb78f30bc5ecce5a2f81490606001610fe8565b81156110be576110be8360405180602001604052806000815250611f4d565b50505b50565b600354600160a01b900460ff1615611108576040517f5758dd0700000000000000000000000000000000000000000000000000000000815260040160405180910390fd5b600080546003546001600160a01b03620100009092048216929116903382146111595761113482611d81565b905061113f82612379565b600380546001600160a01b03191690556000600255611161565b611161612410565b604080516001600160a01b0380861660208301528416918101919091526111c9907fa4e59c931d14f7c8a7a35027f92ee40b5f2886b9fdcdb78f30bc5ecce5a2f814906060015b60408051601f198184030181529190526001600160a01b03861691906122e5565b604080516001600160a01b038086166020830152841691810191909152611231907fceca317f109c43507871523e82dc2a3cc64dfa18f12da0b6db14f6e23f995538906060015b60408051601f198184030181529190526001600160a01b03851691906122e5565b80156110be576110be8260405180602001604052806000815250611f4d565b34156112d9576040516001600160e01b03196000351660208201527f9c4705229491d365fb5434052e12a386d6771d976bea61070a8c694e8affea3d90349033907f9c3ba68eb5742b8e3961aea0afc7371a71bf433c8a67a831803b64c064a178c29060240160408051601f19818403018152908290526112d0916137b3565b60405180910390a45b6000546201000090046001600160a01b0316338190036112fd576110be8383612476565b600061130882611d81565b90506113148484612476565b8015611333576113338260405180602001604052806000815250611f4d565b50505050565b34156113c2576040516001600160e01b03196000351660208201527f9c4705229491d365fb5434052e12a386d6771d976bea61070a8c694e8affea3d90349033907f9c3ba68eb5742b8e3961aea0afc7371a71bf433c8a67a831803b64c064a178c29060240160408051601f19818403018152908290526113b9916137b3565b60405180910390a45b80518251146113fd576040517f3bcc897900000000000000000000000000000000000000000000000000000000815260040160405180910390fd5b8151600003611438576040517f97da5f9500000000000000000000000000000000000000000000000000000000815260040160405180910390fd5b6000546201000090046001600160a01b0316338190036114a25760005b83518110156113335761149a848281518110611473576114736137dd565b602002602001015184838151811061148d5761148d6137dd565b6020026020010151612476565b600101611455565b60006114ad82611d81565b905060005b84518110156114f2576114ea8582815181106114d0576114d06137dd565b602002602001015185838151811061148d5761148d6137dd565b6001016114b2565b508015611333576113338260405180602001604052806000815250611f4d565b600054610100900460ff16158080156115325750600054600160ff909116105b8061154c5750303b15801561154c575060005460ff166001145b6115be5760405162461bcd60e51b815260206004820152602e60248201527f496e697469616c697a61626c653a20636f6e747261637420697320616c72656160448201527f647920696e697469616c697a65640000000000000000000000000000000000006064820152608401610895565b6000805460ff1916600117905580156115e1576000805461ff0019166101001790555b6115ea826124ea565b8015611009576000805461ff0019169055604051600181527f7f26b83ff96e1f2b6a682f133852f6798a09c465da95921460cefb38474024989060200160405180910390a15050565b6060815167ffffffffffffffff81111561164f5761164f61309b565b60405190808252806020026020018201604052801561168257816020015b606081526020019060019003908161166d5790505b50905060005b82518110156116d8576116b38382815181106116a6576116a66137dd565b6020026020010151611890565b8282815181106116c5576116c56137dd565b6020908102919091010152600101611688565b50919050565b6000546201000090046001600160a01b0316338190036117b0576003805460ff60a01b1916600160a01b179055611714826125c0565b816001600160a01b0316816001600160a01b03167f38d16b8cac22d99fc7c124b9cd0de2d3fa1faef420bfe791d8c362d765e2270060405160405180910390a3604080516001600160a01b03808416602083015284169181019190915261179f907fe17117c9d2665d1dbeb479ed8058bbebde3c50ac50e2e65619f60006caac692690606001611210565b6003805460ff60a01b191690555050565b60006117bb82611d81565b6003805460ff60a01b1916600160a01b17905590506117d9836125c0565b826001600160a01b0316826001600160a01b03167f38d16b8cac22d99fc7c124b9cd0de2d3fa1faef420bfe791d8c362d765e2270060405160405180910390a3604080516001600160a01b038085166020830152851691810191909152611864907fe17117c9d2665d1dbeb479ed8058bbebde3c50ac50e2e65619f60006caac6926906060016111a8565b6003805460ff60a01b1916905580156110be576110be8260405180602001604052806000815250611f4d565b60008181526001602052604090208054606091906118ad9061384a565b80601f01602080910402602001604051908101604052809291908181526020018280546118d99061384a565b80156119265780601f106118fb57610100808354040283529160200191611926565b820191906000526020600020905b81548152906001019060200180831161190957829003601f168201915b50505050509050919050565b604080516001600160e01b03198316602480830191909152825180830390910181526044909101909152602080820180517bffffffffffffffffffffffffffffffffffffffffffffffffffffffff166301ffc9a760e01b178152825160009392849283928392918391908a617530fa92503d915060005190508280156119b9575060208210155b80156119c55750600081115b979650505050505050565b604080517fffffffffffffffffffff00000000000000000000000000000000000000000000841660208201526000602a82018190526bffffffffffffffffffffffff198416602c83015291829101604051602081830303815290604052905080610d009061387e565b60008080611a717fcee78b4094da86011096000000000000000000000000000000000000000000006001600160e01b031986166119d0565b90506000611a7e82611890565b9050601481511015611a97575060009485945092505050565b8051601503611b185780601481518110611ab357611ab36137dd565b01602001517fff00000000000000000000000000000000000000000000000000000000000000167f010000000000000000000000000000000000000000000000000000000000000003611b1857611b0981613622565b60601c95600195509350505050565b611b2181613622565b60601c95600095509350505050565b60006001600160e01b031982167fa918fa6b00000000000000000000000000000000000000000000000000000000148061094b575061094b82612629565b600080611b816301ffc9a760e01b611a39565b5090506001600160a01b038116611b9b5750600092915050565b611ba58184611932565b9392505050565b6000808251604103611be25760208301516040840151606085015160001a611bd687828585612667565b94509450505050611bea565b506000905060025b9250929050565b606083518551141580611c12575082518451141580611c1257508151835114155b15611c49576040517f3ff55f4d00000000000000000000000000000000000000000000000000000000815260040160405180910390fd5b8451600003611c84576040517fe9ad2b5f00000000000000000000000000000000000000000000000000000000815260040160405180910390fd5b6000855167ffffffffffffffff811115611ca057611ca061309b565b604051908082528060200260200182016040528015611cd357816020015b6060815260200190600190039081611cbe5790505b50905060005b8651811015611d7757611d52878281518110611cf757611cf76137dd565b6020026020010151878381518110611d1157611d116137dd565b6020026020010151878481518110611d2b57611d2b6137dd565b6020026020010151878581518110611d4557611d456137dd565b6020026020010151612083565b828281518110611d6457611d646137dd565b6020908102919091010152600101611cd9565b5095945050505050565b6000816001600160a01b03163b600003611dd2576040517f0c3923010000000000000000000000000000000000000000000000000000000081526001600160a01b0383166004820152602401610895565b6040517fde928f140000000000000000000000000000000000000000000000000000000081526001600160a01b0383169063de928f1490611e2290339030908290349060009036906004016138a2565b6020604051808303816000875af1925050508015611e5d575060408051601f3d908101601f19168201909252611e5a918101906138ff565b60015b611e9c573d808015611e8b576040519150601f19603f3d011682016040523d82523d6000602084013e611e90565b606091505b506116d860008261272b565b7fffffff000000000000000000000000000000000000000000000000000000000081167fde928f000000000000000000000000000000000000000000000000000000000014611f1157604051639d6741e360e01b8152600060048201526001600160e01b031982166024820152604401610895565b8060031a60f81b7effffffffffffffffffffffffffffffffffffffffffffffffffffffffffffff1916600160f81b14915050919050565b919050565b816001600160a01b031663d3fc45d333303334600036604051602001611f789695949392919061391c565b60405160208183030381529060405280519060200120836040518363ffffffff1660e01b8152600401611fac92919061376b565b6020604051808303816000875af1925050508015611fe7575060408051601f3d908101601f19168201909252611fe4918101906138ff565b60015b612026573d808015612015576040519150601f19603f3d011682016040523d82523d6000602084013e61201a565b606091505b506110be60018261272b565b6001600160e01b031981167fd3fc45d300000000000000000000000000000000000000000000000000000000146110be57604051639d6741e360e01b8152600160048201526001600160e01b031982166024820152604401610895565b60608461209c57612095848484612771565b9050610d00565b600185036120d6576001600160a01b038416156120cc57604051631820c12560e11b815260040160405180910390fd5b612095838361289d565b60028503612110576001600160a01b0384161561210657604051631820c12560e11b815260040160405180910390fd5b61209583836129b7565b6003850361215a578215612150576040517f72f2bc6a00000000000000000000000000000000000000000000000000000000815260040160405180910390fd5b6120958483612aa1565b600485036121a457821561219a576040517f5ac8313500000000000000000000000000000000000000000000000000000000815260040160405180910390fd5b6120958483612ba0565b6040517f7583b3bc00000000000000000000000000000000000000000000000000000000815260048101869052602401610895565b60025443906000906121ed9060c890613982565b905060006121fc60c883613982565b90508083118061220c5750600254155b15612254576002839055600380546001600160a01b03191690556040517f81b7f830f1f0084db6497c486cbe6974c86488dcc4e3738eab94ab6d6b1653e790600090a1505050565b81831015612298576040517f1b0809420000000000000000000000000000000000000000000000000000000081526004810183905260248101829052604401610895565b6122a26000612379565b60006002819055600380546001600160a01b03191690556040517fd1f66c3d2bc1993a86be5e3d33709d98f0442381befcedd29f578b9b2506b1ce9190a1505050565b6122ff6001600160a01b038416631aed5a8560e21b611932565b156110be57604051631aed5a8560e21b81526001600160a01b03841690636bb56a1490612332908590859060040161376b565b6000604051808303816000875af1158015612351573d6000803e3d6000fd5b505050506040513d6000823e601f3d908101601f19168201604052611333919081019061368c565b6000546001600160a01b038281166201000090920416146110c157600080546040516001600160a01b03808516936201000090930416917f8be0079c531659141344cd1fd0a4f28419497f9722a3daafe3b4186f6b6457e091a3600080546001600160a01b03831662010000027fffffffffffffffffffff0000000000000000000000000000000000000000ffff90911617905550565b6003546001600160a01b03163314612456576040517f451e4528000000000000000000000000000000000000000000000000000000008152336004820152602401610895565b61245f33612379565b600380546001600160a01b03191690556000600255565b600082815260016020526040902061248e82826139e3565b50817fece574603820d07bc9b91f2a932baadf4628aabcb8afba49776529c14a6104b2610100835111156124cf576124ca836000610100612c4c565b6124d1565b825b6040516124de91906134d7565b60405180910390a25050565b600054610100900460ff166125555760405162461bcd60e51b815260206004820152602b60248201527f496e697469616c697a61626c653a20636f6e7472616374206973206e6f74206960448201526a6e697469616c697a696e6760a81b6064820152608401610895565b61255e81612d74565b6110c17feafec4d89fa9619884b600005ef83ad9559033e6e941db7d7c495acdce61634760001b6040518060400160405280600481526020017f5ef83ad900000000000000000000000000000000000000000000000000000000815250612476565b306001600160a01b03821603612602576040517fe052a6f800000000000000000000000000000000000000000000000000000000815260040160405180910390fd5b600380546001600160a01b0319166001600160a01b03929092169190911790556000600255565b60006001600160e01b031982167f629aa69400000000000000000000000000000000000000000000000000000000148061094b575061094b82612e6d565b6000807f7fffffffffffffffffffffffffffffff5d576e7357a4501ddfe92f46681b20a083111561269e5750600090506003612722565b6040805160008082526020820180845289905260ff881692820192909252606081018690526080810185905260019060a0016020604051602081039080840390855afa1580156126f2573d6000803e3d6000fd5b5050604051601f1901519150506001600160a01b03811661271b57600060019250925050612722565b9150600090505b94509492505050565b80511561273b5780518082602001fd5b6040517f8c6a8ae30000000000000000000000000000000000000000000000000000000081528215156004820152602401610895565b60608247101561279d576040516301bf351f60e31b815247600482015260248101849052604401610895565b826001600160a01b03851660007f4810874456b8e6487bd861375cf6abd8e1c8bb5858c8ce36a86a04dabfac199e6127d486613aa3565b6040516001600160e01b0319909116815260200160405180910390a4600080856001600160a01b0316858560405161280c919061374f565b60006040518083038185875af1925050503d8060008114612849576040519150601f19603f3d011682016040523d82523d6000602084013e61284e565b606091505b509150915061289382826040518060400160405280601681526020017f455243373235583a20556e6b6e6f776e204572726f7200000000000000000000815250612ebb565b9695505050505050565b6060824710156128c9576040516301bf351f60e31b815247600482015260248101849052604401610895565b81516000036128eb5760405163b81cd8d960e01b815260040160405180910390fd5b600082516020840185f090506001600160a01b038116612937576040517f0b07489b00000000000000000000000000000000000000000000000000000000815260040160405180910390fd5b83816001600160a01b031660017fa1fb700aaee2ae4a2ff6f91ce7eba292f89c2f5488b8ec4c5c5c8150692595c36000801b60405161297891815260200190565b60405180910390a46040516bffffffffffffffffffffffff19606083901b16602082015260340160405160208183030381529060405291505092915050565b606081516000036129db5760405163b81cd8d960e01b815260040160405180910390fd5b60006129f483602085516129ef9190613ad7565b612ed4565b90506000612a1184600060208751612a0c9190613ad7565b612c4c565b90506000612a20868484612f3a565b905085816001600160a01b031660027fa1fb700aaee2ae4a2ff6f91ce7eba292f89c2f5488b8ec4c5c5c8150692595c386604051612a6091815260200190565b60405180910390a46040516bffffffffffffffffffffffff19606083901b166020820152603401604051602081830303815290604052935050505092915050565b606060006001600160a01b03841660037f4810874456b8e6487bd861375cf6abd8e1c8bb5858c8ce36a86a04dabfac199e612adb86613aa3565b6040516001600160e01b0319909116815260200160405180910390a4600080846001600160a01b031684604051612b12919061374f565b600060405180830381855afa9150503d8060008114612b4d576040519150601f19603f3d011682016040523d82523d6000602084013e612b52565b606091505b5091509150612b9782826040518060400160405280601681526020017f455243373235583a20556e6b6e6f776e204572726f7200000000000000000000815250612ebb565b95945050505050565b606060006001600160a01b03841660047f4810874456b8e6487bd861375cf6abd8e1c8bb5858c8ce36a86a04dabfac199e612bda86613aa3565b6040516001600160e01b0319909116815260200160405180910390a4600080846001600160a01b031684604051612c11919061374f565b600060405180830381855af49150503d8060008114612b4d576040519150601f19603f3d011682016040523d82523d6000602084013e612b52565b606081612c5a81601f613982565b1015612ca85760405162461bcd60e51b815260206004820152600e60248201527f736c6963655f6f766572666c6f770000000000000000000000000000000000006044820152606401610895565b612cb28284613982565b84511015612d025760405162461bcd60e51b815260206004820152601160248201527f736c6963655f6f75744f66426f756e64730000000000000000000000000000006044820152606401610895565b606082158015612d215760405191506000825260208201604052612d6b565b6040519150601f8416801560200281840101858101878315602002848b0101015b81831015612d5a578051835260209283019201612d42565b5050858452601f01601f1916604052505b50949350505050565b600054610100900460ff16612ddf5760405162461bcd60e51b815260206004820152602b60248201527f496e697469616c697a61626c653a20636f6e7472616374206973206e6f74206960448201526a6e697469616c697a696e6760a81b6064820152608401610895565b3415612e64577f9c4705229491d365fb5434052e12a386d6771d976bea61070a8c694e8affea3d60001b34336001600160a01b03167f9c3ba68eb5742b8e3961aea0afc7371a71bf433c8a67a831803b64c064a178c2604051612e5b906040808252600090820181905260606020830181905282015260800190565b60405180910390a45b6110c181612379565b60006001600160e01b031982167f7545acac00000000000000000000000000000000000000000000000000000000148061094b57506301ffc9a760e01b6001600160e01b031983161461094b565b60608315612eca575081611ba5565b611ba5838361303e565b6000612ee1826020613982565b83511015612f315760405162461bcd60e51b815260206004820152601560248201527f746f427974657333325f6f75744f66426f756e647300000000000000000000006044820152606401610895565b50016020015190565b600083471015612f8c5760405162461bcd60e51b815260206004820152601d60248201527f437265617465323a20696e73756666696369656e742062616c616e63650000006044820152606401610895565b8151600003612fdd5760405162461bcd60e51b815260206004820181905260248201527f437265617465323a2062797465636f6465206c656e677468206973207a65726f6044820152606401610895565b8282516020840186f590506001600160a01b038116611ba55760405162461bcd60e51b815260206004820152601960248201527f437265617465323a204661696c6564206f6e206465706c6f79000000000000006044820152606401610895565b81511561304e5781518083602001fd5b8060405162461bcd60e51b815260040161089591906134d7565b6001600160e01b0319811681146110c157600080fd5b60006020828403121561309057600080fd5b8135611ba581613068565b634e487b7160e01b600052604160045260246000fd5b604051601f8201601f1916810167ffffffffffffffff811182821017156130da576130da61309b565b604052919050565b600067ffffffffffffffff8211156130fc576130fc61309b565b50601f01601f191660200190565b600082601f83011261311b57600080fd5b813561312e613129826130e2565b6130b1565b81815284602083860101111561314357600080fd5b816020850160208301376000918101602001919091529392505050565b6000806040838503121561317357600080fd5b82359150602083013567ffffffffffffffff81111561319157600080fd5b61319d8582860161310a565b9150509250929050565b600067ffffffffffffffff8211156131c1576131c161309b565b5060051b60200190565b600082601f8301126131dc57600080fd5b813560206131ec613129836131a7565b82815260059290921b8401810191818101908684111561320b57600080fd5b8286015b84811015613226578035835291830191830161320f565b509695505050505050565b80356001600160a01b0381168114611f4857600080fd5b600082601f83011261325957600080fd5b81356020613269613129836131a7565b82815260059290921b8401810191818101908684111561328857600080fd5b8286015b8481101561322657803567ffffffffffffffff8111156132ac5760008081fd5b6132ba8986838b010161310a565b84525091830191830161328c565b600080600080608085870312156132de57600080fd5b843567ffffffffffffffff808211156132f657600080fd5b613302888389016131cb565b955060209150818701358181111561331957600080fd5b8701601f8101891361332a57600080fd5b8035613338613129826131a7565b81815260059190911b8201840190848101908b83111561335757600080fd5b928501925b8284101561337c5761336d84613231565b8252928501929085019061335c565b9750505050604087013591508082111561339557600080fd5b6133a1888389016131cb565b935060608701359150808211156133b757600080fd5b506133c487828801613248565b91505092959194509250565b60005b838110156133eb5781810151838201526020016133d3565b50506000910152565b6000815180845261340c8160208601602086016133d0565b601f01601f19169290920160200192915050565b6000602080830181845280855180835260408601915060408160051b870101925083870160005b8281101561347557603f198886030184526134638583516133f4565b94509285019290850190600101613447565b5092979650505050505050565b6000806000806080858703121561349857600080fd5b843593506134a860208601613231565b925060408501359150606085013567ffffffffffffffff8111156134cb57600080fd5b6133c48782880161310a565b602081526000611ba560208301846133f4565b6000602082840312156134fc57600080fd5b5035919050565b6000806020838503121561351657600080fd5b823567ffffffffffffffff8082111561352e57600080fd5b818501915085601f83011261354257600080fd5b81358181111561355157600080fd5b8660208260051b850101111561356657600080fd5b60209290920196919550909350505050565b6000806040838503121561358b57600080fd5b823567ffffffffffffffff808211156135a357600080fd5b6135af868387016131cb565b935060208501359150808211156135c557600080fd5b5061319d85828601613248565b6000602082840312156135e457600080fd5b611ba582613231565b6000602082840312156135ff57600080fd5b813567ffffffffffffffff81111561361657600080fd5b610d00848285016131cb565b805160208201516bffffffffffffffffffffffff1980821692919060148310156136565780818460140360031b1b83161693505b505050919050565b6001600160a01b038516815283602082015282604082015260806060820152600061289360808301846133f4565b60006020828403121561369e57600080fd5b815167ffffffffffffffff8111156136b557600080fd5b8201601f810184136136c657600080fd5b80516136d4613129826130e2565b8181528560208385010111156136e957600080fd5b612b978260208301602086016133d0565b60408152600061370d60408301856133f4565b8281036020840152612b9781856133f4565b8385823760609290921b6bffffffffffffffffffffffff1916919092019081526014810191909152603401919050565b600082516137618184602087016133d0565b9190910192915050565b828152604060208201526000610d0060408301846133f4565b60006020828403121561379657600080fd5b5051919050565b634e487b7160e01b600052602160045260246000fd5b6040815260006137c660408301846133f4565b828103602093840152600081529190910192915050565b634e487b7160e01b600052603260045260246000fd5b6000808335601e1984360301811261380a57600080fd5b83018035915067ffffffffffffffff82111561382557600080fd5b602001915036819003821315611bea57600080fd5b8183823760009101908152919050565b600181811c9082168061385e57607f821691505b6020821081036116d857634e487b7160e01b600052602260045260246000fd5b805160208083015191908110156116d85760001960209190910360031b1b16919050565b60006001600160a01b038089168352808816602084015280871660408401525084606083015260a060808301528260a0830152828460c0840137600060c0848401015260c0601f19601f8501168301019050979650505050505050565b60006020828403121561391157600080fd5b8151611ba581613068565b60006bffffffffffffffffffffffff19808960601b168352808860601b166014840152808760601b1660288401525084603c8301528284605c8401375060009101605c0190815295945050505050565b634e487b7160e01b600052601160045260246000fd5b8082018082111561094b5761094b61396c565b601f8211156110be57600081815260208120601f850160051c810160208610156139bc5750805b601f850160051c820191505b818110156139db578281556001016139c8565b505050505050565b815167ffffffffffffffff8111156139fd576139fd61309b565b613a1181613a0b845461384a565b84613995565b602080601f831160018114613a465760008415613a2e5750858301515b600019600386901b1c1916600185901b1785556139db565b600085815260208120601f198616915b82811015613a7557888601518255948401946001909101908401613a56565b5085821015613a935787850151600019600388901b60f8161c191681555b5050505050600190811b01905550565b6000815160208301516001600160e01b0319808216935060048310156136565760049290920360031b82901b161692915050565b8181038181111561094b5761094b61396c56fea2646970667358221220d05654e911d727f2d56fbd036f6592e4420697990af911b9246f38ddf333979d64736f6c63430008110033",
  "devdoc": {
    "author": "Fabian Vogelsteller <fabian@lukso.network>",
    "details": "Implementation of the ERC725Account + LSP1 universalReceiver",
    "errors": {
      "ERC725X_ContractDeploymentFailed()": [
        {
          "details": "Reverts when contract deployment failed via {execute} or {executeBatch} functions, This error can occur using either operation type 1 (`CREATE`) or 2 (`CREATE2`)."
        }
      ],
      "ERC725X_CreateOperationsRequireEmptyRecipientAddress()": [
        {
          "details": "Reverts when passing a `to` address that is not `address(0)` (= address zero) while deploying a contract via {execute} or {executeBatch} functions. This error can occur using either operation type 1 (`CREATE`) or 2 (`CREATE2`)."
        }
      ],
      "ERC725X_ExecuteParametersEmptyArray()": [
        {
          "details": "Reverts when one of the array parameter provided to the {executeBatch} function is an empty array."
        }
      ],
      "ERC725X_ExecuteParametersLengthMismatch()": [
        {
          "details": "Reverts when there is not the same number of elements in the `operationTypes`, `targets` addresses, `values`, and `datas` array parameters provided when calling the {executeBatch} function."
        }
      ],
      "ERC725X_InsufficientBalance(uint256,uint256)": [
        {
          "details": "Reverts when trying to send more native tokens `value` than available in current `balance`.",
          "params": {
            "balance": "The balance of native tokens of the ERC725X smart contract.",
            "value": "The amount of native tokens sent via `ERC725X.execute(...)`/`ERC725X.executeBatch(...)` that is greater than the contract's `balance`."
          }
        }
      ],
      "ERC725X_MsgValueDisallowedInDelegateCall()": [
        {
          "details": "Reverts when trying to send native tokens (`value` / `values[]` parameter of {execute} or {executeBatch} functions) while making a `delegatecall` (`operationType == 4`). Sending native tokens via `staticcall` is not allowed because `msg.value` is persisting."
        }
      ],
      "ERC725X_MsgValueDisallowedInStaticCall()": [
        {
          "details": "Reverts when trying to send native tokens (`value` / `values[]` parameter of {execute} or {executeBatch} functions) while making a `staticcall` (`operationType == 3`). Sending native tokens via `staticcall` is not allowed because it is a state changing operation."
        }
      ],
      "ERC725X_NoContractBytecodeProvided()": [
        {
          "details": "Reverts when no contract bytecode was provided as parameter when trying to deploy a contract via {execute} or {executeBatch}. This error can occur using either operation type 1 (`CREATE`) or 2 (`CREATE2`)."
        }
      ],
      "ERC725X_UnknownOperationType(uint256)": [
        {
          "details": "Reverts when the `operationTypeProvided` is none of the default operation types available. (CALL = 0; CREATE = 1; CREATE2 = 2; STATICCALL = 3; DELEGATECALL = 4)",
          "params": {
            "operationTypeProvided": "The unrecognised operation type number provided to `ERC725X.execute(...)`/`ERC725X.executeBatch(...)`."
          }
        }
      ],
      "ERC725Y_DataKeysValuesEmptyArray()": [
        {
          "details": "Reverts when one of the array parameter provided to {setDataBatch} function is an empty array."
        }
      ],
      "ERC725Y_DataKeysValuesLengthMismatch()": [
        {
          "details": "Reverts when there is not the same number of elements in the `datakeys` and `dataValues` array parameters provided when calling the {setDataBatch} function."
        }
      ],
      "LSP14CallerNotPendingOwner(address)": [
        {
          "details": "Reverts when the `caller` that is trying to accept ownership of the contract is not the pending owner.",
          "params": {
            "caller": "The address that tried to accept ownership."
          }
        }
      ],
      "LSP14CannotTransferOwnershipToSelf()": [
        {
          "details": "Reverts when trying to transfer ownership to the `address(this)`."
        }
      ],
      "LSP14MustAcceptOwnershipInSeparateTransaction()": [
        {
          "details": "Reverts when pending owner accept ownership in the same transaction of transferring ownership."
        }
      ],
      "LSP14NotInRenounceOwnershipInterval(uint256,uint256)": [
        {
          "details": "Reverts when trying to renounce ownership before the initial confirmation delay.",
          "params": {
            "renounceOwnershipEnd": "The end timestamp when one can confirm the renouncement of ownership.",
            "renounceOwnershipStart": "The start timestamp when one can confirm the renouncement of ownership."
          }
        }
      ],
      "LSP20CallVerificationFailed(bool,bytes4)": [
        {
          "details": "reverts when the call to the owner does not return the LSP20 success value",
          "params": {
            "postCall": "True if the execution call was done, False otherwise",
            "returnedStatus": "The bytes4 decoded data returned by the logic verifier."
          }
        }
      ],
      "LSP20CallingVerifierFailed(bool)": [
        {
          "details": "reverts when the call to the owner fail with no revert reason",
          "params": {
            "postCall": "True if the execution call was done, False otherwise"
          }
        }
      ],
      "LSP20EOACannotVerifyCall(address)": [
        {
          "details": "Reverts when the logic verifier is an Externally Owned Account (EOA) that cannot return the LSP20 success value.",
          "params": {
            "logicVerifier": "The address of the logic verifier"
          }
        }
      ],
      "NoExtensionFoundForFunctionSelector(bytes4)": [
        {
          "details": "reverts when there is no extension for the function selector being called with"
        }
      ]
    },
    "kind": "dev",
    "methods": {
      "acceptOwnership()": {
        "custom:requirements": "- Only the {pendingOwner} can call this function. - When notifying the previous owner via LSP1, the typeId used must be the `keccak256(...)` hash of [LSP0OwnershipTransferred_SenderNotification]. - When notifying the new owner via LSP1, the typeId used must be the `keccak256(...)` hash of [LSP0OwnershipTransferred_RecipientNotification].",
        "details": "Transfer ownership of the contract from the current {owner()} to the {pendingOwner()}. Once this function is called: - The current {owner()} will lose access to the functions restricted to the {owner()} only. - The {pendingOwner()} will gain access to the functions restricted to the {owner()} only."
      },
      "batchCalls(bytes[])": {
        "custom:info": "It's not possible to send value along the functions call due to the use of `delegatecall`.",
        "details": "Allows a caller to batch different function calls in one call. Perform a `delegatecall` on self, to call different functions with preserving the context.",
        "params": {
          "data": "An array of ABI encoded function calls to be called on the contract."
        },
        "returns": {
          "results": "An array of abi-encoded data returned by the functions executed."
        }
      },
      "constructor": {
        "details": "Locks the base contract on deployment, so that it cannot be initialized, owned and controlled by anyone after it has been deployed. This is intended so that the sole purpose of this contract is to be used as a base contract behind a proxy."
      },
      "execute(uint256,address,uint256,bytes)": {
        "custom:events": "- {Executed} event for each call that uses under `operationType`: `CALL` (0), `STATICCALL` (3) and `DELEGATECALL` (4). - {ContractCreated} event, when a contract is created under `operationType`: `CREATE` (1) and `CREATE2` (2). - {UniversalReceiver} event when receiving native tokens.",
        "custom:requirements": "- Can be only called by the {owner} or by an authorised address that pass the verification check performed on the owner. - If a `value` is provided, the contract must have at least this amount in its balance to execute successfully. - If the operation type is `CREATE` (1) or `CREATE2` (2), `target` must be `address(0)`. - If the operation type is `STATICCALL` (3) or `DELEGATECALL` (4), `value` transfer is disallowed and must be 0.",
        "details": "Generic executor function to: - send native tokens to any address. - interact with any contract by passing an abi-encoded function call in the `data` parameter. - deploy a contract by providing its creation bytecode in the `data` parameter.",
        "params": {
          "data": "The call data, or the creation bytecode of the contract to deploy if `operationType` is `1` or `2`.",
          "operationType": "The operation type used: CALL = 0; CREATE = 1; CREATE2 = 2; STATICCALL = 3; DELEGATECALL = 4",
          "target": "The address of the EOA or smart contract.  (unused if a contract is created via operation type 1 or 2)",
          "value": "The amount of native tokens to transfer (in Wei)"
        }
      },
      "executeBatch(uint256[],address[],uint256[],bytes[])": {
        "custom:events": "- {Executed} event for each call that uses under `operationType`: `CALL` (0), `STATICCALL` (3) and `DELEGATECALL` (4). (each iteration) - {ContractCreated} event, when a contract is created under `operationType`: `CREATE` (1) and `CREATE2` (2) (each iteration) - {UniversalReceiver} event when receiving native tokens.",
        "custom:requirements": "- The length of the parameters provided must be equal. - Can be only called by the {owner} or by an authorised address that pass the verification check performed on the owner. - If a `value` is provided, the contract must have at least this amount in its balance to execute successfully. - If the operation type is `CREATE` (1) or `CREATE2` (2), `target` must be `address(0)`. - If the operation type is `STATICCALL` (3) or `DELEGATECALL` (4), `value` transfer is disallowed and must be 0.",
        "custom:warning": "- The `msg.value` should not be trusted for any method called within the batch with `operationType`: `DELEGATECALL` (4).",
        "details": "Batch executor function that behaves the same as {execute} but allowing multiple operations in the same transaction.",
        "params": {
          "datas": "The list of calldata, or the creation bytecode of the contract to deploy if `operationType` is `1` or `2`.",
          "operationsType": "The list of operations type used: `CALL = 0`; `CREATE = 1`; `CREATE2 = 2`; `STATICCALL = 3`; `DELEGATECALL = 4`",
          "targets": "The list of addresses to call. `targets` will be unused if a contract is created (operation types 1 and 2).",
          "values": "The list of native token amounts to transfer (in Wei)."
        }
      },
      "getData(bytes32)": {
        "details": "Get in the ERC725Y storage the bytes data stored at a specific data key `dataKey`.",
        "params": {
          "dataKey": "The data key for which to retrieve the value."
        },
        "returns": {
          "dataValue": "The bytes value stored under the specified data key."
        }
      },
      "getDataBatch(bytes32[])": {
        "details": "Get in the ERC725Y storage the bytes data stored at multiple data keys `dataKeys`.",
        "params": {
          "dataKeys": "The array of keys which values to retrieve"
        },
        "returns": {
          "dataValues": "The array of data stored at multiple keys"
        }
      },
      "initialize(address)": {
        "custom:events": "- {UniversalReceiver} event when funding the contract on deployment. - {OwnershipTransferred} event when `initialOwner` is set as the contract {owner}. - {DataChanged} event when setting the {_LSP3_SUPPORTED_STANDARDS_KEY}.",
        "details": "Set `initialOwner` as the contract owner and the `SupportedStandards:LSP3Profile` data key in the ERC725Y data key/value store. - The `initialize(address)` function is payable and allows funding the contract on initialization. - The `initialOwner` will then be allowed to call protected functions marked with the `onlyOwner` modifier.",
        "params": {
          "initialOwner": "the owner of the contract"
        }
      },
      "isValidSignature(bytes32,bytes)": {
        "custom:warning": "This function does not enforce by default the inclusion of the address of this contract in the signature digest. It is recommended that protocols or applications using this contract include the targeted address (= this contract) in the data to sign. To ensure that a signature is valid for a specific LSP0ERC725Account and prevent signatures from the same EOA to be replayed across different LSP0ERC725Accounts.",
        "details": "Handles two cases: 1. If the owner is an EOA, recovers an address from the hash and the signature provided:      - Returns the `_ERC1271_SUCCESSVALUE` if the address recovered is the same as the owner, indicating that it was a valid signature.      - If the address is different, it returns the `_ERC1271_FAILVALUE` indicating that the signature is not valid. 2. If the owner is a smart contract, it forwards the call of {isValidSignature()} to the owner contract:      - If the contract fails or returns the `_ERC1271_FAILVALUE`, the {isValidSignature()} on the account returns the `_ERC1271_FAILVALUE`, indicating that the signature is not valid.      - If the {isValidSignature()} on the owner returned the `_ERC1271_SUCCESSVALUE`, the {isValidSignature()} on the account returns the `_ERC1271_SUCCESSVALUE`, indicating that it's a valid signature.",
        "params": {
          "dataHash": "The hash of the data to be validated.",
          "signature": "A signature that can validate the previous parameter (Hash)."
        },
        "returns": {
          "returnedStatus": "A `bytes4` value that indicates if the signature is valid or not."
        }
      },
      "owner()": {
        "details": "Returns the address of the current owner."
      },
      "pendingOwner()": {
        "custom:info": "If no ownership transfer is in progress, the pendingOwner will be `address(0).`.",
        "details": "The address that ownership of the contract is transferred to. This address may use {acceptOwnership()} to gain ownership of the contract."
      },
      "renounceOwnership()": {
        "custom:danger": "Leaves the contract without an owner. Once ownership of the contract has been renounced, any functions that are restricted to be called by the owner or an address allowed by the owner will be permanently inaccessible, making these functions not callable anymore and unusable.",
        "custom:requirements": "Can be only called by the {owner} or by an authorised address that pass the verification check performed on the owner.",
        "details": "Renounce ownership of the contract in a 2-step process. 1. The first call will initiate the process of renouncing ownership. 2. The second call is used as a confirmation and will leave the contract without an owner."
      },
      "setData(bytes32,bytes)": {
        "custom:events": "- {UniversalReceiver} event when receiving native tokens. - {DataChanged} event.",
        "custom:requirements": "Can be only called by the {owner} or by an authorised address that pass the verification check performed on the owner.",
        "details": "Sets a single bytes value `dataValue` in the ERC725Y storage for a specific data key `dataKey`. The function is marked as payable to enable flexibility on child contracts. For instance to implement a fee mechanism for setting specific data.",
        "params": {
          "dataKey": "The data key for which to set a new value.",
          "dataValue": "The new bytes value to set."
        }
      },
      "setDataBatch(bytes32[],bytes[])": {
        "custom:events": "- {UniversalReceiver} event when receiving native tokens. - {DataChanged} event. (on each iteration of setting data)",
        "custom:requirements": "Can be only called by the {owner} or by an authorised address that pass the verification check performed on the owner.",
        "details": "Batch data setting function that behaves the same as {setData} but allowing to set multiple data key/value pairs in the ERC725Y storage in the same transaction.",
        "params": {
          "dataKeys": "An array of data keys to set bytes values for.",
          "dataValues": "An array of bytes values to set for each `dataKeys`."
        }
      },
      "supportsInterface(bytes4)": {
        "details": "Achieves the goal of [ERC-165] to detect supported interfaces and [LSP-17-ContractExtension] by checking if the interfaceId being queried is supported on another linked extension. If the contract doesn't support the `interfaceId`, it forwards the call to the `supportsInterface` extension according to [LSP-17-ContractExtension], and checks if the extension implements the interface defined by `interfaceId`.",
        "params": {
          "interfaceId": "The interface ID to check if the contract supports it."
        },
        "returns": {
          "_0": "`true` if this contract implements the interface defined by `interfaceId`, `false` otherwise."
        }
      },
      "transferOwnership(address)": {
        "custom:requirements": "- Can be only called by the {owner} or by an authorised address that pass the verification check performed on the owner. - When notifying the new owner via LSP1, the `typeId` used must be the `keccak256(...)` hash of [LSP0OwnershipTransferStarted]. - Pending owner cannot accept ownership in the same tx via the LSP1 hook.",
        "details": "Initiate the process of transferring ownership of the contract by setting the new owner as the pending owner. If the new owner is a contract that supports + implements LSP1, this will also attempt to notify the new owner that ownership has been transferred to them by calling the {universalReceiver()} function on the `newOwner` contract.",
        "params": {
          "newOwner": "The address of the new owner."
        }
      },
      "universalReceiver(bytes32,bytes)": {
        "custom:events": "- {UniversalReceiver} when receiving native tokens. - {UniversalReceiver} event with the function parameters, call options, and the response of the UniversalReceiverDelegates (URD) contract that was called.",
        "details": "Achieves the goal of [LSP-1-UniversalReceiver] by allowing the account to be notified about incoming/outgoing transactions and enabling reactions to these actions. The reaction is achieved by having two external contracts ([LSP1UniversalReceiverDelegate]) that react on the whole transaction and on the specific typeId, respectively. The function performs the following steps: 1. Query the [ERC-725Y] storage with the data key [_LSP1_UNIVERSAL_RECEIVER_DELEGATE_KEY].      - If there is an address stored under the data key, check if this address supports the LSP1 interfaceId.      - If yes, call this address with the typeId and data (params), along with additional calldata consisting of 20 bytes of `msg.sender` and 32 bytes of `msg.value`. If not, continue the execution of the function. 2. Query the [ERC-725Y] storage with the data key [_LSP1_UNIVERSAL_RECEIVER_DELEGATE_PREFIX] + `bytes32(typeId)`.   (Check [LSP-2-ERC725YJSONSchema] for encoding the data key)      - If there is an address stored under the data key, check if this address supports the LSP1 interfaceId.      - If yes, call this address with the typeId and data (params), along with additional calldata consisting of 20 bytes of `msg.sender` and 32 bytes of `msg.value`. If not, continue the execution of the function. This function delegates internally the handling of native tokens to the {universalReceiver} function itself passing `_TYPEID_LSP0_VALUE_RECEIVED` as typeId and the calldata as received data.",
        "params": {
          "receivedData": "The data received.",
          "typeId": "The type of call received."
        },
        "returns": {
          "returnedValues": "The ABI encoded return value of the LSP1UniversalReceiverDelegate call and the LSP1TypeIdDelegate call."
        }
      }
    },
    "title": "Deployable Proxy implementation of a LUKSO's Universal Profile based on LSP3",
    "version": 1
  },
  "userdoc": {
    "errors": {
      "LSP14CannotTransferOwnershipToSelf()": [
        {
          "notice": "Cannot transfer ownership to the address of the contract itself."
        }
      ],
      "LSP14MustAcceptOwnershipInSeparateTransaction()": [
        {
          "notice": "Cannot accept ownership in the same transaction with {transferOwnership(...)}."
        }
      ],
      "LSP14NotInRenounceOwnershipInterval(uint256,uint256)": [
        {
          "notice": "Cannot confirm ownership renouncement yet. The ownership renouncement is allowed from: `renounceOwnershipStart` until: `renounceOwnershipEnd`."
        }
      ]
    },
    "events": {
      "ContractCreated(uint256,address,uint256,bytes32)": {
        "notice": "Deployed new contract at address `contractAddress` and funded with `value` wei (deployed using opcode: `operationType`)."
      },
      "DataChanged(bytes32,bytes)": {
        "notice": "The following data key/value pair has been changed in the ERC725Y storage: Data key: `dataKey`, data value: `dataValue`."
      },
      "Executed(uint256,address,uint256,bytes4)": {
        "notice": "Called address `target` using `operationType` with `value` wei and `data`."
      },
      "OwnershipRenounced()": {
        "notice": "Successfully renounced ownership of the contract. This contract is now owned by anyone, it's owner is `address(0)`."
      },
      "OwnershipTransferStarted(address,address)": {
        "notice": "The transfer of ownership of the contract was initiated. Pending new owner set to: `newOwner`."
      },
      "RenounceOwnershipStarted()": {
        "notice": "Ownership renouncement initiated."
      },
      "UniversalReceiver(address,uint256,bytes32,bytes,bytes)": {
        "notice": "Address `from` called the `universalReceiver(...)` function while sending `value` LYX. Notification type (typeId): `typeId` - Data received: `receivedData`."
      }
    },
    "kind": "user",
    "methods": {
      "VERSION()": {
        "notice": "Contract version."
      },
      "acceptOwnership()": {
        "notice": "`msg.sender` is accepting ownership of contract: `address(this)`."
      },
      "batchCalls(bytes[])": {
        "notice": "Executing the following batch of abi-encoded function calls on the contract: `data`."
      },
      "constructor": {
        "notice": "deploying a `UniversalProfileInit` base contract to be used behind proxy"
      },
      "execute(uint256,address,uint256,bytes)": {
        "notice": "Calling address `target` using `operationType`, transferring `value` wei and data: `data`."
      },
      "executeBatch(uint256[],address[],uint256[],bytes[])": {
        "notice": "Calling multiple addresses `targets` using `operationsType`, transferring `values` wei and data: `datas`."
      },
      "getData(bytes32)": {
        "notice": "Reading the ERC725Y storage for data key `dataKey` returned the following value: `dataValue`."
      },
      "getDataBatch(bytes32[])": {
        "notice": "Reading the ERC725Y storage for data keys `dataKeys` returned the following values: `dataValues`."
      },
      "initialize(address)": {
        "notice": "Initializing a UniversalProfile contract with owner set to address `initialOwner`."
      },
      "isValidSignature(bytes32,bytes)": {
        "notice": "Achieves the goal of [EIP-1271] by validating signatures of smart contracts according to their own logic."
      },
      "renounceOwnership()": {
        "notice": "`msg.sender` is renouncing ownership of contract `address(this)`."
      },
      "setData(bytes32,bytes)": {
        "notice": "Setting the following data key value pair in the ERC725Y storage. Data key: `dataKey`, data value: `dataValue`."
      },
      "setDataBatch(bytes32[],bytes[])": {
        "notice": "Setting the following data key value pairs in the ERC725Y storage. Data keys: `dataKeys`, data values: `dataValues`."
      },
      "supportsInterface(bytes4)": {
        "notice": "Checking if this contract supports the interface defined by the `bytes4` interface ID `interfaceId`."
      },
      "transferOwnership(address)": {
        "notice": "Transfer ownership initiated by `newOwner`."
      },
      "universalReceiver(bytes32,bytes)": {
        "notice": "Notifying the contract by calling its `universalReceiver` function with the following informations: typeId: `typeId`; data: `data`."
      }
    },
    "version": 1
  },
  "storageLayout": {
    "storage": [
      {
        "astId": 1726,
        "contract": "contracts/UniversalProfileInit.sol:UniversalProfileInit",
        "label": "_initialized",
        "offset": 0,
        "slot": "0",
        "type": "t_uint8"
      },
      {
        "astId": 1729,
        "contract": "contracts/UniversalProfileInit.sol:UniversalProfileInit",
        "label": "_initializing",
        "offset": 1,
        "slot": "0",
        "type": "t_bool"
      },
      {
        "astId": 1452,
        "contract": "contracts/UniversalProfileInit.sol:UniversalProfileInit",
        "label": "_owner",
        "offset": 2,
        "slot": "0",
        "type": "t_address"
      },
      {
        "astId": 1172,
        "contract": "contracts/UniversalProfileInit.sol:UniversalProfileInit",
        "label": "_store",
        "offset": 0,
        "slot": "1",
        "type": "t_mapping(t_bytes32,t_bytes_storage)"
      },
      {
        "astId": 9230,
        "contract": "contracts/UniversalProfileInit.sol:UniversalProfileInit",
        "label": "_renounceOwnershipStartedAt",
        "offset": 0,
        "slot": "2",
        "type": "t_uint256"
      },
      {
        "astId": 9233,
        "contract": "contracts/UniversalProfileInit.sol:UniversalProfileInit",
        "label": "_pendingOwner",
        "offset": 0,
        "slot": "3",
        "type": "t_address"
      },
      {
        "astId": 9236,
        "contract": "contracts/UniversalProfileInit.sol:UniversalProfileInit",
        "label": "_inTransferOwnership",
        "offset": 20,
        "slot": "3",
        "type": "t_bool"
      }
    ],
    "types": {
      "t_address": {
        "encoding": "inplace",
        "label": "address",
        "numberOfBytes": "20"
      },
      "t_bool": {
        "encoding": "inplace",
        "label": "bool",
        "numberOfBytes": "1"
      },
      "t_bytes32": {
        "encoding": "inplace",
        "label": "bytes32",
        "numberOfBytes": "32"
      },
      "t_bytes_storage": {
        "encoding": "bytes",
        "label": "bytes",
        "numberOfBytes": "32"
      },
      "t_mapping(t_bytes32,t_bytes_storage)": {
        "encoding": "mapping",
        "key": "t_bytes32",
        "label": "mapping(bytes32 => bytes)",
        "numberOfBytes": "32",
        "value": "t_bytes_storage"
      },
      "t_uint256": {
        "encoding": "inplace",
        "label": "uint256",
        "numberOfBytes": "32"
      },
      "t_uint8": {
        "encoding": "inplace",
        "label": "uint8",
        "numberOfBytes": "1"
      }
    }
  }
}