{
  "abi": [
    {
      "inputs": [
        {
          "internalType": "address",
          "name": "",
          "type": "address"
        }
      ],
      "name": "balances",
      "outputs": [
        {
          "internalType": "uint256",
          "name": "",
          "type": "uint256"
        }
      ],
      "stateMutability": "view",
      "type": "function"
    },
    {
      "inputs": [
        {
          "internalType": "uint256",
          "name": "amount",
          "type": "uint256"
        }
      ],
      "name": "transfer",
      "outputs": [],
      "stateMutability": "nonpayable",
      "type": "function"
    }
  ],
  "bytecode": {
    "object": "0x608060405234801561001057600080fd5b506101d0806100206000396000f3fe608060405234801561001057600080fd5b50600436106100365760003560e01c806312514bba1461003b57806327e235e314610050575b600080fd5b61004e6100493660046100cb565b610082565b005b61007061005e3660046100e4565b60006020819052908152604090205481565b60405190815260200160405180910390f35b60008036610091603482610114565b9061009d602036610114565b926100aa9392919061013b565b6100b391610165565b60601c60009081526020819052604090209190915550565b6000602082840312156100dd57600080fd5b5035919050565b6000602082840312156100f657600080fd5b81356001600160a01b038116811461010d57600080fd5b9392505050565b8181038181111561013557634e487b7160e01b600052601160045260246000fd5b92915050565b6000808585111561014b57600080fd5b8386111561015857600080fd5b5050820193919092039150565b6bffffffffffffffffffffffff1981358181169160148510156101925780818660140360031b1b83161692505b50509291505056fea2646970667358221220c35c53b616784420486f33a1a72c036a7399f5872d427a3a467462709cd52cbb64736f6c63430008110033",
    "linkReferences": {}
  },
  "methodIdentifiers": {
    "balances(address)": "27e235e3",
    "transfer(uint256)": "12514bba"
  },
  "id": 112
}