{
  "abi": [
    {
      "inputs": [
        {
          "internalType": "bytes",
          "name": "payload",
          "type": "bytes"
        }
      ],
      "name": "reenterAccount",
      "outputs": [],
      "stateMutability": "nonpayable",
      "type": "function"
    }
  ],
  "bytecode": {
    "object": "0x608060405234801561001057600080fd5b506101df806100206000396000f3fe608060405234801561001057600080fd5b506004361061002b5760003560e01c8063864e558914610030575b600080fd5b61004361003e3660046100c9565b610045565b005b6000336001600160a01b03168260405161005f919061017a565b6000604051808303816000865af19150503d806000811461009c576040519150601f19603f3d011682016040523d82523d6000602084013e6100a1565b606091505b50509050806100af57600080fd5b5050565b634e487b7160e01b600052604160045260246000fd5b6000602082840312156100db57600080fd5b813567ffffffffffffffff808211156100f357600080fd5b818401915084601f83011261010757600080fd5b813581811115610119576101196100b3565b604051601f8201601f19908116603f01168101908382118183101715610141576101416100b3565b8160405282815287602084870101111561015a57600080fd5b826020860160208301376000928101602001929092525095945050505050565b6000825160005b8181101561019b5760208186018101518583015201610181565b50600092019182525091905056fea26469706673582212204f53f54e565eb7c590cb78ba37ce46898b5d136753d4f6fd2698cb1aaa794bee64736f6c63430008110033",
    "linkReferences": {}
  },
  "methodIdentifiers": {
    "reenterAccount(bytes)": "864e5589"
  },
  "id": 108
}