{
  "_format": "hh-sol-artifact-1",
  "contractName": "LSP0ERC725Account",
  "sourceName": "contracts/LSP0ERC725Account/LSP0ERC725Account.sol",
  "abi": [
    {
      "inputs": [
        {
          "internalType": "address",
          "name": "initialOwner",
          "type": "address"
        }
      ],
      "stateMutability": "payable",
      "type": "constructor"
    },
    {
      "inputs": [],
      "name": "ERC725X_ContractDeploymentFailed",
      "type": "error"
    },
    {
      "inputs": [],
      "name": "ERC725X_CreateOperationsRequireEmptyRecipientAddress",
      "type": "error"
    },
    {
      "inputs": [],
      "name": "ERC725X_ExecuteParametersEmptyArray",
      "type": "error"
    },
    {
      "inputs": [],
      "name": "ERC725X_ExecuteParametersLengthMismatch",
      "type": "error"
    },
    {
      "inputs": [
        {
          "internalType": "uint256",
          "name": "balance",
          "type": "uint256"
        },
        {
          "internalType": "uint256",
          "name": "value",
          "type": "uint256"
        }
      ],
      "name": "ERC725X_InsufficientBalance",
      "type": "error"
    },
    {
      "inputs": [],
      "name": "ERC725X_MsgValueDisallowedInDelegateCall",
      "type": "error"
    },
    {
      "inputs": [],
      "name": "ERC725X_MsgValueDisallowedInStaticCall",
      "type": "error"
    },
    {
      "inputs": [],
      "name": "ERC725X_NoContractBytecodeProvided",
      "type": "error"
    },
    {
      "inputs": [
        {
          "internalType": "uint256",
          "name": "operationTypeProvided",
          "type": "uint256"
        }
      ],
      "name": "ERC725X_UnknownOperationType",
      "type": "error"
    },
    {
      "inputs": [],
      "name": "ERC725Y_DataKeysValuesEmptyArray",
      "type": "error"
    },
    {
      "inputs": [],
      "name": "ERC725Y_DataKeysValuesLengthMismatch",
      "type": "error"
    },
    {
      "inputs": [
        {
          "internalType": "address",
          "name": "caller",
          "type": "address"
        }
      ],
      "name": "LSP14CallerNotPendingOwner",
      "type": "error"
    },
    {
      "inputs": [],
      "name": "LSP14CannotTransferOwnershipToSelf",
      "type": "error"
    },
    {
      "inputs": [],
      "name": "LSP14MustAcceptOwnershipInSeparateTransaction",
      "type": "error"
    },
    {
      "inputs": [
        {
          "internalType": "uint256",
          "name": "renounceOwnershipStart",
          "type": "uint256"
        },
        {
          "internalType": "uint256",
          "name": "renounceOwnershipEnd",
          "type": "uint256"
        }
      ],
      "name": "LSP14NotInRenounceOwnershipInterval",
      "type": "error"
    },
    {
      "inputs": [
        {
          "internalType": "bool",
          "name": "postCall",
          "type": "bool"
        },
        {
          "internalType": "bytes4",
          "name": "returnedStatus",
          "type": "bytes4"
        }
      ],
      "name": "LSP20CallVerificationFailed",
      "type": "error"
    },
    {
      "inputs": [
        {
          "internalType": "bool",
          "name": "postCall",
          "type": "bool"
        }
      ],
      "name": "LSP20CallingVerifierFailed",
      "type": "error"
    },
    {
      "inputs": [
        {
          "internalType": "address",
          "name": "logicVerifier",
          "type": "address"
        }
      ],
      "name": "LSP20EOACannotVerifyCall",
      "type": "error"
    },
    {
      "inputs": [
        {
          "internalType": "bytes4",
          "name": "functionSelector",
          "type": "bytes4"
        }
      ],
      "name": "NoExtensionFoundForFunctionSelector",
      "type": "error"
    },
    {
      "anonymous": false,
      "inputs": [
        {
          "indexed": true,
          "internalType": "uint256",
          "name": "operationType",
          "type": "uint256"
        },
        {
          "indexed": true,
          "internalType": "address",
          "name": "contractAddress",
          "type": "address"
        },
        {
          "indexed": true,
          "internalType": "uint256",
          "name": "value",
          "type": "uint256"
        },
        {
          "indexed": false,
          "internalType": "bytes32",
          "name": "salt",
          "type": "bytes32"
        }
      ],
      "name": "ContractCreated",
      "type": "event"
    },
    {
      "anonymous": false,
      "inputs": [
        {
          "indexed": true,
          "internalType": "bytes32",
          "name": "dataKey",
          "type": "bytes32"
        },
        {
          "indexed": false,
          "internalType": "bytes",
          "name": "dataValue",
          "type": "bytes"
        }
      ],
      "name": "DataChanged",
      "type": "event"
    },
    {
      "anonymous": false,
      "inputs": [
        {
          "indexed": true,
          "internalType": "uint256",
          "name": "operationType",
          "type": "uint256"
        },
        {
          "indexed": true,
          "internalType": "address",
          "name": "target",
          "type": "address"
        },
        {
          "indexed": true,
          "internalType": "uint256",
          "name": "value",
          "type": "uint256"
        },
        {
          "indexed": false,
          "internalType": "bytes4",
          "name": "selector",
          "type": "bytes4"
        }
      ],
      "name": "Executed",
      "type": "event"
    },
    {
      "anonymous": false,
      "inputs": [],
      "name": "OwnershipRenounced",
      "type": "event"
    },
    {
      "anonymous": false,
      "inputs": [
        {
          "indexed": true,
          "internalType": "address",
          "name": "previousOwner",
          "type": "address"
        },
        {
          "indexed": true,
          "internalType": "address",
          "name": "newOwner",
          "type": "address"
        }
      ],
      "name": "OwnershipTransferStarted",
      "type": "event"
    },
    {
      "anonymous": false,
      "inputs": [
        {
          "indexed": true,
          "internalType": "address",
          "name": "previousOwner",
          "type": "address"
        },
        {
          "indexed": true,
          "internalType": "address",
          "name": "newOwner",
          "type": "address"
        }
      ],
      "name": "OwnershipTransferred",
      "type": "event"
    },
    {
      "anonymous": false,
      "inputs": [],
      "name": "RenounceOwnershipStarted",
      "type": "event"
    },
    {
      "anonymous": false,
      "inputs": [
        {
          "indexed": true,
          "internalType": "address",
          "name": "from",
          "type": "address"
        },
        {
          "indexed": true,
          "internalType": "uint256",
          "name": "value",
          "type": "uint256"
        },
        {
          "indexed": true,
          "internalType": "bytes32",
          "name": "typeId",
          "type": "bytes32"
        },
        {
          "indexed": false,
          "internalType": "bytes",
          "name": "receivedData",
          "type": "bytes"
        },
        {
          "indexed": false,
          "internalType": "bytes",
          "name": "returnedValue",
          "type": "bytes"
        }
      ],
      "name": "UniversalReceiver",
      "type": "event"
    },
    {
      "stateMutability": "payable",
      "type": "fallback"
    },
    {
      "inputs": [],
      "name": "RENOUNCE_OWNERSHIP_CONFIRMATION_DELAY",
      "outputs": [
        {
          "internalType": "uint256",
          "name": "",
          "type": "uint256"
        }
      ],
      "stateMutability": "view",
      "type": "function"
    },
    {
      "inputs": [],
      "name": "RENOUNCE_OWNERSHIP_CONFIRMATION_PERIOD",
      "outputs": [
        {
          "internalType": "uint256",
          "name": "",
          "type": "uint256"
        }
      ],
      "stateMutability": "view",
      "type": "function"
    },
    {
      "inputs": [],
      "name": "acceptOwnership",
      "outputs": [],
      "stateMutability": "nonpayable",
      "type": "function"
    },
    {
      "inputs": [
        {
          "internalType": "bytes[]",
          "name": "data",
          "type": "bytes[]"
        }
      ],
      "name": "batchCalls",
      "outputs": [
        {
          "internalType": "bytes[]",
          "name": "results",
          "type": "bytes[]"
        }
      ],
      "stateMutability": "nonpayable",
      "type": "function"
    },
    {
      "inputs": [
        {
          "internalType": "uint256",
          "name": "operationType",
          "type": "uint256"
        },
        {
          "internalType": "address",
          "name": "target",
          "type": "address"
        },
        {
          "internalType": "uint256",
          "name": "value",
          "type": "uint256"
        },
        {
          "internalType": "bytes",
          "name": "data",
          "type": "bytes"
        }
      ],
      "name": "execute",
      "outputs": [
        {
          "internalType": "bytes",
          "name": "",
          "type": "bytes"
        }
      ],
      "stateMutability": "payable",
      "type": "function"
    },
    {
      "inputs": [
        {
          "internalType": "uint256[]",
          "name": "operationsType",
          "type": "uint256[]"
        },
        {
          "internalType": "address[]",
          "name": "targets",
          "type": "address[]"
        },
        {
          "internalType": "uint256[]",
          "name": "values",
          "type": "uint256[]"
        },
        {
          "internalType": "bytes[]",
          "name": "datas",
          "type": "bytes[]"
        }
      ],
      "name": "executeBatch",
      "outputs": [
        {
          "internalType": "bytes[]",
          "name": "",
          "type": "bytes[]"
        }
      ],
      "stateMutability": "payable",
      "type": "function"
    },
    {
      "inputs": [
        {
          "internalType": "bytes32",
          "name": "dataKey",
          "type": "bytes32"
        }
      ],
      "name": "getData",
      "outputs": [
        {
          "internalType": "bytes",
          "name": "dataValue",
          "type": "bytes"
        }
      ],
      "stateMutability": "view",
      "type": "function"
    },
    {
      "inputs": [
        {
          "internalType": "bytes32[]",
          "name": "dataKeys",
          "type": "bytes32[]"
        }
      ],
      "name": "getDataBatch",
      "outputs": [
        {
          "internalType": "bytes[]",
          "name": "dataValues",
          "type": "bytes[]"
        }
      ],
      "stateMutability": "view",
      "type": "function"
    },
    {
      "inputs": [
        {
          "internalType": "bytes32",
          "name": "dataHash",
          "type": "bytes32"
        },
        {
          "internalType": "bytes",
          "name": "signature",
          "type": "bytes"
        }
      ],
      "name": "isValidSignature",
      "outputs": [
        {
          "internalType": "bytes4",
          "name": "returnedStatus",
          "type": "bytes4"
        }
      ],
      "stateMutability": "view",
      "type": "function"
    },
    {
      "inputs": [],
      "name": "owner",
      "outputs": [
        {
          "internalType": "address",
          "name": "",
          "type": "address"
        }
      ],
      "stateMutability": "view",
      "type": "function"
    },
    {
      "inputs": [],
      "name": "pendingOwner",
      "outputs": [
        {
          "internalType": "address",
          "name": "",
          "type": "address"
        }
      ],
      "stateMutability": "view",
      "type": "function"
    },
    {
      "inputs": [],
      "name": "renounceOwnership",
      "outputs": [],
      "stateMutability": "nonpayable",
      "type": "function"
    },
    {
      "inputs": [
        {
          "internalType": "bytes32",
          "name": "dataKey",
          "type": "bytes32"
        },
        {
          "internalType": "bytes",
          "name": "dataValue",
          "type": "bytes"
        }
      ],
      "name": "setData",
      "outputs": [],
      "stateMutability": "payable",
      "type": "function"
    },
    {
      "inputs": [
        {
          "internalType": "bytes32[]",
          "name": "dataKeys",
          "type": "bytes32[]"
        },
        {
          "internalType": "bytes[]",
          "name": "dataValues",
          "type": "bytes[]"
        }
      ],
      "name": "setDataBatch",
      "outputs": [],
      "stateMutability": "payable",
      "type": "function"
    },
    {
      "inputs": [
        {
          "internalType": "bytes4",
          "name": "interfaceId",
          "type": "bytes4"
        }
      ],
      "name": "supportsInterface",
      "outputs": [
        {
          "internalType": "bool",
          "name": "",
          "type": "bool"
        }
      ],
      "stateMutability": "view",
      "type": "function"
    },
    {
      "inputs": [
        {
          "internalType": "address",
          "name": "pendingNewOwner",
          "type": "address"
        }
      ],
      "name": "transferOwnership",
      "outputs": [],
      "stateMutability": "nonpayable",
      "type": "function"
    },
    {
      "inputs": [
        {
          "internalType": "bytes32",
          "name": "typeId",
          "type": "bytes32"
        },
        {
          "internalType": "bytes",
          "name": "receivedData",
          "type": "bytes"
        }
      ],
      "name": "universalReceiver",
      "outputs": [
        {
          "internalType": "bytes",
          "name": "returnedValues",
          "type": "bytes"
        }
      ],
      "stateMutability": "payable",
      "type": "function"
    },
    {
      "inputs": [],
      "name": "version",
      "outputs": [
        {
          "internalType": "string",
          "name": "",
          "type": "string"
        }
      ],
      "stateMutability": "view",
      "type": "function"
    },
    {
      "stateMutability": "payable",
      "type": "receive"
    }
  ],
  "bytecode": "0x60806040526040516200381738038062003817833981016040819052620000269162000138565b3415620000ad577f9c4705229491d365fb5434052e12a386d6771d976bea61070a8c694e8affea3d60001b34336001600160a01b03167f9c3ba68eb5742b8e3961aea0afc7371a71bf433c8a67a831803b64c064a178c2604051620000a4906040808252600090820181905260606020830181905282015260800190565b60405180910390a45b620000c381620000ca60201b620016211760201c565b506200016a565b6000546001600160a01b038281169116146200013557600080546040516001600160a01b03808516939216917f8be0079c531659141344cd1fd0a4f28419497f9722a3daafe3b4186f6b6457e091a3600080546001600160a01b0319166001600160a01b0383161790555b50565b6000602082840312156200014b57600080fd5b81516001600160a01b03811681146200016357600080fd5b9392505050565b61369d806200017a6000396000f3fe60806040526004361061012d5760003560e01c8063715018a6116100a55780639790242111610074578063e30c397811610059578063e30c39781461042a578063ead3fbdf1461021e578063f2fde38b1461044857610178565b806397902421146103f7578063dedff9c61461040a57610178565b8063715018a61461038857806379ba50971461039d5780637f23690c146103b25780638da5cb5b146103c557610178565b806344c028fe116100fc57806354fd4d50116100e157806354fd4d501461030f5780636963d438146103555780636bb56a141461037557610178565b806344c028fe146102cf57806354f6127f146102ef57610178565b806301bfba611461021e57806301ffc9a7146102465780631626ba7e1461027657806331858452146102af57610178565b36610178573415610176576101747f9c4705229491d365fb5434052e12a386d6771d976bea61070a8c694e8affea3d60001b60405180602001604052806000815250610468565b505b005b600036606060048210156102065734156101f1576101ef7f9c4705229491d365fb5434052e12a386d6771d976bea61070a8c694e8affea3d60001b84848080601f01602080910402602001604051908101604052809392919081815260200183838082843760009201919091525061046892505050565b505b50604080516020810190915260008152610213565b610210838361073e565b90505b915050805190602001f35b34801561022a57600080fd5b5061023360c881565b6040519081526020015b60405180910390f35b34801561025257600080fd5b50610266610261366004612bfb565b61091a565b604051901515815260200161023d565b34801561028257600080fd5b50610296610291366004612cdd565b610a05565b6040516001600160e01b0319909116815260200161023d565b6102c26102bd366004612e45565b610bcc565b60405161023d9190612f9d565b6102e26102dd366004612fff565b610cd8565b60405161023d9190613054565b3480156102fb57600080fd5b506102e261030a366004613067565b610dbb565b34801561031b57600080fd5b5060408051808201909152600681527f302e31322e30000000000000000000000000000000000000000000000000000060208201526102e2565b34801561036157600080fd5b506102c2610370366004613080565b610dc6565b6102e2610383366004612cdd565b610468565b34801561039457600080fd5b50610176610f22565b3480156103a957600080fd5b50610176610fe5565b6101766103c0366004612cdd565b611120565b3480156103d157600080fd5b506000546001600160a01b03165b6040516001600160a01b03909116815260200161023d565b6101766104053660046130f5565b611203565b34801561041657600080fd5b506102c261042536600461314f565b6113d6565b34801561043657600080fd5b506003546001600160a01b03166103df565b34801561045457600080fd5b50610176610463366004613184565b611481565b6060341580159061049957507f9c4705229491d365fb5434052e12a386d6771d976bea61070a8c694e8affea3d8314155b15610504576105027f9c4705229491d365fb5434052e12a386d6771d976bea61070a8c694e8affea3d60001b6000368080601f01602080910402602001604051908101604052809392919081815260200183838082843760009201919091525061046892505050565b505b600061052f7f0cfc51aec37c55a4d0b1a65c6255c4bf2fbdf6277f3cc0730c45b828b6db8b4761168f565b9050606060148251106105e05760006105478361319f565b60601c905061055d81635122dded60e11b611731565b156105de57604051635122dded60e11b81526001600160a01b0382169063a245bbda9061059490339034908b908b906004016131db565b6000604051808303816000875af11580156105b3573d6000803e3d6000fd5b505050506040513d6000823e601f3d908101601f191682016040526105db9190810190613209565b91505b505b600061060c7f0cfc51aec37c55a4d0b100000000000000000000000000000000000000000000876117cf565b905060006106198261168f565b9050606060148251106106ca5760006106318361319f565b60601c905061064781635122dded60e11b611731565b156106c857604051635122dded60e11b81526001600160a01b0382169063a245bbda9061067e90339034908e908e906004016131db565b6000604051808303816000875af115801561069d573d6000803e3d6000fd5b505050506040513d6000823e601f3d908101601f191682016040526106c59190810190613209565b91505b505b83816040516020016106dd929190613277565b60405160208183030381529060405295508734336001600160a01b03167f9c3ba68eb5742b8e3961aea0afc7371a71bf433c8a67a831803b64c064a178c28a8a60405161072b929190613277565b60405180910390a4505050505092915050565b60606000806107586000356001600160e01b031916611838565b915091503460001415801561076b575080155b156107d5576107d37f9c4705229491d365fb5434052e12a386d6771d976bea61070a8c694e8affea3d60001b86868080601f01602080910402602001604051908101604052809392919081815260200183838082843760009201919091525061046892505050565b505b6000356001600160e01b0319161580156107f657506001600160a01b038216155b15610814576040518060200160405280600081525092505050610914565b6001600160a01b038216610867576040517fbb370b2b0000000000000000000000000000000000000000000000000000000081526001600160e01b03196000351660048201526024015b60405180910390fd5b600080836001600160a01b031683610880576000610882565b345b88883334604051602001610899949392919061329c565b60408051601f19818403018152908290526108b3916132cc565b60006040518083038185875af1925050503d80600081146108f0576040519150601f19603f3d011682016040523d82523d6000602084013e6108f5565b606091505b5091509150811561090b57935061091492505050565b80518060208301fd5b92915050565b60006001600160e01b03198216630b135d3f60e11b148061096457506001600160e01b031982167f24871b3d00000000000000000000000000000000000000000000000000000000145b8061097f57506001600160e01b03198216631aed5a8560e21b145b806109b357506001600160e01b031982167f94be599900000000000000000000000000000000000000000000000000000000145b806109e757506001600160e01b031982167f1a0eb6a500000000000000000000000000000000000000000000000000000000145b806109f657506109f682611918565b80610914575061091482611956565b600080610a1a6000546001600160a01b031690565b90506001600160a01b0381163b15610b4c57600080826001600160a01b0316631626ba7e60e01b8787604051602401610a549291906132e8565b60408051601f198184030181529181526020820180517bffffffffffffffffffffffffffffffffffffffffffffffffffffffff166001600160e01b0319909416939093179092529051610aa791906132cc565b600060405180830381855afa9150503d8060008114610ae2576040519150601f19603f3d011682016040523d82523d6000602084013e610ae7565b606091505b50915091506000828015610afc575081516020145b8015610b2357508151630b135d3f60e11b90610b219084016020908101908501613301565b145b905080610b38576001600160e01b0319610b41565b630b135d3f60e11b5b945050505050610914565b600080610b598686611994565b90925090506000816004811115610b7257610b7261331a565b14610b8b57506001600160e01b03199250610914915050565b826001600160a01b0316826001600160a01b031614610bb2576001600160e01b0319610bbb565b630b135d3f60e11b5b9350505050610914565b5092915050565b60603415610c57576040516001600160e01b03196000351660208201527f9c4705229491d365fb5434052e12a386d6771d976bea61070a8c694e8affea3d90349033907f9c3ba68eb5742b8e3961aea0afc7371a71bf433c8a67a831803b64c064a178c29060240160408051601f1981840301815290829052610c4e91613330565b60405180910390a45b6000546001600160a01b031633819003610c7f57610c77868686866119d9565b915050610cd0565b6000610c8a82611b69565b90506000610c9a888888886119d9565b90508115610ccb57610ccb8382604051602001610cb79190612f9d565b604051602081830303815290604052611d35565b925050505b949350505050565b60603415610d63576040516001600160e01b03196000351660208201527f9c4705229491d365fb5434052e12a386d6771d976bea61070a8c694e8affea3d90349033907f9c3ba68eb5742b8e3961aea0afc7371a71bf433c8a67a831803b64c064a178c29060240160408051601f1981840301815290829052610d5a91613330565b60405180910390a45b6000546001600160a01b031633819003610d8357610c7786868686611e6b565b6000610d8e82611b69565b90506000610d9e88888888611e6b565b90508115610ccb57610ccb8382604051602001610cb79190613054565b60606109148261168f565b60608167ffffffffffffffff811115610de157610de1612c18565b604051908082528060200260200182016040528015610e1457816020015b6060815260200190600190039081610dff5790505b50905060005b82811015610bc55760008030868685818110610e3857610e3861335a565b9050602002810190610e4a9190613370565b604051610e589291906133b7565b600060405180830381855af49150503d8060008114610e93576040519150601f19603f3d011682016040523d82523d6000602084013e610e98565b606091505b509150915081610efa57805115610eb25780518082602001fd5b60405162461bcd60e51b815260206004820152601960248201527f4c5350303a20626174636843616c6c7320726576657274656400000000000000604482015260640161085e565b80848481518110610f0d57610f0d61335a565b60209081029190910101525050600101610e1a565b6000546001600160a01b031633819003610f4157610f3e611fc1565b50565b6000610f4c82611b69565b90506000610f626000546001600160a01b031690565b9050610f6c611fc1565b6000546001600160a01b0316610fc157604080516020810190915260008152610fc1906001600160a01b038316907fa4e59c931d14f7c8a7a35027f92ee40b5f2886b9fdcdb78f30bc5ecce5a2f814906120cd565b8115610fe057610fe08360405180602001604052806000815250611d35565b505050565b600354600160a01b900460ff1615611029576040517f5758dd0700000000000000000000000000000000000000000000000000000000815260040160405180910390fd5b600080546003546001600160a01b039182169291169033821461106f5761104f82611b69565b905061105a82611621565b600380546001600160a01b0319169055611077565b611077612161565b6040805160208101909152600081526110bc906001600160a01b038516907fa4e59c931d14f7c8a7a35027f92ee40b5f2886b9fdcdb78f30bc5ecce5a2f814906120cd565b604080516020810190915260008152611101906001600160a01b038416907fceca317f109c43507871523e82dc2a3cc64dfa18f12da0b6db14f6e23f995538906120cd565b8015610fe057610fe08260405180602001604052806000815250611d35565b34156111a9576040516001600160e01b03196000351660208201527f9c4705229491d365fb5434052e12a386d6771d976bea61070a8c694e8affea3d90349033907f9c3ba68eb5742b8e3961aea0afc7371a71bf433c8a67a831803b64c064a178c29060240160408051601f19818403018152908290526111a091613330565b60405180910390a45b6000546001600160a01b0316338190036111c757610fe083836121c2565b60006111d282611b69565b90506111de84846121c2565b80156111fd576111fd8260405180602001604052806000815250611d35565b50505050565b341561128c576040516001600160e01b03196000351660208201527f9c4705229491d365fb5434052e12a386d6771d976bea61070a8c694e8affea3d90349033907f9c3ba68eb5742b8e3961aea0afc7371a71bf433c8a67a831803b64c064a178c29060240160408051601f198184030181529082905261128391613330565b60405180910390a45b80518251146112c7576040517f3bcc897900000000000000000000000000000000000000000000000000000000815260040160405180910390fd5b8151600003611302576040517f97da5f9500000000000000000000000000000000000000000000000000000000815260040160405180910390fd5b6000546001600160a01b0316338190036113665760005b83518110156111fd5761135e8482815181106113375761133761335a565b60200260200101518483815181106113515761135161335a565b60200260200101516121c2565b600101611319565b600061137182611b69565b905060005b84518110156113b6576113ae8582815181106113945761139461335a565b60200260200101518583815181106113515761135161335a565b600101611376565b5080156111fd576111fd8260405180602001604052806000815250611d35565b6060815167ffffffffffffffff8111156113f2576113f2612c18565b60405190808252806020026020018201604052801561142557816020015b60608152602001906001900390816114105790505b50905060005b825181101561147b576114568382815181106114495761144961335a565b602002602001015161168f565b8282815181106114685761146861335a565b602090810291909101015260010161142b565b50919050565b6000546001600160a01b031633819003611547576003805460ff60a01b1916600160a01b1790556114b182612236565b816001600160a01b0316816001600160a01b03167f38d16b8cac22d99fc7c124b9cd0de2d3fa1faef420bfe791d8c362d765e2270060405160405180910390a3604080516020810190915260008152611536906001600160a01b038416907fe17117c9d2665d1dbeb479ed8058bbebde3c50ac50e2e65619f60006caac6926906120cd565b6003805460ff60a01b191690555050565b600061155282611b69565b6003805460ff60a01b1916600160a01b179055905061157083612236565b826001600160a01b0316826001600160a01b03167f38d16b8cac22d99fc7c124b9cd0de2d3fa1faef420bfe791d8c362d765e2270060405160405180910390a36040805160208101909152600081526115f5906001600160a01b038516907fe17117c9d2665d1dbeb479ed8058bbebde3c50ac50e2e65619f60006caac6926906120cd565b6003805460ff60a01b191690558015610fe057610fe08260405180602001604052806000815250611d35565b6000546001600160a01b03828116911614610f3e57600080546040516001600160a01b03808516939216917f8be0079c531659141344cd1fd0a4f28419497f9722a3daafe3b4186f6b6457e091a3600080546001600160a01b0383166001600160a01b031990911617905550565b60008181526001602052604090208054606091906116ac906133c7565b80601f01602080910402602001604051908101604052809291908181526020018280546116d8906133c7565b80156117255780601f106116fa57610100808354040283529160200191611725565b820191906000526020600020905b81548152906001019060200180831161170857829003601f168201915b50505050509050919050565b604080516001600160e01b03198316602480830191909152825180830390910181526044909101909152602080820180517bffffffffffffffffffffffffffffffffffffffffffffffffffffffff166301ffc9a760e01b178152825160009392849283928392918391908a617530fa92503d915060005190508280156117b8575060208210155b80156117c45750600081115b979650505050505050565b604080517fffffffffffffffffffff00000000000000000000000000000000000000000000841660208201526000602a82018190526bffffffffffffffffffffffff198416602c83015291829101604051602081830303815290604052905080610cd0906133fb565b600080806118707fcee78b4094da86011096000000000000000000000000000000000000000000006001600160e01b031986166117cf565b9050600061187d8261168f565b90508051601503611900578060148151811061189b5761189b61335a565b01602001517fff00000000000000000000000000000000000000000000000000000000000000167f010000000000000000000000000000000000000000000000000000000000000003611900576118f18161319f565b60601c95600195509350505050565b6119098161319f565b60601c95600095509350505050565b60006001600160e01b031982167fa918fa6b00000000000000000000000000000000000000000000000000000000148061091457506109148261229f565b6000806119696301ffc9a760e01b611838565b5090506001600160a01b0381166119835750600092915050565b61198d8184611731565b9392505050565b60008082516041036119ca5760208301516040840151606085015160001a6119be878285856122dd565b945094505050506119d2565b506000905060025b9250929050565b6060835185511415806119fa5750825184511415806119fa57508151835114155b15611a31576040517f3ff55f4d00000000000000000000000000000000000000000000000000000000815260040160405180910390fd5b8451600003611a6c576040517fe9ad2b5f00000000000000000000000000000000000000000000000000000000815260040160405180910390fd5b6000855167ffffffffffffffff811115611a8857611a88612c18565b604051908082528060200260200182016040528015611abb57816020015b6060815260200190600190039081611aa65790505b50905060005b8651811015611b5f57611b3a878281518110611adf57611adf61335a565b6020026020010151878381518110611af957611af961335a565b6020026020010151878481518110611b1357611b1361335a565b6020026020010151878581518110611b2d57611b2d61335a565b6020026020010151611e6b565b828281518110611b4c57611b4c61335a565b6020908102919091010152600101611ac1565b5095945050505050565b6000816001600160a01b03163b600003611bba576040517f0c3923010000000000000000000000000000000000000000000000000000000081526001600160a01b038316600482015260240161085e565b6040517fde928f140000000000000000000000000000000000000000000000000000000081526001600160a01b0383169063de928f1490611c0a903390309082903490600090369060040161341f565b6020604051808303816000875af1925050508015611c45575060408051601f3d908101601f19168201909252611c429181019061347c565b60015b611c84573d808015611c73576040519150601f19603f3d011682016040523d82523d6000602084013e611c78565b606091505b5061147b6000826123a1565b7fffffff000000000000000000000000000000000000000000000000000000000081167fde928f000000000000000000000000000000000000000000000000000000000014611cf957604051639d6741e360e01b8152600060048201526001600160e01b03198216602482015260440161085e565b8060031a60f81b7effffffffffffffffffffffffffffffffffffffffffffffffffffffffffffff1916600160f81b14915050919050565b919050565b816001600160a01b031663d3fc45d333303334600036604051602001611d6096959493929190613499565b60405160208183030381529060405280519060200120836040518363ffffffff1660e01b8152600401611d949291906132e8565b6020604051808303816000875af1925050508015611dcf575060408051601f3d908101601f19168201909252611dcc9181019061347c565b60015b611e0e573d808015611dfd576040519150601f19603f3d011682016040523d82523d6000602084013e611e02565b606091505b50610fe06001826123a1565b6001600160e01b031981167fd3fc45d30000000000000000000000000000000000000000000000000000000014610fe057604051639d6741e360e01b8152600160048201526001600160e01b03198216602482015260440161085e565b606084611e8457611e7d8484846123e7565b9050610cd0565b60018503611ebe576001600160a01b03841615611eb457604051631820c12560e11b815260040160405180910390fd5b611e7d8383612513565b60028503611ef8576001600160a01b03841615611eee57604051631820c12560e11b815260040160405180910390fd5b611e7d838361262d565b60038503611f42578215611f38576040517f72f2bc6a00000000000000000000000000000000000000000000000000000000815260040160405180910390fd5b611e7d8483612717565b60048503611f8c578215611f82576040517f5ac8313500000000000000000000000000000000000000000000000000000000815260040160405180910390fd5b611e7d8483612816565b6040517f7583b3bc0000000000000000000000000000000000000000000000000000000081526004810186905260240161085e565b6002544390600090611fd59060c8906134ff565b90506000611fe460c8836134ff565b905080831180611ff45750600254155b1561203c576002839055600380546001600160a01b03191690556040517f81b7f830f1f0084db6497c486cbe6974c86488dcc4e3738eab94ab6d6b1653e790600090a1505050565b81831015612080576040517f1b080942000000000000000000000000000000000000000000000000000000008152600481018390526024810182905260440161085e565b61208a6000611621565b60006002819055600380546001600160a01b03191690556040517fd1f66c3d2bc1993a86be5e3d33709d98f0442381befcedd29f578b9b2506b1ce9190a1505050565b6120e76001600160a01b038416631aed5a8560e21b611731565b15610fe057604051631aed5a8560e21b81526001600160a01b03841690636bb56a149061211a90859085906004016132e8565b6000604051808303816000875af1158015612139573d6000803e3d6000fd5b505050506040513d6000823e601f3d908101601f191682016040526111fd9190810190613209565b6003546001600160a01b031633146121a7576040517f451e452800000000000000000000000000000000000000000000000000000000815233600482015260240161085e565b6121b033611621565b600380546001600160a01b0319169055565b60008281526001602052604090206121da8282613560565b50817fece574603820d07bc9b91f2a932baadf4628aabcb8afba49776529c14a6104b26101008351111561221b576122168360006101006128c2565b61221d565b825b60405161222a9190613054565b60405180910390a25050565b306001600160a01b03821603612278576040517fe052a6f800000000000000000000000000000000000000000000000000000000815260040160405180910390fd5b600380546001600160a01b0319166001600160a01b03929092169190911790556000600255565b60006001600160e01b031982167f629aa6940000000000000000000000000000000000000000000000000000000014806109145750610914826129ea565b6000807f7fffffffffffffffffffffffffffffff5d576e7357a4501ddfe92f46681b20a08311156123145750600090506003612398565b6040805160008082526020820180845289905260ff881692820192909252606081018690526080810185905260019060a0016020604051602081039080840390855afa158015612368573d6000803e3d6000fd5b5050604051601f1901519150506001600160a01b03811661239157600060019250925050612398565b9150600090505b94509492505050565b8051156123b15780518082602001fd5b6040517f8c6a8ae3000000000000000000000000000000000000000000000000000000008152821515600482015260240161085e565b606082471015612413576040516301bf351f60e31b81524760048201526024810184905260440161085e565b826001600160a01b03851660007f4810874456b8e6487bd861375cf6abd8e1c8bb5858c8ce36a86a04dabfac199e61244a86613620565b6040516001600160e01b0319909116815260200160405180910390a4600080856001600160a01b0316858560405161248291906132cc565b60006040518083038185875af1925050503d80600081146124bf576040519150601f19603f3d011682016040523d82523d6000602084013e6124c4565b606091505b509150915061250982826040518060400160405280601681526020017f455243373235583a20556e6b6e6f776e204572726f7200000000000000000000815250612a38565b9695505050505050565b60608247101561253f576040516301bf351f60e31b81524760048201526024810184905260440161085e565b81516000036125615760405163b81cd8d960e01b815260040160405180910390fd5b600082516020840185f090506001600160a01b0381166125ad576040517f0b07489b00000000000000000000000000000000000000000000000000000000815260040160405180910390fd5b83816001600160a01b031660017fa1fb700aaee2ae4a2ff6f91ce7eba292f89c2f5488b8ec4c5c5c8150692595c36000801b6040516125ee91815260200190565b60405180910390a46040516bffffffffffffffffffffffff19606083901b16602082015260340160405160208183030381529060405291505092915050565b606081516000036126515760405163b81cd8d960e01b815260040160405180910390fd5b600061266a83602085516126659190613654565b612a51565b90506000612687846000602087516126829190613654565b6128c2565b90506000612696868484612ab7565b905085816001600160a01b031660027fa1fb700aaee2ae4a2ff6f91ce7eba292f89c2f5488b8ec4c5c5c8150692595c3866040516126d691815260200190565b60405180910390a46040516bffffffffffffffffffffffff19606083901b166020820152603401604051602081830303815290604052935050505092915050565b606060006001600160a01b03841660037f4810874456b8e6487bd861375cf6abd8e1c8bb5858c8ce36a86a04dabfac199e61275186613620565b6040516001600160e01b0319909116815260200160405180910390a4600080846001600160a01b03168460405161278891906132cc565b600060405180830381855afa9150503d80600081146127c3576040519150601f19603f3d011682016040523d82523d6000602084013e6127c8565b606091505b509150915061280d82826040518060400160405280601681526020017f455243373235583a20556e6b6e6f776e204572726f7200000000000000000000815250612a38565b95945050505050565b606060006001600160a01b03841660047f4810874456b8e6487bd861375cf6abd8e1c8bb5858c8ce36a86a04dabfac199e61285086613620565b6040516001600160e01b0319909116815260200160405180910390a4600080846001600160a01b03168460405161288791906132cc565b600060405180830381855af49150503d80600081146127c3576040519150601f19603f3d011682016040523d82523d6000602084013e6127c8565b6060816128d081601f6134ff565b101561291e5760405162461bcd60e51b815260206004820152600e60248201527f736c6963655f6f766572666c6f77000000000000000000000000000000000000604482015260640161085e565b61292882846134ff565b845110156129785760405162461bcd60e51b815260206004820152601160248201527f736c6963655f6f75744f66426f756e6473000000000000000000000000000000604482015260640161085e565b60608215801561299757604051915060008252602082016040526129e1565b6040519150601f8416801560200281840101858101878315602002848b0101015b818310156129d05780518352602092830192016129b8565b5050858452601f01601f1916604052505b50949350505050565b60006001600160e01b031982167f7545acac00000000000000000000000000000000000000000000000000000000148061091457506301ffc9a760e01b6001600160e01b0319831614610914565b60608315612a4757508161198d565b61198d8383612bbb565b6000612a5e8260206134ff565b83511015612aae5760405162461bcd60e51b815260206004820152601560248201527f746f427974657333325f6f75744f66426f756e64730000000000000000000000604482015260640161085e565b50016020015190565b600083471015612b095760405162461bcd60e51b815260206004820152601d60248201527f437265617465323a20696e73756666696369656e742062616c616e6365000000604482015260640161085e565b8151600003612b5a5760405162461bcd60e51b815260206004820181905260248201527f437265617465323a2062797465636f6465206c656e677468206973207a65726f604482015260640161085e565b8282516020840186f590506001600160a01b03811661198d5760405162461bcd60e51b815260206004820152601960248201527f437265617465323a204661696c6564206f6e206465706c6f7900000000000000604482015260640161085e565b815115612bcb5781518083602001fd5b8060405162461bcd60e51b815260040161085e9190613054565b6001600160e01b031981168114610f3e57600080fd5b600060208284031215612c0d57600080fd5b813561198d81612be5565b634e487b7160e01b600052604160045260246000fd5b604051601f8201601f1916810167ffffffffffffffff81118282101715612c5757612c57612c18565b604052919050565b600067ffffffffffffffff821115612c7957612c79612c18565b50601f01601f191660200190565b600082601f830112612c9857600080fd5b8135612cab612ca682612c5f565b612c2e565b818152846020838601011115612cc057600080fd5b816020850160208301376000918101602001919091529392505050565b60008060408385031215612cf057600080fd5b82359150602083013567ffffffffffffffff811115612d0e57600080fd5b612d1a85828601612c87565b9150509250929050565b600067ffffffffffffffff821115612d3e57612d3e612c18565b5060051b60200190565b600082601f830112612d5957600080fd5b81356020612d69612ca683612d24565b82815260059290921b84018101918181019086841115612d8857600080fd5b8286015b84811015612da35780358352918301918301612d8c565b509695505050505050565b80356001600160a01b0381168114611d3057600080fd5b600082601f830112612dd657600080fd5b81356020612de6612ca683612d24565b82815260059290921b84018101918181019086841115612e0557600080fd5b8286015b84811015612da357803567ffffffffffffffff811115612e295760008081fd5b612e378986838b0101612c87565b845250918301918301612e09565b60008060008060808587031215612e5b57600080fd5b843567ffffffffffffffff80821115612e7357600080fd5b612e7f88838901612d48565b9550602091508187013581811115612e9657600080fd5b8701601f81018913612ea757600080fd5b8035612eb5612ca682612d24565b81815260059190911b8201840190848101908b831115612ed457600080fd5b928501925b82841015612ef957612eea84612dae565b82529285019290850190612ed9565b97505050506040870135915080821115612f1257600080fd5b612f1e88838901612d48565b93506060870135915080821115612f3457600080fd5b50612f4187828801612dc5565b91505092959194509250565b60005b83811015612f68578181015183820152602001612f50565b50506000910152565b60008151808452612f89816020860160208601612f4d565b601f01601f19169290920160200192915050565b6000602080830181845280855180835260408601915060408160051b870101925083870160005b82811015612ff257603f19888603018452612fe0858351612f71565b94509285019290850190600101612fc4565b5092979650505050505050565b6000806000806080858703121561301557600080fd5b8435935061302560208601612dae565b925060408501359150606085013567ffffffffffffffff81111561304857600080fd5b612f4187828801612c87565b60208152600061198d6020830184612f71565b60006020828403121561307957600080fd5b5035919050565b6000806020838503121561309357600080fd5b823567ffffffffffffffff808211156130ab57600080fd5b818501915085601f8301126130bf57600080fd5b8135818111156130ce57600080fd5b8660208260051b85010111156130e357600080fd5b60209290920196919550909350505050565b6000806040838503121561310857600080fd5b823567ffffffffffffffff8082111561312057600080fd5b61312c86838701612d48565b9350602085013591508082111561314257600080fd5b50612d1a85828601612dc5565b60006020828403121561316157600080fd5b813567ffffffffffffffff81111561317857600080fd5b610cd084828501612d48565b60006020828403121561319657600080fd5b61198d82612dae565b805160208201516bffffffffffffffffffffffff1980821692919060148310156131d35780818460140360031b1b83161693505b505050919050565b6001600160a01b03851681528360208201528260408201526080606082015260006125096080830184612f71565b60006020828403121561321b57600080fd5b815167ffffffffffffffff81111561323257600080fd5b8201601f8101841361324357600080fd5b8051613251612ca682612c5f565b81815285602083850101111561326657600080fd5b61280d826020830160208601612f4d565b60408152600061328a6040830185612f71565b828103602084015261280d8185612f71565b8385823760609290921b6bffffffffffffffffffffffff1916919092019081526014810191909152603401919050565b600082516132de818460208701612f4d565b9190910192915050565b828152604060208201526000610cd06040830184612f71565b60006020828403121561331357600080fd5b5051919050565b634e487b7160e01b600052602160045260246000fd5b6040815260006133436040830184612f71565b828103602093840152600081529190910192915050565b634e487b7160e01b600052603260045260246000fd5b6000808335601e1984360301811261338757600080fd5b83018035915067ffffffffffffffff8211156133a257600080fd5b6020019150368190038213156119d257600080fd5b8183823760009101908152919050565b600181811c908216806133db57607f821691505b60208210810361147b57634e487b7160e01b600052602260045260246000fd5b8051602080830151919081101561147b5760001960209190910360031b1b16919050565b60006001600160a01b038089168352808816602084015280871660408401525084606083015260a060808301528260a0830152828460c0840137600060c0848401015260c0601f19601f8501168301019050979650505050505050565b60006020828403121561348e57600080fd5b815161198d81612be5565b60006bffffffffffffffffffffffff19808960601b168352808860601b166014840152808760601b1660288401525084603c8301528284605c8401375060009101605c0190815295945050505050565b634e487b7160e01b600052601160045260246000fd5b80820180821115610914576109146134e9565b601f821115610fe057600081815260208120601f850160051c810160208610156135395750805b601f850160051c820191505b8181101561355857828155600101613545565b505050505050565b815167ffffffffffffffff81111561357a5761357a612c18565b61358e8161358884546133c7565b84613512565b602080601f8311600181146135c357600084156135ab5750858301515b600019600386901b1c1916600185901b178555613558565b600085815260208120601f198616915b828110156135f2578886015182559484019460019091019084016135d3565b50858210156136105787850151600019600388901b60f8161c191681555b5050505050600190811b01905550565b6000815160208301516001600160e01b0319808216935060048310156131d35760049290920360031b82901b161692915050565b81810381811115610914576109146134e956fea26469706673582212209188841aa81909f571281aab33bbe523ee9ef2691fe7164618e625c62f40be0264736f6c63430008110033",
  "linkReferences": {},
  "deployedLinkReferences": {}
}