{
  "abi": [
    {
      "inputs": [
        {
          "internalType": "address",
          "name": "newOwner",
          "type": "address"
        }
      ],
      "stateMutability": "payable",
      "type": "constructor"
    },
    {
      "inputs": [],
      "name": "CannotTransferOwnershipToSelf",
      "type": "error"
    },
    {
      "inputs": [],
      "name": "ERC725X_ContractDeploymentFailed",
      "type": "error"
    },
    {
      "inputs": [],
      "name": "ERC725X_CreateOperationsRequireEmptyRecipientAddress",
      "type": "error"
    },
    {
      "inputs": [],
      "name": "ERC725X_ExecuteParametersLengthMismatch",
      "type": "error"
    },
    {
      "inputs": [
        {
          "internalType": "uint256",
          "name": "balance",
          "type": "uint256"
        },
        {
          "internalType": "uint256",
          "name": "value",
          "type": "uint256"
        }
      ],
      "name": "ERC725X_InsufficientBalance",
      "type": "error"
    },
    {
      "inputs": [],
      "name": "ERC725X_MsgValueDisallowedInDelegateCall",
      "type": "error"
    },
    {
      "inputs": [],
      "name": "ERC725X_MsgValueDisallowedInStaticCall",
      "type": "error"
    },
    {
      "inputs": [],
      "name": "ERC725X_NoContractBytecodeProvided",
      "type": "error"
    },
    {
      "inputs": [
        {
          "internalType": "uint256",
          "name": "operationTypeProvided",
          "type": "uint256"
        }
      ],
      "name": "ERC725X_UnknownOperationType",
      "type": "error"
    },
    {
      "inputs": [
        {
          "internalType": "uint256",
          "name": "dataKeysLength",
          "type": "uint256"
        },
        {
          "internalType": "uint256",
          "name": "dataValuesLength",
          "type": "uint256"
        }
      ],
      "name": "ERC725Y_DataKeysValuesLengthMismatch",
      "type": "error"
    },
    {
      "inputs": [
        {
          "internalType": "uint256",
          "name": "renounceOwnershipStart",
          "type": "uint256"
        },
        {
          "internalType": "uint256",
          "name": "renounceOwnershipEnd",
          "type": "uint256"
        }
      ],
      "name": "NotInRenounceOwnershipInterval",
      "type": "error"
    },
    {
      "anonymous": false,
      "inputs": [
        {
          "indexed": true,
          "internalType": "uint256",
          "name": "operationType",
          "type": "uint256"
        },
        {
          "indexed": true,
          "internalType": "address",
          "name": "contractAddress",
          "type": "address"
        },
        {
          "indexed": true,
          "internalType": "uint256",
          "name": "value",
          "type": "uint256"
        },
        {
          "indexed": false,
          "internalType": "bytes32",
          "name": "salt",
          "type": "bytes32"
        }
      ],
      "name": "ContractCreated",
      "type": "event"
    },
    {
      "anonymous": false,
      "inputs": [
        {
          "indexed": true,
          "internalType": "bytes32",
          "name": "dataKey",
          "type": "bytes32"
        },
        {
          "indexed": false,
          "internalType": "bytes",
          "name": "dataValue",
          "type": "bytes"
        }
      ],
      "name": "DataChanged",
      "type": "event"
    },
    {
      "anonymous": false,
      "inputs": [
        {
          "indexed": true,
          "internalType": "uint256",
          "name": "operationType",
          "type": "uint256"
        },
        {
          "indexed": true,
          "internalType": "address",
          "name": "target",
          "type": "address"
        },
        {
          "indexed": true,
          "internalType": "uint256",
          "name": "value",
          "type": "uint256"
        },
        {
          "indexed": false,
          "internalType": "bytes4",
          "name": "selector",
          "type": "bytes4"
        }
      ],
      "name": "Executed",
      "type": "event"
    },
    {
      "anonymous": false,
      "inputs": [],
      "name": "OwnershipRenounced",
      "type": "event"
    },
    {
      "anonymous": false,
      "inputs": [
        {
          "indexed": true,
          "internalType": "address",
          "name": "previousOwner",
          "type": "address"
        },
        {
          "indexed": true,
          "internalType": "address",
          "name": "newOwner",
          "type": "address"
        }
      ],
      "name": "OwnershipTransferStarted",
      "type": "event"
    },
    {
      "anonymous": false,
      "inputs": [
        {
          "indexed": true,
          "internalType": "address",
          "name": "previousOwner",
          "type": "address"
        },
        {
          "indexed": true,
          "internalType": "address",
          "name": "newOwner",
          "type": "address"
        }
      ],
      "name": "OwnershipTransferred",
      "type": "event"
    },
    {
      "anonymous": false,
      "inputs": [],
      "name": "RenounceOwnershipInitiated",
      "type": "event"
    },
    {
      "anonymous": false,
      "inputs": [
        {
          "indexed": true,
          "internalType": "address",
          "name": "from",
          "type": "address"
        },
        {
          "indexed": true,
          "internalType": "uint256",
          "name": "value",
          "type": "uint256"
        },
        {
          "indexed": true,
          "internalType": "bytes32",
          "name": "typeId",
          "type": "bytes32"
        },
        {
          "indexed": false,
          "internalType": "bytes",
          "name": "receivedData",
          "type": "bytes"
        },
        {
          "indexed": false,
          "internalType": "bytes",
          "name": "returnedValue",
          "type": "bytes"
        }
      ],
      "name": "UniversalReceiver",
      "type": "event"
    },
    {
      "anonymous": false,
      "inputs": [
        {
          "indexed": true,
          "internalType": "address",
          "name": "sender",
          "type": "address"
        },
        {
          "indexed": true,
          "internalType": "uint256",
          "name": "value",
          "type": "uint256"
        }
      ],
      "name": "ValueReceived",
      "type": "event"
    },
    {
      "stateMutability": "payable",
      "type": "fallback"
    },
    {
      "inputs": [],
      "name": "acceptOwnership",
      "outputs": [],
      "stateMutability": "nonpayable",
      "type": "function"
    },
    {
      "inputs": [
        {
          "internalType": "uint256[]",
          "name": "operationsType",
          "type": "uint256[]"
        },
        {
          "internalType": "address[]",
          "name": "targets",
          "type": "address[]"
        },
        {
          "internalType": "uint256[]",
          "name": "values",
          "type": "uint256[]"
        },
        {
          "internalType": "bytes[]",
          "name": "datas",
          "type": "bytes[]"
        }
      ],
      "name": "execute",
      "outputs": [
        {
          "internalType": "bytes[]",
          "name": "",
          "type": "bytes[]"
        }
      ],
      "stateMutability": "payable",
      "type": "function"
    },
    {
      "inputs": [
        {
          "internalType": "uint256",
          "name": "operationType",
          "type": "uint256"
        },
        {
          "internalType": "address",
          "name": "target",
          "type": "address"
        },
        {
          "internalType": "uint256",
          "name": "value",
          "type": "uint256"
        },
        {
          "internalType": "bytes",
          "name": "data",
          "type": "bytes"
        }
      ],
      "name": "execute",
      "outputs": [
        {
          "internalType": "bytes",
          "name": "",
          "type": "bytes"
        }
      ],
      "stateMutability": "payable",
      "type": "function"
    },
    {
      "inputs": [
        {
          "internalType": "bytes32[]",
          "name": "dataKeys",
          "type": "bytes32[]"
        }
      ],
      "name": "getData",
      "outputs": [
        {
          "internalType": "bytes[]",
          "name": "dataValues",
          "type": "bytes[]"
        }
      ],
      "stateMutability": "view",
      "type": "function"
    },
    {
      "inputs": [
        {
          "internalType": "bytes32",
          "name": "dataKey",
          "type": "bytes32"
        }
      ],
      "name": "getData",
      "outputs": [
        {
          "internalType": "bytes",
          "name": "dataValue",
          "type": "bytes"
        }
      ],
      "stateMutability": "view",
      "type": "function"
    },
    {
      "inputs": [
        {
          "internalType": "bytes32",
          "name": "dataHash",
          "type": "bytes32"
        },
        {
          "internalType": "bytes",
          "name": "signature",
          "type": "bytes"
        }
      ],
      "name": "isValidSignature",
      "outputs": [
        {
          "internalType": "bytes4",
          "name": "magicValue",
          "type": "bytes4"
        }
      ],
      "stateMutability": "view",
      "type": "function"
    },
    {
      "inputs": [],
      "name": "owner",
      "outputs": [
        {
          "internalType": "address",
          "name": "",
          "type": "address"
        }
      ],
      "stateMutability": "view",
      "type": "function"
    },
    {
      "inputs": [],
      "name": "pendingOwner",
      "outputs": [
        {
          "internalType": "address",
          "name": "",
          "type": "address"
        }
      ],
      "stateMutability": "view",
      "type": "function"
    },
    {
      "inputs": [],
      "name": "renounceOwnership",
      "outputs": [],
      "stateMutability": "nonpayable",
      "type": "function"
    },
    {
      "inputs": [
        {
          "internalType": "bytes32[]",
          "name": "dataKeys",
          "type": "bytes32[]"
        },
        {
          "internalType": "bytes[]",
          "name": "dataValues",
          "type": "bytes[]"
        }
      ],
      "name": "setData",
      "outputs": [],
      "stateMutability": "nonpayable",
      "type": "function"
    },
    {
      "inputs": [
        {
          "internalType": "bytes32",
          "name": "dataKey",
          "type": "bytes32"
        },
        {
          "internalType": "bytes",
          "name": "dataValue",
          "type": "bytes"
        }
      ],
      "name": "setData",
      "outputs": [],
      "stateMutability": "nonpayable",
      "type": "function"
    },
    {
      "inputs": [
        {
          "internalType": "bytes4",
          "name": "interfaceId",
          "type": "bytes4"
        }
      ],
      "name": "supportsInterface",
      "outputs": [
        {
          "internalType": "bool",
          "name": "",
          "type": "bool"
        }
      ],
      "stateMutability": "view",
      "type": "function"
    },
    {
      "inputs": [
        {
          "internalType": "address",
          "name": "_newOwner",
          "type": "address"
        }
      ],
      "name": "transferOwnership",
      "outputs": [],
      "stateMutability": "nonpayable",
      "type": "function"
    },
    {
      "inputs": [
        {
          "internalType": "bytes32",
          "name": "typeId",
          "type": "bytes32"
        },
        {
          "internalType": "bytes",
          "name": "receivedData",
          "type": "bytes"
        }
      ],
      "name": "universalReceiver",
      "outputs": [
        {
          "internalType": "bytes",
          "name": "returnedValues",
          "type": "bytes"
        }
      ],
      "stateMutability": "payable",
      "type": "function"
    },
    {
      "stateMutability": "payable",
      "type": "receive"
    }
  ],
  "bytecode": {
    "object": "0x608060405260405162002ce138038062002ce18339810160408190526200002691620002cd565b8034156200005c57604051349033907f7e71433ddf847725166244795048ecf3e3f9f35628254ecbf73605666423349390600090a35b6200007281620000c260201b620008901760201c565b5060408051808201909152600481526355f212eb60e11b6020820152620000bb907feafec4d89fa9619884b60000abe425d64acd861a49b8ddf5c0b6962110481f389062000129565b50620004e8565b6000546001600160a01b038281169116146200012657600080546001600160a01b038381166001600160a01b0319831681178455604051919092169283917f8be0079c531659141344cd1fd0a4f28419497f9722a3daafe3b4186f6b6457e09190a3505b50565b6000828152600160205260409020620001438282620003a4565b50817fece574603820d07bc9b91f2a932baadf4628aabcb8afba49776529c14a6104b26101008351111562000193576200018d836000610100620001b060201b620008f51760201c565b62000195565b825b604051620001a4919062000470565b60405180910390a25050565b606081620001c081601f620004c0565b1015620002055760405162461bcd60e51b815260206004820152600e60248201526d736c6963655f6f766572666c6f7760901b60448201526064015b60405180910390fd5b620002118284620004c0565b84511015620002575760405162461bcd60e51b8152602060048201526011602482015270736c6963655f6f75744f66426f756e647360781b6044820152606401620001fc565b606082158015620002785760405191506000825260208201604052620002c4565b6040519150601f8416801560200281840101858101878315602002848b0101015b81831015620002b357805183526020928301920162000299565b5050858452601f01601f1916604052505b50949350505050565b600060208284031215620002e057600080fd5b81516001600160a01b0381168114620002f857600080fd5b9392505050565b634e487b7160e01b600052604160045260246000fd5b600181811c908216806200032a57607f821691505b6020821081036200034b57634e487b7160e01b600052602260045260246000fd5b50919050565b601f8211156200039f57600081815260208120601f850160051c810160208610156200037a5750805b601f850160051c820191505b818110156200039b5782815560010162000386565b5050505b505050565b81516001600160401b03811115620003c057620003c0620002ff565b620003d881620003d1845462000315565b8462000351565b602080601f831160018114620004105760008415620003f75750858301515b600019600386901b1c1916600185901b1785556200039b565b600085815260208120601f198616915b82811015620004415788860151825594840194600190910190840162000420565b5085821015620004605787850151600019600388901b60f8161c191681555b5050505050600190811b01905550565b600060208083528351808285015260005b818110156200049f5785810183015185820160400152820162000481565b506000604082860101526040601f19601f8301168501019250505092915050565b80820180821115620004e257634e487b7160e01b600052601160045260246000fd5b92915050565b6127e980620004f86000396000f3fe6080604052600436106100e15760003560e01c80636bb56a141161007f5780637f23690c116100595780637f23690c146102735780638da5cb5b14610293578063e30c3978146102c5578063f2fde38b146102e35761010a565b80636bb56a1414610236578063715018a61461024957806379ba50971461025e5761010a565b80631626ba7e116100bb5780631626ba7e146101a957806344c028fe146101d65780634e3e6e9c146101f657806354f6127f146102165761010a565b806301ffc9a71461013457806313ced88d1461016957806314a6e293146101895761010a565b3661010a573415610108576040513490339060008051602061279483398151915290600090a35b005b341561012c576040513490339060008051602061279483398151915290600090a35b610108610303565b34801561014057600080fd5b5061015461014f366004611e1a565b610371565b60405190151581526020015b60405180910390f35b61017c61017736600461201e565b6103fc565b6040516101609190612175565b34801561019557600080fd5b506101086101a43660046121d7565b61043f565b3480156101b557600080fd5b506101c96101c436600461223a565b6104cb565b6040516101609190612276565b6101e96101e436600461228b565b6105cc565b60405161016091906122df565b34801561020257600080fd5b5061017c6102113660046122f2565b610604565b34801561022257600080fd5b506101e9610231366004612326565b6106b7565b6101e961024436600461233f565b6106c2565b34801561025557600080fd5b5061010861084c565b34801561026a57600080fd5b5061010861085e565b34801561027f57600080fd5b5061010861028e36600461223a565b610866565b34801561029f57600080fd5b506000546001600160a01b03165b6040516001600160a01b039091168152602001610160565b3480156102d157600080fd5b506003546001600160a01b03166102ad565b3480156102ef57600080fd5b506101086102fe3660046123ba565b61087c565b600436101561030e57565b60006103256000356001600160e01b031916610a04565b90506001600160a01b0381166103385750565b36600080373360601b365234601436015260008060343601600080855af13d6000803e808015610367573d6000f35b3d6000fd5b505050565b60006001600160e01b03198216630b135d3f60e11b14806103a257506001600160e01b03198216636676749760e01b145b806103bd57506001600160e01b03198216631aed5a8560e21b145b806103d857506001600160e01b031982166394be599960e01b145b806103e757506103e782610a49565b806103f657506103f682610a6e565b92915050565b6060610406610aa4565b3415610428576040513490339060008051602061279483398151915290600090a35b61043485858585610b0d565b90505b949350505050565b610447610aa4565b805182511461047b57815181516040516321d1e13360e11b8152600481019290925260248201526044015b60405180910390fd5b60005b825181101561036c576104c383828151811061049c5761049c6123d5565b60200260200101518383815181106104b6576104b66123d5565b6020026020010151610c51565b60010161047e565b6000806104e06000546001600160a01b031690565b90506001600160a01b0381163b1561058c5761050381630b135d3f60e11b610cc5565b610515576001600160e01b0319610584565b604051630b135d3f60e11b81526001600160a01b03821690631626ba7e9061054390879087906004016123eb565b602060405180830381865afa158015610560573d6000803e3d6000fd5b505050506040513d601f19601f820116820180604052508101906105849190612404565b9150506103f6565b6105968484610d59565b6001600160a01b0316816001600160a01b0316146105bc576001600160e01b0319610584565b50630b135d3f60e11b9392505050565b60606105d6610aa4565b34156105f8576040513490339060008051602061279483398151915290600090a35b61043485858585610d7d565b606081516001600160401b0381111561061f5761061f611e37565b60405190808252806020026020018201604052801561065257816020015b606081526020019060019003908161063d5790505b50905060005b82518110156106b157610683838281518110610676576106766123d5565b6020026020010151610e88565b828281518110610695576106956123d5565b60200260200101819052506106aa8160010190565b9050610658565b50919050565b60606103f682610e88565b606034156106e6576040513490339060008051602061279483398151915290600090a35b60006107117f0cfc51aec37c55a4d0b1a65c6255c4bf2fbdf6277f3cc0730c45b828b6db8b47610e88565b90506060601482511061076057600061072983612421565b60601c905061073f81631aed5a8560e21b610cc5565b1561075e5761075b6001600160a01b0382168888883334610f2a565b91505b505b6000610779690cfc51aec37c55a4d0b160b01b88611072565b9050600061078682610e88565b9050606060148251106107d557600061079e83612421565b60601c90506107b481631aed5a8560e21b610cc5565b156107d3576107d06001600160a01b0382168b8b8b3334610f2a565b91505b505b83816040516020016107e8929190612458565b60405160208183030381529060405295508834336001600160a01b03167f9c3ba68eb5742b8e3961aea0afc7371a71bf433c8a67a831803b64c064a178c28b8b8b604051610838939291906124a6565b60405180910390a450505050509392505050565b610854610aa4565b61085c6110be565b565b61085c611196565b61086e610aa4565b6108788282610c51565b5050565b610884610aa4565b61088d816112a3565b50565b6000546001600160a01b0382811691161461088d57600080546001600160a01b038381166001600160a01b0319831681178455604051919092169283917f8be0079c531659141344cd1fd0a4f28419497f9722a3daafe3b4186f6b6457e09190a35050565b60608161090381601f6124e2565b10156109425760405162461bcd60e51b815260206004820152600e60248201526d736c6963655f6f766572666c6f7760901b6044820152606401610472565b61094c82846124e2565b845110156109905760405162461bcd60e51b8152602060048201526011602482015270736c6963655f6f75744f66426f756e647360781b6044820152606401610472565b6060821580156109af57604051915060008252602082016040526109f9565b6040519150601f8416801560200281840101858101878315602002848b0101015b818310156109e85780518352602092830192016109d0565b5050858452601f01601f1916604052505b5090505b9392505050565b600080610a28696773c5a04a6d4300884b60b11b6001600160e01b03198516611072565b90506000610a3582610e88565b610a3e90612421565b60601c949350505050565b60006001600160e01b0319821663a918fa6b60e01b14806103f657506103f6826113ff565b600080610a816301ffc9a760e01b610a04565b90506001600160a01b038116610a9a5750600092915050565b6109fd8184610cc5565b33610ab76000546001600160a01b031690565b6001600160a01b03161461085c5760405162461bcd60e51b815260206004820181905260248201527f4f776e61626c653a2063616c6c6572206973206e6f7420746865206f776e65726044820152606401610472565b606083518551141580610b2e575082518451141580610b2e57508151835114155b15610b4c57604051633ff55f4d60e01b815260040160405180910390fd5b600085516001600160401b03811115610b6757610b67611e37565b604051908082528060200260200182016040528015610b9a57816020015b6060815260200190600190039081610b855790505b50905060005b8651811015610c4757610c19878281518110610bbe57610bbe6123d5565b6020026020010151878381518110610bd857610bd86123d5565b6020026020010151878481518110610bf257610bf26123d5565b6020026020010151878581518110610c0c57610c0c6123d5565b6020026020010151610d7d565b828281518110610c2b57610c2b6123d5565b6020026020010181905250610c408160010190565b9050610ba0565b5095945050505050565b6000828152600160205260409020610c698282612577565b50817fece574603820d07bc9b91f2a932baadf4628aabcb8afba49776529c14a6104b261010083511115610caa57610ca58360006101006108f5565b610cac565b825b604051610cb991906122df565b60405180910390a25050565b6000806301ffc9a760e01b83604051602401610ce19190612276565b604051602081830303815290604052906001600160e01b0319166020820180516001600160e01b03838183161783525050505090506000806000602060008551602087018a617530fa92503d91506000519050828015610d42575060208210155b8015610d4e5750600081115b979650505050505050565b6000806000610d688585611424565b91509150610d7581611469565b509392505050565b606084610d9657610d8f84848461161f565b9050610437565b60018503610dd0576001600160a01b03841615610dc657604051631820c12560e11b815260040160405180910390fd5b610d8f838361173d565b60028503610e0a576001600160a01b03841615610e0057604051631820c12560e11b815260040160405180910390fd5b610d8f8383611839565b60038503610e3b578215610e31576040516339795e3560e11b815260040160405180910390fd5b610d8f848361191f565b60048503610e6c578215610e6257604051635ac8313560e01b815260040160405180910390fd5b610d8f8483611a10565b604051631d60ecef60e21b815260048101869052602401610472565b6000818152600160205260409020805460609190610ea5906124f5565b80601f0160208091040260200160405190810160405280929190818152602001828054610ed1906124f5565b8015610f1e5780601f10610ef357610100808354040283529160200191610f1e565b820191906000526020600020905b815481529060010190602001808311610f0157829003601f168201915b50505050509050919050565b60606000636bb56a1460e01b878787604051602401610f4b93929190612636565b60408051601f19818403018152918152602080830180516001600160e01b03166001600160e01b03199095169490941790935251610f8d928791879101612650565b6040516020818303038152906040529050600080896001600160a01b031683604051610fb9919061268a565b6000604051808303816000865af19150503d8060008114610ff6576040519150601f19603f3d011682016040523d82523d6000602084013e610ffb565b606091505b509150915061104082826040518060400160405280602081526020017f43616c6c20746f20756e6976657273616c5265636569766572206661696c6564815250611ab5565b5080516000036110505780611064565b8080602001905181019061106491906126a6565b9a9950505050505050505050565b604080516001600160b01b0319841660208201526000602a82018190526001600160601b03198416602c8301529182910160405160208183030381529060405290508061043790612713565b60025443906000906110d2906064906124e2565b905060006110e16064836124e2565b90508083111561111e5760028390556040517f56272768d104766ae5e663c58927d0a9e47effb40b9a8f6644ac5dfbc9e56f8490600090a1505050565b8183101561114957604051638b9bf50760e01b81526004810183905260248101829052604401610472565b6111536000610890565b60006002819055600380546001600160a01b03191690556040517fd1f66c3d2bc1993a86be5e3d33709d98f0442381befcedd29f578b9b2506b1ce9190a1505050565b6003546001600160a01b031633146111fe5760405162461bcd60e51b815260206004820152602560248201527f4c535031343a2063616c6c6572206973206e6f74207468652070656e64696e6760448201526427bbb732b960d91b6064820152608401610472565b6000546003546001600160a01b039182169161121a9116610890565b600380546001600160a01b03191690556040805160208101909152600081526112669082907fa124442e1cc7b52d8e2ede2787d43527dc1f3ae0de87f50dd03e27a71834f74c90611aee565b61088d337fe32c7debcb817925ba4883fdbfc52797187f28f73f860641dab1a68d9b32902c60001b60405180602001604052806000815250611aee565b306001600160a01b038216036112cc576040516343b248cd60e01b815260040160405180910390fd5b600380546001600160a01b0383166001600160a01b031990911617905560006112fd6000546001600160a01b031690565b9050816001600160a01b0316816001600160a01b03167f38d16b8cac22d99fc7c124b9cd0de2d3fa1faef420bfe791d8c362d765e2270060405160405180910390a361137c827fee9a7c0924f740a2ca33d59b7f0c2929821ea9837ce043ce91c1823e9c4e52c060001b60405180602001604052806000815250611aee565b6000546001600160a01b038281169116146108785760405162461bcd60e51b815260206004820152603f60248201527f4c535031343a206e65774f776e6572204d55535420616363657074206f776e6560448201527f727368697020696e2061207365706172617465207472616e73616374696f6e006064820152608401610472565b60006001600160e01b03198216631c537ddf60e21b14806103f657506103f682611b7f565b600080825160410361145a5760208301516040840151606085015160001a61144e87828585611bb4565b94509450505050611462565b506000905060025b9250929050565b600081600481111561147d5761147d612737565b036114855750565b600181600481111561149957611499612737565b036114e65760405162461bcd60e51b815260206004820152601860248201527f45434453413a20696e76616c6964207369676e617475726500000000000000006044820152606401610472565b60028160048111156114fa576114fa612737565b036115475760405162461bcd60e51b815260206004820152601f60248201527f45434453413a20696e76616c6964207369676e6174757265206c656e677468006044820152606401610472565b600381600481111561155b5761155b612737565b036115b35760405162461bcd60e51b815260206004820152602260248201527f45434453413a20696e76616c6964207369676e6174757265202773272076616c604482015261756560f01b6064820152608401610472565b60048160048111156115c7576115c7612737565b0361088d5760405162461bcd60e51b815260206004820152602260248201527f45434453413a20696e76616c6964207369676e6174757265202776272076616c604482015261756560f01b6064820152608401610472565b60608247101561164b576040516301bf351f60e31b815247600482015260248101849052604401610472565b826001600160a01b03851660007f4810874456b8e6487bd861375cf6abd8e1c8bb5858c8ce36a86a04dabfac199e6116828661274d565b60405161168f9190612276565b60405180910390a4600080856001600160a01b031685856040516116b3919061268a565b60006040518083038185875af1925050503d80600081146116f0576040519150601f19603f3d011682016040523d82523d6000602084013e6116f5565b606091505b509150915061173382826040518060400160405280601681526020017522a9219b991aac1d102ab735b737bbb71022b93937b960511b815250611ab5565b9695505050505050565b606082471015611769576040516301bf351f60e31b815247600482015260248101849052604401610472565b815160000361178b5760405163b81cd8d960e01b815260040160405180910390fd5b600082516020840185f090506001600160a01b0381166117be57604051630b07489b60e01b815260040160405180910390fd5b6040516001600160601b0319606083901b166020820152603401604051602081830303815290604052915083816001600160a01b031660017fa1fb700aaee2ae4a2ff6f91ce7eba292f89c2f5488b8ec4c5c5c8150692595c36000801b60405161182a91815260200190565b60405180910390a45092915050565b6060815160000361185d5760405163b81cd8d960e01b815260040160405180910390fd5b600061187683602085516118719190612780565b611ca1565b905060006118938460006020875161188e9190612780565b6108f5565b905060006118a2868484611cff565b6040516001600160601b0319606083901b166020820152909150603401604051602081830303815290604052935085816001600160a01b031660027fa1fb700aaee2ae4a2ff6f91ce7eba292f89c2f5488b8ec4c5c5c8150692595c38660405161190e91815260200190565b60405180910390a450505092915050565b606060006001600160a01b03841660037f4810874456b8e6487bd861375cf6abd8e1c8bb5858c8ce36a86a04dabfac199e6119598661274d565b6040516119669190612276565b60405180910390a4600080846001600160a01b031684604051611989919061268a565b600060405180830381855afa9150503d80600081146119c4576040519150601f19603f3d011682016040523d82523d6000602084013e6119c9565b606091505b5091509150611a0782826040518060400160405280601681526020017522a9219b991aac1d102ab735b737bbb71022b93937b960511b815250611ab5565b95945050505050565b606060006001600160a01b03841660047f4810874456b8e6487bd861375cf6abd8e1c8bb5858c8ce36a86a04dabfac199e611a4a8661274d565b604051611a579190612276565b60405180910390a4600080846001600160a01b031684604051611a7a919061268a565b600060405180830381855af49150503d80600081146119c4576040519150601f19603f3d011682016040523d82523d6000602084013e6119c9565b60608315611ac45750816109fd565b825115611ad45782518084602001fd5b8160405162461bcd60e51b815260040161047291906122df565b611aff83631aed5a8560e21b610cc5565b1561036c57604051631aed5a8560e21b81526001600160a01b03841690636bb56a1490611b3290859085906004016123eb565b6000604051808303816000875af1158015611b51573d6000803e3d6000fd5b505050506040513d6000823e601f3d908101601f19168201604052611b7991908101906126a6565b50505050565b60006001600160e01b0319821663570ef07360e01b14806103f657506301ffc9a760e01b6001600160e01b03198316146103f6565b6000807f7fffffffffffffffffffffffffffffff5d576e7357a4501ddfe92f46681b20a0831115611beb5750600090506003611c98565b8460ff16601b14158015611c0357508460ff16601c14155b15611c145750600090506004611c98565b6040805160008082526020820180845289905260ff881692820192909252606081018690526080810185905260019060a0016020604051602081039080840390855afa158015611c68573d6000803e3d6000fd5b5050604051601f1901519150506001600160a01b038116611c9157600060019250925050611c98565b9150600090505b94509492505050565b6000611cae8260206124e2565b83511015611cf65760405162461bcd60e51b8152602060048201526015602482015274746f427974657333325f6f75744f66426f756e647360581b6044820152606401610472565b50016020015190565b60008084471015611d525760405162461bcd60e51b815260206004820152601d60248201527f437265617465323a20696e73756666696369656e742062616c616e63650000006044820152606401610472565b8251600003611da35760405162461bcd60e51b815260206004820181905260248201527f437265617465323a2062797465636f6465206c656e677468206973207a65726f6044820152606401610472565b8383516020850187f590506001600160a01b0381166104375760405162461bcd60e51b815260206004820152601960248201527f437265617465323a204661696c6564206f6e206465706c6f79000000000000006044820152606401610472565b6001600160e01b03198116811461088d57600080fd5b600060208284031215611e2c57600080fd5b81356109fd81611e04565b634e487b7160e01b600052604160045260246000fd5b604051601f8201601f191681016001600160401b0381118282101715611e7557611e75611e37565b604052919050565b60006001600160401b03821115611e9657611e96611e37565b5060051b60200190565b600082601f830112611eb157600080fd5b81356020611ec6611ec183611e7d565b611e4d565b82815260059290921b84018101918181019086841115611ee557600080fd5b8286015b84811015611f005780358352918301918301611ee9565b509695505050505050565b80356001600160a01b0381168114611f2257600080fd5b919050565b60006001600160401b03821115611f4057611f40611e37565b50601f01601f191660200190565b600082601f830112611f5f57600080fd5b8135611f6d611ec182611f27565b818152846020838601011115611f8257600080fd5b816020850160208301376000918101602001919091529392505050565b600082601f830112611fb057600080fd5b81356020611fc0611ec183611e7d565b82815260059290921b84018101918181019086841115611fdf57600080fd5b8286015b84811015611f005780356001600160401b038111156120025760008081fd5b6120108986838b0101611f4e565b845250918301918301611fe3565b6000806000806080858703121561203457600080fd5b84356001600160401b038082111561204b57600080fd5b61205788838901611ea0565b955060209150818701358181111561206e57600080fd5b8701601f8101891361207f57600080fd5b803561208d611ec182611e7d565b81815260059190911b8201840190848101908b8311156120ac57600080fd5b928501925b828410156120d1576120c284611f0b565b825292850192908501906120b1565b975050505060408701359150808211156120ea57600080fd5b6120f688838901611ea0565b9350606087013591508082111561210c57600080fd5b5061211987828801611f9f565b91505092959194509250565b60005b83811015612140578181015183820152602001612128565b50506000910152565b60008151808452612161816020860160208601612125565b601f01601f19169290920160200192915050565b6000602080830181845280855180835260408601915060408160051b870101925083870160005b828110156121ca57603f198886030184526121b8858351612149565b9450928501929085019060010161219c565b5092979650505050505050565b600080604083850312156121ea57600080fd5b82356001600160401b038082111561220157600080fd5b61220d86838701611ea0565b9350602085013591508082111561222357600080fd5b5061223085828601611f9f565b9150509250929050565b6000806040838503121561224d57600080fd5b8235915060208301356001600160401b0381111561226a57600080fd5b61223085828601611f4e565b6001600160e01b031991909116815260200190565b600080600080608085870312156122a157600080fd5b843593506122b160208601611f0b565b92506040850135915060608501356001600160401b038111156122d357600080fd5b61211987828801611f4e565b6020815260006109fd6020830184612149565b60006020828403121561230457600080fd5b81356001600160401b0381111561231a57600080fd5b61043784828501611ea0565b60006020828403121561233857600080fd5b5035919050565b60008060006040848603121561235457600080fd5b8335925060208401356001600160401b038082111561237257600080fd5b818601915086601f83011261238657600080fd5b81358181111561239557600080fd5b8760208285010111156123a757600080fd5b6020830194508093505050509250925092565b6000602082840312156123cc57600080fd5b6109fd82611f0b565b634e487b7160e01b600052603260045260246000fd5b8281526040602082015260006104376040830184612149565b60006020828403121561241657600080fd5b81516109fd81611e04565b805160208201516001600160601b031980821692919060148310156124505780818460140360031b1b83161693505b505050919050565b60408152600061246b6040830185612149565b8281036020840152611a078185612149565b81835281816020850137506000828201602090810191909152601f909101601f19169091010190565b6040815260006124ba60408301858761247d565b82810360208401526117338185612149565b634e487b7160e01b600052601160045260246000fd5b808201808211156103f6576103f66124cc565b600181811c9082168061250957607f821691505b6020821081036106b157634e487b7160e01b600052602260045260246000fd5b601f82111561036c57600081815260208120601f850160051c810160208610156125505750805b601f850160051c820191505b8181101561256f5782815560010161255c565b505050505050565b81516001600160401b0381111561259057612590611e37565b6125a48161259e84546124f5565b84612529565b602080601f8311600181146125d957600084156125c15750858301515b600019600386901b1c1916600185901b17855561256f565b600085815260208120601f198616915b82811015612608578886015182559484019460019091019084016125e9565b50858210156126265787850151600019600388901b60f8161c191681555b5050505050600190811b01905550565b83815260406020820152600061043460408301848661247d565b60008451612662818460208901612125565b60609490941b6001600160601b03191691909301908152601481019190915260340192915050565b6000825161269c818460208701612125565b9190910192915050565b6000602082840312156126b857600080fd5b81516001600160401b038111156126ce57600080fd5b8201601f810184136126df57600080fd5b80516126ed611ec182611f27565b81815285602083850101111561270257600080fd5b611a07826020830160208601612125565b805160208083015191908110156106b15760001960209190910360031b1b16919050565b634e487b7160e01b600052602160045260246000fd5b805160208201516001600160e01b031980821692919060048310156124505760049290920360031b82901b161692915050565b818103818111156103f6576103f66124cc56fe7e71433ddf847725166244795048ecf3e3f9f35628254ecbf736056664233493a26469706673582212200100afbf26d14e36ebd53898d598cde7955c5d66475be5d2430419626eb6c6d464736f6c63430008110033",
    "linkReferences": {}
  },
  "methodIdentifiers": {
    "acceptOwnership()": "79ba5097",
    "execute(uint256,address,uint256,bytes)": "44c028fe",
    "execute(uint256[],address[],uint256[],bytes[])": "13ced88d",
    "getData(bytes32)": "54f6127f",
    "getData(bytes32[])": "4e3e6e9c",
    "isValidSignature(bytes32,bytes)": "1626ba7e",
    "owner()": "8da5cb5b",
    "pendingOwner()": "e30c3978",
    "renounceOwnership()": "715018a6",
    "setData(bytes32,bytes)": "7f23690c",
    "setData(bytes32[],bytes[])": "14a6e293",
    "supportsInterface(bytes4)": "01ffc9a7",
    "transferOwnership(address)": "f2fde38b",
    "universalReceiver(bytes32,bytes)": "6bb56a14"
  },
  "id": 153
}