{
  "abi": [
    {
      "inputs": [
        {
          "internalType": "uint256",
          "name": "dataKeysLength",
          "type": "uint256"
        },
        {
          "internalType": "uint256",
          "name": "dataValuesLength",
          "type": "uint256"
        }
      ],
      "name": "ERC725Y_DataKeysValuesLengthMismatch",
      "type": "error"
    },
    {
      "inputs": [],
      "name": "LSP4TokenNameNotEditable",
      "type": "error"
    },
    {
      "inputs": [],
      "name": "LSP4TokenSymbolNotEditable",
      "type": "error"
    },
    {
      "inputs": [],
      "name": "LSP8CannotSendToAddressZero",
      "type": "error"
    },
    {
      "inputs": [],
      "name": "LSP8CannotSendToSelf",
      "type": "error"
    },
    {
      "inputs": [],
      "name": "LSP8CannotUseAddressZeroAsOperator",
      "type": "error"
    },
    {
      "inputs": [],
      "name": "LSP8InvalidTransferBatch",
      "type": "error"
    },
    {
      "inputs": [
        {
          "internalType": "bytes32",
          "name": "tokenId",
          "type": "bytes32"
        }
      ],
      "name": "LSP8NonExistentTokenId",
      "type": "error"
    },
    {
      "inputs": [
        {
          "internalType": "address",
          "name": "operator",
          "type": "address"
        },
        {
          "internalType": "bytes32",
          "name": "tokenId",
          "type": "bytes32"
        }
      ],
      "name": "LSP8NonExistingOperator",
      "type": "error"
    },
    {
      "inputs": [
        {
          "internalType": "bytes32",
          "name": "tokenId",
          "type": "bytes32"
        },
        {
          "internalType": "address",
          "name": "caller",
          "type": "address"
        }
      ],
      "name": "LSP8NotTokenOperator",
      "type": "error"
    },
    {
      "inputs": [
        {
          "internalType": "address",
          "name": "tokenOwner",
          "type": "address"
        },
        {
          "internalType": "bytes32",
          "name": "tokenId",
          "type": "bytes32"
        },
        {
          "internalType": "address",
          "name": "caller",
          "type": "address"
        }
      ],
      "name": "LSP8NotTokenOwner",
      "type": "error"
    },
    {
      "inputs": [
        {
          "internalType": "address",
          "name": "tokenReceiver",
          "type": "address"
        }
      ],
      "name": "LSP8NotifyTokenReceiverContractMissingLSP1Interface",
      "type": "error"
    },
    {
      "inputs": [
        {
          "internalType": "address",
          "name": "tokenReceiver",
          "type": "address"
        }
      ],
      "name": "LSP8NotifyTokenReceiverIsEOA",
      "type": "error"
    },
    {
      "inputs": [
        {
          "internalType": "address",
          "name": "operator",
          "type": "address"
        },
        {
          "internalType": "bytes32",
          "name": "tokenId",
          "type": "bytes32"
        }
      ],
      "name": "LSP8OperatorAlreadyAuthorized",
      "type": "error"
    },
    {
      "inputs": [
        {
          "internalType": "bytes32",
          "name": "tokenId",
          "type": "bytes32"
        }
      ],
      "name": "LSP8TokenIdAlreadyMinted",
      "type": "error"
    },
    {
      "anonymous": false,
      "inputs": [
        {
          "indexed": true,
          "internalType": "address",
          "name": "operator",
          "type": "address"
        },
        {
          "indexed": true,
          "internalType": "address",
          "name": "tokenOwner",
          "type": "address"
        },
        {
          "indexed": true,
          "internalType": "bytes32",
          "name": "tokenId",
          "type": "bytes32"
        }
      ],
      "name": "AuthorizedOperator",
      "type": "event"
    },
    {
      "anonymous": false,
      "inputs": [
        {
          "indexed": true,
          "internalType": "bytes32",
          "name": "dataKey",
          "type": "bytes32"
        },
        {
          "indexed": false,
          "internalType": "bytes",
          "name": "dataValue",
          "type": "bytes"
        }
      ],
      "name": "DataChanged",
      "type": "event"
    },
    {
      "anonymous": false,
      "inputs": [
        {
          "indexed": false,
          "internalType": "uint8",
          "name": "version",
          "type": "uint8"
        }
      ],
      "name": "Initialized",
      "type": "event"
    },
    {
      "anonymous": false,
      "inputs": [
        {
          "indexed": true,
          "internalType": "address",
          "name": "previousOwner",
          "type": "address"
        },
        {
          "indexed": true,
          "internalType": "address",
          "name": "newOwner",
          "type": "address"
        }
      ],
      "name": "OwnershipTransferred",
      "type": "event"
    },
    {
      "anonymous": false,
      "inputs": [
        {
          "indexed": true,
          "internalType": "address",
          "name": "operator",
          "type": "address"
        },
        {
          "indexed": true,
          "internalType": "address",
          "name": "tokenOwner",
          "type": "address"
        },
        {
          "indexed": true,
          "internalType": "bytes32",
          "name": "tokenId",
          "type": "bytes32"
        }
      ],
      "name": "RevokedOperator",
      "type": "event"
    },
    {
      "anonymous": false,
      "inputs": [
        {
          "indexed": false,
          "internalType": "address",
          "name": "operator",
          "type": "address"
        },
        {
          "indexed": true,
          "internalType": "address",
          "name": "from",
          "type": "address"
        },
        {
          "indexed": true,
          "internalType": "address",
          "name": "to",
          "type": "address"
        },
        {
          "indexed": true,
          "internalType": "bytes32",
          "name": "tokenId",
          "type": "bytes32"
        },
        {
          "indexed": false,
          "internalType": "bool",
          "name": "force",
          "type": "bool"
        },
        {
          "indexed": false,
          "internalType": "bytes",
          "name": "data",
          "type": "bytes"
        }
      ],
      "name": "Transfer",
      "type": "event"
    },
    {
      "inputs": [
        {
          "internalType": "address",
          "name": "operator",
          "type": "address"
        },
        {
          "internalType": "bytes32",
          "name": "tokenId",
          "type": "bytes32"
        }
      ],
      "name": "authorizeOperator",
      "outputs": [],
      "stateMutability": "nonpayable",
      "type": "function"
    },
    {
      "inputs": [
        {
          "internalType": "address",
          "name": "tokenOwner",
          "type": "address"
        }
      ],
      "name": "balanceOf",
      "outputs": [
        {
          "internalType": "uint256",
          "name": "",
          "type": "uint256"
        }
      ],
      "stateMutability": "view",
      "type": "function"
    },
    {
      "inputs": [
        {
          "internalType": "bytes32",
          "name": "tokenId",
          "type": "bytes32"
        },
        {
          "internalType": "bytes",
          "name": "data",
          "type": "bytes"
        }
      ],
      "name": "burn",
      "outputs": [],
      "stateMutability": "nonpayable",
      "type": "function"
    },
    {
      "inputs": [
        {
          "internalType": "bytes32[]",
          "name": "dataKeys",
          "type": "bytes32[]"
        }
      ],
      "name": "getData",
      "outputs": [
        {
          "internalType": "bytes[]",
          "name": "dataValues",
          "type": "bytes[]"
        }
      ],
      "stateMutability": "view",
      "type": "function"
    },
    {
      "inputs": [
        {
          "internalType": "bytes32",
          "name": "dataKey",
          "type": "bytes32"
        }
      ],
      "name": "getData",
      "outputs": [
        {
          "internalType": "bytes",
          "name": "dataValue",
          "type": "bytes"
        }
      ],
      "stateMutability": "view",
      "type": "function"
    },
    {
      "inputs": [
        {
          "internalType": "bytes32",
          "name": "tokenId",
          "type": "bytes32"
        }
      ],
      "name": "getOperatorsOf",
      "outputs": [
        {
          "internalType": "address[]",
          "name": "",
          "type": "address[]"
        }
      ],
      "stateMutability": "view",
      "type": "function"
    },
    {
      "inputs": [
        {
          "internalType": "string",
          "name": "name",
          "type": "string"
        },
        {
          "internalType": "string",
          "name": "symbol",
          "type": "string"
        },
        {
          "internalType": "address",
          "name": "newOwner",
          "type": "address"
        }
      ],
      "name": "initialize",
      "outputs": [],
      "stateMutability": "nonpayable",
      "type": "function"
    },
    {
      "inputs": [
        {
          "internalType": "address",
          "name": "operator",
          "type": "address"
        },
        {
          "internalType": "bytes32",
          "name": "tokenId",
          "type": "bytes32"
        }
      ],
      "name": "isOperatorFor",
      "outputs": [
        {
          "internalType": "bool",
          "name": "",
          "type": "bool"
        }
      ],
      "stateMutability": "view",
      "type": "function"
    },
    {
      "inputs": [
        {
          "internalType": "address",
          "name": "to",
          "type": "address"
        },
        {
          "internalType": "bytes32",
          "name": "tokenId",
          "type": "bytes32"
        },
        {
          "internalType": "bool",
          "name": "force",
          "type": "bool"
        },
        {
          "internalType": "bytes",
          "name": "data",
          "type": "bytes"
        }
      ],
      "name": "mint",
      "outputs": [],
      "stateMutability": "nonpayable",
      "type": "function"
    },
    {
      "inputs": [],
      "name": "owner",
      "outputs": [
        {
          "internalType": "address",
          "name": "",
          "type": "address"
        }
      ],
      "stateMutability": "view",
      "type": "function"
    },
    {
      "inputs": [],
      "name": "renounceOwnership",
      "outputs": [],
      "stateMutability": "nonpayable",
      "type": "function"
    },
    {
      "inputs": [
        {
          "internalType": "address",
          "name": "operator",
          "type": "address"
        },
        {
          "internalType": "bytes32",
          "name": "tokenId",
          "type": "bytes32"
        }
      ],
      "name": "revokeOperator",
      "outputs": [],
      "stateMutability": "nonpayable",
      "type": "function"
    },
    {
      "inputs": [
        {
          "internalType": "bytes32[]",
          "name": "dataKeys",
          "type": "bytes32[]"
        },
        {
          "internalType": "bytes[]",
          "name": "dataValues",
          "type": "bytes[]"
        }
      ],
      "name": "setData",
      "outputs": [],
      "stateMutability": "nonpayable",
      "type": "function"
    },
    {
      "inputs": [
        {
          "internalType": "bytes32",
          "name": "dataKey",
          "type": "bytes32"
        },
        {
          "internalType": "bytes",
          "name": "dataValue",
          "type": "bytes"
        }
      ],
      "name": "setData",
      "outputs": [],
      "stateMutability": "nonpayable",
      "type": "function"
    },
    {
      "inputs": [
        {
          "internalType": "bytes4",
          "name": "interfaceId",
          "type": "bytes4"
        }
      ],
      "name": "supportsInterface",
      "outputs": [
        {
          "internalType": "bool",
          "name": "",
          "type": "bool"
        }
      ],
      "stateMutability": "view",
      "type": "function"
    },
    {
      "inputs": [
        {
          "internalType": "address",
          "name": "tokenOwner",
          "type": "address"
        }
      ],
      "name": "tokenIdsOf",
      "outputs": [
        {
          "internalType": "bytes32[]",
          "name": "",
          "type": "bytes32[]"
        }
      ],
      "stateMutability": "view",
      "type": "function"
    },
    {
      "inputs": [
        {
          "internalType": "bytes32",
          "name": "tokenId",
          "type": "bytes32"
        }
      ],
      "name": "tokenOwnerOf",
      "outputs": [
        {
          "internalType": "address",
          "name": "",
          "type": "address"
        }
      ],
      "stateMutability": "view",
      "type": "function"
    },
    {
      "inputs": [],
      "name": "totalSupply",
      "outputs": [
        {
          "internalType": "uint256",
          "name": "",
          "type": "uint256"
        }
      ],
      "stateMutability": "view",
      "type": "function"
    },
    {
      "inputs": [
        {
          "internalType": "address",
          "name": "from",
          "type": "address"
        },
        {
          "internalType": "address",
          "name": "to",
          "type": "address"
        },
        {
          "internalType": "bytes32",
          "name": "tokenId",
          "type": "bytes32"
        },
        {
          "internalType": "bool",
          "name": "force",
          "type": "bool"
        },
        {
          "internalType": "bytes",
          "name": "data",
          "type": "bytes"
        }
      ],
      "name": "transfer",
      "outputs": [],
      "stateMutability": "nonpayable",
      "type": "function"
    },
    {
      "inputs": [
        {
          "internalType": "address[]",
          "name": "from",
          "type": "address[]"
        },
        {
          "internalType": "address[]",
          "name": "to",
          "type": "address[]"
        },
        {
          "internalType": "bytes32[]",
          "name": "tokenId",
          "type": "bytes32[]"
        },
        {
          "internalType": "bool[]",
          "name": "force",
          "type": "bool[]"
        },
        {
          "internalType": "bytes[]",
          "name": "data",
          "type": "bytes[]"
        }
      ],
      "name": "transferBatch",
      "outputs": [],
      "stateMutability": "nonpayable",
      "type": "function"
    },
    {
      "inputs": [
        {
          "internalType": "address",
          "name": "newOwner",
          "type": "address"
        }
      ],
      "name": "transferOwnership",
      "outputs": [],
      "stateMutability": "nonpayable",
      "type": "function"
    }
  ],
  "bytecode": {
    "object": "0x608060405234801561001057600080fd5b506123d4806100206000396000f3fe608060405234801561001057600080fd5b50600436106101375760003560e01c806354f6127f116100b85780637f23690c1161007c5780637f23690c146102a35780638da5cb5b146102b6578063a3b261f2146102cd578063af255b61146102ed578063cf5182ba14610300578063f2fde38b1461031357600080fd5b806354f6127f146102425780636c79b70b1461026257806370a0823114610275578063715018a6146102885780637e87632c1461029057600080fd5b8063217b2270116100ff578063217b2270146101b15780632a3654a4146101dc57806349a6078d146101ef5780634e3e6e9c1461020f578063511b69521461022f57600080fd5b806301ffc9a71461013c578063077f224a146101645780630b0c6d821461017957806314a6e2931461018c57806318160ddd1461019f575b600080fd5b61014f61014a366004611934565b610326565b60405190151581526020015b60405180910390f35b610177610172366004611a3d565b610351565b005b610177610187366004611ab0565b61046d565b61017761019a366004611be2565b61050f565b6002545b60405190815260200161015b565b6101c46101bf366004611c45565b61059b565b6040516001600160a01b03909116815260200161015b565b61014f6101ea366004611ab0565b6105d4565b6102026101fd366004611c45565b6105f0565b60405161015b9190611c5e565b61022261021d366004611cab565b610612565b60405161015b9190611d2f565b61017761023d366004611da1565b6106c5565b610255610250366004611c45565b610714565b60405161015b9190611e19565b610177610270366004611e2c565b61071f565b6101a3610283366004611e68565b61075d565b61017761077e565b61017761029e366004611f47565b610792565b6101776102b1366004611e2c565b610881565b6000546201000090046001600160a01b03166101c4565b6102e06102db366004611e68565b610893565b60405161015b919061200b565b6101776102fb366004612043565b6108b7565b61017761030e366004611ab0565b6108c3565b610177610321366004611e68565b6109ec565b60006001600160e01b0319821663622e7a0160e01b148061034b575061034b82610a65565b92915050565b600054610100900460ff16158080156103715750600054600160ff909116105b8061038b5750303b15801561038b575060005460ff166001145b6103f35760405162461bcd60e51b815260206004820152602e60248201527f496e697469616c697a61626c653a20636f6e747261637420697320616c72656160448201526d191e481a5b9a5d1a585b1a5e995960921b60648201526084015b60405180910390fd5b6000805460ff191660011790558015610416576000805461ff0019166101001790555b610421848484610a9a565b8015610467576000805461ff0019169055604051600181527f7f26b83ff96e1f2b6a682f133852f6798a09c465da95921460cefb38474024989060200160405180910390a15b50505050565b60006104788261059b565b9050336001600160a01b03821681146104be57604051632d938f5160e11b81526001600160a01b03808416600483015260248201859052821660448201526064016103ea565b6001600160a01b0384166104e557604051639577b8b360e01b815260040160405180910390fd5b836001600160a01b0316826001600160a01b0316036105045750505050565b610467848385610acc565b610517610b5d565b805182511461054657815181516040516321d1e13360e11b8152600481019290925260248201526044016103ea565b60005b82518110156105965761058e838281518110610567576105676120aa565b6020026020010151838381518110610581576105816120aa565b6020026020010151610bbe565b600101610549565b505050565b6000818152600360205260408120546001600160a01b03168061034b57604051635747cd1b60e11b8152600481018490526024016103ea565b60006105df82610cb2565b6105e98383610cea565b9392505050565b60606105fb82610cb2565b600082815260056020526040902061034b90610d33565b606081516001600160401b0381111561062d5761062d61195e565b60405190808252806020026020018201604052801561066057816020015b606081526020019060019003908161064b5790505b50905060005b82518110156106bf57610691838281518110610684576106846120aa565b6020026020010151610d40565b8282815181106106a3576106a36120aa565b60200260200101819052506106b88160010190565b9050610666565b50919050565b336106d08185610cea565b6106ff57604051631294d2a960e01b8152600481018590526001600160a01b03821660248201526044016103ea565b61070c8686868686610de2565b505050505050565b606061034b82610d40565b6107293383610cea565b61074f57604051631294d2a960e01b8152600481018390523360248201526044016103ea565b6107598282610f6c565b5050565b6001600160a01b038116600090815260046020526040812061034b90611032565b610786610b5d565b610790600061103c565b565b84518451811415806107a5575083518114155b806107b1575082518114155b806107bd575081518114155b156107db576040516393a8311960e01b815260040160405180910390fd5b60005b81811015610878576108708782815181106107fb576107fb6120aa565b6020026020010151878381518110610815576108156120aa565b602002602001015187848151811061082f5761082f6120aa565b6020026020010151878581518110610849576108496120aa565b6020026020010151878681518110610863576108636120aa565b60200260200101516106c5565b6001016107de565b50505050505050565b610889610b5d565b6107598282610bbe565b6001600160a01b038116600090815260046020526040902060609061034b906110b2565b610467848484846110bd565b60006108ce8261059b565b9050336001600160a01b038216811461091457604051632d938f5160e11b81526001600160a01b03808416600483015260248201859052821660448201526064016103ea565b6001600160a01b03841661093b57604051639577b8b360e01b815260040160405180910390fd5b836001600160a01b0316826001600160a01b03160361095a5750505050565b600083815260056020526040812061097290866111d7565b9050806109a4576040516314ec4d6d60e31b81526001600160a01b0386166004820152602481018590526044016103ea565b83836001600160a01b0316866001600160a01b03167f34b797fc5a526f7bf1d2b5de25f6564fd85ae364e3ee939aee7c1ac27871a98860405160405180910390a45050505050565b6109f4610b5d565b6001600160a01b038116610a595760405162461bcd60e51b815260206004820152602660248201527f4f776e61626c653a206e6577206f776e657220697320746865207a65726f206160448201526564647265737360d01b60648201526084016103ea565b610a628161103c565b50565b60006001600160e01b03198216631c537ddf60e21b148061034b57506301ffc9a760e01b6001600160e01b031983161461034b565b600054610100900460ff16610ac15760405162461bcd60e51b81526004016103ea906120c0565b6105968383836111ec565b6000818152600560205260408120610ae490856112b9565b905080610b16576040516312a8c6a360e21b81526001600160a01b0385166004820152602481018390526044016103ea565b81836001600160a01b0316856001600160a01b03167f17d5389f6ab6adb2647dfa0aa365c323d37adacc30b33a65310b6158ce1373d560405160405180910390a450505050565b6000546001600160a01b03620100009091041633146107905760405162461bcd60e51b815260206004820181905260248201527f4f776e61626c653a2063616c6c6572206973206e6f7420746865206f776e657260448201526064016103ea565b7f2145e1d6d074577dc71ef54c3807742b41b053a9352ae6b491331509acb9750f8201610bfe576040516385c169bd60e01b815260040160405180910390fd5b7fd0f59754f88971fe6bc5a6618cc9d5f1e859c58d16b22d1c7b2d3e2b246cd8aa8201610c3e57604051630eceab6760e31b815260040160405180910390fd5b6000828152600160205260409020610c568282612185565b50817fece574603820d07bc9b91f2a932baadf4628aabcb8afba49776529c14a6104b261010083511115610c9757610c928360006101006112ce565b610c99565b825b604051610ca69190611e19565b60405180910390a25050565b6000818152600360205260409020546001600160a01b0316610a6257604051635747cd1b60e11b8152600481018290526024016103ea565b600080610cf68361059b565b9050806001600160a01b0316846001600160a01b03161480610d2b57506000838152600560205260409020610d2b90856113db565b949350505050565b606060006105e9836113fd565b6000818152600160205260409020805460609190610d5d9061210b565b80601f0160208091040260200160405190810160405280929190818152602001828054610d899061210b565b8015610dd65780601f10610dab57610100808354040283529160200191610dd6565b820191906000526020600020905b815481529060010190602001808311610db957829003601f168201915b50505050509050919050565b836001600160a01b0316856001600160a01b031603610e1457604051635d67d6c160e01b815260040160405180910390fd5b6000610e1f8461059b565b9050856001600160a01b0316816001600160a01b031614610e6d57604051632d938f5160e11b81526001600160a01b03808316600483015260248201869052871660448201526064016103ea565b6001600160a01b038516610e94576040516324ecef4d60e01b815260040160405180910390fd5b33610e9f8786611458565b6001600160a01b0387166000908152600460205260409020610ec1908661149f565b506001600160a01b0386166000908152600460205260409020610ee490866114ab565b506000858152600360205260409081902080546001600160a01b0319166001600160a01b0389811691821790925591518792918a16907fb333c813a7426a7a11e2b190cad52c44119421594b47f6f32ace6d8c7207b2bf90610f4b9086908a908a90612244565b60405180910390a4610f5f878787866114b7565b610878878787878761158b565b6000610f778361059b565b905033600160026000828254610f8d919061228f565b90915550610f9d90508285611458565b6001600160a01b0382166000908152600460205260409020610fbf908561149f565b5060008481526003602052604080822080546001600160a01b0319169055518591906001600160a01b038516907fb333c813a7426a7a11e2b190cad52c44119421594b47f6f32ace6d8c7207b2bf9061101d90869085908a90612244565b60405180910390a461046782600086866114b7565b600061034b825490565b6000546001600160a01b03828116620100009092041614610a6257600080546001600160a01b038381166201000081810262010000600160b01b0319851617855560405193049190911692909183917f8be0079c531659141344cd1fd0a4f28419497f9722a3daafe3b4186f6b6457e091a35050565b606061034b826113fd565b6001600160a01b0384166110e4576040516324ecef4d60e01b815260040160405180910390fd5b6000838152600360205260409020546001600160a01b03161561111d576040516334c7b51160e01b8152600481018490526024016103ea565b3360016002600082825461113191906122a2565b90915550506001600160a01b038516600090815260046020526040902061115890856114ab565b5060008481526003602052604080822080546001600160a01b0319166001600160a01b03891690811790915590518692907fb333c813a7426a7a11e2b190cad52c44119421594b47f6f32ace6d8c7207b2bf906111ba90869089908990612244565b60405180910390a46111d060008686868661158b565b5050505050565b60006105e9836001600160a01b0384166116c3565b600054610100900460ff166112135760405162461bcd60e51b81526004016103ea906120c0565b61121c81611712565b6112657feafec4d89fa9619884b60000a4d96624a38f7ac2d8d9a604ecf07c12c77e480c60001b604051806040016040528060048152602001632936598960e21b815250611739565b61128f7fdeba1e292f8ba88238e10ab3c7f88bd4be4fac56cad5194b6ecceaf653468af184611739565b6105967f2f0a68ab07768e01943a599e73362a0e17a63a72e94dd2e384d2c1d4db93275683611739565b60006105e9836001600160a01b038416611782565b6060816112dc81601f6122a2565b101561131b5760405162461bcd60e51b815260206004820152600e60248201526d736c6963655f6f766572666c6f7760901b60448201526064016103ea565b61132582846122a2565b845110156113695760405162461bcd60e51b8152602060048201526011602482015270736c6963655f6f75744f66426f756e647360781b60448201526064016103ea565b60608215801561138857604051915060008252602082016040526113d2565b6040519150601f8416801560200281840101858101878315602002848b0101015b818310156113c15780518352602092830192016113a9565b5050858452601f01601f1916604052505b50949350505050565b6001600160a01b038116600090815260018301602052604081205415156105e9565b606081600001805480602002602001604051908101604052809291908181526020018280548015610dd657602002820191906000526020600020905b8154815260200190600101908083116114395750505050509050919050565b60008181526005602052604081209061147082611032565b905060005b818110156111d05760006114898482611875565b9050611496818787610acc565b50600101611475565b60006105e98383611782565b60006105e983836116c3565b6114c884631aed5a8560e21b611881565b15610467576000848484846040516020016114e694939291906122b5565b60408051601f1981840301815290829052631aed5a8560e21b825291506001600160a01b03861690636bb56a1490611544907fb23eae7e6d1564b295b4c3e3be402d9a2f0776c57bdf365903496f6fa481ab00908590600401612302565b6000604051808303816000875af1158015611563573d6000803e3d6000fd5b505050506040513d6000823e601f3d908101601f1916820160405261070c919081019061231b565b61159c84631aed5a8560e21b611881565b15611666576000858585846040516020016115ba94939291906122b5565b60408051601f1981840301815290829052631aed5a8560e21b825291506001600160a01b03861690636bb56a1490611618907f0b084a55ebf70fd3c06fd755269dac2212c4d3f0f4d09079780bfa50c1b2984d908590600401612302565b6000604051808303816000875af1158015611637573d6000803e3d6000fd5b505050506040513d6000823e601f3d908101601f1916820160405261165f919081019061231b565b50506111d0565b816111d0576001600160a01b0384163b1561169f57604051634349776d60e01b81526001600160a01b03851660048201526024016103ea565b604051630317313760e01b81526001600160a01b03851660048201526024016103ea565b600081815260018301602052604081205461170a5750815460018181018455600084815260208082209093018490558454848252828601909352604090209190915561034b565b50600061034b565b600054610100900460ff166109f45760405162461bcd60e51b81526004016103ea906120c0565b60008281526001602052604090206117518282612185565b50817fece574603820d07bc9b91f2a932baadf4628aabcb8afba49776529c14a6104b282604051610ca69190611e19565b6000818152600183016020526040812054801561186b5760006117a660018361228f565b85549091506000906117ba9060019061228f565b905081811461181f5760008660000182815481106117da576117da6120aa565b90600052602060002001549050808760000184815481106117fd576117fd6120aa565b6000918252602080832090910192909255918252600188019052604090208390555b855486908061183057611830612388565b60019003818190600052602060002001600090559055856001016000868152602001908152602001600020600090556001935050505061034b565b600091505061034b565b60006105e9838361190a565b604080516001600160e01b03198316602480830191909152825180830390910181526044909101909152602080820180516001600160e01b03166301ffc9a760e01b178152825160009392849283928392918391908a617530fa92503d915060005190508280156118f3575060208210155b80156118ff5750600081115b979650505050505050565b6000826000018281548110611921576119216120aa565b9060005260206000200154905092915050565b60006020828403121561194657600080fd5b81356001600160e01b0319811681146105e957600080fd5b634e487b7160e01b600052604160045260246000fd5b604051601f8201601f191681016001600160401b038111828210171561199c5761199c61195e565b604052919050565b60006001600160401b038211156119bd576119bd61195e565b50601f01601f191660200190565b600082601f8301126119dc57600080fd5b81356119ef6119ea826119a4565b611974565b818152846020838601011115611a0457600080fd5b816020850160208301376000918101602001919091529392505050565b80356001600160a01b0381168114611a3857600080fd5b919050565b600080600060608486031215611a5257600080fd5b83356001600160401b0380821115611a6957600080fd5b611a75878388016119cb565b94506020860135915080821115611a8b57600080fd5b50611a98868287016119cb565b925050611aa760408501611a21565b90509250925092565b60008060408385031215611ac357600080fd5b611acc83611a21565b946020939093013593505050565b60006001600160401b03821115611af357611af361195e565b5060051b60200190565b600082601f830112611b0e57600080fd5b81356020611b1e6119ea83611ada565b82815260059290921b84018101918181019086841115611b3d57600080fd5b8286015b84811015611b585780358352918301918301611b41565b509695505050505050565b600082601f830112611b7457600080fd5b81356020611b846119ea83611ada565b82815260059290921b84018101918181019086841115611ba357600080fd5b8286015b84811015611b585780356001600160401b03811115611bc65760008081fd5b611bd48986838b01016119cb565b845250918301918301611ba7565b60008060408385031215611bf557600080fd5b82356001600160401b0380821115611c0c57600080fd5b611c1886838701611afd565b93506020850135915080821115611c2e57600080fd5b50611c3b85828601611b63565b9150509250929050565b600060208284031215611c5757600080fd5b5035919050565b6020808252825182820181905260009190848201906040850190845b81811015611c9f5783516001600160a01b031683529284019291840191600101611c7a565b50909695505050505050565b600060208284031215611cbd57600080fd5b81356001600160401b03811115611cd357600080fd5b610d2b84828501611afd565b60005b83811015611cfa578181015183820152602001611ce2565b50506000910152565b60008151808452611d1b816020860160208601611cdf565b601f01601f19169290920160200192915050565b6000602080830181845280855180835260408601915060408160051b870101925083870160005b82811015611d8457603f19888603018452611d72858351611d03565b94509285019290850190600101611d56565b5092979650505050505050565b80358015158114611a3857600080fd5b600080600080600060a08688031215611db957600080fd5b611dc286611a21565b9450611dd060208701611a21565b935060408601359250611de560608701611d91565b915060808601356001600160401b03811115611e0057600080fd5b611e0c888289016119cb565b9150509295509295909350565b6020815260006105e96020830184611d03565b60008060408385031215611e3f57600080fd5b8235915060208301356001600160401b03811115611e5c57600080fd5b611c3b858286016119cb565b600060208284031215611e7a57600080fd5b6105e982611a21565b600082601f830112611e9457600080fd5b81356020611ea46119ea83611ada565b82815260059290921b84018101918181019086841115611ec357600080fd5b8286015b84811015611b5857611ed881611a21565b8352918301918301611ec7565b600082601f830112611ef657600080fd5b81356020611f066119ea83611ada565b82815260059290921b84018101918181019086841115611f2557600080fd5b8286015b84811015611b5857611f3a81611d91565b8352918301918301611f29565b600080600080600060a08688031215611f5f57600080fd5b85356001600160401b0380821115611f7657600080fd5b611f8289838a01611e83565b96506020880135915080821115611f9857600080fd5b611fa489838a01611e83565b95506040880135915080821115611fba57600080fd5b611fc689838a01611afd565b94506060880135915080821115611fdc57600080fd5b611fe889838a01611ee5565b93506080880135915080821115611ffe57600080fd5b50611e0c88828901611b63565b6020808252825182820181905260009190848201906040850190845b81811015611c9f57835183529284019291840191600101612027565b6000806000806080858703121561205957600080fd5b61206285611a21565b93506020850135925061207760408601611d91565b915060608501356001600160401b0381111561209257600080fd5b61209e878288016119cb565b91505092959194509250565b634e487b7160e01b600052603260045260246000fd5b6020808252602b908201527f496e697469616c697a61626c653a20636f6e7472616374206973206e6f74206960408201526a6e697469616c697a696e6760a81b606082015260800190565b600181811c9082168061211f57607f821691505b6020821081036106bf57634e487b7160e01b600052602260045260246000fd5b601f82111561059657600081815260208120601f850160051c810160208610156121665750805b601f850160051c820191505b8181101561070c57828155600101612172565b81516001600160401b0381111561219e5761219e61195e565b6121b2816121ac845461210b565b8461213f565b602080601f8311600181146121e757600084156121cf5750858301515b600019600386901b1c1916600185901b17855561070c565b600085815260208120601f198616915b82811015612216578886015182559484019460019091019084016121f7565b50858210156122345787850151600019600388901b60f8161c191681555b5050505050600190811b01905550565b6001600160a01b0384168152821515602082015260606040820181905260009061227090830184611d03565b95945050505050565b634e487b7160e01b600052601160045260246000fd5b8181038181111561034b5761034b612279565b8082018082111561034b5761034b612279565b60006bffffffffffffffffffffffff19808760601b168352808660601b1660148401525083602883015282516122f2816048850160208701611cdf565b9190910160480195945050505050565b828152604060208201526000610d2b6040830184611d03565b60006020828403121561232d57600080fd5b81516001600160401b0381111561234357600080fd5b8201601f8101841361235457600080fd5b80516123626119ea826119a4565b81815285602083850101111561237757600080fd5b612270826020830160208601611cdf565b634e487b7160e01b600052603160045260246000fdfea2646970667358221220735ec21523d3e66bdc2333e48b82a2ccb63e8f1a24c99135f42cac5686a69ccf64736f6c63430008110033",
    "linkReferences": {}
  },
  "methodIdentifiers": {
    "authorizeOperator(address,bytes32)": "cf5182ba",
    "balanceOf(address)": "70a08231",
    "burn(bytes32,bytes)": "6c79b70b",
    "getData(bytes32)": "54f6127f",
    "getData(bytes32[])": "4e3e6e9c",
    "getOperatorsOf(bytes32)": "49a6078d",
    "initialize(string,string,address)": "077f224a",
    "isOperatorFor(address,bytes32)": "2a3654a4",
    "mint(address,bytes32,bool,bytes)": "af255b61",
    "owner()": "8da5cb5b",
    "renounceOwnership()": "715018a6",
    "revokeOperator(address,bytes32)": "0b0c6d82",
    "setData(bytes32,bytes)": "7f23690c",
    "setData(bytes32[],bytes[])": "14a6e293",
    "supportsInterface(bytes4)": "01ffc9a7",
    "tokenIdsOf(address)": "a3b261f2",
    "tokenOwnerOf(bytes32)": "217b2270",
    "totalSupply()": "18160ddd",
    "transfer(address,address,bytes32,bool,bytes)": "511b6952",
    "transferBatch(address[],address[],bytes32[],bool[],bytes[])": "7e87632c",
    "transferOwnership(address)": "f2fde38b"
  },
  "id": 140
}