{
  "abi": [
    {
      "inputs": [],
      "name": "CannotInitializeContract",
      "type": "error"
    },
    {
      "inputs": [],
      "name": "InitializeCalldataRequired",
      "type": "error"
    },
    {
      "inputs": [],
      "name": "InvalidMsgValueDistribution",
      "type": "error"
    },
    {
      "inputs": [],
      "name": "ValueNotAllowedWithNonInitializableProxies",
      "type": "error"
    },
    {
      "anonymous": false,
      "inputs": [
        {
          "indexed": true,
          "internalType": "address",
          "name": "contractCreated",
          "type": "address"
        },
        {
          "indexed": true,
          "internalType": "bytes32",
          "name": "providedSalt",
          "type": "bytes32"
        },
        {
          "indexed": true,
          "internalType": "bool",
          "name": "initializable",
          "type": "bool"
        },
        {
          "indexed": false,
          "internalType": "bytes",
          "name": "initializeCalldata",
          "type": "bytes"
        }
      ],
      "name": "ContractCreated",
      "type": "event"
    },
    {
      "inputs": [
        {
          "internalType": "bytes32",
          "name": "byteCodeHash",
          "type": "bytes32"
        },
        {
          "internalType": "bytes32",
          "name": "providedSalt",
          "type": "bytes32"
        },
        {
          "internalType": "bytes",
          "name": "initializeCallData",
          "type": "bytes"
        }
      ],
      "name": "calculateAddress",
      "outputs": [
        {
          "internalType": "address",
          "name": "",
          "type": "address"
        }
      ],
      "stateMutability": "view",
      "type": "function"
    },
    {
      "inputs": [
        {
          "internalType": "address",
          "name": "baseContract",
          "type": "address"
        },
        {
          "internalType": "bytes32",
          "name": "providedSalt",
          "type": "bytes32"
        },
        {
          "internalType": "bytes",
          "name": "initializeCallData",
          "type": "bytes"
        }
      ],
      "name": "calculateProxyAddress",
      "outputs": [
        {
          "internalType": "address",
          "name": "",
          "type": "address"
        }
      ],
      "stateMutability": "view",
      "type": "function"
    },
    {
      "inputs": [
        {
          "internalType": "bytes",
          "name": "byteCode",
          "type": "bytes"
        },
        {
          "internalType": "bytes32",
          "name": "providedSalt",
          "type": "bytes32"
        }
      ],
      "name": "deployCreate2",
      "outputs": [
        {
          "internalType": "address",
          "name": "",
          "type": "address"
        }
      ],
      "stateMutability": "payable",
      "type": "function"
    },
    {
      "inputs": [
        {
          "internalType": "bytes",
          "name": "byteCode",
          "type": "bytes"
        },
        {
          "internalType": "bytes32",
          "name": "providedSalt",
          "type": "bytes32"
        },
        {
          "internalType": "bytes",
          "name": "initializeCalldata",
          "type": "bytes"
        },
        {
          "internalType": "uint256",
          "name": "constructorMsgValue",
          "type": "uint256"
        },
        {
          "internalType": "uint256",
          "name": "initializeCalldataMsgValue",
          "type": "uint256"
        }
      ],
      "name": "deployCreate2Init",
      "outputs": [
        {
          "internalType": "address",
          "name": "",
          "type": "address"
        }
      ],
      "stateMutability": "payable",
      "type": "function"
    },
    {
      "inputs": [
        {
          "internalType": "address",
          "name": "baseContract",
          "type": "address"
        },
        {
          "internalType": "bytes32",
          "name": "providedSalt",
          "type": "bytes32"
        },
        {
          "internalType": "bytes",
          "name": "initializeCalldata",
          "type": "bytes"
        }
      ],
      "name": "deployCreate2Proxy",
      "outputs": [
        {
          "internalType": "address",
          "name": "",
          "type": "address"
        }
      ],
      "stateMutability": "payable",
      "type": "function"
    }
  ],
  "bytecode": {
    "object": "0x608060405234801561001057600080fd5b50610acf806100206000396000f3fe60806040526004361061004a5760003560e01c806321d7987d1461004f578063267363551461008b578063b58941e11461009e578063cace0e47146100b1578063fcf5dcf3146100c4575b600080fd5b34801561005b57600080fd5b5061006f61006a36600461087f565b6100e4565b6040516001600160a01b03909116815260200160405180910390f35b61006f6100993660046108e7565b61013e565b61006f6100ac36600461087f565b6101fa565b61006f6100bf366004610933565b610340565b3480156100d057600080fd5b5061006f6100df3660046109bc565b6104db565b60008061012884848080601f016020809104026020016040519081016040528093929190818152602001838380828437600092019190915250899250610582915050565b905061013486826105e5565b9695505050505050565b60008061015a6040518060200160405280600081525084610582565b9050600061019f348388888080601f01602080910402602001604051908101604052809392919081815260200183838082843760009201919091525061065292505050565b90506000151584826001600160a01b03167fc587425c92859c27d4383bf2eb0ab8ea1670c48039f8d6375b9947b82a20f7466040516101e990602080825260009082015260400190565b60405180910390a495945050505050565b604080516020601f8401819004810282018101909252828152600091831515918391610243919087908790819084018382808284376000920191909152508a9250610582915050565b905060006102518883610764565b905082151587826001600160a01b03167fc587425c92859c27d4383bf2eb0ab8ea1670c48039f8d6375b9947b82a20f74689896040516102929291906109f7565b60405180910390a4826102c35734156102be5760405163761ff24560e01b815260040160405180910390fd5b610335565b600080826001600160a01b03163489896040516102e1929190610a26565b60006040518083038185875af1925050503d806000811461031e576040519150601f19603f3d011682016040523d82523d6000602084013e610323565b606091505b50915091506103328282610804565b50505b979650505050505050565b60008381036103625760405163157d4f7360e01b815260040160405180910390fd5b3461036d8385610a36565b1461038a576040516281152160e21b815260040160405180910390fd5b60006103cd86868080601f0160208091040260200160405190810160405280939291908181526020018383808284376000920191909152508b9250610582915050565b9050600061041285838c8c8080601f01602080910402602001604051908101604052809392919081815260200183838082843760009201919091525061065292505050565b90506001151588826001600160a01b03167fc587425c92859c27d4383bf2eb0ab8ea1670c48039f8d6375b9947b82a20f7468a8a6040516104549291906109f7565b60405180910390a4600080826001600160a01b0316868a8a60405161047a929190610a26565b60006040518083038185875af1925050503d80600081146104b7576040519150601f19603f3d011682016040523d82523d6000602084013e6104bc565b606091505b50915091506104cb8282610804565b50909a9950505050505050505050565b60008061051f84848080601f016020809104026020016040519081016040528093929190818152602001838380828437600092019190915250899250610582915050565b90506101348187604080516001600160f81b03196020808301919091523060601b6bffffffffffffffffffffffff19166021830152603582018590526055808301859052835180840390910181526075909201909252805191012060009061064b565b8151600090158015906105c2578084846040516020016105a493929190610a57565b604051602081830303815290604052805190602001209150506105df565b60405181151560f81b6020820152602181018490526041016105a4565b92915050565b600061064b838330604051733d602d80600a3d3981f3363d3d373d3d3d363d7360601b8152606093841b60148201526f5af43d82803e903d91602b57fd5bf3ff60801b6028820152921b6038830152604c8201526037808220606c830152605591012090565b9392505050565b600080844710156106aa5760405162461bcd60e51b815260206004820152601d60248201527f437265617465323a20696e73756666696369656e742062616c616e636500000060448201526064015b60405180910390fd5b82516000036106fb5760405162461bcd60e51b815260206004820181905260248201527f437265617465323a2062797465636f6465206c656e677468206973207a65726f60448201526064016106a1565b8383516020850187f590506001600160a01b03811661075c5760405162461bcd60e51b815260206004820152601960248201527f437265617465323a204661696c6564206f6e206465706c6f790000000000000060448201526064016106a1565b949350505050565b6000604051733d602d80600a3d3981f3363d3d373d3d3d363d7360601b81528360601b60148201526e5af43d82803e903d91602b57fd5bf360881b6028820152826037826000f59150506001600160a01b0381166105df5760405162461bcd60e51b815260206004820152601760248201527f455243313136373a2063726561746532206661696c656400000000000000000060448201526064016106a1565b81610832578051156108195780518082602001fd5b60405163068c2f1760e01b815260040160405180910390fd5b5050565b60008083601f84011261084857600080fd5b50813567ffffffffffffffff81111561086057600080fd5b60208301915083602082850101111561087857600080fd5b9250929050565b6000806000806060858703121561089557600080fd5b84356001600160a01b03811681146108ac57600080fd5b935060208501359250604085013567ffffffffffffffff8111156108cf57600080fd5b6108db87828801610836565b95989497509550505050565b6000806000604084860312156108fc57600080fd5b833567ffffffffffffffff81111561091357600080fd5b61091f86828701610836565b909790965060209590950135949350505050565b600080600080600080600060a0888a03121561094e57600080fd5b873567ffffffffffffffff8082111561096657600080fd5b6109728b838c01610836565b909950975060208a0135965060408a013591508082111561099257600080fd5b5061099f8a828b01610836565b989b979a5095989597966060870135966080013595509350505050565b600080600080606085870312156109d257600080fd5b8435935060208501359250604085013567ffffffffffffffff8111156108cf57600080fd5b60208152816020820152818360408301376000818301604090810191909152601f909201601f19160101919050565b8183823760009101908152919050565b808201808211156105df57634e487b7160e01b600052601160045260246000fd5b83151560f81b81526000835160005b81811015610a835760208187018101516001868401015201610a66565b506001920191820192909252602101939250505056fea2646970667358221220a6ecabcd1e9f54c1263395c6a3406320399e5d8e341027782c8449867293b0ad64736f6c63430008110033",
    "linkReferences": {}
  },
  "methodIdentifiers": {
    "calculateAddress(bytes32,bytes32,bytes)": "fcf5dcf3",
    "calculateProxyAddress(address,bytes32,bytes)": "21d7987d",
    "deployCreate2(bytes,bytes32)": "26736355",
    "deployCreate2Init(bytes,bytes32,bytes,uint256,uint256)": "cace0e47",
    "deployCreate2Proxy(address,bytes32,bytes)": "b58941e1"
  },
  "id": 14
}