{
  "abi": [
    {
      "anonymous": false,
      "inputs": [],
      "name": "EventEmittedInExtension",
      "type": "event"
    },
    {
      "inputs": [],
      "name": "emitEvent",
      "outputs": [],
      "stateMutability": "nonpayable",
      "type": "function"
    }
  ],
  "bytecode": {
    "object": "0x6080604052348015600f57600080fd5b5060968061001e6000396000f3fe6080604052348015600f57600080fd5b506004361060285760003560e01c80637b0cb83914602d575b600080fd5b60336035565b005b6040517f503022199bd2f7e72ffc876a9e53429173bf044bad522b49bfc84cf0e35e784490600090a156fea26469706673582212205b6e98e880974a273e0975b9246b8c44612646210ce47cc468b1b1deda1d4c8464736f6c63430008110033",
    "linkReferences": {}
  },
  "methodIdentifiers": {
    "emitEvent()": "7b0cb839"
  },
  "id": 105
}