{
  "_format": "hh-sol-artifact-1",
  "contractName": "LSP1UniversalReceiverDelegateUP",
  "sourceName": "contracts/LSP1UniversalReceiver/LSP1UniversalReceiverDelegateUP/LSP1UniversalReceiverDelegateUP.sol",
  "abi": [
    {
      "inputs": [
        {
          "internalType": "address",
          "name": "caller",
          "type": "address"
        }
      ],
      "name": "CannotRegisterEOAsAsAssets",
      "type": "error"
    },
    {
      "inputs": [
        {
          "internalType": "bytes4",
          "name": "interfaceId",
          "type": "bytes4"
        }
      ],
      "name": "supportsInterface",
      "outputs": [
        {
          "internalType": "bool",
          "name": "",
          "type": "bool"
        }
      ],
      "stateMutability": "view",
      "type": "function"
    },
    {
      "inputs": [
        {
          "internalType": "address",
          "name": "notifier",
          "type": "address"
        },
        {
          "internalType": "uint256",
          "name": "",
          "type": "uint256"
        },
        {
          "internalType": "bytes32",
          "name": "typeId",
          "type": "bytes32"
        },
        {
          "internalType": "bytes",
          "name": "",
          "type": "bytes"
        }
      ],
      "name": "universalReceiverDelegate",
      "outputs": [
        {
          "internalType": "bytes",
          "name": "",
          "type": "bytes"
        }
      ],
      "stateMutability": "nonpayable",
      "type": "function"
    },
    {
      "inputs": [],
      "name": "version",
      "outputs": [
        {
          "internalType": "string",
          "name": "",
          "type": "string"
        }
      ],
      "stateMutability": "view",
      "type": "function"
    }
  ],
  "bytecode": "0x608060405234801561001057600080fd5b50611c90806100206000396000f3fe608060405234801561001057600080fd5b50600436106100415760003560e01c806301ffc9a71461004657806354fd4d501461006e578063a245bbda146100b0575b600080fd5b610059610054366004611794565b6100c3565b60405190151581526020015b60405180910390f35b60408051808201909152600681527f302e31322e30000000000000000000000000000000000000000000000000000060208201525b6040516100659190611815565b6100a36100be366004611897565b61012c565b60006001600160e01b031982167fa245bbda00000000000000000000000000000000000000000000000000000000148061012657507f01ffc9a7000000000000000000000000000000000000000000000000000000006001600160e01b03198316145b92915050565b60607fbd65385f96fc24363ec2034c362ee207e6ba7e05fb8369285be8e038bfd6a71683016101655761015e856102d5565b90506102cd565b7fdf7fb9ee4c1d15de3b7f23b9aebddef530b5db7a6b8abe88f13e0478211b5aa483016101b65761015e857fdaa746b700000000000000000000000000000000000000000000000000000000610426565b7f4dc1518192ea9b4d6a4b3c1c41bfd265d0f8893a8420c9a6fcb690905b7e550083016101e65761015e856102d5565b7ff4f7b5aa1408f02c3f9028aad96253dded3b2c0f0b2f6f8687f405af3e4d67b383016102375761015e857f30dc527800000000000000000000000000000000000000000000000000000000610426565b7ff39dd1a71948f7651ca0e50e3792668416d0322736af69adfdd2be559ae96b8f83016102675761015e85610591565b7f867aa368243da631c6abde26cc2843f9664f0ea9e06770f656179cc02abd01a483016102975761015e8561060e565b5060408051808201909152601981527f4c5350313a20747970654964206f7574206f662073636f70650000000000000060208201525b949350505050565b6060326001600160a01b038316036103105760405163a529534560e01b81526001600160a01b03831660048201526024015b60405180910390fd5b6040516370a0823160e01b81523360048201526001600160a01b038316906370a0823190602401602060405180830381865afa925050508015610370575060408051601f3d908101601f1916820190925261036d91810190611949565b60015b610393576040518060600160405280602d8152602001611c2e602d913992915050565b80156103d457505060408051808201909152601e81527f4c5350313a2066756c6c2062616c616e6365206973206e6f742073656e7400006020820152919050565b506000806103e23385610651565b91509150815160001480156103f657508051155b1561041c576040518060600160405280602b8152602001611bd7602b9139949350505050565b6102cd8282610855565b6060326001600160a01b0384160361045c5760405163a529534560e01b81526001600160a01b0384166004820152602401610307565b6001600160a01b0383163b15610535576040516370a0823160e01b81523360048201526001600160a01b038416906370a0823190602401602060405180830381865afa9250505080156104cc575060408051601f3d908101601f191682019092526104c991810190611949565b60015b6104f0576040518060600160405280602d8152602001611c2e602d91399050610126565b8060000361053357505060408051808201909152601581527f4c5350313a2062616c616e6365206973207a65726f00000000000000000000006020820152610126565b505b600080610543338686610911565b915091508151600014801561055757508051155b1561057e576040518060600160405280602b8152602001611bd7602b913992505050610126565b6105888282610855565b95945050505050565b6060326001600160a01b038316036105c75760405163a529534560e01b81526001600160a01b0383166004820152602401610307565b6000806105d43385610c25565b91509150815160001480156105e857508051155b1561041c576040518060600160405280602c8152602001611c02602c9139949350505050565b6060326001600160a01b038316036106445760405163a529534560e01b81526001600160a01b0383166004820152602401610307565b6000806105d43385610e15565b6060808360006106608261112e565b905061066b816111be565b61067657505061084e565b600061068182611962565b6001600160801b0319160361069757505061084e565b600060016106a483611962565b60801c6106b191906119b0565b905060006106d069812c4334633eb816c80d60b01b606089901b6111d9565b6040516354f6127f60e01b8152600481018290529091506000906001600160a01b038616906354f6127f90602401600060405180830381865afa15801561071b573d6000803e3d6000fd5b505050506040513d6000823e601f3d908101601f1916820160405261074391908101906119d7565b9050805160141461075857505050505061084e565b6000602061076583611a45565b6bffffffffffffffffffffffff1916901b60801c905060006107a77f6460ee3c0aac563ccbf76d6e1d07bada78e3a9514e6382b736ed3f478ab7b90b83611243565b9050846001600160801b0316826001600160801b0316036107fe576107ee7f6460ee3c0aac563ccbf76d6e1d07bada78e3a9514e6382b736ed3f478ab7b90b86838761126e565b985098505050505050505061084e565b846001600160801b0316826001600160801b03161015610846576107ee877f6460ee3c0aac563ccbf76d6e1d07bada78e3a9514e6382b736ed3f478ab7b90b878486896113d6565b505050505050505b9250929050565b6040517f9790242100000000000000000000000000000000000000000000000000000000815260609033906397902421906108969086908690600401611a7d565b600060405180830381600087803b1580156108b057600080fd5b505af19250505080156108c1575060015b6108fc573d8080156108ef576040519150601f19603f3d011682016040523d82523d6000602084013e6108f4565b606091505b509050610126565b50604080516020810190915260008152610126565b6060808460006109208261112e565b905061092b816111be565b61096257805160000361095b57604051600060208201526030016040516020818303038152906040529050610962565b5050610c1d565b600061096d82611962565b60801c90506ffffffffffffffffffffffffffffffffe19810161099257505050610c1d565b60006109af69812c4334633eb816c80d60b01b60608a901b6111d9565b6040516354f6127f60e01b8152600481018290529091506001600160a01b038516906354f6127f90602401600060405180830381865afa1580156109f7573d6000803e3d6000fd5b505050506040513d6000823e601f3d908101601f19168201604052610a1f91908101906119d7565b5115610a2e5750505050610c1d565b6040805160038082526080820190925290602082016060803683370190505060408051600380825260808201909252919750816020015b6060815260200190600190039081610a655790505094507f6460ee3c0aac563ccbf76d6e1d07bada78e3a9514e6382b736ed3f478ab7b90b60001b86600081518110610ab357610ab3611b15565b6020908102919091010152610ac9826001611b2b565b604051602001610aec919060809190911b6001600160801b031916815260100190565b60405160208183030381529060405285600081518110610b0e57610b0e611b15565b6020908102919091010152610b437f6460ee3c0aac563ccbf76d6e1d07bada78e3a9514e6382b736ed3f478ab7b90b83611243565b86600181518110610b5657610b56611b15565b60200260200101818152505087604051602001610b8b919060609190911b6bffffffffffffffffffffffff1916815260140190565b60405160208183030381529060405285600181518110610bad57610bad611b15565b60200260200101819052508086600281518110610bcc57610bcc611b15565b6020026020010181815250508683604051602001610beb929190611b4b565b60405160208183030381529060405285600281518110610c0d57610c0d611b15565b6020026020010181905250505050505b935093915050565b606080836000610c3482611745565b9050610c3f816111be565b610c4a57505061084e565b80511580610c6a57506000610c5e82611962565b6001600160801b031916145b15610c7657505061084e565b60006001610c8383611962565b60801c610c9091906119b0565b90506000610caf6906491230f03e231fc8e360b21b606089901b6111d9565b6040516354f6127f60e01b8152600481018290529091506000906001600160a01b038616906354f6127f90602401600060405180830381865afa158015610cfa573d6000803e3d6000fd5b505050506040513d6000823e601f3d908101601f19168201604052610d2291908101906119d7565b90508051601414610d3757505050505061084e565b60006020610d4483611a45565b6bffffffffffffffffffffffff1916901b60801c90506000610d867f55482936e01da86729a45d2b87a6b1d3bc582bea0ec00e38bdb340e3af6f9f0683611243565b9050846001600160801b0316826001600160801b031603610dcd576107ee7f55482936e01da86729a45d2b87a6b1d3bc582bea0ec00e38bdb340e3af6f9f0686838761126e565b846001600160801b0316826001600160801b03161015610846576107ee877f55482936e01da86729a45d2b87a6b1d3bc582bea0ec00e38bdb340e3af6f9f06878486896113d6565b606080836000610e2482611745565b9050610e2f816111be565b610e66578051600003610e5f57604051600060208201526030016040516020818303038152906040529050610e66565b505061084e565b6000610e7182611962565b60801c90506ffffffffffffffffffffffffffffffffe198101610e965750505061084e565b6000610eb36906491230f03e231fc8e360b21b606089901b6111d9565b6040516354f6127f60e01b8152600481018290529091506001600160a01b038516906354f6127f90602401600060405180830381865afa158015610efb573d6000803e3d6000fd5b505050506040513d6000823e601f3d908101601f19168201604052610f2391908101906119d7565b5115610f32575050505061084e565b6040805160038082526080820190925290602082016060803683370190505060408051600380825260808201909252919750816020015b6060815260200190600190039081610f695790505094507f55482936e01da86729a45d2b87a6b1d3bc582bea0ec00e38bdb340e3af6f9f0660001b86600081518110610fb757610fb7611b15565b6020908102919091010152610fcd826001611b2b565b604051602001610ff0919060809190911b6001600160801b031916815260100190565b6040516020818303038152906040528560008151811061101257611012611b15565b60209081029190910101526110477f55482936e01da86729a45d2b87a6b1d3bc582bea0ec00e38bdb340e3af6f9f0683611243565b8660018151811061105a5761105a611b15565b6020026020010181815250508660405160200161108f919060609190911b6bffffffffffffffffffffffff1916815260140190565b604051602081830303815290604052856001815181106110b1576110b1611b15565b602002602001018190525080866002815181106110d0576110d0611b15565b6020026020010181815250506328af17e660e01b836040516020016110f6929190611b4b565b6040516020818303038152906040528560028151811061111857611118611b15565b6020026020010181905250505050509250929050565b6040516354f6127f60e01b81527f6460ee3c0aac563ccbf76d6e1d07bada78e3a9514e6382b736ed3f478ab7b90b60048201526060906001600160a01b038316906354f6127f906024015b600060405180830381865afa158015611196573d6000803e3d6000fd5b505050506040513d6000823e601f3d908101601f1916820160405261012691908101906119d7565b600081516010036111d157506001919050565b506000919050565b604080517fffffffffffffffffffff00000000000000000000000000000000000000000000841660208201526000602a82018190526bffffffffffffffffffffffff198416602c830152918291015b6040516020818303038152906040529050806102cd90611b7b565b604080516001600160801b03198085166020830152608084901b166030820152600091829101611228565b604080516003808252608082019092526060918291906020820183803683370190505060408051600380825260808201909252919350816020015b60608152602001906001900390816112a957905050905085826000815181106112d4576112d4611b15565b60200260200101818152505084604051602001611304919060809190911b6001600160801b031916815260100190565b6040516020818303038152906040528160008151811061132657611326611b15565b6020026020010181905250828260018151811061134557611345611b15565b602002602001018181525050604051806020016040528060008152508160018151811061137457611374611b15565b6020026020010181905250838260028151811061139357611393611b15565b60200260200101818152505060405180602001604052806000815250816002815181106113c2576113c2611b15565b602002602001018190525094509492505050565b60408051600580825260c082019092526060918291906020820160a0803683370190505060408051600580825260c08201909252919350816020015b6060815260200190600190039081611412579050509050868260008151811061143d5761143d611b15565b6020026020010181815250508560405160200161146d919060809190911b6001600160801b031916815260100190565b6040516020818303038152906040528160008151811061148f5761148f611b15565b602002602001018190525082826001815181106114ae576114ae611b15565b60200260200101818152505060405180602001604052806000815250816001815181106114dd576114dd611b15565b602002602001018190525060006114f48888611243565b6040516354f6127f60e01b8152600481018290529091506000906001600160a01b038b16906354f6127f90602401600060405180830381865afa15801561153f573d6000803e3d6000fd5b505050506040513d6000823e601f3d908101601f1916820160405261156791908101906119d7565b61157090611a45565b9050868460028151811061158657611586611b15565b602002602001018181525050806040516020016115b891906bffffffffffffffffffffffff1991909116815260140190565b604051602081830303815290604052836002815181106115da576115da611b15565b602002602001018190525081846003815181106115f9576115f9611b15565b602002602001018181525050604051806020016040528060008152508360038151811061162857611628611b15565b6020026020010181905250600061163f86836111d9565b6040516354f6127f60e01b8152600481018290529091506000906001600160a01b038d16906354f6127f90602401600060405180830381865afa15801561168a573d6000803e3d6000fd5b505050506040513d6000823e601f3d908101601f191682016040526116b291908101906119d7565b6116bb90611ba2565b6040516001600160e01b031990911660208201526001600160801b031960808a901b1660248201526034016040516020818303038152906040529050818660048151811061170b5761170b611b15565b602002602001018181525050808560048151811061172b5761172b611b15565b602002602001018190525050505050965096945050505050565b6040516354f6127f60e01b81527f55482936e01da86729a45d2b87a6b1d3bc582bea0ec00e38bdb340e3af6f9f0660048201526060906001600160a01b038316906354f6127f90602401611179565b6000602082840312156117a657600080fd5b81356001600160e01b0319811681146117be57600080fd5b9392505050565b60005b838110156117e05781810151838201526020016117c8565b50506000910152565b600081518084526118018160208601602086016117c5565b601f01601f19169290920160200192915050565b6020815260006117be60208301846117e9565b634e487b7160e01b600052604160045260246000fd5b604051601f8201601f1916810167ffffffffffffffff8111828210171561186757611867611828565b604052919050565b600067ffffffffffffffff82111561188957611889611828565b50601f01601f191660200190565b600080600080608085870312156118ad57600080fd5b84356001600160a01b03811681146118c457600080fd5b93506020850135925060408501359150606085013567ffffffffffffffff8111156118ee57600080fd5b8501601f810187136118ff57600080fd5b803561191261190d8261186f565b61183e565b81815288602083850101111561192757600080fd5b8160208401602083013760006020838301015280935050505092959194509250565b60006020828403121561195b57600080fd5b5051919050565b6000815160208301516001600160801b0319808216935060108310156119925780818460100360031b1b83161693505b505050919050565b634e487b7160e01b600052601160045260246000fd5b6001600160801b038281168282160390808211156119d0576119d061199a565b5092915050565b6000602082840312156119e957600080fd5b815167ffffffffffffffff811115611a0057600080fd5b8201601f81018413611a1157600080fd5b8051611a1f61190d8261186f565b818152856020838501011115611a3457600080fd5b6105888260208301602086016117c5565b805160208201516bffffffffffffffffffffffff1980821692919060148310156119925760149290920360031b82901b161692915050565b604080825283519082018190526000906020906060840190828701845b82811015611ab657815184529284019290840190600101611a9a565b50505083810382850152845180825282820190600581901b8301840187850160005b83811015611b0657601f19868403018552611af48383516117e9565b94870194925090860190600101611ad8565b50909998505050505050505050565b634e487b7160e01b600052603260045260246000fd5b6001600160801b038181168382160190808211156119d0576119d061199a565b6001600160e01b03198316815260008251611b6d8160048501602087016117c5565b919091016004019392505050565b80516020808301519190811015611b9c576000198160200360031b1b821691505b50919050565b6000815160208301516001600160e01b0319808216935060048310156119925760049290920360031b82901b16169291505056fe4c5350353a204572726f722067656e65726174696e672064617461206b65792f76616c75652070616972734c535031303a204572726f722067656e65726174696e672064617461206b65792f76616c75652070616972734c5350313a206062616c616e63654f66286164647265737329602066756e6374696f6e206e6f7420666f756e64a2646970667358221220e91e06a13c0689f0006589c81d328b7581863401fc00f1d9be34f5e4b1f671b864736f6c63430008110033",
  "linkReferences": {},
  "deployedLinkReferences": {}
}