{
  "abi": [
    {
      "anonymous": false,
      "inputs": [],
      "name": "Minted",
      "type": "event"
    },
    {
      "inputs": [
        {
          "internalType": "address",
          "name": "to",
          "type": "address"
        }
      ],
      "name": "mint",
      "outputs": [],
      "stateMutability": "nonpayable",
      "type": "function"
    }
  ],
  "bytecode": {
    "object": "0x608060405234801561001057600080fd5b5061020d806100206000396000f3fe608060405234801561001057600080fd5b506004361061002b5760003560e01c80636a62784214610030575b600080fd5b61004361003e36600461017d565b610045565b005b604051630a85bd0160e11b8152336004820181905260248201526002604482015260806064820152600a6084820152690c1e1858589898d8d91960b21b60a48201526001600160a01b0382169063150b7a029060c401602060405180830381865afa1580156100b8573d6000803e3d6000fd5b505050506040513d601f19601f820116820180604052508101906100dc91906101ad565b6001600160e01b031916630a85bd0160e11b146101515760405162461bcd60e51b815260206004820152602960248201527f6f6e45524337323152656365697665642066756e6374696f6e206e6f7420696d6044820152681c1b195b595b9d195960ba1b606482015260840160405180910390fd5b6040517fe923f1ae2abf95fba64080dca4084b97e57ceddb8f45f6038172e39ac3b987be90600090a150565b60006020828403121561018f57600080fd5b81356001600160a01b03811681146101a657600080fd5b9392505050565b6000602082840312156101bf57600080fd5b81516001600160e01b0319811681146101a657600080fdfea2646970667358221220935d45cf57fa1dd72abe1183abc1bae4eb438eac35d4f4378b53bd863976b43764736f6c63430008110033",
    "linkReferences": {}
  },
  "methodIdentifiers": {
    "mint(address)": "6a627842"
  },
  "id": 142
}