{
  "abi": [
    {
      "inputs": [
        {
          "internalType": "uint256",
          "name": "newValue",
          "type": "uint256"
        }
      ],
      "name": "updateState",
      "outputs": [],
      "stateMutability": "payable",
      "type": "function"
    },
    {
      "inputs": [],
      "name": "value",
      "outputs": [
        {
          "internalType": "uint256",
          "name": "",
          "type": "uint256"
        }
      ],
      "stateMutability": "view",
      "type": "function"
    }
  ],
  "bytecode": {
    "object": "0x608060405234801561001057600080fd5b5060b18061001f6000396000f3fe60806040526004361060265760003560e01c80633fa4f24514602b578063cc8a55e2146051575b600080fd5b348015603657600080fd5b50603f60005481565b60405190815260200160405180910390f35b6061605c3660046063565b600055565b005b600060208284031215607457600080fd5b503591905056fea26469706673582212201fdb7d0959a2fe82d4cba92229616e5fc9f2f9d797f8a43072ada9bc48e7a13764736f6c63430008110033",
    "linkReferences": {}
  },
  "methodIdentifiers": {
    "updateState(uint256)": "cc8a55e2",
    "value()": "3fa4f245"
  },
  "id": 116
}