{
  "abi": [
    {
      "inputs": [],
      "stateMutability": "nonpayable",
      "type": "constructor"
    },
    {
      "inputs": [
        {
          "internalType": "bytes4",
          "name": "interfaceId",
          "type": "bytes4"
        }
      ],
      "name": "supportsInterface",
      "outputs": [
        {
          "internalType": "bool",
          "name": "",
          "type": "bool"
        }
      ],
      "stateMutability": "view",
      "type": "function"
    },
    {
      "inputs": [
        {
          "internalType": "bytes32",
          "name": "typeId",
          "type": "bytes32"
        },
        {
          "internalType": "bytes",
          "name": "",
          "type": "bytes"
        }
      ],
      "name": "universalReceiver",
      "outputs": [
        {
          "internalType": "bytes",
          "name": "",
          "type": "bytes"
        }
      ],
      "stateMutability": "nonpayable",
      "type": "function"
    }
  ],
  "bytecode": {
    "object": "0x608060405234801561001057600080fd5b50610021631aed5a8560e21b610026565b6100a9565b6001600160e01b031980821690036100845760405162461bcd60e51b815260206004820152601c60248201527f4552433136353a20696e76616c696420696e7465726661636520696400000000604482015260640160405180910390fd5b6001600160e01b0319166000908152602081905260409020805460ff19166001179055565b61052e806100b86000396000f3fe608060405234801561001057600080fd5b50600436106100365760003560e01c806301ffc9a71461003b5780636bb56a1414610063575b600080fd5b61004e610049366004610287565b610083565b60405190151581526020015b60405180910390f35b610076610071366004610327565b6100c3565b60405161005a9190610401565b60006301ffc9a760e01b6001600160e01b0319831614806100bd57506001600160e01b0319821660009081526020819052604090205460ff165b92915050565b60607fbd65385f96fc24363ec2034c362ee207e6ba7e05fb8369285be8e038bfd6a7168301610271576000336001600160a01b0316638da5cb5b6040518163ffffffff1660e01b8152600401602060405180830381865afa15801561012c573d6000803e3d6000fd5b505050506040513d601f19601f820116820180604052508101906101509190610414565b6040805180820182526014815273736f6d652072616e646f6d2064617461206b657960601b60209182015281516060810190925260238083529293506000927f890ca29bb338641877483f5d10befb0aa9f7f47c83f01ff870f0298c89f60e7892916104d6908301396040516024016101ca92919061043d565b60408051601f198184030181529181526020820180516001600160e01b0316631fc8da4360e21b179052516304e2f55f60e11b81529091506001600160a01b038316906309c5eabe90610221908490600401610401565b6000604051808303816000875af1158015610240573d6000803e3d6000fd5b505050506040513d6000823e601f3d908101601f19168201604052610268919081019061045e565b925050506100bd565b5060408051602081019091526000815292915050565b60006020828403121561029957600080fd5b81356001600160e01b0319811681146102b157600080fd5b9392505050565b634e487b7160e01b600052604160045260246000fd5b604051601f8201601f1916810167ffffffffffffffff811182821017156102f7576102f76102b8565b604052919050565b600067ffffffffffffffff821115610319576103196102b8565b50601f01601f191660200190565b6000806040838503121561033a57600080fd5b82359150602083013567ffffffffffffffff81111561035857600080fd5b8301601f8101851361036957600080fd5b803561037c610377826102ff565b6102ce565b81815286602083850101111561039157600080fd5b816020840160208301376000602083830101528093505050509250929050565b60005b838110156103cc5781810151838201526020016103b4565b50506000910152565b600081518084526103ed8160208601602086016103b1565b601f01601f19169290920160200192915050565b6020815260006102b160208301846103d5565b60006020828403121561042657600080fd5b81516001600160a01b03811681146102b157600080fd5b82815260406020820152600061045660408301846103d5565b949350505050565b60006020828403121561047057600080fd5b815167ffffffffffffffff81111561048757600080fd5b8201601f8101841361049857600080fd5b80516104a6610377826102ff565b8181528560208385010111156104bb57600080fd5b6104cc8260208301602086016103b1565b9594505050505056fe736f6d652072616e646f6d207465787420666f722074686520646174612076616c7565a264697066735822122040720201c2376ad8633d0d9b4644018d5afd6d0927f59116f59602970721115364736f6c63430008110033",
    "linkReferences": {}
  },
  "methodIdentifiers": {
    "supportsInterface(bytes4)": "01ffc9a7",
    "universalReceiver(bytes32,bytes)": "6bb56a14"
  },
  "id": 146
}