{
  "abi": [
    {
      "inputs": [],
      "stateMutability": "nonpayable",
      "type": "constructor"
    },
    {
      "inputs": [
        {
          "internalType": "bytes32",
          "name": "dataKey",
          "type": "bytes32"
        },
        {
          "internalType": "bytes",
          "name": "invalidValue",
          "type": "bytes"
        }
      ],
      "name": "AddressPermissionArrayIndexValueNotAnAddress",
      "type": "error"
    },
    {
      "inputs": [],
      "name": "BatchExecuteParamsLengthMismatch",
      "type": "error"
    },
    {
      "inputs": [],
      "name": "BatchExecuteRelayCallParamsLengthMismatch",
      "type": "error"
    },
    {
      "inputs": [
        {
          "internalType": "uint256",
          "name": "invalidLength",
          "type": "uint256"
        }
      ],
      "name": "InvalidCompactByteArrayLengthElement",
      "type": "error"
    },
    {
      "inputs": [
        {
          "internalType": "bytes4",
          "name": "invalidFunction",
          "type": "bytes4"
        }
      ],
      "name": "InvalidERC725Function",
      "type": "error"
    },
    {
      "inputs": [
        {
          "internalType": "bytes",
          "name": "allowedCallsValue",
          "type": "bytes"
        }
      ],
      "name": "InvalidEncodedAllowedCalls",
      "type": "error"
    },
    {
      "inputs": [
        {
          "internalType": "bytes",
          "name": "value",
          "type": "bytes"
        }
      ],
      "name": "InvalidEncodedAllowedERC725YDataKeys",
      "type": "error"
    },
    {
      "inputs": [],
      "name": "InvalidLSP6Target",
      "type": "error"
    },
    {
      "inputs": [
        {
          "internalType": "address",
          "name": "signer",
          "type": "address"
        },
        {
          "internalType": "uint256",
          "name": "invalidNonce",
          "type": "uint256"
        },
        {
          "internalType": "bytes",
          "name": "signature",
          "type": "bytes"
        }
      ],
      "name": "InvalidRelayNonce",
      "type": "error"
    },
    {
      "inputs": [
        {
          "internalType": "address",
          "name": "from",
          "type": "address"
        }
      ],
      "name": "InvalidWhitelistedCall",
      "type": "error"
    },
    {
      "inputs": [
        {
          "internalType": "uint256",
          "name": "totalValues",
          "type": "uint256"
        },
        {
          "internalType": "uint256",
          "name": "msgValue",
          "type": "uint256"
        }
      ],
      "name": "LSP6BatchExcessiveValueSent",
      "type": "error"
    },
    {
      "inputs": [
        {
          "internalType": "uint256",
          "name": "totalValues",
          "type": "uint256"
        },
        {
          "internalType": "uint256",
          "name": "msgValue",
          "type": "uint256"
        }
      ],
      "name": "LSP6BatchInsufficientValueSent",
      "type": "error"
    },
    {
      "inputs": [
        {
          "internalType": "address",
          "name": "from",
          "type": "address"
        }
      ],
      "name": "NoCallsAllowed",
      "type": "error"
    },
    {
      "inputs": [
        {
          "internalType": "address",
          "name": "from",
          "type": "address"
        }
      ],
      "name": "NoERC725YDataKeysAllowed",
      "type": "error"
    },
    {
      "inputs": [
        {
          "internalType": "address",
          "name": "from",
          "type": "address"
        }
      ],
      "name": "NoPermissionsSet",
      "type": "error"
    },
    {
      "inputs": [
        {
          "internalType": "address",
          "name": "from",
          "type": "address"
        },
        {
          "internalType": "address",
          "name": "to",
          "type": "address"
        },
        {
          "internalType": "bytes4",
          "name": "selector",
          "type": "bytes4"
        }
      ],
      "name": "NotAllowedCall",
      "type": "error"
    },
    {
      "inputs": [
        {
          "internalType": "address",
          "name": "from",
          "type": "address"
        },
        {
          "internalType": "bytes32",
          "name": "disallowedKey",
          "type": "bytes32"
        }
      ],
      "name": "NotAllowedERC725YDataKey",
      "type": "error"
    },
    {
      "inputs": [
        {
          "internalType": "address",
          "name": "from",
          "type": "address"
        },
        {
          "internalType": "string",
          "name": "permission",
          "type": "string"
        }
      ],
      "name": "NotAuthorised",
      "type": "error"
    },
    {
      "inputs": [
        {
          "internalType": "bytes32",
          "name": "dataKey",
          "type": "bytes32"
        }
      ],
      "name": "NotRecognisedPermissionKey",
      "type": "error"
    },
    {
      "inputs": [],
      "name": "ZeroDataKeyNotAllowed",
      "type": "error"
    },
    {
      "anonymous": false,
      "inputs": [
        {
          "indexed": true,
          "internalType": "bytes4",
          "name": "selector",
          "type": "bytes4"
        },
        {
          "indexed": true,
          "internalType": "uint256",
          "name": "value",
          "type": "uint256"
        }
      ],
      "name": "Executed",
      "type": "event"
    },
    {
      "anonymous": false,
      "inputs": [
        {
          "indexed": false,
          "internalType": "uint8",
          "name": "version",
          "type": "uint8"
        }
      ],
      "name": "Initialized",
      "type": "event"
    },
    {
      "inputs": [
        {
          "internalType": "bytes",
          "name": "payload",
          "type": "bytes"
        }
      ],
      "name": "execute",
      "outputs": [
        {
          "internalType": "bytes",
          "name": "",
          "type": "bytes"
        }
      ],
      "stateMutability": "payable",
      "type": "function"
    },
    {
      "inputs": [
        {
          "internalType": "uint256[]",
          "name": "values",
          "type": "uint256[]"
        },
        {
          "internalType": "bytes[]",
          "name": "payloads",
          "type": "bytes[]"
        }
      ],
      "name": "execute",
      "outputs": [
        {
          "internalType": "bytes[]",
          "name": "",
          "type": "bytes[]"
        }
      ],
      "stateMutability": "payable",
      "type": "function"
    },
    {
      "inputs": [
        {
          "internalType": "bytes",
          "name": "signature",
          "type": "bytes"
        },
        {
          "internalType": "uint256",
          "name": "nonce",
          "type": "uint256"
        },
        {
          "internalType": "bytes",
          "name": "payload",
          "type": "bytes"
        }
      ],
      "name": "executeRelayCall",
      "outputs": [
        {
          "internalType": "bytes",
          "name": "",
          "type": "bytes"
        }
      ],
      "stateMutability": "payable",
      "type": "function"
    },
    {
      "inputs": [
        {
          "internalType": "bytes[]",
          "name": "signatures",
          "type": "bytes[]"
        },
        {
          "internalType": "uint256[]",
          "name": "nonces",
          "type": "uint256[]"
        },
        {
          "internalType": "uint256[]",
          "name": "values",
          "type": "uint256[]"
        },
        {
          "internalType": "bytes[]",
          "name": "payloads",
          "type": "bytes[]"
        }
      ],
      "name": "executeRelayCall",
      "outputs": [
        {
          "internalType": "bytes[]",
          "name": "",
          "type": "bytes[]"
        }
      ],
      "stateMutability": "payable",
      "type": "function"
    },
    {
      "inputs": [
        {
          "internalType": "address",
          "name": "from",
          "type": "address"
        },
        {
          "internalType": "uint128",
          "name": "channelId",
          "type": "uint128"
        }
      ],
      "name": "getNonce",
      "outputs": [
        {
          "internalType": "uint256",
          "name": "",
          "type": "uint256"
        }
      ],
      "stateMutability": "view",
      "type": "function"
    },
    {
      "inputs": [
        {
          "internalType": "address",
          "name": "target_",
          "type": "address"
        }
      ],
      "name": "initialize",
      "outputs": [],
      "stateMutability": "nonpayable",
      "type": "function"
    },
    {
      "inputs": [
        {
          "internalType": "bytes32",
          "name": "dataHash",
          "type": "bytes32"
        },
        {
          "internalType": "bytes",
          "name": "signature",
          "type": "bytes"
        }
      ],
      "name": "isValidSignature",
      "outputs": [
        {
          "internalType": "bytes4",
          "name": "magicValue",
          "type": "bytes4"
        }
      ],
      "stateMutability": "view",
      "type": "function"
    },
    {
      "inputs": [
        {
          "internalType": "bytes4",
          "name": "interfaceId",
          "type": "bytes4"
        }
      ],
      "name": "supportsInterface",
      "outputs": [
        {
          "internalType": "bool",
          "name": "",
          "type": "bool"
        }
      ],
      "stateMutability": "view",
      "type": "function"
    },
    {
      "inputs": [],
      "name": "target",
      "outputs": [
        {
          "internalType": "address",
          "name": "",
          "type": "address"
        }
      ],
      "stateMutability": "view",
      "type": "function"
    }
  ],
  "bytecode": {
    "object": "0x60806040523480156200001157600080fd5b506200001c62000022565b620000e4565b600054610100900460ff16156200008f5760405162461bcd60e51b815260206004820152602760248201527f496e697469616c697a61626c653a20636f6e747261637420697320696e697469604482015266616c697a696e6760c81b606482015260840160405180910390fd5b60005460ff9081161015620000e2576000805460ff191660ff9081179091556040519081527f7f26b83ff96e1f2b6a682f133852f6798a09c465da95921460cefb38474024989060200160405180910390a15b565b61311f80620000f46000396000f3fe6080604052600436106100865760003560e01c8063b44581d911610059578063b44581d91461012c578063bd68663a14610198578063bf3e1f7b146101b8578063c4d66de8146101cb578063d4b83992146101ed57600080fd5b806301ffc9a71461008b57806309c5eabe146100c05780631626ba7e146100e0578063902d5fa014610119575b600080fd5b34801561009757600080fd5b506100ab6100a6366004612709565b61022b565b60405190151581526020015b60405180910390f35b6100d36100ce366004612774565b61027d565b6040516100b79190612805565b3480156100ec57600080fd5b506101006100fb3660046128db565b610291565b6040516001600160e01b031990911681526020016100b7565b6100d3610127366004612921565b6102ef565b34801561013857600080fd5b5061018a6101473660046129a7565b6001600160a01b03821660009081526001602090815260408083206001600160801b03851684529091529020546001600160801b0319608083901b161792915050565b6040519081526020016100b7565b6101ab6101a6366004612adb565b610307565b6040516100b79190612b99565b6101ab6101c6366004612bfb565b6104d2565b3480156101d757600080fd5b506101eb6101e6366004612c5a565b610648565b005b3480156101f957600080fd5b50600054610213906201000090046001600160a01b031681565b6040516001600160a01b0390911681526020016100b7565b60006001600160e01b03198216633ed0dd0560e21b148061025c57506001600160e01b03198216630b135d3f60e11b145b8061027757506301ffc9a760e01b6001600160e01b03198316145b92915050565b606061028a34848461075b565b9392505050565b60008061029e848461078a565b6000549091506102cc9062200000906102c6906201000090046001600160a01b0316846107ae565b81161490565b6102de576001600160e01b03196102e7565b630b135d3f60e11b5b949350505050565b60606102fe8585348686610849565b95945050505050565b86516060908614158061031a5750858414155b806103255750838214155b156103435760405163b4d50d2160e01b815260040160405180910390fd5b6000826001600160401b0381111561035d5761035d612818565b60405190808252806020026020018201604052801561039057816020015b606081526020019060019003908161037b5790505b5090506000805b8481101561049a57348888838181106103b2576103b2612c75565b90506020020135836103c49190612ca1565b92508211156103f457604051630c28c92b60e21b8152600481018390523460248201526044015b60405180910390fd5b61046c8b828151811061040957610409612c75565b60200260200101518b8b8481811061042357610423612c75565b905060200201358a8a8581811061043c5761043c612c75565b9050602002013589898681811061045557610455612c75565b90506020028101906104679190612cb4565b610849565b83828151811061047e5761047e612c75565b60200260200101819052506104938160010190565b9050610397565b50348110156104c55760405163528c345b60e11b8152600481018290523460248201526044016103eb565b5098975050505050505050565b60608382146104f4576040516355a187db60e01b815260040160405180910390fd5b6000826001600160401b0381111561050e5761050e612818565b60405190808252806020026020018201604052801561054157816020015b606081526020019060019003908161052c5790505b5090506000805b84811015610613573488888381811061056357610563612c75565b90506020020135836105759190612ca1565b92508211156105a057604051630c28c92b60e21b8152600481018390523460248201526044016103eb565b6105e58888838181106105b5576105b5612c75565b905060200201358787848181106105ce576105ce612c75565b90506020028101906105e09190612cb4565b61075b565b8382815181106105f7576105f7612c75565b602002602001018190525061060c8160010190565b9050610548565b503481101561063e5760405163528c345b60e11b8152600481018290523460248201526044016103eb565b5095945050505050565b600054610100900460ff16158080156106685750600054600160ff909116105b806106825750303b158015610682575060005460ff166001145b6106e55760405162461bcd60e51b815260206004820152602e60248201527f496e697469616c697a61626c653a20636f6e747261637420697320616c72656160448201526d191e481a5b9a5d1a585b1a5e995960921b60648201526084016103eb565b6000805460ff191660011790558015610708576000805461ff0019166101001790555b61071182610931565b8015610757576000805461ff0019169055604051600181527f7f26b83ff96e1f2b6a682f133852f6798a09c465da95921460cefb38474024989060200160405180910390a15b5050565b6060610766336109f0565b610771338484610a2b565b600061077e858585610e22565b90506102e76001600255565b60008060006107998585610f2a565b915091506107a681610f6f565b509392505050565b6000806001600160a01b0384166354f6127f6107db694b80742de2bf82acb36360b01b606087901b611125565b6040518263ffffffff1660e01b81526004016107f991815260200190565b600060405180830381865afa158015610816573d6000803e3d6000fd5b505050506040513d6000823e601f3d908101601f1916820160405261083e9190810190612cfa565b90506102e781612d67565b606060006006468787878760405160200161086996959493929190612d8e565b60408051601f19818403018152919052905060006108918861088b3085611171565b9061078a565b905061089c816109f0565b6108a681886111a4565b6108c95780878960405163c9bd9eb960e01b81526004016103eb93929190612dbd565b6001600160a01b038116600090815260016020908152604080832060808b901c845290915281208054916108fc83612de4565b919050555061090c818686610a2b565b6000610919878787610e22565b90506109256001600255565b98975050505050505050565b600054610100900460ff1661099c5760405162461bcd60e51b815260206004820152602b60248201527f496e697469616c697a61626c653a20636f6e7472616374206973206e6f74206960448201526a6e697469616c697a696e6760a81b60648201526084016103eb565b6001600160a01b0381166109c35760405163fc85457960e01b815260040160405180910390fd5b6000805462010000600160b01b031916620100006001600160a01b03841602179055600160025550565b50565b6002805403610a245760008054610a16906201000090046001600160a01b0316836107ae565b9050610757828260806111e2565b6002805550565b6000610a378284612dfd565b6000805491925090610a58906201000090046001600160a01b0316866107ae565b905080610a8357604051637949029560e11b81526001600160a01b03861660048201526024016103eb565b63203725bd60e21b6001600160e01b0319831601610bc557600080610aab8560048189612e2d565b810190610ab891906128db565b909250905081610adb57604051635bb17ddd60e11b815260040160405180910390fd5b6f1067922fc924ae78cd655932cd9cfb3d60811b6001600160801b0319831601610b1057610b0b8282898661121a565b610bbe565b65b47f8bd21d4160d01b6001600160d01b0319831601610b3657610b0b828289866113d5565b7f0cfc51aec37c55a4d0b1a65c6255c4bf2fbdf6277f3cc0730c45b828b6db8b47821480610b7a57506001600160a01b03198216690cfc51aec37c55a4d0b160b01b145b15610b8a57610b0b82888561155c565b69188c3a5fb592bcff77b560b11b6001600160a01b0319831601610bb357610b0b8288856115f6565b610bbe878484611690565b5050610e1b565b63eb591d6d60e01b6001600160e01b0319831601610d8d57600080610bed8560048189612e2d565b810190610bfa9190612e57565b915091506000805b8351811015610d73576000848281518110610c1f57610c1f612c75565b602002602001015190506000848381518110610c3d57610c3d612c75565b602002602001015190506000801b8203610c6a57604051635bb17ddd60e11b815260040160405180910390fd5b6f1067922fc924ae78cd655932cd9cfb3d60811b6001600160801b0319831601610cc157610c9a82828d8a61121a565b6000801b868481518110610cb057610cb0612c75565b602002602001018181525050610d69565b65b47f8bd21d4160d01b6001600160d01b0319831601610ce757610c9a82828d8a6113d5565b7f0cfc51aec37c55a4d0b1a65c6255c4bf2fbdf6277f3cc0730c45b828b6db8b47821480610d2b57506001600160a01b03198216690cfc51aec37c55a4d0b160b01b145b15610d3b57610c9a828c8961155c565b69188c3a5fb592bcff77b560b11b6001600160a01b0319831601610d6457610c9a828c896115f6565b600193505b5050600101610c02565b508015610d8557610d858885856116d9565b505050610e1b565b635d9feb8160e11b6001600160e01b0319831601610db657610db185828686611722565b610e1b565b6001600160e01b0319821663f2fde38b60e01b1480610de557506001600160e01b031982166379ba509760e01b145b15610df657610db1858260016111e2565b604051630aea214760e21b81526001600160e01b0319831660048201526024016103eb565b5050505050565b606083610e2f8385612dfd565b6001600160e01b0319167f4004d18dc05f04c061c306cbb394d4083af494786ab828142d6118ab2c43a49260405160405180910390a36000805481906201000090046001600160a01b0316865a908787604051610e8d929190612f05565b600060405180830381858888f193505050503d8060008114610ecb576040519150601f19603f3d011682016040523d82523d6000602084013e610ed0565b606091505b50915091506000610efa83836040518060800160405280604381526020016130a76043913961193d565b90508051600003610f0b5780610f1f565b80806020019051810190610f1f9190612cfa565b979650505050505050565b6000808251604103610f605760208301516040840151606085015160001a610f5487828585611976565b94509450505050610f68565b506000905060025b9250929050565b6000816004811115610f8357610f83612f15565b03610f8b5750565b6001816004811115610f9f57610f9f612f15565b03610fec5760405162461bcd60e51b815260206004820152601860248201527f45434453413a20696e76616c6964207369676e6174757265000000000000000060448201526064016103eb565b600281600481111561100057611000612f15565b0361104d5760405162461bcd60e51b815260206004820152601f60248201527f45434453413a20696e76616c6964207369676e6174757265206c656e6774680060448201526064016103eb565b600381600481111561106157611061612f15565b036110b95760405162461bcd60e51b815260206004820152602260248201527f45434453413a20696e76616c6964207369676e6174757265202773272076616c604482015261756560f01b60648201526084016103eb565b60048160048111156110cd576110cd612f15565b036109ed5760405162461bcd60e51b815260206004820152602260248201527f45434453413a20696e76616c6964207369676e6174757265202776272076616c604482015261756560f01b60648201526084016103eb565b604080516001600160b01b0319841660208201526000602a82018190526001600160601b03198416602c830152918291016040516020818303038152906040529050806102e790612d67565b60008282604051602001611186929190612f2b565b60405160208183030381529060405280519060200120905092915050565b6001600160a01b0382166000908152600160209081526040808320608085901c84529091528120546111da600160801b84612f6a565b149392505050565b80821681146112155760006111f682611a63565b90508381604051631ded6b7360e11b81526004016103eb929190612f8c565b505050565b7f20cf245f92495cf19acab2659b39f679e0f76aba35a7394b241ce5a0cc734f1d84016112fc57600080546040516354f6127f60e01b815260048101879052620100009091046001600160a01b0316906354f6127f90602401600060405180830381865afa158015611290573d6000803e3d6000fd5b505050506040513d6000823e601f3d908101601f191682016040526112b89190810190612cfa565b6112c190612d67565b905060006112ce85612d67565b9050818111156112e9576112e4848460026111e2565b6112f5565b6112f5848460046111e2565b50506113cf565b600080546040516354f6127f60e01b815260048101879052620100009091046001600160a01b0316906354f6127f90602401600060405180830381865afa15801561134b573d6000803e3d6000fd5b505050506040513d6000823e601f3d908101601f191682016040526113739190810190612cfa565b9050805160000361138f5761138a838360026111e2565b61139b565b61139b838360046111e2565b8351158015906113ad57508351601414155b15610e1b5784846040516311e95f4760e31b81526004016103eb929190612fb0565b50505050565b69b47f8bd21d407d534c9d60b01b6001600160a01b0319851601611403576113fe848383611d67565b6113cf565b6001600160a01b03198416694b80742de2bf393a64c760b01b148061143e57506001600160a01b03198416694b80742de2bf866c291160b01b145b1561154057825115801581611459575061145784611e04565b155b156114b25769b47f8bd21d40c6c59b3960b01b6001600160a01b0319861601611497578360405163187e77ab60e01b81526004016103eb9190612805565b83604051632786feed60e11b81526004016103eb9190612805565b600080546040516354f6127f60e01b815260048101889052620100009091046001600160a01b0316906354f6127f90602401600060405180830381865afa158015611501573d6000803e3d6000fd5b505050506040513d6000823e601f3d908101601f191682016040526115299190810190612cfa565b905080516000036112e9576112e4848460026111e2565b604051630f7d735b60e01b8152600481018590526024016103eb565b600080546040516354f6127f60e01b815260048101869052620100009091046001600160a01b0316906354f6127f90602401600060405180830381865afa1580156115ab573d6000803e3d6000fd5b505050506040513d6000823e601f3d908101601f191682016040526115d39190810190612cfa565b905080516000036115ea576113fe838360206111e2565b6113cf838360406111e2565b600080546040516354f6127f60e01b815260048101869052620100009091046001600160a01b0316906354f6127f90602401600060405180830381865afa158015611645573d6000803e3d6000fd5b505050506040513d6000823e601f3d908101601f1916820160405261166d9190810190612cfa565b90508051600003611684576113fe838360086111e2565b6113cf838360106111e2565b62020000808316036116a157505050565b6116af8383620400006111e2565b600080546116cc906201000090046001600160a01b031685611e8b565b90506113cf848383611f18565b62020000808316036116ea57505050565b6116f88383620400006111e2565b60008054611715906201000090046001600160a01b031685611e8b565b90506113cf84838361205a565b6000611732602460048486612e2d565b61173b91612fc9565b90506005811061179c5760405162461bcd60e51b815260206004820152602660248201527f4c5350364b65794d616e616765723a20696e76616c6964206f7065726174696f6044820152656e207479706560d01b60648201526084016103eb565b600481036118125760405162461bcd60e51b815260206004820152603e60248201527f4c5350364b65794d616e616765723a206f7065726174696f6e2044454c45474160448201527f544543414c4c2069732063757272656e746c7920646973616c6c6f776564000060648201526084016103eb565b6000611822606460448587612e2d565b61182b91612fc9565b90506000600183148061183e5750600283145b905060a484116000826118635761185e6118578661227e565b8981161490565b611866565b60005b9050818015611873575080155b1561188b5761188b8989611886886122b0565b6111e2565b61010088811614841580159061189f575080155b156118b1576118b18a8a6102006111e2565b83156118c2575050505050506113cf565b8180156118cc5750825b80156118d6575084155b156118e6575050505050506113cf565b8080156118f1575082155b80156118fc57508415155b1561190c575050505050506113cf565b8180156119165750805b15611926575050505050506113cf565b6119318a8989612306565b50505050505050505050565b6060831561194c57508161028a565b82511561195c5782518084602001fd5b8160405162461bcd60e51b81526004016103eb9190612805565b6000807f7fffffffffffffffffffffffffffffff5d576e7357a4501ddfe92f46681b20a08311156119ad5750600090506003611a5a565b8460ff16601b141580156119c557508460ff16601c14155b156119d65750600090506004611a5a565b6040805160008082526020820180845289905260ff881692820192909252606081018690526080810185905260019060a0016020604051602081039080840390855afa158015611a2a573d6000803e3d6000fd5b5050604051601f1901519150506001600160a01b038116611a5357600060019250925050611a5a565b9150600090505b94509492505050565b60606000198201611a9b57505060408051808201909152601181527005452414e534645524f574e45525348495607c1b602082015290565b6003198201611ad15750506040805180820190915260118152704348414e47455045524d495353494f4e5360781b602082015290565b6001198201611b0457505060408051808201909152600e81526d4144445045524d495353494f4e5360901b602082015290565b6007198201611b3657505060408051808201909152600d81526c414444455854454e53494f4e5360981b602082015290565b600f198201611b6b57505060408051808201909152601081526f4348414e4745455854454e53494f4e5360801b602082015290565b601f198201611bad57505060408051808201909152601c81527f414444554e4956455253414c524543454956455244454c454741544500000000602082015290565b603f198201611bef57505060408051808201909152601f81527f4348414e4745554e4956455253414c524543454956455244454c454741544500602082015290565b607f198201611c1e57505060408051808201909152600a8152695245454e5452414e435960b01b602082015290565b6203ffff198201611c4c5750506040805180820190915260078152665345544441544160c81b602082015290565b6107ff198201611c7657505060408051808201909152600481526310d0531360e21b602082015290565b611fff198201611ca657505060408051808201909152600a81526914d510551250d0d0531360b21b602082015290565b617fff198201611cd857505060408051808201909152600c81526b1111531151d0551150d0531360a21b602082015290565b61ffff198201611d045750506040805180820190915260068152654445504c4f5960d01b602082015290565b6101ff198201611d3757505060408051808201909152600d81526c5452414e5346455256414c554560981b602082015290565b621fffff198201611d6257505060408051808201909152600481526329a4a3a760e11b602082015290565b919050565b600080546040516354f6127f60e01b815260048101869052620100009091046001600160a01b0316906354f6127f90602401600060405180830381865afa158015611db6573d6000803e3d6000fd5b505050506040513d6000823e601f3d908101601f19168201604052611dde9190810190612cfa565b611de790612d67565b03611df857611215828260026111e2565b611215828260046111e2565b60008151600003611e1757506000919050565b60005b8251811015611e71576000838281518110611e3757611e37612c75565b016020015160f81c90506000819003611e54575060009392505050565b611e5f816001612ca1565b611e699083612ca1565b915050611e1a565b82518103611e825750600192915050565b50600092915050565b60606001600160a01b0383166354f6127f611eb5694b80742de2bf866c291160b01b85851b611125565b6040518263ffffffff1660e01b8152600401611ed391815260200190565b600060405180830381865afa158015611ef0573d6000803e3d6000fd5b505050506040513d6000823e601f3d908101601f1916820160405261028a9190810190612cfa565b8051600003611f455760405163ed7fa50960e01b81526001600160a01b03841660048201526024016103eb565b611f4e81611e04565b611f6d5780604051632786feed60e11b81526004016103eb9190612805565b60005b815181101561202f576000828281518110611f8d57611f8d612c75565b0160209081015160f81c9150811115611fbc57604051639f2cb4db60e01b8152600481018290526024016103eb565b6000611fd4611fcc846001612ca1565b85908461254d565b611fdd90612d67565b90506000611fec836020612fe7565b611ff7906008612ffa565b600019901b905085811682036120105750505050505050565b61201b836001612ca1565b6120259085612ca1565b9350505050611f70565b60405163557ae07960e01b81526001600160a01b0385166004820152602481018490526044016103eb565b80516000036120875760405163ed7fa50960e01b81526001600160a01b03841660048201526024016103eb565b61209081611e04565b6120af5780604051632786feed60e11b81526004016103eb9190612805565b6000805b8351821080156120c35750825181105b156121ed5760008382815181106120dc576120dc612c75565b016020015160f81c905060006120fe6120f6846001612ca1565b86908461254d565b61210790612d67565b90506000612116836020612fe7565b612121906008612ffa565b600019901b905060005b87518110156121bb576000801b88828151811061214a5761214a612c75565b602002602001015103156121a9578188828151811061216b5761216b612c75565b60200260200101511683036121a9576000801b88828151811061219057612190612c75565b6020908102919091010152856121a581612de4565b9650505b806121b381612de4565b91505061212b565b50865185036121ce575050505050505050565b6121d9836001612ca1565b6121e39085612ca1565b93505050506120b3565b60005b8451811015612276576000801b85828151811061220f5761220f612c75565b602002602001015114612264578585828151811061222f5761222f612c75565b602090810291909101015160405163557ae07960e01b81526001600160a01b03909216600483015260248201526044016103eb565b8061226e81612de4565b9150506121f0565b505050505050565b60008161228e5750610400919050565b6003820361229f5750611000919050565b60048203611d625750614000919050565b6000816122c05750610800919050565b600182036122d2575062010000919050565b600282036122e4575062010000919050565b600382036122f55750612000919050565b60048203611d625750618000919050565b6000612316604460308486612e2d565b61231f91613011565b60601c905060a8821080159060009061234c5761234060a860a48688612e2d565b61234991612dfd565b90505b60008054612369906201000090046001600160a01b03168861265a565b8051909150801580612381575061237f82611e04565b155b156123aa57604051636cb6058760e01b81526001600160a01b03891660048201526024016103eb565b60008080805b848110156125105760006123d0876123c9846001612ca1565b601c61254d565b90506123db8161303f565b63ffffffff19908116900361240e57604051636fd203c560e01b81526001600160a01b038e1660048201526024016103eb565b600061241982613073565b9050600060206124288461303f565b63ffffffff1916901b60601c9050600060c06124438561303f565b63ffffffff1916901b90506001600160e01b0319808416148061247457506124746001600160a01b038e1684612684565b97506001600160a01b03808316148061249e5750816001600160a01b03168d6001600160a01b0316145b96506001600160e01b031980821614806124cc57508b80156124cc57506001600160e01b03198b8116908216145b95508780156124d85750865b80156124e15750855b156124f85750505050505050505050505050505050565b50505050601d816125099190612ca1565b90506123b0565b5060405163228a3de760e11b81526001600160a01b03808d166004830152891660248201526001600160e01b0319871660448201526064016103eb565b60608161255b81601f612ca1565b101561259a5760405162461bcd60e51b815260206004820152600e60248201526d736c6963655f6f766572666c6f7760901b60448201526064016103eb565b6125a48284612ca1565b845110156125e85760405162461bcd60e51b8152602060048201526011602482015270736c6963655f6f75744f66426f756e647360781b60448201526064016103eb565b6060821580156126075760405191506000825260208201604052612651565b6040519150601f8416801560200281840101858101878315602002848b0101015b81831015612640578051835260209283019201612628565b5050858452601f01601f1916604052505b50949350505050565b60606001600160a01b0383166354f6127f611eb5694b80742de2bf393a64c760b01b85851b611125565b604080516001600160e01b03198316602480830191909152825180830390910181526044909101909152602080820180516001600160e01b03166301ffc9a760e01b178152825160009392849283928392918391908a617530fa92503d915060005190508280156126f6575060208210155b8015610f1f575015159695505050505050565b60006020828403121561271b57600080fd5b81356001600160e01b03198116811461028a57600080fd5b60008083601f84011261274557600080fd5b5081356001600160401b0381111561275c57600080fd5b602083019150836020828501011115610f6857600080fd5b6000806020838503121561278757600080fd5b82356001600160401b0381111561279d57600080fd5b6127a985828601612733565b90969095509350505050565b60005b838110156127d05781810151838201526020016127b8565b50506000910152565b600081518084526127f18160208601602086016127b5565b601f01601f19169290920160200192915050565b60208152600061028a60208301846127d9565b634e487b7160e01b600052604160045260246000fd5b604051601f8201601f191681016001600160401b038111828210171561285657612856612818565b604052919050565b60006001600160401b0382111561287757612877612818565b50601f01601f191660200190565b600082601f83011261289657600080fd5b81356128a96128a48261285e565b61282e565b8181528460208386010111156128be57600080fd5b816020850160208301376000918101602001919091529392505050565b600080604083850312156128ee57600080fd5b8235915060208301356001600160401b0381111561290b57600080fd5b61291785828601612885565b9150509250929050565b6000806000806060858703121561293757600080fd5b84356001600160401b038082111561294e57600080fd5b61295a88838901612885565b955060208701359450604087013591508082111561297757600080fd5b5061298487828801612733565b95989497509550505050565b80356001600160a01b0381168114611d6257600080fd5b600080604083850312156129ba57600080fd5b6129c383612990565b915060208301356001600160801b03811681146129df57600080fd5b809150509250929050565b60006001600160401b03821115612a0357612a03612818565b5060051b60200190565b600082601f830112612a1e57600080fd5b81356020612a2e6128a4836129ea565b82815260059290921b84018101918181019086841115612a4d57600080fd5b8286015b84811015612a8c5780356001600160401b03811115612a705760008081fd5b612a7e8986838b0101612885565b845250918301918301612a51565b509695505050505050565b60008083601f840112612aa957600080fd5b5081356001600160401b03811115612ac057600080fd5b6020830191508360208260051b8501011115610f6857600080fd5b60008060008060008060006080888a031215612af657600080fd5b87356001600160401b0380821115612b0d57600080fd5b612b198b838c01612a0d565b985060208a0135915080821115612b2f57600080fd5b612b3b8b838c01612a97565b909850965060408a0135915080821115612b5457600080fd5b612b608b838c01612a97565b909650945060608a0135915080821115612b7957600080fd5b50612b868a828b01612a97565b989b979a50959850939692959293505050565b6000602080830181845280855180835260408601915060408160051b870101925083870160005b82811015612bee57603f19888603018452612bdc8583516127d9565b94509285019290850190600101612bc0565b5092979650505050505050565b60008060008060408587031215612c1157600080fd5b84356001600160401b0380821115612c2857600080fd5b612c3488838901612a97565b90965094506020870135915080821115612c4d57600080fd5b5061298487828801612a97565b600060208284031215612c6c57600080fd5b61028a82612990565b634e487b7160e01b600052603260045260246000fd5b634e487b7160e01b600052601160045260246000fd5b8082018082111561027757610277612c8b565b6000808335601e19843603018112612ccb57600080fd5b8301803591506001600160401b03821115612ce557600080fd5b602001915036819003821315610f6857600080fd5b600060208284031215612d0c57600080fd5b81516001600160401b03811115612d2257600080fd5b8201601f81018413612d3357600080fd5b8051612d416128a48261285e565b818152856020838501011115612d5657600080fd5b6102fe8260208301602086016127b5565b80516020808301519190811015612d88576000198160200360031b1b821691505b50919050565b868152856020820152846040820152836060820152818360808301376000910160800190815295945050505050565b60018060a01b03841681528260208201526060604082015260006102fe60608301846127d9565b600060018201612df657612df6612c8b565b5060010190565b6001600160e01b03198135818116916004851015612e255780818660040360031b1b83161692505b505092915050565b60008085851115612e3d57600080fd5b83861115612e4a57600080fd5b5050820193919092039150565b60008060408385031215612e6a57600080fd5b82356001600160401b0380821115612e8157600080fd5b818501915085601f830112612e9557600080fd5b81356020612ea56128a4836129ea565b82815260059290921b84018101918181019089841115612ec457600080fd5b948201945b83861015612ee257853582529482019490820190612ec9565b96505086013592505080821115612ef857600080fd5b5061291785828601612a0d565b8183823760009101908152919050565b634e487b7160e01b600052602160045260246000fd5b601960f81b8152606083901b6001600160601b03191660028201528151600090612f5c8160168501602087016127b5565b919091016016019392505050565b600082612f8757634e487b7160e01b600052601260045260246000fd5b500690565b6001600160a01b03831681526040602082018190526000906102e7908301846127d9565b8281526040602082015260006102e760408301846127d9565b8035602083101561027757600019602084900360031b1b1692915050565b8181038181111561027757610277612c8b565b808202811582820484141761027757610277612c8b565b6001600160601b03198135818116916014851015612e255760149490940360031b84901b1690921692915050565b8051602082015163ffffffff19808216929190601c83101561306b57808184601c0360031b1b83161693505b505050919050565b805160208201516001600160e01b0319808216929190600483101561306b5760049290920360031b82901b16169291505056fe4c5350363a20556e6b6e6f776e204572726f72206f636375726564207768656e2063616c6c696e6720746865206c696e6b65642074617267657420636f6e7472616374a264697066735822122030a4ebd497cdba211cc48456ca7cd89cf812e8f344b4cdf16be2865faeeb70c664736f6c63430008110033",
    "linkReferences": {}
  },
  "methodIdentifiers": {
    "execute(bytes)": "09c5eabe",
    "execute(uint256[],bytes[])": "bf3e1f7b",
    "executeRelayCall(bytes,uint256,bytes)": "902d5fa0",
    "executeRelayCall(bytes[],uint256[],uint256[],bytes[])": "bd68663a",
    "getNonce(address,uint128)": "b44581d9",
    "initialize(address)": "c4d66de8",
    "isValidSignature(bytes32,bytes)": "1626ba7e",
    "supportsInterface(bytes4)": "01ffc9a7",
    "target()": "d4b83992"
  },
  "id": 40
}