{
  "abi": [
    {
      "inputs": [
        {
          "internalType": "string",
          "name": "name",
          "type": "string"
        },
        {
          "internalType": "string",
          "name": "symbol",
          "type": "string"
        },
        {
          "internalType": "address",
          "name": "newOwner",
          "type": "address"
        }
      ],
      "stateMutability": "nonpayable",
      "type": "constructor"
    },
    {
      "inputs": [
        {
          "internalType": "uint256",
          "name": "dataKeysLength",
          "type": "uint256"
        },
        {
          "internalType": "uint256",
          "name": "dataValuesLength",
          "type": "uint256"
        }
      ],
      "name": "ERC725Y_DataKeysValuesLengthMismatch",
      "type": "error"
    },
    {
      "inputs": [],
      "name": "LSP4TokenNameNotEditable",
      "type": "error"
    },
    {
      "inputs": [],
      "name": "LSP4TokenSymbolNotEditable",
      "type": "error"
    },
    {
      "inputs": [],
      "name": "LSP8CannotSendToAddressZero",
      "type": "error"
    },
    {
      "inputs": [],
      "name": "LSP8CannotSendToSelf",
      "type": "error"
    },
    {
      "inputs": [],
      "name": "LSP8CannotUseAddressZeroAsOperator",
      "type": "error"
    },
    {
      "inputs": [],
      "name": "LSP8InvalidTransferBatch",
      "type": "error"
    },
    {
      "inputs": [
        {
          "internalType": "bytes32",
          "name": "tokenId",
          "type": "bytes32"
        }
      ],
      "name": "LSP8NonExistentTokenId",
      "type": "error"
    },
    {
      "inputs": [
        {
          "internalType": "address",
          "name": "operator",
          "type": "address"
        },
        {
          "internalType": "bytes32",
          "name": "tokenId",
          "type": "bytes32"
        }
      ],
      "name": "LSP8NonExistingOperator",
      "type": "error"
    },
    {
      "inputs": [
        {
          "internalType": "bytes32",
          "name": "tokenId",
          "type": "bytes32"
        },
        {
          "internalType": "address",
          "name": "caller",
          "type": "address"
        }
      ],
      "name": "LSP8NotTokenOperator",
      "type": "error"
    },
    {
      "inputs": [
        {
          "internalType": "address",
          "name": "tokenOwner",
          "type": "address"
        },
        {
          "internalType": "bytes32",
          "name": "tokenId",
          "type": "bytes32"
        },
        {
          "internalType": "address",
          "name": "caller",
          "type": "address"
        }
      ],
      "name": "LSP8NotTokenOwner",
      "type": "error"
    },
    {
      "inputs": [
        {
          "internalType": "address",
          "name": "tokenReceiver",
          "type": "address"
        }
      ],
      "name": "LSP8NotifyTokenReceiverContractMissingLSP1Interface",
      "type": "error"
    },
    {
      "inputs": [
        {
          "internalType": "address",
          "name": "tokenReceiver",
          "type": "address"
        }
      ],
      "name": "LSP8NotifyTokenReceiverIsEOA",
      "type": "error"
    },
    {
      "inputs": [
        {
          "internalType": "address",
          "name": "operator",
          "type": "address"
        },
        {
          "internalType": "bytes32",
          "name": "tokenId",
          "type": "bytes32"
        }
      ],
      "name": "LSP8OperatorAlreadyAuthorized",
      "type": "error"
    },
    {
      "inputs": [
        {
          "internalType": "bytes32",
          "name": "tokenId",
          "type": "bytes32"
        }
      ],
      "name": "LSP8TokenIdAlreadyMinted",
      "type": "error"
    },
    {
      "anonymous": false,
      "inputs": [
        {
          "indexed": true,
          "internalType": "address",
          "name": "operator",
          "type": "address"
        },
        {
          "indexed": true,
          "internalType": "address",
          "name": "tokenOwner",
          "type": "address"
        },
        {
          "indexed": true,
          "internalType": "bytes32",
          "name": "tokenId",
          "type": "bytes32"
        }
      ],
      "name": "AuthorizedOperator",
      "type": "event"
    },
    {
      "anonymous": false,
      "inputs": [
        {
          "indexed": true,
          "internalType": "bytes32",
          "name": "dataKey",
          "type": "bytes32"
        },
        {
          "indexed": false,
          "internalType": "bytes",
          "name": "dataValue",
          "type": "bytes"
        }
      ],
      "name": "DataChanged",
      "type": "event"
    },
    {
      "anonymous": false,
      "inputs": [
        {
          "indexed": true,
          "internalType": "address",
          "name": "previousOwner",
          "type": "address"
        },
        {
          "indexed": true,
          "internalType": "address",
          "name": "newOwner",
          "type": "address"
        }
      ],
      "name": "OwnershipTransferred",
      "type": "event"
    },
    {
      "anonymous": false,
      "inputs": [
        {
          "indexed": true,
          "internalType": "address",
          "name": "operator",
          "type": "address"
        },
        {
          "indexed": true,
          "internalType": "address",
          "name": "tokenOwner",
          "type": "address"
        },
        {
          "indexed": true,
          "internalType": "bytes32",
          "name": "tokenId",
          "type": "bytes32"
        }
      ],
      "name": "RevokedOperator",
      "type": "event"
    },
    {
      "anonymous": false,
      "inputs": [
        {
          "indexed": false,
          "internalType": "address",
          "name": "operator",
          "type": "address"
        },
        {
          "indexed": true,
          "internalType": "address",
          "name": "from",
          "type": "address"
        },
        {
          "indexed": true,
          "internalType": "address",
          "name": "to",
          "type": "address"
        },
        {
          "indexed": true,
          "internalType": "bytes32",
          "name": "tokenId",
          "type": "bytes32"
        },
        {
          "indexed": false,
          "internalType": "bool",
          "name": "force",
          "type": "bool"
        },
        {
          "indexed": false,
          "internalType": "bytes",
          "name": "data",
          "type": "bytes"
        }
      ],
      "name": "Transfer",
      "type": "event"
    },
    {
      "inputs": [
        {
          "internalType": "address",
          "name": "operator",
          "type": "address"
        },
        {
          "internalType": "bytes32",
          "name": "tokenId",
          "type": "bytes32"
        }
      ],
      "name": "authorizeOperator",
      "outputs": [],
      "stateMutability": "nonpayable",
      "type": "function"
    },
    {
      "inputs": [
        {
          "internalType": "address",
          "name": "tokenOwner",
          "type": "address"
        }
      ],
      "name": "balanceOf",
      "outputs": [
        {
          "internalType": "uint256",
          "name": "",
          "type": "uint256"
        }
      ],
      "stateMutability": "view",
      "type": "function"
    },
    {
      "inputs": [
        {
          "internalType": "bytes32",
          "name": "tokenId",
          "type": "bytes32"
        }
      ],
      "name": "burn",
      "outputs": [],
      "stateMutability": "nonpayable",
      "type": "function"
    },
    {
      "inputs": [
        {
          "internalType": "bytes32[]",
          "name": "dataKeys",
          "type": "bytes32[]"
        }
      ],
      "name": "getData",
      "outputs": [
        {
          "internalType": "bytes[]",
          "name": "dataValues",
          "type": "bytes[]"
        }
      ],
      "stateMutability": "view",
      "type": "function"
    },
    {
      "inputs": [
        {
          "internalType": "bytes32",
          "name": "dataKey",
          "type": "bytes32"
        }
      ],
      "name": "getData",
      "outputs": [
        {
          "internalType": "bytes",
          "name": "dataValue",
          "type": "bytes"
        }
      ],
      "stateMutability": "view",
      "type": "function"
    },
    {
      "inputs": [
        {
          "internalType": "bytes32",
          "name": "tokenId",
          "type": "bytes32"
        }
      ],
      "name": "getOperatorsOf",
      "outputs": [
        {
          "internalType": "address[]",
          "name": "",
          "type": "address[]"
        }
      ],
      "stateMutability": "view",
      "type": "function"
    },
    {
      "inputs": [
        {
          "internalType": "address",
          "name": "operator",
          "type": "address"
        },
        {
          "internalType": "bytes32",
          "name": "tokenId",
          "type": "bytes32"
        }
      ],
      "name": "isOperatorFor",
      "outputs": [
        {
          "internalType": "bool",
          "name": "",
          "type": "bool"
        }
      ],
      "stateMutability": "view",
      "type": "function"
    },
    {
      "inputs": [
        {
          "internalType": "address",
          "name": "to",
          "type": "address"
        },
        {
          "internalType": "bytes32",
          "name": "tokenId",
          "type": "bytes32"
        }
      ],
      "name": "mint",
      "outputs": [],
      "stateMutability": "nonpayable",
      "type": "function"
    },
    {
      "inputs": [],
      "name": "owner",
      "outputs": [
        {
          "internalType": "address",
          "name": "",
          "type": "address"
        }
      ],
      "stateMutability": "view",
      "type": "function"
    },
    {
      "inputs": [],
      "name": "renounceOwnership",
      "outputs": [],
      "stateMutability": "nonpayable",
      "type": "function"
    },
    {
      "inputs": [
        {
          "internalType": "address",
          "name": "operator",
          "type": "address"
        },
        {
          "internalType": "bytes32",
          "name": "tokenId",
          "type": "bytes32"
        }
      ],
      "name": "revokeOperator",
      "outputs": [],
      "stateMutability": "nonpayable",
      "type": "function"
    },
    {
      "inputs": [
        {
          "internalType": "bytes32[]",
          "name": "dataKeys",
          "type": "bytes32[]"
        },
        {
          "internalType": "bytes[]",
          "name": "dataValues",
          "type": "bytes[]"
        }
      ],
      "name": "setData",
      "outputs": [],
      "stateMutability": "nonpayable",
      "type": "function"
    },
    {
      "inputs": [
        {
          "internalType": "bytes32",
          "name": "dataKey",
          "type": "bytes32"
        },
        {
          "internalType": "bytes",
          "name": "dataValue",
          "type": "bytes"
        }
      ],
      "name": "setData",
      "outputs": [],
      "stateMutability": "nonpayable",
      "type": "function"
    },
    {
      "inputs": [
        {
          "internalType": "bytes4",
          "name": "interfaceId",
          "type": "bytes4"
        }
      ],
      "name": "supportsInterface",
      "outputs": [
        {
          "internalType": "bool",
          "name": "",
          "type": "bool"
        }
      ],
      "stateMutability": "view",
      "type": "function"
    },
    {
      "inputs": [
        {
          "internalType": "uint256",
          "name": "index",
          "type": "uint256"
        }
      ],
      "name": "tokenAt",
      "outputs": [
        {
          "internalType": "bytes32",
          "name": "",
          "type": "bytes32"
        }
      ],
      "stateMutability": "view",
      "type": "function"
    },
    {
      "inputs": [
        {
          "internalType": "address",
          "name": "tokenOwner",
          "type": "address"
        }
      ],
      "name": "tokenIdsOf",
      "outputs": [
        {
          "internalType": "bytes32[]",
          "name": "",
          "type": "bytes32[]"
        }
      ],
      "stateMutability": "view",
      "type": "function"
    },
    {
      "inputs": [
        {
          "internalType": "bytes32",
          "name": "tokenId",
          "type": "bytes32"
        }
      ],
      "name": "tokenOwnerOf",
      "outputs": [
        {
          "internalType": "address",
          "name": "",
          "type": "address"
        }
      ],
      "stateMutability": "view",
      "type": "function"
    },
    {
      "inputs": [],
      "name": "totalSupply",
      "outputs": [
        {
          "internalType": "uint256",
          "name": "",
          "type": "uint256"
        }
      ],
      "stateMutability": "view",
      "type": "function"
    },
    {
      "inputs": [
        {
          "internalType": "address",
          "name": "from",
          "type": "address"
        },
        {
          "internalType": "address",
          "name": "to",
          "type": "address"
        },
        {
          "internalType": "bytes32",
          "name": "tokenId",
          "type": "bytes32"
        },
        {
          "internalType": "bool",
          "name": "force",
          "type": "bool"
        },
        {
          "internalType": "bytes",
          "name": "data",
          "type": "bytes"
        }
      ],
      "name": "transfer",
      "outputs": [],
      "stateMutability": "nonpayable",
      "type": "function"
    },
    {
      "inputs": [
        {
          "internalType": "address[]",
          "name": "from",
          "type": "address[]"
        },
        {
          "internalType": "address[]",
          "name": "to",
          "type": "address[]"
        },
        {
          "internalType": "bytes32[]",
          "name": "tokenId",
          "type": "bytes32[]"
        },
        {
          "internalType": "bool[]",
          "name": "force",
          "type": "bool[]"
        },
        {
          "internalType": "bytes[]",
          "name": "data",
          "type": "bytes[]"
        }
      ],
      "name": "transferBatch",
      "outputs": [],
      "stateMutability": "nonpayable",
      "type": "function"
    },
    {
      "inputs": [
        {
          "internalType": "address",
          "name": "newOwner",
          "type": "address"
        }
      ],
      "name": "transferOwnership",
      "outputs": [],
      "stateMutability": "nonpayable",
      "type": "function"
    }
  ],
  "bytecode": {
    "object": "0x60806040523480156200001157600080fd5b50604051620026cd380380620026cd833981016040819052620000349162000322565b828282828282806001600160a01b038116620000a55760405162461bcd60e51b815260206004820152602660248201527f4f776e61626c653a206e6577206f776e657220697320746865207a65726f206160448201526564647265737360d01b606482015260840160405180910390fd5b620000bb816200019560201b6200097b1760201c565b50620001127feafec4d89fa9619884b60000a4d96624a38f7ac2d8d9a604ecf07c12c77e480c60001b604051806040016040528060048152602001632936598960e21b815250620001fc60201b620009e01760201c565b6200014c7fdeba1e292f8ba88238e10ab3c7f88bd4be4fac56cad5194b6ecceaf653468af160001b84620001fc60201b620009e01760201c565b620001867f2f0a68ab07768e01943a599e73362a0e17a63a72e94dd2e384d2c1d4db93275660001b83620001fc60201b620009e01760201c565b5050505050505050506200053f565b6000546001600160a01b03828116911614620001f957600080546001600160a01b038381166001600160a01b0319831681178455604051919092169283917f8be0079c531659141344cd1fd0a4f28419497f9722a3daafe3b4186f6b6457e09190a3505b50565b60008281526001602052604090206200021682826200043e565b50817fece574603820d07bc9b91f2a932baadf4628aabcb8afba49776529c14a6104b2826040516200024991906200050a565b60405180910390a25050565b634e487b7160e01b600052604160045260246000fd5b60005b83811015620002885781810151838201526020016200026e565b50506000910152565b600082601f830112620002a357600080fd5b81516001600160401b0380821115620002c057620002c062000255565b604051601f8301601f19908116603f01168101908282118183101715620002eb57620002eb62000255565b816040528381528660208588010111156200030557600080fd5b620003188460208301602089016200026b565b9695505050505050565b6000806000606084860312156200033857600080fd5b83516001600160401b03808211156200035057600080fd5b6200035e8783880162000291565b945060208601519150808211156200037557600080fd5b50620003848682870162000291565b604086015190935090506001600160a01b0381168114620003a457600080fd5b809150509250925092565b600181811c90821680620003c457607f821691505b602082108103620003e557634e487b7160e01b600052602260045260246000fd5b50919050565b601f8211156200043957600081815260208120601f850160051c81016020861015620004145750805b601f850160051c820191505b81811015620004355782815560010162000420565b5050505b505050565b81516001600160401b038111156200045a576200045a62000255565b62000472816200046b8454620003af565b84620003eb565b602080601f831160018114620004aa5760008415620004915750858301515b600019600386901b1c1916600185901b17855562000435565b600085815260208120601f198616915b82811015620004db57888601518255948401946001909101908401620004ba565b5085821015620004fa5787850151600019600388901b60f8161c191681555b5050505050600190811b01905550565b60208152600082518060208401526200052b8160408501602087016200026b565b601f01601f19169190910160400192915050565b61217e806200054f6000396000f3fe608060405234801561001057600080fd5b50600436106101375760003560e01c8063511b6952116100b85780637f23690c1161007c5780637f23690c146102a35780638da5cb5b146102b657806392a91a3a146102c7578063a3b261f2146102e7578063cf5182ba14610307578063f2fde38b1461031a57600080fd5b8063511b69521461024257806354f6127f1461025557806370a0823114610275578063715018a6146102885780637e87632c1461029057600080fd5b8063217b2270116100ff578063217b2270146101b15780632a3654a4146101dc5780632cfd3005146101ef57806349a6078d146102025780634e3e6e9c1461022257600080fd5b806301ffc9a71461013c57806308a1eee1146101645780630b0c6d821461017957806314a6e2931461018c57806318160ddd1461019f575b600080fd5b61014f61014a3660046117f8565b61032d565b60405190151581526020015b60405180910390f35b610177610172366004611822565b610358565b005b610177610187366004611857565b61038a565b61017761019a366004611a50565b610437565b6002545b60405190815260200161015b565b6101c46101bf366004611822565b6104c3565b6040516001600160a01b03909116815260200161015b565b61014f6101ea366004611857565b6104fc565b6101776101fd366004611857565b610518565b610215610210366004611822565b610556565b60405161015b9190611ab4565b610235610230366004611b01565b610578565b60405161015b9190611b86565b610177610250366004611bf8565b61062c565b610268610263366004611822565b61067b565b60405161015b9190611c71565b6101a3610283366004611c84565b610686565b6101776106a7565b61017761029e366004611d63565b6106bb565b6101776102b1366004611e28565b6107aa565b6000546001600160a01b03166101c4565b6101a36102d5366004611822565b60009081526007602052604090205490565b6102fa6102f5366004611c84565b6107bc565b60405161015b9190611e65565b610177610315366004611857565b6107e0565b610177610328366004611c84565b610909565b60006001600160e01b0319821663622e7a0160e01b1480610352575061035282610a35565b92915050565b610387816040518060400160405280600d81526020016c3332b2b6103a343290313ab93760991b815250610a6a565b50565b6000610395826104c3565b9050336001600160a01b03821681146103e057604051632d938f5160e11b81526001600160a01b03808416600483015260248201859052821660448201526064015b60405180910390fd5b6001600160a01b03841661040757604051639577b8b360e01b815260040160405180910390fd5b836001600160a01b0316826001600160a01b0316036104265750505050565b610431848385610b3c565b50505050565b61043f610bcd565b805182511461046e57815181516040516321d1e13360e11b8152600481019290925260248201526044016103d7565b60005b82518110156104be576104b683828151811061048f5761048f611e9d565b60200260200101518383815181106104a9576104a9611e9d565b6020026020010151610c36565b600101610471565b505050565b6000818152600360205260408120546001600160a01b03168061035257604051635747cd1b60e11b8152600481018490526024016103d7565b600061050782610d1e565b6105118383610d56565b9392505050565b61055282826001604051806040016040528060158152602001743a37b5b2b710383934b73a32b91033b7903139393960591b815250610d9f565b5050565b606061056182610d1e565b600082815260056020526040902061035290610ec5565b6060815167ffffffffffffffff81111561059457610594611881565b6040519080825280602002602001820160405280156105c757816020015b60608152602001906001900390816105b25790505b50905060005b8251811015610626576105f88382815181106105eb576105eb611e9d565b6020026020010151610ed2565b82828151811061060a5761060a611e9d565b602002602001018190525061061f8160010190565b90506105cd565b50919050565b336106378185610d56565b61066657604051631294d2a960e01b8152600481018590526001600160a01b03821660248201526044016103d7565b6106738686868686610f74565b505050505050565b606061035282610ed2565b6001600160a01b038116600090815260046020526040812061035290611109565b6106af610bcd565b6106b9600061097b565b565b84518451811415806106ce575083518114155b806106da575082518114155b806106e6575081518114155b15610704576040516393a8311960e01b815260040160405180910390fd5b60005b818110156107a15761079987828151811061072457610724611e9d565b602002602001015187838151811061073e5761073e611e9d565b602002602001015187848151811061075857610758611e9d565b602002602001015187858151811061077257610772611e9d565b602002602001015187868151811061078c5761078c611e9d565b602002602001015161062c565b600101610707565b50505050505050565b6107b2610bcd565b6105528282610c36565b6001600160a01b038116600090815260046020526040902060609061035290611113565b60006107eb826104c3565b9050336001600160a01b038216811461083157604051632d938f5160e11b81526001600160a01b03808416600483015260248201859052821660448201526064016103d7565b6001600160a01b03841661085857604051639577b8b360e01b815260040160405180910390fd5b836001600160a01b0316826001600160a01b0316036108775750505050565b600083815260056020526040812061088f908661111e565b9050806108c1576040516314ec4d6d60e31b81526001600160a01b0386166004820152602481018590526044016103d7565b83836001600160a01b0316866001600160a01b03167f34b797fc5a526f7bf1d2b5de25f6564fd85ae364e3ee939aee7c1ac27871a98860405160405180910390a45050505050565b610911610bcd565b6001600160a01b0381166109765760405162461bcd60e51b815260206004820152602660248201527f4f776e61626c653a206e6577206f776e657220697320746865207a65726f206160448201526564647265737360d01b60648201526084016103d7565b610387815b6000546001600160a01b0382811691161461038757600080546001600160a01b038381166001600160a01b0319831681178455604051919092169283917f8be0079c531659141344cd1fd0a4f28419497f9722a3daafe3b4186f6b6457e09190a35050565b60008281526001602052604090206109f88282611f2d565b50817fece574603820d07bc9b91f2a932baadf4628aabcb8afba49776529c14a6104b282604051610a299190611c71565b60405180910390a25050565b60006001600160e01b03198216631c537ddf60e21b148061035257506301ffc9a760e01b6001600160e01b0319831614610352565b6000610a75836104c3565b905033610a8482600086611133565b600160026000828254610a979190612003565b90915550610aa7905082856111ed565b6001600160a01b0382166000908152600460205260409020610ac99085611234565b5060008481526003602052604080822080546001600160a01b0319169055518591906001600160a01b038516907fb333c813a7426a7a11e2b190cad52c44119421594b47f6f32ace6d8c7207b2bf90610b2790869085908a90612016565b60405180910390a46104318260008686611240565b6000818152600560205260408120610b549085611314565b905080610b86576040516312a8c6a360e21b81526001600160a01b0385166004820152602481018390526044016103d7565b81836001600160a01b0316856001600160a01b03167f17d5389f6ab6adb2647dfa0aa365c323d37adacc30b33a65310b6158ce1373d560405160405180910390a450505050565b33610be06000546001600160a01b031690565b6001600160a01b0316146106b95760405162461bcd60e51b815260206004820181905260248201527f4f776e61626c653a2063616c6c6572206973206e6f7420746865206f776e657260448201526064016103d7565b7f2145e1d6d074577dc71ef54c3807742b41b053a9352ae6b491331509acb9750f8201610c76576040516385c169bd60e01b815260040160405180910390fd5b7fd0f59754f88971fe6bc5a6618cc9d5f1e859c58d16b22d1c7b2d3e2b246cd8aa8201610cb657604051630eceab6760e31b815260040160405180910390fd5b6000828152600160205260409020610cce8282611f2d565b50817fece574603820d07bc9b91f2a932baadf4628aabcb8afba49776529c14a6104b261010083511115610d0f57610d0a836000610100611329565b610d11565b825b604051610a299190611c71565b6000818152600360205260409020546001600160a01b031661038757604051635747cd1b60e11b8152600481018290526024016103d7565b600080610d62836104c3565b9050806001600160a01b0316846001600160a01b03161480610d9757506000838152600560205260409020610d979085611436565b949350505050565b6001600160a01b038416610dc6576040516324ecef4d60e01b815260040160405180910390fd5b6000838152600360205260409020546001600160a01b031615610dff576040516334c7b51160e01b8152600481018490526024016103d7565b33610e0c60008686611133565b600160026000828254610e1f919061204b565b90915550506001600160a01b0385166000908152600460205260409020610e469085611458565b5060008481526003602052604080822080546001600160a01b0319166001600160a01b03891690811790915590518692907fb333c813a7426a7a11e2b190cad52c44119421594b47f6f32ace6d8c7207b2bf90610ea890869089908990612016565b60405180910390a4610ebe600086868686611464565b5050505050565b606060006105118361159c565b6000818152600160205260409020805460609190610eef90611eb3565b80601f0160208091040260200160405190810160405280929190818152602001828054610f1b90611eb3565b8015610f685780601f10610f3d57610100808354040283529160200191610f68565b820191906000526020600020905b815481529060010190602001808311610f4b57829003601f168201915b50505050509050919050565b836001600160a01b0316856001600160a01b031603610fa657604051635d67d6c160e01b815260040160405180910390fd5b6000610fb1846104c3565b9050856001600160a01b0316816001600160a01b031614610fff57604051632d938f5160e11b81526001600160a01b03808316600483015260248201869052871660448201526064016103d7565b6001600160a01b038516611026576040516324ecef4d60e01b815260040160405180910390fd5b33611032878787611133565b61103c87866111ed565b6001600160a01b038716600090815260046020526040902061105e9086611234565b506001600160a01b03861660009081526004602052604090206110819086611458565b506000858152600360205260409081902080546001600160a01b0319166001600160a01b0389811691821790925591518792918a16907fb333c813a7426a7a11e2b190cad52c44119421594b47f6f32ace6d8c7207b2bf906110e89086908a908a90612016565b60405180910390a46110fc87878786611240565b6107a18787878787611464565b6000610352825490565b60606103528261159c565b6000610511836001600160a01b0384166115f7565b6001600160a01b0383166111685760025460008181526007602090815260408083208590558483526008909152902055505050565b6001600160a01b0382166104be57600060016002546111879190612003565b600083815260086020526040902054909150818110156111c9576000828152600760209081526040808320548484528184208190558352600890915290208190555b50600090815260076020908152604080832083905592825260089052908120555050565b60008181526005602052604081209061120582611109565b905060005b81811015610ebe57600061121e8482611646565b905061122b818787610b3c565b5060010161120a565b60006105118383611652565b61125184631aed5a8560e21b611745565b156104315760008484848460405160200161126f949392919061205e565b60408051601f1981840301815290829052631aed5a8560e21b825291506001600160a01b03861690636bb56a14906112cd907fb23eae7e6d1564b295b4c3e3be402d9a2f0776c57bdf365903496f6fa481ab009085906004016120ab565b6000604051808303816000875af11580156112ec573d6000803e3d6000fd5b505050506040513d6000823e601f3d908101601f1916820160405261067391908101906120c4565b6000610511836001600160a01b038416611652565b60608161133781601f61204b565b10156113765760405162461bcd60e51b815260206004820152600e60248201526d736c6963655f6f766572666c6f7760901b60448201526064016103d7565b611380828461204b565b845110156113c45760405162461bcd60e51b8152602060048201526011602482015270736c6963655f6f75744f66426f756e647360781b60448201526064016103d7565b6060821580156113e3576040519150600082526020820160405261142d565b6040519150601f8416801560200281840101858101878315602002848b0101015b8183101561141c578051835260209283019201611404565b5050858452601f01601f1916604052505b50949350505050565b6001600160a01b03811660009081526001830160205260408120541515610511565b600061051183836115f7565b61147584631aed5a8560e21b611745565b1561153f57600085858584604051602001611493949392919061205e565b60408051601f1981840301815290829052631aed5a8560e21b825291506001600160a01b03861690636bb56a14906114f1907f0b084a55ebf70fd3c06fd755269dac2212c4d3f0f4d09079780bfa50c1b2984d9085906004016120ab565b6000604051808303816000875af1158015611510573d6000803e3d6000fd5b505050506040513d6000823e601f3d908101601f1916820160405261153891908101906120c4565b5050610ebe565b81610ebe576001600160a01b0384163b1561157857604051634349776d60e01b81526001600160a01b03851660048201526024016103d7565b604051630317313760e01b81526001600160a01b03851660048201526024016103d7565b606081600001805480602002602001604051908101604052809291908181526020018280548015610f6857602002820191906000526020600020905b8154815260200190600101908083116115d85750505050509050919050565b600081815260018301602052604081205461163e57508154600181810184556000848152602080822090930184905584548482528286019093526040902091909155610352565b506000610352565b600061051183836117ce565b6000818152600183016020526040812054801561173b576000611676600183612003565b855490915060009061168a90600190612003565b90508181146116ef5760008660000182815481106116aa576116aa611e9d565b90600052602060002001549050808760000184815481106116cd576116cd611e9d565b6000918252602080832090910192909255918252600188019052604090208390555b855486908061170057611700612132565b600190038181906000526020600020016000905590558560010160008681526020019081526020016000206000905560019350505050610352565b6000915050610352565b604080516001600160e01b03198316602480830191909152825180830390910181526044909101909152602080820180516001600160e01b03166301ffc9a760e01b178152825160009392849283928392918391908a617530fa92503d915060005190508280156117b7575060208210155b80156117c35750600081115b979650505050505050565b60008260000182815481106117e5576117e5611e9d565b9060005260206000200154905092915050565b60006020828403121561180a57600080fd5b81356001600160e01b03198116811461051157600080fd5b60006020828403121561183457600080fd5b5035919050565b80356001600160a01b038116811461185257600080fd5b919050565b6000806040838503121561186a57600080fd5b6118738361183b565b946020939093013593505050565b634e487b7160e01b600052604160045260246000fd5b604051601f8201601f1916810167ffffffffffffffff811182821017156118c0576118c0611881565b604052919050565b600067ffffffffffffffff8211156118e2576118e2611881565b5060051b60200190565b600082601f8301126118fd57600080fd5b8135602061191261190d836118c8565b611897565b82815260059290921b8401810191818101908684111561193157600080fd5b8286015b8481101561194c5780358352918301918301611935565b509695505050505050565b600067ffffffffffffffff82111561197157611971611881565b50601f01601f191660200190565b600082601f83011261199057600080fd5b813561199e61190d82611957565b8181528460208386010111156119b357600080fd5b816020850160208301376000918101602001919091529392505050565b600082601f8301126119e157600080fd5b813560206119f161190d836118c8565b82815260059290921b84018101918181019086841115611a1057600080fd5b8286015b8481101561194c57803567ffffffffffffffff811115611a345760008081fd5b611a428986838b010161197f565b845250918301918301611a14565b60008060408385031215611a6357600080fd5b823567ffffffffffffffff80821115611a7b57600080fd5b611a87868387016118ec565b93506020850135915080821115611a9d57600080fd5b50611aaa858286016119d0565b9150509250929050565b6020808252825182820181905260009190848201906040850190845b81811015611af55783516001600160a01b031683529284019291840191600101611ad0565b50909695505050505050565b600060208284031215611b1357600080fd5b813567ffffffffffffffff811115611b2a57600080fd5b610d97848285016118ec565b60005b83811015611b51578181015183820152602001611b39565b50506000910152565b60008151808452611b72816020860160208601611b36565b601f01601f19169290920160200192915050565b6000602080830181845280855180835260408601915060408160051b870101925083870160005b82811015611bdb57603f19888603018452611bc9858351611b5a565b94509285019290850190600101611bad565b5092979650505050505050565b8035801515811461185257600080fd5b600080600080600060a08688031215611c1057600080fd5b611c198661183b565b9450611c276020870161183b565b935060408601359250611c3c60608701611be8565b9150608086013567ffffffffffffffff811115611c5857600080fd5b611c648882890161197f565b9150509295509295909350565b6020815260006105116020830184611b5a565b600060208284031215611c9657600080fd5b6105118261183b565b600082601f830112611cb057600080fd5b81356020611cc061190d836118c8565b82815260059290921b84018101918181019086841115611cdf57600080fd5b8286015b8481101561194c57611cf48161183b565b8352918301918301611ce3565b600082601f830112611d1257600080fd5b81356020611d2261190d836118c8565b82815260059290921b84018101918181019086841115611d4157600080fd5b8286015b8481101561194c57611d5681611be8565b8352918301918301611d45565b600080600080600060a08688031215611d7b57600080fd5b853567ffffffffffffffff80821115611d9357600080fd5b611d9f89838a01611c9f565b96506020880135915080821115611db557600080fd5b611dc189838a01611c9f565b95506040880135915080821115611dd757600080fd5b611de389838a016118ec565b94506060880135915080821115611df957600080fd5b611e0589838a01611d01565b93506080880135915080821115611e1b57600080fd5b50611c64888289016119d0565b60008060408385031215611e3b57600080fd5b82359150602083013567ffffffffffffffff811115611e5957600080fd5b611aaa8582860161197f565b6020808252825182820181905260009190848201906040850190845b81811015611af557835183529284019291840191600101611e81565b634e487b7160e01b600052603260045260246000fd5b600181811c90821680611ec757607f821691505b60208210810361062657634e487b7160e01b600052602260045260246000fd5b601f8211156104be57600081815260208120601f850160051c81016020861015611f0e5750805b601f850160051c820191505b8181101561067357828155600101611f1a565b815167ffffffffffffffff811115611f4757611f47611881565b611f5b81611f558454611eb3565b84611ee7565b602080601f831160018114611f905760008415611f785750858301515b600019600386901b1c1916600185901b178555610673565b600085815260208120601f198616915b82811015611fbf57888601518255948401946001909101908401611fa0565b5085821015611fdd5787850151600019600388901b60f8161c191681555b5050505050600190811b01905550565b634e487b7160e01b600052601160045260246000fd5b8181038181111561035257610352611fed565b6001600160a01b0384168152821515602082015260606040820181905260009061204290830184611b5a565b95945050505050565b8082018082111561035257610352611fed565b60006bffffffffffffffffffffffff19808760601b168352808660601b16601484015250836028830152825161209b816048850160208701611b36565b9190910160480195945050505050565b828152604060208201526000610d976040830184611b5a565b6000602082840312156120d657600080fd5b815167ffffffffffffffff8111156120ed57600080fd5b8201601f810184136120fe57600080fd5b805161210c61190d82611957565b81815285602083850101111561212157600080fd5b612042826020830160208601611b36565b634e487b7160e01b600052603160045260246000fdfea264697066735822122022991c92df8207e6bb03a177a4996b0c43afbb27e13e78bd5f2d98f993e0c8f264736f6c63430008110033",
    "linkReferences": {}
  },
  "methodIdentifiers": {
    "authorizeOperator(address,bytes32)": "cf5182ba",
    "balanceOf(address)": "70a08231",
    "burn(bytes32)": "08a1eee1",
    "getData(bytes32)": "54f6127f",
    "getData(bytes32[])": "4e3e6e9c",
    "getOperatorsOf(bytes32)": "49a6078d",
    "isOperatorFor(address,bytes32)": "2a3654a4",
    "mint(address,bytes32)": "2cfd3005",
    "owner()": "8da5cb5b",
    "renounceOwnership()": "715018a6",
    "revokeOperator(address,bytes32)": "0b0c6d82",
    "setData(bytes32,bytes)": "7f23690c",
    "setData(bytes32[],bytes[])": "14a6e293",
    "supportsInterface(bytes4)": "01ffc9a7",
    "tokenAt(uint256)": "92a91a3a",
    "tokenIdsOf(address)": "a3b261f2",
    "tokenOwnerOf(bytes32)": "217b2270",
    "totalSupply()": "18160ddd",
    "transfer(address,address,bytes32,bool,bytes)": "511b6952",
    "transferBatch(address[],address[],bytes32[],bool[],bytes[])": "7e87632c",
    "transferOwnership(address)": "f2fde38b"
  },
  "id": 139
}