{
  "abi": [
    {
      "inputs": [
        {
          "internalType": "address",
          "name": "newOwner",
          "type": "address"
        }
      ],
      "stateMutability": "nonpayable",
      "type": "constructor"
    },
    {
      "inputs": [
        {
          "internalType": "uint256",
          "name": "dataKeysLength",
          "type": "uint256"
        },
        {
          "internalType": "uint256",
          "name": "dataValuesLength",
          "type": "uint256"
        }
      ],
      "name": "ERC725Y_DataKeysValuesLengthMismatch",
      "type": "error"
    },
    {
      "anonymous": false,
      "inputs": [
        {
          "indexed": true,
          "internalType": "bytes32",
          "name": "dataKey",
          "type": "bytes32"
        },
        {
          "indexed": false,
          "internalType": "bytes",
          "name": "dataValue",
          "type": "bytes"
        }
      ],
      "name": "DataChanged",
      "type": "event"
    },
    {
      "anonymous": false,
      "inputs": [
        {
          "indexed": true,
          "internalType": "address",
          "name": "previousOwner",
          "type": "address"
        },
        {
          "indexed": true,
          "internalType": "address",
          "name": "newOwner",
          "type": "address"
        }
      ],
      "name": "OwnershipTransferred",
      "type": "event"
    },
    {
      "inputs": [
        {
          "internalType": "bytes32[]",
          "name": "dataKeys",
          "type": "bytes32[]"
        }
      ],
      "name": "getData",
      "outputs": [
        {
          "internalType": "bytes[]",
          "name": "dataValues",
          "type": "bytes[]"
        }
      ],
      "stateMutability": "view",
      "type": "function"
    },
    {
      "inputs": [
        {
          "internalType": "bytes32",
          "name": "dataKey",
          "type": "bytes32"
        }
      ],
      "name": "getData",
      "outputs": [
        {
          "internalType": "bytes",
          "name": "dataValue",
          "type": "bytes"
        }
      ],
      "stateMutability": "view",
      "type": "function"
    },
    {
      "inputs": [],
      "name": "owner",
      "outputs": [
        {
          "internalType": "address",
          "name": "",
          "type": "address"
        }
      ],
      "stateMutability": "view",
      "type": "function"
    },
    {
      "inputs": [],
      "name": "renounceOwnership",
      "outputs": [],
      "stateMutability": "nonpayable",
      "type": "function"
    },
    {
      "inputs": [
        {
          "internalType": "bytes32[]",
          "name": "dataKeys",
          "type": "bytes32[]"
        },
        {
          "internalType": "bytes[]",
          "name": "dataValues",
          "type": "bytes[]"
        }
      ],
      "name": "setData",
      "outputs": [],
      "stateMutability": "nonpayable",
      "type": "function"
    },
    {
      "inputs": [
        {
          "internalType": "bytes32",
          "name": "dataKey",
          "type": "bytes32"
        },
        {
          "internalType": "bytes",
          "name": "dataValue",
          "type": "bytes"
        }
      ],
      "name": "setData",
      "outputs": [],
      "stateMutability": "nonpayable",
      "type": "function"
    },
    {
      "inputs": [
        {
          "internalType": "bytes4",
          "name": "interfaceId",
          "type": "bytes4"
        }
      ],
      "name": "supportsInterface",
      "outputs": [
        {
          "internalType": "bool",
          "name": "",
          "type": "bool"
        }
      ],
      "stateMutability": "view",
      "type": "function"
    },
    {
      "inputs": [
        {
          "internalType": "address",
          "name": "newOwner",
          "type": "address"
        }
      ],
      "name": "transferOwnership",
      "outputs": [],
      "stateMutability": "nonpayable",
      "type": "function"
    }
  ],
  "bytecode": {
    "object": "0x608060405234801561001057600080fd5b50604051610bf3380380610bf383398101604081905261002f91610117565b6001600160a01b0381166100985760405162461bcd60e51b815260206004820152602660248201527f4f776e61626c653a206e6577206f776e657220697320746865207a65726f206160448201526564647265737360d01b606482015260840160405180910390fd5b6100ab816100b160201b61037d1760201c565b50610147565b6000546001600160a01b0382811691161461011457600080546001600160a01b038381166001600160a01b0319831681178455604051919092169283917f8be0079c531659141344cd1fd0a4f28419497f9722a3daafe3b4186f6b6457e09190a3505b50565b60006020828403121561012957600080fd5b81516001600160a01b038116811461014057600080fd5b9392505050565b610a9d806101566000396000f3fe608060405234801561001057600080fd5b50600436106100885760003560e01c8063715018a61161005b578063715018a61461010a5780637f23690c146101125780638da5cb5b14610125578063f2fde38b1461014057600080fd5b806301ffc9a71461008d57806314a6e293146100b55780634e3e6e9c146100ca57806354f6127f146100ea575b600080fd5b6100a061009b366004610542565b610153565b60405190151581526020015b60405180910390f35b6100c86100c33660046106b9565b61018a565b005b6100dd6100d836600461078e565b61021b565b6040516100ac9190610811565b6100fd6100f8366004610873565b6102cf565b6040516100ac919061088c565b6100c86102da565b6100c861012036600461089f565b6102ee565b6000546040516001600160a01b0390911681526020016100ac565b6100c861014e3660046108e6565b610304565b60006001600160e01b03198216631c537ddf60e21b148061018457506301ffc9a760e01b6001600160e01b03198316145b92915050565b6101926103e2565b80518251146101c657815181516040516321d1e13360e11b8152600481019290925260248201526044015b60405180910390fd5b60005b82518110156102165761020e8382815181106101e7576101e761090f565b60200260200101518383815181106102015761020161090f565b602002602001015161044b565b6001016101c9565b505050565b6060815167ffffffffffffffff81111561023757610237610573565b60405190808252806020026020018201604052801561026a57816020015b60608152602001906001900390816102555790505b50905060005b82518110156102c95761029b83828151811061028e5761028e61090f565b60200260200101516104a0565b8282815181106102ad576102ad61090f565b60200260200101819052506102c28160010190565b9050610270565b50919050565b6060610184826104a0565b6102e26103e2565b6102ec600061037d565b565b6102f66103e2565b610300828261044b565b5050565b61030c6103e2565b6001600160a01b0381166103715760405162461bcd60e51b815260206004820152602660248201527f4f776e61626c653a206e6577206f776e657220697320746865207a65726f206160448201526564647265737360d01b60648201526084016101bd565b61037a8161037d565b50565b6000546001600160a01b0382811691161461037a57600080546001600160a01b038381166001600160a01b0319831681178455604051919092169283917f8be0079c531659141344cd1fd0a4f28419497f9722a3daafe3b4186f6b6457e09190a35050565b336103f56000546001600160a01b031690565b6001600160a01b0316146102ec5760405162461bcd60e51b815260206004820181905260248201527f4f776e61626c653a2063616c6c6572206973206e6f7420746865206f776e657260448201526064016101bd565b600082815260016020526040902061046382826109a7565b50817fece574603820d07bc9b91f2a932baadf4628aabcb8afba49776529c14a6104b282604051610494919061088c565b60405180910390a25050565b60008181526001602052604090208054606091906104bd90610925565b80601f01602080910402602001604051908101604052809291908181526020018280546104e990610925565b80156105365780601f1061050b57610100808354040283529160200191610536565b820191906000526020600020905b81548152906001019060200180831161051957829003601f168201915b50505050509050919050565b60006020828403121561055457600080fd5b81356001600160e01b03198116811461056c57600080fd5b9392505050565b634e487b7160e01b600052604160045260246000fd5b604051601f8201601f1916810167ffffffffffffffff811182821017156105b2576105b2610573565b604052919050565b600067ffffffffffffffff8211156105d4576105d4610573565b5060051b60200190565b600082601f8301126105ef57600080fd5b813560206106046105ff836105ba565b610589565b82815260059290921b8401810191818101908684111561062357600080fd5b8286015b8481101561063e5780358352918301918301610627565b509695505050505050565b600082601f83011261065a57600080fd5b813567ffffffffffffffff81111561067457610674610573565b610687601f8201601f1916602001610589565b81815284602083860101111561069c57600080fd5b816020850160208301376000918101602001919091529392505050565b600080604083850312156106cc57600080fd5b823567ffffffffffffffff808211156106e457600080fd5b6106f0868387016105de565b935060209150818501358181111561070757600080fd5b8501601f8101871361071857600080fd5b80356107266105ff826105ba565b81815260059190911b8201840190848101908983111561074557600080fd5b8584015b8381101561077d578035868111156107615760008081fd5b61076f8c8983890101610649565b845250918601918601610749565b508096505050505050509250929050565b6000602082840312156107a057600080fd5b813567ffffffffffffffff8111156107b757600080fd5b6107c3848285016105de565b949350505050565b6000815180845260005b818110156107f1576020818501810151868301820152016107d5565b506000602082860101526020601f19601f83011685010191505092915050565b6000602080830181845280855180835260408601915060408160051b870101925083870160005b8281101561086657603f198886030184526108548583516107cb565b94509285019290850190600101610838565b5092979650505050505050565b60006020828403121561088557600080fd5b5035919050565b60208152600061056c60208301846107cb565b600080604083850312156108b257600080fd5b82359150602083013567ffffffffffffffff8111156108d057600080fd5b6108dc85828601610649565b9150509250929050565b6000602082840312156108f857600080fd5b81356001600160a01b038116811461056c57600080fd5b634e487b7160e01b600052603260045260246000fd5b600181811c9082168061093957607f821691505b6020821081036102c957634e487b7160e01b600052602260045260246000fd5b601f82111561021657600081815260208120601f850160051c810160208610156109805750805b601f850160051c820191505b8181101561099f5782815560010161098c565b505050505050565b815167ffffffffffffffff8111156109c1576109c1610573565b6109d5816109cf8454610925565b84610959565b602080601f831160018114610a0a57600084156109f25750858301515b600019600386901b1c1916600185901b17855561099f565b600085815260208120601f198616915b82811015610a3957888601518255948401946001909101908401610a1a565b5085821015610a575787850151600019600388901b60f8161c191681555b5050505050600190811b0190555056fea2646970667358221220eb0fba5fe416daca833f6787c0208bfa0078b0ec49dac33387a7aa11e6be44a964736f6c63430008110033",
    "linkReferences": {}
  },
  "methodIdentifiers": {
    "getData(bytes32)": "54f6127f",
    "getData(bytes32[])": "4e3e6e9c",
    "owner()": "8da5cb5b",
    "renounceOwnership()": "715018a6",
    "setData(bytes32,bytes)": "7f23690c",
    "setData(bytes32[],bytes[])": "14a6e293",
    "supportsInterface(bytes4)": "01ffc9a7",
    "transferOwnership(address)": "f2fde38b"
  },
  "id": 173
}