{
  "address": "0x95BBa799180f73A4923aB4B4859eEFb77Fc4B8D0",
  "abi": [
    {
      "inputs": [
        {
          "internalType": "string",
          "name": "name_",
          "type": "string"
        },
        {
          "internalType": "string",
          "name": "symbol_",
          "type": "string"
        },
        {
          "internalType": "address",
          "name": "newOwner_",
          "type": "address"
        },
        {
          "internalType": "uint256",
          "name": "lsp4TokenType_",
          "type": "uint256"
        },
        {
          "internalType": "bool",
          "name": "isNonDivisible_",
          "type": "bool"
        }
      ],
      "stateMutability": "nonpayable",
      "type": "constructor"
    },
    {
      "inputs": [],
      "name": "ERC725Y_DataKeysValuesEmptyArray",
      "type": "error"
    },
    {
      "inputs": [],
      "name": "ERC725Y_DataKeysValuesLengthMismatch",
      "type": "error"
    },
    {
      "inputs": [],
      "name": "ERC725Y_MsgValueDisallowed",
      "type": "error"
    },
    {
      "inputs": [
        {
          "internalType": "bytes",
          "name": "storedData",
          "type": "bytes"
        }
      ],
      "name": "InvalidExtensionAddress",
      "type": "error"
    },
    {
      "inputs": [
        {
          "internalType": "bytes",
          "name": "data",
          "type": "bytes"
        }
      ],
      "name": "InvalidFunctionSelector",
      "type": "error"
    },
    {
      "inputs": [],
      "name": "LSP4TokenNameNotEditable",
      "type": "error"
    },
    {
      "inputs": [],
      "name": "LSP4TokenSymbolNotEditable",
      "type": "error"
    },
    {
      "inputs": [],
      "name": "LSP4TokenTypeNotEditable",
      "type": "error"
    },
    {
      "inputs": [
        {
          "internalType": "address",
          "name": "tokenOwner",
          "type": "address"
        },
        {
          "internalType": "uint256",
          "name": "authorizedAmount",
          "type": "uint256"
        },
        {
          "internalType": "address",
          "name": "operator",
          "type": "address"
        },
        {
          "internalType": "uint256",
          "name": "amount",
          "type": "uint256"
        }
      ],
      "name": "LSP7AmountExceedsAuthorizedAmount",
      "type": "error"
    },
    {
      "inputs": [
        {
          "internalType": "uint256",
          "name": "balance",
          "type": "uint256"
        },
        {
          "internalType": "address",
          "name": "tokenOwner",
          "type": "address"
        },
        {
          "internalType": "uint256",
          "name": "amount",
          "type": "uint256"
        }
      ],
      "name": "LSP7AmountExceedsBalance",
      "type": "error"
    },
    {
      "inputs": [
        {
          "internalType": "uint256",
          "name": "callIndex",
          "type": "uint256"
        }
      ],
      "name": "LSP7BatchCallFailed",
      "type": "error"
    },
    {
      "inputs": [],
      "name": "LSP7CannotSendToSelf",
      "type": "error"
    },
    {
      "inputs": [],
      "name": "LSP7CannotSendWithAddressZero",
      "type": "error"
    },
    {
      "inputs": [],
      "name": "LSP7CannotUseAddressZeroAsOperator",
      "type": "error"
    },
    {
      "inputs": [],
      "name": "LSP7DecreasedAllowanceBelowZero",
      "type": "error"
    },
    {
      "inputs": [],
      "name": "LSP7InvalidTransferBatch",
      "type": "error"
    },
    {
      "inputs": [
        {
          "internalType": "address",
          "name": "tokenReceiver",
          "type": "address"
        }
      ],
      "name": "LSP7NotifyTokenReceiverContractMissingLSP1Interface",
      "type": "error"
    },
    {
      "inputs": [
        {
          "internalType": "address",
          "name": "tokenReceiver",
          "type": "address"
        }
      ],
      "name": "LSP7NotifyTokenReceiverIsEOA",
      "type": "error"
    },
    {
      "inputs": [],
      "name": "LSP7TokenContractCannotHoldValue",
      "type": "error"
    },
    {
      "inputs": [],
      "name": "LSP7TokenOwnerCannotBeOperator",
      "type": "error"
    },
    {
      "inputs": [
        {
          "internalType": "bytes4",
          "name": "functionSelector",
          "type": "bytes4"
        }
      ],
      "name": "NoExtensionFoundForFunctionSelector",
      "type": "error"
    },
    {
      "inputs": [
        {
          "internalType": "address",
          "name": "operator",
          "type": "address"
        }
      ],
      "name": "OperatorAllowanceCannotBeIncreasedFromZero",
      "type": "error"
    },
    {
      "inputs": [
        {
          "internalType": "address",
          "name": "callerAddress",
          "type": "address"
        }
      ],
      "name": "OwnableCallerNotTheOwner",
      "type": "error"
    },
    {
      "inputs": [],
      "name": "OwnableCannotSetZeroAddressAsOwner",
      "type": "error"
    },
    {
      "anonymous": false,
      "inputs": [
        {
          "indexed": true,
          "internalType": "bytes32",
          "name": "dataKey",
          "type": "bytes32"
        },
        {
          "indexed": false,
          "internalType": "bytes",
          "name": "dataValue",
          "type": "bytes"
        }
      ],
      "name": "DataChanged",
      "type": "event"
    },
    {
      "anonymous": false,
      "inputs": [
        {
          "indexed": true,
          "internalType": "address",
          "name": "operator",
          "type": "address"
        },
        {
          "indexed": true,
          "internalType": "address",
          "name": "tokenOwner",
          "type": "address"
        },
        {
          "indexed": true,
          "internalType": "uint256",
          "name": "amount",
          "type": "uint256"
        },
        {
          "indexed": false,
          "internalType": "bytes",
          "name": "operatorNotificationData",
          "type": "bytes"
        }
      ],
      "name": "OperatorAuthorizationChanged",
      "type": "event"
    },
    {
      "anonymous": false,
      "inputs": [
        {
          "indexed": true,
          "internalType": "address",
          "name": "operator",
          "type": "address"
        },
        {
          "indexed": true,
          "internalType": "address",
          "name": "tokenOwner",
          "type": "address"
        },
        {
          "indexed": true,
          "internalType": "bool",
          "name": "notified",
          "type": "bool"
        },
        {
          "indexed": false,
          "internalType": "bytes",
          "name": "operatorNotificationData",
          "type": "bytes"
        }
      ],
      "name": "OperatorRevoked",
      "type": "event"
    },
    {
      "anonymous": false,
      "inputs": [
        {
          "indexed": true,
          "internalType": "address",
          "name": "previousOwner",
          "type": "address"
        },
        {
          "indexed": true,
          "internalType": "address",
          "name": "newOwner",
          "type": "address"
        }
      ],
      "name": "OwnershipTransferred",
      "type": "event"
    },
    {
      "anonymous": false,
      "inputs": [
        {
          "indexed": true,
          "internalType": "address",
          "name": "operator",
          "type": "address"
        },
        {
          "indexed": true,
          "internalType": "address",
          "name": "from",
          "type": "address"
        },
        {
          "indexed": true,
          "internalType": "address",
          "name": "to",
          "type": "address"
        },
        {
          "indexed": false,
          "internalType": "uint256",
          "name": "amount",
          "type": "uint256"
        },
        {
          "indexed": false,
          "internalType": "bool",
          "name": "force",
          "type": "bool"
        },
        {
          "indexed": false,
          "internalType": "bytes",
          "name": "data",
          "type": "bytes"
        }
      ],
      "name": "Transfer",
      "type": "event"
    },
    {
      "stateMutability": "payable",
      "type": "fallback"
    },
    {
      "inputs": [
        {
          "internalType": "address",
          "name": "operator",
          "type": "address"
        },
        {
          "internalType": "uint256",
          "name": "amount",
          "type": "uint256"
        },
        {
          "internalType": "bytes",
          "name": "operatorNotificationData",
          "type": "bytes"
        }
      ],
      "name": "authorizeOperator",
      "outputs": [],
      "stateMutability": "nonpayable",
      "type": "function"
    },
    {
      "inputs": [
        {
          "internalType": "address",
          "name": "operator",
          "type": "address"
        },
        {
          "internalType": "address",
          "name": "tokenOwner",
          "type": "address"
        }
      ],
      "name": "authorizedAmountFor",
      "outputs": [
        {
          "internalType": "uint256",
          "name": "",
          "type": "uint256"
        }
      ],
      "stateMutability": "view",
      "type": "function"
    },
    {
      "inputs": [
        {
          "internalType": "address",
          "name": "tokenOwner",
          "type": "address"
        }
      ],
      "name": "balanceOf",
      "outputs": [
        {
          "internalType": "uint256",
          "name": "",
          "type": "uint256"
        }
      ],
      "stateMutability": "view",
      "type": "function"
    },
    {
      "inputs": [
        {
          "internalType": "bytes[]",
          "name": "data",
          "type": "bytes[]"
        }
      ],
      "name": "batchCalls",
      "outputs": [
        {
          "internalType": "bytes[]",
          "name": "results",
          "type": "bytes[]"
        }
      ],
      "stateMutability": "nonpayable",
      "type": "function"
    },
    {
      "inputs": [],
      "name": "decimals",
      "outputs": [
        {
          "internalType": "uint8",
          "name": "",
          "type": "uint8"
        }
      ],
      "stateMutability": "view",
      "type": "function"
    },
    {
      "inputs": [
        {
          "internalType": "address",
          "name": "operator",
          "type": "address"
        },
        {
          "internalType": "uint256",
          "name": "subtractedAmount",
          "type": "uint256"
        },
        {
          "internalType": "bytes",
          "name": "operatorNotificationData",
          "type": "bytes"
        }
      ],
      "name": "decreaseAllowance",
      "outputs": [],
      "stateMutability": "nonpayable",
      "type": "function"
    },
    {
      "inputs": [
        {
          "internalType": "bytes32",
          "name": "dataKey",
          "type": "bytes32"
        }
      ],
      "name": "getData",
      "outputs": [
        {
          "internalType": "bytes",
          "name": "dataValue",
          "type": "bytes"
        }
      ],
      "stateMutability": "view",
      "type": "function"
    },
    {
      "inputs": [
        {
          "internalType": "bytes32[]",
          "name": "dataKeys",
          "type": "bytes32[]"
        }
      ],
      "name": "getDataBatch",
      "outputs": [
        {
          "internalType": "bytes[]",
          "name": "dataValues",
          "type": "bytes[]"
        }
      ],
      "stateMutability": "view",
      "type": "function"
    },
    {
      "inputs": [
        {
          "internalType": "address",
          "name": "tokenOwner",
          "type": "address"
        }
      ],
      "name": "getOperatorsOf",
      "outputs": [
        {
          "internalType": "address[]",
          "name": "",
          "type": "address[]"
        }
      ],
      "stateMutability": "view",
      "type": "function"
    },
    {
      "inputs": [
        {
          "internalType": "address",
          "name": "operator",
          "type": "address"
        },
        {
          "internalType": "uint256",
          "name": "addedAmount",
          "type": "uint256"
        },
        {
          "internalType": "bytes",
          "name": "operatorNotificationData",
          "type": "bytes"
        }
      ],
      "name": "increaseAllowance",
      "outputs": [],
      "stateMutability": "nonpayable",
      "type": "function"
    },
    {
      "inputs": [
        {
          "internalType": "address",
          "name": "to",
          "type": "address"
        },
        {
          "internalType": "uint256",
          "name": "amount",
          "type": "uint256"
        },
        {
          "internalType": "bool",
          "name": "force",
          "type": "bool"
        },
        {
          "internalType": "bytes",
          "name": "data",
          "type": "bytes"
        }
      ],
      "name": "mint",
      "outputs": [],
      "stateMutability": "nonpayable",
      "type": "function"
    },
    {
      "inputs": [],
      "name": "owner",
      "outputs": [
        {
          "internalType": "address",
          "name": "",
          "type": "address"
        }
      ],
      "stateMutability": "view",
      "type": "function"
    },
    {
      "inputs": [],
      "name": "renounceOwnership",
      "outputs": [],
      "stateMutability": "nonpayable",
      "type": "function"
    },
    {
      "inputs": [
        {
          "internalType": "address",
          "name": "operator",
          "type": "address"
        },
        {
          "internalType": "bool",
          "name": "notify",
          "type": "bool"
        },
        {
          "internalType": "bytes",
          "name": "operatorNotificationData",
          "type": "bytes"
        }
      ],
      "name": "revokeOperator",
      "outputs": [],
      "stateMutability": "nonpayable",
      "type": "function"
    },
    {
      "inputs": [
        {
          "internalType": "bytes32",
          "name": "dataKey",
          "type": "bytes32"
        },
        {
          "internalType": "bytes",
          "name": "dataValue",
          "type": "bytes"
        }
      ],
      "name": "setData",
      "outputs": [],
      "stateMutability": "payable",
      "type": "function"
    },
    {
      "inputs": [
        {
          "internalType": "bytes32[]",
          "name": "dataKeys",
          "type": "bytes32[]"
        },
        {
          "internalType": "bytes[]",
          "name": "dataValues",
          "type": "bytes[]"
        }
      ],
      "name": "setDataBatch",
      "outputs": [],
      "stateMutability": "payable",
      "type": "function"
    },
    {
      "inputs": [
        {
          "internalType": "bytes4",
          "name": "interfaceId",
          "type": "bytes4"
        }
      ],
      "name": "supportsInterface",
      "outputs": [
        {
          "internalType": "bool",
          "name": "",
          "type": "bool"
        }
      ],
      "stateMutability": "view",
      "type": "function"
    },
    {
      "inputs": [],
      "name": "totalSupply",
      "outputs": [
        {
          "internalType": "uint256",
          "name": "",
          "type": "uint256"
        }
      ],
      "stateMutability": "view",
      "type": "function"
    },
    {
      "inputs": [
        {
          "internalType": "address",
          "name": "from",
          "type": "address"
        },
        {
          "internalType": "address",
          "name": "to",
          "type": "address"
        },
        {
          "internalType": "uint256",
          "name": "amount",
          "type": "uint256"
        },
        {
          "internalType": "bool",
          "name": "force",
          "type": "bool"
        },
        {
          "internalType": "bytes",
          "name": "data",
          "type": "bytes"
        }
      ],
      "name": "transfer",
      "outputs": [],
      "stateMutability": "nonpayable",
      "type": "function"
    },
    {
      "inputs": [
        {
          "internalType": "address[]",
          "name": "from",
          "type": "address[]"
        },
        {
          "internalType": "address[]",
          "name": "to",
          "type": "address[]"
        },
        {
          "internalType": "uint256[]",
          "name": "amount",
          "type": "uint256[]"
        },
        {
          "internalType": "bool[]",
          "name": "force",
          "type": "bool[]"
        },
        {
          "internalType": "bytes[]",
          "name": "data",
          "type": "bytes[]"
        }
      ],
      "name": "transferBatch",
      "outputs": [],
      "stateMutability": "nonpayable",
      "type": "function"
    },
    {
      "inputs": [
        {
          "internalType": "address",
          "name": "newOwner",
          "type": "address"
        }
      ],
      "name": "transferOwnership",
      "outputs": [],
      "stateMutability": "nonpayable",
      "type": "function"
    },
    {
      "stateMutability": "payable",
      "type": "receive"
    }
  ],
  "transactionHash": "0x853718283dd556d3010334e1845f512d97c1c8448913d2b1a0989144d7e100e6",
  "args": [
    "LSP7 Mintable Hello",
    "LSP7MH",
    "0x983aBC616f2442bAB7a917E6bb8660Df8b01F3bF",
    0,
    false
  ],
  "numDeployments": 1,
  "solcInputHash": "9b2ce31657456bfe71ca9ff8dcb23609",
  "bytecode": "0x60806040523480156200001157600080fd5b5060405162002da538038062002da5833981016040819052620000349162000354565b848484848484848484816001600160a01b03811662000066576040516306b620db60e21b815260040160405180910390fd5b6200007c81620001c060201b62000d9a1760201c565b50620000d37feafec4d89fa9619884b60000a4d96624a38f7ac2d8d9a604ecf07c12c77e480c60001b604051806040016040528060048152602001632936598960e21b8152506200022e60201b62000e201760201c565b6200010d7fdeba1e292f8ba88238e10ab3c7f88bd4be4fac56cad5194b6ecceaf653468af160001b856200022e60201b62000e201760201c565b620001477f2f0a68ab07768e01943a599e73362a0e17a63a72e94dd2e384d2c1d4db93275660001b846200022e60201b62000e201760201c565b60408051602081018390526200019a917fe0261fa95db2eb3b5439bd033cda66d56b96f92f243a8228fd87550ed7bdfdb391016040516020818303038152906040526200022e60201b62000e201760201c565b50506002805460ff19169315159390931790925550620005959950505050505050505050565b6000546001600160a01b038281169116146200022b57600080546040516001600160a01b03808516939216917f8be0079c531659141344cd1fd0a4f28419497f9722a3daafe3b4186f6b6457e091a3600080546001600160a01b0319166001600160a01b0383161790555b50565b600082815260016020526040902062000248828262000494565b50817fece574603820d07bc9b91f2a932baadf4628aabcb8afba49776529c14a6104b2826040516200027b919062000560565b60405180910390a25050565b634e487b7160e01b600052604160045260246000fd5b60005b83811015620002ba578181015183820152602001620002a0565b50506000910152565b600082601f830112620002d557600080fd5b81516001600160401b0380821115620002f257620002f262000287565b604051601f8301601f19908116603f011681019082821181831017156200031d576200031d62000287565b816040528381528660208588010111156200033757600080fd5b6200034a8460208301602089016200029d565b9695505050505050565b600080600080600060a086880312156200036d57600080fd5b85516001600160401b03808211156200038557600080fd5b6200039389838a01620002c3565b96506020880151915080821115620003aa57600080fd5b50620003b988828901620002c3565b604088015190955090506001600160a01b0381168114620003d957600080fd5b6060870151608088015191945092508015158114620003f757600080fd5b809150509295509295909350565b600181811c908216806200041a57607f821691505b6020821081036200043b57634e487b7160e01b600052602260045260246000fd5b50919050565b601f8211156200048f57600081815260208120601f850160051c810160208610156200046a5750805b601f850160051c820191505b818110156200048b5782815560010162000476565b5050505b505050565b81516001600160401b03811115620004b057620004b062000287565b620004c881620004c1845462000405565b8462000441565b602080601f831160018114620005005760008415620004e75750858301515b600019600386901b1c1916600185901b1785556200048b565b600085815260208120601f198616915b82811015620005315788860151825594840194600190910190840162000510565b5085821015620005505787850151600019600388901b60f8161c191681555b5050505050600190811b01905550565b6020815260008251806020840152620005818160408501602087016200029d565b601f01601f19169190910160400192915050565b61280080620005a56000396000f3fe60806040526004361061016e5760003560e01c8063715018a6116100cb5780638da5cb5b1161007f578063d72fc29a11610059578063d72fc29a14610493578063dedff9c6146104c0578063f2fde38b146104e0576101e2565b80638da5cb5b146104385780639790242114610460578063b49506fd14610473576101e2565b8063760d9bba116100b0578063760d9bba146103e55780637b204c4e146104055780637f23690c14610425576101e2565b8063715018a6146103b05780637580d920146103c5576101e2565b80634521748e1161012257806365aeaa951161010757806365aeaa951461032d5780636963d4381461034d57806370a082311461037a576101e2565b80634521748e146102e057806354f6127f14610300576101e2565b80632bc1da82116101535780632bc1da82146102775780632d7667c914610299578063313ce567146102b9576101e2565b806301ffc9a71461022357806318160ddd14610258576101e2565b366101e257346000036101b05760405163e5099ee360e01b81526004016101a79060208082526004908201526000604082015260600190565b60405180910390fd5b6040517f388f5adc00000000000000000000000000000000000000000000000000000000815260040160405180910390fd5b6000366060600482101561020d57828260405163e5099ee360e01b81526004016101a7929190611bbf565b6102178383610500565b80519350602001915050f35b34801561022f57600080fd5b5061024361023e366004611bee565b61060f565b60405190151581526020015b60405180910390f35b34801561026457600080fd5b506003545b60405190815260200161024f565b34801561028357600080fd5b50610297610292366004611cf9565b61065c565b005b3480156102a557600080fd5b506102976102b4366004611f2e565b610705565b3480156102c557600080fd5b506102ce61080d565b60405160ff909116815260200161024f565b3480156102ec57600080fd5b506102976102fb366004612000565b610826565b34801561030c57600080fd5b5061032061031b366004612048565b610874565b60405161024f91906120b1565b34801561033957600080fd5b506102696103483660046120c4565b61087f565b34801561035957600080fd5b5061036d6103683660046120f7565b6108e5565b60405161024f919061216c565b34801561038657600080fd5b506102696103953660046121ce565b6001600160a01b031660009081526004602052604090205490565b3480156103bc57600080fd5b50610297610a35565b3480156103d157600080fd5b506102976103e03660046121e9565b610a49565b3480156103f157600080fd5b50610297610400366004612251565b610a5d565b34801561041157600080fd5b50610297610420366004611cf9565b610ad7565b6102976104333660046122bd565b610b30565b34801561044457600080fd5b506000546040516001600160a01b03909116815260200161024f565b61029761046e366004612304565b610b65565b34801561047f57600080fd5b5061029761048e366004611cf9565b610c52565b34801561049f57600080fd5b506104b36104ae3660046121ce565b610c77565b60405161024f919061235e565b3480156104cc57600080fd5b5061036d6104db3660046123ab565b610c9b565b3480156104ec57600080fd5b506102976104fb3660046121ce565b610d46565b606060006105196000356001600160e01b031916610e75565b5090506001600160a01b03811661056a576040517fbb370b2b0000000000000000000000000000000000000000000000000000000081526001600160e01b03196000351660048201526024016101a7565b600080826001600160a01b0316348787333460405160200161058f94939291906123e0565b60408051601f19818403018152908290526105a991612410565b60006040518083038185875af1925050503d80600081146105e6576040519150601f19603f3d011682016040523d82523d6000602084013e6105eb565b606091505b50915091508115610600579250610609915050565b80518060208301fd5b92915050565b60006001600160e01b031982167fb3c4928f00000000000000000000000000000000000000000000000000000000148061064d575061064d82610f1f565b80610609575061060982610f5d565b6000610668843361087f565b9050806000036106af576040517fcba6e9770000000000000000000000000000000000000000000000000000000081526001600160a01b03851660048201526024016101a7565b60006106bb8483612442565b90506106cb338683600187610f9b565b60003382856040516020016106e293929190612455565b60405160208183030381529060405290506106fd8682611140565b505050505050565b8451845181141580610718575083518114155b80610724575082518114155b80610730575081518114155b15610767576040517f263eee8d00000000000000000000000000000000000000000000000000000000815260040160405180910390fd5b60005b81811015610804576107fc87828151811061078757610787612486565b60200260200101518783815181106107a1576107a1612486565b60200260200101518784815181106107bb576107bb612486565b60200260200101518785815181106107d5576107d5612486565b60200260200101518786815181106107ef576107ef612486565b6020026020010151610a5d565b60010161076a565b50505050505050565b60025460009060ff166108205750601290565b50600090565b610834338460008585610f9b565b811561086f576000336000836040516020016108529392919061249c565b604051602081830303815290604052905061086d8482611140565b505b505050565b60606106098261116b565b6000826001600160a01b0316826001600160a01b0316036108b957506001600160a01b038116600090815260046020526040902054610609565b506001600160a01b03808216600090815260066020908152604080832093861683529290522054610609565b60608167ffffffffffffffff81111561090057610900611c34565b60405190808252806020026020018201604052801561093357816020015b606081526020019060019003908161091e5790505b50905060005b82811015610a2e576000803086868581811061095757610957612486565b905060200281019061096991906124c7565b604051610977929190612515565b600060405180830381855af49150503d80600081146109b2576040519150601f19603f3d011682016040523d82523d6000602084013e6109b7565b606091505b509150915081610a06578051156109d15780518082602001fd5b6040517fb774c284000000000000000000000000000000000000000000000000000000008152600481018490526024016101a7565b80848481518110610a1957610a19612486565b60209081029190910101525050600101610939565b5092915050565b610a3d61120d565b610a476000610d9a565b565b610a5161120d565b61086d84848484611262565b836001600160a01b0316856001600160a01b031603610aa8576040517fb9afb00000000000000000000000000000000000000000000000000000000000815260040160405180910390fd5b336001600160a01b03861614610ac357610ac333868561136b565b610ad08585858585611412565b5050505050565b6000610ae3843361087f565b905082811015610b1f576040517f0ef76c3500000000000000000000000000000000000000000000000000000000815260040160405180910390fd5b8281036106cb338683600187610f9b565b610b3861120d565b3415610b575760405163f36ba73760e01b815260040160405180910390fd5b610b6182826115c7565b5050565b610b6d61120d565b3415610b8c5760405163f36ba73760e01b815260040160405180910390fd5b8051825114610bc7576040517f3bcc897900000000000000000000000000000000000000000000000000000000815260040160405180910390fd5b8151600003610c02576040517f97da5f9500000000000000000000000000000000000000000000000000000000815260040160405180910390fd5b60005b825181101561086f57610c4a838281518110610c2357610c23612486565b6020026020010151838381518110610c3d57610c3d612486565b60200260200101516115c7565b600101610c05565b610c60338484600185610f9b565b600033838360405160200161085293929190612455565b6001600160a01b0381166000908152600560205260409020606090610609906115d1565b6060815167ffffffffffffffff811115610cb757610cb7611c34565b604051908082528060200260200182016040528015610cea57816020015b6060815260200190600190039081610cd55790505b50905060005b8251811015610d4057610d1b838281518110610d0e57610d0e612486565b602002602001015161116b565b828281518110610d2d57610d2d612486565b6020908102919091010152600101610cf0565b50919050565b610d4e61120d565b6001600160a01b038116610d8e576040517f1ad8836c00000000000000000000000000000000000000000000000000000000815260040160405180910390fd5b610d9781610d9a565b50565b6000546001600160a01b03828116911614610d9757600080546040516001600160a01b03808516939216917f8be0079c531659141344cd1fd0a4f28419497f9722a3daafe3b4186f6b6457e091a3600080546001600160a01b0383167fffffffffffffffffffffffff000000000000000000000000000000000000000090911617905550565b6000828152600160205260409020610e38828261259f565b50817fece574603820d07bc9b91f2a932baadf4628aabcb8afba49776529c14a6104b282604051610e6991906120b1565b60405180910390a25050565b60008080610ead7fcee78b4094da86011096000000000000000000000000000000000000000000006001600160e01b031986166115de565b90506000610eba8261116b565b90508051601414158015610ece5750805115155b15610f0757806040517f42bfe79f0000000000000000000000000000000000000000000000000000000081526004016101a791906120b1565b610f108161265f565b60601c95600195509350505050565b60006001600160e01b031982167fa918fa6b00000000000000000000000000000000000000000000000000000000148061060957506106098261164f565b600080610f706301ffc9a760e01b610e75565b5090506001600160a01b038116610f8a5750600092915050565b610f94818461169d565b9392505050565b6001600160a01b038416610fdb576040517f6355e76600000000000000000000000000000000000000000000000000000000815260040160405180910390fd5b846001600160a01b0316846001600160a01b031603611026576040517fdab7504700000000000000000000000000000000000000000000000000000000815260040160405180910390fd5b6001600160a01b03808616600090815260066020908152604080832093881683529290522083905582156110c8576001600160a01b0385166000908152600560205260409020611076908561173b565b5082856001600160a01b0316856001600160a01b03167ff772a43bfdf4729b196e3fb54a818b91a2ca6c49d10b2e16278752f9f515c25d846040516110bb91906120b1565b60405180910390a4610ad0565b6001600160a01b03851660009081526005602052604090206110ea9085611750565b50811515856001600160a01b0316856001600160a01b03167f0ebf5762d8855cbe012d2ca42fb33a81175e17c8a8751f8859931ba453bd41678460405161113191906120b1565b60405180910390a45050505050565b610b61827f386072cc5a58e61263b434c722725f21031cd06e7c552cfaa06db5de8a320dbc83611765565b600081815260016020526040902080546060919061118890612525565b80601f01602080910402602001604051908101604052809291908181526020018280546111b490612525565b80156112015780601f106111d657610100808354040283529160200191611201565b820191906000526020600020905b8154815290600101906020018083116111e457829003601f168201915b50505050509050919050565b336112206000546001600160a01b031690565b6001600160a01b031614610a47576040517fbf1169c50000000000000000000000000000000000000000000000000000000081523360048201526024016101a7565b6001600160a01b03841661128957604051630d2d5ec360e41b815260040160405180910390fd5b611296600085858461086d565b82600360008282546112a89190612442565b90915550506001600160a01b038416600090815260046020526040812080548592906112d5908490612442565b90915550506040516001600160a01b0385169060009033907f3997e418d2cef0b3b0e907b1e39605c3f7d32dbd061e82ea5b4a770d46a160a69061131e9088908890889061269b565b60405180910390a4611333600085858461086d565b600033600086868560405160200161134f9594939291906126bc565b6040516020818303038152906040529050610ad08584836117f9565b6001600160a01b03808316600090815260066020908152604080832093871683529290522054808211156113ec576040517ff3a6b6910000000000000000000000000000000000000000000000000000000081526001600160a01b0380851660048301526024820183905285166044820152606481018390526084016101a7565b61086d83856113fb85856126f6565b600060405180602001604052806000815250610f9b565b6001600160a01b038516158061142f57506001600160a01b038416155b1561144d57604051630d2d5ec360e41b815260040160405180910390fd5b6114598585858461086d565b6001600160a01b038516600090815260046020526040902054808411156114c5576040517f08d47949000000000000000000000000000000000000000000000000000000008152600481018290526001600160a01b0387166024820152604481018590526064016101a7565b6001600160a01b038616600090815260046020526040812080548692906114ed9084906126f6565b90915550506001600160a01b0385166000908152600460205260408120805486929061151a908490612442565b92505081905550846001600160a01b0316866001600160a01b0316336001600160a01b03167f3997e418d2cef0b3b0e907b1e39605c3f7d32dbd061e82ea5b4a770d46a160a68787876040516115729392919061269b565b60405180910390a46115868686868561086d565b600033878787866040516020016115a19594939291906126bc565b60405160208183030381529060405290506115bc87826118ec565b6108048685836117f9565b610b618282611917565b60606000610f9483611a22565b604080517fffffffffffffffffffff00000000000000000000000000000000000000000000841660208201526000602a82018190526bffffffffffffffffffffffff198416602c8301529182910160405160208183030381529060405290508061164790612709565b949350505050565b60006001600160e01b031982167f629aa69400000000000000000000000000000000000000000000000000000000148061060957506301ffc9a760e01b6001600160e01b0319831614610609565b604080516001600160e01b03198316602480830191909152825180830390910181526044909101909152602080820180517bffffffffffffffffffffffffffffffffffffffffffffffffffffffff166301ffc9a760e01b178152825160009392849283928392918391908a617530fa92503d91506000519050828015611724575060208210155b80156117305750600081115b979650505050505050565b6000610f94836001600160a01b038416611a7d565b6000610f94836001600160a01b038416611acc565b61177f6001600160a01b038416631aed5a8560e21b61169d565b1561086f57604051631aed5a8560e21b81526001600160a01b03841690636bb56a14906117b2908590859060040161272d565b6000604051808303816000875af11580156117d1573d6000803e3d6000fd5b505050506040513d6000823e601f3d908101601f1916820160405261086d9190810190612746565b61180a83631aed5a8560e21b61169d565b1561185d57604051631aed5a8560e21b81526001600160a01b03841690636bb56a14906117b2907f20804611b3e2ea21c480dc465142210acf4a2485947541770ec1fb87dee4a55c90859060040161272d565b8161086f576001600160a01b0383163b156118af576040517fa608fbb60000000000000000000000000000000000000000000000000000000081526001600160a01b03841660048201526024016101a7565b6040517f26c247f40000000000000000000000000000000000000000000000000000000081526001600160a01b03841660048201526024016101a7565b610b61827f429ac7a06903dbc9c13dfcb3c9d11df8194581fa047c96d7a4171fc7402958ea83611765565b7f2145e1d6d074577dc71ef54c3807742b41b053a9352ae6b491331509acb9750f8201611970576040517f85c169bd00000000000000000000000000000000000000000000000000000000815260040160405180910390fd5b7fd0f59754f88971fe6bc5a6618cc9d5f1e859c58d16b22d1c7b2d3e2b246cd8aa82016119c9576040517f76755b3800000000000000000000000000000000000000000000000000000000815260040160405180910390fd5b7f1fd9e056a24d14c4abc642fcc325992a946906d0dbc57dd70278aaf12842024d8201610e20576040517f4ef6d7fb00000000000000000000000000000000000000000000000000000000815260040160405180910390fd5b60608160000180548060200260200160405190810160405280929190818152602001828054801561120157602002820191906000526020600020905b815481526020019060010190808311611a5e5750505050509050919050565b6000818152600183016020526040812054611ac457508154600181810184556000848152602080822090930184905584548482528286019093526040902091909155610609565b506000610609565b60008181526001830160205260408120548015611bb5576000611af06001836126f6565b8554909150600090611b04906001906126f6565b9050818114611b69576000866000018281548110611b2457611b24612486565b9060005260206000200154905080876000018481548110611b4757611b47612486565b6000918252602080832090910192909255918252600188019052604090208390555b8554869080611b7a57611b7a6127b4565b600190038181906000526020600020016000905590558560010160008681526020019081526020016000206000905560019350505050610609565b6000915050610609565b60208152816020820152818360408301376000818301604090810191909152601f909201601f19160101919050565b600060208284031215611c0057600080fd5b81356001600160e01b031981168114610f9457600080fd5b80356001600160a01b0381168114611c2f57600080fd5b919050565b634e487b7160e01b600052604160045260246000fd5b604051601f8201601f1916810167ffffffffffffffff81118282101715611c7357611c73611c34565b604052919050565b600067ffffffffffffffff821115611c9557611c95611c34565b50601f01601f191660200190565b600082601f830112611cb457600080fd5b8135611cc7611cc282611c7b565b611c4a565b818152846020838601011115611cdc57600080fd5b816020850160208301376000918101602001919091529392505050565b600080600060608486031215611d0e57600080fd5b611d1784611c18565b925060208401359150604084013567ffffffffffffffff811115611d3a57600080fd5b611d4686828701611ca3565b9150509250925092565b600067ffffffffffffffff821115611d6a57611d6a611c34565b5060051b60200190565b600082601f830112611d8557600080fd5b81356020611d95611cc283611d50565b82815260059290921b84018101918181019086841115611db457600080fd5b8286015b84811015611dd657611dc981611c18565b8352918301918301611db8565b509695505050505050565b600082601f830112611df257600080fd5b81356020611e02611cc283611d50565b82815260059290921b84018101918181019086841115611e2157600080fd5b8286015b84811015611dd65780358352918301918301611e25565b80358015158114611c2f57600080fd5b600082601f830112611e5d57600080fd5b81356020611e6d611cc283611d50565b82815260059290921b84018101918181019086841115611e8c57600080fd5b8286015b84811015611dd657611ea181611e3c565b8352918301918301611e90565b600082601f830112611ebf57600080fd5b81356020611ecf611cc283611d50565b82815260059290921b84018101918181019086841115611eee57600080fd5b8286015b84811015611dd657803567ffffffffffffffff811115611f125760008081fd5b611f208986838b0101611ca3565b845250918301918301611ef2565b600080600080600060a08688031215611f4657600080fd5b853567ffffffffffffffff80821115611f5e57600080fd5b611f6a89838a01611d74565b96506020880135915080821115611f8057600080fd5b611f8c89838a01611d74565b95506040880135915080821115611fa257600080fd5b611fae89838a01611de1565b94506060880135915080821115611fc457600080fd5b611fd089838a01611e4c565b93506080880135915080821115611fe657600080fd5b50611ff388828901611eae565b9150509295509295909350565b60008060006060848603121561201557600080fd5b61201e84611c18565b925061202c60208501611e3c565b9150604084013567ffffffffffffffff811115611d3a57600080fd5b60006020828403121561205a57600080fd5b5035919050565b60005b8381101561207c578181015183820152602001612064565b50506000910152565b6000815180845261209d816020860160208601612061565b601f01601f19169290920160200192915050565b602081526000610f946020830184612085565b600080604083850312156120d757600080fd5b6120e083611c18565b91506120ee60208401611c18565b90509250929050565b6000806020838503121561210a57600080fd5b823567ffffffffffffffff8082111561212257600080fd5b818501915085601f83011261213657600080fd5b81358181111561214557600080fd5b8660208260051b850101111561215a57600080fd5b60209290920196919550909350505050565b6000602080830181845280855180835260408601915060408160051b870101925083870160005b828110156121c157603f198886030184526121af858351612085565b94509285019290850190600101612193565b5092979650505050505050565b6000602082840312156121e057600080fd5b610f9482611c18565b600080600080608085870312156121ff57600080fd5b61220885611c18565b93506020850135925061221d60408601611e3c565b9150606085013567ffffffffffffffff81111561223957600080fd5b61224587828801611ca3565b91505092959194509250565b600080600080600060a0868803121561226957600080fd5b61227286611c18565b945061228060208701611c18565b93506040860135925061229560608701611e3c565b9150608086013567ffffffffffffffff8111156122b157600080fd5b611ff388828901611ca3565b600080604083850312156122d057600080fd5b82359150602083013567ffffffffffffffff8111156122ee57600080fd5b6122fa85828601611ca3565b9150509250929050565b6000806040838503121561231757600080fd5b823567ffffffffffffffff8082111561232f57600080fd5b61233b86838701611de1565b9350602085013591508082111561235157600080fd5b506122fa85828601611eae565b6020808252825182820181905260009190848201906040850190845b8181101561239f5783516001600160a01b03168352928401929184019160010161237a565b50909695505050505050565b6000602082840312156123bd57600080fd5b813567ffffffffffffffff8111156123d457600080fd5b61164784828501611de1565b8385823760609290921b6bffffffffffffffffffffffff1916919092019081526014810191909152603401919050565b60008251612422818460208701612061565b9190910192915050565b634e487b7160e01b600052601160045260246000fd5b808201808211156106095761060961242c565b6001600160a01b038416815282602082015260606040820152600061247d6060830184612085565b95945050505050565b634e487b7160e01b600052603260045260246000fd5b6001600160a01b038416815260ff8316602082015260606040820152600061247d6060830184612085565b6000808335601e198436030181126124de57600080fd5b83018035915067ffffffffffffffff8211156124f957600080fd5b60200191503681900382131561250e57600080fd5b9250929050565b8183823760009101908152919050565b600181811c9082168061253957607f821691505b602082108103610d4057634e487b7160e01b600052602260045260246000fd5b601f82111561086f57600081815260208120601f850160051c810160208610156125805750805b601f850160051c820191505b818110156106fd5782815560010161258c565b815167ffffffffffffffff8111156125b9576125b9611c34565b6125cd816125c78454612525565b84612559565b602080601f83116001811461260257600084156125ea5750858301515b600019600386901b1c1916600185901b1785556106fd565b600085815260208120601f198616915b8281101561263157888601518255948401946001909101908401612612565b508582101561264f5787850151600019600388901b60f8161c191681555b5050505050600190811b01905550565b805160208201516bffffffffffffffffffffffff1980821692919060148310156126935780818460140360031b1b83161693505b505050919050565b838152821515602082015260606040820152600061247d6060830184612085565b60006001600160a01b038088168352808716602084015280861660408401525083606083015260a0608083015261173060a0830184612085565b818103818111156106095761060961242c565b80516020808301519190811015610d405760001960209190910360031b1b16919050565b8281526040602082015260006116476040830184612085565b60006020828403121561275857600080fd5b815167ffffffffffffffff81111561276f57600080fd5b8201601f8101841361278057600080fd5b805161278e611cc282611c7b565b8181528560208385010111156127a357600080fd5b61247d826020830160208601612061565b634e487b7160e01b600052603160045260246000fdfea26469706673582212207aee6e4c287f4e4796cb2ced655e067550f1036fd9c1aa54e3ef597167fca17364736f6c63430008110033",
  "devdoc": {
    "author": "Jean Cavallera, Yamen Merhi",
    "errors": {
      "ERC725Y_DataKeysValuesEmptyArray()": [
        {
          "details": "Reverts when one of the array parameter provided to {setDataBatch} function is an empty array."
        }
      ],
      "ERC725Y_DataKeysValuesLengthMismatch()": [
        {
          "details": "Reverts when there is not the same number of elements in the `datakeys` and `dataValues` array parameters provided when calling the {setDataBatch} function."
        }
      ],
      "ERC725Y_MsgValueDisallowed()": [
        {
          "details": "Reverts when sending value to the {setData} or {setDataBatch} function."
        }
      ],
      "InvalidExtensionAddress(bytes)": [
        {
          "details": "reverts when the bytes retrieved from the LSP17 data key is not a valid address (not 20 bytes)"
        }
      ],
      "InvalidFunctionSelector(bytes)": [
        {
          "details": "reverts when the contract is called with a function selector not valid (less than 4 bytes of data)"
        }
      ],
      "LSP4TokenNameNotEditable()": [
        {
          "details": "Reverts when trying to edit the data key `LSP4TokenName` after the digital asset contract has been deployed / initialized. The `LSP4TokenName` data key is located inside the ERC725Y data key-value store of the digital asset contract. It can be set only once inside the constructor/initializer when the digital asset contract is being deployed / initialized."
        }
      ],
      "LSP4TokenSymbolNotEditable()": [
        {
          "details": "Reverts when trying to edit the data key `LSP4TokenSymbol` after the digital asset contract has been deployed / initialized. The `LSP4TokenSymbol` data key is located inside the ERC725Y data key-value store of the digital asset contract. It can be set only once inside the constructor/initializer when the digital asset contract is being deployed / initialized."
        }
      ],
      "LSP4TokenTypeNotEditable()": [
        {
          "details": "Reverts when trying to edit the data key `LSP4TokenType` after the digital asset contract has been deployed / initialized. The `LSP4TokenType` data key is located inside the ERC725Y data key-value store of the digital asset contract. It can be set only once inside the constructor / initializer when the digital asset contract is being deployed / initialized."
        }
      ],
      "LSP7AmountExceedsAuthorizedAmount(address,uint256,address,uint256)": [
        {
          "details": "reverts when `operator` of `tokenOwner` send an `amount` of tokens larger than the `authorizedAmount`."
        }
      ],
      "LSP7AmountExceedsBalance(uint256,address,uint256)": [
        {
          "details": "reverts when sending an `amount` of tokens larger than the current `balance` of the `tokenOwner`."
        }
      ],
      "LSP7BatchCallFailed(uint256)": [
        {
          "details": "Reverts when a batch call failed."
        }
      ],
      "LSP7CannotSendToSelf()": [
        {
          "details": "reverts when specifying the same address for `from` or `to` in a token transfer."
        }
      ],
      "LSP7CannotSendWithAddressZero()": [
        {
          "details": "reverts when trying to: - mint tokens to the zero address. - burn tokens from the zero address. - transfer tokens from or to the zero address."
        }
      ],
      "LSP7CannotUseAddressZeroAsOperator()": [
        {
          "details": "reverts when trying to set the zero address as an operator."
        }
      ],
      "LSP7DecreasedAllowanceBelowZero()": [
        {
          "details": "Reverts when trying to decrease an operator's allowance to more than its current allowance."
        }
      ],
      "LSP7InvalidTransferBatch()": [
        {
          "details": "reverts when the array parameters used in {transferBatch} have different lengths."
        }
      ],
      "LSP7NotifyTokenReceiverContractMissingLSP1Interface(address)": [
        {
          "details": "reverts if the `tokenReceiver` does not implement LSP1 when minting or transferring tokens with `bool force` set as `false`."
        }
      ],
      "LSP7NotifyTokenReceiverIsEOA(address)": [
        {
          "details": "reverts if the `tokenReceiver` is an EOA when minting or transferring tokens with `bool force` set as `false`."
        }
      ],
      "LSP7TokenContractCannotHoldValue()": [
        {
          "details": "Error occurs when sending native tokens to the LSP7 contract without sending any data. E.g. Sending value without passing a bytes4 function selector to call a LSP17 Extension."
        }
      ],
      "LSP7TokenOwnerCannotBeOperator()": [
        {
          "details": "reverts when trying to authorize or revoke the token's owner as an operator."
        }
      ],
      "NoExtensionFoundForFunctionSelector(bytes4)": [
        {
          "details": "reverts when there is no extension for the function selector being called with"
        }
      ],
      "OperatorAllowanceCannotBeIncreasedFromZero(address)": [
        {
          "details": "Reverts when token owner call {increaseAllowance} for an operator that does not have any allowance"
        }
      ],
      "OwnableCallerNotTheOwner(address)": [
        {
          "details": "Reverts when only the owner is allowed to call the function.",
          "params": {
            "callerAddress": "The address that tried to make the call."
          }
        }
      ],
      "OwnableCannotSetZeroAddressAsOwner()": [
        {
          "details": "Reverts when trying to set `address(0)` as the contract owner when deploying the contract, initializing it or transferring ownership of the contract."
        }
      ]
    },
    "kind": "dev",
    "methods": {
      "authorizeOperator(address,uint256,bytes)": {
        "custom:danger": "To avoid front-running and Allowance Double-Spend Exploit when increasing or decreasing the authorized amount of an operator, it is advised to use the {increaseAllowance} and {decreaseAllowance} functions. For more information, see: https://docs.google.com/document/d/1YLPtQxZu1UAvO9cZ1O2RPXBbT0mooh4DYKjA_jp-RLM/",
        "details": "Sets an `amount` of tokens that an `operator` has access from the caller's balance (allowance). See {authorizedAmountFor}. Notify the operator based on the LSP1-UniversalReceiver standard",
        "params": {
          "amount": "The allowance amount of tokens operator has access to.",
          "operator": "The address to authorize as an operator.",
          "operatorNotificationData": "The data to notify the operator about via LSP1."
        }
      },
      "authorizedAmountFor(address,address)": {
        "details": "Get the amount of tokens `operator` address has access to from `tokenOwner`. Operators can send and burn tokens on behalf of their owners.",
        "params": {
          "operator": "The operator's address to query the authorized amount for.",
          "tokenOwner": "The token owner that `operator` has allowance on."
        },
        "returns": {
          "_0": "The amount of tokens the `operator`'s address has access on the `tokenOwner`'s balance."
        }
      },
      "balanceOf(address)": {
        "details": "Get the number of tokens owned by `tokenOwner`. If the token is divisible (the {decimals} function returns `18`), the amount returned should be divided by 1e18 to get a better picture of the actual balance of the `tokenOwner`. _Example:_ ``` balanceOf(someAddress) -> 42_000_000_000_000_000_000 / 1e18 = 42 tokens ```",
        "params": {
          "tokenOwner": "The address of the token holder to query the balance for."
        },
        "returns": {
          "_0": "The amount of tokens owned by `tokenOwner`."
        }
      },
      "batchCalls(bytes[])": {
        "custom:info": "It's not possible to send value along the functions call due to the use of `delegatecall`.",
        "details": "Allows a caller to batch different function calls in one call. Perform a `delegatecall` on self, to call different functions with preserving the context.",
        "params": {
          "data": "An array of ABI encoded function calls to be called on the contract."
        },
        "returns": {
          "results": "An array of abi-encoded data returned by the functions executed."
        }
      },
      "constructor": {
        "params": {
          "isNonDivisible_": "Specify if the LSP7 token is a fungible or non-fungible token.",
          "lsp4TokenType_": "The type of token this digital asset contract represents (`0` = Token, `1` = NFT, `2` = Collection).",
          "name_": "The name of the token.",
          "newOwner_": "The owner of the token contract.",
          "symbol_": "The symbol of the token."
        }
      },
      "decimals()": {
        "details": "Returns the number of decimals used to get its user representation. If the asset contract has been set to be non-divisible via the `isNonDivisible_` parameter in the `constructor`, the decimals returned wiil be `0`. Otherwise `18` is the common value.",
        "returns": {
          "_0": "the number of decimals. If `0` is returned, the asset is non-divisible."
        }
      },
      "decreaseAllowance(address,uint256,bytes)": {
        "details": "Atomically decreases the allowance granted to `operator` by the caller. This is an alternative approach to {authorizeOperator} that can be used as a mitigation for the double spending allowance problem. Notify the operator based on the LSP1-UniversalReceiver standard",
        "params": {
          "operator": "The operator to decrease allowance for `msg.sender`",
          "subtractedAmount": "The amount to decrease by in the operator's allowance."
        }
      },
      "getData(bytes32)": {
        "details": "Get in the ERC725Y storage the bytes data stored at a specific data key `dataKey`.",
        "params": {
          "dataKey": "The data key for which to retrieve the value."
        },
        "returns": {
          "dataValue": "The bytes value stored under the specified data key."
        }
      },
      "getDataBatch(bytes32[])": {
        "details": "Get in the ERC725Y storage the bytes data stored at multiple data keys `dataKeys`.",
        "params": {
          "dataKeys": "The array of keys which values to retrieve"
        },
        "returns": {
          "dataValues": "The array of data stored at multiple keys"
        }
      },
      "getOperatorsOf(address)": {
        "details": "Returns all `operator` addresses that are allowed to transfer or burn on behalf of `tokenOwner`.",
        "params": {
          "tokenOwner": "The token owner to get the operators for."
        },
        "returns": {
          "_0": "An array of operators allowed to transfer or burn tokens on behalf of `tokenOwner`."
        }
      },
      "increaseAllowance(address,uint256,bytes)": {
        "details": "Atomically increases the allowance granted to `operator` by the caller. This is an alternative approach to {authorizeOperator} that can be used as a mitigation for the double spending allowance problem. Notify the operator based on the LSP1-UniversalReceiver standard",
        "params": {
          "addedAmount": "The additional amount to add on top of the current operator's allowance",
          "operator": "The operator to increase the allowance for `msg.sender`"
        }
      },
      "mint(address,uint256,bool,bytes)": {
        "details": "Public {_mint} function only callable by the {owner}."
      },
      "owner()": {
        "details": "Returns the address of the current owner."
      },
      "renounceOwnership()": {
        "details": "Leaves the contract without owner. It will not be possible to call `onlyOwner` functions anymore. Can only be called by the current owner. NOTE: Renouncing ownership will leave the contract without an owner, thereby removing any functionality that is only available to the owner."
      },
      "revokeOperator(address,bool,bytes)": {
        "details": "Removes the `operator` address as an operator of callers tokens, disallowing it to send any amount of tokens on behalf of the token owner (the caller of the function `msg.sender`). See also {authorizedAmountFor}.",
        "params": {
          "notify": "Boolean indicating whether to notify the operator or not.",
          "operator": "The address to revoke as an operator.",
          "operatorNotificationData": "The data to notify the operator about via LSP1."
        }
      },
      "setData(bytes32,bytes)": {
        "custom:events": "{DataChanged} event.",
        "custom:requirements": "- SHOULD only be callable by the {owner}.",
        "custom:warning": "**Note for developers:** despite the fact that this function is set as `payable`, if the function is not intended to receive value (= native tokens), **an additional check should be implemented to ensure that `msg.value` sent was equal to 0**.",
        "details": "Sets a single bytes value `dataValue` in the ERC725Y storage for a specific data key `dataKey`. The function is marked as payable to enable flexibility on child contracts. For instance to implement a fee mechanism for setting specific data.",
        "params": {
          "dataKey": "The data key for which to set a new value.",
          "dataValue": "The new bytes value to set."
        }
      },
      "setDataBatch(bytes32[],bytes[])": {
        "custom:events": "{DataChanged} event **for each data key/value pair set**.",
        "custom:requirements": "- SHOULD only be callable by the {owner} of the contract.",
        "custom:warning": "**Note for developers:** despite the fact that this function is set as `payable`, if the function is not intended to receive value (= native tokens), **an additional check should be implemented to ensure that `msg.value` sent was equal to 0**.",
        "details": "Batch data setting function that behaves the same as {setData} but allowing to set multiple data key/value pairs in the ERC725Y storage in the same transaction.",
        "params": {
          "dataKeys": "An array of data keys to set bytes values for.",
          "dataValues": "An array of bytes values to set for each `dataKeys`."
        }
      },
      "supportsInterface(bytes4)": {
        "details": "Returns true if this contract implements the interface defined by `interfaceId`. See the corresponding https://eips.ethereum.org/EIPS/eip-165#how-interfaces-are-identified[EIP section] to learn more about how these ids are created. This function call must use less than 30 000 gas."
      },
      "totalSupply()": {
        "details": "Returns the number of existing tokens that have been minted in this contract.",
        "returns": {
          "_0": "The number of existing tokens."
        }
      },
      "transfer(address,address,uint256,bool,bytes)": {
        "details": "Transfers an `amount` of tokens from the `from` address to the `to` address and notify both sender and recipients via the LSP1 {`universalReceiver(...)`} function. If the tokens are transferred by an operator on behalf of a token holder, the allowance for the operator will be decreased by `amount` once the token transfer has been completed (See {authorizedAmountFor}).",
        "params": {
          "amount": "The amount of tokens to transfer.",
          "data": "Any additional data the caller wants included in the emitted event, and sent in the hooks of the `from` and `to` addresses.",
          "force": "When set to `true`, the `to` address CAN be any address. When set to `false`, the `to` address MUST be a contract that supports the LSP1 UniversalReceiver standard.",
          "from": "The sender address.",
          "to": "The recipient address."
        }
      },
      "transferBatch(address[],address[],uint256[],bool[],bytes[])": {
        "details": "Same as {`transfer(...)`} but transfer multiple tokens based on the arrays of `from`, `to`, `amount`.",
        "params": {
          "amount": "An array of amount of tokens to transfer for each `from -> to` transfer.",
          "data": "An array of additional data the caller wants included in the emitted event, and sent in the hooks to `from` and `to` addresses.",
          "force": "For each transfer, when set to `true`, the `to` address CAN be any address. When set to `false`, the `to` address MUST be a contract that supports the LSP1 UniversalReceiver standard.",
          "from": "An array of sending addresses.",
          "to": "An array of receiving addresses."
        }
      },
      "transferOwnership(address)": {
        "details": "Transfers ownership of the contract to a new account (`newOwner`). Can only be called by the current owner."
      }
    },
    "title": "LSP7DigitalAsset deployable preset contract with a public {mint} function callable only by the contract {owner}.",
    "version": 1
  },
  "userdoc": {
    "errors": {
      "LSP7BatchCallFailed(uint256)": [
        {
          "notice": "Batch call failed."
        }
      ],
      "LSP7TokenContractCannotHoldValue()": [
        {
          "notice": "LSP7 contract cannot receive native tokens."
        }
      ]
    },
    "events": {
      "DataChanged(bytes32,bytes)": {
        "notice": "The following data key/value pair has been changed in the ERC725Y storage: Data key: `dataKey`, data value: `dataValue`."
      }
    },
    "kind": "user",
    "methods": {
      "batchCalls(bytes[])": {
        "notice": "Executing the following batch of abi-encoded function calls on the contract: `data`."
      },
      "constructor": {
        "notice": "Deploying a `LSP7Mintable` token contract with: token name = `name_`, token symbol = `symbol_`, and address `newOwner_` as the token contract owner."
      },
      "decreaseAllowance(address,uint256,bytes)": {
        "notice": "Decrease the allowance of `operator` by -`subtractedAmount`"
      },
      "getData(bytes32)": {
        "notice": "Reading the ERC725Y storage for data key `dataKey` returned the following value: `dataValue`."
      },
      "getDataBatch(bytes32[])": {
        "notice": "Reading the ERC725Y storage for data keys `dataKeys` returned the following values: `dataValues`."
      },
      "increaseAllowance(address,uint256,bytes)": {
        "notice": "Increase the allowance of `operator` by +`addedAmount`"
      },
      "setData(bytes32,bytes)": {
        "notice": "Setting the following data key value pair in the ERC725Y storage. Data key: `dataKey`, data value: `dataValue`."
      },
      "setDataBatch(bytes32[],bytes[])": {
        "notice": "Setting the following data key value pairs in the ERC725Y storage. Data keys: `dataKeys`, data values: `dataValues`."
      }
    },
    "version": 1
  },
  "storageLayout": {
    "storage": [
      {
        "astId": 1452,
        "contract": "contracts/LSP7DigitalAsset/presets/LSP7Mintable.sol:LSP7Mintable",
        "label": "_owner",
        "offset": 0,
        "slot": "0",
        "type": "t_address"
      },
      {
        "astId": 1172,
        "contract": "contracts/LSP7DigitalAsset/presets/LSP7Mintable.sol:LSP7Mintable",
        "label": "_store",
        "offset": 0,
        "slot": "1",
        "type": "t_mapping(t_bytes32,t_bytes_storage)"
      },
      {
        "astId": 16721,
        "contract": "contracts/LSP7DigitalAsset/presets/LSP7Mintable.sol:LSP7Mintable",
        "label": "_isNonDivisible",
        "offset": 0,
        "slot": "2",
        "type": "t_bool"
      },
      {
        "astId": 16723,
        "contract": "contracts/LSP7DigitalAsset/presets/LSP7Mintable.sol:LSP7Mintable",
        "label": "_existingTokens",
        "offset": 0,
        "slot": "3",
        "type": "t_uint256"
      },
      {
        "astId": 16727,
        "contract": "contracts/LSP7DigitalAsset/presets/LSP7Mintable.sol:LSP7Mintable",
        "label": "_tokenOwnerBalances",
        "offset": 0,
        "slot": "4",
        "type": "t_mapping(t_address,t_uint256)"
      },
      {
        "astId": 16732,
        "contract": "contracts/LSP7DigitalAsset/presets/LSP7Mintable.sol:LSP7Mintable",
        "label": "_operators",
        "offset": 0,
        "slot": "5",
        "type": "t_mapping(t_address,t_struct(AddressSet)5410_storage)"
      },
      {
        "astId": 16738,
        "contract": "contracts/LSP7DigitalAsset/presets/LSP7Mintable.sol:LSP7Mintable",
        "label": "_operatorAuthorizedAmount",
        "offset": 0,
        "slot": "6",
        "type": "t_mapping(t_address,t_mapping(t_address,t_uint256))"
      }
    ],
    "types": {
      "t_address": {
        "encoding": "inplace",
        "label": "address",
        "numberOfBytes": "20"
      },
      "t_array(t_bytes32)dyn_storage": {
        "base": "t_bytes32",
        "encoding": "dynamic_array",
        "label": "bytes32[]",
        "numberOfBytes": "32"
      },
      "t_bool": {
        "encoding": "inplace",
        "label": "bool",
        "numberOfBytes": "1"
      },
      "t_bytes32": {
        "encoding": "inplace",
        "label": "bytes32",
        "numberOfBytes": "32"
      },
      "t_bytes_storage": {
        "encoding": "bytes",
        "label": "bytes",
        "numberOfBytes": "32"
      },
      "t_mapping(t_address,t_mapping(t_address,t_uint256))": {
        "encoding": "mapping",
        "key": "t_address",
        "label": "mapping(address => mapping(address => uint256))",
        "numberOfBytes": "32",
        "value": "t_mapping(t_address,t_uint256)"
      },
      "t_mapping(t_address,t_struct(AddressSet)5410_storage)": {
        "encoding": "mapping",
        "key": "t_address",
        "label": "mapping(address => struct EnumerableSet.AddressSet)",
        "numberOfBytes": "32",
        "value": "t_struct(AddressSet)5410_storage"
      },
      "t_mapping(t_address,t_uint256)": {
        "encoding": "mapping",
        "key": "t_address",
        "label": "mapping(address => uint256)",
        "numberOfBytes": "32",
        "value": "t_uint256"
      },
      "t_mapping(t_bytes32,t_bytes_storage)": {
        "encoding": "mapping",
        "key": "t_bytes32",
        "label": "mapping(bytes32 => bytes)",
        "numberOfBytes": "32",
        "value": "t_bytes_storage"
      },
      "t_mapping(t_bytes32,t_uint256)": {
        "encoding": "mapping",
        "key": "t_bytes32",
        "label": "mapping(bytes32 => uint256)",
        "numberOfBytes": "32",
        "value": "t_uint256"
      },
      "t_struct(AddressSet)5410_storage": {
        "encoding": "inplace",
        "label": "struct EnumerableSet.AddressSet",
        "members": [
          {
            "astId": 5409,
            "contract": "contracts/LSP7DigitalAsset/presets/LSP7Mintable.sol:LSP7Mintable",
            "label": "_inner",
            "offset": 0,
            "slot": "0",
            "type": "t_struct(Set)5095_storage"
          }
        ],
        "numberOfBytes": "64"
      },
      "t_struct(Set)5095_storage": {
        "encoding": "inplace",
        "label": "struct EnumerableSet.Set",
        "members": [
          {
            "astId": 5090,
            "contract": "contracts/LSP7DigitalAsset/presets/LSP7Mintable.sol:LSP7Mintable",
            "label": "_values",
            "offset": 0,
            "slot": "0",
            "type": "t_array(t_bytes32)dyn_storage"
          },
          {
            "astId": 5094,
            "contract": "contracts/LSP7DigitalAsset/presets/LSP7Mintable.sol:LSP7Mintable",
            "label": "_indexes",
            "offset": 0,
            "slot": "1",
            "type": "t_mapping(t_bytes32,t_uint256)"
          }
        ],
        "numberOfBytes": "64"
      },
      "t_uint256": {
        "encoding": "inplace",
        "label": "uint256",
        "numberOfBytes": "32"
      }
    }
  }
}