{
  "address": "0x51A1cC0B2fa430A607d60307Bc0aaC3ec8F7e67B",
  "abi": [
    {
      "inputs": [],
      "stateMutability": "nonpayable",
      "type": "constructor"
    },
    {
      "inputs": [],
      "name": "ERC725Y_DataKeysValuesEmptyArray",
      "type": "error"
    },
    {
      "inputs": [],
      "name": "ERC725Y_DataKeysValuesLengthMismatch",
      "type": "error"
    },
    {
      "inputs": [],
      "name": "ERC725Y_MsgValueDisallowed",
      "type": "error"
    },
    {
      "inputs": [
        {
          "internalType": "bytes",
          "name": "storedData",
          "type": "bytes"
        }
      ],
      "name": "InvalidExtensionAddress",
      "type": "error"
    },
    {
      "inputs": [
        {
          "internalType": "bytes",
          "name": "data",
          "type": "bytes"
        }
      ],
      "name": "InvalidFunctionSelector",
      "type": "error"
    },
    {
      "inputs": [],
      "name": "LSP4TokenNameNotEditable",
      "type": "error"
    },
    {
      "inputs": [],
      "name": "LSP4TokenSymbolNotEditable",
      "type": "error"
    },
    {
      "inputs": [],
      "name": "LSP4TokenTypeNotEditable",
      "type": "error"
    },
    {
      "inputs": [
        {
          "internalType": "address",
          "name": "tokenOwner",
          "type": "address"
        },
        {
          "internalType": "uint256",
          "name": "authorizedAmount",
          "type": "uint256"
        },
        {
          "internalType": "address",
          "name": "operator",
          "type": "address"
        },
        {
          "internalType": "uint256",
          "name": "amount",
          "type": "uint256"
        }
      ],
      "name": "LSP7AmountExceedsAuthorizedAmount",
      "type": "error"
    },
    {
      "inputs": [
        {
          "internalType": "uint256",
          "name": "balance",
          "type": "uint256"
        },
        {
          "internalType": "address",
          "name": "tokenOwner",
          "type": "address"
        },
        {
          "internalType": "uint256",
          "name": "amount",
          "type": "uint256"
        }
      ],
      "name": "LSP7AmountExceedsBalance",
      "type": "error"
    },
    {
      "inputs": [
        {
          "internalType": "uint256",
          "name": "callIndex",
          "type": "uint256"
        }
      ],
      "name": "LSP7BatchCallFailed",
      "type": "error"
    },
    {
      "inputs": [],
      "name": "LSP7CannotSendToSelf",
      "type": "error"
    },
    {
      "inputs": [],
      "name": "LSP7CannotSendWithAddressZero",
      "type": "error"
    },
    {
      "inputs": [],
      "name": "LSP7CannotUseAddressZeroAsOperator",
      "type": "error"
    },
    {
      "inputs": [],
      "name": "LSP7DecreasedAllowanceBelowZero",
      "type": "error"
    },
    {
      "inputs": [],
      "name": "LSP7InvalidTransferBatch",
      "type": "error"
    },
    {
      "inputs": [
        {
          "internalType": "address",
          "name": "tokenReceiver",
          "type": "address"
        }
      ],
      "name": "LSP7NotifyTokenReceiverContractMissingLSP1Interface",
      "type": "error"
    },
    {
      "inputs": [
        {
          "internalType": "address",
          "name": "tokenReceiver",
          "type": "address"
        }
      ],
      "name": "LSP7NotifyTokenReceiverIsEOA",
      "type": "error"
    },
    {
      "inputs": [],
      "name": "LSP7TokenContractCannotHoldValue",
      "type": "error"
    },
    {
      "inputs": [],
      "name": "LSP7TokenOwnerCannotBeOperator",
      "type": "error"
    },
    {
      "inputs": [
        {
          "internalType": "bytes4",
          "name": "functionSelector",
          "type": "bytes4"
        }
      ],
      "name": "NoExtensionFoundForFunctionSelector",
      "type": "error"
    },
    {
      "inputs": [
        {
          "internalType": "address",
          "name": "operator",
          "type": "address"
        }
      ],
      "name": "OperatorAllowanceCannotBeIncreasedFromZero",
      "type": "error"
    },
    {
      "inputs": [
        {
          "internalType": "address",
          "name": "callerAddress",
          "type": "address"
        }
      ],
      "name": "OwnableCallerNotTheOwner",
      "type": "error"
    },
    {
      "inputs": [],
      "name": "OwnableCannotSetZeroAddressAsOwner",
      "type": "error"
    },
    {
      "anonymous": false,
      "inputs": [
        {
          "indexed": true,
          "internalType": "bytes32",
          "name": "dataKey",
          "type": "bytes32"
        },
        {
          "indexed": false,
          "internalType": "bytes",
          "name": "dataValue",
          "type": "bytes"
        }
      ],
      "name": "DataChanged",
      "type": "event"
    },
    {
      "anonymous": false,
      "inputs": [
        {
          "indexed": false,
          "internalType": "uint8",
          "name": "version",
          "type": "uint8"
        }
      ],
      "name": "Initialized",
      "type": "event"
    },
    {
      "anonymous": false,
      "inputs": [
        {
          "indexed": true,
          "internalType": "address",
          "name": "operator",
          "type": "address"
        },
        {
          "indexed": true,
          "internalType": "address",
          "name": "tokenOwner",
          "type": "address"
        },
        {
          "indexed": true,
          "internalType": "uint256",
          "name": "amount",
          "type": "uint256"
        },
        {
          "indexed": false,
          "internalType": "bytes",
          "name": "operatorNotificationData",
          "type": "bytes"
        }
      ],
      "name": "OperatorAuthorizationChanged",
      "type": "event"
    },
    {
      "anonymous": false,
      "inputs": [
        {
          "indexed": true,
          "internalType": "address",
          "name": "operator",
          "type": "address"
        },
        {
          "indexed": true,
          "internalType": "address",
          "name": "tokenOwner",
          "type": "address"
        },
        {
          "indexed": true,
          "internalType": "bool",
          "name": "notified",
          "type": "bool"
        },
        {
          "indexed": false,
          "internalType": "bytes",
          "name": "operatorNotificationData",
          "type": "bytes"
        }
      ],
      "name": "OperatorRevoked",
      "type": "event"
    },
    {
      "anonymous": false,
      "inputs": [
        {
          "indexed": true,
          "internalType": "address",
          "name": "previousOwner",
          "type": "address"
        },
        {
          "indexed": true,
          "internalType": "address",
          "name": "newOwner",
          "type": "address"
        }
      ],
      "name": "OwnershipTransferred",
      "type": "event"
    },
    {
      "anonymous": false,
      "inputs": [
        {
          "indexed": true,
          "internalType": "address",
          "name": "operator",
          "type": "address"
        },
        {
          "indexed": true,
          "internalType": "address",
          "name": "from",
          "type": "address"
        },
        {
          "indexed": true,
          "internalType": "address",
          "name": "to",
          "type": "address"
        },
        {
          "indexed": false,
          "internalType": "uint256",
          "name": "amount",
          "type": "uint256"
        },
        {
          "indexed": false,
          "internalType": "bool",
          "name": "force",
          "type": "bool"
        },
        {
          "indexed": false,
          "internalType": "bytes",
          "name": "data",
          "type": "bytes"
        }
      ],
      "name": "Transfer",
      "type": "event"
    },
    {
      "stateMutability": "payable",
      "type": "fallback"
    },
    {
      "inputs": [
        {
          "internalType": "address",
          "name": "operator",
          "type": "address"
        },
        {
          "internalType": "uint256",
          "name": "amount",
          "type": "uint256"
        },
        {
          "internalType": "bytes",
          "name": "operatorNotificationData",
          "type": "bytes"
        }
      ],
      "name": "authorizeOperator",
      "outputs": [],
      "stateMutability": "nonpayable",
      "type": "function"
    },
    {
      "inputs": [
        {
          "internalType": "address",
          "name": "operator",
          "type": "address"
        },
        {
          "internalType": "address",
          "name": "tokenOwner",
          "type": "address"
        }
      ],
      "name": "authorizedAmountFor",
      "outputs": [
        {
          "internalType": "uint256",
          "name": "",
          "type": "uint256"
        }
      ],
      "stateMutability": "view",
      "type": "function"
    },
    {
      "inputs": [
        {
          "internalType": "address",
          "name": "tokenOwner",
          "type": "address"
        }
      ],
      "name": "balanceOf",
      "outputs": [
        {
          "internalType": "uint256",
          "name": "",
          "type": "uint256"
        }
      ],
      "stateMutability": "view",
      "type": "function"
    },
    {
      "inputs": [
        {
          "internalType": "bytes[]",
          "name": "data",
          "type": "bytes[]"
        }
      ],
      "name": "batchCalls",
      "outputs": [
        {
          "internalType": "bytes[]",
          "name": "results",
          "type": "bytes[]"
        }
      ],
      "stateMutability": "nonpayable",
      "type": "function"
    },
    {
      "inputs": [],
      "name": "decimals",
      "outputs": [
        {
          "internalType": "uint8",
          "name": "",
          "type": "uint8"
        }
      ],
      "stateMutability": "view",
      "type": "function"
    },
    {
      "inputs": [
        {
          "internalType": "address",
          "name": "operator",
          "type": "address"
        },
        {
          "internalType": "uint256",
          "name": "subtractedAmount",
          "type": "uint256"
        },
        {
          "internalType": "bytes",
          "name": "operatorNotificationData",
          "type": "bytes"
        }
      ],
      "name": "decreaseAllowance",
      "outputs": [],
      "stateMutability": "nonpayable",
      "type": "function"
    },
    {
      "inputs": [
        {
          "internalType": "bytes32",
          "name": "dataKey",
          "type": "bytes32"
        }
      ],
      "name": "getData",
      "outputs": [
        {
          "internalType": "bytes",
          "name": "dataValue",
          "type": "bytes"
        }
      ],
      "stateMutability": "view",
      "type": "function"
    },
    {
      "inputs": [
        {
          "internalType": "bytes32[]",
          "name": "dataKeys",
          "type": "bytes32[]"
        }
      ],
      "name": "getDataBatch",
      "outputs": [
        {
          "internalType": "bytes[]",
          "name": "dataValues",
          "type": "bytes[]"
        }
      ],
      "stateMutability": "view",
      "type": "function"
    },
    {
      "inputs": [
        {
          "internalType": "address",
          "name": "tokenOwner",
          "type": "address"
        }
      ],
      "name": "getOperatorsOf",
      "outputs": [
        {
          "internalType": "address[]",
          "name": "",
          "type": "address[]"
        }
      ],
      "stateMutability": "view",
      "type": "function"
    },
    {
      "inputs": [
        {
          "internalType": "address",
          "name": "operator",
          "type": "address"
        },
        {
          "internalType": "uint256",
          "name": "addedAmount",
          "type": "uint256"
        },
        {
          "internalType": "bytes",
          "name": "operatorNotificationData",
          "type": "bytes"
        }
      ],
      "name": "increaseAllowance",
      "outputs": [],
      "stateMutability": "nonpayable",
      "type": "function"
    },
    {
      "inputs": [
        {
          "internalType": "string",
          "name": "name_",
          "type": "string"
        },
        {
          "internalType": "string",
          "name": "symbol_",
          "type": "string"
        },
        {
          "internalType": "address",
          "name": "newOwner_",
          "type": "address"
        },
        {
          "internalType": "uint256",
          "name": "lsp4TokenType_",
          "type": "uint256"
        },
        {
          "internalType": "bool",
          "name": "isNonDivisible_",
          "type": "bool"
        }
      ],
      "name": "initialize",
      "outputs": [],
      "stateMutability": "nonpayable",
      "type": "function"
    },
    {
      "inputs": [
        {
          "internalType": "address",
          "name": "to",
          "type": "address"
        },
        {
          "internalType": "uint256",
          "name": "amount",
          "type": "uint256"
        },
        {
          "internalType": "bool",
          "name": "force",
          "type": "bool"
        },
        {
          "internalType": "bytes",
          "name": "data",
          "type": "bytes"
        }
      ],
      "name": "mint",
      "outputs": [],
      "stateMutability": "nonpayable",
      "type": "function"
    },
    {
      "inputs": [],
      "name": "owner",
      "outputs": [
        {
          "internalType": "address",
          "name": "",
          "type": "address"
        }
      ],
      "stateMutability": "view",
      "type": "function"
    },
    {
      "inputs": [],
      "name": "renounceOwnership",
      "outputs": [],
      "stateMutability": "nonpayable",
      "type": "function"
    },
    {
      "inputs": [
        {
          "internalType": "address",
          "name": "operator",
          "type": "address"
        },
        {
          "internalType": "bool",
          "name": "notify",
          "type": "bool"
        },
        {
          "internalType": "bytes",
          "name": "operatorNotificationData",
          "type": "bytes"
        }
      ],
      "name": "revokeOperator",
      "outputs": [],
      "stateMutability": "nonpayable",
      "type": "function"
    },
    {
      "inputs": [
        {
          "internalType": "bytes32",
          "name": "dataKey",
          "type": "bytes32"
        },
        {
          "internalType": "bytes",
          "name": "dataValue",
          "type": "bytes"
        }
      ],
      "name": "setData",
      "outputs": [],
      "stateMutability": "payable",
      "type": "function"
    },
    {
      "inputs": [
        {
          "internalType": "bytes32[]",
          "name": "dataKeys",
          "type": "bytes32[]"
        },
        {
          "internalType": "bytes[]",
          "name": "dataValues",
          "type": "bytes[]"
        }
      ],
      "name": "setDataBatch",
      "outputs": [],
      "stateMutability": "payable",
      "type": "function"
    },
    {
      "inputs": [
        {
          "internalType": "bytes4",
          "name": "interfaceId",
          "type": "bytes4"
        }
      ],
      "name": "supportsInterface",
      "outputs": [
        {
          "internalType": "bool",
          "name": "",
          "type": "bool"
        }
      ],
      "stateMutability": "view",
      "type": "function"
    },
    {
      "inputs": [],
      "name": "totalSupply",
      "outputs": [
        {
          "internalType": "uint256",
          "name": "",
          "type": "uint256"
        }
      ],
      "stateMutability": "view",
      "type": "function"
    },
    {
      "inputs": [
        {
          "internalType": "address",
          "name": "from",
          "type": "address"
        },
        {
          "internalType": "address",
          "name": "to",
          "type": "address"
        },
        {
          "internalType": "uint256",
          "name": "amount",
          "type": "uint256"
        },
        {
          "internalType": "bool",
          "name": "force",
          "type": "bool"
        },
        {
          "internalType": "bytes",
          "name": "data",
          "type": "bytes"
        }
      ],
      "name": "transfer",
      "outputs": [],
      "stateMutability": "nonpayable",
      "type": "function"
    },
    {
      "inputs": [
        {
          "internalType": "address[]",
          "name": "from",
          "type": "address[]"
        },
        {
          "internalType": "address[]",
          "name": "to",
          "type": "address[]"
        },
        {
          "internalType": "uint256[]",
          "name": "amount",
          "type": "uint256[]"
        },
        {
          "internalType": "bool[]",
          "name": "force",
          "type": "bool[]"
        },
        {
          "internalType": "bytes[]",
          "name": "data",
          "type": "bytes[]"
        }
      ],
      "name": "transferBatch",
      "outputs": [],
      "stateMutability": "nonpayable",
      "type": "function"
    },
    {
      "inputs": [
        {
          "internalType": "address",
          "name": "newOwner",
          "type": "address"
        }
      ],
      "name": "transferOwnership",
      "outputs": [],
      "stateMutability": "nonpayable",
      "type": "function"
    },
    {
      "stateMutability": "payable",
      "type": "receive"
    }
  ],
  "args": [],
  "numDeployments": 1,
  "solcInputHash": "9b2ce31657456bfe71ca9ff8dcb23609",
  "bytecode": "0x60806040523480156200001157600080fd5b506200001c62000022565b620000e3565b600054610100900460ff16156200008f5760405162461bcd60e51b815260206004820152602760248201527f496e697469616c697a61626c653a20636f6e747261637420697320696e697469604482015266616c697a696e6760c81b606482015260840160405180910390fd5b60005460ff90811614620000e1576000805460ff191660ff9081179091556040519081527f7f26b83ff96e1f2b6a682f133852f6798a09c465da95921460cefb38474024989060200160405180910390a15b565b612cd580620000f36000396000f3fe6080604052600436106101795760003560e01c8063715018a6116100cb5780638da5cb5b1161007f578063d72fc29a11610059578063d72fc29a146104cd578063dedff9c6146104fa578063f2fde38b1461051a576101ed565b80638da5cb5b14610463578063979024211461049a578063b49506fd146104ad576101ed565b8063760d9bba116100b0578063760d9bba146104105780637b204c4e146104305780637f23690c14610450576101ed565b8063715018a6146103db5780637580d920146103f0576101ed565b8063313ce5671161012d57806365aeaa951161010757806365aeaa95146103585780636963d4381461037857806370a08231146103a5576101ed565b8063313ce567146102e45780634521748e1461030b57806354f6127f1461032b576101ed565b806318160ddd1161015e57806318160ddd146102855780632bc1da82146102a45780632d7667c9146102c4576101ed565b806301ffc9a71461022e57806304689a8114610263576101ed565b366101ed57346000036101bb5760405163e5099ee360e01b81526004016101b29060208082526004908201526000604082015260600190565b60405180910390fd5b6040517f388f5adc00000000000000000000000000000000000000000000000000000000815260040160405180910390fd5b6000366060600482101561021857828260405163e5099ee360e01b81526004016101b2929190612005565b610222838361053a565b80519350602001915050f35b34801561023a57600080fd5b5061024e610249366004612034565b610649565b60405190151581526020015b60405180910390f35b34801561026f57600080fd5b5061028361027e36600461214f565b610696565b005b34801561029157600080fd5b506003545b60405190815260200161025a565b3480156102b057600080fd5b506102836102bf3660046121de565b6107c0565b3480156102d057600080fd5b506102836102df366004612403565b610861565b3480156102f057600080fd5b506102f9610969565b60405160ff909116815260200161025a565b34801561031757600080fd5b506102836103263660046124d5565b610982565b34801561033757600080fd5b5061034b61034636600461251d565b6109d0565b60405161025a9190612586565b34801561036457600080fd5b50610296610373366004612599565b6109db565b34801561038457600080fd5b506103986103933660046125cc565b610a41565b60405161025a9190612641565b3480156103b157600080fd5b506102966103c03660046126a3565b6001600160a01b031660009081526004602052604090205490565b3480156103e757600080fd5b50610283610b91565b3480156103fc57600080fd5b5061028361040b3660046126be565b610ba5565b34801561041c57600080fd5b5061028361042b366004612726565b610bb9565b34801561043c57600080fd5b5061028361044b3660046121de565b610c33565b61028361045e366004612792565b610c8c565b34801561046f57600080fd5b506000546201000090046001600160a01b03166040516001600160a01b03909116815260200161025a565b6102836104a83660046127d9565b610cc1565b3480156104b957600080fd5b506102836104c83660046121de565b610dae565b3480156104d957600080fd5b506104ed6104e83660046126a3565b610dd3565b60405161025a9190612833565b34801561050657600080fd5b50610398610515366004612880565b610df7565b34801561052657600080fd5b506102836105353660046126a3565b610ea2565b606060006105536000356001600160e01b031916610ef6565b5090506001600160a01b0381166105a4576040517fbb370b2b0000000000000000000000000000000000000000000000000000000081526001600160e01b03196000351660048201526024016101b2565b600080826001600160a01b031634878733346040516020016105c994939291906128b5565b60408051601f19818403018152908290526105e3916128e5565b60006040518083038185875af1925050503d8060008114610620576040519150601f19603f3d011682016040523d82523d6000602084013e610625565b606091505b5091509150811561063a579250610643915050565b80518060208301fd5b92915050565b60006001600160e01b031982167fb3c4928f000000000000000000000000000000000000000000000000000000001480610687575061068782610fa0565b80610643575061064382610fde565b600054610100900460ff16158080156106b65750600054600160ff909116105b806106d05750303b1580156106d0575060005460ff166001145b6107425760405162461bcd60e51b815260206004820152602e60248201527f496e697469616c697a61626c653a20636f6e747261637420697320616c72656160448201527f647920696e697469616c697a656400000000000000000000000000000000000060648201526084016101b2565b6000805460ff191660011790558015610765576000805461ff0019166101001790555b610772868686868661101c565b80156107b8576000805461ff0019169055604051600181527f7f26b83ff96e1f2b6a682f133852f6798a09c465da95921460cefb38474024989060200160405180910390a15b505050505050565b60006107cc84336109db565b905080600003610813576040517fcba6e9770000000000000000000000000000000000000000000000000000000081526001600160a01b03851660048201526024016101b2565b600061081f8483612917565b905061082f338683600187611094565b60003382856040516020016108469392919061292a565b60405160208183030381529060405290506107b88682611239565b8451845181141580610874575083518114155b80610880575082518114155b8061088c575081518114155b156108c3576040517f263eee8d00000000000000000000000000000000000000000000000000000000815260040160405180910390fd5b60005b81811015610960576109588782815181106108e3576108e361295b565b60200260200101518783815181106108fd576108fd61295b565b60200260200101518784815181106109175761091761295b565b60200260200101518785815181106109315761093161295b565b602002602001015187868151811061094b5761094b61295b565b6020026020010151610bb9565b6001016108c6565b50505050505050565b60025460009060ff1661097c5750601290565b50600090565b610990338460008585611094565b81156109cb576000336000836040516020016109ae93929190612971565b60405160208183030381529060405290506109c98482611239565b505b505050565b606061064382611264565b6000826001600160a01b0316826001600160a01b031603610a1557506001600160a01b038116600090815260046020526040902054610643565b506001600160a01b03808216600090815260066020908152604080832093861683529290522054610643565b60608167ffffffffffffffff811115610a5c57610a5c61205e565b604051908082528060200260200182016040528015610a8f57816020015b6060815260200190600190039081610a7a5790505b50905060005b82811015610b8a5760008030868685818110610ab357610ab361295b565b9050602002810190610ac5919061299c565b604051610ad39291906129ea565b600060405180830381855af49150503d8060008114610b0e576040519150601f19603f3d011682016040523d82523d6000602084013e610b13565b606091505b509150915081610b6257805115610b2d5780518082602001fd5b6040517fb774c284000000000000000000000000000000000000000000000000000000008152600481018490526024016101b2565b80848481518110610b7557610b7561295b565b60209081029190910101525050600101610a95565b5092915050565b610b99611306565b610ba36000611353565b565b610bad611306565b6109c9848484846113ea565b836001600160a01b0316856001600160a01b031603610c04576040517fb9afb00000000000000000000000000000000000000000000000000000000000815260040160405180910390fd5b336001600160a01b03861614610c1f57610c1f3386856114f3565b610c2c858585858561159a565b5050505050565b6000610c3f84336109db565b905082811015610c7b576040517f0ef76c3500000000000000000000000000000000000000000000000000000000815260040160405180910390fd5b82810361082f338683600187611094565b610c94611306565b3415610cb35760405163f36ba73760e01b815260040160405180910390fd5b610cbd828261174f565b5050565b610cc9611306565b3415610ce85760405163f36ba73760e01b815260040160405180910390fd5b8051825114610d23576040517f3bcc897900000000000000000000000000000000000000000000000000000000815260040160405180910390fd5b8151600003610d5e576040517f97da5f9500000000000000000000000000000000000000000000000000000000815260040160405180910390fd5b60005b82518110156109cb57610da6838281518110610d7f57610d7f61295b565b6020026020010151838381518110610d9957610d9961295b565b602002602001015161174f565b600101610d61565b610dbc338484600185611094565b60003383836040516020016109ae9392919061292a565b6001600160a01b038116600090815260056020526040902060609061064390611759565b6060815167ffffffffffffffff811115610e1357610e1361205e565b604051908082528060200260200182016040528015610e4657816020015b6060815260200190600190039081610e315790505b50905060005b8251811015610e9c57610e77838281518110610e6a57610e6a61295b565b6020026020010151611264565b828281518110610e8957610e8961295b565b6020908102919091010152600101610e4c565b50919050565b610eaa611306565b6001600160a01b038116610eea576040517f1ad8836c00000000000000000000000000000000000000000000000000000000815260040160405180910390fd5b610ef381611353565b50565b60008080610f2e7fcee78b4094da86011096000000000000000000000000000000000000000000006001600160e01b03198616611766565b90506000610f3b82611264565b90508051601414158015610f4f5750805115155b15610f8857806040517f42bfe79f0000000000000000000000000000000000000000000000000000000081526004016101b29190612586565b610f91816129fa565b60601c95600195509350505050565b60006001600160e01b031982167fa918fa6b0000000000000000000000000000000000000000000000000000000014806106435750610643826117d7565b600080610ff16301ffc9a760e01b610ef6565b5090506001600160a01b03811661100b5750600092915050565b6110158184611825565b9392505050565b600054610100900460ff166110875760405162461bcd60e51b815260206004820152602b60248201527f496e697469616c697a61626c653a20636f6e7472616374206973206e6f74206960448201526a6e697469616c697a696e6760a81b60648201526084016101b2565b610c2c85858585856118c3565b6001600160a01b0384166110d4576040517f6355e76600000000000000000000000000000000000000000000000000000000815260040160405180910390fd5b846001600160a01b0316846001600160a01b03160361111f576040517fdab7504700000000000000000000000000000000000000000000000000000000815260040160405180910390fd5b6001600160a01b03808616600090815260066020908152604080832093881683529290522083905582156111c1576001600160a01b038516600090815260056020526040902061116f9085611951565b5082856001600160a01b0316856001600160a01b03167ff772a43bfdf4729b196e3fb54a818b91a2ca6c49d10b2e16278752f9f515c25d846040516111b49190612586565b60405180910390a4610c2c565b6001600160a01b03851660009081526005602052604090206111e39085611966565b50811515856001600160a01b0316856001600160a01b03167f0ebf5762d8855cbe012d2ca42fb33a81175e17c8a8751f8859931ba453bd41678460405161122a9190612586565b60405180910390a45050505050565b610cbd827f386072cc5a58e61263b434c722725f21031cd06e7c552cfaa06db5de8a320dbc8361197b565b600081815260016020526040902080546060919061128190612a36565b80601f01602080910402602001604051908101604052809291908181526020018280546112ad90612a36565b80156112fa5780601f106112cf576101008083540402835291602001916112fa565b820191906000526020600020905b8154815290600101906020018083116112dd57829003601f168201915b50505050509050919050565b6000546001600160a01b0362010000909104163314610ba3576040517fbf1169c50000000000000000000000000000000000000000000000000000000081523360048201526024016101b2565b6000546001600160a01b03828116620100009092041614610ef357600080546040516001600160a01b03808516936201000090930416917f8be0079c531659141344cd1fd0a4f28419497f9722a3daafe3b4186f6b6457e091a3600080546001600160a01b03831662010000027fffffffffffffffffffff0000000000000000000000000000000000000000ffff90911617905550565b6001600160a01b03841661141157604051630d2d5ec360e41b815260040160405180910390fd5b61141e60008585846109c9565b82600360008282546114309190612917565b90915550506001600160a01b0384166000908152600460205260408120805485929061145d908490612917565b90915550506040516001600160a01b0385169060009033907f3997e418d2cef0b3b0e907b1e39605c3f7d32dbd061e82ea5b4a770d46a160a6906114a690889088908890612a6a565b60405180910390a46114bb60008585846109c9565b60003360008686856040516020016114d7959493929190612a8b565b6040516020818303038152906040529050610c2c858483611a0f565b6001600160a01b0380831660009081526006602090815260408083209387168352929052205480821115611574576040517ff3a6b6910000000000000000000000000000000000000000000000000000000081526001600160a01b0380851660048301526024820183905285166044820152606481018390526084016101b2565b6109c983856115838585612ac5565b600060405180602001604052806000815250611094565b6001600160a01b03851615806115b757506001600160a01b038416155b156115d557604051630d2d5ec360e41b815260040160405180910390fd5b6115e1858585846109c9565b6001600160a01b0385166000908152600460205260409020548084111561164d576040517f08d47949000000000000000000000000000000000000000000000000000000008152600481018290526001600160a01b0387166024820152604481018590526064016101b2565b6001600160a01b03861660009081526004602052604081208054869290611675908490612ac5565b90915550506001600160a01b038516600090815260046020526040812080548692906116a2908490612917565b92505081905550846001600160a01b0316866001600160a01b0316336001600160a01b03167f3997e418d2cef0b3b0e907b1e39605c3f7d32dbd061e82ea5b4a770d46a160a68787876040516116fa93929190612a6a565b60405180910390a461170e868686856109c9565b60003387878786604051602001611729959493929190612a8b565b60405160208183030381529060405290506117448782611b02565b610960868583611a0f565b610cbd8282611b2d565b6060600061101583611c8d565b604080517fffffffffffffffffffff00000000000000000000000000000000000000000000841660208201526000602a82018190526bffffffffffffffffffffffff198416602c830152918291016040516020818303038152906040529050806117cf90612ad8565b949350505050565b60006001600160e01b031982167f629aa69400000000000000000000000000000000000000000000000000000000148061064357506301ffc9a760e01b6001600160e01b0319831614610643565b604080516001600160e01b03198316602480830191909152825180830390910181526044909101909152602080820180517bffffffffffffffffffffffffffffffffffffffffffffffffffffffff166301ffc9a760e01b178152825160009392849283928392918391908a617530fa92503d915060005190508280156118ac575060208210155b80156118b85750600081115b979650505050505050565b600054610100900460ff1661192e5760405162461bcd60e51b815260206004820152602b60248201527f496e697469616c697a61626c653a20636f6e7472616374206973206e6f74206960448201526a6e697469616c697a696e6760a81b60648201526084016101b2565b61193a85858585611ce8565b6002805460ff191691151591909117905550505050565b6000611015836001600160a01b038416611e58565b6000611015836001600160a01b038416611ea7565b6119956001600160a01b038416631aed5a8560e21b611825565b156109cb57604051631aed5a8560e21b81526001600160a01b03841690636bb56a14906119c89085908590600401612afc565b6000604051808303816000875af11580156119e7573d6000803e3d6000fd5b505050506040513d6000823e601f3d908101601f191682016040526109c99190810190612b15565b611a2083631aed5a8560e21b611825565b15611a7357604051631aed5a8560e21b81526001600160a01b03841690636bb56a14906119c8907f20804611b3e2ea21c480dc465142210acf4a2485947541770ec1fb87dee4a55c908590600401612afc565b816109cb576001600160a01b0383163b15611ac5576040517fa608fbb60000000000000000000000000000000000000000000000000000000081526001600160a01b03841660048201526024016101b2565b6040517f26c247f40000000000000000000000000000000000000000000000000000000081526001600160a01b03841660048201526024016101b2565b610cbd827f429ac7a06903dbc9c13dfcb3c9d11df8194581fa047c96d7a4171fc7402958ea8361197b565b7f2145e1d6d074577dc71ef54c3807742b41b053a9352ae6b491331509acb9750f8201611b86576040517f85c169bd00000000000000000000000000000000000000000000000000000000815260040160405180910390fd5b7fd0f59754f88971fe6bc5a6618cc9d5f1e859c58d16b22d1c7b2d3e2b246cd8aa8201611bdf576040517f76755b3800000000000000000000000000000000000000000000000000000000815260040160405180910390fd5b7f1fd9e056a24d14c4abc642fcc325992a946906d0dbc57dd70278aaf12842024d8201611c38576040517f4ef6d7fb00000000000000000000000000000000000000000000000000000000815260040160405180910390fd5b6000828152600160205260409020611c508282612bc9565b50817fece574603820d07bc9b91f2a932baadf4628aabcb8afba49776529c14a6104b282604051611c819190612586565b60405180910390a25050565b6060816000018054806020026020016040519081016040528092919081815260200182805480156112fa57602002820191906000526020600020905b815481526020019060010190808311611cc95750505050509050919050565b600054610100900460ff16611d535760405162461bcd60e51b815260206004820152602b60248201527f496e697469616c697a61626c653a20636f6e7472616374206973206e6f74206960448201526a6e697469616c697a696e6760a81b60648201526084016101b2565b611d5c82611f9a565b611dbe7feafec4d89fa9619884b60000a4d96624a38f7ac2d8d9a604ecf07c12c77e480c60001b6040518060400160405280600481526020017fa4d9662400000000000000000000000000000000000000000000000000000000815250611c38565b611de87fdeba1e292f8ba88238e10ab3c7f88bd4be4fac56cad5194b6ecceaf653468af185611c38565b611e127f2f0a68ab07768e01943a599e73362a0e17a63a72e94dd2e384d2c1d4db93275684611c38565b60408051602081018390526109c9917fe0261fa95db2eb3b5439bd033cda66d56b96f92f243a8228fd87550ed7bdfdb39101604051602081830303815290604052611c38565b6000818152600183016020526040812054611e9f57508154600181810184556000848152602080822090930184905584548482528286019093526040902091909155610643565b506000610643565b60008181526001830160205260408120548015611f90576000611ecb600183612ac5565b8554909150600090611edf90600190612ac5565b9050818114611f44576000866000018281548110611eff57611eff61295b565b9060005260206000200154905080876000018481548110611f2257611f2261295b565b6000918252602080832090910192909255918252600188019052604090208390555b8554869080611f5557611f55612c89565b600190038181906000526020600020016000905590558560010160008681526020019081526020016000206000905560019350505050610643565b6000915050610643565b600054610100900460ff16610eaa5760405162461bcd60e51b815260206004820152602b60248201527f496e697469616c697a61626c653a20636f6e7472616374206973206e6f74206960448201526a6e697469616c697a696e6760a81b60648201526084016101b2565b60208152816020820152818360408301376000818301604090810191909152601f909201601f19160101919050565b60006020828403121561204657600080fd5b81356001600160e01b03198116811461101557600080fd5b634e487b7160e01b600052604160045260246000fd5b604051601f8201601f1916810167ffffffffffffffff8111828210171561209d5761209d61205e565b604052919050565b600067ffffffffffffffff8211156120bf576120bf61205e565b50601f01601f191660200190565b600082601f8301126120de57600080fd5b81356120f16120ec826120a5565b612074565b81815284602083860101111561210657600080fd5b816020850160208301376000918101602001919091529392505050565b80356001600160a01b038116811461213a57600080fd5b919050565b8035801515811461213a57600080fd5b600080600080600060a0868803121561216757600080fd5b853567ffffffffffffffff8082111561217f57600080fd5b61218b89838a016120cd565b965060208801359150808211156121a157600080fd5b506121ae888289016120cd565b9450506121bd60408701612123565b9250606086013591506121d26080870161213f565b90509295509295909350565b6000806000606084860312156121f357600080fd5b6121fc84612123565b925060208401359150604084013567ffffffffffffffff81111561221f57600080fd5b61222b868287016120cd565b9150509250925092565b600067ffffffffffffffff82111561224f5761224f61205e565b5060051b60200190565b600082601f83011261226a57600080fd5b8135602061227a6120ec83612235565b82815260059290921b8401810191818101908684111561229957600080fd5b8286015b848110156122bb576122ae81612123565b835291830191830161229d565b509695505050505050565b600082601f8301126122d757600080fd5b813560206122e76120ec83612235565b82815260059290921b8401810191818101908684111561230657600080fd5b8286015b848110156122bb578035835291830191830161230a565b600082601f83011261233257600080fd5b813560206123426120ec83612235565b82815260059290921b8401810191818101908684111561236157600080fd5b8286015b848110156122bb576123768161213f565b8352918301918301612365565b600082601f83011261239457600080fd5b813560206123a46120ec83612235565b82815260059290921b840181019181810190868411156123c357600080fd5b8286015b848110156122bb57803567ffffffffffffffff8111156123e75760008081fd5b6123f58986838b01016120cd565b8452509183019183016123c7565b600080600080600060a0868803121561241b57600080fd5b853567ffffffffffffffff8082111561243357600080fd5b61243f89838a01612259565b9650602088013591508082111561245557600080fd5b61246189838a01612259565b9550604088013591508082111561247757600080fd5b61248389838a016122c6565b9450606088013591508082111561249957600080fd5b6124a589838a01612321565b935060808801359150808211156124bb57600080fd5b506124c888828901612383565b9150509295509295909350565b6000806000606084860312156124ea57600080fd5b6124f384612123565b92506125016020850161213f565b9150604084013567ffffffffffffffff81111561221f57600080fd5b60006020828403121561252f57600080fd5b5035919050565b60005b83811015612551578181015183820152602001612539565b50506000910152565b60008151808452612572816020860160208601612536565b601f01601f19169290920160200192915050565b602081526000611015602083018461255a565b600080604083850312156125ac57600080fd5b6125b583612123565b91506125c360208401612123565b90509250929050565b600080602083850312156125df57600080fd5b823567ffffffffffffffff808211156125f757600080fd5b818501915085601f83011261260b57600080fd5b81358181111561261a57600080fd5b8660208260051b850101111561262f57600080fd5b60209290920196919550909350505050565b6000602080830181845280855180835260408601915060408160051b870101925083870160005b8281101561269657603f1988860301845261268485835161255a565b94509285019290850190600101612668565b5092979650505050505050565b6000602082840312156126b557600080fd5b61101582612123565b600080600080608085870312156126d457600080fd5b6126dd85612123565b9350602085013592506126f26040860161213f565b9150606085013567ffffffffffffffff81111561270e57600080fd5b61271a878288016120cd565b91505092959194509250565b600080600080600060a0868803121561273e57600080fd5b61274786612123565b945061275560208701612123565b93506040860135925061276a6060870161213f565b9150608086013567ffffffffffffffff81111561278657600080fd5b6124c8888289016120cd565b600080604083850312156127a557600080fd5b82359150602083013567ffffffffffffffff8111156127c357600080fd5b6127cf858286016120cd565b9150509250929050565b600080604083850312156127ec57600080fd5b823567ffffffffffffffff8082111561280457600080fd5b612810868387016122c6565b9350602085013591508082111561282657600080fd5b506127cf85828601612383565b6020808252825182820181905260009190848201906040850190845b818110156128745783516001600160a01b03168352928401929184019160010161284f565b50909695505050505050565b60006020828403121561289257600080fd5b813567ffffffffffffffff8111156128a957600080fd5b6117cf848285016122c6565b8385823760609290921b6bffffffffffffffffffffffff1916919092019081526014810191909152603401919050565b600082516128f7818460208701612536565b9190910192915050565b634e487b7160e01b600052601160045260246000fd5b8082018082111561064357610643612901565b6001600160a01b0384168152826020820152606060408201526000612952606083018461255a565b95945050505050565b634e487b7160e01b600052603260045260246000fd5b6001600160a01b038416815260ff83166020820152606060408201526000612952606083018461255a565b6000808335601e198436030181126129b357600080fd5b83018035915067ffffffffffffffff8211156129ce57600080fd5b6020019150368190038213156129e357600080fd5b9250929050565b8183823760009101908152919050565b805160208201516bffffffffffffffffffffffff198082169291906014831015612a2e5780818460140360031b1b83161693505b505050919050565b600181811c90821680612a4a57607f821691505b602082108103610e9c57634e487b7160e01b600052602260045260246000fd5b8381528215156020820152606060408201526000612952606083018461255a565b60006001600160a01b038088168352808716602084015280861660408401525083606083015260a060808301526118b860a083018461255a565b8181038181111561064357610643612901565b80516020808301519190811015610e9c5760001960209190910360031b1b16919050565b8281526040602082015260006117cf604083018461255a565b600060208284031215612b2757600080fd5b815167ffffffffffffffff811115612b3e57600080fd5b8201601f81018413612b4f57600080fd5b8051612b5d6120ec826120a5565b818152856020838501011115612b7257600080fd5b612952826020830160208601612536565b601f8211156109cb57600081815260208120601f850160051c81016020861015612baa5750805b601f850160051c820191505b818110156107b857828155600101612bb6565b815167ffffffffffffffff811115612be357612be361205e565b612bf781612bf18454612a36565b84612b83565b602080601f831160018114612c2c5760008415612c145750858301515b600019600386901b1c1916600185901b1785556107b8565b600085815260208120601f198616915b82811015612c5b57888601518255948401946001909101908401612c3c565b5085821015612c795787850151600019600388901b60f8161c191681555b5050505050600190811b01905550565b634e487b7160e01b600052603160045260246000fdfea26469706673582212204ea7d93bbd0a33b43e27e5caa4a95c2e758a924ecbe5cca83d21c50860e940ce64736f6c63430008110033",
  "devdoc": {
    "details": "LSP7DigitalAsset deployable preset contract (proxy version) with a public {mint} function callable only by the contract {owner}.",
    "errors": {
      "ERC725Y_DataKeysValuesEmptyArray()": [
        {
          "details": "Reverts when one of the array parameter provided to {setDataBatch} function is an empty array."
        }
      ],
      "ERC725Y_DataKeysValuesLengthMismatch()": [
        {
          "details": "Reverts when there is not the same number of elements in the `datakeys` and `dataValues` array parameters provided when calling the {setDataBatch} function."
        }
      ],
      "ERC725Y_MsgValueDisallowed()": [
        {
          "details": "Reverts when sending value to the {setData} or {setDataBatch} function."
        }
      ],
      "InvalidExtensionAddress(bytes)": [
        {
          "details": "reverts when the bytes retrieved from the LSP17 data key is not a valid address (not 20 bytes)"
        }
      ],
      "InvalidFunctionSelector(bytes)": [
        {
          "details": "reverts when the contract is called with a function selector not valid (less than 4 bytes of data)"
        }
      ],
      "LSP4TokenNameNotEditable()": [
        {
          "details": "Reverts when trying to edit the data key `LSP4TokenName` after the digital asset contract has been deployed / initialized. The `LSP4TokenName` data key is located inside the ERC725Y data key-value store of the digital asset contract. It can be set only once inside the constructor/initializer when the digital asset contract is being deployed / initialized."
        }
      ],
      "LSP4TokenSymbolNotEditable()": [
        {
          "details": "Reverts when trying to edit the data key `LSP4TokenSymbol` after the digital asset contract has been deployed / initialized. The `LSP4TokenSymbol` data key is located inside the ERC725Y data key-value store of the digital asset contract. It can be set only once inside the constructor/initializer when the digital asset contract is being deployed / initialized."
        }
      ],
      "LSP4TokenTypeNotEditable()": [
        {
          "details": "Reverts when trying to edit the data key `LSP4TokenType` after the digital asset contract has been deployed / initialized. The `LSP4TokenType` data key is located inside the ERC725Y data key-value store of the digital asset contract. It can be set only once inside the constructor / initializer when the digital asset contract is being deployed / initialized."
        }
      ],
      "LSP7AmountExceedsAuthorizedAmount(address,uint256,address,uint256)": [
        {
          "details": "reverts when `operator` of `tokenOwner` send an `amount` of tokens larger than the `authorizedAmount`."
        }
      ],
      "LSP7AmountExceedsBalance(uint256,address,uint256)": [
        {
          "details": "reverts when sending an `amount` of tokens larger than the current `balance` of the `tokenOwner`."
        }
      ],
      "LSP7BatchCallFailed(uint256)": [
        {
          "details": "Reverts when a batch call failed."
        }
      ],
      "LSP7CannotSendToSelf()": [
        {
          "details": "reverts when specifying the same address for `from` or `to` in a token transfer."
        }
      ],
      "LSP7CannotSendWithAddressZero()": [
        {
          "details": "reverts when trying to: - mint tokens to the zero address. - burn tokens from the zero address. - transfer tokens from or to the zero address."
        }
      ],
      "LSP7CannotUseAddressZeroAsOperator()": [
        {
          "details": "reverts when trying to set the zero address as an operator."
        }
      ],
      "LSP7DecreasedAllowanceBelowZero()": [
        {
          "details": "Reverts when trying to decrease an operator's allowance to more than its current allowance."
        }
      ],
      "LSP7InvalidTransferBatch()": [
        {
          "details": "reverts when the array parameters used in {transferBatch} have different lengths."
        }
      ],
      "LSP7NotifyTokenReceiverContractMissingLSP1Interface(address)": [
        {
          "details": "reverts if the `tokenReceiver` does not implement LSP1 when minting or transferring tokens with `bool force` set as `false`."
        }
      ],
      "LSP7NotifyTokenReceiverIsEOA(address)": [
        {
          "details": "reverts if the `tokenReceiver` is an EOA when minting or transferring tokens with `bool force` set as `false`."
        }
      ],
      "LSP7TokenContractCannotHoldValue()": [
        {
          "details": "Error occurs when sending native tokens to the LSP7 contract without sending any data. E.g. Sending value without passing a bytes4 function selector to call a LSP17 Extension."
        }
      ],
      "LSP7TokenOwnerCannotBeOperator()": [
        {
          "details": "reverts when trying to authorize or revoke the token's owner as an operator."
        }
      ],
      "NoExtensionFoundForFunctionSelector(bytes4)": [
        {
          "details": "reverts when there is no extension for the function selector being called with"
        }
      ],
      "OperatorAllowanceCannotBeIncreasedFromZero(address)": [
        {
          "details": "Reverts when token owner call {increaseAllowance} for an operator that does not have any allowance"
        }
      ],
      "OwnableCallerNotTheOwner(address)": [
        {
          "details": "Reverts when only the owner is allowed to call the function.",
          "params": {
            "callerAddress": "The address that tried to make the call."
          }
        }
      ],
      "OwnableCannotSetZeroAddressAsOwner()": [
        {
          "details": "Reverts when trying to set `address(0)` as the contract owner when deploying the contract, initializing it or transferring ownership of the contract."
        }
      ]
    },
    "kind": "dev",
    "methods": {
      "authorizeOperator(address,uint256,bytes)": {
        "custom:danger": "To avoid front-running and Allowance Double-Spend Exploit when increasing or decreasing the authorized amount of an operator, it is advised to use the {increaseAllowance} and {decreaseAllowance} functions. For more information, see: https://docs.google.com/document/d/1YLPtQxZu1UAvO9cZ1O2RPXBbT0mooh4DYKjA_jp-RLM/",
        "details": "Sets an `amount` of tokens that an `operator` has access from the caller's balance (allowance). See {authorizedAmountFor}. Notify the operator based on the LSP1-UniversalReceiver standard",
        "params": {
          "amount": "The allowance amount of tokens operator has access to.",
          "operator": "The address to authorize as an operator.",
          "operatorNotificationData": "The data to notify the operator about via LSP1."
        }
      },
      "authorizedAmountFor(address,address)": {
        "details": "Get the amount of tokens `operator` address has access to from `tokenOwner`. Operators can send and burn tokens on behalf of their owners.",
        "params": {
          "operator": "The operator's address to query the authorized amount for.",
          "tokenOwner": "The token owner that `operator` has allowance on."
        },
        "returns": {
          "_0": "The amount of tokens the `operator`'s address has access on the `tokenOwner`'s balance."
        }
      },
      "balanceOf(address)": {
        "details": "Get the number of tokens owned by `tokenOwner`. If the token is divisible (the {decimals} function returns `18`), the amount returned should be divided by 1e18 to get a better picture of the actual balance of the `tokenOwner`. _Example:_ ``` balanceOf(someAddress) -> 42_000_000_000_000_000_000 / 1e18 = 42 tokens ```",
        "params": {
          "tokenOwner": "The address of the token holder to query the balance for."
        },
        "returns": {
          "_0": "The amount of tokens owned by `tokenOwner`."
        }
      },
      "batchCalls(bytes[])": {
        "custom:info": "It's not possible to send value along the functions call due to the use of `delegatecall`.",
        "details": "Allows a caller to batch different function calls in one call. Perform a `delegatecall` on self, to call different functions with preserving the context.",
        "params": {
          "data": "An array of ABI encoded function calls to be called on the contract."
        },
        "returns": {
          "results": "An array of abi-encoded data returned by the functions executed."
        }
      },
      "constructor": {
        "details": "initialize (= lock) base implementation contract on deployment"
      },
      "decimals()": {
        "details": "Returns the number of decimals used to get its user representation. If the asset contract has been set to be non-divisible via the `isNonDivisible_` parameter in the `constructor`, the decimals returned wiil be `0`. Otherwise `18` is the common value.",
        "returns": {
          "_0": "the number of decimals. If `0` is returned, the asset is non-divisible."
        }
      },
      "decreaseAllowance(address,uint256,bytes)": {
        "details": "Atomically decreases the allowance granted to `operator` by the caller. This is an alternative approach to {authorizeOperator} that can be used as a mitigation for the double spending allowance problem. Notify the operator based on the LSP1-UniversalReceiver standard",
        "params": {
          "operator": "The operator to decrease allowance for `msg.sender`",
          "subtractedAmount": "The amount to decrease by in the operator's allowance."
        }
      },
      "getData(bytes32)": {
        "details": "Get in the ERC725Y storage the bytes data stored at a specific data key `dataKey`.",
        "params": {
          "dataKey": "The data key for which to retrieve the value."
        },
        "returns": {
          "dataValue": "The bytes value stored under the specified data key."
        }
      },
      "getDataBatch(bytes32[])": {
        "details": "Get in the ERC725Y storage the bytes data stored at multiple data keys `dataKeys`.",
        "params": {
          "dataKeys": "The array of keys which values to retrieve"
        },
        "returns": {
          "dataValues": "The array of data stored at multiple keys"
        }
      },
      "getOperatorsOf(address)": {
        "details": "Returns all `operator` addresses that are allowed to transfer or burn on behalf of `tokenOwner`.",
        "params": {
          "tokenOwner": "The token owner to get the operators for."
        },
        "returns": {
          "_0": "An array of operators allowed to transfer or burn tokens on behalf of `tokenOwner`."
        }
      },
      "increaseAllowance(address,uint256,bytes)": {
        "details": "Atomically increases the allowance granted to `operator` by the caller. This is an alternative approach to {authorizeOperator} that can be used as a mitigation for the double spending allowance problem. Notify the operator based on the LSP1-UniversalReceiver standard",
        "params": {
          "addedAmount": "The additional amount to add on top of the current operator's allowance",
          "operator": "The operator to increase the allowance for `msg.sender`"
        }
      },
      "initialize(string,string,address,uint256,bool)": {
        "params": {
          "isNonDivisible_": "Specify if the LSP7 token is a fungible or non-fungible token.",
          "lsp4TokenType_": "The type of token this digital asset contract represents (`0` = Token, `1` = NFT, `2` = Collection).",
          "name_": "The name of the token.",
          "newOwner_": "The owner of the token contract.",
          "symbol_": "The symbol of the token."
        }
      },
      "mint(address,uint256,bool,bytes)": {
        "details": "Public {_mint} function only callable by the {owner}."
      },
      "owner()": {
        "details": "Returns the address of the current owner."
      },
      "renounceOwnership()": {
        "details": "Leaves the contract without owner. It will not be possible to call `onlyOwner` functions anymore. Can only be called by the current owner. NOTE: Renouncing ownership will leave the contract without an owner, thereby removing any functionality that is only available to the owner."
      },
      "revokeOperator(address,bool,bytes)": {
        "details": "Removes the `operator` address as an operator of callers tokens, disallowing it to send any amount of tokens on behalf of the token owner (the caller of the function `msg.sender`). See also {authorizedAmountFor}.",
        "params": {
          "notify": "Boolean indicating whether to notify the operator or not.",
          "operator": "The address to revoke as an operator.",
          "operatorNotificationData": "The data to notify the operator about via LSP1."
        }
      },
      "setData(bytes32,bytes)": {
        "custom:events": "{DataChanged} event.",
        "custom:requirements": "- SHOULD only be callable by the {owner}.",
        "custom:warning": "**Note for developers:** despite the fact that this function is set as `payable`, if the function is not intended to receive value (= native tokens), **an additional check should be implemented to ensure that `msg.value` sent was equal to 0**.",
        "details": "Sets a single bytes value `dataValue` in the ERC725Y storage for a specific data key `dataKey`. The function is marked as payable to enable flexibility on child contracts. For instance to implement a fee mechanism for setting specific data.",
        "params": {
          "dataKey": "The data key for which to set a new value.",
          "dataValue": "The new bytes value to set."
        }
      },
      "setDataBatch(bytes32[],bytes[])": {
        "custom:events": "{DataChanged} event **for each data key/value pair set**.",
        "custom:requirements": "- SHOULD only be callable by the {owner} of the contract.",
        "custom:warning": "**Note for developers:** despite the fact that this function is set as `payable`, if the function is not intended to receive value (= native tokens), **an additional check should be implemented to ensure that `msg.value` sent was equal to 0**.",
        "details": "Batch data setting function that behaves the same as {setData} but allowing to set multiple data key/value pairs in the ERC725Y storage in the same transaction.",
        "params": {
          "dataKeys": "An array of data keys to set bytes values for.",
          "dataValues": "An array of bytes values to set for each `dataKeys`."
        }
      },
      "supportsInterface(bytes4)": {
        "details": "See {IERC165-supportsInterface}."
      },
      "totalSupply()": {
        "details": "Returns the number of existing tokens that have been minted in this contract.",
        "returns": {
          "_0": "The number of existing tokens."
        }
      },
      "transfer(address,address,uint256,bool,bytes)": {
        "details": "Transfers an `amount` of tokens from the `from` address to the `to` address and notify both sender and recipients via the LSP1 {`universalReceiver(...)`} function. If the tokens are transferred by an operator on behalf of a token holder, the allowance for the operator will be decreased by `amount` once the token transfer has been completed (See {authorizedAmountFor}).",
        "params": {
          "amount": "The amount of tokens to transfer.",
          "data": "Any additional data the caller wants included in the emitted event, and sent in the hooks of the `from` and `to` addresses.",
          "force": "When set to `true`, the `to` address CAN be any address. When set to `false`, the `to` address MUST be a contract that supports the LSP1 UniversalReceiver standard.",
          "from": "The sender address.",
          "to": "The recipient address."
        }
      },
      "transferBatch(address[],address[],uint256[],bool[],bytes[])": {
        "details": "Same as {`transfer(...)`} but transfer multiple tokens based on the arrays of `from`, `to`, `amount`.",
        "params": {
          "amount": "An array of amount of tokens to transfer for each `from -> to` transfer.",
          "data": "An array of additional data the caller wants included in the emitted event, and sent in the hooks to `from` and `to` addresses.",
          "force": "For each transfer, when set to `true`, the `to` address CAN be any address. When set to `false`, the `to` address MUST be a contract that supports the LSP1 UniversalReceiver standard.",
          "from": "An array of sending addresses.",
          "to": "An array of receiving addresses."
        }
      },
      "transferOwnership(address)": {
        "details": "Transfers ownership of the contract to a new account (`newOwner`). Can only be called by the current owner."
      }
    },
    "version": 1
  },
  "userdoc": {
    "errors": {
      "LSP7BatchCallFailed(uint256)": [
        {
          "notice": "Batch call failed."
        }
      ],
      "LSP7TokenContractCannotHoldValue()": [
        {
          "notice": "LSP7 contract cannot receive native tokens."
        }
      ]
    },
    "events": {
      "DataChanged(bytes32,bytes)": {
        "notice": "The following data key/value pair has been changed in the ERC725Y storage: Data key: `dataKey`, data value: `dataValue`."
      }
    },
    "kind": "user",
    "methods": {
      "batchCalls(bytes[])": {
        "notice": "Executing the following batch of abi-encoded function calls on the contract: `data`."
      },
      "decreaseAllowance(address,uint256,bytes)": {
        "notice": "Decrease the allowance of `operator` by -`subtractedAmount`"
      },
      "getData(bytes32)": {
        "notice": "Reading the ERC725Y storage for data key `dataKey` returned the following value: `dataValue`."
      },
      "getDataBatch(bytes32[])": {
        "notice": "Reading the ERC725Y storage for data keys `dataKeys` returned the following values: `dataValues`."
      },
      "increaseAllowance(address,uint256,bytes)": {
        "notice": "Increase the allowance of `operator` by +`addedAmount`"
      },
      "initialize(string,string,address,uint256,bool)": {
        "notice": "Initializing a `LSP7MintableInit` token contract with: token name = `name_`, token symbol = `symbol_`, and address `newOwner_` as the token contract owner."
      },
      "setData(bytes32,bytes)": {
        "notice": "Setting the following data key value pair in the ERC725Y storage. Data key: `dataKey`, data value: `dataValue`."
      },
      "setDataBatch(bytes32[],bytes[])": {
        "notice": "Setting the following data key value pairs in the ERC725Y storage. Data keys: `dataKeys`, data values: `dataValues`."
      }
    },
    "version": 1
  },
  "storageLayout": {
    "storage": [
      {
        "astId": 1726,
        "contract": "contracts/LSP7DigitalAsset/presets/LSP7MintableInit.sol:LSP7MintableInit",
        "label": "_initialized",
        "offset": 0,
        "slot": "0",
        "type": "t_uint8"
      },
      {
        "astId": 1729,
        "contract": "contracts/LSP7DigitalAsset/presets/LSP7MintableInit.sol:LSP7MintableInit",
        "label": "_initializing",
        "offset": 1,
        "slot": "0",
        "type": "t_bool"
      },
      {
        "astId": 1452,
        "contract": "contracts/LSP7DigitalAsset/presets/LSP7MintableInit.sol:LSP7MintableInit",
        "label": "_owner",
        "offset": 2,
        "slot": "0",
        "type": "t_address"
      },
      {
        "astId": 1172,
        "contract": "contracts/LSP7DigitalAsset/presets/LSP7MintableInit.sol:LSP7MintableInit",
        "label": "_store",
        "offset": 0,
        "slot": "1",
        "type": "t_mapping(t_bytes32,t_bytes_storage)"
      },
      {
        "astId": 16721,
        "contract": "contracts/LSP7DigitalAsset/presets/LSP7MintableInit.sol:LSP7MintableInit",
        "label": "_isNonDivisible",
        "offset": 0,
        "slot": "2",
        "type": "t_bool"
      },
      {
        "astId": 16723,
        "contract": "contracts/LSP7DigitalAsset/presets/LSP7MintableInit.sol:LSP7MintableInit",
        "label": "_existingTokens",
        "offset": 0,
        "slot": "3",
        "type": "t_uint256"
      },
      {
        "astId": 16727,
        "contract": "contracts/LSP7DigitalAsset/presets/LSP7MintableInit.sol:LSP7MintableInit",
        "label": "_tokenOwnerBalances",
        "offset": 0,
        "slot": "4",
        "type": "t_mapping(t_address,t_uint256)"
      },
      {
        "astId": 16732,
        "contract": "contracts/LSP7DigitalAsset/presets/LSP7MintableInit.sol:LSP7MintableInit",
        "label": "_operators",
        "offset": 0,
        "slot": "5",
        "type": "t_mapping(t_address,t_struct(AddressSet)5410_storage)"
      },
      {
        "astId": 16738,
        "contract": "contracts/LSP7DigitalAsset/presets/LSP7MintableInit.sol:LSP7MintableInit",
        "label": "_operatorAuthorizedAmount",
        "offset": 0,
        "slot": "6",
        "type": "t_mapping(t_address,t_mapping(t_address,t_uint256))"
      }
    ],
    "types": {
      "t_address": {
        "encoding": "inplace",
        "label": "address",
        "numberOfBytes": "20"
      },
      "t_array(t_bytes32)dyn_storage": {
        "base": "t_bytes32",
        "encoding": "dynamic_array",
        "label": "bytes32[]",
        "numberOfBytes": "32"
      },
      "t_bool": {
        "encoding": "inplace",
        "label": "bool",
        "numberOfBytes": "1"
      },
      "t_bytes32": {
        "encoding": "inplace",
        "label": "bytes32",
        "numberOfBytes": "32"
      },
      "t_bytes_storage": {
        "encoding": "bytes",
        "label": "bytes",
        "numberOfBytes": "32"
      },
      "t_mapping(t_address,t_mapping(t_address,t_uint256))": {
        "encoding": "mapping",
        "key": "t_address",
        "label": "mapping(address => mapping(address => uint256))",
        "numberOfBytes": "32",
        "value": "t_mapping(t_address,t_uint256)"
      },
      "t_mapping(t_address,t_struct(AddressSet)5410_storage)": {
        "encoding": "mapping",
        "key": "t_address",
        "label": "mapping(address => struct EnumerableSet.AddressSet)",
        "numberOfBytes": "32",
        "value": "t_struct(AddressSet)5410_storage"
      },
      "t_mapping(t_address,t_uint256)": {
        "encoding": "mapping",
        "key": "t_address",
        "label": "mapping(address => uint256)",
        "numberOfBytes": "32",
        "value": "t_uint256"
      },
      "t_mapping(t_bytes32,t_bytes_storage)": {
        "encoding": "mapping",
        "key": "t_bytes32",
        "label": "mapping(bytes32 => bytes)",
        "numberOfBytes": "32",
        "value": "t_bytes_storage"
      },
      "t_mapping(t_bytes32,t_uint256)": {
        "encoding": "mapping",
        "key": "t_bytes32",
        "label": "mapping(bytes32 => uint256)",
        "numberOfBytes": "32",
        "value": "t_uint256"
      },
      "t_struct(AddressSet)5410_storage": {
        "encoding": "inplace",
        "label": "struct EnumerableSet.AddressSet",
        "members": [
          {
            "astId": 5409,
            "contract": "contracts/LSP7DigitalAsset/presets/LSP7MintableInit.sol:LSP7MintableInit",
            "label": "_inner",
            "offset": 0,
            "slot": "0",
            "type": "t_struct(Set)5095_storage"
          }
        ],
        "numberOfBytes": "64"
      },
      "t_struct(Set)5095_storage": {
        "encoding": "inplace",
        "label": "struct EnumerableSet.Set",
        "members": [
          {
            "astId": 5090,
            "contract": "contracts/LSP7DigitalAsset/presets/LSP7MintableInit.sol:LSP7MintableInit",
            "label": "_values",
            "offset": 0,
            "slot": "0",
            "type": "t_array(t_bytes32)dyn_storage"
          },
          {
            "astId": 5094,
            "contract": "contracts/LSP7DigitalAsset/presets/LSP7MintableInit.sol:LSP7MintableInit",
            "label": "_indexes",
            "offset": 0,
            "slot": "1",
            "type": "t_mapping(t_bytes32,t_uint256)"
          }
        ],
        "numberOfBytes": "64"
      },
      "t_uint256": {
        "encoding": "inplace",
        "label": "uint256",
        "numberOfBytes": "32"
      },
      "t_uint8": {
        "encoding": "inplace",
        "label": "uint8",
        "numberOfBytes": "1"
      }
    }
  }
}