{
  "address": "0x10400bF4712B8AC6B73B74E2464E3E0C5C1De879",
  "abi": [
    {
      "inputs": [
        {
          "internalType": "string",
          "name": "name_",
          "type": "string"
        },
        {
          "internalType": "string",
          "name": "symbol_",
          "type": "string"
        },
        {
          "internalType": "address",
          "name": "newOwner_",
          "type": "address"
        },
        {
          "internalType": "uint256",
          "name": "lsp4TokenType_",
          "type": "uint256"
        },
        {
          "internalType": "uint256",
          "name": "lsp8TokenIdFormat_",
          "type": "uint256"
        }
      ],
      "stateMutability": "nonpayable",
      "type": "constructor"
    },
    {
      "inputs": [],
      "name": "ERC725Y_DataKeysValuesEmptyArray",
      "type": "error"
    },
    {
      "inputs": [],
      "name": "ERC725Y_DataKeysValuesLengthMismatch",
      "type": "error"
    },
    {
      "inputs": [],
      "name": "ERC725Y_MsgValueDisallowed",
      "type": "error"
    },
    {
      "inputs": [
        {
          "internalType": "bytes",
          "name": "storedData",
          "type": "bytes"
        }
      ],
      "name": "InvalidExtensionAddress",
      "type": "error"
    },
    {
      "inputs": [
        {
          "internalType": "bytes",
          "name": "data",
          "type": "bytes"
        }
      ],
      "name": "InvalidFunctionSelector",
      "type": "error"
    },
    {
      "inputs": [],
      "name": "LSP4TokenNameNotEditable",
      "type": "error"
    },
    {
      "inputs": [],
      "name": "LSP4TokenSymbolNotEditable",
      "type": "error"
    },
    {
      "inputs": [],
      "name": "LSP4TokenTypeNotEditable",
      "type": "error"
    },
    {
      "inputs": [
        {
          "internalType": "uint256",
          "name": "callIndex",
          "type": "uint256"
        }
      ],
      "name": "LSP8BatchCallFailed",
      "type": "error"
    },
    {
      "inputs": [],
      "name": "LSP8CannotSendToAddressZero",
      "type": "error"
    },
    {
      "inputs": [],
      "name": "LSP8CannotSendToSelf",
      "type": "error"
    },
    {
      "inputs": [],
      "name": "LSP8CannotUseAddressZeroAsOperator",
      "type": "error"
    },
    {
      "inputs": [],
      "name": "LSP8InvalidTransferBatch",
      "type": "error"
    },
    {
      "inputs": [
        {
          "internalType": "bytes32",
          "name": "tokenId",
          "type": "bytes32"
        }
      ],
      "name": "LSP8NonExistentTokenId",
      "type": "error"
    },
    {
      "inputs": [
        {
          "internalType": "address",
          "name": "operator",
          "type": "address"
        },
        {
          "internalType": "bytes32",
          "name": "tokenId",
          "type": "bytes32"
        }
      ],
      "name": "LSP8NonExistingOperator",
      "type": "error"
    },
    {
      "inputs": [
        {
          "internalType": "bytes32",
          "name": "tokenId",
          "type": "bytes32"
        },
        {
          "internalType": "address",
          "name": "caller",
          "type": "address"
        }
      ],
      "name": "LSP8NotTokenOperator",
      "type": "error"
    },
    {
      "inputs": [
        {
          "internalType": "address",
          "name": "tokenOwner",
          "type": "address"
        },
        {
          "internalType": "bytes32",
          "name": "tokenId",
          "type": "bytes32"
        },
        {
          "internalType": "address",
          "name": "caller",
          "type": "address"
        }
      ],
      "name": "LSP8NotTokenOwner",
      "type": "error"
    },
    {
      "inputs": [
        {
          "internalType": "address",
          "name": "tokenReceiver",
          "type": "address"
        }
      ],
      "name": "LSP8NotifyTokenReceiverContractMissingLSP1Interface",
      "type": "error"
    },
    {
      "inputs": [
        {
          "internalType": "address",
          "name": "tokenReceiver",
          "type": "address"
        }
      ],
      "name": "LSP8NotifyTokenReceiverIsEOA",
      "type": "error"
    },
    {
      "inputs": [
        {
          "internalType": "address",
          "name": "operator",
          "type": "address"
        },
        {
          "internalType": "bytes32",
          "name": "tokenId",
          "type": "bytes32"
        }
      ],
      "name": "LSP8OperatorAlreadyAuthorized",
      "type": "error"
    },
    {
      "inputs": [],
      "name": "LSP8TokenContractCannotHoldValue",
      "type": "error"
    },
    {
      "inputs": [
        {
          "internalType": "bytes32",
          "name": "tokenId",
          "type": "bytes32"
        }
      ],
      "name": "LSP8TokenIdAlreadyMinted",
      "type": "error"
    },
    {
      "inputs": [],
      "name": "LSP8TokenIdFormatNotEditable",
      "type": "error"
    },
    {
      "inputs": [],
      "name": "LSP8TokenIdsDataEmptyArray",
      "type": "error"
    },
    {
      "inputs": [],
      "name": "LSP8TokenIdsDataLengthMismatch",
      "type": "error"
    },
    {
      "inputs": [],
      "name": "LSP8TokenOwnerCannotBeOperator",
      "type": "error"
    },
    {
      "inputs": [
        {
          "internalType": "bytes32",
          "name": "tokenId",
          "type": "bytes32"
        },
        {
          "internalType": "address",
          "name": "oldOwner",
          "type": "address"
        },
        {
          "internalType": "address",
          "name": "newOwner",
          "type": "address"
        }
      ],
      "name": "LSP8TokenOwnerChanged",
      "type": "error"
    },
    {
      "inputs": [
        {
          "internalType": "bytes4",
          "name": "functionSelector",
          "type": "bytes4"
        }
      ],
      "name": "NoExtensionFoundForFunctionSelector",
      "type": "error"
    },
    {
      "inputs": [
        {
          "internalType": "address",
          "name": "callerAddress",
          "type": "address"
        }
      ],
      "name": "OwnableCallerNotTheOwner",
      "type": "error"
    },
    {
      "inputs": [],
      "name": "OwnableCannotSetZeroAddressAsOwner",
      "type": "error"
    },
    {
      "anonymous": false,
      "inputs": [
        {
          "indexed": true,
          "internalType": "bytes32",
          "name": "dataKey",
          "type": "bytes32"
        },
        {
          "indexed": false,
          "internalType": "bytes",
          "name": "dataValue",
          "type": "bytes"
        }
      ],
      "name": "DataChanged",
      "type": "event"
    },
    {
      "anonymous": false,
      "inputs": [
        {
          "indexed": true,
          "internalType": "address",
          "name": "operator",
          "type": "address"
        },
        {
          "indexed": true,
          "internalType": "address",
          "name": "tokenOwner",
          "type": "address"
        },
        {
          "indexed": true,
          "internalType": "bytes32",
          "name": "tokenId",
          "type": "bytes32"
        },
        {
          "indexed": false,
          "internalType": "bytes",
          "name": "operatorNotificationData",
          "type": "bytes"
        }
      ],
      "name": "OperatorAuthorizationChanged",
      "type": "event"
    },
    {
      "anonymous": false,
      "inputs": [
        {
          "indexed": true,
          "internalType": "address",
          "name": "operator",
          "type": "address"
        },
        {
          "indexed": true,
          "internalType": "address",
          "name": "tokenOwner",
          "type": "address"
        },
        {
          "indexed": true,
          "internalType": "bytes32",
          "name": "tokenId",
          "type": "bytes32"
        },
        {
          "indexed": false,
          "internalType": "bool",
          "name": "notified",
          "type": "bool"
        },
        {
          "indexed": false,
          "internalType": "bytes",
          "name": "operatorNotificationData",
          "type": "bytes"
        }
      ],
      "name": "OperatorRevoked",
      "type": "event"
    },
    {
      "anonymous": false,
      "inputs": [
        {
          "indexed": true,
          "internalType": "address",
          "name": "previousOwner",
          "type": "address"
        },
        {
          "indexed": true,
          "internalType": "address",
          "name": "newOwner",
          "type": "address"
        }
      ],
      "name": "OwnershipTransferred",
      "type": "event"
    },
    {
      "anonymous": false,
      "inputs": [
        {
          "indexed": true,
          "internalType": "bytes32",
          "name": "tokenId",
          "type": "bytes32"
        },
        {
          "indexed": true,
          "internalType": "bytes32",
          "name": "dataKey",
          "type": "bytes32"
        },
        {
          "indexed": false,
          "internalType": "bytes",
          "name": "dataValue",
          "type": "bytes"
        }
      ],
      "name": "TokenIdDataChanged",
      "type": "event"
    },
    {
      "anonymous": false,
      "inputs": [
        {
          "indexed": false,
          "internalType": "address",
          "name": "operator",
          "type": "address"
        },
        {
          "indexed": true,
          "internalType": "address",
          "name": "from",
          "type": "address"
        },
        {
          "indexed": true,
          "internalType": "address",
          "name": "to",
          "type": "address"
        },
        {
          "indexed": true,
          "internalType": "bytes32",
          "name": "tokenId",
          "type": "bytes32"
        },
        {
          "indexed": false,
          "internalType": "bool",
          "name": "force",
          "type": "bool"
        },
        {
          "indexed": false,
          "internalType": "bytes",
          "name": "data",
          "type": "bytes"
        }
      ],
      "name": "Transfer",
      "type": "event"
    },
    {
      "stateMutability": "payable",
      "type": "fallback"
    },
    {
      "inputs": [
        {
          "internalType": "address",
          "name": "operator",
          "type": "address"
        },
        {
          "internalType": "bytes32",
          "name": "tokenId",
          "type": "bytes32"
        },
        {
          "internalType": "bytes",
          "name": "operatorNotificationData",
          "type": "bytes"
        }
      ],
      "name": "authorizeOperator",
      "outputs": [],
      "stateMutability": "nonpayable",
      "type": "function"
    },
    {
      "inputs": [
        {
          "internalType": "address",
          "name": "tokenOwner",
          "type": "address"
        }
      ],
      "name": "balanceOf",
      "outputs": [
        {
          "internalType": "uint256",
          "name": "",
          "type": "uint256"
        }
      ],
      "stateMutability": "view",
      "type": "function"
    },
    {
      "inputs": [
        {
          "internalType": "bytes[]",
          "name": "data",
          "type": "bytes[]"
        }
      ],
      "name": "batchCalls",
      "outputs": [
        {
          "internalType": "bytes[]",
          "name": "results",
          "type": "bytes[]"
        }
      ],
      "stateMutability": "nonpayable",
      "type": "function"
    },
    {
      "inputs": [
        {
          "internalType": "bytes32",
          "name": "dataKey",
          "type": "bytes32"
        }
      ],
      "name": "getData",
      "outputs": [
        {
          "internalType": "bytes",
          "name": "dataValue",
          "type": "bytes"
        }
      ],
      "stateMutability": "view",
      "type": "function"
    },
    {
      "inputs": [
        {
          "internalType": "bytes32[]",
          "name": "dataKeys",
          "type": "bytes32[]"
        }
      ],
      "name": "getDataBatch",
      "outputs": [
        {
          "internalType": "bytes[]",
          "name": "dataValues",
          "type": "bytes[]"
        }
      ],
      "stateMutability": "view",
      "type": "function"
    },
    {
      "inputs": [
        {
          "internalType": "bytes32[]",
          "name": "tokenIds",
          "type": "bytes32[]"
        },
        {
          "internalType": "bytes32[]",
          "name": "dataKeys",
          "type": "bytes32[]"
        }
      ],
      "name": "getDataBatchForTokenIds",
      "outputs": [
        {
          "internalType": "bytes[]",
          "name": "dataValues",
          "type": "bytes[]"
        }
      ],
      "stateMutability": "view",
      "type": "function"
    },
    {
      "inputs": [
        {
          "internalType": "bytes32",
          "name": "tokenId",
          "type": "bytes32"
        },
        {
          "internalType": "bytes32",
          "name": "dataKey",
          "type": "bytes32"
        }
      ],
      "name": "getDataForTokenId",
      "outputs": [
        {
          "internalType": "bytes",
          "name": "dataValue",
          "type": "bytes"
        }
      ],
      "stateMutability": "view",
      "type": "function"
    },
    {
      "inputs": [
        {
          "internalType": "bytes32",
          "name": "tokenId",
          "type": "bytes32"
        }
      ],
      "name": "getOperatorsOf",
      "outputs": [
        {
          "internalType": "address[]",
          "name": "",
          "type": "address[]"
        }
      ],
      "stateMutability": "view",
      "type": "function"
    },
    {
      "inputs": [
        {
          "internalType": "address",
          "name": "operator",
          "type": "address"
        },
        {
          "internalType": "bytes32",
          "name": "tokenId",
          "type": "bytes32"
        }
      ],
      "name": "isOperatorFor",
      "outputs": [
        {
          "internalType": "bool",
          "name": "",
          "type": "bool"
        }
      ],
      "stateMutability": "view",
      "type": "function"
    },
    {
      "inputs": [
        {
          "internalType": "address",
          "name": "to",
          "type": "address"
        },
        {
          "internalType": "bytes32",
          "name": "tokenId",
          "type": "bytes32"
        },
        {
          "internalType": "bool",
          "name": "force",
          "type": "bool"
        },
        {
          "internalType": "bytes",
          "name": "data",
          "type": "bytes"
        }
      ],
      "name": "mint",
      "outputs": [],
      "stateMutability": "nonpayable",
      "type": "function"
    },
    {
      "inputs": [],
      "name": "owner",
      "outputs": [
        {
          "internalType": "address",
          "name": "",
          "type": "address"
        }
      ],
      "stateMutability": "view",
      "type": "function"
    },
    {
      "inputs": [],
      "name": "renounceOwnership",
      "outputs": [],
      "stateMutability": "nonpayable",
      "type": "function"
    },
    {
      "inputs": [
        {
          "internalType": "address",
          "name": "operator",
          "type": "address"
        },
        {
          "internalType": "bytes32",
          "name": "tokenId",
          "type": "bytes32"
        },
        {
          "internalType": "bool",
          "name": "notify",
          "type": "bool"
        },
        {
          "internalType": "bytes",
          "name": "operatorNotificationData",
          "type": "bytes"
        }
      ],
      "name": "revokeOperator",
      "outputs": [],
      "stateMutability": "nonpayable",
      "type": "function"
    },
    {
      "inputs": [
        {
          "internalType": "bytes32",
          "name": "dataKey",
          "type": "bytes32"
        },
        {
          "internalType": "bytes",
          "name": "dataValue",
          "type": "bytes"
        }
      ],
      "name": "setData",
      "outputs": [],
      "stateMutability": "payable",
      "type": "function"
    },
    {
      "inputs": [
        {
          "internalType": "bytes32[]",
          "name": "dataKeys",
          "type": "bytes32[]"
        },
        {
          "internalType": "bytes[]",
          "name": "dataValues",
          "type": "bytes[]"
        }
      ],
      "name": "setDataBatch",
      "outputs": [],
      "stateMutability": "payable",
      "type": "function"
    },
    {
      "inputs": [
        {
          "internalType": "bytes32[]",
          "name": "tokenIds",
          "type": "bytes32[]"
        },
        {
          "internalType": "bytes32[]",
          "name": "dataKeys",
          "type": "bytes32[]"
        },
        {
          "internalType": "bytes[]",
          "name": "dataValues",
          "type": "bytes[]"
        }
      ],
      "name": "setDataBatchForTokenIds",
      "outputs": [],
      "stateMutability": "nonpayable",
      "type": "function"
    },
    {
      "inputs": [
        {
          "internalType": "bytes32",
          "name": "tokenId",
          "type": "bytes32"
        },
        {
          "internalType": "bytes32",
          "name": "dataKey",
          "type": "bytes32"
        },
        {
          "internalType": "bytes",
          "name": "dataValue",
          "type": "bytes"
        }
      ],
      "name": "setDataForTokenId",
      "outputs": [],
      "stateMutability": "nonpayable",
      "type": "function"
    },
    {
      "inputs": [
        {
          "internalType": "bytes4",
          "name": "interfaceId",
          "type": "bytes4"
        }
      ],
      "name": "supportsInterface",
      "outputs": [
        {
          "internalType": "bool",
          "name": "",
          "type": "bool"
        }
      ],
      "stateMutability": "view",
      "type": "function"
    },
    {
      "inputs": [
        {
          "internalType": "address",
          "name": "tokenOwner",
          "type": "address"
        }
      ],
      "name": "tokenIdsOf",
      "outputs": [
        {
          "internalType": "bytes32[]",
          "name": "",
          "type": "bytes32[]"
        }
      ],
      "stateMutability": "view",
      "type": "function"
    },
    {
      "inputs": [
        {
          "internalType": "bytes32",
          "name": "tokenId",
          "type": "bytes32"
        }
      ],
      "name": "tokenOwnerOf",
      "outputs": [
        {
          "internalType": "address",
          "name": "",
          "type": "address"
        }
      ],
      "stateMutability": "view",
      "type": "function"
    },
    {
      "inputs": [],
      "name": "totalSupply",
      "outputs": [
        {
          "internalType": "uint256",
          "name": "",
          "type": "uint256"
        }
      ],
      "stateMutability": "view",
      "type": "function"
    },
    {
      "inputs": [
        {
          "internalType": "address",
          "name": "from",
          "type": "address"
        },
        {
          "internalType": "address",
          "name": "to",
          "type": "address"
        },
        {
          "internalType": "bytes32",
          "name": "tokenId",
          "type": "bytes32"
        },
        {
          "internalType": "bool",
          "name": "force",
          "type": "bool"
        },
        {
          "internalType": "bytes",
          "name": "data",
          "type": "bytes"
        }
      ],
      "name": "transfer",
      "outputs": [],
      "stateMutability": "nonpayable",
      "type": "function"
    },
    {
      "inputs": [
        {
          "internalType": "address[]",
          "name": "from",
          "type": "address[]"
        },
        {
          "internalType": "address[]",
          "name": "to",
          "type": "address[]"
        },
        {
          "internalType": "bytes32[]",
          "name": "tokenId",
          "type": "bytes32[]"
        },
        {
          "internalType": "bool[]",
          "name": "force",
          "type": "bool[]"
        },
        {
          "internalType": "bytes[]",
          "name": "data",
          "type": "bytes[]"
        }
      ],
      "name": "transferBatch",
      "outputs": [],
      "stateMutability": "nonpayable",
      "type": "function"
    },
    {
      "inputs": [
        {
          "internalType": "address",
          "name": "newOwner",
          "type": "address"
        }
      ],
      "name": "transferOwnership",
      "outputs": [],
      "stateMutability": "nonpayable",
      "type": "function"
    },
    {
      "stateMutability": "payable",
      "type": "receive"
    }
  ],
  "args": [
    "LSP8 Mintable",
    "LSP8M",
    "0x983aBC616f2442bAB7a917E6bb8660Df8b01F3bF",
    0,
    0
  ],
  "numDeployments": 1,
  "solcInputHash": "9b2ce31657456bfe71ca9ff8dcb23609",
  "bytecode": "0x60806040523480156200001157600080fd5b50604051620035a4380380620035a4833981016040819052620000349162000473565b848484848484848484816001600160a01b03811662000066576040516306b620db60e21b815260040160405180910390fd5b6200007c816200020160201b620010e71760201c565b50620000d37feafec4d89fa9619884b60000a4d96624a38f7ac2d8d9a604ecf07c12c77e480c60001b604051806040016040528060048152602001632936598960e21b8152506200026f60201b620011621760201c565b6200010d7fdeba1e292f8ba88238e10ab3c7f88bd4be4fac56cad5194b6ecceaf653468af160001b856200026f60201b620011621760201c565b620001477f2f0a68ab07768e01943a599e73362a0e17a63a72e94dd2e384d2c1d4db93275660001b846200026f60201b620011621760201c565b60408051602081018390526200019a917fe0261fa95db2eb3b5439bd033cda66d56b96f92f243a8228fd87550ed7bdfdb391016040516020818303038152906040526200026f60201b620011621760201c565b50506040805160208101859052620001f193507ff675e9361af1c1664c1868cfa3eb97672d6b1a513aa5b81dec34c9ee330e818d925001604051602081830303815290604052620002c860201b620011b71760201c565b50505050505050505050620006a1565b6000546001600160a01b038281169116146200026c57600080546040516001600160a01b03808516939216917f8be0079c531659141344cd1fd0a4f28419497f9722a3daafe3b4186f6b6457e091a3600080546001600160a01b0319166001600160a01b0383161790555b50565b6000828152600160205260409020620002898282620005a0565b50817fece574603820d07bc9b91f2a932baadf4628aabcb8afba49776529c14a6104b282604051620002bc91906200066c565b60405180910390a25050565b620002df8282620002e360201b620011bd1760201c565b5050565b7f2145e1d6d074577dc71ef54c3807742b41b053a9352ae6b491331509acb9750f820162000324576040516385c169bd60e01b815260040160405180910390fd5b7fd0f59754f88971fe6bc5a6618cc9d5f1e859c58d16b22d1c7b2d3e2b246cd8aa82016200036557604051630eceab6760e31b815260040160405180910390fd5b7f1fd9e056a24d14c4abc642fcc325992a946906d0dbc57dd70278aaf12842024d82016200026f57604051634ef6d7fb60e01b815260040160405180910390fd5b634e487b7160e01b600052604160045260246000fd5b60005b83811015620003d9578181015183820152602001620003bf565b50506000910152565b600082601f830112620003f457600080fd5b81516001600160401b0380821115620004115762000411620003a6565b604051601f8301601f19908116603f011681019082821181831017156200043c576200043c620003a6565b816040528381528660208588010111156200045657600080fd5b62000469846020830160208901620003bc565b9695505050505050565b600080600080600060a086880312156200048c57600080fd5b85516001600160401b0380821115620004a457600080fd5b620004b289838a01620003e2565b96506020880151915080821115620004c957600080fd5b50620004d888828901620003e2565b604088015190955090506001600160a01b0381168114620004f857600080fd5b6060870151608090970151959894975095949392505050565b600181811c908216806200052657607f821691505b6020821081036200054757634e487b7160e01b600052602260045260246000fd5b50919050565b601f8211156200059b57600081815260208120601f850160051c81016020861015620005765750805b601f850160051c820191505b81811015620005975782815560010162000582565b5050505b505050565b81516001600160401b03811115620005bc57620005bc620003a6565b620005d481620005cd845462000511565b846200054d565b602080601f8311600181146200060c5760008415620005f35750858301515b600019600386901b1c1916600185901b17855562000597565b600085815260208120601f198616915b828110156200063d578886015182559484019460019091019084016200061c565b50858210156200065c5787850151600019600388901b60f8161c191681555b5050505050600190811b01905550565b60208152600082518060208401526200068d816040850160208701620003bc565b601f01601f19169190910160400192915050565b612ef380620006b16000396000f3fe60806040526004361061018f5760003560e01c80637e87632c116100d6578063af255b611161007f578063db8c966311610059578063db8c96631461051f578063dedff9c61461053f578063f2fde38b1461055f57610203565b8063af255b61146104bf578063be9f0e6f146104df578063d6c1407c146104ff57610203565b80638da5cb5b116100b05780638da5cb5b14610461578063979024211461047f578063a3b261f21461049257610203565b80637e87632c1461040e5780637f23690c1461042e57806386a10ddd1461044157610203565b806349a6078d116101385780636963d438116101125780636963d438146103b957806370a08231146103d9578063715018a6146103f957610203565b806349a6078d1461034a578063511b69521461037757806354f6127f1461039957610203565b80631d26fce6116101695780631d26fce6146102c5578063217b2270146102f25780632a3654a41461032a57610203565b806301ffc9a71461024457806316e023b31461027957806318160ddd146102a657610203565b3661020357346000036101d15760405163e5099ee360e01b81526004016101c89060208082526004908201526000604082015260600190565b60405180910390fd5b6040517f61f4944200000000000000000000000000000000000000000000000000000000815260040160405180910390fd5b6000366060600482101561022e57828260405163e5099ee360e01b81526004016101c8929190612186565b610238838361057f565b80519350602001915050f35b34801561025057600080fd5b5061026461025f3660046121b5565b61068e565b60405190151581526020015b60405180910390f35b34801561028557600080fd5b506102996102943660046121df565b6106db565b6040516102709190612251565b3480156102b257600080fd5b506002545b604051908152602001610270565b3480156102d157600080fd5b506102e56102e036600461233a565b6106ee565b604051610270919061239e565b3480156102fe57600080fd5b5061031261030d366004612400565b6107d6565b6040516001600160a01b039091168152602001610270565b34801561033657600080fd5b50610264610345366004612435565b61080f565b34801561035657600080fd5b5061036a610365366004612400565b61081b565b604051610270919061245f565b34801561038357600080fd5b50610397610392366004612535565b61083d565b005b3480156103a557600080fd5b506102996103b4366004612400565b61089a565b3480156103c557600080fd5b506102e56103d43660046125ae565b6108a5565b3480156103e557600080fd5b506102b76103f4366004612623565b6109ee565b34801561040557600080fd5b50610397610a0f565b34801561041a57600080fd5b50610397610429366004612782565b610a23565b61039761043c366004612847565b610b2b565b34801561044d57600080fd5b5061039761045c366004612884565b610b60565b34801561046d57600080fd5b506000546001600160a01b0316610312565b61039761048d3660046128db565b610cf3565b34801561049e57600080fd5b506104b26104ad366004612623565b610de5565b6040516102709190612935565b3480156104cb57600080fd5b506103976104da36600461296d565b610e09565b3480156104eb57600080fd5b506103976104fa3660046129d5565b610e23565b34801561050b57600080fd5b5061039761051a366004612a53565b610f01565b34801561052b57600080fd5b5061039761053a36600461296d565b610f14565b34801561054b57600080fd5b506102e561055a366004612a8d565b610fe8565b34801561056b57600080fd5b5061039761057a366004612623565b611093565b606060006105986000356001600160e01b0319166112c8565b5090506001600160a01b0381166105e9576040517fbb370b2b0000000000000000000000000000000000000000000000000000000081526001600160e01b03196000351660048201526024016101c8565b600080826001600160a01b0316348787333460405160200161060e9493929190612ac2565b60408051601f198184030181529082905261062891612af2565b60006040518083038185875af1925050503d8060008114610665576040519150601f19603f3d011682016040523d82523d6000602084013e61066a565b606091505b5091509150811561067f579250610688915050565b80518060208301fd5b92915050565b60006001600160e01b031982167f3a2717060000000000000000000000000000000000000000000000000000000014806106cc57506106cc82611372565b806106885750610688826113b0565b60606106e783836113e7565b9392505050565b60608151835114610712576040516317d38eff60e11b815260040160405180910390fd5b825167ffffffffffffffff81111561072c5761072c612264565b60405190808252806020026020018201604052801561075f57816020015b606081526020019060019003908161074a5790505b50905060005b83518110156107cf576107aa84828151811061078357610783612b0e565b602002602001015184838151811061079d5761079d612b0e565b60200260200101516113e7565b8282815181106107bc576107bc612b0e565b6020908102919091010152600101610765565b5092915050565b6000818152600360205260408120546001600160a01b03168061068857604051635747cd1b60e11b8152600481018490526024016101c8565b60006106e783836114be565b6060610826826114fb565b600082815260056020526040902061068890611533565b61084733846114be565b610886576040517f1294d2a9000000000000000000000000000000000000000000000000000000008152600481018490523360248201526044016101c8565b6108938585858585611540565b5050505050565b606061068882611793565b60608167ffffffffffffffff8111156108c0576108c0612264565b6040519080825280602002602001820160405280156108f357816020015b60608152602001906001900390816108de5790505b50905060005b828110156107cf576000803086868581811061091757610917612b0e565b90506020028101906109299190612b24565b604051610937929190612b72565b600060405180830381855af49150503d8060008114610972576040519150601f19603f3d011682016040523d82523d6000602084013e610977565b606091505b5091509150816109c6578051156109915780518082602001fd5b6040517f234eb819000000000000000000000000000000000000000000000000000000008152600481018490526024016101c8565b808484815181106109d9576109d9612b0e565b602090810291909101015250506001016108f9565b6001600160a01b038116600090815260046020526040812061068890611835565b610a1761183f565b610a2160006110e7565b565b8451845181141580610a36575083518114155b80610a42575082518114155b80610a4e575081518114155b15610a85576040517f93a8311900000000000000000000000000000000000000000000000000000000815260040160405180910390fd5b60005b81811015610b2257610b1a878281518110610aa557610aa5612b0e565b6020026020010151878381518110610abf57610abf612b0e565b6020026020010151878481518110610ad957610ad9612b0e565b6020026020010151878581518110610af357610af3612b0e565b6020026020010151878681518110610b0d57610b0d612b0e565b602002602001015161083d565b600101610a88565b50505050505050565b610b3361183f565b3415610b525760405163f36ba73760e01b815260040160405180910390fd5b610b5c8282611894565b5050565b6000610b6b836107d6565b90506001600160a01b0381163314610bae57604051632d938f5160e11b81526001600160a01b0382166004820152602481018490523360448201526064016101c8565b6001600160a01b038416610bd557604051639577b8b360e01b815260040160405180910390fd5b836001600160a01b0316816001600160a01b031603610c07576040516344fed6b160e11b815260040160405180910390fd5b6000838152600560205260408120610c1f90866118f7565b905080610c6a576040517fa7626b680000000000000000000000000000000000000000000000000000000081526001600160a01b0386166004820152602481018590526044016101c8565b83826001600160a01b0316866001600160a01b03167f1b1b58aa2ec0cec2228b2d37124556d41f5a1f7b12f089171f896cc23667121586604051610cae9190612251565b60405180910390a460003385600186604051602001610cd09493929190612b82565b6040516020818303038152906040529050610ceb868261190c565b505050505050565b610cfb61183f565b3415610d1a5760405163f36ba73760e01b815260040160405180910390fd5b8051825114610d55576040517f3bcc897900000000000000000000000000000000000000000000000000000000815260040160405180910390fd5b8151600003610d90576040517f97da5f9500000000000000000000000000000000000000000000000000000000815260040160405180910390fd5b60005b8251811015610de057610dd8838281518110610db157610db1612b0e565b6020026020010151838381518110610dcb57610dcb612b0e565b6020026020010151611894565b600101610d93565b505050565b6001600160a01b038116600090815260046020526040902060609061068890611533565b610e1161183f565b610e1d84848484611937565b50505050565b610e2b61183f565b81518351141580610e3e57508051825114155b15610e5c576040516317d38eff60e11b815260040160405180910390fd5b8251600003610e97576040517f80c9830500000000000000000000000000000000000000000000000000000000815260040160405180910390fd5b60005b8351811015610e1d57610ef9848281518110610eb857610eb8612b0e565b6020026020010151848381518110610ed257610ed2612b0e565b6020026020010151848481518110610eec57610eec612b0e565b6020026020010151611ab4565b600101610e9a565b610f0961183f565b610de0838383611ab4565b6000610f1f846107d6565b90506001600160a01b0381163314610f6257604051632d938f5160e11b81526001600160a01b0382166004820152602481018590523360448201526064016101c8565b6001600160a01b038516610f8957604051639577b8b360e01b815260040160405180910390fd5b846001600160a01b0316816001600160a01b031603610fbb576040516344fed6b160e11b815260040160405180910390fd5b610fc88582868686611b44565b82156108935760003385600085604051602001610cd09493929190612b82565b6060815167ffffffffffffffff81111561100457611004612264565b60405190808252806020026020018201604052801561103757816020015b60608152602001906001900390816110225790505b50905060005b825181101561108d5761106883828151811061105b5761105b612b0e565b6020026020010151611793565b82828151811061107a5761107a612b0e565b602090810291909101015260010161103d565b50919050565b61109b61183f565b6001600160a01b0381166110db576040517f1ad8836c00000000000000000000000000000000000000000000000000000000815260040160405180910390fd5b6110e4816110e7565b50565b6000546001600160a01b038281169116146110e457600080546040516001600160a01b03808516939216917f8be0079c531659141344cd1fd0a4f28419497f9722a3daafe3b4186f6b6457e091a3600080546001600160a01b03831673ffffffffffffffffffffffffffffffffffffffff1990911617905550565b600082815260016020526040902061117a8282612c36565b50817fece574603820d07bc9b91f2a932baadf4628aabcb8afba49776529c14a6104b2826040516111ab9190612251565b60405180910390a25050565b610b5c82825b7f2145e1d6d074577dc71ef54c3807742b41b053a9352ae6b491331509acb9750f8201611216576040517f85c169bd00000000000000000000000000000000000000000000000000000000815260040160405180910390fd5b7fd0f59754f88971fe6bc5a6618cc9d5f1e859c58d16b22d1c7b2d3e2b246cd8aa820161126f576040517f76755b3800000000000000000000000000000000000000000000000000000000815260040160405180910390fd5b7f1fd9e056a24d14c4abc642fcc325992a946906d0dbc57dd70278aaf12842024d8201611162576040517f4ef6d7fb00000000000000000000000000000000000000000000000000000000815260040160405180910390fd5b600080806113007fcee78b4094da86011096000000000000000000000000000000000000000000006001600160e01b03198616611bfd565b9050600061130d82611793565b905080516014141580156113215750805115155b1561135a57806040517f42bfe79f0000000000000000000000000000000000000000000000000000000081526004016101c89190612251565b61136381612cf6565b60601c95600195509350505050565b60006001600160e01b031982167fa918fa6b000000000000000000000000000000000000000000000000000000001480610688575061068882611c6e565b6000806113c36301ffc9a760e01b6112c8565b5090506001600160a01b0381166113dd5750600092915050565b6106e78184611cbc565b6060600160008484604051602001611409929190918252602082015260400190565b604051602081830303815290604052805190602001208152602001908152602001600020805461143890612bbc565b80601f016020809104026020016040519081016040528092919081815260200182805461146490612bbc565b80156114b15780601f10611486576101008083540402835291602001916114b1565b820191906000526020600020905b81548152906001019060200180831161149457829003601f168201915b5050505050905092915050565b60006114c9826107d6565b6001600160a01b0316836001600160a01b031614806106e7575060008281526005602052604090206106e79084611d5a565b6000818152600360205260409020546001600160a01b03166110e457604051635747cd1b60e11b8152600481018290526024016101c8565b606060006106e783611d7c565b836001600160a01b0316856001600160a01b03160361158b576040517f5d67d6c100000000000000000000000000000000000000000000000000000000815260040160405180910390fd5b6000611596846107d6565b9050856001600160a01b0316816001600160a01b0316146115e457604051632d938f5160e11b81526001600160a01b03808316600483015260248201869052871660448201526064016101c8565b6001600160a01b03851661160b576040516324ecef4d60e01b815260040160405180910390fd5b6000611616856107d6565b9050806001600160a01b0316826001600160a01b03161461167d576040517f5a9c31d3000000000000000000000000000000000000000000000000000000008152600481018690526001600160a01b038084166024830152821660448201526064016101c8565b6116878786611dd7565b6001600160a01b03871660009081526004602052604090206116a99086611e2f565b506001600160a01b03861660009081526004602052604090206116cc9086611e3b565b5060008581526003602052604090819020805473ffffffffffffffffffffffffffffffffffffffff19166001600160a01b0389811691821790925591518792918a16907fb333c813a7426a7a11e2b190cad52c44119421594b47f6f32ace6d8c7207b2bf906117409033908a908a90612d32565b60405180910390a460003388888887604051602001611763959493929190612d65565b604051602081830303815290604052905061177e8882611e47565b611789878683611e72565b5050505050505050565b60008181526001602052604090208054606091906117b090612bbc565b80601f01602080910402602001604051908101604052809291908181526020018280546117dc90612bbc565b80156118295780601f106117fe57610100808354040283529160200191611829565b820191906000526020600020905b81548152906001019060200180831161180c57829003601f168201915b50505050509050919050565b6000610688825490565b336118526000546001600160a01b031690565b6001600160a01b031614610a21576040517fbf1169c50000000000000000000000000000000000000000000000000000000081523360048201526024016101c8565b7f098a16c9e50e3e99b3e797305c146898d294e5aec55a47e213cb3611ccf17e7382016118ed576040517f3664800a00000000000000000000000000000000000000000000000000000000815260040160405180910390fd5b610b5c82826111b7565b60006106e7836001600160a01b038416611fac565b610b5c827f8a1c15a8799f71b547e08e2bcb2e85257e81b0a07eee2ce6712549eef1f0097083611ffb565b6001600160a01b03841661195e576040516324ecef4d60e01b815260040160405180910390fd5b6000838152600360205260409020546001600160a01b031615611997576040516334c7b51160e01b8152600481018490526024016101c8565b6000838152600360205260409020546001600160a01b0316156119d0576040516334c7b51160e01b8152600481018490526024016101c8565b6002600081546119df90612db5565b909155506001600160a01b0384166000908152600460205260409020611a059084611e3b565b50600083815260036020526040808220805473ffffffffffffffffffffffffffffffffffffffff19166001600160a01b03881690811790915590518592907fb333c813a7426a7a11e2b190cad52c44119421594b47f6f32ace6d8c7207b2bf90611a7490339088908890612d32565b60405180910390a46000336000868685604051602001611a98959493929190612d65565b6040516020818303038152906040529050610893858483611e72565b80600160008585604051602001611ad5929190918252602082015260400190565b6040516020818303038152906040528051906020012081526020019081526020016000209081611b059190612c36565b5081837fa6e4251f855f750545fe414f120db91c76b88def14d120969e5bb2d3f05debbb83604051611b379190612251565b60405180910390a3505050565b6000838152600560205260408120611b5c9087612048565b905080611ba7576040517f4aa31a8c0000000000000000000000000000000000000000000000000000000081526001600160a01b0387166004820152602481018590526044016101c8565b83856001600160a01b0316876001600160a01b03167fc78cd419d6136f9f1c1c6aec1d3fae098cffaf8bc86314a8f2685e32fe574e3c8686604051611bed929190612dce565b60405180910390a4505050505050565b604080517fffffffffffffffffffff00000000000000000000000000000000000000000000841660208201526000602a82018190526bffffffffffffffffffffffff198416602c83015291829101604051602081830303815290604052905080611c6690612de9565b949350505050565b60006001600160e01b031982167f629aa69400000000000000000000000000000000000000000000000000000000148061068857506301ffc9a760e01b6001600160e01b0319831614610688565b604080516001600160e01b03198316602480830191909152825180830390910181526044909101909152602080820180517bffffffffffffffffffffffffffffffffffffffffffffffffffffffff166301ffc9a760e01b178152825160009392849283928392918391908a617530fa92503d91506000519050828015611d43575060208210155b8015611d4f5750600081115b979650505050505050565b6001600160a01b038116600090815260018301602052604081205415156106e7565b60608160000180548060200260200160405190810160405280929190818152602001828054801561182957602002820191906000526020600020905b815481526020019060010190808311611db85750505050509050919050565b600081815260056020526040812090611def82611835565b90506000805b82811015610ceb57611e0884600061205d565b9150611e27828787600060405180602001604052806000815250611b44565b600101611df5565b60006106e78383612069565b60006106e78383611fac565b610b5c827fb23eae7e6d1564b295b4c3e3be402d9a2f0776c57bdf365903496f6fa481ab0083611ffb565b611e8383631aed5a8560e21b611cbc565b15611f1d57604051631aed5a8560e21b81526001600160a01b03841690636bb56a1490611ed6907f0b084a55ebf70fd3c06fd755269dac2212c4d3f0f4d09079780bfa50c1b2984d908590600401612e0d565b6000604051808303816000875af1158015611ef5573d6000803e3d6000fd5b505050506040513d6000823e601f3d908101601f19168201604052610e1d9190810190612e26565b81610de0576001600160a01b0383163b15611f6f576040517f4349776d0000000000000000000000000000000000000000000000000000000081526001600160a01b03841660048201526024016101c8565b6040517f031731370000000000000000000000000000000000000000000000000000000081526001600160a01b03841660048201526024016101c8565b6000818152600183016020526040812054611ff357508154600181810184556000848152602080822090930184905584548482528286019093526040902091909155610688565b506000610688565b6120156001600160a01b038416631aed5a8560e21b611cbc565b15610de057604051631aed5a8560e21b81526001600160a01b03841690636bb56a1490611ed69085908590600401612e0d565b60006106e7836001600160a01b038416612069565b60006106e7838361215c565b6000818152600183016020526040812054801561215257600061208d600183612e94565b85549091506000906120a190600190612e94565b90508181146121065760008660000182815481106120c1576120c1612b0e565b90600052602060002001549050808760000184815481106120e4576120e4612b0e565b6000918252602080832090910192909255918252600188019052604090208390555b855486908061211757612117612ea7565b600190038181906000526020600020016000905590558560010160008681526020019081526020016000206000905560019350505050610688565b6000915050610688565b600082600001828154811061217357612173612b0e565b9060005260206000200154905092915050565b60208152816020820152818360408301376000818301604090810191909152601f909201601f19160101919050565b6000602082840312156121c757600080fd5b81356001600160e01b0319811681146106e757600080fd5b600080604083850312156121f257600080fd5b50508035926020909101359150565b60005b8381101561221c578181015183820152602001612204565b50506000910152565b6000815180845261223d816020860160208601612201565b601f01601f19169290920160200192915050565b6020815260006106e76020830184612225565b634e487b7160e01b600052604160045260246000fd5b604051601f8201601f1916810167ffffffffffffffff811182821017156122a3576122a3612264565b604052919050565b600067ffffffffffffffff8211156122c5576122c5612264565b5060051b60200190565b600082601f8301126122e057600080fd5b813560206122f56122f0836122ab565b61227a565b82815260059290921b8401810191818101908684111561231457600080fd5b8286015b8481101561232f5780358352918301918301612318565b509695505050505050565b6000806040838503121561234d57600080fd5b823567ffffffffffffffff8082111561236557600080fd5b612371868387016122cf565b9350602085013591508082111561238757600080fd5b50612394858286016122cf565b9150509250929050565b6000602080830181845280855180835260408601915060408160051b870101925083870160005b828110156123f357603f198886030184526123e1858351612225565b945092850192908501906001016123c5565b5092979650505050505050565b60006020828403121561241257600080fd5b5035919050565b80356001600160a01b038116811461243057600080fd5b919050565b6000806040838503121561244857600080fd5b61245183612419565b946020939093013593505050565b6020808252825182820181905260009190848201906040850190845b818110156124a05783516001600160a01b03168352928401929184019160010161247b565b50909695505050505050565b8035801515811461243057600080fd5b600067ffffffffffffffff8211156124d6576124d6612264565b50601f01601f191660200190565b600082601f8301126124f557600080fd5b81356125036122f0826124bc565b81815284602083860101111561251857600080fd5b816020850160208301376000918101602001919091529392505050565b600080600080600060a0868803121561254d57600080fd5b61255686612419565b945061256460208701612419565b935060408601359250612579606087016124ac565b9150608086013567ffffffffffffffff81111561259557600080fd5b6125a1888289016124e4565b9150509295509295909350565b600080602083850312156125c157600080fd5b823567ffffffffffffffff808211156125d957600080fd5b818501915085601f8301126125ed57600080fd5b8135818111156125fc57600080fd5b8660208260051b850101111561261157600080fd5b60209290920196919550909350505050565b60006020828403121561263557600080fd5b6106e782612419565b600082601f83011261264f57600080fd5b8135602061265f6122f0836122ab565b82815260059290921b8401810191818101908684111561267e57600080fd5b8286015b8481101561232f5761269381612419565b8352918301918301612682565b600082601f8301126126b157600080fd5b813560206126c16122f0836122ab565b82815260059290921b840181019181810190868411156126e057600080fd5b8286015b8481101561232f576126f5816124ac565b83529183019183016126e4565b600082601f83011261271357600080fd5b813560206127236122f0836122ab565b82815260059290921b8401810191818101908684111561274257600080fd5b8286015b8481101561232f57803567ffffffffffffffff8111156127665760008081fd5b6127748986838b01016124e4565b845250918301918301612746565b600080600080600060a0868803121561279a57600080fd5b853567ffffffffffffffff808211156127b257600080fd5b6127be89838a0161263e565b965060208801359150808211156127d457600080fd5b6127e089838a0161263e565b955060408801359150808211156127f657600080fd5b61280289838a016122cf565b9450606088013591508082111561281857600080fd5b61282489838a016126a0565b9350608088013591508082111561283a57600080fd5b506125a188828901612702565b6000806040838503121561285a57600080fd5b82359150602083013567ffffffffffffffff81111561287857600080fd5b612394858286016124e4565b60008060006060848603121561289957600080fd5b6128a284612419565b925060208401359150604084013567ffffffffffffffff8111156128c557600080fd5b6128d1868287016124e4565b9150509250925092565b600080604083850312156128ee57600080fd5b823567ffffffffffffffff8082111561290657600080fd5b612912868387016122cf565b9350602085013591508082111561292857600080fd5b5061239485828601612702565b6020808252825182820181905260009190848201906040850190845b818110156124a057835183529284019291840191600101612951565b6000806000806080858703121561298357600080fd5b61298c85612419565b9350602085013592506129a1604086016124ac565b9150606085013567ffffffffffffffff8111156129bd57600080fd5b6129c9878288016124e4565b91505092959194509250565b6000806000606084860312156129ea57600080fd5b833567ffffffffffffffff80821115612a0257600080fd5b612a0e878388016122cf565b94506020860135915080821115612a2457600080fd5b612a30878388016122cf565b93506040860135915080821115612a4657600080fd5b506128d186828701612702565b600080600060608486031215612a6857600080fd5b8335925060208401359150604084013567ffffffffffffffff8111156128c557600080fd5b600060208284031215612a9f57600080fd5b813567ffffffffffffffff811115612ab657600080fd5b611c66848285016122cf565b8385823760609290921b6bffffffffffffffffffffffff1916919092019081526014810191909152603401919050565b60008251612b04818460208701612201565b9190910192915050565b634e487b7160e01b600052603260045260246000fd5b6000808335601e19843603018112612b3b57600080fd5b83018035915067ffffffffffffffff821115612b5657600080fd5b602001915036819003821315612b6b57600080fd5b9250929050565b8183823760009101908152919050565b6001600160a01b03851681528360208201528215156040820152608060608201526000612bb26080830184612225565b9695505050505050565b600181811c90821680612bd057607f821691505b60208210810361108d57634e487b7160e01b600052602260045260246000fd5b601f821115610de057600081815260208120601f850160051c81016020861015612c175750805b601f850160051c820191505b81811015610ceb57828155600101612c23565b815167ffffffffffffffff811115612c5057612c50612264565b612c6481612c5e8454612bbc565b84612bf0565b602080601f831160018114612c995760008415612c815750858301515b600019600386901b1c1916600185901b178555610ceb565b600085815260208120601f198616915b82811015612cc857888601518255948401946001909101908401612ca9565b5085821015612ce65787850151600019600388901b60f8161c191681555b5050505050600190811b01905550565b805160208201516bffffffffffffffffffffffff198082169291906014831015612d2a5780818460140360031b1b83161693505b505050919050565b6001600160a01b03841681528215156020820152606060408201526000612d5c6060830184612225565b95945050505050565b60006001600160a01b038088168352808716602084015280861660408401525083606083015260a06080830152611d4f60a0830184612225565b634e487b7160e01b600052601160045260246000fd5b600060018201612dc757612dc7612d9f565b5060010190565b8215158152604060208201526000611c666040830184612225565b8051602080830151919081101561108d5760001960209190910360031b1b16919050565b828152604060208201526000611c666040830184612225565b600060208284031215612e3857600080fd5b815167ffffffffffffffff811115612e4f57600080fd5b8201601f81018413612e6057600080fd5b8051612e6e6122f0826124bc565b818152856020838501011115612e8357600080fd5b612d5c826020830160208601612201565b8181038181111561068857610688612d9f565b634e487b7160e01b600052603160045260246000fdfea2646970667358221220c3c1412a48e489f39caa653c9c434d5d83b71ab04a8cc5b83e0623c54a9748d664736f6c63430008110033",
  "devdoc": {
    "errors": {
      "ERC725Y_DataKeysValuesEmptyArray()": [
        {
          "details": "Reverts when one of the array parameter provided to {setDataBatch} function is an empty array."
        }
      ],
      "ERC725Y_DataKeysValuesLengthMismatch()": [
        {
          "details": "Reverts when there is not the same number of elements in the `datakeys` and `dataValues` array parameters provided when calling the {setDataBatch} function."
        }
      ],
      "ERC725Y_MsgValueDisallowed()": [
        {
          "details": "Reverts when sending value to the {setData} or {setDataBatch} function."
        }
      ],
      "InvalidExtensionAddress(bytes)": [
        {
          "details": "reverts when the bytes retrieved from the LSP17 data key is not a valid address (not 20 bytes)"
        }
      ],
      "InvalidFunctionSelector(bytes)": [
        {
          "details": "reverts when the contract is called with a function selector not valid (less than 4 bytes of data)"
        }
      ],
      "LSP4TokenNameNotEditable()": [
        {
          "details": "Reverts when trying to edit the data key `LSP4TokenName` after the digital asset contract has been deployed / initialized. The `LSP4TokenName` data key is located inside the ERC725Y data key-value store of the digital asset contract. It can be set only once inside the constructor/initializer when the digital asset contract is being deployed / initialized."
        }
      ],
      "LSP4TokenSymbolNotEditable()": [
        {
          "details": "Reverts when trying to edit the data key `LSP4TokenSymbol` after the digital asset contract has been deployed / initialized. The `LSP4TokenSymbol` data key is located inside the ERC725Y data key-value store of the digital asset contract. It can be set only once inside the constructor/initializer when the digital asset contract is being deployed / initialized."
        }
      ],
      "LSP4TokenTypeNotEditable()": [
        {
          "details": "Reverts when trying to edit the data key `LSP4TokenType` after the digital asset contract has been deployed / initialized. The `LSP4TokenType` data key is located inside the ERC725Y data key-value store of the digital asset contract. It can be set only once inside the constructor / initializer when the digital asset contract is being deployed / initialized."
        }
      ],
      "LSP8BatchCallFailed(uint256)": [
        {
          "details": "Reverts when a batch call failed."
        }
      ],
      "LSP8CannotSendToAddressZero()": [
        {
          "details": "Reverts when trying to send token to the zero address."
        }
      ],
      "LSP8CannotSendToSelf()": [
        {
          "details": "Reverts when specifying the same address for `from` and `to` in a token transfer."
        }
      ],
      "LSP8CannotUseAddressZeroAsOperator()": [
        {
          "details": "Reverts when trying to set the zero address as an operator."
        }
      ],
      "LSP8InvalidTransferBatch()": [
        {
          "details": "Reverts when the parameters used for `transferBatch` have different lengths."
        }
      ],
      "LSP8NonExistentTokenId(bytes32)": [
        {
          "details": "Reverts when `tokenId` has not been minted."
        }
      ],
      "LSP8NonExistingOperator(address,bytes32)": [
        {
          "details": "Reverts when `operator` is not an operator for the `tokenId`."
        }
      ],
      "LSP8NotTokenOperator(bytes32,address)": [
        {
          "details": "Reverts when `caller` is not an allowed operator for `tokenId`."
        }
      ],
      "LSP8NotTokenOwner(address,bytes32,address)": [
        {
          "details": "Reverts when `caller` is not the `tokenOwner` of the `tokenId`."
        }
      ],
      "LSP8NotifyTokenReceiverContractMissingLSP1Interface(address)": [
        {
          "details": "Reverts if the `tokenReceiver` does not implement LSP1 when minting or transferring tokens with `bool force` set as `false`."
        }
      ],
      "LSP8NotifyTokenReceiverIsEOA(address)": [
        {
          "details": "Reverts if the `tokenReceiver` is an EOA when minting or transferring tokens with `bool force` set as `false`."
        }
      ],
      "LSP8OperatorAlreadyAuthorized(address,bytes32)": [
        {
          "details": "Reverts when `operator` is already authorized for the `tokenId`."
        }
      ],
      "LSP8TokenContractCannotHoldValue()": [
        {
          "details": "Error occurs when sending native tokens to the LSP8 contract without sending any data. E.g. Sending value without passing a bytes4 function selector to call a LSP17 Extension."
        }
      ],
      "LSP8TokenIdAlreadyMinted(bytes32)": [
        {
          "details": "Reverts when `tokenId` has already been minted."
        }
      ],
      "LSP8TokenIdFormatNotEditable()": [
        {
          "details": "Reverts when trying to edit the data key `LSP8TokenIdFormat` after the identifiable digital asset contract has been deployed. The `LSP8TokenIdFormat` data key is located inside the ERC725Y Data key-value store of the identifiable digital asset contract. It can be set only once inside the constructor/initializer when the identifiable digital asset contract is being deployed."
        }
      ],
      "LSP8TokenIdsDataEmptyArray()": [
        {
          "details": "Reverts when empty arrays is passed to the function"
        }
      ],
      "LSP8TokenIdsDataLengthMismatch()": [
        {
          "details": "Reverts when the length of the token IDs data arrays is not equal"
        }
      ],
      "LSP8TokenOwnerCannotBeOperator()": [
        {
          "details": "Reverts when trying to authorize or revoke the token's owner as an operator."
        }
      ],
      "LSP8TokenOwnerChanged(bytes32,address,address)": [
        {
          "details": "Reverts when the token owner changed inside the {_beforeTokenTransfer} hook."
        }
      ],
      "NoExtensionFoundForFunctionSelector(bytes4)": [
        {
          "details": "reverts when there is no extension for the function selector being called with"
        }
      ],
      "OwnableCallerNotTheOwner(address)": [
        {
          "details": "Reverts when only the owner is allowed to call the function.",
          "params": {
            "callerAddress": "The address that tried to make the call."
          }
        }
      ],
      "OwnableCannotSetZeroAddressAsOwner()": [
        {
          "details": "Reverts when trying to set `address(0)` as the contract owner when deploying the contract, initializing it or transferring ownership of the contract."
        }
      ]
    },
    "kind": "dev",
    "methods": {
      "authorizeOperator(address,bytes32,bytes)": {
        "details": "Allow an `operator` address to transfer or burn a specific `tokenId` on behalf of its token owner. See {isOperatorFor}. Notify the operator based on the LSP1-UniversalReceiver standard",
        "params": {
          "operator": "The address to authorize as an operator.",
          "operatorNotificationData": "The data to notify the operator about via LSP1.",
          "tokenId": "The token ID operator has access to."
        }
      },
      "balanceOf(address)": {
        "details": "Get the number of token IDs owned by `tokenOwner`.",
        "params": {
          "tokenOwner": "The address to query     *"
        },
        "returns": {
          "_0": "The total number of token IDs that `tokenOwner` owns."
        }
      },
      "batchCalls(bytes[])": {
        "custom:info": "It's not possible to send value along the functions call due to the use of `delegatecall`.",
        "details": "Allows a caller to batch different function calls in one call. Perform a `delegatecall` on self, to call different functions with preserving the context.",
        "params": {
          "data": "An array of ABI encoded function calls to be called on the contract."
        },
        "returns": {
          "results": "An array of abi-encoded data returned by the functions executed."
        }
      },
      "constructor": {
        "params": {
          "lsp4TokenType_": "The type of token this digital asset contract represents (`0` = Token, `1` = NFT, `2` = Collection).",
          "lsp8TokenIdFormat_": "The format of tokenIds (= NFTs) that this contract will create.",
          "name_": "The name of the token.",
          "newOwner_": "The owner of the token contract.",
          "symbol_": "The symbol of the token."
        }
      },
      "getData(bytes32)": {
        "details": "Get in the ERC725Y storage the bytes data stored at a specific data key `dataKey`.",
        "params": {
          "dataKey": "The data key for which to retrieve the value."
        },
        "returns": {
          "dataValue": "The bytes value stored under the specified data key."
        }
      },
      "getDataBatch(bytes32[])": {
        "details": "Get in the ERC725Y storage the bytes data stored at multiple data keys `dataKeys`.",
        "params": {
          "dataKeys": "The array of keys which values to retrieve"
        },
        "returns": {
          "dataValues": "The array of data stored at multiple keys"
        }
      },
      "getDataBatchForTokenIds(bytes32[],bytes32[])": {
        "params": {
          "dataKeys": "An array of data keys corresponding to the token IDs.",
          "tokenIds": "An array of token IDs."
        },
        "returns": {
          "dataValues": "An array of data values for each pair of `tokenId` and `dataKey`."
        }
      },
      "getDataForTokenId(bytes32,bytes32)": {
        "params": {
          "dataKey": "The key for the data to retrieve.",
          "tokenId": "The unique identifier for a token."
        },
        "returns": {
          "dataValue": "The data value associated with the given `tokenId` and `dataKey`."
        }
      },
      "getOperatorsOf(bytes32)": {
        "details": "Returns all `operator` addresses that are allowed to transfer or burn a specific `tokenId` on behalf of its owner.",
        "params": {
          "tokenId": "The token ID to get the operators for."
        },
        "returns": {
          "_0": "An array of operators allowed to transfer or burn a specific `tokenId`. Requirements - `tokenId` must exist."
        }
      },
      "isOperatorFor(address,bytes32)": {
        "details": "Returns whether `operator` address is an operator for a given `tokenId`.",
        "params": {
          "operator": "The address to query operator status for.",
          "tokenId": "The token ID to check if `operator` is allowed to operate on."
        },
        "returns": {
          "_0": "`true` if `operator` is an operator for `tokenId`, `false` otherwise."
        }
      },
      "mint(address,bytes32,bool,bytes)": {
        "details": "Public {_mint} function only callable by the {owner}.",
        "params": {
          "data": "Any addition data to be sent alongside the minting.",
          "force": "Set to `false` to ensure that you are minting for a recipient that implements LSP1, `false` otherwise for forcing the minting.",
          "to": "The address that will receive the minted `tokenId`.",
          "tokenId": "The tokenId to mint."
        }
      },
      "owner()": {
        "details": "Returns the address of the current owner."
      },
      "renounceOwnership()": {
        "details": "Leaves the contract without owner. It will not be possible to call `onlyOwner` functions anymore. Can only be called by the current owner. NOTE: Renouncing ownership will leave the contract without an owner, thereby removing any functionality that is only available to the owner."
      },
      "revokeOperator(address,bytes32,bool,bytes)": {
        "details": "Remove access of `operator` for a given `tokenId`, disallowing it to transfer `tokenId` on behalf of its owner. See also {isOperatorFor}.",
        "params": {
          "notify": "Boolean indicating whether to notify the operator or not",
          "operator": "The address to revoke as an operator.",
          "operatorNotificationData": "The data to notify the operator about via LSP1.",
          "tokenId": "The tokenId `operator` is revoked from operating on."
        }
      },
      "setData(bytes32,bytes)": {
        "custom:events": "{DataChanged} event.",
        "custom:requirements": "- SHOULD only be callable by the {owner}.",
        "custom:warning": "**Note for developers:** despite the fact that this function is set as `payable`, if the function is not intended to receive value (= native tokens), **an additional check should be implemented to ensure that `msg.value` sent was equal to 0**.",
        "details": "Sets a single bytes value `dataValue` in the ERC725Y storage for a specific data key `dataKey`. The function is marked as payable to enable flexibility on child contracts. For instance to implement a fee mechanism for setting specific data.",
        "params": {
          "dataKey": "The data key for which to set a new value.",
          "dataValue": "The new bytes value to set."
        }
      },
      "setDataBatch(bytes32[],bytes[])": {
        "custom:events": "{DataChanged} event **for each data key/value pair set**.",
        "custom:requirements": "- SHOULD only be callable by the {owner} of the contract.",
        "custom:warning": "**Note for developers:** despite the fact that this function is set as `payable`, if the function is not intended to receive value (= native tokens), **an additional check should be implemented to ensure that `msg.value` sent was equal to 0**.",
        "details": "Batch data setting function that behaves the same as {setData} but allowing to set multiple data key/value pairs in the ERC725Y storage in the same transaction.",
        "params": {
          "dataKeys": "An array of data keys to set bytes values for.",
          "dataValues": "An array of bytes values to set for each `dataKeys`."
        }
      },
      "setDataBatchForTokenIds(bytes32[],bytes32[],bytes[])": {
        "params": {
          "dataKeys": "An array of data keys corresponding to the token IDs.",
          "dataValues": "An array of values to set for the given data keys.",
          "tokenIds": "An array of token IDs."
        }
      },
      "setDataForTokenId(bytes32,bytes32,bytes)": {
        "params": {
          "dataKey": "The key for the data to set.",
          "dataValue": "The value to set for the given data key.",
          "tokenId": "The unique identifier for a token."
        }
      },
      "supportsInterface(bytes4)": {
        "details": "Returns true if this contract implements the interface defined by `interfaceId`. See the corresponding https://eips.ethereum.org/EIPS/eip-165#how-interfaces-are-identified[EIP section] to learn more about how these ids are created. This function call must use less than 30 000 gas."
      },
      "tokenIdsOf(address)": {
        "details": "Returns the list of token IDs that the `tokenOwner` address owns.",
        "params": {
          "tokenOwner": "The address that we want to get the list of token IDs for."
        },
        "returns": {
          "_0": "An array of `bytes32[] tokenIds` owned by `tokenOwner`."
        }
      },
      "tokenOwnerOf(bytes32)": {
        "details": "Returns the list of `tokenIds` for the `tokenOwner` address.",
        "params": {
          "tokenId": "tokenOwner The address to query owned tokens"
        },
        "returns": {
          "_0": "The owner address of the given `tokenId`."
        }
      },
      "totalSupply()": {
        "details": "Returns the number of existing tokens that have been minted in this contract.",
        "returns": {
          "_0": "The number of existing tokens."
        }
      },
      "transfer(address,address,bytes32,bool,bytes)": {
        "details": "Transfer a given `tokenId` token from the `from` address to the `to` address. If operators are set for a specific `tokenId`, all the operators are revoked after the tokenId have been transferred. The `force` parameter MUST be set to `true` when transferring tokens to Externally Owned Accounts (EOAs) or contracts that do not implement the LSP1 standard.",
        "params": {
          "data": "Any additional data the caller wants included in the emitted event, and sent in the hooks of the `from` and `to` addresses.",
          "force": "When set to `true`, the `to` address CAN be any addres. When set to `false`, the `to` address MUST be a contract that supports the LSP1 UniversalReceiver standard.",
          "from": "The address that owns the given `tokenId`.",
          "to": "The address that will receive the `tokenId`.",
          "tokenId": "The token ID to transfer."
        }
      },
      "transferBatch(address[],address[],bytes32[],bool[],bytes[])": {
        "details": "Transfers multiple tokens at once based on the arrays of `from`, `to` and `tokenId`. If any transfer fails, the whole call will revert.",
        "params": {
          "data": "Any additional data the caller wants included in the emitted event, and sent in the hooks to the `from` and `to` addresses.",
          "force": "When set to `true`, `to` may be any address. When set to `false`, `to` must be a contract that supports the LSP1 standard and not revert.",
          "from": "An array of sending addresses.",
          "to": "An array of recipient addresses.",
          "tokenId": "An array of token IDs to transfer."
        }
      },
      "transferOwnership(address)": {
        "details": "Transfers ownership of the contract to a new account (`newOwner`). Can only be called by the current owner."
      }
    },
    "title": "LSP8IdentifiableDigitalAsset deployable preset contract with a public {mint} function callable only by the contract {owner}.",
    "version": 1
  },
  "userdoc": {
    "errors": {
      "LSP8BatchCallFailed(uint256)": [
        {
          "notice": "Batch call failed."
        }
      ],
      "LSP8TokenContractCannotHoldValue()": [
        {
          "notice": "LSP8 contract cannot receive native tokens."
        }
      ]
    },
    "events": {
      "DataChanged(bytes32,bytes)": {
        "notice": "The following data key/value pair has been changed in the ERC725Y storage: Data key: `dataKey`, data value: `dataValue`."
      }
    },
    "kind": "user",
    "methods": {
      "batchCalls(bytes[])": {
        "notice": "Executing the following batch of abi-encoded function calls on the contract: `data`."
      },
      "constructor": {
        "notice": "Deploying a `LSP8Mintable` token contract with: token name = `name_`, token symbol = `symbol_`, and address `newOwner_` as the token contract owner."
      },
      "getData(bytes32)": {
        "notice": "Reading the ERC725Y storage for data key `dataKey` returned the following value: `dataValue`."
      },
      "getDataBatch(bytes32[])": {
        "notice": "Reading the ERC725Y storage for data keys `dataKeys` returned the following values: `dataValues`."
      },
      "getDataBatchForTokenIds(bytes32[],bytes32[])": {
        "notice": "Retrieves data in batch for multiple `tokenId` and `dataKey` pairs."
      },
      "getDataForTokenId(bytes32,bytes32)": {
        "notice": "Retrieves data for a specific `tokenId` and `dataKey`."
      },
      "mint(address,bytes32,bool,bytes)": {
        "notice": "Minting tokenId `tokenId` for address `to` with the additional data `data` (Note: allow non-LSP1 recipient is set to `force`)."
      },
      "setData(bytes32,bytes)": {
        "notice": "Setting the following data key value pair in the ERC725Y storage. Data key: `dataKey`, data value: `dataValue`."
      },
      "setDataBatch(bytes32[],bytes[])": {
        "notice": "Setting the following data key value pairs in the ERC725Y storage. Data keys: `dataKeys`, data values: `dataValues`."
      },
      "setDataBatchForTokenIds(bytes32[],bytes32[],bytes[])": {
        "notice": "Sets data in batch for multiple `tokenId` and `dataKey` pairs."
      },
      "setDataForTokenId(bytes32,bytes32,bytes)": {
        "notice": "Sets data for a specific `tokenId` and `dataKey`."
      }
    },
    "version": 1
  },
  "storageLayout": {
    "storage": [
      {
        "astId": 1452,
        "contract": "contracts/LSP8IdentifiableDigitalAsset/presets/LSP8Mintable.sol:LSP8Mintable",
        "label": "_owner",
        "offset": 0,
        "slot": "0",
        "type": "t_address"
      },
      {
        "astId": 1172,
        "contract": "contracts/LSP8IdentifiableDigitalAsset/presets/LSP8Mintable.sol:LSP8Mintable",
        "label": "_store",
        "offset": 0,
        "slot": "1",
        "type": "t_mapping(t_bytes32,t_bytes_storage)"
      },
      {
        "astId": 19139,
        "contract": "contracts/LSP8IdentifiableDigitalAsset/presets/LSP8Mintable.sol:LSP8Mintable",
        "label": "_existingTokens",
        "offset": 0,
        "slot": "2",
        "type": "t_uint256"
      },
      {
        "astId": 19143,
        "contract": "contracts/LSP8IdentifiableDigitalAsset/presets/LSP8Mintable.sol:LSP8Mintable",
        "label": "_tokenOwners",
        "offset": 0,
        "slot": "3",
        "type": "t_mapping(t_bytes32,t_address)"
      },
      {
        "astId": 19148,
        "contract": "contracts/LSP8IdentifiableDigitalAsset/presets/LSP8Mintable.sol:LSP8Mintable",
        "label": "_ownedTokens",
        "offset": 0,
        "slot": "4",
        "type": "t_mapping(t_address,t_struct(Bytes32Set)5289_storage)"
      },
      {
        "astId": 19153,
        "contract": "contracts/LSP8IdentifiableDigitalAsset/presets/LSP8Mintable.sol:LSP8Mintable",
        "label": "_operators",
        "offset": 0,
        "slot": "5",
        "type": "t_mapping(t_bytes32,t_struct(AddressSet)5410_storage)"
      }
    ],
    "types": {
      "t_address": {
        "encoding": "inplace",
        "label": "address",
        "numberOfBytes": "20"
      },
      "t_array(t_bytes32)dyn_storage": {
        "base": "t_bytes32",
        "encoding": "dynamic_array",
        "label": "bytes32[]",
        "numberOfBytes": "32"
      },
      "t_bytes32": {
        "encoding": "inplace",
        "label": "bytes32",
        "numberOfBytes": "32"
      },
      "t_bytes_storage": {
        "encoding": "bytes",
        "label": "bytes",
        "numberOfBytes": "32"
      },
      "t_mapping(t_address,t_struct(Bytes32Set)5289_storage)": {
        "encoding": "mapping",
        "key": "t_address",
        "label": "mapping(address => struct EnumerableSet.Bytes32Set)",
        "numberOfBytes": "32",
        "value": "t_struct(Bytes32Set)5289_storage"
      },
      "t_mapping(t_bytes32,t_address)": {
        "encoding": "mapping",
        "key": "t_bytes32",
        "label": "mapping(bytes32 => address)",
        "numberOfBytes": "32",
        "value": "t_address"
      },
      "t_mapping(t_bytes32,t_bytes_storage)": {
        "encoding": "mapping",
        "key": "t_bytes32",
        "label": "mapping(bytes32 => bytes)",
        "numberOfBytes": "32",
        "value": "t_bytes_storage"
      },
      "t_mapping(t_bytes32,t_struct(AddressSet)5410_storage)": {
        "encoding": "mapping",
        "key": "t_bytes32",
        "label": "mapping(bytes32 => struct EnumerableSet.AddressSet)",
        "numberOfBytes": "32",
        "value": "t_struct(AddressSet)5410_storage"
      },
      "t_mapping(t_bytes32,t_uint256)": {
        "encoding": "mapping",
        "key": "t_bytes32",
        "label": "mapping(bytes32 => uint256)",
        "numberOfBytes": "32",
        "value": "t_uint256"
      },
      "t_struct(AddressSet)5410_storage": {
        "encoding": "inplace",
        "label": "struct EnumerableSet.AddressSet",
        "members": [
          {
            "astId": 5409,
            "contract": "contracts/LSP8IdentifiableDigitalAsset/presets/LSP8Mintable.sol:LSP8Mintable",
            "label": "_inner",
            "offset": 0,
            "slot": "0",
            "type": "t_struct(Set)5095_storage"
          }
        ],
        "numberOfBytes": "64"
      },
      "t_struct(Bytes32Set)5289_storage": {
        "encoding": "inplace",
        "label": "struct EnumerableSet.Bytes32Set",
        "members": [
          {
            "astId": 5288,
            "contract": "contracts/LSP8IdentifiableDigitalAsset/presets/LSP8Mintable.sol:LSP8Mintable",
            "label": "_inner",
            "offset": 0,
            "slot": "0",
            "type": "t_struct(Set)5095_storage"
          }
        ],
        "numberOfBytes": "64"
      },
      "t_struct(Set)5095_storage": {
        "encoding": "inplace",
        "label": "struct EnumerableSet.Set",
        "members": [
          {
            "astId": 5090,
            "contract": "contracts/LSP8IdentifiableDigitalAsset/presets/LSP8Mintable.sol:LSP8Mintable",
            "label": "_values",
            "offset": 0,
            "slot": "0",
            "type": "t_array(t_bytes32)dyn_storage"
          },
          {
            "astId": 5094,
            "contract": "contracts/LSP8IdentifiableDigitalAsset/presets/LSP8Mintable.sol:LSP8Mintable",
            "label": "_indexes",
            "offset": 0,
            "slot": "1",
            "type": "t_mapping(t_bytes32,t_uint256)"
          }
        ],
        "numberOfBytes": "64"
      },
      "t_uint256": {
        "encoding": "inplace",
        "label": "uint256",
        "numberOfBytes": "32"
      }
    }
  }
}