{
  "address": "0x3CFA56F3dC51850655176243a3a9F76C9489208e",
  "abi": [
    {
      "inputs": [],
      "stateMutability": "nonpayable",
      "type": "constructor"
    },
    {
      "inputs": [],
      "name": "ERC725Y_DataKeysValuesEmptyArray",
      "type": "error"
    },
    {
      "inputs": [],
      "name": "ERC725Y_DataKeysValuesLengthMismatch",
      "type": "error"
    },
    {
      "inputs": [],
      "name": "ERC725Y_MsgValueDisallowed",
      "type": "error"
    },
    {
      "inputs": [
        {
          "internalType": "bytes",
          "name": "storedData",
          "type": "bytes"
        }
      ],
      "name": "InvalidExtensionAddress",
      "type": "error"
    },
    {
      "inputs": [
        {
          "internalType": "bytes",
          "name": "data",
          "type": "bytes"
        }
      ],
      "name": "InvalidFunctionSelector",
      "type": "error"
    },
    {
      "inputs": [],
      "name": "LSP4TokenNameNotEditable",
      "type": "error"
    },
    {
      "inputs": [],
      "name": "LSP4TokenSymbolNotEditable",
      "type": "error"
    },
    {
      "inputs": [],
      "name": "LSP4TokenTypeNotEditable",
      "type": "error"
    },
    {
      "inputs": [
        {
          "internalType": "uint256",
          "name": "callIndex",
          "type": "uint256"
        }
      ],
      "name": "LSP8BatchCallFailed",
      "type": "error"
    },
    {
      "inputs": [],
      "name": "LSP8CannotSendToAddressZero",
      "type": "error"
    },
    {
      "inputs": [],
      "name": "LSP8CannotSendToSelf",
      "type": "error"
    },
    {
      "inputs": [],
      "name": "LSP8CannotUseAddressZeroAsOperator",
      "type": "error"
    },
    {
      "inputs": [],
      "name": "LSP8InvalidTransferBatch",
      "type": "error"
    },
    {
      "inputs": [
        {
          "internalType": "bytes32",
          "name": "tokenId",
          "type": "bytes32"
        }
      ],
      "name": "LSP8NonExistentTokenId",
      "type": "error"
    },
    {
      "inputs": [
        {
          "internalType": "address",
          "name": "operator",
          "type": "address"
        },
        {
          "internalType": "bytes32",
          "name": "tokenId",
          "type": "bytes32"
        }
      ],
      "name": "LSP8NonExistingOperator",
      "type": "error"
    },
    {
      "inputs": [
        {
          "internalType": "bytes32",
          "name": "tokenId",
          "type": "bytes32"
        },
        {
          "internalType": "address",
          "name": "caller",
          "type": "address"
        }
      ],
      "name": "LSP8NotTokenOperator",
      "type": "error"
    },
    {
      "inputs": [
        {
          "internalType": "address",
          "name": "tokenOwner",
          "type": "address"
        },
        {
          "internalType": "bytes32",
          "name": "tokenId",
          "type": "bytes32"
        },
        {
          "internalType": "address",
          "name": "caller",
          "type": "address"
        }
      ],
      "name": "LSP8NotTokenOwner",
      "type": "error"
    },
    {
      "inputs": [
        {
          "internalType": "address",
          "name": "tokenReceiver",
          "type": "address"
        }
      ],
      "name": "LSP8NotifyTokenReceiverContractMissingLSP1Interface",
      "type": "error"
    },
    {
      "inputs": [
        {
          "internalType": "address",
          "name": "tokenReceiver",
          "type": "address"
        }
      ],
      "name": "LSP8NotifyTokenReceiverIsEOA",
      "type": "error"
    },
    {
      "inputs": [
        {
          "internalType": "address",
          "name": "operator",
          "type": "address"
        },
        {
          "internalType": "bytes32",
          "name": "tokenId",
          "type": "bytes32"
        }
      ],
      "name": "LSP8OperatorAlreadyAuthorized",
      "type": "error"
    },
    {
      "inputs": [],
      "name": "LSP8TokenContractCannotHoldValue",
      "type": "error"
    },
    {
      "inputs": [
        {
          "internalType": "bytes32",
          "name": "tokenId",
          "type": "bytes32"
        }
      ],
      "name": "LSP8TokenIdAlreadyMinted",
      "type": "error"
    },
    {
      "inputs": [],
      "name": "LSP8TokenIdFormatNotEditable",
      "type": "error"
    },
    {
      "inputs": [],
      "name": "LSP8TokenIdsDataEmptyArray",
      "type": "error"
    },
    {
      "inputs": [],
      "name": "LSP8TokenIdsDataLengthMismatch",
      "type": "error"
    },
    {
      "inputs": [],
      "name": "LSP8TokenOwnerCannotBeOperator",
      "type": "error"
    },
    {
      "inputs": [
        {
          "internalType": "bytes32",
          "name": "tokenId",
          "type": "bytes32"
        },
        {
          "internalType": "address",
          "name": "oldOwner",
          "type": "address"
        },
        {
          "internalType": "address",
          "name": "newOwner",
          "type": "address"
        }
      ],
      "name": "LSP8TokenOwnerChanged",
      "type": "error"
    },
    {
      "inputs": [
        {
          "internalType": "bytes4",
          "name": "functionSelector",
          "type": "bytes4"
        }
      ],
      "name": "NoExtensionFoundForFunctionSelector",
      "type": "error"
    },
    {
      "inputs": [
        {
          "internalType": "address",
          "name": "callerAddress",
          "type": "address"
        }
      ],
      "name": "OwnableCallerNotTheOwner",
      "type": "error"
    },
    {
      "inputs": [],
      "name": "OwnableCannotSetZeroAddressAsOwner",
      "type": "error"
    },
    {
      "anonymous": false,
      "inputs": [
        {
          "indexed": true,
          "internalType": "bytes32",
          "name": "dataKey",
          "type": "bytes32"
        },
        {
          "indexed": false,
          "internalType": "bytes",
          "name": "dataValue",
          "type": "bytes"
        }
      ],
      "name": "DataChanged",
      "type": "event"
    },
    {
      "anonymous": false,
      "inputs": [
        {
          "indexed": false,
          "internalType": "uint8",
          "name": "version",
          "type": "uint8"
        }
      ],
      "name": "Initialized",
      "type": "event"
    },
    {
      "anonymous": false,
      "inputs": [
        {
          "indexed": true,
          "internalType": "address",
          "name": "operator",
          "type": "address"
        },
        {
          "indexed": true,
          "internalType": "address",
          "name": "tokenOwner",
          "type": "address"
        },
        {
          "indexed": true,
          "internalType": "bytes32",
          "name": "tokenId",
          "type": "bytes32"
        },
        {
          "indexed": false,
          "internalType": "bytes",
          "name": "operatorNotificationData",
          "type": "bytes"
        }
      ],
      "name": "OperatorAuthorizationChanged",
      "type": "event"
    },
    {
      "anonymous": false,
      "inputs": [
        {
          "indexed": true,
          "internalType": "address",
          "name": "operator",
          "type": "address"
        },
        {
          "indexed": true,
          "internalType": "address",
          "name": "tokenOwner",
          "type": "address"
        },
        {
          "indexed": true,
          "internalType": "bytes32",
          "name": "tokenId",
          "type": "bytes32"
        },
        {
          "indexed": false,
          "internalType": "bool",
          "name": "notified",
          "type": "bool"
        },
        {
          "indexed": false,
          "internalType": "bytes",
          "name": "operatorNotificationData",
          "type": "bytes"
        }
      ],
      "name": "OperatorRevoked",
      "type": "event"
    },
    {
      "anonymous": false,
      "inputs": [
        {
          "indexed": true,
          "internalType": "address",
          "name": "previousOwner",
          "type": "address"
        },
        {
          "indexed": true,
          "internalType": "address",
          "name": "newOwner",
          "type": "address"
        }
      ],
      "name": "OwnershipTransferred",
      "type": "event"
    },
    {
      "anonymous": false,
      "inputs": [
        {
          "indexed": true,
          "internalType": "bytes32",
          "name": "tokenId",
          "type": "bytes32"
        },
        {
          "indexed": true,
          "internalType": "bytes32",
          "name": "dataKey",
          "type": "bytes32"
        },
        {
          "indexed": false,
          "internalType": "bytes",
          "name": "dataValue",
          "type": "bytes"
        }
      ],
      "name": "TokenIdDataChanged",
      "type": "event"
    },
    {
      "anonymous": false,
      "inputs": [
        {
          "indexed": false,
          "internalType": "address",
          "name": "operator",
          "type": "address"
        },
        {
          "indexed": true,
          "internalType": "address",
          "name": "from",
          "type": "address"
        },
        {
          "indexed": true,
          "internalType": "address",
          "name": "to",
          "type": "address"
        },
        {
          "indexed": true,
          "internalType": "bytes32",
          "name": "tokenId",
          "type": "bytes32"
        },
        {
          "indexed": false,
          "internalType": "bool",
          "name": "force",
          "type": "bool"
        },
        {
          "indexed": false,
          "internalType": "bytes",
          "name": "data",
          "type": "bytes"
        }
      ],
      "name": "Transfer",
      "type": "event"
    },
    {
      "stateMutability": "payable",
      "type": "fallback"
    },
    {
      "inputs": [
        {
          "internalType": "address",
          "name": "operator",
          "type": "address"
        },
        {
          "internalType": "bytes32",
          "name": "tokenId",
          "type": "bytes32"
        },
        {
          "internalType": "bytes",
          "name": "operatorNotificationData",
          "type": "bytes"
        }
      ],
      "name": "authorizeOperator",
      "outputs": [],
      "stateMutability": "nonpayable",
      "type": "function"
    },
    {
      "inputs": [
        {
          "internalType": "address",
          "name": "tokenOwner",
          "type": "address"
        }
      ],
      "name": "balanceOf",
      "outputs": [
        {
          "internalType": "uint256",
          "name": "",
          "type": "uint256"
        }
      ],
      "stateMutability": "view",
      "type": "function"
    },
    {
      "inputs": [
        {
          "internalType": "bytes[]",
          "name": "data",
          "type": "bytes[]"
        }
      ],
      "name": "batchCalls",
      "outputs": [
        {
          "internalType": "bytes[]",
          "name": "results",
          "type": "bytes[]"
        }
      ],
      "stateMutability": "nonpayable",
      "type": "function"
    },
    {
      "inputs": [
        {
          "internalType": "bytes32",
          "name": "dataKey",
          "type": "bytes32"
        }
      ],
      "name": "getData",
      "outputs": [
        {
          "internalType": "bytes",
          "name": "dataValue",
          "type": "bytes"
        }
      ],
      "stateMutability": "view",
      "type": "function"
    },
    {
      "inputs": [
        {
          "internalType": "bytes32[]",
          "name": "dataKeys",
          "type": "bytes32[]"
        }
      ],
      "name": "getDataBatch",
      "outputs": [
        {
          "internalType": "bytes[]",
          "name": "dataValues",
          "type": "bytes[]"
        }
      ],
      "stateMutability": "view",
      "type": "function"
    },
    {
      "inputs": [
        {
          "internalType": "bytes32[]",
          "name": "tokenIds",
          "type": "bytes32[]"
        },
        {
          "internalType": "bytes32[]",
          "name": "dataKeys",
          "type": "bytes32[]"
        }
      ],
      "name": "getDataBatchForTokenIds",
      "outputs": [
        {
          "internalType": "bytes[]",
          "name": "dataValues",
          "type": "bytes[]"
        }
      ],
      "stateMutability": "view",
      "type": "function"
    },
    {
      "inputs": [
        {
          "internalType": "bytes32",
          "name": "tokenId",
          "type": "bytes32"
        },
        {
          "internalType": "bytes32",
          "name": "dataKey",
          "type": "bytes32"
        }
      ],
      "name": "getDataForTokenId",
      "outputs": [
        {
          "internalType": "bytes",
          "name": "dataValue",
          "type": "bytes"
        }
      ],
      "stateMutability": "view",
      "type": "function"
    },
    {
      "inputs": [
        {
          "internalType": "bytes32",
          "name": "tokenId",
          "type": "bytes32"
        }
      ],
      "name": "getOperatorsOf",
      "outputs": [
        {
          "internalType": "address[]",
          "name": "",
          "type": "address[]"
        }
      ],
      "stateMutability": "view",
      "type": "function"
    },
    {
      "inputs": [
        {
          "internalType": "string",
          "name": "name_",
          "type": "string"
        },
        {
          "internalType": "string",
          "name": "symbol_",
          "type": "string"
        },
        {
          "internalType": "address",
          "name": "newOwner_",
          "type": "address"
        },
        {
          "internalType": "uint256",
          "name": "lsp4TokenType_",
          "type": "uint256"
        },
        {
          "internalType": "uint256",
          "name": "lsp8TokenIdFormat_",
          "type": "uint256"
        }
      ],
      "name": "initialize",
      "outputs": [],
      "stateMutability": "nonpayable",
      "type": "function"
    },
    {
      "inputs": [
        {
          "internalType": "address",
          "name": "operator",
          "type": "address"
        },
        {
          "internalType": "bytes32",
          "name": "tokenId",
          "type": "bytes32"
        }
      ],
      "name": "isOperatorFor",
      "outputs": [
        {
          "internalType": "bool",
          "name": "",
          "type": "bool"
        }
      ],
      "stateMutability": "view",
      "type": "function"
    },
    {
      "inputs": [
        {
          "internalType": "address",
          "name": "to",
          "type": "address"
        },
        {
          "internalType": "bytes32",
          "name": "tokenId",
          "type": "bytes32"
        },
        {
          "internalType": "bool",
          "name": "force",
          "type": "bool"
        },
        {
          "internalType": "bytes",
          "name": "data",
          "type": "bytes"
        }
      ],
      "name": "mint",
      "outputs": [],
      "stateMutability": "nonpayable",
      "type": "function"
    },
    {
      "inputs": [],
      "name": "owner",
      "outputs": [
        {
          "internalType": "address",
          "name": "",
          "type": "address"
        }
      ],
      "stateMutability": "view",
      "type": "function"
    },
    {
      "inputs": [],
      "name": "renounceOwnership",
      "outputs": [],
      "stateMutability": "nonpayable",
      "type": "function"
    },
    {
      "inputs": [
        {
          "internalType": "address",
          "name": "operator",
          "type": "address"
        },
        {
          "internalType": "bytes32",
          "name": "tokenId",
          "type": "bytes32"
        },
        {
          "internalType": "bool",
          "name": "notify",
          "type": "bool"
        },
        {
          "internalType": "bytes",
          "name": "operatorNotificationData",
          "type": "bytes"
        }
      ],
      "name": "revokeOperator",
      "outputs": [],
      "stateMutability": "nonpayable",
      "type": "function"
    },
    {
      "inputs": [
        {
          "internalType": "bytes32",
          "name": "dataKey",
          "type": "bytes32"
        },
        {
          "internalType": "bytes",
          "name": "dataValue",
          "type": "bytes"
        }
      ],
      "name": "setData",
      "outputs": [],
      "stateMutability": "payable",
      "type": "function"
    },
    {
      "inputs": [
        {
          "internalType": "bytes32[]",
          "name": "dataKeys",
          "type": "bytes32[]"
        },
        {
          "internalType": "bytes[]",
          "name": "dataValues",
          "type": "bytes[]"
        }
      ],
      "name": "setDataBatch",
      "outputs": [],
      "stateMutability": "payable",
      "type": "function"
    },
    {
      "inputs": [
        {
          "internalType": "bytes32[]",
          "name": "tokenIds",
          "type": "bytes32[]"
        },
        {
          "internalType": "bytes32[]",
          "name": "dataKeys",
          "type": "bytes32[]"
        },
        {
          "internalType": "bytes[]",
          "name": "dataValues",
          "type": "bytes[]"
        }
      ],
      "name": "setDataBatchForTokenIds",
      "outputs": [],
      "stateMutability": "nonpayable",
      "type": "function"
    },
    {
      "inputs": [
        {
          "internalType": "bytes32",
          "name": "tokenId",
          "type": "bytes32"
        },
        {
          "internalType": "bytes32",
          "name": "dataKey",
          "type": "bytes32"
        },
        {
          "internalType": "bytes",
          "name": "dataValue",
          "type": "bytes"
        }
      ],
      "name": "setDataForTokenId",
      "outputs": [],
      "stateMutability": "nonpayable",
      "type": "function"
    },
    {
      "inputs": [
        {
          "internalType": "bytes4",
          "name": "interfaceId",
          "type": "bytes4"
        }
      ],
      "name": "supportsInterface",
      "outputs": [
        {
          "internalType": "bool",
          "name": "",
          "type": "bool"
        }
      ],
      "stateMutability": "view",
      "type": "function"
    },
    {
      "inputs": [
        {
          "internalType": "address",
          "name": "tokenOwner",
          "type": "address"
        }
      ],
      "name": "tokenIdsOf",
      "outputs": [
        {
          "internalType": "bytes32[]",
          "name": "",
          "type": "bytes32[]"
        }
      ],
      "stateMutability": "view",
      "type": "function"
    },
    {
      "inputs": [
        {
          "internalType": "bytes32",
          "name": "tokenId",
          "type": "bytes32"
        }
      ],
      "name": "tokenOwnerOf",
      "outputs": [
        {
          "internalType": "address",
          "name": "",
          "type": "address"
        }
      ],
      "stateMutability": "view",
      "type": "function"
    },
    {
      "inputs": [],
      "name": "totalSupply",
      "outputs": [
        {
          "internalType": "uint256",
          "name": "",
          "type": "uint256"
        }
      ],
      "stateMutability": "view",
      "type": "function"
    },
    {
      "inputs": [
        {
          "internalType": "address",
          "name": "from",
          "type": "address"
        },
        {
          "internalType": "address",
          "name": "to",
          "type": "address"
        },
        {
          "internalType": "bytes32",
          "name": "tokenId",
          "type": "bytes32"
        },
        {
          "internalType": "bool",
          "name": "force",
          "type": "bool"
        },
        {
          "internalType": "bytes",
          "name": "data",
          "type": "bytes"
        }
      ],
      "name": "transfer",
      "outputs": [],
      "stateMutability": "nonpayable",
      "type": "function"
    },
    {
      "inputs": [
        {
          "internalType": "address[]",
          "name": "from",
          "type": "address[]"
        },
        {
          "internalType": "address[]",
          "name": "to",
          "type": "address[]"
        },
        {
          "internalType": "bytes32[]",
          "name": "tokenId",
          "type": "bytes32[]"
        },
        {
          "internalType": "bool[]",
          "name": "force",
          "type": "bool[]"
        },
        {
          "internalType": "bytes[]",
          "name": "data",
          "type": "bytes[]"
        }
      ],
      "name": "transferBatch",
      "outputs": [],
      "stateMutability": "nonpayable",
      "type": "function"
    },
    {
      "inputs": [
        {
          "internalType": "address",
          "name": "newOwner",
          "type": "address"
        }
      ],
      "name": "transferOwnership",
      "outputs": [],
      "stateMutability": "nonpayable",
      "type": "function"
    },
    {
      "stateMutability": "payable",
      "type": "receive"
    }
  ],
  "args": [],
  "numDeployments": 1,
  "solcInputHash": "9b2ce31657456bfe71ca9ff8dcb23609",
  "bytecode": "0x60806040523480156200001157600080fd5b506200001c62000022565b620000e3565b600054610100900460ff16156200008f5760405162461bcd60e51b815260206004820152602760248201527f496e697469616c697a61626c653a20636f6e747261637420697320696e697469604482015266616c697a696e6760c81b606482015260840160405180910390fd5b60005460ff90811614620000e1576000805460ff191660ff9081179091556040519081527f7f26b83ff96e1f2b6a682f133852f6798a09c465da95921460cefb38474024989060200160405180910390a15b565b6133f080620000f36000396000f3fe60806040526004361061019a5760003560e01c806374823132116100e1578063a3b261f21161008a578063d6c1407c11610064578063d6c1407c14610530578063db8c966314610550578063dedff9c614610570578063f2fde38b146105905761020e565b8063a3b261f2146104c3578063af255b61146104f0578063be9f0e6f146105105761020e565b806386a10ddd116100bb57806386a10ddd1461046c5780638da5cb5b1461048c57806397902421146104b05761020e565b806374823132146104195780637e87632c146104395780637f23690c146104595761020e565b806349a6078d116101435780636963d4381161011d5780636963d438146103c457806370a08231146103e4578063715018a6146104045761020e565b806349a6078d14610355578063511b69521461038257806354f6127f146103a45761020e565b80631d26fce6116101745780631d26fce6146102d0578063217b2270146102fd5780632a3654a4146103355761020e565b806301ffc9a71461024f57806316e023b31461028457806318160ddd146102b15761020e565b3661020e57346000036101dc5760405163e5099ee360e01b81526004016101d39060208082526004908201526000604082015260600190565b60405180910390fd5b6040517f61f4944200000000000000000000000000000000000000000000000000000000815260040160405180910390fd5b6000366060600482101561023957828260405163e5099ee360e01b81526004016101d39291906125fd565b61024383836105b0565b80519350602001915050f35b34801561025b57600080fd5b5061026f61026a36600461262c565b6106bf565b60405190151581526020015b60405180910390f35b34801561029057600080fd5b506102a461029f366004612656565b61070c565b60405161027b91906126c8565b3480156102bd57600080fd5b506002545b60405190815260200161027b565b3480156102dc57600080fd5b506102f06102eb3660046127b1565b61071f565b60405161027b9190612815565b34801561030957600080fd5b5061031d610318366004612877565b610807565b6040516001600160a01b03909116815260200161027b565b34801561034157600080fd5b5061026f6103503660046128ac565b610840565b34801561036157600080fd5b50610375610370366004612877565b61084c565b60405161027b91906128d6565b34801561038e57600080fd5b506103a261039d3660046129ac565b61086e565b005b3480156103b057600080fd5b506102a46103bf366004612877565b6108cb565b3480156103d057600080fd5b506102f06103df366004612a25565b6108d6565b3480156103f057600080fd5b506102c26103ff366004612a9a565b610a1f565b34801561041057600080fd5b506103a2610a40565b34801561042557600080fd5b506103a2610434366004612ab5565b610a54565b34801561044557600080fd5b506103a2610454366004612c7f565b610b7e565b6103a2610467366004612d44565b610c86565b34801561047857600080fd5b506103a2610487366004612d81565b610cbb565b34801561049857600080fd5b506000546201000090046001600160a01b031661031d565b6103a26104be366004612dd8565b610e46565b3480156104cf57600080fd5b506104e36104de366004612a9a565b610f38565b60405161027b9190612e32565b3480156104fc57600080fd5b506103a261050b366004612e6a565b610f5c565b34801561051c57600080fd5b506103a261052b366004612ed2565b610f76565b34801561053c57600080fd5b506103a261054b366004612f50565b611054565b34801561055c57600080fd5b506103a261056b366004612e6a565b611067565b34801561057c57600080fd5b506102f061058b366004612f8a565b61113b565b34801561059c57600080fd5b506103a26105ab366004612a9a565b6111e6565b606060006105c96000356001600160e01b03191661123a565b5090506001600160a01b03811661061a576040517fbb370b2b0000000000000000000000000000000000000000000000000000000081526001600160e01b03196000351660048201526024016101d3565b600080826001600160a01b0316348787333460405160200161063f9493929190612fbf565b60408051601f198184030181529082905261065991612fef565b60006040518083038185875af1925050503d8060008114610696576040519150601f19603f3d011682016040523d82523d6000602084013e61069b565b606091505b509150915081156106b05792506106b9915050565b80518060208301fd5b92915050565b60006001600160e01b031982167f3a2717060000000000000000000000000000000000000000000000000000000014806106fd57506106fd826112e4565b806106b957506106b982611322565b60606107188383611359565b9392505050565b60608151835114610743576040516317d38eff60e11b815260040160405180910390fd5b825167ffffffffffffffff81111561075d5761075d6126db565b60405190808252806020026020018201604052801561079057816020015b606081526020019060019003908161077b5790505b50905060005b8351811015610800576107db8482815181106107b4576107b461300b565b60200260200101518483815181106107ce576107ce61300b565b6020026020010151611359565b8282815181106107ed576107ed61300b565b6020908102919091010152600101610796565b5092915050565b6000818152600360205260408120546001600160a01b0316806106b957604051635747cd1b60e11b8152600481018490526024016101d3565b60006107188383611430565b60606108578261146d565b60008281526005602052604090206106b9906114a5565b6108783384611430565b6108b7576040517f1294d2a9000000000000000000000000000000000000000000000000000000008152600481018490523360248201526044016101d3565b6108c485858585856114b2565b5050505050565b60606106b982611705565b60608167ffffffffffffffff8111156108f1576108f16126db565b60405190808252806020026020018201604052801561092457816020015b606081526020019060019003908161090f5790505b50905060005b8281101561080057600080308686858181106109485761094861300b565b905060200281019061095a9190613021565b60405161096892919061306f565b600060405180830381855af49150503d80600081146109a3576040519150601f19603f3d011682016040523d82523d6000602084013e6109a8565b606091505b5091509150816109f7578051156109c25780518082602001fd5b6040517f234eb819000000000000000000000000000000000000000000000000000000008152600481018490526024016101d3565b80848481518110610a0a57610a0a61300b565b6020908102919091010152505060010161092a565b6001600160a01b03811660009081526004602052604081206106b9906117a7565b610a486117b1565b610a5260006117fe565b565b600054610100900460ff1615808015610a745750600054600160ff909116105b80610a8e5750303b158015610a8e575060005460ff166001145b610b005760405162461bcd60e51b815260206004820152602e60248201527f496e697469616c697a61626c653a20636f6e747261637420697320616c72656160448201527f647920696e697469616c697a656400000000000000000000000000000000000060648201526084016101d3565b6000805460ff191660011790558015610b23576000805461ff0019166101001790555b610b308686868686611895565b8015610b76576000805461ff0019169055604051600181527f7f26b83ff96e1f2b6a682f133852f6798a09c465da95921460cefb38474024989060200160405180910390a15b505050505050565b8451845181141580610b91575083518114155b80610b9d575082518114155b80610ba9575081518114155b15610be0576040517f93a8311900000000000000000000000000000000000000000000000000000000815260040160405180910390fd5b60005b81811015610c7d57610c75878281518110610c0057610c0061300b565b6020026020010151878381518110610c1a57610c1a61300b565b6020026020010151878481518110610c3457610c3461300b565b6020026020010151878581518110610c4e57610c4e61300b565b6020026020010151878681518110610c6857610c6861300b565b602002602001015161086e565b600101610be3565b50505050505050565b610c8e6117b1565b3415610cad5760405163f36ba73760e01b815260040160405180910390fd5b610cb7828261190d565b5050565b6000610cc683610807565b90506001600160a01b0381163314610d0957604051632d938f5160e11b81526001600160a01b0382166004820152602481018490523360448201526064016101d3565b6001600160a01b038416610d3057604051639577b8b360e01b815260040160405180910390fd5b836001600160a01b0316816001600160a01b031603610d62576040516344fed6b160e11b815260040160405180910390fd5b6000838152600560205260408120610d7a9086611970565b905080610dc5576040517fa7626b680000000000000000000000000000000000000000000000000000000081526001600160a01b0386166004820152602481018590526044016101d3565b83826001600160a01b0316866001600160a01b03167f1b1b58aa2ec0cec2228b2d37124556d41f5a1f7b12f089171f896cc23667121586604051610e0991906126c8565b60405180910390a460003385600186604051602001610e2b949392919061307f565b6040516020818303038152906040529050610b768682611985565b610e4e6117b1565b3415610e6d5760405163f36ba73760e01b815260040160405180910390fd5b8051825114610ea8576040517f3bcc897900000000000000000000000000000000000000000000000000000000815260040160405180910390fd5b8151600003610ee3576040517f97da5f9500000000000000000000000000000000000000000000000000000000815260040160405180910390fd5b60005b8251811015610f3357610f2b838281518110610f0457610f0461300b565b6020026020010151838381518110610f1e57610f1e61300b565b602002602001015161190d565b600101610ee6565b505050565b6001600160a01b03811660009081526004602052604090206060906106b9906114a5565b610f646117b1565b610f70848484846119b0565b50505050565b610f7e6117b1565b81518351141580610f9157508051825114155b15610faf576040516317d38eff60e11b815260040160405180910390fd5b8251600003610fea576040517f80c9830500000000000000000000000000000000000000000000000000000000815260040160405180910390fd5b60005b8351811015610f705761104c84828151811061100b5761100b61300b565b60200260200101518483815181106110255761102561300b565b602002602001015184848151811061103f5761103f61300b565b6020026020010151611b2d565b600101610fed565b61105c6117b1565b610f33838383611b2d565b600061107284610807565b90506001600160a01b03811633146110b557604051632d938f5160e11b81526001600160a01b0382166004820152602481018590523360448201526064016101d3565b6001600160a01b0385166110dc57604051639577b8b360e01b815260040160405180910390fd5b846001600160a01b0316816001600160a01b03160361110e576040516344fed6b160e11b815260040160405180910390fd5b61111b8582868686611bbd565b82156108c45760003385600085604051602001610e2b949392919061307f565b6060815167ffffffffffffffff811115611157576111576126db565b60405190808252806020026020018201604052801561118a57816020015b60608152602001906001900390816111755790505b50905060005b82518110156111e0576111bb8382815181106111ae576111ae61300b565b6020026020010151611705565b8282815181106111cd576111cd61300b565b6020908102919091010152600101611190565b50919050565b6111ee6117b1565b6001600160a01b03811661122e576040517f1ad8836c00000000000000000000000000000000000000000000000000000000815260040160405180910390fd5b611237816117fe565b50565b600080806112727fcee78b4094da86011096000000000000000000000000000000000000000000006001600160e01b03198616611c76565b9050600061127f82611705565b905080516014141580156112935750805115155b156112cc57806040517f42bfe79f0000000000000000000000000000000000000000000000000000000081526004016101d391906126c8565b6112d5816130b9565b60601c95600195509350505050565b60006001600160e01b031982167fa918fa6b0000000000000000000000000000000000000000000000000000000014806106b957506106b982611ce7565b6000806113356301ffc9a760e01b61123a565b5090506001600160a01b03811661134f5750600092915050565b6107188184611d35565b606060016000848460405160200161137b929190918252602082015260400190565b60405160208183030381529060405280519060200120815260200190815260200160002080546113aa906130f5565b80601f01602080910402602001604051908101604052809291908181526020018280546113d6906130f5565b80156114235780601f106113f857610100808354040283529160200191611423565b820191906000526020600020905b81548152906001019060200180831161140657829003601f168201915b5050505050905092915050565b600061143b82610807565b6001600160a01b0316836001600160a01b03161480610718575060008281526005602052604090206107189084611dd3565b6000818152600360205260409020546001600160a01b031661123757604051635747cd1b60e11b8152600481018290526024016101d3565b6060600061071883611df5565b836001600160a01b0316856001600160a01b0316036114fd576040517f5d67d6c100000000000000000000000000000000000000000000000000000000815260040160405180910390fd5b600061150884610807565b9050856001600160a01b0316816001600160a01b03161461155657604051632d938f5160e11b81526001600160a01b03808316600483015260248201869052871660448201526064016101d3565b6001600160a01b03851661157d576040516324ecef4d60e01b815260040160405180910390fd5b600061158885610807565b9050806001600160a01b0316826001600160a01b0316146115ef576040517f5a9c31d3000000000000000000000000000000000000000000000000000000008152600481018690526001600160a01b038084166024830152821660448201526064016101d3565b6115f98786611e50565b6001600160a01b038716600090815260046020526040902061161b9086611ea8565b506001600160a01b038616600090815260046020526040902061163e9086611eb4565b5060008581526003602052604090819020805473ffffffffffffffffffffffffffffffffffffffff19166001600160a01b0389811691821790925591518792918a16907fb333c813a7426a7a11e2b190cad52c44119421594b47f6f32ace6d8c7207b2bf906116b29033908a908a90613129565b60405180910390a4600033888888876040516020016116d595949392919061315c565b60405160208183030381529060405290506116f08882611ec0565b6116fb878683611eeb565b5050505050505050565b6000818152600160205260409020805460609190611722906130f5565b80601f016020809104026020016040519081016040528092919081815260200182805461174e906130f5565b801561179b5780601f106117705761010080835404028352916020019161179b565b820191906000526020600020905b81548152906001019060200180831161177e57829003601f168201915b50505050509050919050565b60006106b9825490565b6000546001600160a01b0362010000909104163314610a52576040517fbf1169c50000000000000000000000000000000000000000000000000000000081523360048201526024016101d3565b6000546001600160a01b0382811662010000909204161461123757600080546040516001600160a01b03808516936201000090930416917f8be0079c531659141344cd1fd0a4f28419497f9722a3daafe3b4186f6b6457e091a3600080546001600160a01b03831662010000027fffffffffffffffffffff0000000000000000000000000000000000000000ffff90911617905550565b600054610100900460ff166119005760405162461bcd60e51b815260206004820152602b60248201527f496e697469616c697a61626c653a20636f6e7472616374206973206e6f74206960448201526a6e697469616c697a696e6760a81b60648201526084016101d3565b6108c48585858585612025565b7f098a16c9e50e3e99b3e797305c146898d294e5aec55a47e213cb3611ccf17e738201611966576040517f3664800a00000000000000000000000000000000000000000000000000000000815260040160405180910390fd5b610cb782826120de565b6000610718836001600160a01b0384166120e8565b610cb7827f8a1c15a8799f71b547e08e2bcb2e85257e81b0a07eee2ce6712549eef1f0097083612137565b6001600160a01b0384166119d7576040516324ecef4d60e01b815260040160405180910390fd5b6000838152600360205260409020546001600160a01b031615611a10576040516334c7b51160e01b8152600481018490526024016101d3565b6000838152600360205260409020546001600160a01b031615611a49576040516334c7b51160e01b8152600481018490526024016101d3565b600260008154611a58906131ac565b909155506001600160a01b0384166000908152600460205260409020611a7e9084611eb4565b50600083815260036020526040808220805473ffffffffffffffffffffffffffffffffffffffff19166001600160a01b03881690811790915590518592907fb333c813a7426a7a11e2b190cad52c44119421594b47f6f32ace6d8c7207b2bf90611aed90339088908890613129565b60405180910390a46000336000868685604051602001611b1195949392919061315c565b60405160208183030381529060405290506108c4858483611eeb565b80600160008585604051602001611b4e929190918252602082015260400190565b6040516020818303038152906040528051906020012081526020019081526020016000209081611b7e919061320b565b5081837fa6e4251f855f750545fe414f120db91c76b88def14d120969e5bb2d3f05debbb83604051611bb091906126c8565b60405180910390a3505050565b6000838152600560205260408120611bd59087612184565b905080611c20576040517f4aa31a8c0000000000000000000000000000000000000000000000000000000081526001600160a01b0387166004820152602481018590526044016101d3565b83856001600160a01b0316876001600160a01b03167fc78cd419d6136f9f1c1c6aec1d3fae098cffaf8bc86314a8f2685e32fe574e3c8686604051611c669291906132cb565b60405180910390a4505050505050565b604080517fffffffffffffffffffff00000000000000000000000000000000000000000000841660208201526000602a82018190526bffffffffffffffffffffffff198416602c83015291829101604051602081830303815290604052905080611cdf906132e6565b949350505050565b60006001600160e01b031982167f629aa6940000000000000000000000000000000000000000000000000000000014806106b957506301ffc9a760e01b6001600160e01b03198316146106b9565b604080516001600160e01b03198316602480830191909152825180830390910181526044909101909152602080820180517bffffffffffffffffffffffffffffffffffffffffffffffffffffffff166301ffc9a760e01b178152825160009392849283928392918391908a617530fa92503d91506000519050828015611dbc575060208210155b8015611dc85750600081115b979650505050505050565b6001600160a01b03811660009081526001830160205260408120541515610718565b60608160000180548060200260200160405190810160405280929190818152602001828054801561179b57602002820191906000526020600020905b815481526020019060010190808311611e315750505050509050919050565b600081815260056020526040812090611e68826117a7565b90506000805b82811015610b7657611e81846000612199565b9150611ea0828787600060405180602001604052806000815250611bbd565b600101611e6e565b600061071883836121a5565b600061071883836120e8565b610cb7827fb23eae7e6d1564b295b4c3e3be402d9a2f0776c57bdf365903496f6fa481ab0083612137565b611efc83631aed5a8560e21b611d35565b15611f9657604051631aed5a8560e21b81526001600160a01b03841690636bb56a1490611f4f907f0b084a55ebf70fd3c06fd755269dac2212c4d3f0f4d09079780bfa50c1b2984d90859060040161330a565b6000604051808303816000875af1158015611f6e573d6000803e3d6000fd5b505050506040513d6000823e601f3d908101601f19168201604052610f709190810190613323565b81610f33576001600160a01b0383163b15611fe8576040517f4349776d0000000000000000000000000000000000000000000000000000000081526001600160a01b03841660048201526024016101d3565b6040517f031731370000000000000000000000000000000000000000000000000000000081526001600160a01b03841660048201526024016101d3565b600054610100900460ff166120905760405162461bcd60e51b815260206004820152602b60248201527f496e697469616c697a61626c653a20636f6e7472616374206973206e6f74206960448201526a6e697469616c697a696e6760a81b60648201526084016101d3565b61209c85858585612298565b60408051602081018390526108c4917ff675e9361af1c1664c1868cfa3eb97672d6b1a513aa5b81dec34c9ee330e818d91016040516020818303038152906040525b610cb78282612408565b600081815260018301602052604081205461212f575081546001818101845560008481526020808220909301849055845484825282860190935260409020919091556106b9565b5060006106b9565b6121516001600160a01b038416631aed5a8560e21b611d35565b15610f3357604051631aed5a8560e21b81526001600160a01b03841690636bb56a1490611f4f908590859060040161330a565b6000610718836001600160a01b0384166121a5565b60006107188383612568565b6000818152600183016020526040812054801561228e5760006121c9600183613391565b85549091506000906121dd90600190613391565b90508181146122425760008660000182815481106121fd576121fd61300b565b90600052602060002001549050808760000184815481106122205761222061300b565b6000918252602080832090910192909255918252600188019052604090208390555b8554869080612253576122536133a4565b6001900381819060005260206000200160009055905585600101600086815260200190815260200160002060009055600193505050506106b9565b60009150506106b9565b600054610100900460ff166123035760405162461bcd60e51b815260206004820152602b60248201527f496e697469616c697a61626c653a20636f6e7472616374206973206e6f74206960448201526a6e697469616c697a696e6760a81b60648201526084016101d3565b61230c82612592565b61236e7feafec4d89fa9619884b60000a4d96624a38f7ac2d8d9a604ecf07c12c77e480c60001b6040518060400160405280600481526020017fa4d9662400000000000000000000000000000000000000000000000000000000815250612513565b6123987fdeba1e292f8ba88238e10ab3c7f88bd4be4fac56cad5194b6ecceaf653468af185612513565b6123c27f2f0a68ab07768e01943a599e73362a0e17a63a72e94dd2e384d2c1d4db93275684612513565b6040805160208101839052610f70917fe0261fa95db2eb3b5439bd033cda66d56b96f92f243a8228fd87550ed7bdfdb39101604051602081830303815290604052612513565b7f2145e1d6d074577dc71ef54c3807742b41b053a9352ae6b491331509acb9750f8201612461576040517f85c169bd00000000000000000000000000000000000000000000000000000000815260040160405180910390fd5b7fd0f59754f88971fe6bc5a6618cc9d5f1e859c58d16b22d1c7b2d3e2b246cd8aa82016124ba576040517f76755b3800000000000000000000000000000000000000000000000000000000815260040160405180910390fd5b7f1fd9e056a24d14c4abc642fcc325992a946906d0dbc57dd70278aaf12842024d8201612513576040517f4ef6d7fb00000000000000000000000000000000000000000000000000000000815260040160405180910390fd5b600082815260016020526040902061252b828261320b565b50817fece574603820d07bc9b91f2a932baadf4628aabcb8afba49776529c14a6104b28260405161255c91906126c8565b60405180910390a25050565b600082600001828154811061257f5761257f61300b565b9060005260206000200154905092915050565b600054610100900460ff166111ee5760405162461bcd60e51b815260206004820152602b60248201527f496e697469616c697a61626c653a20636f6e7472616374206973206e6f74206960448201526a6e697469616c697a696e6760a81b60648201526084016101d3565b60208152816020820152818360408301376000818301604090810191909152601f909201601f19160101919050565b60006020828403121561263e57600080fd5b81356001600160e01b03198116811461071857600080fd5b6000806040838503121561266957600080fd5b50508035926020909101359150565b60005b8381101561269357818101518382015260200161267b565b50506000910152565b600081518084526126b4816020860160208601612678565b601f01601f19169290920160200192915050565b602081526000610718602083018461269c565b634e487b7160e01b600052604160045260246000fd5b604051601f8201601f1916810167ffffffffffffffff8111828210171561271a5761271a6126db565b604052919050565b600067ffffffffffffffff82111561273c5761273c6126db565b5060051b60200190565b600082601f83011261275757600080fd5b8135602061276c61276783612722565b6126f1565b82815260059290921b8401810191818101908684111561278b57600080fd5b8286015b848110156127a6578035835291830191830161278f565b509695505050505050565b600080604083850312156127c457600080fd5b823567ffffffffffffffff808211156127dc57600080fd5b6127e886838701612746565b935060208501359150808211156127fe57600080fd5b5061280b85828601612746565b9150509250929050565b6000602080830181845280855180835260408601915060408160051b870101925083870160005b8281101561286a57603f1988860301845261285885835161269c565b9450928501929085019060010161283c565b5092979650505050505050565b60006020828403121561288957600080fd5b5035919050565b80356001600160a01b03811681146128a757600080fd5b919050565b600080604083850312156128bf57600080fd5b6128c883612890565b946020939093013593505050565b6020808252825182820181905260009190848201906040850190845b818110156129175783516001600160a01b0316835292840192918401916001016128f2565b50909695505050505050565b803580151581146128a757600080fd5b600067ffffffffffffffff82111561294d5761294d6126db565b50601f01601f191660200190565b600082601f83011261296c57600080fd5b813561297a61276782612933565b81815284602083860101111561298f57600080fd5b816020850160208301376000918101602001919091529392505050565b600080600080600060a086880312156129c457600080fd5b6129cd86612890565b94506129db60208701612890565b9350604086013592506129f060608701612923565b9150608086013567ffffffffffffffff811115612a0c57600080fd5b612a188882890161295b565b9150509295509295909350565b60008060208385031215612a3857600080fd5b823567ffffffffffffffff80821115612a5057600080fd5b818501915085601f830112612a6457600080fd5b813581811115612a7357600080fd5b8660208260051b8501011115612a8857600080fd5b60209290920196919550909350505050565b600060208284031215612aac57600080fd5b61071882612890565b600080600080600060a08688031215612acd57600080fd5b853567ffffffffffffffff80821115612ae557600080fd5b612af189838a0161295b565b96506020880135915080821115612b0757600080fd5b50612b148882890161295b565b945050612b2360408701612890565b94979396509394606081013594506080013592915050565b600082601f830112612b4c57600080fd5b81356020612b5c61276783612722565b82815260059290921b84018101918181019086841115612b7b57600080fd5b8286015b848110156127a657612b9081612890565b8352918301918301612b7f565b600082601f830112612bae57600080fd5b81356020612bbe61276783612722565b82815260059290921b84018101918181019086841115612bdd57600080fd5b8286015b848110156127a657612bf281612923565b8352918301918301612be1565b600082601f830112612c1057600080fd5b81356020612c2061276783612722565b82815260059290921b84018101918181019086841115612c3f57600080fd5b8286015b848110156127a657803567ffffffffffffffff811115612c635760008081fd5b612c718986838b010161295b565b845250918301918301612c43565b600080600080600060a08688031215612c9757600080fd5b853567ffffffffffffffff80821115612caf57600080fd5b612cbb89838a01612b3b565b96506020880135915080821115612cd157600080fd5b612cdd89838a01612b3b565b95506040880135915080821115612cf357600080fd5b612cff89838a01612746565b94506060880135915080821115612d1557600080fd5b612d2189838a01612b9d565b93506080880135915080821115612d3757600080fd5b50612a1888828901612bff565b60008060408385031215612d5757600080fd5b82359150602083013567ffffffffffffffff811115612d7557600080fd5b61280b8582860161295b565b600080600060608486031215612d9657600080fd5b612d9f84612890565b925060208401359150604084013567ffffffffffffffff811115612dc257600080fd5b612dce8682870161295b565b9150509250925092565b60008060408385031215612deb57600080fd5b823567ffffffffffffffff80821115612e0357600080fd5b612e0f86838701612746565b93506020850135915080821115612e2557600080fd5b5061280b85828601612bff565b6020808252825182820181905260009190848201906040850190845b8181101561291757835183529284019291840191600101612e4e565b60008060008060808587031215612e8057600080fd5b612e8985612890565b935060208501359250612e9e60408601612923565b9150606085013567ffffffffffffffff811115612eba57600080fd5b612ec68782880161295b565b91505092959194509250565b600080600060608486031215612ee757600080fd5b833567ffffffffffffffff80821115612eff57600080fd5b612f0b87838801612746565b94506020860135915080821115612f2157600080fd5b612f2d87838801612746565b93506040860135915080821115612f4357600080fd5b50612dce86828701612bff565b600080600060608486031215612f6557600080fd5b8335925060208401359150604084013567ffffffffffffffff811115612dc257600080fd5b600060208284031215612f9c57600080fd5b813567ffffffffffffffff811115612fb357600080fd5b611cdf84828501612746565b8385823760609290921b6bffffffffffffffffffffffff1916919092019081526014810191909152603401919050565b60008251613001818460208701612678565b9190910192915050565b634e487b7160e01b600052603260045260246000fd5b6000808335601e1984360301811261303857600080fd5b83018035915067ffffffffffffffff82111561305357600080fd5b60200191503681900382131561306857600080fd5b9250929050565b8183823760009101908152919050565b6001600160a01b038516815283602082015282151560408201526080606082015260006130af608083018461269c565b9695505050505050565b805160208201516bffffffffffffffffffffffff1980821692919060148310156130ed5780818460140360031b1b83161693505b505050919050565b600181811c9082168061310957607f821691505b6020821081036111e057634e487b7160e01b600052602260045260246000fd5b6001600160a01b03841681528215156020820152606060408201526000613153606083018461269c565b95945050505050565b60006001600160a01b038088168352808716602084015280861660408401525083606083015260a06080830152611dc860a083018461269c565b634e487b7160e01b600052601160045260246000fd5b6000600182016131be576131be613196565b5060010190565b601f821115610f3357600081815260208120601f850160051c810160208610156131ec5750805b601f850160051c820191505b81811015610b76578281556001016131f8565b815167ffffffffffffffff811115613225576132256126db565b6132398161323384546130f5565b846131c5565b602080601f83116001811461326e57600084156132565750858301515b600019600386901b1c1916600185901b178555610b76565b600085815260208120601f198616915b8281101561329d5788860151825594840194600190910190840161327e565b50858210156132bb5787850151600019600388901b60f8161c191681555b5050505050600190811b01905550565b8215158152604060208201526000611cdf604083018461269c565b805160208083015191908110156111e05760001960209190910360031b1b16919050565b828152604060208201526000611cdf604083018461269c565b60006020828403121561333557600080fd5b815167ffffffffffffffff81111561334c57600080fd5b8201601f8101841361335d57600080fd5b805161336b61276782612933565b81815285602083850101111561338057600080fd5b613153826020830160208601612678565b818103818111156106b9576106b9613196565b634e487b7160e01b600052603160045260246000fdfea2646970667358221220b67885fd93e4d4a34deaba371b05424bb8a1476b414a22ab8a48fb0585b594ef64736f6c63430008110033",
  "devdoc": {
    "details": "LSP8IdentifiableDigitalAsset deployable preset contract (proxy version) with a public {mint} function callable only by the contract {owner}.",
    "errors": {
      "ERC725Y_DataKeysValuesEmptyArray()": [
        {
          "details": "Reverts when one of the array parameter provided to {setDataBatch} function is an empty array."
        }
      ],
      "ERC725Y_DataKeysValuesLengthMismatch()": [
        {
          "details": "Reverts when there is not the same number of elements in the `datakeys` and `dataValues` array parameters provided when calling the {setDataBatch} function."
        }
      ],
      "ERC725Y_MsgValueDisallowed()": [
        {
          "details": "Reverts when sending value to the {setData} or {setDataBatch} function."
        }
      ],
      "InvalidExtensionAddress(bytes)": [
        {
          "details": "reverts when the bytes retrieved from the LSP17 data key is not a valid address (not 20 bytes)"
        }
      ],
      "InvalidFunctionSelector(bytes)": [
        {
          "details": "reverts when the contract is called with a function selector not valid (less than 4 bytes of data)"
        }
      ],
      "LSP4TokenNameNotEditable()": [
        {
          "details": "Reverts when trying to edit the data key `LSP4TokenName` after the digital asset contract has been deployed / initialized. The `LSP4TokenName` data key is located inside the ERC725Y data key-value store of the digital asset contract. It can be set only once inside the constructor/initializer when the digital asset contract is being deployed / initialized."
        }
      ],
      "LSP4TokenSymbolNotEditable()": [
        {
          "details": "Reverts when trying to edit the data key `LSP4TokenSymbol` after the digital asset contract has been deployed / initialized. The `LSP4TokenSymbol` data key is located inside the ERC725Y data key-value store of the digital asset contract. It can be set only once inside the constructor/initializer when the digital asset contract is being deployed / initialized."
        }
      ],
      "LSP4TokenTypeNotEditable()": [
        {
          "details": "Reverts when trying to edit the data key `LSP4TokenType` after the digital asset contract has been deployed / initialized. The `LSP4TokenType` data key is located inside the ERC725Y data key-value store of the digital asset contract. It can be set only once inside the constructor / initializer when the digital asset contract is being deployed / initialized."
        }
      ],
      "LSP8BatchCallFailed(uint256)": [
        {
          "details": "Reverts when a batch call failed."
        }
      ],
      "LSP8CannotSendToAddressZero()": [
        {
          "details": "Reverts when trying to send token to the zero address."
        }
      ],
      "LSP8CannotSendToSelf()": [
        {
          "details": "Reverts when specifying the same address for `from` and `to` in a token transfer."
        }
      ],
      "LSP8CannotUseAddressZeroAsOperator()": [
        {
          "details": "Reverts when trying to set the zero address as an operator."
        }
      ],
      "LSP8InvalidTransferBatch()": [
        {
          "details": "Reverts when the parameters used for `transferBatch` have different lengths."
        }
      ],
      "LSP8NonExistentTokenId(bytes32)": [
        {
          "details": "Reverts when `tokenId` has not been minted."
        }
      ],
      "LSP8NonExistingOperator(address,bytes32)": [
        {
          "details": "Reverts when `operator` is not an operator for the `tokenId`."
        }
      ],
      "LSP8NotTokenOperator(bytes32,address)": [
        {
          "details": "Reverts when `caller` is not an allowed operator for `tokenId`."
        }
      ],
      "LSP8NotTokenOwner(address,bytes32,address)": [
        {
          "details": "Reverts when `caller` is not the `tokenOwner` of the `tokenId`."
        }
      ],
      "LSP8NotifyTokenReceiverContractMissingLSP1Interface(address)": [
        {
          "details": "Reverts if the `tokenReceiver` does not implement LSP1 when minting or transferring tokens with `bool force` set as `false`."
        }
      ],
      "LSP8NotifyTokenReceiverIsEOA(address)": [
        {
          "details": "Reverts if the `tokenReceiver` is an EOA when minting or transferring tokens with `bool force` set as `false`."
        }
      ],
      "LSP8OperatorAlreadyAuthorized(address,bytes32)": [
        {
          "details": "Reverts when `operator` is already authorized for the `tokenId`."
        }
      ],
      "LSP8TokenContractCannotHoldValue()": [
        {
          "details": "Error occurs when sending native tokens to the LSP8 contract without sending any data. E.g. Sending value without passing a bytes4 function selector to call a LSP17 Extension."
        }
      ],
      "LSP8TokenIdAlreadyMinted(bytes32)": [
        {
          "details": "Reverts when `tokenId` has already been minted."
        }
      ],
      "LSP8TokenIdFormatNotEditable()": [
        {
          "details": "Reverts when trying to edit the data key `LSP8TokenIdFormat` after the identifiable digital asset contract has been deployed. The `LSP8TokenIdFormat` data key is located inside the ERC725Y Data key-value store of the identifiable digital asset contract. It can be set only once inside the constructor/initializer when the identifiable digital asset contract is being deployed."
        }
      ],
      "LSP8TokenIdsDataEmptyArray()": [
        {
          "details": "Reverts when empty arrays is passed to the function"
        }
      ],
      "LSP8TokenIdsDataLengthMismatch()": [
        {
          "details": "Reverts when the length of the token IDs data arrays is not equal"
        }
      ],
      "LSP8TokenOwnerCannotBeOperator()": [
        {
          "details": "Reverts when trying to authorize or revoke the token's owner as an operator."
        }
      ],
      "LSP8TokenOwnerChanged(bytes32,address,address)": [
        {
          "details": "Reverts when the token owner changed inside the {_beforeTokenTransfer} hook."
        }
      ],
      "NoExtensionFoundForFunctionSelector(bytes4)": [
        {
          "details": "reverts when there is no extension for the function selector being called with"
        }
      ],
      "OwnableCallerNotTheOwner(address)": [
        {
          "details": "Reverts when only the owner is allowed to call the function.",
          "params": {
            "callerAddress": "The address that tried to make the call."
          }
        }
      ],
      "OwnableCannotSetZeroAddressAsOwner()": [
        {
          "details": "Reverts when trying to set `address(0)` as the contract owner when deploying the contract, initializing it or transferring ownership of the contract."
        }
      ]
    },
    "kind": "dev",
    "methods": {
      "authorizeOperator(address,bytes32,bytes)": {
        "details": "Allow an `operator` address to transfer or burn a specific `tokenId` on behalf of its token owner. See {isOperatorFor}. Notify the operator based on the LSP1-UniversalReceiver standard",
        "params": {
          "operator": "The address to authorize as an operator.",
          "operatorNotificationData": "The data to notify the operator about via LSP1.",
          "tokenId": "The token ID operator has access to."
        }
      },
      "balanceOf(address)": {
        "details": "Get the number of token IDs owned by `tokenOwner`.",
        "params": {
          "tokenOwner": "The address to query     *"
        },
        "returns": {
          "_0": "The total number of token IDs that `tokenOwner` owns."
        }
      },
      "batchCalls(bytes[])": {
        "custom:info": "It's not possible to send value along the functions call due to the use of `delegatecall`.",
        "details": "Allows a caller to batch different function calls in one call. Perform a `delegatecall` on self, to call different functions with preserving the context.",
        "params": {
          "data": "An array of ABI encoded function calls to be called on the contract."
        },
        "returns": {
          "results": "An array of abi-encoded data returned by the functions executed."
        }
      },
      "constructor": {
        "details": "initialize (= lock) base implementation contract on deployment"
      },
      "getData(bytes32)": {
        "details": "Get in the ERC725Y storage the bytes data stored at a specific data key `dataKey`.",
        "params": {
          "dataKey": "The data key for which to retrieve the value."
        },
        "returns": {
          "dataValue": "The bytes value stored under the specified data key."
        }
      },
      "getDataBatch(bytes32[])": {
        "details": "Get in the ERC725Y storage the bytes data stored at multiple data keys `dataKeys`.",
        "params": {
          "dataKeys": "The array of keys which values to retrieve"
        },
        "returns": {
          "dataValues": "The array of data stored at multiple keys"
        }
      },
      "getDataBatchForTokenIds(bytes32[],bytes32[])": {
        "params": {
          "dataKeys": "An array of data keys corresponding to the token IDs.",
          "tokenIds": "An array of token IDs."
        },
        "returns": {
          "dataValues": "An array of data values for each pair of `tokenId` and `dataKey`."
        }
      },
      "getDataForTokenId(bytes32,bytes32)": {
        "params": {
          "dataKey": "The key for the data to retrieve.",
          "tokenId": "The unique identifier for a token."
        },
        "returns": {
          "dataValue": "The data value associated with the given `tokenId` and `dataKey`."
        }
      },
      "getOperatorsOf(bytes32)": {
        "details": "Returns all `operator` addresses that are allowed to transfer or burn a specific `tokenId` on behalf of its owner.",
        "params": {
          "tokenId": "The token ID to get the operators for."
        },
        "returns": {
          "_0": "An array of operators allowed to transfer or burn a specific `tokenId`. Requirements - `tokenId` must exist."
        }
      },
      "initialize(string,string,address,uint256,uint256)": {
        "params": {
          "lsp4TokenType_": "The type of token this digital asset contract represents (`0` = Token, `1` = NFT, `2` = Collection).",
          "lsp8TokenIdFormat_": "The format of tokenIds (= NFTs) that this contract will create.",
          "name_": "The name of the token.",
          "newOwner_": "The owner of the token contract.",
          "symbol_": "The symbol of the token."
        }
      },
      "isOperatorFor(address,bytes32)": {
        "details": "Returns whether `operator` address is an operator for a given `tokenId`.",
        "params": {
          "operator": "The address to query operator status for.",
          "tokenId": "The token ID to check if `operator` is allowed to operate on."
        },
        "returns": {
          "_0": "`true` if `operator` is an operator for `tokenId`, `false` otherwise."
        }
      },
      "mint(address,bytes32,bool,bytes)": {
        "details": "Public {_mint} function only callable by the {owner}.",
        "params": {
          "data": "Any addition data to be sent alongside the minting.",
          "force": "Set to `false` to ensure that you are minting for a recipient that implements LSP1, `false` otherwise for forcing the minting.",
          "to": "The address that will receive the minted `tokenId`.",
          "tokenId": "The tokenId to mint."
        }
      },
      "owner()": {
        "details": "Returns the address of the current owner."
      },
      "renounceOwnership()": {
        "details": "Leaves the contract without owner. It will not be possible to call `onlyOwner` functions anymore. Can only be called by the current owner. NOTE: Renouncing ownership will leave the contract without an owner, thereby removing any functionality that is only available to the owner."
      },
      "revokeOperator(address,bytes32,bool,bytes)": {
        "details": "Remove access of `operator` for a given `tokenId`, disallowing it to transfer `tokenId` on behalf of its owner. See also {isOperatorFor}.",
        "params": {
          "notify": "Boolean indicating whether to notify the operator or not",
          "operator": "The address to revoke as an operator.",
          "operatorNotificationData": "The data to notify the operator about via LSP1.",
          "tokenId": "The tokenId `operator` is revoked from operating on."
        }
      },
      "setData(bytes32,bytes)": {
        "custom:events": "{DataChanged} event.",
        "custom:requirements": "- SHOULD only be callable by the {owner}.",
        "custom:warning": "**Note for developers:** despite the fact that this function is set as `payable`, if the function is not intended to receive value (= native tokens), **an additional check should be implemented to ensure that `msg.value` sent was equal to 0**.",
        "details": "Sets a single bytes value `dataValue` in the ERC725Y storage for a specific data key `dataKey`. The function is marked as payable to enable flexibility on child contracts. For instance to implement a fee mechanism for setting specific data.",
        "params": {
          "dataKey": "The data key for which to set a new value.",
          "dataValue": "The new bytes value to set."
        }
      },
      "setDataBatch(bytes32[],bytes[])": {
        "custom:events": "{DataChanged} event **for each data key/value pair set**.",
        "custom:requirements": "- SHOULD only be callable by the {owner} of the contract.",
        "custom:warning": "**Note for developers:** despite the fact that this function is set as `payable`, if the function is not intended to receive value (= native tokens), **an additional check should be implemented to ensure that `msg.value` sent was equal to 0**.",
        "details": "Batch data setting function that behaves the same as {setData} but allowing to set multiple data key/value pairs in the ERC725Y storage in the same transaction.",
        "params": {
          "dataKeys": "An array of data keys to set bytes values for.",
          "dataValues": "An array of bytes values to set for each `dataKeys`."
        }
      },
      "setDataBatchForTokenIds(bytes32[],bytes32[],bytes[])": {
        "params": {
          "dataKeys": "An array of data keys corresponding to the token IDs.",
          "dataValues": "An array of values to set for the given data keys.",
          "tokenIds": "An array of token IDs."
        }
      },
      "setDataForTokenId(bytes32,bytes32,bytes)": {
        "params": {
          "dataKey": "The key for the data to set.",
          "dataValue": "The value to set for the given data key.",
          "tokenId": "The unique identifier for a token."
        }
      },
      "supportsInterface(bytes4)": {
        "details": "See {IERC165-supportsInterface}."
      },
      "tokenIdsOf(address)": {
        "details": "Returns the list of token IDs that the `tokenOwner` address owns.",
        "params": {
          "tokenOwner": "The address that we want to get the list of token IDs for."
        },
        "returns": {
          "_0": "An array of `bytes32[] tokenIds` owned by `tokenOwner`."
        }
      },
      "tokenOwnerOf(bytes32)": {
        "details": "Returns the list of `tokenIds` for the `tokenOwner` address.",
        "params": {
          "tokenId": "tokenOwner The address to query owned tokens"
        },
        "returns": {
          "_0": "The owner address of the given `tokenId`."
        }
      },
      "totalSupply()": {
        "details": "Returns the number of existing tokens that have been minted in this contract.",
        "returns": {
          "_0": "The number of existing tokens."
        }
      },
      "transfer(address,address,bytes32,bool,bytes)": {
        "details": "Transfer a given `tokenId` token from the `from` address to the `to` address. If operators are set for a specific `tokenId`, all the operators are revoked after the tokenId have been transferred. The `force` parameter MUST be set to `true` when transferring tokens to Externally Owned Accounts (EOAs) or contracts that do not implement the LSP1 standard.",
        "params": {
          "data": "Any additional data the caller wants included in the emitted event, and sent in the hooks of the `from` and `to` addresses.",
          "force": "When set to `true`, the `to` address CAN be any addres. When set to `false`, the `to` address MUST be a contract that supports the LSP1 UniversalReceiver standard.",
          "from": "The address that owns the given `tokenId`.",
          "to": "The address that will receive the `tokenId`.",
          "tokenId": "The token ID to transfer."
        }
      },
      "transferBatch(address[],address[],bytes32[],bool[],bytes[])": {
        "details": "Transfers multiple tokens at once based on the arrays of `from`, `to` and `tokenId`. If any transfer fails, the whole call will revert.",
        "params": {
          "data": "Any additional data the caller wants included in the emitted event, and sent in the hooks to the `from` and `to` addresses.",
          "force": "When set to `true`, `to` may be any address. When set to `false`, `to` must be a contract that supports the LSP1 standard and not revert.",
          "from": "An array of sending addresses.",
          "to": "An array of recipient addresses.",
          "tokenId": "An array of token IDs to transfer."
        }
      },
      "transferOwnership(address)": {
        "details": "Transfers ownership of the contract to a new account (`newOwner`). Can only be called by the current owner."
      }
    },
    "version": 1
  },
  "userdoc": {
    "errors": {
      "LSP8BatchCallFailed(uint256)": [
        {
          "notice": "Batch call failed."
        }
      ],
      "LSP8TokenContractCannotHoldValue()": [
        {
          "notice": "LSP8 contract cannot receive native tokens."
        }
      ]
    },
    "events": {
      "DataChanged(bytes32,bytes)": {
        "notice": "The following data key/value pair has been changed in the ERC725Y storage: Data key: `dataKey`, data value: `dataValue`."
      }
    },
    "kind": "user",
    "methods": {
      "batchCalls(bytes[])": {
        "notice": "Executing the following batch of abi-encoded function calls on the contract: `data`."
      },
      "getData(bytes32)": {
        "notice": "Reading the ERC725Y storage for data key `dataKey` returned the following value: `dataValue`."
      },
      "getDataBatch(bytes32[])": {
        "notice": "Reading the ERC725Y storage for data keys `dataKeys` returned the following values: `dataValues`."
      },
      "getDataBatchForTokenIds(bytes32[],bytes32[])": {
        "notice": "Retrieves data in batch for multiple `tokenId` and `dataKey` pairs."
      },
      "getDataForTokenId(bytes32,bytes32)": {
        "notice": "Retrieves data for a specific `tokenId` and `dataKey`."
      },
      "initialize(string,string,address,uint256,uint256)": {
        "notice": "Initializing a `LSP8MintableInit` token contract with: token name = `name_`, token symbol = `symbol_`, and address `newOwner_` as the token contract owner."
      },
      "mint(address,bytes32,bool,bytes)": {
        "notice": "Minting tokenId `tokenId` for address `to` with the additional data `data` (Note: allow non-LSP1 recipient is set to `force`)."
      },
      "setData(bytes32,bytes)": {
        "notice": "Setting the following data key value pair in the ERC725Y storage. Data key: `dataKey`, data value: `dataValue`."
      },
      "setDataBatch(bytes32[],bytes[])": {
        "notice": "Setting the following data key value pairs in the ERC725Y storage. Data keys: `dataKeys`, data values: `dataValues`."
      },
      "setDataBatchForTokenIds(bytes32[],bytes32[],bytes[])": {
        "notice": "Sets data in batch for multiple `tokenId` and `dataKey` pairs."
      },
      "setDataForTokenId(bytes32,bytes32,bytes)": {
        "notice": "Sets data for a specific `tokenId` and `dataKey`."
      }
    },
    "version": 1
  },
  "storageLayout": {
    "storage": [
      {
        "astId": 1726,
        "contract": "contracts/LSP8IdentifiableDigitalAsset/presets/LSP8MintableInit.sol:LSP8MintableInit",
        "label": "_initialized",
        "offset": 0,
        "slot": "0",
        "type": "t_uint8"
      },
      {
        "astId": 1729,
        "contract": "contracts/LSP8IdentifiableDigitalAsset/presets/LSP8MintableInit.sol:LSP8MintableInit",
        "label": "_initializing",
        "offset": 1,
        "slot": "0",
        "type": "t_bool"
      },
      {
        "astId": 1452,
        "contract": "contracts/LSP8IdentifiableDigitalAsset/presets/LSP8MintableInit.sol:LSP8MintableInit",
        "label": "_owner",
        "offset": 2,
        "slot": "0",
        "type": "t_address"
      },
      {
        "astId": 1172,
        "contract": "contracts/LSP8IdentifiableDigitalAsset/presets/LSP8MintableInit.sol:LSP8MintableInit",
        "label": "_store",
        "offset": 0,
        "slot": "1",
        "type": "t_mapping(t_bytes32,t_bytes_storage)"
      },
      {
        "astId": 19139,
        "contract": "contracts/LSP8IdentifiableDigitalAsset/presets/LSP8MintableInit.sol:LSP8MintableInit",
        "label": "_existingTokens",
        "offset": 0,
        "slot": "2",
        "type": "t_uint256"
      },
      {
        "astId": 19143,
        "contract": "contracts/LSP8IdentifiableDigitalAsset/presets/LSP8MintableInit.sol:LSP8MintableInit",
        "label": "_tokenOwners",
        "offset": 0,
        "slot": "3",
        "type": "t_mapping(t_bytes32,t_address)"
      },
      {
        "astId": 19148,
        "contract": "contracts/LSP8IdentifiableDigitalAsset/presets/LSP8MintableInit.sol:LSP8MintableInit",
        "label": "_ownedTokens",
        "offset": 0,
        "slot": "4",
        "type": "t_mapping(t_address,t_struct(Bytes32Set)5289_storage)"
      },
      {
        "astId": 19153,
        "contract": "contracts/LSP8IdentifiableDigitalAsset/presets/LSP8MintableInit.sol:LSP8MintableInit",
        "label": "_operators",
        "offset": 0,
        "slot": "5",
        "type": "t_mapping(t_bytes32,t_struct(AddressSet)5410_storage)"
      }
    ],
    "types": {
      "t_address": {
        "encoding": "inplace",
        "label": "address",
        "numberOfBytes": "20"
      },
      "t_array(t_bytes32)dyn_storage": {
        "base": "t_bytes32",
        "encoding": "dynamic_array",
        "label": "bytes32[]",
        "numberOfBytes": "32"
      },
      "t_bool": {
        "encoding": "inplace",
        "label": "bool",
        "numberOfBytes": "1"
      },
      "t_bytes32": {
        "encoding": "inplace",
        "label": "bytes32",
        "numberOfBytes": "32"
      },
      "t_bytes_storage": {
        "encoding": "bytes",
        "label": "bytes",
        "numberOfBytes": "32"
      },
      "t_mapping(t_address,t_struct(Bytes32Set)5289_storage)": {
        "encoding": "mapping",
        "key": "t_address",
        "label": "mapping(address => struct EnumerableSet.Bytes32Set)",
        "numberOfBytes": "32",
        "value": "t_struct(Bytes32Set)5289_storage"
      },
      "t_mapping(t_bytes32,t_address)": {
        "encoding": "mapping",
        "key": "t_bytes32",
        "label": "mapping(bytes32 => address)",
        "numberOfBytes": "32",
        "value": "t_address"
      },
      "t_mapping(t_bytes32,t_bytes_storage)": {
        "encoding": "mapping",
        "key": "t_bytes32",
        "label": "mapping(bytes32 => bytes)",
        "numberOfBytes": "32",
        "value": "t_bytes_storage"
      },
      "t_mapping(t_bytes32,t_struct(AddressSet)5410_storage)": {
        "encoding": "mapping",
        "key": "t_bytes32",
        "label": "mapping(bytes32 => struct EnumerableSet.AddressSet)",
        "numberOfBytes": "32",
        "value": "t_struct(AddressSet)5410_storage"
      },
      "t_mapping(t_bytes32,t_uint256)": {
        "encoding": "mapping",
        "key": "t_bytes32",
        "label": "mapping(bytes32 => uint256)",
        "numberOfBytes": "32",
        "value": "t_uint256"
      },
      "t_struct(AddressSet)5410_storage": {
        "encoding": "inplace",
        "label": "struct EnumerableSet.AddressSet",
        "members": [
          {
            "astId": 5409,
            "contract": "contracts/LSP8IdentifiableDigitalAsset/presets/LSP8MintableInit.sol:LSP8MintableInit",
            "label": "_inner",
            "offset": 0,
            "slot": "0",
            "type": "t_struct(Set)5095_storage"
          }
        ],
        "numberOfBytes": "64"
      },
      "t_struct(Bytes32Set)5289_storage": {
        "encoding": "inplace",
        "label": "struct EnumerableSet.Bytes32Set",
        "members": [
          {
            "astId": 5288,
            "contract": "contracts/LSP8IdentifiableDigitalAsset/presets/LSP8MintableInit.sol:LSP8MintableInit",
            "label": "_inner",
            "offset": 0,
            "slot": "0",
            "type": "t_struct(Set)5095_storage"
          }
        ],
        "numberOfBytes": "64"
      },
      "t_struct(Set)5095_storage": {
        "encoding": "inplace",
        "label": "struct EnumerableSet.Set",
        "members": [
          {
            "astId": 5090,
            "contract": "contracts/LSP8IdentifiableDigitalAsset/presets/LSP8MintableInit.sol:LSP8MintableInit",
            "label": "_values",
            "offset": 0,
            "slot": "0",
            "type": "t_array(t_bytes32)dyn_storage"
          },
          {
            "astId": 5094,
            "contract": "contracts/LSP8IdentifiableDigitalAsset/presets/LSP8MintableInit.sol:LSP8MintableInit",
            "label": "_indexes",
            "offset": 0,
            "slot": "1",
            "type": "t_mapping(t_bytes32,t_uint256)"
          }
        ],
        "numberOfBytes": "64"
      },
      "t_uint256": {
        "encoding": "inplace",
        "label": "uint256",
        "numberOfBytes": "32"
      },
      "t_uint8": {
        "encoding": "inplace",
        "label": "uint8",
        "numberOfBytes": "1"
      }
    }
  }
}