{
  "abi": [
    {
      "inputs": [
        {
          "internalType": "uint256",
          "name": "dataKeysLength",
          "type": "uint256"
        },
        {
          "internalType": "uint256",
          "name": "dataValuesLength",
          "type": "uint256"
        }
      ],
      "name": "ERC725Y_DataKeysValuesLengthMismatch",
      "type": "error"
    },
    {
      "inputs": [],
      "name": "LSP4TokenNameNotEditable",
      "type": "error"
    },
    {
      "inputs": [],
      "name": "LSP4TokenSymbolNotEditable",
      "type": "error"
    },
    {
      "inputs": [],
      "name": "LSP8CannotSendToAddressZero",
      "type": "error"
    },
    {
      "inputs": [],
      "name": "LSP8CannotSendToSelf",
      "type": "error"
    },
    {
      "inputs": [],
      "name": "LSP8CannotUseAddressZeroAsOperator",
      "type": "error"
    },
    {
      "inputs": [],
      "name": "LSP8InvalidTransferBatch",
      "type": "error"
    },
    {
      "inputs": [
        {
          "internalType": "bytes32",
          "name": "tokenId",
          "type": "bytes32"
        }
      ],
      "name": "LSP8NonExistentTokenId",
      "type": "error"
    },
    {
      "inputs": [
        {
          "internalType": "address",
          "name": "operator",
          "type": "address"
        },
        {
          "internalType": "bytes32",
          "name": "tokenId",
          "type": "bytes32"
        }
      ],
      "name": "LSP8NonExistingOperator",
      "type": "error"
    },
    {
      "inputs": [
        {
          "internalType": "bytes32",
          "name": "tokenId",
          "type": "bytes32"
        },
        {
          "internalType": "address",
          "name": "caller",
          "type": "address"
        }
      ],
      "name": "LSP8NotTokenOperator",
      "type": "error"
    },
    {
      "inputs": [
        {
          "internalType": "address",
          "name": "tokenOwner",
          "type": "address"
        },
        {
          "internalType": "bytes32",
          "name": "tokenId",
          "type": "bytes32"
        },
        {
          "internalType": "address",
          "name": "caller",
          "type": "address"
        }
      ],
      "name": "LSP8NotTokenOwner",
      "type": "error"
    },
    {
      "inputs": [
        {
          "internalType": "address",
          "name": "tokenReceiver",
          "type": "address"
        }
      ],
      "name": "LSP8NotifyTokenReceiverContractMissingLSP1Interface",
      "type": "error"
    },
    {
      "inputs": [
        {
          "internalType": "address",
          "name": "tokenReceiver",
          "type": "address"
        }
      ],
      "name": "LSP8NotifyTokenReceiverIsEOA",
      "type": "error"
    },
    {
      "inputs": [
        {
          "internalType": "address",
          "name": "operator",
          "type": "address"
        },
        {
          "internalType": "bytes32",
          "name": "tokenId",
          "type": "bytes32"
        }
      ],
      "name": "LSP8OperatorAlreadyAuthorized",
      "type": "error"
    },
    {
      "inputs": [
        {
          "internalType": "bytes32",
          "name": "tokenId",
          "type": "bytes32"
        }
      ],
      "name": "LSP8TokenIdAlreadyMinted",
      "type": "error"
    },
    {
      "anonymous": false,
      "inputs": [
        {
          "indexed": true,
          "internalType": "address",
          "name": "operator",
          "type": "address"
        },
        {
          "indexed": true,
          "internalType": "address",
          "name": "tokenOwner",
          "type": "address"
        },
        {
          "indexed": true,
          "internalType": "bytes32",
          "name": "tokenId",
          "type": "bytes32"
        }
      ],
      "name": "AuthorizedOperator",
      "type": "event"
    },
    {
      "anonymous": false,
      "inputs": [
        {
          "indexed": true,
          "internalType": "bytes32",
          "name": "dataKey",
          "type": "bytes32"
        },
        {
          "indexed": false,
          "internalType": "bytes",
          "name": "dataValue",
          "type": "bytes"
        }
      ],
      "name": "DataChanged",
      "type": "event"
    },
    {
      "anonymous": false,
      "inputs": [
        {
          "indexed": false,
          "internalType": "uint8",
          "name": "version",
          "type": "uint8"
        }
      ],
      "name": "Initialized",
      "type": "event"
    },
    {
      "anonymous": false,
      "inputs": [
        {
          "indexed": true,
          "internalType": "address",
          "name": "previousOwner",
          "type": "address"
        },
        {
          "indexed": true,
          "internalType": "address",
          "name": "newOwner",
          "type": "address"
        }
      ],
      "name": "OwnershipTransferred",
      "type": "event"
    },
    {
      "anonymous": false,
      "inputs": [
        {
          "indexed": true,
          "internalType": "address",
          "name": "operator",
          "type": "address"
        },
        {
          "indexed": true,
          "internalType": "address",
          "name": "tokenOwner",
          "type": "address"
        },
        {
          "indexed": true,
          "internalType": "bytes32",
          "name": "tokenId",
          "type": "bytes32"
        }
      ],
      "name": "RevokedOperator",
      "type": "event"
    },
    {
      "anonymous": false,
      "inputs": [
        {
          "indexed": false,
          "internalType": "address",
          "name": "operator",
          "type": "address"
        },
        {
          "indexed": true,
          "internalType": "address",
          "name": "from",
          "type": "address"
        },
        {
          "indexed": true,
          "internalType": "address",
          "name": "to",
          "type": "address"
        },
        {
          "indexed": true,
          "internalType": "bytes32",
          "name": "tokenId",
          "type": "bytes32"
        },
        {
          "indexed": false,
          "internalType": "bool",
          "name": "force",
          "type": "bool"
        },
        {
          "indexed": false,
          "internalType": "bytes",
          "name": "data",
          "type": "bytes"
        }
      ],
      "name": "Transfer",
      "type": "event"
    },
    {
      "inputs": [
        {
          "internalType": "address",
          "name": "operator",
          "type": "address"
        },
        {
          "internalType": "bytes32",
          "name": "tokenId",
          "type": "bytes32"
        }
      ],
      "name": "authorizeOperator",
      "outputs": [],
      "stateMutability": "nonpayable",
      "type": "function"
    },
    {
      "inputs": [
        {
          "internalType": "address",
          "name": "tokenOwner",
          "type": "address"
        }
      ],
      "name": "balanceOf",
      "outputs": [
        {
          "internalType": "uint256",
          "name": "",
          "type": "uint256"
        }
      ],
      "stateMutability": "view",
      "type": "function"
    },
    {
      "inputs": [
        {
          "internalType": "bytes32",
          "name": "tokenId",
          "type": "bytes32"
        }
      ],
      "name": "burn",
      "outputs": [],
      "stateMutability": "nonpayable",
      "type": "function"
    },
    {
      "inputs": [
        {
          "internalType": "bytes32[]",
          "name": "dataKeys",
          "type": "bytes32[]"
        }
      ],
      "name": "getData",
      "outputs": [
        {
          "internalType": "bytes[]",
          "name": "dataValues",
          "type": "bytes[]"
        }
      ],
      "stateMutability": "view",
      "type": "function"
    },
    {
      "inputs": [
        {
          "internalType": "bytes32",
          "name": "dataKey",
          "type": "bytes32"
        }
      ],
      "name": "getData",
      "outputs": [
        {
          "internalType": "bytes",
          "name": "dataValue",
          "type": "bytes"
        }
      ],
      "stateMutability": "view",
      "type": "function"
    },
    {
      "inputs": [
        {
          "internalType": "bytes32",
          "name": "tokenId",
          "type": "bytes32"
        }
      ],
      "name": "getOperatorsOf",
      "outputs": [
        {
          "internalType": "address[]",
          "name": "",
          "type": "address[]"
        }
      ],
      "stateMutability": "view",
      "type": "function"
    },
    {
      "inputs": [
        {
          "internalType": "string",
          "name": "name",
          "type": "string"
        },
        {
          "internalType": "string",
          "name": "symbol",
          "type": "string"
        },
        {
          "internalType": "address",
          "name": "newOwner",
          "type": "address"
        }
      ],
      "name": "initialize",
      "outputs": [],
      "stateMutability": "nonpayable",
      "type": "function"
    },
    {
      "inputs": [
        {
          "internalType": "address",
          "name": "operator",
          "type": "address"
        },
        {
          "internalType": "bytes32",
          "name": "tokenId",
          "type": "bytes32"
        }
      ],
      "name": "isOperatorFor",
      "outputs": [
        {
          "internalType": "bool",
          "name": "",
          "type": "bool"
        }
      ],
      "stateMutability": "view",
      "type": "function"
    },
    {
      "inputs": [
        {
          "internalType": "address",
          "name": "to",
          "type": "address"
        },
        {
          "internalType": "bytes32",
          "name": "tokenId",
          "type": "bytes32"
        }
      ],
      "name": "mint",
      "outputs": [],
      "stateMutability": "nonpayable",
      "type": "function"
    },
    {
      "inputs": [],
      "name": "owner",
      "outputs": [
        {
          "internalType": "address",
          "name": "",
          "type": "address"
        }
      ],
      "stateMutability": "view",
      "type": "function"
    },
    {
      "inputs": [],
      "name": "renounceOwnership",
      "outputs": [],
      "stateMutability": "nonpayable",
      "type": "function"
    },
    {
      "inputs": [
        {
          "internalType": "address",
          "name": "operator",
          "type": "address"
        },
        {
          "internalType": "bytes32",
          "name": "tokenId",
          "type": "bytes32"
        }
      ],
      "name": "revokeOperator",
      "outputs": [],
      "stateMutability": "nonpayable",
      "type": "function"
    },
    {
      "inputs": [
        {
          "internalType": "bytes32[]",
          "name": "dataKeys",
          "type": "bytes32[]"
        },
        {
          "internalType": "bytes[]",
          "name": "dataValues",
          "type": "bytes[]"
        }
      ],
      "name": "setData",
      "outputs": [],
      "stateMutability": "nonpayable",
      "type": "function"
    },
    {
      "inputs": [
        {
          "internalType": "bytes32",
          "name": "dataKey",
          "type": "bytes32"
        },
        {
          "internalType": "bytes",
          "name": "dataValue",
          "type": "bytes"
        }
      ],
      "name": "setData",
      "outputs": [],
      "stateMutability": "nonpayable",
      "type": "function"
    },
    {
      "inputs": [
        {
          "internalType": "bytes4",
          "name": "interfaceId",
          "type": "bytes4"
        }
      ],
      "name": "supportsInterface",
      "outputs": [
        {
          "internalType": "bool",
          "name": "",
          "type": "bool"
        }
      ],
      "stateMutability": "view",
      "type": "function"
    },
    {
      "inputs": [
        {
          "internalType": "uint256",
          "name": "index",
          "type": "uint256"
        }
      ],
      "name": "tokenAt",
      "outputs": [
        {
          "internalType": "bytes32",
          "name": "",
          "type": "bytes32"
        }
      ],
      "stateMutability": "view",
      "type": "function"
    },
    {
      "inputs": [
        {
          "internalType": "address",
          "name": "tokenOwner",
          "type": "address"
        }
      ],
      "name": "tokenIdsOf",
      "outputs": [
        {
          "internalType": "bytes32[]",
          "name": "",
          "type": "bytes32[]"
        }
      ],
      "stateMutability": "view",
      "type": "function"
    },
    {
      "inputs": [
        {
          "internalType": "bytes32",
          "name": "tokenId",
          "type": "bytes32"
        }
      ],
      "name": "tokenOwnerOf",
      "outputs": [
        {
          "internalType": "address",
          "name": "",
          "type": "address"
        }
      ],
      "stateMutability": "view",
      "type": "function"
    },
    {
      "inputs": [],
      "name": "totalSupply",
      "outputs": [
        {
          "internalType": "uint256",
          "name": "",
          "type": "uint256"
        }
      ],
      "stateMutability": "view",
      "type": "function"
    },
    {
      "inputs": [
        {
          "internalType": "address",
          "name": "from",
          "type": "address"
        },
        {
          "internalType": "address",
          "name": "to",
          "type": "address"
        },
        {
          "internalType": "bytes32",
          "name": "tokenId",
          "type": "bytes32"
        },
        {
          "internalType": "bool",
          "name": "force",
          "type": "bool"
        },
        {
          "internalType": "bytes",
          "name": "data",
          "type": "bytes"
        }
      ],
      "name": "transfer",
      "outputs": [],
      "stateMutability": "nonpayable",
      "type": "function"
    },
    {
      "inputs": [
        {
          "internalType": "address[]",
          "name": "from",
          "type": "address[]"
        },
        {
          "internalType": "address[]",
          "name": "to",
          "type": "address[]"
        },
        {
          "internalType": "bytes32[]",
          "name": "tokenId",
          "type": "bytes32[]"
        },
        {
          "internalType": "bool[]",
          "name": "force",
          "type": "bool[]"
        },
        {
          "internalType": "bytes[]",
          "name": "data",
          "type": "bytes[]"
        }
      ],
      "name": "transferBatch",
      "outputs": [],
      "stateMutability": "nonpayable",
      "type": "function"
    },
    {
      "inputs": [
        {
          "internalType": "address",
          "name": "newOwner",
          "type": "address"
        }
      ],
      "name": "transferOwnership",
      "outputs": [],
      "stateMutability": "nonpayable",
      "type": "function"
    }
  ],
  "bytecode": {
    "object": "0x608060405234801561001057600080fd5b50612498806100206000396000f3fe608060405234801561001057600080fd5b50600436106101425760003560e01c8063511b6952116100b85780637f23690c1161007c5780637f23690c146102c15780638da5cb5b146102d457806392a91a3a146102eb578063a3b261f21461030b578063cf5182ba1461032b578063f2fde38b1461033e57600080fd5b8063511b69521461026057806354f6127f1461027357806370a0823114610293578063715018a6146102a65780637e87632c146102ae57600080fd5b806318160ddd1161010a57806318160ddd146101bd578063217b2270146101cf5780632a3654a4146101fa5780632cfd30051461020d57806349a6078d146102205780634e3e6e9c1461024057600080fd5b806301ffc9a714610147578063077f224a1461016f57806308a1eee1146101845780630b0c6d821461019757806314a6e293146101aa575b600080fd5b61015a610155366004611a5f565b610351565b60405190151581526020015b60405180910390f35b61018261017d366004611b68565b61037c565b005b610182610192366004611bdb565b610498565b6101826101a5366004611bf4565b6104ca565b6101826101b8366004611d26565b61056c565b6002545b604051908152602001610166565b6101e26101dd366004611bdb565b6105f8565b6040516001600160a01b039091168152602001610166565b61015a610208366004611bf4565b610631565b61018261021b366004611bf4565b61064d565b61023361022e366004611bdb565b61068b565b6040516101669190611d89565b61025361024e366004611dd6565b6106ad565b6040516101669190611e5a565b61018261026e366004611ecc565b610760565b610286610281366004611bdb565b6107af565b6040516101669190611f44565b6101c16102a1366004611f57565b6107ba565b6101826107db565b6101826102bc366004612036565b6107ef565b6101826102cf3660046120fa565b6108de565b6000546201000090046001600160a01b03166101e2565b6101c16102f9366004611bdb565b60009081526007602052604090205490565b61031e610319366004611f57565b6108f0565b6040516101669190612136565b610182610339366004611bf4565b610914565b61018261034c366004611f57565b610a3d565b60006001600160e01b0319821663622e7a0160e01b1480610376575061037682610ab3565b92915050565b600054610100900460ff161580801561039c5750600054600160ff909116105b806103b65750303b1580156103b6575060005460ff166001145b61041e5760405162461bcd60e51b815260206004820152602e60248201527f496e697469616c697a61626c653a20636f6e747261637420697320616c72656160448201526d191e481a5b9a5d1a585b1a5e995960921b60648201526084015b60405180910390fd5b6000805460ff191660011790558015610441576000805461ff0019166101001790555b61044c848484610ae8565b8015610492576000805461ff0019169055604051600181527f7f26b83ff96e1f2b6a682f133852f6798a09c465da95921460cefb38474024989060200160405180910390a15b50505050565b6104c7816040518060400160405280600d81526020016c3332b2b6103a343290313ab93760991b815250610b1a565b50565b60006104d5826105f8565b9050336001600160a01b038216811461051b57604051632d938f5160e11b81526001600160a01b0380841660048301526024820185905282166044820152606401610415565b6001600160a01b03841661054257604051639577b8b360e01b815260040160405180910390fd5b836001600160a01b0316826001600160a01b0316036105615750505050565b610492848385610bec565b610574610c7d565b80518251146105a357815181516040516321d1e13360e11b815260048101929092526024820152604401610415565b60005b82518110156105f3576105eb8382815181106105c4576105c461216e565b60200260200101518383815181106105de576105de61216e565b6020026020010151610cde565b6001016105a6565b505050565b6000818152600360205260408120546001600160a01b03168061037657604051635747cd1b60e11b815260048101849052602401610415565b600061063c82610dd2565b6106468383610e0a565b9392505050565b61068782826001604051806040016040528060158152602001743a37b5b2b710383934b73a32b91033b7903139393960591b815250610e53565b5050565b606061069682610dd2565b600082815260056020526040902061037690610f79565b606081516001600160401b038111156106c8576106c8611a89565b6040519080825280602002602001820160405280156106fb57816020015b60608152602001906001900390816106e65790505b50905060005b825181101561075a5761072c83828151811061071f5761071f61216e565b6020026020010151610f86565b82828151811061073e5761073e61216e565b60200260200101819052506107538160010190565b9050610701565b50919050565b3361076b8185610e0a565b61079a57604051631294d2a960e01b8152600481018590526001600160a01b0382166024820152604401610415565b6107a78686868686611028565b505050505050565b606061037682610f86565b6001600160a01b0381166000908152600460205260408120610376906111bd565b6107e3610c7d565b6107ed60006111c7565b565b8451845181141580610802575083518114155b8061080e575082518114155b8061081a575081518114155b15610838576040516393a8311960e01b815260040160405180910390fd5b60005b818110156108d5576108cd8782815181106108585761085861216e565b60200260200101518783815181106108725761087261216e565b602002602001015187848151811061088c5761088c61216e565b60200260200101518785815181106108a6576108a661216e565b60200260200101518786815181106108c0576108c061216e565b6020026020010151610760565b60010161083b565b50505050505050565b6108e6610c7d565b6106878282610cde565b6001600160a01b03811660009081526004602052604090206060906103769061123d565b600061091f826105f8565b9050336001600160a01b038216811461096557604051632d938f5160e11b81526001600160a01b0380841660048301526024820185905282166044820152606401610415565b6001600160a01b03841661098c57604051639577b8b360e01b815260040160405180910390fd5b836001600160a01b0316826001600160a01b0316036109ab5750505050565b60008381526005602052604081206109c39086611248565b9050806109f5576040516314ec4d6d60e31b81526001600160a01b038616600482015260248101859052604401610415565b83836001600160a01b0316866001600160a01b03167f34b797fc5a526f7bf1d2b5de25f6564fd85ae364e3ee939aee7c1ac27871a98860405160405180910390a45050505050565b610a45610c7d565b6001600160a01b038116610aaa5760405162461bcd60e51b815260206004820152602660248201527f4f776e61626c653a206e6577206f776e657220697320746865207a65726f206160448201526564647265737360d01b6064820152608401610415565b6104c7816111c7565b60006001600160e01b03198216631c537ddf60e21b148061037657506301ffc9a760e01b6001600160e01b0319831614610376565b600054610100900460ff16610b0f5760405162461bcd60e51b815260040161041590612184565b6105f383838361125d565b6000610b25836105f8565b905033610b348260008661132a565b600160026000828254610b4791906121e5565b90915550610b57905082856113e4565b6001600160a01b0382166000908152600460205260409020610b79908561142b565b5060008481526003602052604080822080546001600160a01b0319169055518591906001600160a01b038516907fb333c813a7426a7a11e2b190cad52c44119421594b47f6f32ace6d8c7207b2bf90610bd790869085908a906121f8565b60405180910390a46104928260008686611437565b6000818152600560205260408120610c04908561150b565b905080610c36576040516312a8c6a360e21b81526001600160a01b038516600482015260248101839052604401610415565b81836001600160a01b0316856001600160a01b03167f17d5389f6ab6adb2647dfa0aa365c323d37adacc30b33a65310b6158ce1373d560405160405180910390a450505050565b6000546001600160a01b03620100009091041633146107ed5760405162461bcd60e51b815260206004820181905260248201527f4f776e61626c653a2063616c6c6572206973206e6f7420746865206f776e65726044820152606401610415565b7f2145e1d6d074577dc71ef54c3807742b41b053a9352ae6b491331509acb9750f8201610d1e576040516385c169bd60e01b815260040160405180910390fd5b7fd0f59754f88971fe6bc5a6618cc9d5f1e859c58d16b22d1c7b2d3e2b246cd8aa8201610d5e57604051630eceab6760e31b815260040160405180910390fd5b6000828152600160205260409020610d7682826122a7565b50817fece574603820d07bc9b91f2a932baadf4628aabcb8afba49776529c14a6104b261010083511115610db757610db2836000610100611520565b610db9565b825b604051610dc69190611f44565b60405180910390a25050565b6000818152600360205260409020546001600160a01b03166104c757604051635747cd1b60e11b815260048101829052602401610415565b600080610e16836105f8565b9050806001600160a01b0316846001600160a01b03161480610e4b57506000838152600560205260409020610e4b908561162d565b949350505050565b6001600160a01b038416610e7a576040516324ecef4d60e01b815260040160405180910390fd5b6000838152600360205260409020546001600160a01b031615610eb3576040516334c7b51160e01b815260048101849052602401610415565b33610ec06000868661132a565b600160026000828254610ed39190612366565b90915550506001600160a01b0385166000908152600460205260409020610efa908561164f565b5060008481526003602052604080822080546001600160a01b0319166001600160a01b03891690811790915590518692907fb333c813a7426a7a11e2b190cad52c44119421594b47f6f32ace6d8c7207b2bf90610f5c908690899089906121f8565b60405180910390a4610f7260008686868661165b565b5050505050565b6060600061064683611793565b6000818152600160205260409020805460609190610fa39061222d565b80601f0160208091040260200160405190810160405280929190818152602001828054610fcf9061222d565b801561101c5780601f10610ff15761010080835404028352916020019161101c565b820191906000526020600020905b815481529060010190602001808311610fff57829003601f168201915b50505050509050919050565b836001600160a01b0316856001600160a01b03160361105a57604051635d67d6c160e01b815260040160405180910390fd5b6000611065846105f8565b9050856001600160a01b0316816001600160a01b0316146110b357604051632d938f5160e11b81526001600160a01b0380831660048301526024820186905287166044820152606401610415565b6001600160a01b0385166110da576040516324ecef4d60e01b815260040160405180910390fd5b336110e687878761132a565b6110f087866113e4565b6001600160a01b0387166000908152600460205260409020611112908661142b565b506001600160a01b0386166000908152600460205260409020611135908661164f565b506000858152600360205260409081902080546001600160a01b0319166001600160a01b0389811691821790925591518792918a16907fb333c813a7426a7a11e2b190cad52c44119421594b47f6f32ace6d8c7207b2bf9061119c9086908a908a906121f8565b60405180910390a46111b087878786611437565b6108d5878787878761165b565b6000610376825490565b6000546001600160a01b038281166201000090920416146104c757600080546001600160a01b038381166201000081810262010000600160b01b0319851617855560405193049190911692909183917f8be0079c531659141344cd1fd0a4f28419497f9722a3daafe3b4186f6b6457e091a35050565b606061037682611793565b6000610646836001600160a01b0384166117ee565b600054610100900460ff166112845760405162461bcd60e51b815260040161041590612184565b61128d8161183d565b6112d67feafec4d89fa9619884b60000a4d96624a38f7ac2d8d9a604ecf07c12c77e480c60001b604051806040016040528060048152602001632936598960e21b815250611864565b6113007fdeba1e292f8ba88238e10ab3c7f88bd4be4fac56cad5194b6ecceaf653468af184611864565b6105f37f2f0a68ab07768e01943a599e73362a0e17a63a72e94dd2e384d2c1d4db93275683611864565b6001600160a01b03831661135f5760025460008181526007602090815260408083208590558483526008909152902055505050565b6001600160a01b0382166105f3576000600160025461137e91906121e5565b600083815260086020526040902054909150818110156113c0576000828152600760209081526040808320548484528184208190558352600890915290208190555b50600090815260076020908152604080832083905592825260089052908120555050565b6000818152600560205260408120906113fc826111bd565b905060005b81811015610f7257600061141584826118ad565b9050611422818787610bec565b50600101611401565b600061064683836118b9565b61144884631aed5a8560e21b6119ac565b15610492576000848484846040516020016114669493929190612379565b60408051601f1981840301815290829052631aed5a8560e21b825291506001600160a01b03861690636bb56a14906114c4907fb23eae7e6d1564b295b4c3e3be402d9a2f0776c57bdf365903496f6fa481ab009085906004016123c6565b6000604051808303816000875af11580156114e3573d6000803e3d6000fd5b505050506040513d6000823e601f3d908101601f191682016040526107a791908101906123df565b6000610646836001600160a01b0384166118b9565b60608161152e81601f612366565b101561156d5760405162461bcd60e51b815260206004820152600e60248201526d736c6963655f6f766572666c6f7760901b6044820152606401610415565b6115778284612366565b845110156115bb5760405162461bcd60e51b8152602060048201526011602482015270736c6963655f6f75744f66426f756e647360781b6044820152606401610415565b6060821580156115da5760405191506000825260208201604052611624565b6040519150601f8416801560200281840101858101878315602002848b0101015b818310156116135780518352602092830192016115fb565b5050858452601f01601f1916604052505b50949350505050565b6001600160a01b03811660009081526001830160205260408120541515610646565b600061064683836117ee565b61166c84631aed5a8560e21b6119ac565b156117365760008585858460405160200161168a9493929190612379565b60408051601f1981840301815290829052631aed5a8560e21b825291506001600160a01b03861690636bb56a14906116e8907f0b084a55ebf70fd3c06fd755269dac2212c4d3f0f4d09079780bfa50c1b2984d9085906004016123c6565b6000604051808303816000875af1158015611707573d6000803e3d6000fd5b505050506040513d6000823e601f3d908101601f1916820160405261172f91908101906123df565b5050610f72565b81610f72576001600160a01b0384163b1561176f57604051634349776d60e01b81526001600160a01b0385166004820152602401610415565b604051630317313760e01b81526001600160a01b0385166004820152602401610415565b60608160000180548060200260200160405190810160405280929190818152602001828054801561101c57602002820191906000526020600020905b8154815260200190600101908083116117cf5750505050509050919050565b600081815260018301602052604081205461183557508154600181810184556000848152602080822090930184905584548482528286019093526040902091909155610376565b506000610376565b600054610100900460ff16610a455760405162461bcd60e51b815260040161041590612184565b600082815260016020526040902061187c82826122a7565b50817fece574603820d07bc9b91f2a932baadf4628aabcb8afba49776529c14a6104b282604051610dc69190611f44565b60006106468383611a35565b600081815260018301602052604081205480156119a25760006118dd6001836121e5565b85549091506000906118f1906001906121e5565b90508181146119565760008660000182815481106119115761191161216e565b90600052602060002001549050808760000184815481106119345761193461216e565b6000918252602080832090910192909255918252600188019052604090208390555b85548690806119675761196761244c565b600190038181906000526020600020016000905590558560010160008681526020019081526020016000206000905560019350505050610376565b6000915050610376565b604080516001600160e01b03198316602480830191909152825180830390910181526044909101909152602080820180516001600160e01b03166301ffc9a760e01b178152825160009392849283928392918391908a617530fa92503d91506000519050828015611a1e575060208210155b8015611a2a5750600081115b979650505050505050565b6000826000018281548110611a4c57611a4c61216e565b9060005260206000200154905092915050565b600060208284031215611a7157600080fd5b81356001600160e01b03198116811461064657600080fd5b634e487b7160e01b600052604160045260246000fd5b604051601f8201601f191681016001600160401b0381118282101715611ac757611ac7611a89565b604052919050565b60006001600160401b03821115611ae857611ae8611a89565b50601f01601f191660200190565b600082601f830112611b0757600080fd5b8135611b1a611b1582611acf565b611a9f565b818152846020838601011115611b2f57600080fd5b816020850160208301376000918101602001919091529392505050565b80356001600160a01b0381168114611b6357600080fd5b919050565b600080600060608486031215611b7d57600080fd5b83356001600160401b0380821115611b9457600080fd5b611ba087838801611af6565b94506020860135915080821115611bb657600080fd5b50611bc386828701611af6565b925050611bd260408501611b4c565b90509250925092565b600060208284031215611bed57600080fd5b5035919050565b60008060408385031215611c0757600080fd5b611c1083611b4c565b946020939093013593505050565b60006001600160401b03821115611c3757611c37611a89565b5060051b60200190565b600082601f830112611c5257600080fd5b81356020611c62611b1583611c1e565b82815260059290921b84018101918181019086841115611c8157600080fd5b8286015b84811015611c9c5780358352918301918301611c85565b509695505050505050565b600082601f830112611cb857600080fd5b81356020611cc8611b1583611c1e565b82815260059290921b84018101918181019086841115611ce757600080fd5b8286015b84811015611c9c5780356001600160401b03811115611d0a5760008081fd5b611d188986838b0101611af6565b845250918301918301611ceb565b60008060408385031215611d3957600080fd5b82356001600160401b0380821115611d5057600080fd5b611d5c86838701611c41565b93506020850135915080821115611d7257600080fd5b50611d7f85828601611ca7565b9150509250929050565b6020808252825182820181905260009190848201906040850190845b81811015611dca5783516001600160a01b031683529284019291840191600101611da5565b50909695505050505050565b600060208284031215611de857600080fd5b81356001600160401b03811115611dfe57600080fd5b610e4b84828501611c41565b60005b83811015611e25578181015183820152602001611e0d565b50506000910152565b60008151808452611e46816020860160208601611e0a565b601f01601f19169290920160200192915050565b6000602080830181845280855180835260408601915060408160051b870101925083870160005b82811015611eaf57603f19888603018452611e9d858351611e2e565b94509285019290850190600101611e81565b5092979650505050505050565b80358015158114611b6357600080fd5b600080600080600060a08688031215611ee457600080fd5b611eed86611b4c565b9450611efb60208701611b4c565b935060408601359250611f1060608701611ebc565b915060808601356001600160401b03811115611f2b57600080fd5b611f3788828901611af6565b9150509295509295909350565b6020815260006106466020830184611e2e565b600060208284031215611f6957600080fd5b61064682611b4c565b600082601f830112611f8357600080fd5b81356020611f93611b1583611c1e565b82815260059290921b84018101918181019086841115611fb257600080fd5b8286015b84811015611c9c57611fc781611b4c565b8352918301918301611fb6565b600082601f830112611fe557600080fd5b81356020611ff5611b1583611c1e565b82815260059290921b8401810191818101908684111561201457600080fd5b8286015b84811015611c9c5761202981611ebc565b8352918301918301612018565b600080600080600060a0868803121561204e57600080fd5b85356001600160401b038082111561206557600080fd5b61207189838a01611f72565b9650602088013591508082111561208757600080fd5b61209389838a01611f72565b955060408801359150808211156120a957600080fd5b6120b589838a01611c41565b945060608801359150808211156120cb57600080fd5b6120d789838a01611fd4565b935060808801359150808211156120ed57600080fd5b50611f3788828901611ca7565b6000806040838503121561210d57600080fd5b8235915060208301356001600160401b0381111561212a57600080fd5b611d7f85828601611af6565b6020808252825182820181905260009190848201906040850190845b81811015611dca57835183529284019291840191600101612152565b634e487b7160e01b600052603260045260246000fd5b6020808252602b908201527f496e697469616c697a61626c653a20636f6e7472616374206973206e6f74206960408201526a6e697469616c697a696e6760a81b606082015260800190565b634e487b7160e01b600052601160045260246000fd5b81810381811115610376576103766121cf565b6001600160a01b0384168152821515602082015260606040820181905260009061222490830184611e2e565b95945050505050565b600181811c9082168061224157607f821691505b60208210810361075a57634e487b7160e01b600052602260045260246000fd5b601f8211156105f357600081815260208120601f850160051c810160208610156122885750805b601f850160051c820191505b818110156107a757828155600101612294565b81516001600160401b038111156122c0576122c0611a89565b6122d4816122ce845461222d565b84612261565b602080601f83116001811461230957600084156122f15750858301515b600019600386901b1c1916600185901b1785556107a7565b600085815260208120601f198616915b8281101561233857888601518255948401946001909101908401612319565b50858210156123565787850151600019600388901b60f8161c191681555b5050505050600190811b01905550565b80820180821115610376576103766121cf565b60006bffffffffffffffffffffffff19808760601b168352808660601b1660148401525083602883015282516123b6816048850160208701611e0a565b9190910160480195945050505050565b828152604060208201526000610e4b6040830184611e2e565b6000602082840312156123f157600080fd5b81516001600160401b0381111561240757600080fd5b8201601f8101841361241857600080fd5b8051612426611b1582611acf565b81815285602083850101111561243b57600080fd5b612224826020830160208601611e0a565b634e487b7160e01b600052603160045260246000fdfea26469706673582212203370c2a1c6bc532b557b310b77713240e350b0c668d8289f1305c54adf27cb8864736f6c63430008110033",
    "linkReferences": {}
  },
  "methodIdentifiers": {
    "authorizeOperator(address,bytes32)": "cf5182ba",
    "balanceOf(address)": "70a08231",
    "burn(bytes32)": "08a1eee1",
    "getData(bytes32)": "54f6127f",
    "getData(bytes32[])": "4e3e6e9c",
    "getOperatorsOf(bytes32)": "49a6078d",
    "initialize(string,string,address)": "077f224a",
    "isOperatorFor(address,bytes32)": "2a3654a4",
    "mint(address,bytes32)": "2cfd3005",
    "owner()": "8da5cb5b",
    "renounceOwnership()": "715018a6",
    "revokeOperator(address,bytes32)": "0b0c6d82",
    "setData(bytes32,bytes)": "7f23690c",
    "setData(bytes32[],bytes[])": "14a6e293",
    "supportsInterface(bytes4)": "01ffc9a7",
    "tokenAt(uint256)": "92a91a3a",
    "tokenIdsOf(address)": "a3b261f2",
    "tokenOwnerOf(bytes32)": "217b2270",
    "totalSupply()": "18160ddd",
    "transfer(address,address,bytes32,bool,bytes)": "511b6952",
    "transferBatch(address[],address[],bytes32[],bool[],bytes[])": "7e87632c",
    "transferOwnership(address)": "f2fde38b"
  },
  "id": 138
}