{
  "abi": [
    {
      "inputs": [
        {
          "internalType": "address",
          "name": "_account",
          "type": "address"
        }
      ],
      "stateMutability": "nonpayable",
      "type": "constructor"
    },
    {
      "inputs": [
        {
          "internalType": "bytes32",
          "name": "dataKey",
          "type": "bytes32"
        },
        {
          "internalType": "bytes",
          "name": "invalidValue",
          "type": "bytes"
        }
      ],
      "name": "AddressPermissionArrayIndexValueNotAnAddress",
      "type": "error"
    },
    {
      "inputs": [],
      "name": "BatchExecuteParamsLengthMismatch",
      "type": "error"
    },
    {
      "inputs": [],
      "name": "BatchExecuteRelayCallParamsLengthMismatch",
      "type": "error"
    },
    {
      "inputs": [
        {
          "internalType": "uint256",
          "name": "invalidLength",
          "type": "uint256"
        }
      ],
      "name": "InvalidCompactByteArrayLengthElement",
      "type": "error"
    },
    {
      "inputs": [
        {
          "internalType": "bytes4",
          "name": "invalidFunction",
          "type": "bytes4"
        }
      ],
      "name": "InvalidERC725Function",
      "type": "error"
    },
    {
      "inputs": [
        {
          "internalType": "bytes",
          "name": "allowedCallsValue",
          "type": "bytes"
        }
      ],
      "name": "InvalidEncodedAllowedCalls",
      "type": "error"
    },
    {
      "inputs": [
        {
          "internalType": "bytes",
          "name": "value",
          "type": "bytes"
        }
      ],
      "name": "InvalidEncodedAllowedERC725YDataKeys",
      "type": "error"
    },
    {
      "inputs": [],
      "name": "InvalidLSP6Target",
      "type": "error"
    },
    {
      "inputs": [
        {
          "internalType": "address",
          "name": "signer",
          "type": "address"
        },
        {
          "internalType": "uint256",
          "name": "invalidNonce",
          "type": "uint256"
        },
        {
          "internalType": "bytes",
          "name": "signature",
          "type": "bytes"
        }
      ],
      "name": "InvalidRelayNonce",
      "type": "error"
    },
    {
      "inputs": [
        {
          "internalType": "address",
          "name": "from",
          "type": "address"
        }
      ],
      "name": "InvalidWhitelistedCall",
      "type": "error"
    },
    {
      "inputs": [
        {
          "internalType": "uint256",
          "name": "totalValues",
          "type": "uint256"
        },
        {
          "internalType": "uint256",
          "name": "msgValue",
          "type": "uint256"
        }
      ],
      "name": "LSP6BatchExcessiveValueSent",
      "type": "error"
    },
    {
      "inputs": [
        {
          "internalType": "uint256",
          "name": "totalValues",
          "type": "uint256"
        },
        {
          "internalType": "uint256",
          "name": "msgValue",
          "type": "uint256"
        }
      ],
      "name": "LSP6BatchInsufficientValueSent",
      "type": "error"
    },
    {
      "inputs": [
        {
          "internalType": "address",
          "name": "from",
          "type": "address"
        }
      ],
      "name": "NoCallsAllowed",
      "type": "error"
    },
    {
      "inputs": [
        {
          "internalType": "address",
          "name": "from",
          "type": "address"
        }
      ],
      "name": "NoERC725YDataKeysAllowed",
      "type": "error"
    },
    {
      "inputs": [
        {
          "internalType": "address",
          "name": "from",
          "type": "address"
        }
      ],
      "name": "NoPermissionsSet",
      "type": "error"
    },
    {
      "inputs": [
        {
          "internalType": "address",
          "name": "from",
          "type": "address"
        },
        {
          "internalType": "address",
          "name": "to",
          "type": "address"
        },
        {
          "internalType": "bytes4",
          "name": "selector",
          "type": "bytes4"
        }
      ],
      "name": "NotAllowedCall",
      "type": "error"
    },
    {
      "inputs": [
        {
          "internalType": "address",
          "name": "from",
          "type": "address"
        },
        {
          "internalType": "bytes32",
          "name": "disallowedKey",
          "type": "bytes32"
        }
      ],
      "name": "NotAllowedERC725YDataKey",
      "type": "error"
    },
    {
      "inputs": [
        {
          "internalType": "address",
          "name": "from",
          "type": "address"
        },
        {
          "internalType": "string",
          "name": "permission",
          "type": "string"
        }
      ],
      "name": "NotAuthorised",
      "type": "error"
    },
    {
      "inputs": [
        {
          "internalType": "bytes32",
          "name": "dataKey",
          "type": "bytes32"
        }
      ],
      "name": "NotRecognisedPermissionKey",
      "type": "error"
    },
    {
      "inputs": [],
      "name": "ZeroDataKeyNotAllowed",
      "type": "error"
    },
    {
      "anonymous": false,
      "inputs": [
        {
          "indexed": true,
          "internalType": "bytes4",
          "name": "selector",
          "type": "bytes4"
        },
        {
          "indexed": true,
          "internalType": "uint256",
          "name": "value",
          "type": "uint256"
        }
      ],
      "name": "Executed",
      "type": "event"
    },
    {
      "inputs": [
        {
          "internalType": "bytes32",
          "name": "_key",
          "type": "bytes32"
        }
      ],
      "name": "countTrailingZeroBytes",
      "outputs": [
        {
          "internalType": "uint256",
          "name": "zeroBytesCount_",
          "type": "uint256"
        }
      ],
      "stateMutability": "pure",
      "type": "function"
    },
    {
      "inputs": [
        {
          "internalType": "bytes",
          "name": "payload",
          "type": "bytes"
        }
      ],
      "name": "execute",
      "outputs": [
        {
          "internalType": "bytes",
          "name": "",
          "type": "bytes"
        }
      ],
      "stateMutability": "payable",
      "type": "function"
    },
    {
      "inputs": [
        {
          "internalType": "uint256[]",
          "name": "values",
          "type": "uint256[]"
        },
        {
          "internalType": "bytes[]",
          "name": "payloads",
          "type": "bytes[]"
        }
      ],
      "name": "execute",
      "outputs": [
        {
          "internalType": "bytes[]",
          "name": "",
          "type": "bytes[]"
        }
      ],
      "stateMutability": "payable",
      "type": "function"
    },
    {
      "inputs": [
        {
          "internalType": "bytes",
          "name": "signature",
          "type": "bytes"
        },
        {
          "internalType": "uint256",
          "name": "nonce",
          "type": "uint256"
        },
        {
          "internalType": "bytes",
          "name": "payload",
          "type": "bytes"
        }
      ],
      "name": "executeRelayCall",
      "outputs": [
        {
          "internalType": "bytes",
          "name": "",
          "type": "bytes"
        }
      ],
      "stateMutability": "payable",
      "type": "function"
    },
    {
      "inputs": [
        {
          "internalType": "bytes[]",
          "name": "signatures",
          "type": "bytes[]"
        },
        {
          "internalType": "uint256[]",
          "name": "nonces",
          "type": "uint256[]"
        },
        {
          "internalType": "uint256[]",
          "name": "values",
          "type": "uint256[]"
        },
        {
          "internalType": "bytes[]",
          "name": "payloads",
          "type": "bytes[]"
        }
      ],
      "name": "executeRelayCall",
      "outputs": [
        {
          "internalType": "bytes[]",
          "name": "",
          "type": "bytes[]"
        }
      ],
      "stateMutability": "payable",
      "type": "function"
    },
    {
      "inputs": [
        {
          "internalType": "address",
          "name": "_address",
          "type": "address"
        }
      ],
      "name": "getAllowedCallsFor",
      "outputs": [
        {
          "internalType": "bytes",
          "name": "",
          "type": "bytes"
        }
      ],
      "stateMutability": "view",
      "type": "function"
    },
    {
      "inputs": [
        {
          "internalType": "address",
          "name": "_address",
          "type": "address"
        }
      ],
      "name": "getAllowedERC725YDataKeysFor",
      "outputs": [
        {
          "internalType": "bytes",
          "name": "",
          "type": "bytes"
        }
      ],
      "stateMutability": "view",
      "type": "function"
    },
    {
      "inputs": [
        {
          "internalType": "address",
          "name": "from",
          "type": "address"
        },
        {
          "internalType": "uint128",
          "name": "channelId",
          "type": "uint128"
        }
      ],
      "name": "getNonce",
      "outputs": [
        {
          "internalType": "uint256",
          "name": "",
          "type": "uint256"
        }
      ],
      "stateMutability": "view",
      "type": "function"
    },
    {
      "inputs": [
        {
          "internalType": "address",
          "name": "_address",
          "type": "address"
        }
      ],
      "name": "getPermissionsFor",
      "outputs": [
        {
          "internalType": "bytes32",
          "name": "",
          "type": "bytes32"
        }
      ],
      "stateMutability": "view",
      "type": "function"
    },
    {
      "inputs": [
        {
          "internalType": "bytes32",
          "name": "_addressPermission",
          "type": "bytes32"
        },
        {
          "internalType": "bytes32",
          "name": "_permissions",
          "type": "bytes32"
        }
      ],
      "name": "hasPermission",
      "outputs": [
        {
          "internalType": "bool",
          "name": "",
          "type": "bool"
        }
      ],
      "stateMutability": "pure",
      "type": "function"
    },
    {
      "inputs": [
        {
          "internalType": "bytes",
          "name": "compactBytesArray",
          "type": "bytes"
        }
      ],
      "name": "isCompactBytesArray",
      "outputs": [
        {
          "internalType": "bool",
          "name": "",
          "type": "bool"
        }
      ],
      "stateMutability": "pure",
      "type": "function"
    },
    {
      "inputs": [
        {
          "internalType": "bytes32",
          "name": "dataHash",
          "type": "bytes32"
        },
        {
          "internalType": "bytes",
          "name": "signature",
          "type": "bytes"
        }
      ],
      "name": "isValidSignature",
      "outputs": [
        {
          "internalType": "bytes4",
          "name": "magicValue",
          "type": "bytes4"
        }
      ],
      "stateMutability": "view",
      "type": "function"
    },
    {
      "inputs": [
        {
          "internalType": "bytes4",
          "name": "interfaceId",
          "type": "bytes4"
        }
      ],
      "name": "supportsInterface",
      "outputs": [
        {
          "internalType": "bool",
          "name": "",
          "type": "bool"
        }
      ],
      "stateMutability": "view",
      "type": "function"
    },
    {
      "inputs": [],
      "name": "target",
      "outputs": [
        {
          "internalType": "address",
          "name": "",
          "type": "address"
        }
      ],
      "stateMutability": "view",
      "type": "function"
    },
    {
      "inputs": [
        {
          "internalType": "address",
          "name": "_sender",
          "type": "address"
        },
        {
          "internalType": "bytes",
          "name": "_payload",
          "type": "bytes"
        }
      ],
      "name": "verifyAllowedCall",
      "outputs": [],
      "stateMutability": "view",
      "type": "function"
    },
    {
      "inputs": [
        {
          "internalType": "address",
          "name": "from",
          "type": "address"
        },
        {
          "internalType": "bytes32[]",
          "name": "inputKeys",
          "type": "bytes32[]"
        },
        {
          "internalType": "bytes",
          "name": "allowedERC725YDataKeysCompacted",
          "type": "bytes"
        }
      ],
      "name": "verifyAllowedERC725YDataKeys",
      "outputs": [
        {
          "internalType": "bool",
          "name": "",
          "type": "bool"
        }
      ],
      "stateMutability": "pure",
      "type": "function"
    },
    {
      "inputs": [
        {
          "internalType": "address",
          "name": "from",
          "type": "address"
        },
        {
          "internalType": "bytes32",
          "name": "inputKey",
          "type": "bytes32"
        },
        {
          "internalType": "bytes",
          "name": "allowedERC725YDataKeysFor",
          "type": "bytes"
        }
      ],
      "name": "verifyAllowedERC725YSingleKey",
      "outputs": [
        {
          "internalType": "bool",
          "name": "",
          "type": "bool"
        }
      ],
      "stateMutability": "pure",
      "type": "function"
    }
  ],
  "bytecode": {
    "object": "0x60806040523480156200001157600080fd5b50604051620033de380380620033de83398101604081905262000034916200008b565b806001600160a01b0381166200005d5760405163fc85457960e01b815260040160405180910390fd5b600080546001600160a01b0319166001600160a01b038316179055620000836001600255565b5050620000bd565b6000602082840312156200009e57600080fd5b81516001600160a01b0381168114620000b657600080fd5b9392505050565b61331180620000cd6000396000f3fe6080604052600436106100fe5760003560e01c806395271e6811610095578063c0d76ff511610064578063c0d76ff5146102e5578063d4b8399214610305578063d6b1095f1461033d578063d7b7123d1461035d578063d92894d31461037d57600080fd5b806395271e6814610226578063b44581d914610246578063bd68663a146102b2578063bf3e1f7b146102d257600080fd5b80634e7a45c7116100d15780634e7a45c7146101b157806351dcf72f146101d15780637983a66a146101f3578063902d5fa01461021357600080fd5b806301ffc9a71461010357806309c5eabe146101385780631626ba7e146101585780631e25ad9514610191575b600080fd5b34801561010f57600080fd5b5061012361011e36600461275e565b61039d565b60405190151581526020015b60405180910390f35b61014b6101463660046127c9565b6103ef565b60405161012f919061285a565b34801561016457600080fd5b50610178610173366004612930565b610403565b6040516001600160e01b0319909116815260200161012f565b34801561019d57600080fd5b506101236101ac366004612976565b61045b565b3480156101bd57600080fd5b506101236101cc3660046129af565b610467565b3480156101dd57600080fd5b506101f16101ec366004612a05565b61047e565b005b3480156101ff57600080fd5b5061012361020e366004612ae0565b61048e565b61014b610221366004612b49565b61049b565b34801561023257600080fd5b50610123610241366004612bb8565b6104b3565b34801561025257600080fd5b506102a4610261366004612bec565b6001600160a01b03821660009081526001602090815260408083206001600160801b03851684529091529020546001600160801b0319608083901b161792915050565b60405190815260200161012f565b6102c56102c0366004612cf2565b6104be565b60405161012f9190612db0565b6102c56102e0366004612e12565b610689565b3480156102f157600080fd5b506102a4610300366004612e71565b6107ff565b34801561031157600080fd5b50600054610325906001600160a01b031681565b6040516001600160a01b03909116815260200161012f565b34801561034957600080fd5b5061014b610358366004612e8a565b61080a565b34801561036957600080fd5b506102a4610378366004612e8a565b610823565b34801561038957600080fd5b5061014b610398366004612e8a565b61083a565b60006001600160e01b03198216633ed0dd0560e21b14806103ce57506001600160e01b03198216630b135d3f60e11b145b806103e957506301ffc9a760e01b6001600160e01b03198316145b92915050565b60606103fc348484610853565b9392505050565b6000806104108484610882565b600054909150610438906220000090610432906001600160a01b0316846108a6565b81161490565b61044a576001600160e01b0319610453565b630b135d3f60e11b5b949350505050565b600081831682146103fc565b6000610474848484610941565b5060019392505050565b610489838383610a83565b505050565b6000610474848484610cc4565b60606104aa8585348686610ee8565b95945050505050565b60006103e982610fd0565b8651606090861415806104d15750858414155b806104dc5750838214155b156104fa5760405163b4d50d2160e01b815260040160405180910390fd5b6000826001600160401b038111156105145761051461286d565b60405190808252806020026020018201604052801561054757816020015b60608152602001906001900390816105325790505b5090506000805b84811015610651573488888381811061056957610569612ea5565b905060200201358361057b9190612ed1565b92508211156105ab57604051630c28c92b60e21b8152600481018390523460248201526044015b60405180910390fd5b6106238b82815181106105c0576105c0612ea5565b60200260200101518b8b848181106105da576105da612ea5565b905060200201358a8a858181106105f3576105f3612ea5565b9050602002013589898681811061060c5761060c612ea5565b905060200281019061061e9190612ee4565b610ee8565b83828151811061063557610635612ea5565b602002602001018190525061064a8160010190565b905061054e565b503481101561067c5760405163528c345b60e11b8152600481018290523460248201526044016105a2565b5098975050505050505050565b60608382146106ab576040516355a187db60e01b815260040160405180910390fd5b6000826001600160401b038111156106c5576106c561286d565b6040519080825280602002602001820160405280156106f857816020015b60608152602001906001900390816106e35790505b5090506000805b848110156107ca573488888381811061071a5761071a612ea5565b905060200201358361072c9190612ed1565b925082111561075757604051630c28c92b60e21b8152600481018390523460248201526044016105a2565b61079c88888381811061076c5761076c612ea5565b9050602002013587878481811061078557610785612ea5565b90506020028101906107979190612ee4565b610853565b8382815181106107ae576107ae612ea5565b60200260200101819052506107c38160010190565b90506106ff565b50348110156107f55760405163528c345b60e11b8152600481018290523460248201526044016105a2565b5095945050505050565b60006103e982611057565b6000546060906103e9906001600160a01b0316836110b5565b600080546103e9906001600160a01b0316836108a6565b6000546060906103e9906001600160a01b031683611142565b606061085e3361116c565b6108693384846111a6565b6000610876858585611597565b90506104536001600255565b60008060006108918585611699565b9150915061089e816116de565b509392505050565b6000806001600160a01b0384166354f6127f6108d3694b80742de2bf82acb36360b01b606087901b611894565b6040518263ffffffff1660e01b81526004016108f191815260200190565b600060405180830381865afa15801561090e573d6000803e3d6000fd5b505050506040513d6000823e601f3d908101601f191682016040526109369190810190612f2a565b905061045381612f97565b805160000361096e5760405163ed7fa50960e01b81526001600160a01b03841660048201526024016105a2565b61097781610fd0565b6109965780604051632786feed60e11b81526004016105a2919061285a565b60005b8151811015610a585760008282815181106109b6576109b6612ea5565b0160209081015160f81c91508111156109e557604051639f2cb4db60e01b8152600481018290526024016105a2565b60006109fd6109f5846001612ed1565b8590846118e0565b610a0690612f97565b90506000610a15836020612fbe565b610a20906008612fd1565b600019901b90508581168203610a395750505050505050565b610a44836001612ed1565b610a4e9085612ed1565b9350505050610999565b60405163557ae07960e01b81526001600160a01b0385166004820152602481018490526044016105a2565b6000610a93604460308486612fe8565b610a9c91613012565b60601c905060a88210801590600090610ac957610abd60a860a48688612fe8565b610ac691613042565b90505b60008054610ae0906001600160a01b031688611142565b8051909150801580610af85750610af682610fd0565b155b15610b2157604051636cb6058760e01b81526001600160a01b03891660048201526024016105a2565b60008080805b84811015610c87576000610b4787610b40846001612ed1565b601c6118e0565b9050610b5281613070565b63ffffffff199081169003610b8557604051636fd203c560e01b81526001600160a01b038e1660048201526024016105a2565b6000610b90826130a4565b905060006020610b9f84613070565b63ffffffff1916901b60601c9050600060c0610bba85613070565b63ffffffff1916901b90506001600160e01b03198084161480610beb5750610beb6001600160a01b038e16846119ed565b97506001600160a01b038083161480610c155750816001600160a01b03168d6001600160a01b0316145b96506001600160e01b03198082161480610c4357508b8015610c4357506001600160e01b03198b8116908216145b9550878015610c4f5750865b8015610c585750855b15610c6f5750505050505050505050505050505050565b50505050601d81610c809190612ed1565b9050610b27565b5060405163228a3de760e11b81526001600160a01b03808d166004830152891660248201526001600160e01b0319871660448201526064016105a2565b8051600003610cf15760405163ed7fa50960e01b81526001600160a01b03841660048201526024016105a2565b610cfa81610fd0565b610d195780604051632786feed60e11b81526004016105a2919061285a565b6000805b835182108015610d2d5750825181105b15610e57576000838281518110610d4657610d46612ea5565b016020015160f81c90506000610d68610d60846001612ed1565b8690846118e0565b610d7190612f97565b90506000610d80836020612fbe565b610d8b906008612fd1565b600019901b905060005b8751811015610e25576000801b888281518110610db457610db4612ea5565b60200260200101510315610e135781888281518110610dd557610dd5612ea5565b6020026020010151168303610e13576000801b888281518110610dfa57610dfa612ea5565b602090810291909101015285610e0f816130d7565b9650505b80610e1d816130d7565b915050610d95565b5086518503610e38575050505050505050565b610e43836001612ed1565b610e4d9085612ed1565b9350505050610d1d565b60005b8451811015610ee0576000801b858281518110610e7957610e79612ea5565b602002602001015114610ece5785858281518110610e9957610e99612ea5565b602090810291909101015160405163557ae07960e01b81526001600160a01b03909216600483015260248201526044016105a2565b80610ed8816130d7565b915050610e5a565b505050505050565b6060600060064687878787604051602001610f08969594939291906130f0565b60408051601f1981840301815291905290506000610f3088610f2a3085611a72565b90610882565b9050610f3b8161116c565b610f458188611aa5565b610f685780878960405163c9bd9eb960e01b81526004016105a29392919061311f565b6001600160a01b038116600090815260016020908152604080832060808b901c84529091528120805491610f9b836130d7565b9190505550610fab8186866111a6565b6000610fb8878787611597565b9050610fc46001600255565b98975050505050505050565b60008151600003610fe357506000919050565b60005b825181101561103d57600083828151811061100357611003612ea5565b016020015160f81c90506000819003611020575060009392505050565b61102b816001612ed1565b6110359083612ed1565b915050610fe6565b8251810361104e5750600192915050565b50600092915050565b600060205b600081118015611093575082611073600183612fbe565b6020811061108357611083612ea5565b1a60f81b6001600160f81b031916155b156110aa57806110a281613146565b91505061105c565b6103fc816020612fbe565b60606001600160a01b0383166354f6127f6110df694b80742de2bf866c291160b01b85851b611894565b6040518263ffffffff1660e01b81526004016110fd91815260200190565b600060405180830381865afa15801561111a573d6000803e3d6000fd5b505050506040513d6000823e601f3d908101601f191682016040526103fc9190810190612f2a565b60606001600160a01b0383166354f6127f6110df694b80742de2bf393a64c760b01b85851b611894565b600280540361119e576000805461118c906001600160a01b0316836108a6565b905061119a82826080611ae3565b5050565b600280555b50565b60006111b28284613042565b60008054919250906111cd906001600160a01b0316866108a6565b9050806111f857604051637949029560e11b81526001600160a01b03861660048201526024016105a2565b63203725bd60e21b6001600160e01b031983160161133a576000806112208560048189612fe8565b81019061122d9190612930565b90925090508161125057604051635bb17ddd60e11b815260040160405180910390fd5b6f1067922fc924ae78cd655932cd9cfb3d60811b6001600160801b03198316016112855761128082828986611b16565b611333565b65b47f8bd21d4160d01b6001600160d01b03198316016112ab5761128082828986611cc7565b7f0cfc51aec37c55a4d0b1a65c6255c4bf2fbdf6277f3cc0730c45b828b6db8b478214806112ef57506001600160a01b03198216690cfc51aec37c55a4d0b160b01b145b156112ff57611280828885611e49565b69188c3a5fb592bcff77b560b11b6001600160a01b031983160161132857611280828885611ede565b611333878484611f73565b5050611590565b63eb591d6d60e01b6001600160e01b0319831601611502576000806113628560048189612fe8565b81019061136f919061315d565b915091506000805b83518110156114e857600084828151811061139457611394612ea5565b6020026020010151905060008483815181106113b2576113b2612ea5565b602002602001015190506000801b82036113df57604051635bb17ddd60e11b815260040160405180910390fd5b6f1067922fc924ae78cd655932cd9cfb3d60811b6001600160801b03198316016114365761140f82828d8a611b16565b6000801b86848151811061142557611425612ea5565b6020026020010181815250506114de565b65b47f8bd21d4160d01b6001600160d01b031983160161145c5761140f82828d8a611cc7565b7f0cfc51aec37c55a4d0b1a65c6255c4bf2fbdf6277f3cc0730c45b828b6db8b478214806114a057506001600160a01b03198216690cfc51aec37c55a4d0b160b01b145b156114b05761140f828c89611e49565b69188c3a5fb592bcff77b560b11b6001600160a01b03198316016114d95761140f828c89611ede565b600193505b5050600101611377565b5080156114fa576114fa888585611fb6565b505050611590565b635d9feb8160e11b6001600160e01b031983160161152b5761152685828686611ff9565b611590565b6001600160e01b0319821663f2fde38b60e01b148061155a57506001600160e01b031982166379ba509760e01b145b1561156b5761152685826001611ae3565b604051630aea214760e21b81526001600160e01b0319831660048201526024016105a2565b5050505050565b6060836115a48385613042565b6001600160e01b0319167f4004d18dc05f04c061c306cbb394d4083af494786ab828142d6118ab2c43a49260405160405180910390a36000805481906001600160a01b0316865a9087876040516115fc9291906131b6565b600060405180830381858888f193505050503d806000811461163a576040519150601f19603f3d011682016040523d82523d6000602084013e61163f565b606091505b50915091506000611669838360405180608001604052806043815260200161329960439139612214565b9050805160000361167a578061168e565b8080602001905181019061168e9190612f2a565b979650505050505050565b60008082516041036116cf5760208301516040840151606085015160001a6116c38782858561224d565b945094505050506116d7565b506000905060025b9250929050565b60008160048111156116f2576116f26131c6565b036116fa5750565b600181600481111561170e5761170e6131c6565b0361175b5760405162461bcd60e51b815260206004820152601860248201527f45434453413a20696e76616c6964207369676e6174757265000000000000000060448201526064016105a2565b600281600481111561176f5761176f6131c6565b036117bc5760405162461bcd60e51b815260206004820152601f60248201527f45434453413a20696e76616c6964207369676e6174757265206c656e6774680060448201526064016105a2565b60038160048111156117d0576117d06131c6565b036118285760405162461bcd60e51b815260206004820152602260248201527f45434453413a20696e76616c6964207369676e6174757265202773272076616c604482015261756560f01b60648201526084016105a2565b600481600481111561183c5761183c6131c6565b036111a35760405162461bcd60e51b815260206004820152602260248201527f45434453413a20696e76616c6964207369676e6174757265202776272076616c604482015261756560f01b60648201526084016105a2565b604080516001600160b01b0319841660208201526000602a82018190526001600160601b03198416602c8301529182910160405160208183030381529060405290508061045390612f97565b6060816118ee81601f612ed1565b101561192d5760405162461bcd60e51b815260206004820152600e60248201526d736c6963655f6f766572666c6f7760901b60448201526064016105a2565b6119378284612ed1565b8451101561197b5760405162461bcd60e51b8152602060048201526011602482015270736c6963655f6f75744f66426f756e647360781b60448201526064016105a2565b60608215801561199a57604051915060008252602082016040526119e4565b6040519150601f8416801560200281840101858101878315602002848b0101015b818310156119d35780518352602092830192016119bb565b5050858452601f01601f1916604052505b50949350505050565b604080516001600160e01b03198316602480830191909152825180830390910181526044909101909152602080820180516001600160e01b03166301ffc9a760e01b178152825160009392849283928392918391908a617530fa92503d91506000519050828015611a5f575060208210155b801561168e575015159695505050505050565b60008282604051602001611a879291906131dc565b60405160208183030381529060405280519060200120905092915050565b6001600160a01b0382166000908152600160209081526040808320608085901c8452909152812054611adb600160801b8461321b565b149392505050565b8082168114610489576000611af78261233a565b90508381604051631ded6b7360e11b81526004016105a292919061323d565b7f20cf245f92495cf19acab2659b39f679e0f76aba35a7394b241ce5a0cc734f1d8401611bf357600080546040516354f6127f60e01b8152600481018790526001600160a01b03909116906354f6127f90602401600060405180830381865afa158015611b87573d6000803e3d6000fd5b505050506040513d6000823e601f3d908101601f19168201604052611baf9190810190612f2a565b611bb890612f97565b90506000611bc585612f97565b905081811115611be057611bdb84846002611ae3565b611bec565b611bec84846004611ae3565b5050611cc1565b600080546040516354f6127f60e01b8152600481018790526001600160a01b03909116906354f6127f90602401600060405180830381865afa158015611c3d573d6000803e3d6000fd5b505050506040513d6000823e601f3d908101601f19168201604052611c659190810190612f2a565b90508051600003611c8157611c7c83836002611ae3565b611c8d565b611c8d83836004611ae3565b835115801590611c9f57508351601414155b156115905784846040516311e95f4760e31b81526004016105a2929190613261565b50505050565b69b47f8bd21d407d534c9d60b01b6001600160a01b0319851601611cf557611cf084838361263e565b611cc1565b6001600160a01b03198416694b80742de2bf393a64c760b01b1480611d3057506001600160a01b03198416694b80742de2bf866c291160b01b145b15611e2d57825115801581611d4b5750611d4984610fd0565b155b15611da45769b47f8bd21d40c6c59b3960b01b6001600160a01b0319861601611d89578360405163187e77ab60e01b81526004016105a2919061285a565b83604051632786feed60e11b81526004016105a2919061285a565b600080546040516354f6127f60e01b8152600481018890526001600160a01b03909116906354f6127f90602401600060405180830381865afa158015611dee573d6000803e3d6000fd5b505050506040513d6000823e601f3d908101601f19168201604052611e169190810190612f2a565b90508051600003611be057611bdb84846002611ae3565b604051630f7d735b60e01b8152600481018590526024016105a2565b600080546040516354f6127f60e01b8152600481018690526001600160a01b03909116906354f6127f90602401600060405180830381865afa158015611e93573d6000803e3d6000fd5b505050506040513d6000823e601f3d908101601f19168201604052611ebb9190810190612f2a565b90508051600003611ed257611cf083836020611ae3565b611cc183836040611ae3565b600080546040516354f6127f60e01b8152600481018690526001600160a01b03909116906354f6127f90602401600060405180830381865afa158015611f28573d6000803e3d6000fd5b505050506040513d6000823e601f3d908101601f19168201604052611f509190810190612f2a565b90508051600003611f6757611cf083836008611ae3565b611cc183836010611ae3565b6202000080831603611f8457505050565b611f92838362040000611ae3565b60008054611fa9906001600160a01b0316856110b5565b9050611cc1848383610941565b6202000080831603611fc757505050565b611fd5838362040000611ae3565b60008054611fec906001600160a01b0316856110b5565b9050611cc1848383610cc4565b6000612009602460048486612fe8565b6120129161327a565b9050600581106120735760405162461bcd60e51b815260206004820152602660248201527f4c5350364b65794d616e616765723a20696e76616c6964206f7065726174696f6044820152656e207479706560d01b60648201526084016105a2565b600481036120e95760405162461bcd60e51b815260206004820152603e60248201527f4c5350364b65794d616e616765723a206f7065726174696f6e2044454c45474160448201527f544543414c4c2069732063757272656e746c7920646973616c6c6f776564000060648201526084016105a2565b60006120f9606460448587612fe8565b6121029161327a565b9050600060018314806121155750600283145b905060a4841160008261213a5761213561212e866126d6565b8981161490565b61213d565b60005b905081801561214a575080155b1561216257612162898961215d88612708565b611ae3565b610100888116148415801590612176575080155b15612188576121888a8a610200611ae3565b831561219957505050505050611cc1565b8180156121a35750825b80156121ad575084155b156121bd57505050505050611cc1565b8080156121c8575082155b80156121d357508415155b156121e357505050505050611cc1565b8180156121ed5750805b156121fd57505050505050611cc1565b6122088a8989610a83565b50505050505050505050565b606083156122235750816103fc565b8251156122335782518084602001fd5b8160405162461bcd60e51b81526004016105a2919061285a565b6000807f7fffffffffffffffffffffffffffffff5d576e7357a4501ddfe92f46681b20a08311156122845750600090506003612331565b8460ff16601b1415801561229c57508460ff16601c14155b156122ad5750600090506004612331565b6040805160008082526020820180845289905260ff881692820192909252606081018690526080810185905260019060a0016020604051602081039080840390855afa158015612301573d6000803e3d6000fd5b5050604051601f1901519150506001600160a01b03811661232a57600060019250925050612331565b9150600090505b94509492505050565b6060600019820161237257505060408051808201909152601181527005452414e534645524f574e45525348495607c1b602082015290565b60031982016123a85750506040805180820190915260118152704348414e47455045524d495353494f4e5360781b602082015290565b60011982016123db57505060408051808201909152600e81526d4144445045524d495353494f4e5360901b602082015290565b600719820161240d57505060408051808201909152600d81526c414444455854454e53494f4e5360981b602082015290565b600f19820161244257505060408051808201909152601081526f4348414e4745455854454e53494f4e5360801b602082015290565b601f19820161248457505060408051808201909152601c81527f414444554e4956455253414c524543454956455244454c454741544500000000602082015290565b603f1982016124c657505060408051808201909152601f81527f4348414e4745554e4956455253414c524543454956455244454c454741544500602082015290565b607f1982016124f557505060408051808201909152600a8152695245454e5452414e435960b01b602082015290565b6203ffff1982016125235750506040805180820190915260078152665345544441544160c81b602082015290565b6107ff19820161254d57505060408051808201909152600481526310d0531360e21b602082015290565b611fff19820161257d57505060408051808201909152600a81526914d510551250d0d0531360b21b602082015290565b617fff1982016125af57505060408051808201909152600c81526b1111531151d0551150d0531360a21b602082015290565b61ffff1982016125db5750506040805180820190915260068152654445504c4f5960d01b602082015290565b6101ff19820161260e57505060408051808201909152600d81526c5452414e5346455256414c554560981b602082015290565b621fffff19820161263957505060408051808201909152600481526329a4a3a760e11b602082015290565b919050565b600080546040516354f6127f60e01b8152600481018690526001600160a01b03909116906354f6127f90602401600060405180830381865afa158015612688573d6000803e3d6000fd5b505050506040513d6000823e601f3d908101601f191682016040526126b09190810190612f2a565b6126b990612f97565b036126ca5761048982826002611ae3565b61048982826004611ae3565b6000816126e65750610400919050565b600382036126f75750611000919050565b600482036126395750614000919050565b6000816127185750610800919050565b6001820361272a575062010000919050565b6002820361273c575062010000919050565b6003820361274d5750612000919050565b600482036126395750618000919050565b60006020828403121561277057600080fd5b81356001600160e01b0319811681146103fc57600080fd5b60008083601f84011261279a57600080fd5b5081356001600160401b038111156127b157600080fd5b6020830191508360208285010111156116d757600080fd5b600080602083850312156127dc57600080fd5b82356001600160401b038111156127f257600080fd5b6127fe85828601612788565b90969095509350505050565b60005b8381101561282557818101518382015260200161280d565b50506000910152565b6000815180845261284681602086016020860161280a565b601f01601f19169290920160200192915050565b6020815260006103fc602083018461282e565b634e487b7160e01b600052604160045260246000fd5b604051601f8201601f191681016001600160401b03811182821017156128ab576128ab61286d565b604052919050565b60006001600160401b038211156128cc576128cc61286d565b50601f01601f191660200190565b600082601f8301126128eb57600080fd5b81356128fe6128f9826128b3565b612883565b81815284602083860101111561291357600080fd5b816020850160208301376000918101602001919091529392505050565b6000806040838503121561294357600080fd5b8235915060208301356001600160401b0381111561296057600080fd5b61296c858286016128da565b9150509250929050565b6000806040838503121561298957600080fd5b50508035926020909101359150565b80356001600160a01b038116811461263957600080fd5b6000806000606084860312156129c457600080fd5b6129cd84612998565b92506020840135915060408401356001600160401b038111156129ef57600080fd5b6129fb868287016128da565b9150509250925092565b600080600060408486031215612a1a57600080fd5b612a2384612998565b925060208401356001600160401b03811115612a3e57600080fd5b612a4a86828701612788565b9497909650939450505050565b60006001600160401b03821115612a7057612a7061286d565b5060051b60200190565b600082601f830112612a8b57600080fd5b81356020612a9b6128f983612a57565b82815260059290921b84018101918181019086841115612aba57600080fd5b8286015b84811015612ad55780358352918301918301612abe565b509695505050505050565b600080600060608486031215612af557600080fd5b612afe84612998565b925060208401356001600160401b0380821115612b1a57600080fd5b612b2687838801612a7a565b93506040860135915080821115612b3c57600080fd5b506129fb868287016128da565b60008060008060608587031215612b5f57600080fd5b84356001600160401b0380821115612b7657600080fd5b612b82888389016128da565b9550602087013594506040870135915080821115612b9f57600080fd5b50612bac87828801612788565b95989497509550505050565b600060208284031215612bca57600080fd5b81356001600160401b03811115612be057600080fd5b610453848285016128da565b60008060408385031215612bff57600080fd5b612c0883612998565b915060208301356001600160801b0381168114612c2457600080fd5b809150509250929050565b600082601f830112612c4057600080fd5b81356020612c506128f983612a57565b82815260059290921b84018101918181019086841115612c6f57600080fd5b8286015b84811015612ad55780356001600160401b03811115612c925760008081fd5b612ca08986838b01016128da565b845250918301918301612c73565b60008083601f840112612cc057600080fd5b5081356001600160401b03811115612cd757600080fd5b6020830191508360208260051b85010111156116d757600080fd5b60008060008060008060006080888a031215612d0d57600080fd5b87356001600160401b0380821115612d2457600080fd5b612d308b838c01612c2f565b985060208a0135915080821115612d4657600080fd5b612d528b838c01612cae565b909850965060408a0135915080821115612d6b57600080fd5b612d778b838c01612cae565b909650945060608a0135915080821115612d9057600080fd5b50612d9d8a828b01612cae565b989b979a50959850939692959293505050565b6000602080830181845280855180835260408601915060408160051b870101925083870160005b82811015612e0557603f19888603018452612df385835161282e565b94509285019290850190600101612dd7565b5092979650505050505050565b60008060008060408587031215612e2857600080fd5b84356001600160401b0380821115612e3f57600080fd5b612e4b88838901612cae565b90965094506020870135915080821115612e6457600080fd5b50612bac87828801612cae565b600060208284031215612e8357600080fd5b5035919050565b600060208284031215612e9c57600080fd5b6103fc82612998565b634e487b7160e01b600052603260045260246000fd5b634e487b7160e01b600052601160045260246000fd5b808201808211156103e9576103e9612ebb565b6000808335601e19843603018112612efb57600080fd5b8301803591506001600160401b03821115612f1557600080fd5b6020019150368190038213156116d757600080fd5b600060208284031215612f3c57600080fd5b81516001600160401b03811115612f5257600080fd5b8201601f81018413612f6357600080fd5b8051612f716128f9826128b3565b818152856020838501011115612f8657600080fd5b6104aa82602083016020860161280a565b80516020808301519190811015612fb8576000198160200360031b1b821691505b50919050565b818103818111156103e9576103e9612ebb565b80820281158282048414176103e9576103e9612ebb565b60008085851115612ff857600080fd5b8386111561300557600080fd5b5050820193919092039150565b6001600160601b0319813581811691601485101561303a5780818660140360031b1b83161692505b505092915050565b6001600160e01b0319813581811691600485101561303a5760049490940360031b84901b1690921692915050565b8051602082015163ffffffff19808216929190601c83101561309c57808184601c0360031b1b83161693505b505050919050565b805160208201516001600160e01b0319808216929190600483101561309c5760049290920360031b82901b161692915050565b6000600182016130e9576130e9612ebb565b5060010190565b868152856020820152846040820152836060820152818360808301376000910160800190815295945050505050565b60018060a01b03841681528260208201526060604082015260006104aa606083018461282e565b60008161315557613155612ebb565b506000190190565b6000806040838503121561317057600080fd5b82356001600160401b038082111561318757600080fd5b61319386838701612a7a565b935060208501359150808211156131a957600080fd5b5061296c85828601612c2f565b8183823760009101908152919050565b634e487b7160e01b600052602160045260246000fd5b601960f81b8152606083901b6001600160601b0319166002820152815160009061320d81601685016020870161280a565b919091016016019392505050565b60008261323857634e487b7160e01b600052601260045260246000fd5b500690565b6001600160a01b03831681526040602082018190526000906104539083018461282e565b828152604060208201526000610453604083018461282e565b803560208310156103e957600019602084900360031b1b169291505056fe4c5350363a20556e6b6e6f776e204572726f72206f636375726564207768656e2063616c6c696e6720746865206c696e6b65642074617267657420636f6e7472616374a264697066735822122089452cbcfb30205f176fa6be26efff46273bbb6d1c2a778c5d49a54d1c42a8d364736f6c63430008110033",
    "linkReferences": {}
  },
  "methodIdentifiers": {
    "countTrailingZeroBytes(bytes32)": "c0d76ff5",
    "execute(bytes)": "09c5eabe",
    "execute(uint256[],bytes[])": "bf3e1f7b",
    "executeRelayCall(bytes,uint256,bytes)": "902d5fa0",
    "executeRelayCall(bytes[],uint256[],uint256[],bytes[])": "bd68663a",
    "getAllowedCallsFor(address)": "d92894d3",
    "getAllowedERC725YDataKeysFor(address)": "d6b1095f",
    "getNonce(address,uint128)": "b44581d9",
    "getPermissionsFor(address)": "d7b7123d",
    "hasPermission(bytes32,bytes32)": "1e25ad95",
    "isCompactBytesArray(bytes)": "95271e68",
    "isValidSignature(bytes32,bytes)": "1626ba7e",
    "supportsInterface(bytes4)": "01ffc9a7",
    "target()": "d4b83992",
    "verifyAllowedCall(address,bytes)": "51dcf72f",
    "verifyAllowedERC725YDataKeys(address,bytes32[],bytes)": "7983a66a",
    "verifyAllowedERC725YSingleKey(address,bytes32,bytes)": "4e7a45c7"
  },
  "id": 115
}