{
  "abi": [
    {
      "anonymous": false,
      "inputs": [
        {
          "indexed": false,
          "internalType": "address",
          "name": "addr",
          "type": "address"
        },
        {
          "indexed": false,
          "internalType": "bytes32",
          "name": "salt",
          "type": "bytes32"
        }
      ],
      "name": "ContractCreated",
      "type": "event"
    },
    {
      "inputs": [
        {
          "internalType": "bytes32",
          "name": "salt",
          "type": "bytes32"
        },
        {
          "internalType": "bytes32",
          "name": "bytecodeHash",
          "type": "bytes32"
        }
      ],
      "name": "computeAddress",
      "outputs": [
        {
          "internalType": "address",
          "name": "",
          "type": "address"
        }
      ],
      "stateMutability": "view",
      "type": "function"
    },
    {
      "inputs": [
        {
          "internalType": "bytes32",
          "name": "salt",
          "type": "bytes32"
        },
        {
          "internalType": "bytes32",
          "name": "bytecodeHash",
          "type": "bytes32"
        },
        {
          "internalType": "address",
          "name": "deployer",
          "type": "address"
        }
      ],
      "name": "computeAddress",
      "outputs": [
        {
          "internalType": "address",
          "name": "",
          "type": "address"
        }
      ],
      "stateMutability": "pure",
      "type": "function"
    },
    {
      "inputs": [
        {
          "internalType": "bytes32",
          "name": "salt",
          "type": "bytes32"
        },
        {
          "internalType": "bytes",
          "name": "bytecode",
          "type": "bytes"
        }
      ],
      "name": "deploy",
      "outputs": [
        {
          "internalType": "address",
          "name": "",
          "type": "address"
        }
      ],
      "stateMutability": "payable",
      "type": "function"
    }
  ],
  "bytecode": {
    "object": "0x608060405234801561001057600080fd5b5061038e806100206000396000f3fe6080604052600436106100345760003560e01c8063481286e6146100395780637806530614610075578063cdcb760a14610095575b600080fd5b34801561004557600080fd5b50610059610054366004610220565b6100a8565b6040516001600160a01b03909116815260200160405180910390f35b34801561008157600080fd5b50610059610090366004610242565b6100bc565b6100596100a336600461029d565b610117565b60006100b58383306100bc565b9392505050565b604080516001600160f81b031960208083019190915260609390931b6bffffffffffffffffffffffff191660218201526035810194909452605580850193909352805180850390930183526075909301909252805191012090565b600080600034905083516000036101755760405162461bcd60e51b815260206004820181905260248201527f437265617465323a2062797465636f6465206c656e677468206973207a65726f60448201526064015b60405180910390fd5b8484516020860183f591506001600160a01b0382166101d65760405162461bcd60e51b815260206004820152601960248201527f437265617465323a204661696c6564206f6e206465706c6f7900000000000000604482015260640161016c565b604080516001600160a01b0384168152602081018790527fc16bb3dbd36917c7aa3e76b988c2cd35e74bb230a02fef61e7376d8b4bfaea77910160405180910390a1509392505050565b6000806040838503121561023357600080fd5b50508035926020909101359150565b60008060006060848603121561025757600080fd5b833592506020840135915060408401356001600160a01b038116811461027c57600080fd5b809150509250925092565b634e487b7160e01b600052604160045260246000fd5b600080604083850312156102b057600080fd5b82359150602083013567ffffffffffffffff808211156102cf57600080fd5b818501915085601f8301126102e357600080fd5b8135818111156102f5576102f5610287565b604051601f8201601f19908116603f0116810190838211818310171561031d5761031d610287565b8160405282815288602084870101111561033657600080fd5b826020860160208301376000602084830101528095505050505050925092905056fea2646970667358221220f619ba59dd3efbd85e0ebad3349e8d52dec0b19ce9b905ea63dce3a9ddb7429964736f6c63430008110033",
    "linkReferences": {}
  },
  "methodIdentifiers": {
    "computeAddress(bytes32,bytes32)": "481286e6",
    "computeAddress(bytes32,bytes32,address)": "78065306",
    "deploy(bytes32,bytes)": "cdcb760a"
  },
  "id": 2
}