{
  "abi": [
    {
      "inputs": [
        {
          "internalType": "bytes[]",
          "name": "newSignatures",
          "type": "bytes[]"
        },
        {
          "internalType": "uint256[]",
          "name": "newNonces",
          "type": "uint256[]"
        },
        {
          "internalType": "uint256[]",
          "name": "newValues",
          "type": "uint256[]"
        },
        {
          "internalType": "bytes[]",
          "name": "newPayloads",
          "type": "bytes[]"
        }
      ],
      "name": "prepareRelayCall",
      "outputs": [],
      "stateMutability": "nonpayable",
      "type": "function"
    },
    {
      "inputs": [
        {
          "internalType": "address",
          "name": "keyManagerAddress",
          "type": "address"
        }
      ],
      "name": "relayCallThatReenters",
      "outputs": [
        {
          "internalType": "bytes[]",
          "name": "",
          "type": "bytes[]"
        }
      ],
      "stateMutability": "nonpayable",
      "type": "function"
    },
    {
      "stateMutability": "payable",
      "type": "receive"
    }
  ],
  "bytecode": {
    "object": "0x608060405234801561001057600080fd5b50610976806100206000396000f3fe60806040526004361061002d5760003560e01c8063220143ab14610039578063c25708bf1461005b57600080fd5b3661003457005b600080fd5b34801561004557600080fd5b50610059610054366004610436565b610091565b005b34801561006757600080fd5b5061007b6100763660046104e3565b6100e7565b6040516100889190610537565b60405180910390f35b83516100a490600090602087019061016d565b5082516100b89060019060208601906101c3565b5081516100cc9060029060208501906101c3565b5080516100e090600390602084019061016d565b5050505050565b604051635eb4331d60e11b81526060906001600160a01b0383169063bd68663a90610120906000906001906002906003906004016106ec565b6000604051808303816000875af115801561013f573d6000803e3d6000fd5b505050506040513d6000823e601f3d908101601f191682016040526101679190810190610744565b92915050565b8280548282559060005260206000209081019282156101b3579160200282015b828111156101b357825182906101a39082610880565b509160200191906001019061018d565b506101bf92915061020a565b5090565b8280548282559060005260206000209081019282156101fe579160200282015b828111156101fe5782518255916020019190600101906101e3565b506101bf929150610227565b808211156101bf57600061021e828261023c565b5060010161020a565b5b808211156101bf5760008155600101610228565b508054610248906105b1565b6000825580601f10610258575050565b601f0160209004906000526020600020908101906102769190610227565b50565b634e487b7160e01b600052604160045260246000fd5b604051601f8201601f1916810167ffffffffffffffff811182821017156102b8576102b8610279565b604052919050565b600067ffffffffffffffff8211156102da576102da610279565b5060051b60200190565b600067ffffffffffffffff8211156102fe576102fe610279565b50601f01601f191660200190565b600082601f83011261031d57600080fd5b8135602061033261032d836102c0565b61028f565b82815260059290921b8401810191818101908684111561035157600080fd5b8286015b848110156103d057803567ffffffffffffffff8111156103755760008081fd5b8701603f810189136103875760008081fd5b84810135604061039961032d836102e4565b8281528b828486010111156103ae5760008081fd5b8282850189830137600092810188019290925250845250918301918301610355565b509695505050505050565b600082601f8301126103ec57600080fd5b813560206103fc61032d836102c0565b82815260059290921b8401810191818101908684111561041b57600080fd5b8286015b848110156103d0578035835291830191830161041f565b6000806000806080858703121561044c57600080fd5b843567ffffffffffffffff8082111561046457600080fd5b6104708883890161030c565b9550602087013591508082111561048657600080fd5b610492888389016103db565b945060408701359150808211156104a857600080fd5b6104b4888389016103db565b935060608701359150808211156104ca57600080fd5b506104d78782880161030c565b91505092959194509250565b6000602082840312156104f557600080fd5b81356001600160a01b038116811461050c57600080fd5b9392505050565b60005b8381101561052e578181015183820152602001610516565b50506000910152565b6000602080830181845280855180835260408601915060408160051b870101925083870160005b828110156105a457878503603f1901845281518051808752610585818989018a8501610513565b601f01601f19169590950186019450928501929085019060010161055e565b5092979650505050505050565b600181811c908216806105c557607f821691505b6020821081036105e557634e487b7160e01b600052602260045260246000fd5b50919050565b600081548084526020808501808196506005915083821b81016000878152848120815b8781101561069d578484038b52828254610627816105b1565b80875260018281168015610642576001811461065b57610686565b60ff198416898d01528215158b1b89018c019450610686565b8688528b8820885b8481101561067e5781548b82018f0152908301908d01610663565b8a018d019550505b509d8a019d9296505050919091019060010161060e565b50919998505050505050505050565b6000815480845260208085019450836000528060002060005b838110156106e1578154875295820195600191820191016106c5565b509495945050505050565b6080815260006106ff60808301876105eb565b828103602084015261071181876106ac565b9050828103604084015261072581866106ac565b9050828103606084015261073981856105eb565b979650505050505050565b6000602080838503121561075757600080fd5b825167ffffffffffffffff8082111561076f57600080fd5b818501915085601f83011261078357600080fd5b815161079161032d826102c0565b81815260059190911b830184019084810190888311156107b057600080fd5b8585015b83811015610824578051858111156107cc5760008081fd5b8601603f81018b136107de5760008081fd5b8781015160406107f061032d836102e4565b8281528d828486010111156108055760008081fd5b610814838c8301848701610513565b86525050509186019186016107b4565b5098975050505050505050565b601f82111561087b57600081815260208120601f850160051c810160208610156108585750805b601f850160051c820191505b8181101561087757828155600101610864565b5050505b505050565b815167ffffffffffffffff81111561089a5761089a610279565b6108ae816108a884546105b1565b84610831565b602080601f8311600181146108e357600084156108cb5750858301515b600019600386901b1c1916600185901b178555610877565b600085815260208120601f198616915b82811015610912578886015182559484019460019091019084016108f3565b50858210156109305787850151600019600388901b60f8161c191681555b5050505050600190811b0190555056fea26469706673582212201e5f7b2bf289a4eb9704e96ce48a961a66b44afbdbbdeb0e0f683112e1a0e4ba64736f6c63430008110033",
    "linkReferences": {}
  },
  "methodIdentifiers": {
    "prepareRelayCall(bytes[],uint256[],uint256[],bytes[])": "220143ab",
    "relayCallThatReenters(address)": "c25708bf"
  },
  "id": 120
}