{
  "abi": [
    {
      "inputs": [],
      "stateMutability": "nonpayable",
      "type": "constructor"
    },
    {
      "inputs": [],
      "name": "CannotTransferOwnershipToSelf",
      "type": "error"
    },
    {
      "inputs": [],
      "name": "ERC725X_ContractDeploymentFailed",
      "type": "error"
    },
    {
      "inputs": [],
      "name": "ERC725X_CreateOperationsRequireEmptyRecipientAddress",
      "type": "error"
    },
    {
      "inputs": [],
      "name": "ERC725X_ExecuteParametersLengthMismatch",
      "type": "error"
    },
    {
      "inputs": [
        {
          "internalType": "uint256",
          "name": "balance",
          "type": "uint256"
        },
        {
          "internalType": "uint256",
          "name": "value",
          "type": "uint256"
        }
      ],
      "name": "ERC725X_InsufficientBalance",
      "type": "error"
    },
    {
      "inputs": [],
      "name": "ERC725X_MsgValueDisallowedInDelegateCall",
      "type": "error"
    },
    {
      "inputs": [],
      "name": "ERC725X_MsgValueDisallowedInStaticCall",
      "type": "error"
    },
    {
      "inputs": [],
      "name": "ERC725X_NoContractBytecodeProvided",
      "type": "error"
    },
    {
      "inputs": [
        {
          "internalType": "uint256",
          "name": "operationTypeProvided",
          "type": "uint256"
        }
      ],
      "name": "ERC725X_UnknownOperationType",
      "type": "error"
    },
    {
      "inputs": [
        {
          "internalType": "uint256",
          "name": "dataKeysLength",
          "type": "uint256"
        },
        {
          "internalType": "uint256",
          "name": "dataValuesLength",
          "type": "uint256"
        }
      ],
      "name": "ERC725Y_DataKeysValuesLengthMismatch",
      "type": "error"
    },
    {
      "inputs": [
        {
          "internalType": "uint256",
          "name": "renounceOwnershipStart",
          "type": "uint256"
        },
        {
          "internalType": "uint256",
          "name": "renounceOwnershipEnd",
          "type": "uint256"
        }
      ],
      "name": "NotInRenounceOwnershipInterval",
      "type": "error"
    },
    {
      "anonymous": false,
      "inputs": [
        {
          "indexed": true,
          "internalType": "uint256",
          "name": "operationType",
          "type": "uint256"
        },
        {
          "indexed": true,
          "internalType": "address",
          "name": "contractAddress",
          "type": "address"
        },
        {
          "indexed": true,
          "internalType": "uint256",
          "name": "value",
          "type": "uint256"
        },
        {
          "indexed": false,
          "internalType": "bytes32",
          "name": "salt",
          "type": "bytes32"
        }
      ],
      "name": "ContractCreated",
      "type": "event"
    },
    {
      "anonymous": false,
      "inputs": [
        {
          "indexed": true,
          "internalType": "bytes32",
          "name": "dataKey",
          "type": "bytes32"
        },
        {
          "indexed": false,
          "internalType": "bytes",
          "name": "dataValue",
          "type": "bytes"
        }
      ],
      "name": "DataChanged",
      "type": "event"
    },
    {
      "anonymous": false,
      "inputs": [
        {
          "indexed": true,
          "internalType": "uint256",
          "name": "operationType",
          "type": "uint256"
        },
        {
          "indexed": true,
          "internalType": "address",
          "name": "target",
          "type": "address"
        },
        {
          "indexed": true,
          "internalType": "uint256",
          "name": "value",
          "type": "uint256"
        },
        {
          "indexed": false,
          "internalType": "bytes4",
          "name": "selector",
          "type": "bytes4"
        }
      ],
      "name": "Executed",
      "type": "event"
    },
    {
      "anonymous": false,
      "inputs": [
        {
          "indexed": false,
          "internalType": "uint8",
          "name": "version",
          "type": "uint8"
        }
      ],
      "name": "Initialized",
      "type": "event"
    },
    {
      "anonymous": false,
      "inputs": [],
      "name": "OwnershipRenounced",
      "type": "event"
    },
    {
      "anonymous": false,
      "inputs": [
        {
          "indexed": true,
          "internalType": "address",
          "name": "previousOwner",
          "type": "address"
        },
        {
          "indexed": true,
          "internalType": "address",
          "name": "newOwner",
          "type": "address"
        }
      ],
      "name": "OwnershipTransferStarted",
      "type": "event"
    },
    {
      "anonymous": false,
      "inputs": [
        {
          "indexed": true,
          "internalType": "address",
          "name": "previousOwner",
          "type": "address"
        },
        {
          "indexed": true,
          "internalType": "address",
          "name": "newOwner",
          "type": "address"
        }
      ],
      "name": "OwnershipTransferred",
      "type": "event"
    },
    {
      "anonymous": false,
      "inputs": [],
      "name": "RenounceOwnershipInitiated",
      "type": "event"
    },
    {
      "anonymous": false,
      "inputs": [
        {
          "indexed": true,
          "internalType": "address",
          "name": "from",
          "type": "address"
        },
        {
          "indexed": true,
          "internalType": "uint256",
          "name": "value",
          "type": "uint256"
        },
        {
          "indexed": true,
          "internalType": "bytes32",
          "name": "typeId",
          "type": "bytes32"
        },
        {
          "indexed": false,
          "internalType": "bytes",
          "name": "receivedData",
          "type": "bytes"
        },
        {
          "indexed": false,
          "internalType": "bytes",
          "name": "returnedValue",
          "type": "bytes"
        }
      ],
      "name": "UniversalReceiver",
      "type": "event"
    },
    {
      "anonymous": false,
      "inputs": [
        {
          "indexed": true,
          "internalType": "address",
          "name": "sender",
          "type": "address"
        },
        {
          "indexed": true,
          "internalType": "uint256",
          "name": "value",
          "type": "uint256"
        }
      ],
      "name": "ValueReceived",
      "type": "event"
    },
    {
      "stateMutability": "payable",
      "type": "fallback"
    },
    {
      "inputs": [],
      "name": "acceptOwnership",
      "outputs": [],
      "stateMutability": "nonpayable",
      "type": "function"
    },
    {
      "inputs": [
        {
          "internalType": "uint256[]",
          "name": "operationsType",
          "type": "uint256[]"
        },
        {
          "internalType": "address[]",
          "name": "targets",
          "type": "address[]"
        },
        {
          "internalType": "uint256[]",
          "name": "values",
          "type": "uint256[]"
        },
        {
          "internalType": "bytes[]",
          "name": "datas",
          "type": "bytes[]"
        }
      ],
      "name": "execute",
      "outputs": [
        {
          "internalType": "bytes[]",
          "name": "",
          "type": "bytes[]"
        }
      ],
      "stateMutability": "payable",
      "type": "function"
    },
    {
      "inputs": [
        {
          "internalType": "uint256",
          "name": "operationType",
          "type": "uint256"
        },
        {
          "internalType": "address",
          "name": "target",
          "type": "address"
        },
        {
          "internalType": "uint256",
          "name": "value",
          "type": "uint256"
        },
        {
          "internalType": "bytes",
          "name": "data",
          "type": "bytes"
        }
      ],
      "name": "execute",
      "outputs": [
        {
          "internalType": "bytes",
          "name": "",
          "type": "bytes"
        }
      ],
      "stateMutability": "payable",
      "type": "function"
    },
    {
      "inputs": [
        {
          "internalType": "bytes32[]",
          "name": "dataKeys",
          "type": "bytes32[]"
        }
      ],
      "name": "getData",
      "outputs": [
        {
          "internalType": "bytes[]",
          "name": "dataValues",
          "type": "bytes[]"
        }
      ],
      "stateMutability": "view",
      "type": "function"
    },
    {
      "inputs": [
        {
          "internalType": "bytes32",
          "name": "dataKey",
          "type": "bytes32"
        }
      ],
      "name": "getData",
      "outputs": [
        {
          "internalType": "bytes",
          "name": "dataValue",
          "type": "bytes"
        }
      ],
      "stateMutability": "view",
      "type": "function"
    },
    {
      "inputs": [
        {
          "internalType": "address",
          "name": "newOwner",
          "type": "address"
        }
      ],
      "name": "initialize",
      "outputs": [],
      "stateMutability": "payable",
      "type": "function"
    },
    {
      "inputs": [
        {
          "internalType": "bytes32",
          "name": "dataHash",
          "type": "bytes32"
        },
        {
          "internalType": "bytes",
          "name": "signature",
          "type": "bytes"
        }
      ],
      "name": "isValidSignature",
      "outputs": [
        {
          "internalType": "bytes4",
          "name": "magicValue",
          "type": "bytes4"
        }
      ],
      "stateMutability": "view",
      "type": "function"
    },
    {
      "inputs": [],
      "name": "owner",
      "outputs": [
        {
          "internalType": "address",
          "name": "",
          "type": "address"
        }
      ],
      "stateMutability": "view",
      "type": "function"
    },
    {
      "inputs": [],
      "name": "pendingOwner",
      "outputs": [
        {
          "internalType": "address",
          "name": "",
          "type": "address"
        }
      ],
      "stateMutability": "view",
      "type": "function"
    },
    {
      "inputs": [],
      "name": "renounceOwnership",
      "outputs": [],
      "stateMutability": "nonpayable",
      "type": "function"
    },
    {
      "inputs": [
        {
          "internalType": "bytes32[]",
          "name": "dataKeys",
          "type": "bytes32[]"
        },
        {
          "internalType": "bytes[]",
          "name": "dataValues",
          "type": "bytes[]"
        }
      ],
      "name": "setData",
      "outputs": [],
      "stateMutability": "nonpayable",
      "type": "function"
    },
    {
      "inputs": [
        {
          "internalType": "bytes32",
          "name": "dataKey",
          "type": "bytes32"
        },
        {
          "internalType": "bytes",
          "name": "dataValue",
          "type": "bytes"
        }
      ],
      "name": "setData",
      "outputs": [],
      "stateMutability": "nonpayable",
      "type": "function"
    },
    {
      "inputs": [
        {
          "internalType": "bytes4",
          "name": "interfaceId",
          "type": "bytes4"
        }
      ],
      "name": "supportsInterface",
      "outputs": [
        {
          "internalType": "bool",
          "name": "",
          "type": "bool"
        }
      ],
      "stateMutability": "view",
      "type": "function"
    },
    {
      "inputs": [
        {
          "internalType": "address",
          "name": "_newOwner",
          "type": "address"
        }
      ],
      "name": "transferOwnership",
      "outputs": [],
      "stateMutability": "nonpayable",
      "type": "function"
    },
    {
      "inputs": [
        {
          "internalType": "bytes32",
          "name": "typeId",
          "type": "bytes32"
        },
        {
          "internalType": "bytes",
          "name": "receivedData",
          "type": "bytes"
        }
      ],
      "name": "universalReceiver",
      "outputs": [
        {
          "internalType": "bytes",
          "name": "returnedValues",
          "type": "bytes"
        }
      ],
      "stateMutability": "payable",
      "type": "function"
    },
    {
      "stateMutability": "payable",
      "type": "receive"
    }
  ],
  "bytecode": {
    "object": "0x60806040523480156200001157600080fd5b506200001c62000022565b620000e4565b600054610100900460ff16156200008f5760405162461bcd60e51b815260206004820152602760248201527f496e697469616c697a61626c653a20636f6e747261637420697320696e697469604482015266616c697a696e6760c81b606482015260840160405180910390fd5b60005460ff9081161015620000e2576000805460ff191660ff9081179091556040519081527f7f26b83ff96e1f2b6a682f133852f6798a09c465da95921460cefb38474024989060200160405180910390a15b565b612a4980620000f46000396000f3fe6080604052600436106100ec5760003560e01c80636bb56a141161008a5780638da5cb5b116100595780638da5cb5b1461029e578063c4d66de8146102d6578063e30c3978146102e9578063f2fde38b1461030757610115565b80636bb56a1414610241578063715018a61461025457806379ba5097146102695780637f23690c1461027e57610115565b80631626ba7e116100c65780631626ba7e146101b457806344c028fe146101e15780634e3e6e9c1461020157806354f6127f1461022157610115565b806301ffc9a71461013f57806313ced88d1461017457806314a6e2931461019457610115565b3661011557341561011357604051349033906000805160206129f483398151915290600090a35b005b341561013757604051349033906000805160206129f483398151915290600090a35b610113610327565b34801561014b57600080fd5b5061015f61015a36600461202f565b610395565b60405190151581526020015b60405180910390f35b610187610182366004612233565b610420565b60405161016b919061238a565b3480156101a057600080fd5b506101136101af3660046123ec565b610463565b3480156101c057600080fd5b506101d46101cf36600461244f565b6104ef565b60405161016b919061248b565b6101f46101ef3660046124a0565b6105e3565b60405161016b91906124f4565b34801561020d57600080fd5b5061018761021c366004612507565b61061b565b34801561022d57600080fd5b506101f461023c36600461253b565b6106ce565b6101f461024f366004612554565b6106d9565b34801561026057600080fd5b50610113610863565b34801561027557600080fd5b50610113610875565b34801561028a57600080fd5b5061011361029936600461244f565b61087d565b3480156102aa57600080fd5b506000546201000090046001600160a01b03165b6040516001600160a01b03909116815260200161016b565b6101136102e43660046125cf565b610893565b3480156102f557600080fd5b506003546001600160a01b03166102be565b34801561031357600080fd5b506101136103223660046125cf565b6109a5565b600436101561033257565b60006103496000356001600160e01b0319166109b9565b90506001600160a01b03811661035c5750565b36600080373360601b365234601436015260008060343601600080855af13d6000803e80801561038b573d6000f35b3d6000fd5b505050565b60006001600160e01b03198216630b135d3f60e11b14806103c657506001600160e01b03198216636676749760e01b145b806103e157506001600160e01b03198216631aed5a8560e21b145b806103fc57506001600160e01b031982166394be599960e01b145b8061040b575061040b826109fe565b8061041a575061041a82610a23565b92915050565b606061042a610a60565b341561044c57604051349033906000805160206129f483398151915290600090a35b61045885858585610ac1565b90505b949350505050565b61046b610a60565b805182511461049f57815181516040516321d1e13360e11b8152600481019290925260248201526044015b60405180910390fd5b60005b8251811015610390576104e78382815181106104c0576104c06125ea565b60200260200101518383815181106104da576104da6125ea565b6020026020010151610c05565b6001016104a2565b600080546201000090046001600160a01b0316803b156105a35761051a81630b135d3f60e11b610c79565b61052c576001600160e01b031961059b565b604051630b135d3f60e11b81526001600160a01b03821690631626ba7e9061055a9087908790600401612600565b602060405180830381865afa158015610577573d6000803e3d6000fd5b505050506040513d601f19601f8201168201806040525081019061059b9190612619565b91505061041a565b6105ad8484610d0d565b6001600160a01b0316816001600160a01b0316146105d3576001600160e01b031961059b565b50630b135d3f60e11b9392505050565b60606105ed610a60565b341561060f57604051349033906000805160206129f483398151915290600090a35b61045885858585610d31565b606081516001600160401b038111156106365761063661204c565b60405190808252806020026020018201604052801561066957816020015b60608152602001906001900390816106545790505b50905060005b82518110156106c85761069a83828151811061068d5761068d6125ea565b6020026020010151610e3c565b8282815181106106ac576106ac6125ea565b60200260200101819052506106c18160010190565b905061066f565b50919050565b606061041a82610e3c565b606034156106fd57604051349033906000805160206129f483398151915290600090a35b60006107287f0cfc51aec37c55a4d0b1a65c6255c4bf2fbdf6277f3cc0730c45b828b6db8b47610e3c565b90506060601482511061077757600061074083612636565b60601c905061075681631aed5a8560e21b610c79565b15610775576107726001600160a01b0382168888883334610ede565b91505b505b6000610790690cfc51aec37c55a4d0b160b01b88611026565b9050600061079d82610e3c565b9050606060148251106107ec5760006107b583612636565b60601c90506107cb81631aed5a8560e21b610c79565b156107ea576107e76001600160a01b0382168b8b8b3334610ede565b91505b505b83816040516020016107ff92919061266d565b60405160208183030381529060405295508834336001600160a01b03167f9c3ba68eb5742b8e3961aea0afc7371a71bf433c8a67a831803b64c064a178c28b8b8b60405161084f939291906126bb565b60405180910390a450505050509392505050565b61086b610a60565b610873611072565b565b61087361114a565b610885610a60565b61088f8282610c05565b5050565b600054610100900460ff16158080156108b35750600054600160ff909116105b806108cd5750303b1580156108cd575060005460ff166001145b6109305760405162461bcd60e51b815260206004820152602e60248201527f496e697469616c697a61626c653a20636f6e747261637420697320616c72656160448201526d191e481a5b9a5d1a585b1a5e995960921b6064820152608401610496565b6000805460ff191660011790558015610953576000805461ff0019166101001790555b61095c8261125d565b801561088f576000805461ff0019169055604051600181527f7f26b83ff96e1f2b6a682f133852f6798a09c465da95921460cefb38474024989060200160405180910390a15050565b6109ad610a60565b6109b6816112d6565b50565b6000806109dd696773c5a04a6d4300884b60b11b6001600160e01b03198516611026565b905060006109ea82610e3c565b6109f390612636565b60601c949350505050565b60006001600160e01b0319821663a918fa6b60e01b148061041a575061041a8261143f565b600080610a366301ffc9a760e01b6109b9565b90506001600160a01b038116610a4f5750600092915050565b610a598184610c79565b9392505050565b6000546001600160a01b03620100009091041633146108735760405162461bcd60e51b815260206004820181905260248201527f4f776e61626c653a2063616c6c6572206973206e6f7420746865206f776e65726044820152606401610496565b606083518551141580610ae2575082518451141580610ae257508151835114155b15610b0057604051633ff55f4d60e01b815260040160405180910390fd5b600085516001600160401b03811115610b1b57610b1b61204c565b604051908082528060200260200182016040528015610b4e57816020015b6060815260200190600190039081610b395790505b50905060005b8651811015610bfb57610bcd878281518110610b7257610b726125ea565b6020026020010151878381518110610b8c57610b8c6125ea565b6020026020010151878481518110610ba657610ba66125ea565b6020026020010151878581518110610bc057610bc06125ea565b6020026020010151610d31565b828281518110610bdf57610bdf6125ea565b6020026020010181905250610bf48160010190565b9050610b54565b5095945050505050565b6000828152600160205260409020610c1d8282612763565b50817fece574603820d07bc9b91f2a932baadf4628aabcb8afba49776529c14a6104b261010083511115610c5e57610c59836000610100611464565b610c60565b825b604051610c6d91906124f4565b60405180910390a25050565b6000806301ffc9a760e01b83604051602401610c95919061248b565b604051602081830303815290604052906001600160e01b0319166020820180516001600160e01b03838183161783525050505090506000806000602060008551602087018a617530fa92503d91506000519050828015610cf6575060208210155b8015610d025750600081115b979650505050505050565b6000806000610d1c8585611571565b91509150610d29816115b6565b509392505050565b606084610d4a57610d4384848461176c565b905061045b565b60018503610d84576001600160a01b03841615610d7a57604051631820c12560e11b815260040160405180910390fd5b610d43838361188a565b60028503610dbe576001600160a01b03841615610db457604051631820c12560e11b815260040160405180910390fd5b610d438383611986565b60038503610def578215610de5576040516339795e3560e11b815260040160405180910390fd5b610d438483611a6c565b60048503610e20578215610e1657604051635ac8313560e01b815260040160405180910390fd5b610d438483611b5d565b604051631d60ecef60e21b815260048101869052602401610496565b6000818152600160205260409020805460609190610e59906126e1565b80601f0160208091040260200160405190810160405280929190818152602001828054610e85906126e1565b8015610ed25780601f10610ea757610100808354040283529160200191610ed2565b820191906000526020600020905b815481529060010190602001808311610eb557829003601f168201915b50505050509050919050565b60606000636bb56a1460e01b878787604051602401610eff93929190612822565b60408051601f19818403018152918152602080830180516001600160e01b03166001600160e01b03199095169490941790935251610f4192879187910161283c565b6040516020818303038152906040529050600080896001600160a01b031683604051610f6d9190612876565b6000604051808303816000865af19150503d8060008114610faa576040519150601f19603f3d011682016040523d82523d6000602084013e610faf565b606091505b5091509150610ff482826040518060400160405280602081526020017f43616c6c20746f20756e6976657273616c5265636569766572206661696c6564815250611c02565b5080516000036110045780611018565b808060200190518101906110189190612892565b9a9950505050505050505050565b604080516001600160b01b0319841660208201526000602a82018190526001600160601b03198416602c8301529182910160405160208183030381529060405290508061045b906128ff565b600254439060009061108690606490612939565b90506000611095606483612939565b9050808311156110d25760028390556040517f56272768d104766ae5e663c58927d0a9e47effb40b9a8f6644ac5dfbc9e56f8490600090a1505050565b818310156110fd57604051638b9bf50760e01b81526004810183905260248101829052604401610496565b6111076000611c3b565b60006002819055600380546001600160a01b03191690556040517fd1f66c3d2bc1993a86be5e3d33709d98f0442381befcedd29f578b9b2506b1ce9190a1505050565b6003546001600160a01b031633146111b25760405162461bcd60e51b815260206004820152602560248201527f4c535031343a2063616c6c6572206973206e6f74207468652070656e64696e6760448201526427bbb732b960d91b6064820152608401610496565b6000546003546001600160a01b03620100009092048216916111d49116611c3b565b600380546001600160a01b03191690556040805160208101909152600081526112209082907fa124442e1cc7b52d8e2ede2787d43527dc1f3ae0de87f50dd03e27a71834f74c90611cb1565b6109b6337fe32c7debcb817925ba4883fdbfc52797187f28f73f860641dab1a68d9b32902c60001b60405180602001604052806000815250611cb1565b600054610100900460ff166112845760405162461bcd60e51b81526004016104969061294c565b61128d81611d42565b6109b67feafec4d89fa9619884b60000abe425d64acd861a49b8ddf5c0b6962110481f3860001b6040518060400160405280600481526020016355f212eb60e11b815250610c05565b306001600160a01b038216036112ff576040516343b248cd60e01b815260040160405180910390fd5b600380546001600160a01b0383166001600160a01b031990911617905560006113376000546001600160a01b03620100009091041690565b9050816001600160a01b0316816001600160a01b03167f38d16b8cac22d99fc7c124b9cd0de2d3fa1faef420bfe791d8c362d765e2270060405160405180910390a36113b6827fee9a7c0924f740a2ca33d59b7f0c2929821ea9837ce043ce91c1823e9c4e52c060001b60405180602001604052806000815250611cb1565b6000546001600160a01b0382811662010000909204161461088f5760405162461bcd60e51b815260206004820152603f60248201527f4c535031343a206e65774f776e6572204d55535420616363657074206f776e6560448201527f727368697020696e2061207365706172617465207472616e73616374696f6e006064820152608401610496565b60006001600160e01b03198216631c537ddf60e21b148061041a575061041a82611d94565b60608161147281601f612939565b10156114b15760405162461bcd60e51b815260206004820152600e60248201526d736c6963655f6f766572666c6f7760901b6044820152606401610496565b6114bb8284612939565b845110156114ff5760405162461bcd60e51b8152602060048201526011602482015270736c6963655f6f75744f66426f756e647360781b6044820152606401610496565b60608215801561151e5760405191506000825260208201604052611568565b6040519150601f8416801560200281840101858101878315602002848b0101015b8183101561155757805183526020928301920161153f565b5050858452601f01601f1916604052505b50949350505050565b60008082516041036115a75760208301516040840151606085015160001a61159b87828585611dc9565b945094505050506115af565b506000905060025b9250929050565b60008160048111156115ca576115ca612997565b036115d25750565b60018160048111156115e6576115e6612997565b036116335760405162461bcd60e51b815260206004820152601860248201527f45434453413a20696e76616c6964207369676e617475726500000000000000006044820152606401610496565b600281600481111561164757611647612997565b036116945760405162461bcd60e51b815260206004820152601f60248201527f45434453413a20696e76616c6964207369676e6174757265206c656e677468006044820152606401610496565b60038160048111156116a8576116a8612997565b036117005760405162461bcd60e51b815260206004820152602260248201527f45434453413a20696e76616c6964207369676e6174757265202773272076616c604482015261756560f01b6064820152608401610496565b600481600481111561171457611714612997565b036109b65760405162461bcd60e51b815260206004820152602260248201527f45434453413a20696e76616c6964207369676e6174757265202776272076616c604482015261756560f01b6064820152608401610496565b606082471015611798576040516301bf351f60e31b815247600482015260248101849052604401610496565b826001600160a01b03851660007f4810874456b8e6487bd861375cf6abd8e1c8bb5858c8ce36a86a04dabfac199e6117cf866129ad565b6040516117dc919061248b565b60405180910390a4600080856001600160a01b031685856040516118009190612876565b60006040518083038185875af1925050503d806000811461183d576040519150601f19603f3d011682016040523d82523d6000602084013e611842565b606091505b509150915061188082826040518060400160405280601681526020017522a9219b991aac1d102ab735b737bbb71022b93937b960511b815250611c02565b9695505050505050565b6060824710156118b6576040516301bf351f60e31b815247600482015260248101849052604401610496565b81516000036118d85760405163b81cd8d960e01b815260040160405180910390fd5b600082516020840185f090506001600160a01b03811661190b57604051630b07489b60e01b815260040160405180910390fd5b6040516001600160601b0319606083901b166020820152603401604051602081830303815290604052915083816001600160a01b031660017fa1fb700aaee2ae4a2ff6f91ce7eba292f89c2f5488b8ec4c5c5c8150692595c36000801b60405161197791815260200190565b60405180910390a45092915050565b606081516000036119aa5760405163b81cd8d960e01b815260040160405180910390fd5b60006119c383602085516119be91906129e0565b611eb6565b905060006119e0846000602087516119db91906129e0565b611464565b905060006119ef868484611f14565b6040516001600160601b0319606083901b166020820152909150603401604051602081830303815290604052935085816001600160a01b031660027fa1fb700aaee2ae4a2ff6f91ce7eba292f89c2f5488b8ec4c5c5c8150692595c386604051611a5b91815260200190565b60405180910390a450505092915050565b606060006001600160a01b03841660037f4810874456b8e6487bd861375cf6abd8e1c8bb5858c8ce36a86a04dabfac199e611aa6866129ad565b604051611ab3919061248b565b60405180910390a4600080846001600160a01b031684604051611ad69190612876565b600060405180830381855afa9150503d8060008114611b11576040519150601f19603f3d011682016040523d82523d6000602084013e611b16565b606091505b5091509150611b5482826040518060400160405280601681526020017522a9219b991aac1d102ab735b737bbb71022b93937b960511b815250611c02565b95945050505050565b606060006001600160a01b03841660047f4810874456b8e6487bd861375cf6abd8e1c8bb5858c8ce36a86a04dabfac199e611b97866129ad565b604051611ba4919061248b565b60405180910390a4600080846001600160a01b031684604051611bc79190612876565b600060405180830381855af49150503d8060008114611b11576040519150601f19603f3d011682016040523d82523d6000602084013e611b16565b60608315611c11575081610a59565b825115611c215782518084602001fd5b8160405162461bcd60e51b815260040161049691906124f4565b6000546001600160a01b038281166201000090920416146109b657600080546001600160a01b038381166201000081810262010000600160b01b0319851617855560405193049190911692909183917f8be0079c531659141344cd1fd0a4f28419497f9722a3daafe3b4186f6b6457e091a35050565b611cc283631aed5a8560e21b610c79565b1561039057604051631aed5a8560e21b81526001600160a01b03841690636bb56a1490611cf59085908590600401612600565b6000604051808303816000875af1158015611d14573d6000803e3d6000fd5b505050506040513d6000823e601f3d908101601f19168201604052611d3c9190810190612892565b50505050565b600054610100900460ff16611d695760405162461bcd60e51b81526004016104969061294c565b3415611d8b57604051349033906000805160206129f483398151915290600090a35b6109b681611c3b565b60006001600160e01b0319821663570ef07360e01b148061041a57506301ffc9a760e01b6001600160e01b031983161461041a565b6000807f7fffffffffffffffffffffffffffffff5d576e7357a4501ddfe92f46681b20a0831115611e005750600090506003611ead565b8460ff16601b14158015611e1857508460ff16601c14155b15611e295750600090506004611ead565b6040805160008082526020820180845289905260ff881692820192909252606081018690526080810185905260019060a0016020604051602081039080840390855afa158015611e7d573d6000803e3d6000fd5b5050604051601f1901519150506001600160a01b038116611ea657600060019250925050611ead565b9150600090505b94509492505050565b6000611ec3826020612939565b83511015611f0b5760405162461bcd60e51b8152602060048201526015602482015274746f427974657333325f6f75744f66426f756e647360581b6044820152606401610496565b50016020015190565b60008084471015611f675760405162461bcd60e51b815260206004820152601d60248201527f437265617465323a20696e73756666696369656e742062616c616e63650000006044820152606401610496565b8251600003611fb85760405162461bcd60e51b815260206004820181905260248201527f437265617465323a2062797465636f6465206c656e677468206973207a65726f6044820152606401610496565b8383516020850187f590506001600160a01b03811661045b5760405162461bcd60e51b815260206004820152601960248201527f437265617465323a204661696c6564206f6e206465706c6f79000000000000006044820152606401610496565b6001600160e01b0319811681146109b657600080fd5b60006020828403121561204157600080fd5b8135610a5981612019565b634e487b7160e01b600052604160045260246000fd5b604051601f8201601f191681016001600160401b038111828210171561208a5761208a61204c565b604052919050565b60006001600160401b038211156120ab576120ab61204c565b5060051b60200190565b600082601f8301126120c657600080fd5b813560206120db6120d683612092565b612062565b82815260059290921b840181019181810190868411156120fa57600080fd5b8286015b8481101561211557803583529183019183016120fe565b509695505050505050565b80356001600160a01b038116811461213757600080fd5b919050565b60006001600160401b038211156121555761215561204c565b50601f01601f191660200190565b600082601f83011261217457600080fd5b81356121826120d68261213c565b81815284602083860101111561219757600080fd5b816020850160208301376000918101602001919091529392505050565b600082601f8301126121c557600080fd5b813560206121d56120d683612092565b82815260059290921b840181019181810190868411156121f457600080fd5b8286015b848110156121155780356001600160401b038111156122175760008081fd5b6122258986838b0101612163565b8452509183019183016121f8565b6000806000806080858703121561224957600080fd5b84356001600160401b038082111561226057600080fd5b61226c888389016120b5565b955060209150818701358181111561228357600080fd5b8701601f8101891361229457600080fd5b80356122a26120d682612092565b81815260059190911b8201840190848101908b8311156122c157600080fd5b928501925b828410156122e6576122d784612120565b825292850192908501906122c6565b975050505060408701359150808211156122ff57600080fd5b61230b888389016120b5565b9350606087013591508082111561232157600080fd5b5061232e878288016121b4565b91505092959194509250565b60005b8381101561235557818101518382015260200161233d565b50506000910152565b6000815180845261237681602086016020860161233a565b601f01601f19169290920160200192915050565b6000602080830181845280855180835260408601915060408160051b870101925083870160005b828110156123df57603f198886030184526123cd85835161235e565b945092850192908501906001016123b1565b5092979650505050505050565b600080604083850312156123ff57600080fd5b82356001600160401b038082111561241657600080fd5b612422868387016120b5565b9350602085013591508082111561243857600080fd5b50612445858286016121b4565b9150509250929050565b6000806040838503121561246257600080fd5b8235915060208301356001600160401b0381111561247f57600080fd5b61244585828601612163565b6001600160e01b031991909116815260200190565b600080600080608085870312156124b657600080fd5b843593506124c660208601612120565b92506040850135915060608501356001600160401b038111156124e857600080fd5b61232e87828801612163565b602081526000610a59602083018461235e565b60006020828403121561251957600080fd5b81356001600160401b0381111561252f57600080fd5b61045b848285016120b5565b60006020828403121561254d57600080fd5b5035919050565b60008060006040848603121561256957600080fd5b8335925060208401356001600160401b038082111561258757600080fd5b818601915086601f83011261259b57600080fd5b8135818111156125aa57600080fd5b8760208285010111156125bc57600080fd5b6020830194508093505050509250925092565b6000602082840312156125e157600080fd5b610a5982612120565b634e487b7160e01b600052603260045260246000fd5b82815260406020820152600061045b604083018461235e565b60006020828403121561262b57600080fd5b8151610a5981612019565b805160208201516001600160601b031980821692919060148310156126655780818460140360031b1b83161693505b505050919050565b604081526000612680604083018561235e565b8281036020840152611b54818561235e565b81835281816020850137506000828201602090810191909152601f909101601f19169091010190565b6040815260006126cf604083018587612692565b8281036020840152611880818561235e565b600181811c908216806126f557607f821691505b6020821081036106c857634e487b7160e01b600052602260045260246000fd5b601f82111561039057600081815260208120601f850160051c8101602086101561273c5750805b601f850160051c820191505b8181101561275b57828155600101612748565b505050505050565b81516001600160401b0381111561277c5761277c61204c565b6127908161278a84546126e1565b84612715565b602080601f8311600181146127c557600084156127ad5750858301515b600019600386901b1c1916600185901b17855561275b565b600085815260208120601f198616915b828110156127f4578886015182559484019460019091019084016127d5565b50858210156128125787850151600019600388901b60f8161c191681555b5050505050600190811b01905550565b838152604060208201526000610458604083018486612692565b6000845161284e81846020890161233a565b60609490941b6001600160601b03191691909301908152601481019190915260340192915050565b6000825161288881846020870161233a565b9190910192915050565b6000602082840312156128a457600080fd5b81516001600160401b038111156128ba57600080fd5b8201601f810184136128cb57600080fd5b80516128d96120d68261213c565b8181528560208385010111156128ee57600080fd5b611b5482602083016020860161233a565b805160208083015191908110156106c85760001960209190910360031b1b16919050565b634e487b7160e01b600052601160045260246000fd5b8082018082111561041a5761041a612923565b6020808252602b908201527f496e697469616c697a61626c653a20636f6e7472616374206973206e6f74206960408201526a6e697469616c697a696e6760a81b606082015260800190565b634e487b7160e01b600052602160045260246000fd5b805160208201516001600160e01b031980821692919060048310156126655760049290920360031b82901b161692915050565b8181038181111561041a5761041a61292356fe7e71433ddf847725166244795048ecf3e3f9f35628254ecbf736056664233493a264697066735822122047970a28d5ffac41825b8a0310a2dce25041b3345d0679796eaa7134ca71533c64736f6c63430008110033",
    "linkReferences": {}
  },
  "methodIdentifiers": {
    "acceptOwnership()": "79ba5097",
    "execute(uint256,address,uint256,bytes)": "44c028fe",
    "execute(uint256[],address[],uint256[],bytes[])": "13ced88d",
    "getData(bytes32)": "54f6127f",
    "getData(bytes32[])": "4e3e6e9c",
    "initialize(address)": "c4d66de8",
    "isValidSignature(bytes32,bytes)": "1626ba7e",
    "owner()": "8da5cb5b",
    "pendingOwner()": "e30c3978",
    "renounceOwnership()": "715018a6",
    "setData(bytes32,bytes)": "7f23690c",
    "setData(bytes32[],bytes[])": "14a6e293",
    "supportsInterface(bytes4)": "01ffc9a7",
    "transferOwnership(address)": "f2fde38b",
    "universalReceiver(bytes32,bytes)": "6bb56a14"
  },
  "id": 154
}