{
  "abi": [
    {
      "inputs": [
        {
          "internalType": "uint256",
          "name": "dataKeysLength",
          "type": "uint256"
        },
        {
          "internalType": "uint256",
          "name": "dataValuesLength",
          "type": "uint256"
        }
      ],
      "name": "ERC725Y_DataKeysValuesLengthMismatch",
      "type": "error"
    },
    {
      "inputs": [],
      "name": "LSP4TokenNameNotEditable",
      "type": "error"
    },
    {
      "inputs": [],
      "name": "LSP4TokenSymbolNotEditable",
      "type": "error"
    },
    {
      "inputs": [
        {
          "internalType": "address",
          "name": "tokenOwner",
          "type": "address"
        },
        {
          "internalType": "uint256",
          "name": "authorizedAmount",
          "type": "uint256"
        },
        {
          "internalType": "address",
          "name": "operator",
          "type": "address"
        },
        {
          "internalType": "uint256",
          "name": "amount",
          "type": "uint256"
        }
      ],
      "name": "LSP7AmountExceedsAuthorizedAmount",
      "type": "error"
    },
    {
      "inputs": [
        {
          "internalType": "uint256",
          "name": "balance",
          "type": "uint256"
        },
        {
          "internalType": "address",
          "name": "tokenOwner",
          "type": "address"
        },
        {
          "internalType": "uint256",
          "name": "amount",
          "type": "uint256"
        }
      ],
      "name": "LSP7AmountExceedsBalance",
      "type": "error"
    },
    {
      "inputs": [],
      "name": "LSP7CannotSendToSelf",
      "type": "error"
    },
    {
      "inputs": [],
      "name": "LSP7CannotSendWithAddressZero",
      "type": "error"
    },
    {
      "inputs": [],
      "name": "LSP7CannotUseAddressZeroAsOperator",
      "type": "error"
    },
    {
      "inputs": [],
      "name": "LSP7InvalidTransferBatch",
      "type": "error"
    },
    {
      "inputs": [
        {
          "internalType": "address",
          "name": "tokenReceiver",
          "type": "address"
        }
      ],
      "name": "LSP7NotifyTokenReceiverContractMissingLSP1Interface",
      "type": "error"
    },
    {
      "inputs": [
        {
          "internalType": "address",
          "name": "tokenReceiver",
          "type": "address"
        }
      ],
      "name": "LSP7NotifyTokenReceiverIsEOA",
      "type": "error"
    },
    {
      "anonymous": false,
      "inputs": [
        {
          "indexed": true,
          "internalType": "address",
          "name": "operator",
          "type": "address"
        },
        {
          "indexed": true,
          "internalType": "address",
          "name": "tokenOwner",
          "type": "address"
        },
        {
          "indexed": true,
          "internalType": "uint256",
          "name": "amount",
          "type": "uint256"
        }
      ],
      "name": "AuthorizedOperator",
      "type": "event"
    },
    {
      "anonymous": false,
      "inputs": [
        {
          "indexed": true,
          "internalType": "bytes32",
          "name": "dataKey",
          "type": "bytes32"
        },
        {
          "indexed": false,
          "internalType": "bytes",
          "name": "dataValue",
          "type": "bytes"
        }
      ],
      "name": "DataChanged",
      "type": "event"
    },
    {
      "anonymous": false,
      "inputs": [
        {
          "indexed": false,
          "internalType": "uint8",
          "name": "version",
          "type": "uint8"
        }
      ],
      "name": "Initialized",
      "type": "event"
    },
    {
      "anonymous": false,
      "inputs": [
        {
          "indexed": true,
          "internalType": "address",
          "name": "previousOwner",
          "type": "address"
        },
        {
          "indexed": true,
          "internalType": "address",
          "name": "newOwner",
          "type": "address"
        }
      ],
      "name": "OwnershipTransferred",
      "type": "event"
    },
    {
      "anonymous": false,
      "inputs": [
        {
          "indexed": true,
          "internalType": "address",
          "name": "operator",
          "type": "address"
        },
        {
          "indexed": true,
          "internalType": "address",
          "name": "tokenOwner",
          "type": "address"
        }
      ],
      "name": "RevokedOperator",
      "type": "event"
    },
    {
      "anonymous": false,
      "inputs": [
        {
          "indexed": true,
          "internalType": "address",
          "name": "operator",
          "type": "address"
        },
        {
          "indexed": true,
          "internalType": "address",
          "name": "from",
          "type": "address"
        },
        {
          "indexed": true,
          "internalType": "address",
          "name": "to",
          "type": "address"
        },
        {
          "indexed": false,
          "internalType": "uint256",
          "name": "amount",
          "type": "uint256"
        },
        {
          "indexed": false,
          "internalType": "bool",
          "name": "force",
          "type": "bool"
        },
        {
          "indexed": false,
          "internalType": "bytes",
          "name": "data",
          "type": "bytes"
        }
      ],
      "name": "Transfer",
      "type": "event"
    },
    {
      "inputs": [
        {
          "internalType": "address",
          "name": "operator",
          "type": "address"
        },
        {
          "internalType": "uint256",
          "name": "amount",
          "type": "uint256"
        }
      ],
      "name": "authorizeOperator",
      "outputs": [],
      "stateMutability": "nonpayable",
      "type": "function"
    },
    {
      "inputs": [
        {
          "internalType": "address",
          "name": "operator",
          "type": "address"
        },
        {
          "internalType": "address",
          "name": "tokenOwner",
          "type": "address"
        }
      ],
      "name": "authorizedAmountFor",
      "outputs": [
        {
          "internalType": "uint256",
          "name": "",
          "type": "uint256"
        }
      ],
      "stateMutability": "view",
      "type": "function"
    },
    {
      "inputs": [
        {
          "internalType": "address",
          "name": "tokenOwner",
          "type": "address"
        }
      ],
      "name": "balanceOf",
      "outputs": [
        {
          "internalType": "uint256",
          "name": "",
          "type": "uint256"
        }
      ],
      "stateMutability": "view",
      "type": "function"
    },
    {
      "inputs": [
        {
          "internalType": "address",
          "name": "from",
          "type": "address"
        },
        {
          "internalType": "uint256",
          "name": "amount",
          "type": "uint256"
        },
        {
          "internalType": "bytes",
          "name": "data",
          "type": "bytes"
        }
      ],
      "name": "burn",
      "outputs": [],
      "stateMutability": "nonpayable",
      "type": "function"
    },
    {
      "inputs": [],
      "name": "decimals",
      "outputs": [
        {
          "internalType": "uint8",
          "name": "",
          "type": "uint8"
        }
      ],
      "stateMutability": "view",
      "type": "function"
    },
    {
      "inputs": [
        {
          "internalType": "bytes32[]",
          "name": "dataKeys",
          "type": "bytes32[]"
        }
      ],
      "name": "getData",
      "outputs": [
        {
          "internalType": "bytes[]",
          "name": "dataValues",
          "type": "bytes[]"
        }
      ],
      "stateMutability": "view",
      "type": "function"
    },
    {
      "inputs": [
        {
          "internalType": "bytes32",
          "name": "dataKey",
          "type": "bytes32"
        }
      ],
      "name": "getData",
      "outputs": [
        {
          "internalType": "bytes",
          "name": "dataValue",
          "type": "bytes"
        }
      ],
      "stateMutability": "view",
      "type": "function"
    },
    {
      "inputs": [
        {
          "internalType": "string",
          "name": "tokenName_",
          "type": "string"
        },
        {
          "internalType": "string",
          "name": "tokenSymbol_",
          "type": "string"
        },
        {
          "internalType": "address",
          "name": "newOwner_",
          "type": "address"
        },
        {
          "internalType": "bool",
          "name": "isNonDivisible_",
          "type": "bool"
        }
      ],
      "name": "initialize",
      "outputs": [],
      "stateMutability": "nonpayable",
      "type": "function"
    },
    {
      "inputs": [
        {
          "internalType": "address",
          "name": "to",
          "type": "address"
        },
        {
          "internalType": "uint256",
          "name": "amount",
          "type": "uint256"
        },
        {
          "internalType": "bool",
          "name": "force",
          "type": "bool"
        },
        {
          "internalType": "bytes",
          "name": "data",
          "type": "bytes"
        }
      ],
      "name": "mint",
      "outputs": [],
      "stateMutability": "nonpayable",
      "type": "function"
    },
    {
      "inputs": [],
      "name": "owner",
      "outputs": [
        {
          "internalType": "address",
          "name": "",
          "type": "address"
        }
      ],
      "stateMutability": "view",
      "type": "function"
    },
    {
      "inputs": [],
      "name": "renounceOwnership",
      "outputs": [],
      "stateMutability": "nonpayable",
      "type": "function"
    },
    {
      "inputs": [
        {
          "internalType": "address",
          "name": "operator",
          "type": "address"
        }
      ],
      "name": "revokeOperator",
      "outputs": [],
      "stateMutability": "nonpayable",
      "type": "function"
    },
    {
      "inputs": [
        {
          "internalType": "bytes32[]",
          "name": "dataKeys",
          "type": "bytes32[]"
        },
        {
          "internalType": "bytes[]",
          "name": "dataValues",
          "type": "bytes[]"
        }
      ],
      "name": "setData",
      "outputs": [],
      "stateMutability": "nonpayable",
      "type": "function"
    },
    {
      "inputs": [
        {
          "internalType": "bytes32",
          "name": "dataKey",
          "type": "bytes32"
        },
        {
          "internalType": "bytes",
          "name": "dataValue",
          "type": "bytes"
        }
      ],
      "name": "setData",
      "outputs": [],
      "stateMutability": "nonpayable",
      "type": "function"
    },
    {
      "inputs": [
        {
          "internalType": "bytes4",
          "name": "interfaceId",
          "type": "bytes4"
        }
      ],
      "name": "supportsInterface",
      "outputs": [
        {
          "internalType": "bool",
          "name": "",
          "type": "bool"
        }
      ],
      "stateMutability": "view",
      "type": "function"
    },
    {
      "inputs": [],
      "name": "totalSupply",
      "outputs": [
        {
          "internalType": "uint256",
          "name": "",
          "type": "uint256"
        }
      ],
      "stateMutability": "view",
      "type": "function"
    },
    {
      "inputs": [
        {
          "internalType": "address",
          "name": "from",
          "type": "address"
        },
        {
          "internalType": "address",
          "name": "to",
          "type": "address"
        },
        {
          "internalType": "uint256",
          "name": "amount",
          "type": "uint256"
        },
        {
          "internalType": "bool",
          "name": "force",
          "type": "bool"
        },
        {
          "internalType": "bytes",
          "name": "data",
          "type": "bytes"
        }
      ],
      "name": "transfer",
      "outputs": [],
      "stateMutability": "nonpayable",
      "type": "function"
    },
    {
      "inputs": [
        {
          "internalType": "address[]",
          "name": "from",
          "type": "address[]"
        },
        {
          "internalType": "address[]",
          "name": "to",
          "type": "address[]"
        },
        {
          "internalType": "uint256[]",
          "name": "amount",
          "type": "uint256[]"
        },
        {
          "internalType": "bool[]",
          "name": "force",
          "type": "bool[]"
        },
        {
          "internalType": "bytes[]",
          "name": "data",
          "type": "bytes[]"
        }
      ],
      "name": "transferBatch",
      "outputs": [],
      "stateMutability": "nonpayable",
      "type": "function"
    },
    {
      "inputs": [
        {
          "internalType": "address",
          "name": "newOwner",
          "type": "address"
        }
      ],
      "name": "transferOwnership",
      "outputs": [],
      "stateMutability": "nonpayable",
      "type": "function"
    }
  ],
  "bytecode": {
    "object": "0x608060405234801561001057600080fd5b5061200a806100206000396000f3fe608060405234801561001057600080fd5b50600436106101215760003560e01c80635c108a43116100ad578063760d9bba11610071578063760d9bba146102725780637f23690c146102855780638da5cb5b14610298578063f2fde38b146102c2578063fad8b32a146102d557600080fd5b80635c108a431461020857806365aeaa951461021b57806370a082311461022e578063715018a6146102575780637580d9201461025f57600080fd5b8063313ce567116100f4578063313ce5671461018857806344d17187146101a257806347980aa3146101b55780634e3e6e9c146101c857806354f6127f146101e857600080fd5b806301ffc9a71461012657806314a6e2931461014e57806318160ddd146101635780632d7667c914610175575b600080fd5b610139610134366004611567565b6102e8565b60405190151581526020015b60405180910390f35b61016161015c366004611763565b610313565b005b6003545b604051908152602001610145565b6101616101833660046118b6565b6103a4565b610190610493565b60405160ff9091168152602001610145565b6101616101b0366004611987565b6104ac565b6101616101c33660046119dd565b6104b7565b6101db6101d6366004611a07565b6104c6565b6040516101459190611a93565b6101fb6101f6366004611af5565b610579565b6040516101459190611b0e565b610161610216366004611b21565b610584565b610167610229366004611ba5565b61069d565b61016761023c366004611bd8565b6001600160a01b031660009081526004602052604090205490565b610161610704565b61016161026d366004611bf3565b610718565b610161610280366004611c5a565b61072a565b610161610293366004611cc5565b6107ff565b6000546201000090046001600160a01b03166040516001600160a01b039091168152602001610145565b6101616102d0366004611bd8565b610811565b6101616102e3366004611bd8565b61088a565b60006001600160e01b03198216633687e17960e21b148061030d575061030d82610896565b92915050565b61031b6108cb565b805182511461034f57815181516040516321d1e13360e11b8152600481019290925260248201526044015b60405180910390fd5b60005b825181101561039f5761039783828151811061037057610370611d01565b602002602001015183838151811061038a5761038a611d01565b602002602001015161092c565b600101610352565b505050565b84518451811415806103b7575083518114155b806103c3575082518114155b806103cf575081518114155b156103ed5760405163263eee8d60e01b815260040160405180910390fd5b60005b8181101561048a5761048287828151811061040d5761040d611d01565b602002602001015187838151811061042757610427611d01565b602002602001015187848151811061044157610441611d01565b602002602001015187858151811061045b5761045b611d01565b602002602001015187868151811061047557610475611d01565b602002602001015161072a565b6001016103f0565b50505050505050565b60025460009060ff166104a65750601290565b50600090565b61039f838383610a20565b6104c2338383610bff565b5050565b606081516001600160401b038111156104e1576104e1611598565b60405190808252806020026020018201604052801561051457816020015b60608152602001906001900390816104ff5790505b50905060005b82518110156105735761054583828151811061053857610538611d01565b6020026020010151610cfd565b82828151811061055757610557611d01565b602002602001018190525061056c8160010190565b905061051a565b50919050565b606061030d82610cfd565b600054610100900460ff16158080156105a45750600054600160ff909116105b806105be5750303b1580156105be575060005460ff166001145b6106215760405162461bcd60e51b815260206004820152602e60248201527f496e697469616c697a61626c653a20636f6e747261637420697320616c72656160448201526d191e481a5b9a5d1a585b1a5e995960921b6064820152608401610346565b6000805460ff191660011790558015610644576000805461ff0019166101001790555b61065085858585610d9f565b8015610696576000805461ff0019169055604051600181527f7f26b83ff96e1f2b6a682f133852f6798a09c465da95921460cefb38474024989060200160405180910390a15b5050505050565b6000826001600160a01b0316826001600160a01b0316036106d757506001600160a01b03811660009081526004602052604090205461030d565b506001600160a01b0380821660009081526005602090815260408083209386168352929052205492915050565b61070c6108cb565b6107166000610ddf565b565b61072484848484610e55565b50505050565b836001600160a01b0316856001600160a01b03160361075b57604051620b9afb60ec1b815260040160405180910390fd5b336001600160a01b03861681146107ea576001600160a01b03808716600090815260056020908152604080832093851683529290522054808511156107d45760405163f3a6b69160e01b81526001600160a01b038089166004830152602482018390528316604482015260648101869052608401610346565b6107e887836107e38885611d2d565b610bff565b505b6107f78686868686610f2b565b505050505050565b6108076108cb565b6104c2828261092c565b6108196108cb565b6001600160a01b03811661087e5760405162461bcd60e51b815260206004820152602660248201527f4f776e61626c653a206e6577206f776e657220697320746865207a65726f206160448201526564647265737360d01b6064820152608401610346565b61088781610ddf565b50565b61088733826000610bff565b60006001600160e01b03198216631c537ddf60e21b148061030d57506301ffc9a760e01b6001600160e01b031983161461030d565b6000546001600160a01b03620100009091041633146107165760405162461bcd60e51b815260206004820181905260248201527f4f776e61626c653a2063616c6c6572206973206e6f7420746865206f776e65726044820152606401610346565b7f2145e1d6d074577dc71ef54c3807742b41b053a9352ae6b491331509acb9750f820161096c576040516385c169bd60e01b815260040160405180910390fd5b7fd0f59754f88971fe6bc5a6618cc9d5f1e859c58d16b22d1c7b2d3e2b246cd8aa82016109ac57604051630eceab6760e31b815260040160405180910390fd5b60008281526001602052604090206109c48282611dba565b50817fece574603820d07bc9b91f2a932baadf4628aabcb8afba49776529c14a6104b261010083511115610a0557610a00836000610100611088565b610a07565b825b604051610a149190611b0e565b60405180910390a25050565b6001600160a01b038316610a4757604051630d2d5ec360e41b815260040160405180910390fd5b6001600160a01b03831660009081526004602052604090205480831115610a9a576040516308d4794960e01b8152600481018290526001600160a01b038516602482015260448101849052606401610346565b336001600160a01b0385168114610b51576001600160a01b0380861660009081526005602090815260408083209385168352929052205480851115610b135760405163f3a6b69160e01b81526001600160a01b038088166004830152602482018390528316604482015260648101869052608401610346565b6001600160a01b03808716600090815260056020908152604080832093861683529290529081208054879290610b4a908490611d2d565b9091555050505b8360036000828254610b639190611d2d565b90915550506001600160a01b03851660009081526004602052604081208054869290610b90908490611d2d565b9250508190555060006001600160a01b0316856001600160a01b0316826001600160a01b03167f3997e418d2cef0b3b0e907b1e39605c3f7d32dbd061e82ea5b4a770d46a160a687600088604051610bea93929190611e79565b60405180910390a46106968560008686611195565b6001600160a01b038216610c26576040516331aaf3b360e11b815260040160405180910390fd5b826001600160a01b0316826001600160a01b031603610c4457505050565b6001600160a01b0380841660009081526005602090815260408083209386168352929052208190558015610cb85780836001600160a01b0316836001600160a01b03167fd66aff874162a96578e919097b6f6d153dfd89a5cec41bb331fdb0c4aec16e2c60405160405180910390a4505050565b826001600160a01b0316826001600160a01b03167f50546e66e5f44d728365dc3908c63bc5cfeeab470722c1677e3073a6ac294aa160405160405180910390a3505050565b6000818152600160205260409020805460609190610d1a90611d40565b80601f0160208091040260200160405190810160405280929190818152602001828054610d4690611d40565b8015610d935780601f10610d6857610100808354040283529160200191610d93565b820191906000526020600020905b815481529060010190602001808311610d7657829003601f168201915b50505050509050919050565b600054610100900460ff16610dc65760405162461bcd60e51b815260040161034690611ea3565b6002805460ff1916821515179055610724848484611269565b6000546001600160a01b0382811662010000909204161461088757600080546001600160a01b038381166201000081810262010000600160b01b0319851617855560405193049190911692909183917f8be0079c531659141344cd1fd0a4f28419497f9722a3daafe3b4186f6b6457e091a35050565b6001600160a01b038416610e7c57604051630d2d5ec360e41b815260040160405180910390fd5b338360036000828254610e8f9190611eee565b90915550506001600160a01b03851660009081526004602052604081208054869290610ebc908490611eee565b92505081905550846001600160a01b031660006001600160a01b0316826001600160a01b03167f3997e418d2cef0b3b0e907b1e39605c3f7d32dbd061e82ea5b4a770d46a160a6878787604051610f1593929190611e79565b60405180910390a4610696600086868686611336565b6001600160a01b0385161580610f4857506001600160a01b038416155b15610f6657604051630d2d5ec360e41b815260040160405180910390fd5b6001600160a01b03851660009081526004602052604090205480841115610fb9576040516308d4794960e01b8152600481018290526001600160a01b038716602482015260448101859052606401610346565b336001600160a01b03871660009081526004602052604081208054879290610fe2908490611d2d565b90915550506001600160a01b0386166000908152600460205260408120805487929061100f908490611eee565b92505081905550856001600160a01b0316876001600160a01b0316826001600160a01b03167f3997e418d2cef0b3b0e907b1e39605c3f7d32dbd061e82ea5b4a770d46a160a688888860405161106793929190611e79565b60405180910390a461107b87878786611195565b61048a8787878787611336565b60608161109681601f611eee565b10156110d55760405162461bcd60e51b815260206004820152600e60248201526d736c6963655f6f766572666c6f7760901b6044820152606401610346565b6110df8284611eee565b845110156111235760405162461bcd60e51b8152602060048201526011602482015270736c6963655f6f75744f66426f756e647360781b6044820152606401610346565b606082158015611142576040519150600082526020820160405261118c565b6040519150601f8416801560200281840101858101878315602002848b0101015b8183101561117b578051835260209283019201611163565b5050858452601f01601f1916604052505b50949350505050565b6111a684631aed5a8560e21b61146e565b15610724576000848484846040516020016111c49493929190611f01565b60408051601f1981840301815290829052631aed5a8560e21b825291506001600160a01b03861690636bb56a1490611222907f429ac7a06903dbc9c13dfcb3c9d11df8194581fa047c96d7a4171fc7402958ea908590600401611f4e565b6000604051808303816000875af1158015611241573d6000803e3d6000fd5b505050506040513d6000823e601f3d908101601f191682016040526107f79190810190611f67565b600054610100900460ff166112905760405162461bcd60e51b815260040161034690611ea3565b611299816114f7565b6112e27feafec4d89fa9619884b60000a4d96624a38f7ac2d8d9a604ecf07c12c77e480c60001b604051806040016040528060048152602001632936598960e21b81525061151e565b61130c7fdeba1e292f8ba88238e10ab3c7f88bd4be4fac56cad5194b6ecceaf653468af18461151e565b61039f7f2f0a68ab07768e01943a599e73362a0e17a63a72e94dd2e384d2c1d4db9327568361151e565b61134784631aed5a8560e21b61146e565b15611411576000858585846040516020016113659493929190611f01565b60408051601f1981840301815290829052631aed5a8560e21b825291506001600160a01b03861690636bb56a14906113c3907f20804611b3e2ea21c480dc465142210acf4a2485947541770ec1fb87dee4a55c908590600401611f4e565b6000604051808303816000875af11580156113e2573d6000803e3d6000fd5b505050506040513d6000823e601f3d908101601f1916820160405261140a9190810190611f67565b5050610696565b81610696576001600160a01b0384163b1561144a576040516353047ddb60e11b81526001600160a01b0385166004820152602401610346565b6040516309b091fd60e21b81526001600160a01b0385166004820152602401610346565b604080516001600160e01b03198316602480830191909152825180830390910181526044909101909152602080820180516001600160e01b03166301ffc9a760e01b178152825160009392849283928392918391908a617530fa92503d915060005190508280156114e0575060208210155b80156114ec5750600081115b979650505050505050565b600054610100900460ff166108195760405162461bcd60e51b815260040161034690611ea3565b60008281526001602052604090206115368282611dba565b50817fece574603820d07bc9b91f2a932baadf4628aabcb8afba49776529c14a6104b282604051610a149190611b0e565b60006020828403121561157957600080fd5b81356001600160e01b03198116811461159157600080fd5b9392505050565b634e487b7160e01b600052604160045260246000fd5b604051601f8201601f191681016001600160401b03811182821017156115d6576115d6611598565b604052919050565b60006001600160401b038211156115f7576115f7611598565b5060051b60200190565b600082601f83011261161257600080fd5b81356020611627611622836115de565b6115ae565b82815260059290921b8401810191818101908684111561164657600080fd5b8286015b84811015611661578035835291830191830161164a565b509695505050505050565b60006001600160401b0382111561168557611685611598565b50601f01601f191660200190565b600082601f8301126116a457600080fd5b81356116b26116228261166c565b8181528460208386010111156116c757600080fd5b816020850160208301376000918101602001919091529392505050565b600082601f8301126116f557600080fd5b81356020611705611622836115de565b82815260059290921b8401810191818101908684111561172457600080fd5b8286015b848110156116615780356001600160401b038111156117475760008081fd5b6117558986838b0101611693565b845250918301918301611728565b6000806040838503121561177657600080fd5b82356001600160401b038082111561178d57600080fd5b61179986838701611601565b935060208501359150808211156117af57600080fd5b506117bc858286016116e4565b9150509250929050565b80356001600160a01b03811681146117dd57600080fd5b919050565b600082601f8301126117f357600080fd5b81356020611803611622836115de565b82815260059290921b8401810191818101908684111561182257600080fd5b8286015b8481101561166157611837816117c6565b8352918301918301611826565b803580151581146117dd57600080fd5b600082601f83011261186557600080fd5b81356020611875611622836115de565b82815260059290921b8401810191818101908684111561189457600080fd5b8286015b84811015611661576118a981611844565b8352918301918301611898565b600080600080600060a086880312156118ce57600080fd5b85356001600160401b03808211156118e557600080fd5b6118f189838a016117e2565b9650602088013591508082111561190757600080fd5b61191389838a016117e2565b9550604088013591508082111561192957600080fd5b61193589838a01611601565b9450606088013591508082111561194b57600080fd5b61195789838a01611854565b9350608088013591508082111561196d57600080fd5b5061197a888289016116e4565b9150509295509295909350565b60008060006060848603121561199c57600080fd5b6119a5846117c6565b92506020840135915060408401356001600160401b038111156119c757600080fd5b6119d386828701611693565b9150509250925092565b600080604083850312156119f057600080fd5b6119f9836117c6565b946020939093013593505050565b600060208284031215611a1957600080fd5b81356001600160401b03811115611a2f57600080fd5b611a3b84828501611601565b949350505050565b60005b83811015611a5e578181015183820152602001611a46565b50506000910152565b60008151808452611a7f816020860160208601611a43565b601f01601f19169290920160200192915050565b6000602080830181845280855180835260408601915060408160051b870101925083870160005b82811015611ae857603f19888603018452611ad6858351611a67565b94509285019290850190600101611aba565b5092979650505050505050565b600060208284031215611b0757600080fd5b5035919050565b6020815260006115916020830184611a67565b60008060008060808587031215611b3757600080fd5b84356001600160401b0380821115611b4e57600080fd5b611b5a88838901611693565b95506020870135915080821115611b7057600080fd5b50611b7d87828801611693565b935050611b8c604086016117c6565b9150611b9a60608601611844565b905092959194509250565b60008060408385031215611bb857600080fd5b611bc1836117c6565b9150611bcf602084016117c6565b90509250929050565b600060208284031215611bea57600080fd5b611591826117c6565b60008060008060808587031215611c0957600080fd5b611c12856117c6565b935060208501359250611c2760408601611844565b915060608501356001600160401b03811115611c4257600080fd5b611c4e87828801611693565b91505092959194509250565b600080600080600060a08688031215611c7257600080fd5b611c7b866117c6565b9450611c89602087016117c6565b935060408601359250611c9e60608701611844565b915060808601356001600160401b03811115611cb957600080fd5b61197a88828901611693565b60008060408385031215611cd857600080fd5b8235915060208301356001600160401b03811115611cf557600080fd5b6117bc85828601611693565b634e487b7160e01b600052603260045260246000fd5b634e487b7160e01b600052601160045260246000fd5b8181038181111561030d5761030d611d17565b600181811c90821680611d5457607f821691505b60208210810361057357634e487b7160e01b600052602260045260246000fd5b601f82111561039f57600081815260208120601f850160051c81016020861015611d9b5750805b601f850160051c820191505b818110156107f757828155600101611da7565b81516001600160401b03811115611dd357611dd3611598565b611de781611de18454611d40565b84611d74565b602080601f831160018114611e1c5760008415611e045750858301515b600019600386901b1c1916600185901b1785556107f7565b600085815260208120601f198616915b82811015611e4b57888601518255948401946001909101908401611e2c565b5085821015611e695787850151600019600388901b60f8161c191681555b5050505050600190811b01905550565b8381528215156020820152606060408201526000611e9a6060830184611a67565b95945050505050565b6020808252602b908201527f496e697469616c697a61626c653a20636f6e7472616374206973206e6f74206960408201526a6e697469616c697a696e6760a81b606082015260800190565b8082018082111561030d5761030d611d17565b60006bffffffffffffffffffffffff19808760601b168352808660601b166014840152508360288301528251611f3e816048850160208701611a43565b9190910160480195945050505050565b828152604060208201526000611a3b6040830184611a67565b600060208284031215611f7957600080fd5b81516001600160401b03811115611f8f57600080fd5b8201601f81018413611fa057600080fd5b8051611fae6116228261166c565b818152856020838501011115611fc357600080fd5b611e9a826020830160208601611a4356fea26469706673582212209a49827add2e12c768111a0919fe33b1d0e061de991436e24cca4c72d51f600c64736f6c63430008110033",
    "linkReferences": {}
  },
  "methodIdentifiers": {
    "authorizeOperator(address,uint256)": "47980aa3",
    "authorizedAmountFor(address,address)": "65aeaa95",
    "balanceOf(address)": "70a08231",
    "burn(address,uint256,bytes)": "44d17187",
    "decimals()": "313ce567",
    "getData(bytes32)": "54f6127f",
    "getData(bytes32[])": "4e3e6e9c",
    "initialize(string,string,address,bool)": "5c108a43",
    "mint(address,uint256,bool,bytes)": "7580d920",
    "owner()": "8da5cb5b",
    "renounceOwnership()": "715018a6",
    "revokeOperator(address)": "fad8b32a",
    "setData(bytes32,bytes)": "7f23690c",
    "setData(bytes32[],bytes[])": "14a6e293",
    "supportsInterface(bytes4)": "01ffc9a7",
    "totalSupply()": "18160ddd",
    "transfer(address,address,uint256,bool,bytes)": "760d9bba",
    "transferBatch(address[],address[],uint256[],bool[],bytes[])": "2d7667c9",
    "transferOwnership(address)": "f2fde38b"
  },
  "id": 132
}