{
  "abi": [
    {
      "inputs": [],
      "stateMutability": "nonpayable",
      "type": "constructor"
    },
    {
      "inputs": [
        {
          "internalType": "bytes4",
          "name": "interfaceId",
          "type": "bytes4"
        }
      ],
      "name": "supportsInterface",
      "outputs": [
        {
          "internalType": "bool",
          "name": "",
          "type": "bool"
        }
      ],
      "stateMutability": "view",
      "type": "function"
    },
    {
      "inputs": [
        {
          "internalType": "address",
          "name": "vaultadd",
          "type": "address"
        },
        {
          "internalType": "bytes32",
          "name": "key",
          "type": "bytes32"
        },
        {
          "internalType": "bytes",
          "name": "value",
          "type": "bytes"
        }
      ],
      "name": "universalReceiver",
      "outputs": [],
      "stateMutability": "nonpayable",
      "type": "function"
    }
  ],
  "bytecode": {
    "object": "0x608060405234801561001057600080fd5b50610021631aed5a8560e21b610026565b6100a9565b6001600160e01b031980821690036100845760405162461bcd60e51b815260206004820152601c60248201527f4552433136353a20696e76616c696420696e7465726661636520696400000000604482015260640160405180910390fd5b6001600160e01b0319166000908152602081905260409020805460ff19166001179055565b6103e1806100b86000396000f3fe608060405234801561001057600080fd5b50600436106100365760003560e01c806301ffc9a71461003b57806324dba33c14610062575b600080fd5b61004e6100493660046101ae565b610077565b604051901515815260200160405180910390f35b6100756100703660046101f5565b6100b7565b005b60006301ffc9a760e01b6001600160e01b0319831614806100b157506001600160e01b0319821660009081526020819052604090205460ff165b92915050565b6040805160018082528183019092526000916020808301908036833750506040805160018082528183019092529293506000929150602082015b60608152602001906001900390816100f1579050509050838260008151811061011c5761011c6102ce565b602002602001018181525050828160008151811061013c5761013c6102ce565b60209081029190910101526040516314a6e29360e01b81526001600160a01b038616906314a6e2939061017590859085906004016102e4565b600060405180830381600087803b15801561018f57600080fd5b505af11580156101a3573d6000803e3d6000fd5b505050505050505050565b6000602082840312156101c057600080fd5b81356001600160e01b0319811681146101d857600080fd5b9392505050565b634e487b7160e01b600052604160045260246000fd5b60008060006060848603121561020a57600080fd5b83356001600160a01b038116811461022157600080fd5b925060208401359150604084013567ffffffffffffffff8082111561024557600080fd5b818601915086601f83011261025957600080fd5b81358181111561026b5761026b6101df565b604051601f8201601f19908116603f01168101908382118183101715610293576102936101df565b816040528281528960208487010111156102ac57600080fd5b8260208601602083013760006020848301015280955050505050509250925092565b634e487b7160e01b600052603260045260246000fd5b604080825283519082018190526000906020906060840190828701845b8281101561031d57815184529284019290840190600101610301565b50505083810382850152845180825282820190600581901b8301840187850160005b8381101561039c57601f19808785030186528251805180865260005b81811015610376578281018b01518782018c01528a0161035b565b5060008682018b015296890196601f01909116909301870192509086019060010161033f565b5090999850505050505050505056fea2646970667358221220fd4d6319c2eed8e893ad2bf5c536ca484d69233339698a308bed3ba391b29fbc64736f6c63430008110033",
    "linkReferences": {}
  },
  "methodIdentifiers": {
    "supportsInterface(bytes4)": "01ffc9a7",
    "universalReceiver(address,bytes32,bytes)": "24dba33c"
  },
  "id": 151
}