{
  "abi": [
    {
      "inputs": [
        {
          "internalType": "address",
          "name": "_account",
          "type": "address"
        }
      ],
      "stateMutability": "nonpayable",
      "type": "constructor"
    },
    {
      "inputs": [],
      "name": "account",
      "outputs": [
        {
          "internalType": "address",
          "name": "",
          "type": "address"
        }
      ],
      "stateMutability": "view",
      "type": "function"
    },
    {
      "inputs": [
        {
          "internalType": "address",
          "name": "_address",
          "type": "address"
        }
      ],
      "name": "addAddress",
      "outputs": [
        {
          "internalType": "bool",
          "name": "",
          "type": "bool"
        }
      ],
      "stateMutability": "nonpayable",
      "type": "function"
    },
    {
      "inputs": [
        {
          "internalType": "address",
          "name": "_address",
          "type": "address"
        }
      ],
      "name": "containsAddress",
      "outputs": [
        {
          "internalType": "bool",
          "name": "",
          "type": "bool"
        }
      ],
      "stateMutability": "view",
      "type": "function"
    },
    {
      "inputs": [
        {
          "internalType": "uint256",
          "name": "_index",
          "type": "uint256"
        }
      ],
      "name": "getAddress",
      "outputs": [
        {
          "internalType": "address",
          "name": "",
          "type": "address"
        }
      ],
      "stateMutability": "view",
      "type": "function"
    },
    {
      "inputs": [],
      "name": "getAllRawValues",
      "outputs": [
        {
          "internalType": "bytes32[]",
          "name": "",
          "type": "bytes32[]"
        }
      ],
      "stateMutability": "view",
      "type": "function"
    },
    {
      "inputs": [
        {
          "internalType": "address",
          "name": "_address",
          "type": "address"
        }
      ],
      "name": "getIndex",
      "outputs": [
        {
          "internalType": "uint256",
          "name": "",
          "type": "uint256"
        }
      ],
      "stateMutability": "view",
      "type": "function"
    },
    {
      "inputs": [],
      "name": "length",
      "outputs": [
        {
          "internalType": "uint256",
          "name": "",
          "type": "uint256"
        }
      ],
      "stateMutability": "view",
      "type": "function"
    },
    {
      "inputs": [
        {
          "internalType": "address",
          "name": "_address",
          "type": "address"
        }
      ],
      "name": "removeAddress",
      "outputs": [
        {
          "internalType": "bool",
          "name": "",
          "type": "bool"
        }
      ],
      "stateMutability": "nonpayable",
      "type": "function"
    },
    {
      "inputs": [
        {
          "internalType": "bytes4",
          "name": "interfaceId",
          "type": "bytes4"
        }
      ],
      "name": "supportsInterface",
      "outputs": [
        {
          "internalType": "bool",
          "name": "",
          "type": "bool"
        }
      ],
      "stateMutability": "view",
      "type": "function"
    },
    {
      "inputs": [
        {
          "internalType": "address",
          "name": "sender",
          "type": "address"
        },
        {
          "internalType": "uint256",
          "name": "",
          "type": "uint256"
        },
        {
          "internalType": "bytes32",
          "name": "typeId",
          "type": "bytes32"
        },
        {
          "internalType": "bytes",
          "name": "",
          "type": "bytes"
        }
      ],
      "name": "universalReceiverDelegate",
      "outputs": [
        {
          "internalType": "bytes",
          "name": "",
          "type": "bytes"
        }
      ],
      "stateMutability": "nonpayable",
      "type": "function"
    }
  ],
  "bytecode": {
    "object": "0x608060405234801561001057600080fd5b5060405161099738038061099783398101604081905261002f916100e3565b600380546001600160a01b0319166001600160a01b03831617905561005a635122dded60e11b610060565b50610113565b6001600160e01b031980821690036100be5760405162461bcd60e51b815260206004820152601c60248201527f4552433136353a20696e76616c696420696e7465726661636520696400000000604482015260640160405180910390fd5b6001600160e01b0319166000908152602081905260409020805460ff19166001179055565b6000602082840312156100f557600080fd5b81516001600160a01b038116811461010c57600080fd5b9392505050565b610875806101226000396000f3fe608060405234801561001057600080fd5b506004361061009e5760003560e01c80635dab2420116100665780635dab24201461011a578063a245bbda14610145578063b31610db14610165578063b93f9b0a14610178578063c0a4ebf41461018b57600080fd5b806301ffc9a7146100a35780631f7b6d32146100cb578063322433e3146100e157806338eada1c146100f45780634ba79dfe14610107575b600080fd5b6100b66100b13660046105b3565b6101a0565b60405190151581526020015b60405180910390f35b6100d36101e0565b6040519081526020016100c2565b6100b66100ef3660046105f4565b6101f1565b6100b66101023660046105f4565b6101fe565b6100b66101153660046105f4565b610244565b60035461012d906001600160a01b031681565b6040516001600160a01b0390911681526020016100c2565b610158610153366004610625565b61027c565b6040516100c291906106fa565b6100d36101733660046105f4565b610300565b61012d610186366004610748565b61037e565b61019361038b565b6040516100c29190610761565b60006301ffc9a760e01b6001600160e01b0319831614806101da57506001600160e01b0319821660009081526020819052604090205460ff165b92915050565b60006101ec60016103e2565b905090565b60006101da6001836103ec565b6003546000906001600160a01b031633146102345760405162461bcd60e51b815260040161022b906107a5565b60405180910390fd5b6101da600183610411565b919050565b6003546000906001600160a01b031633146102715760405162461bcd60e51b815260040161022b906107a5565b6101da600183610426565b6003546060906001600160a01b031633146102a95760405162461bcd60e51b815260040161022b906107a5565b7f4d7e0373ed6ab2ddabb24ba21cea65c6d8d76a4e9657ad4ceb063389d1bb3ac583016102db576102d9856101fe565b505b6040805160208101859052016040516020818303038152906040529050949350505050565b600061030d6001836103ec565b6103595760405162461bcd60e51b815260206004820152601e60248201527f456e756d657261626c655365743a20496e646578206e6f7420666f756e640000604482015260640161022b565b6001600160a01b0382166000908152600260205260409020546101da906001906107f2565b60006101da60018361043b565b6001805460408051602080840282018101909252828152606093909290918301828280156103d857602002820191906000526020600020905b8154815260200190600101908083116103c4575b5050505050905090565b60006101da825490565b6001600160a01b038116600090815260018301602052604081205415155b9392505050565b600061040a836001600160a01b038416610447565b600061040a836001600160a01b038416610496565b600061040a8383610589565b600081815260018301602052604081205461048e575081546001818101845560008481526020808220909301849055845484825282860190935260409020919091556101da565b5060006101da565b6000818152600183016020526040812054801561057f5760006104ba6001836107f2565b85549091506000906104ce906001906107f2565b90508181146105335760008660000182815481106104ee576104ee610813565b906000526020600020015490508087600001848154811061051157610511610813565b6000918252602080832090910192909255918252600188019052604090208390555b855486908061054457610544610829565b6001900381819060005260206000200160009055905585600101600086815260200190815260200160002060009055600193505050506101da565b60009150506101da565b60008260000182815481106105a0576105a0610813565b9060005260206000200154905092915050565b6000602082840312156105c557600080fd5b81356001600160e01b03198116811461040a57600080fd5b80356001600160a01b038116811461023f57600080fd5b60006020828403121561060657600080fd5b61040a826105dd565b634e487b7160e01b600052604160045260246000fd5b6000806000806080858703121561063b57600080fd5b610644856105dd565b93506020850135925060408501359150606085013567ffffffffffffffff8082111561066f57600080fd5b818701915087601f83011261068357600080fd5b8135818111156106955761069561060f565b604051601f8201601f19908116603f011681019083821181831017156106bd576106bd61060f565b816040528281528a60208487010111156106d657600080fd5b82602086016020830137600060208483010152809550505050505092959194509250565b600060208083528351808285015260005b818110156107275785810183015185820160400152820161070b565b506000604082860101526040601f19601f8301168501019250505092915050565b60006020828403121561075a57600080fd5b5035919050565b6020808252825182820181905260009190848201906040850190845b818110156107995783518352928401929184019160010161077d565b50909695505050505050565b6020808252602d908201527f4f6e6c792074686520636f6e6e6563746564206163636f756e742063616c6c2060408201526c3a3434b990333ab731ba34b7b760991b606082015260800190565b818103818111156101da57634e487b7160e01b600052601160045260246000fd5b634e487b7160e01b600052603260045260246000fd5b634e487b7160e01b600052603160045260246000fdfea2646970667358221220d44f904c17de05a8e6e2d88e4bfdd4b7caa55c0585718d48ea590aa55303ad7864736f6c63430008110033",
    "linkReferences": {}
  },
  "methodIdentifiers": {
    "account()": "5dab2420",
    "addAddress(address)": "38eada1c",
    "containsAddress(address)": "322433e3",
    "getAddress(uint256)": "b93f9b0a",
    "getAllRawValues()": "c0a4ebf4",
    "getIndex(address)": "b31610db",
    "length()": "1f7b6d32",
    "removeAddress(address)": "4ba79dfe",
    "supportsInterface(bytes4)": "01ffc9a7",
    "universalReceiverDelegate(address,uint256,bytes32,bytes)": "a245bbda"
  },
  "id": 90
}