{
  "_format": "hh-sol-artifact-1",
  "contractName": "LSP6KeyManager",
  "sourceName": "contracts/LSP6KeyManager/LSP6KeyManager.sol",
  "abi": [
    {
      "inputs": [
        {
          "internalType": "address",
          "name": "target_",
          "type": "address"
        }
      ],
      "stateMutability": "nonpayable",
      "type": "constructor"
    },
    {
      "inputs": [],
      "name": "BatchExecuteParamsLengthMismatch",
      "type": "error"
    },
    {
      "inputs": [],
      "name": "BatchExecuteRelayCallParamsLengthMismatch",
      "type": "error"
    },
    {
      "inputs": [],
      "name": "CallingKeyManagerNotAllowed",
      "type": "error"
    },
    {
      "inputs": [],
      "name": "DelegateCallDisallowedViaKeyManager",
      "type": "error"
    },
    {
      "inputs": [],
      "name": "ERC725X_ExecuteParametersEmptyArray",
      "type": "error"
    },
    {
      "inputs": [],
      "name": "ERC725X_ExecuteParametersLengthMismatch",
      "type": "error"
    },
    {
      "inputs": [],
      "name": "ERC725Y_DataKeysValuesLengthMismatch",
      "type": "error"
    },
    {
      "inputs": [
        {
          "internalType": "bytes32",
          "name": "dataKey",
          "type": "bytes32"
        },
        {
          "internalType": "bytes",
          "name": "dataValue",
          "type": "bytes"
        }
      ],
      "name": "InvalidDataValuesForDataKeys",
      "type": "error"
    },
    {
      "inputs": [
        {
          "internalType": "bytes4",
          "name": "invalidFunction",
          "type": "bytes4"
        }
      ],
      "name": "InvalidERC725Function",
      "type": "error"
    },
    {
      "inputs": [
        {
          "internalType": "bytes",
          "name": "allowedCallsValue",
          "type": "bytes"
        }
      ],
      "name": "InvalidEncodedAllowedCalls",
      "type": "error"
    },
    {
      "inputs": [
        {
          "internalType": "bytes",
          "name": "value",
          "type": "bytes"
        },
        {
          "internalType": "string",
          "name": "context",
          "type": "string"
        }
      ],
      "name": "InvalidEncodedAllowedERC725YDataKeys",
      "type": "error"
    },
    {
      "inputs": [],
      "name": "InvalidLSP6Target",
      "type": "error"
    },
    {
      "inputs": [
        {
          "internalType": "bytes",
          "name": "payload",
          "type": "bytes"
        }
      ],
      "name": "InvalidPayload",
      "type": "error"
    },
    {
      "inputs": [
        {
          "internalType": "address",
          "name": "signer",
          "type": "address"
        },
        {
          "internalType": "uint256",
          "name": "invalidNonce",
          "type": "uint256"
        },
        {
          "internalType": "bytes",
          "name": "signature",
          "type": "bytes"
        }
      ],
      "name": "InvalidRelayNonce",
      "type": "error"
    },
    {
      "inputs": [
        {
          "internalType": "address",
          "name": "from",
          "type": "address"
        }
      ],
      "name": "InvalidWhitelistedCall",
      "type": "error"
    },
    {
      "inputs": [],
      "name": "KeyManagerCannotBeSetAsExtensionForLSP20Functions",
      "type": "error"
    },
    {
      "inputs": [
        {
          "internalType": "uint256",
          "name": "totalValues",
          "type": "uint256"
        },
        {
          "internalType": "uint256",
          "name": "msgValue",
          "type": "uint256"
        }
      ],
      "name": "LSP6BatchExcessiveValueSent",
      "type": "error"
    },
    {
      "inputs": [
        {
          "internalType": "uint256",
          "name": "totalValues",
          "type": "uint256"
        },
        {
          "internalType": "uint256",
          "name": "msgValue",
          "type": "uint256"
        }
      ],
      "name": "LSP6BatchInsufficientValueSent",
      "type": "error"
    },
    {
      "inputs": [
        {
          "internalType": "address",
          "name": "from",
          "type": "address"
        }
      ],
      "name": "NoCallsAllowed",
      "type": "error"
    },
    {
      "inputs": [
        {
          "internalType": "address",
          "name": "from",
          "type": "address"
        }
      ],
      "name": "NoERC725YDataKeysAllowed",
      "type": "error"
    },
    {
      "inputs": [
        {
          "internalType": "address",
          "name": "from",
          "type": "address"
        }
      ],
      "name": "NoPermissionsSet",
      "type": "error"
    },
    {
      "inputs": [
        {
          "internalType": "address",
          "name": "from",
          "type": "address"
        },
        {
          "internalType": "address",
          "name": "to",
          "type": "address"
        },
        {
          "internalType": "bytes4",
          "name": "selector",
          "type": "bytes4"
        }
      ],
      "name": "NotAllowedCall",
      "type": "error"
    },
    {
      "inputs": [
        {
          "internalType": "address",
          "name": "from",
          "type": "address"
        },
        {
          "internalType": "bytes32",
          "name": "disallowedKey",
          "type": "bytes32"
        }
      ],
      "name": "NotAllowedERC725YDataKey",
      "type": "error"
    },
    {
      "inputs": [
        {
          "internalType": "address",
          "name": "from",
          "type": "address"
        },
        {
          "internalType": "string",
          "name": "permission",
          "type": "string"
        }
      ],
      "name": "NotAuthorised",
      "type": "error"
    },
    {
      "inputs": [
        {
          "internalType": "bytes32",
          "name": "dataKey",
          "type": "bytes32"
        }
      ],
      "name": "NotRecognisedPermissionKey",
      "type": "error"
    },
    {
      "inputs": [],
      "name": "RelayCallBeforeStartTime",
      "type": "error"
    },
    {
      "inputs": [],
      "name": "RelayCallExpired",
      "type": "error"
    },
    {
      "anonymous": false,
      "inputs": [
        {
          "indexed": true,
          "internalType": "address",
          "name": "signer",
          "type": "address"
        },
        {
          "indexed": true,
          "internalType": "uint256",
          "name": "value",
          "type": "uint256"
        },
        {
          "indexed": true,
          "internalType": "bytes4",
          "name": "selector",
          "type": "bytes4"
        }
      ],
      "name": "PermissionsVerified",
      "type": "event"
    },
    {
      "inputs": [
        {
          "internalType": "bytes",
          "name": "payload",
          "type": "bytes"
        }
      ],
      "name": "execute",
      "outputs": [
        {
          "internalType": "bytes",
          "name": "",
          "type": "bytes"
        }
      ],
      "stateMutability": "payable",
      "type": "function"
    },
    {
      "inputs": [
        {
          "internalType": "uint256[]",
          "name": "values",
          "type": "uint256[]"
        },
        {
          "internalType": "bytes[]",
          "name": "payloads",
          "type": "bytes[]"
        }
      ],
      "name": "executeBatch",
      "outputs": [
        {
          "internalType": "bytes[]",
          "name": "",
          "type": "bytes[]"
        }
      ],
      "stateMutability": "payable",
      "type": "function"
    },
    {
      "inputs": [
        {
          "internalType": "bytes",
          "name": "signature",
          "type": "bytes"
        },
        {
          "internalType": "uint256",
          "name": "nonce",
          "type": "uint256"
        },
        {
          "internalType": "uint256",
          "name": "validityTimestamps",
          "type": "uint256"
        },
        {
          "internalType": "bytes",
          "name": "payload",
          "type": "bytes"
        }
      ],
      "name": "executeRelayCall",
      "outputs": [
        {
          "internalType": "bytes",
          "name": "",
          "type": "bytes"
        }
      ],
      "stateMutability": "payable",
      "type": "function"
    },
    {
      "inputs": [
        {
          "internalType": "bytes[]",
          "name": "signatures",
          "type": "bytes[]"
        },
        {
          "internalType": "uint256[]",
          "name": "nonces",
          "type": "uint256[]"
        },
        {
          "internalType": "uint256[]",
          "name": "validityTimestamps",
          "type": "uint256[]"
        },
        {
          "internalType": "uint256[]",
          "name": "values",
          "type": "uint256[]"
        },
        {
          "internalType": "bytes[]",
          "name": "payloads",
          "type": "bytes[]"
        }
      ],
      "name": "executeRelayCallBatch",
      "outputs": [
        {
          "internalType": "bytes[]",
          "name": "",
          "type": "bytes[]"
        }
      ],
      "stateMutability": "payable",
      "type": "function"
    },
    {
      "inputs": [
        {
          "internalType": "address",
          "name": "from",
          "type": "address"
        },
        {
          "internalType": "uint128",
          "name": "channelId",
          "type": "uint128"
        }
      ],
      "name": "getNonce",
      "outputs": [
        {
          "internalType": "uint256",
          "name": "",
          "type": "uint256"
        }
      ],
      "stateMutability": "view",
      "type": "function"
    },
    {
      "inputs": [
        {
          "internalType": "bytes32",
          "name": "dataHash",
          "type": "bytes32"
        },
        {
          "internalType": "bytes",
          "name": "signature",
          "type": "bytes"
        }
      ],
      "name": "isValidSignature",
      "outputs": [
        {
          "internalType": "bytes4",
          "name": "returnedStatus",
          "type": "bytes4"
        }
      ],
      "stateMutability": "view",
      "type": "function"
    },
    {
      "inputs": [
        {
          "internalType": "address",
          "name": "",
          "type": "address"
        },
        {
          "internalType": "address",
          "name": "targetContract",
          "type": "address"
        },
        {
          "internalType": "address",
          "name": "caller",
          "type": "address"
        },
        {
          "internalType": "uint256",
          "name": "msgValue",
          "type": "uint256"
        },
        {
          "internalType": "bytes",
          "name": "callData",
          "type": "bytes"
        }
      ],
      "name": "lsp20VerifyCall",
      "outputs": [
        {
          "internalType": "bytes4",
          "name": "",
          "type": "bytes4"
        }
      ],
      "stateMutability": "nonpayable",
      "type": "function"
    },
    {
      "inputs": [
        {
          "internalType": "bytes32",
          "name": "",
          "type": "bytes32"
        },
        {
          "internalType": "bytes",
          "name": "",
          "type": "bytes"
        }
      ],
      "name": "lsp20VerifyCallResult",
      "outputs": [
        {
          "internalType": "bytes4",
          "name": "",
          "type": "bytes4"
        }
      ],
      "stateMutability": "nonpayable",
      "type": "function"
    },
    {
      "inputs": [
        {
          "internalType": "bytes4",
          "name": "interfaceId",
          "type": "bytes4"
        }
      ],
      "name": "supportsInterface",
      "outputs": [
        {
          "internalType": "bool",
          "name": "",
          "type": "bool"
        }
      ],
      "stateMutability": "view",
      "type": "function"
    },
    {
      "inputs": [],
      "name": "target",
      "outputs": [
        {
          "internalType": "address",
          "name": "",
          "type": "address"
        }
      ],
      "stateMutability": "view",
      "type": "function"
    },
    {
      "inputs": [],
      "name": "version",
      "outputs": [
        {
          "internalType": "string",
          "name": "",
          "type": "string"
        }
      ],
      "stateMutability": "view",
      "type": "function"
    }
  ],
  "bytecode": "0x60806040523480156200001157600080fd5b50604051620041d3380380620041d3833981016040819052620000349162000082565b6001600160a01b0381166200005c5760405163fc85457960e01b815260040160405180910390fd5b600180546001600160a01b0319166001600160a01b0392909216919091179055620000b4565b6000602082840312156200009557600080fd5b81516001600160a01b0381168114620000ad57600080fd5b9392505050565b61410f80620000c46000396000f3fe6080604052600436106100bc5760003560e01c8063a20856a511610074578063d3fc45d31161004e578063d3fc45d314610209578063d4b8399214610229578063de928f141461025157600080fd5b8063a20856a5146101a8578063b44581d9146101c8578063bf0176ff146101f657600080fd5b80631626ba7e116100a55780631626ba7e146101165780634c8a4e741461014f57806354fd4d501461016257600080fd5b806301ffc9a7146100c157806309c5eabe146100f6575b600080fd5b3480156100cd57600080fd5b506100e16100dc36600461339d565b610271565b60405190151581526020015b60405180910390f35b610109610104366004613409565b610344565b6040516100ed919061349b565b34801561012257600080fd5b50610136610131366004613573565b610358565b6040516001600160e01b031990911681526020016100ed565b61010961015d3660046135ba565b6103e1565b34801561016e57600080fd5b5060408051808201909152600681527f302e31322e3000000000000000000000000000000000000000000000000000006020820152610109565b6101bb6101b636600461372c565b6103fb565b6040516100ed9190613817565b3480156101d457600080fd5b506101e86101e336600461388e565b6105fd565b6040519081526020016100ed565b6101bb6102043660046138dc565b61064f565b34801561021557600080fd5b50610136610224366004613573565b6107d8565b34801561023557600080fd5b506001546040516001600160a01b0390911681526020016100ed565b34801561025d57600080fd5b5061013661026c366004613948565b610814565b60006001600160e01b031982167f23f34c620000000000000000000000000000000000000000000000000000000014806102bb57506001600160e01b03198216630b135d3f60e11b145b806102ef57506001600160e01b031982167f0d6ecac700000000000000000000000000000000000000000000000000000000145b8061032357506001600160e01b031982167f5ac7990800000000000000000000000000000000000000000000000000000000145b8061033e57506301ffc9a760e01b6001600160e01b03198316145b92915050565b606061035134848461097e565b9392505050565b60008060006103678585610ab1565b90925090506000816004811115610380576103806139cd565b1461039857506001600160e01b0319915061033e9050565b6001546103bd9062200000906103b7906001600160a01b031685610af6565b81161490565b6103cf576001600160e01b03196103d8565b630b135d3f60e11b5b95945050505050565b60606103f1868686348787610bb7565b9695505050505050565b88516060908814158061040e5750878614155b806104195750858414155b806104245750838214155b1561045b576040517fb4d50d2100000000000000000000000000000000000000000000000000000000815260040160405180910390fd5b60008267ffffffffffffffff811115610476576104766134ae565b6040519080825280602002602001820160405280156104a957816020015b60608152602001906001900390816104945790505b5090506000805b848110156105c357348888838181106104cb576104cb6139e3565b90506020020135836104dd9190613a0f565b925082111561050d57604051630c28c92b60e21b8152600481018390523460248201526044015b60405180910390fd5b61059e8d8281518110610522576105226139e3565b60200260200101518d8d8481811061053c5761053c6139e3565b905060200201358c8c85818110610555576105556139e3565b905060200201358b8b8681811061056e5761056e6139e3565b905060200201358a8a87818110610587576105876139e3565b90506020028101906105999190613a22565b610bb7565b8382815181106105b0576105b06139e3565b60209081029190910101526001016104b0565b50348110156105ee5760405163528c345b60e11b815260048101829052346024820152604401610504565b509a9950505050505050505050565b6001600160a01b0382166000908152602081815260408083206fffffffffffffffffffffffffffffffff85168452909152812054608083901b6fffffffffffffffffffffffffffffffff191617610351565b606083821461068a576040517f55a187db00000000000000000000000000000000000000000000000000000000815260040160405180910390fd5b60008267ffffffffffffffff8111156106a5576106a56134ae565b6040519080825280602002602001820160405280156106d857816020015b60608152602001906001900390816106c35790505b5090506000805b848110156107a157348888838181106106fa576106fa6139e3565b905060200201358361070c9190613a0f565b925082111561073757604051630c28c92b60e21b815260048101839052346024820152604401610504565b61077c88888381811061074c5761074c6139e3565b90506020020135878784818110610765576107656139e3565b90506020028101906107779190613a22565b61097e565b83828151811061078e5761078e6139e3565b60209081029190910101526001016106df565b50348110156107cc5760405163528c345b60e11b815260048101829052346024820152604401610504565b5090505b949350505050565b6001546000906001600160a01b0316330361080557336000908152600260205260409020805460ff191690555b5063d3fc45d360e01b92915050565b600080631fc8da4360e21b6108298486613a69565b6001600160e01b03191614806108585750639790242160e01b61084c8486613a69565b6001600160e01b031916145b90506001600160a01b0387163303610917576000610877888389610db5565b9050610887888860008888610e22565b6108918486613a69565b6001600160e01b03191686886001600160a01b03167fc0a62328f6bf5e3172bb1fcb2019f54b2c523b6a48e3513a2298fbf0150b781e60405160405180910390a481806108db5750805b6108ec5763de928f0160e01b61090e565b7fde928f00000000000000000000000000000000000000000000000000000000005b925050506103f1565b6001600160a01b03871660009081526002602052604090205460ff16801561095757610957876109506001600160a01b038b1682610af6565b6080611243565b610965888860008888610e22565b81806108db5750806108ec5763de928f0160e01b61090e565b606060048210156109a6578282604051630d886ef360e21b8152600401610504929190613a99565b6000631fc8da4360e21b6109ba8486613a69565b6001600160e01b03191614806109e95750639790242160e01b6109dd8486613a69565b6001600160e01b031916145b6001549091506001600160a01b03166000610a05828433610db5565b9050610a15823360008989610e22565b610a1f8587613a69565b6001600160e01b03191687336001600160a01b03167fc0a62328f6bf5e3172bb1fcb2019f54b2c523b6a48e3513a2298fbf0150b781e60405160405180910390a46000610a6e83898989611253565b905081158015610a7c575083155b15610aa657610aa6836001600160a01b03166000908152600260205260409020805460ff19169055565b979650505050505050565b6000808251604103610ae75760208301516040840151606085015160001a610adb87828585611330565b94509450505050610aef565b506000905060025b9250929050565b6000806001600160a01b0384166354f6127f610b367f4b80742de2bf82acb36300000000000000000000000000000000000000000000606087901b6113f4565b6040518263ffffffff1660e01b8152600401610b5491815260200190565b600060405180830381865afa158015610b71573d6000803e3d6000fd5b505050506040513d6000823e601f3d908101601f19168201604052610b999190810190613ac8565b90508051602014610bae57506000905061033e565b6107d081613b36565b60606004821015610bdf578282604051630d886ef360e21b8152600401610504929190613a99565b6001546001600160a01b03166000610bfb89898989898961145d565b6001600160a01b03811660009081526020818152604080832060808d901c84529091529020549091506fffffffffffffffffffffffffffffffff891614610c745780888a6040517fc9bd9eb900000000000000000000000000000000000000000000000000000000815260040161050493929190613b5d565b6001600160a01b03811660009081526020818152604080832060808c901c84529091528120805491610ca583613b85565b9190505550610cb3876114b5565b6000631fc8da4360e21b610cc78688613a69565b6001600160e01b0319161480610cf65750639790242160e01b610cea8688613a69565b6001600160e01b031916145b90506000610d05848385610db5565b9050610d15848460018a8a610e22565b610d1f8688613a69565b6001600160e01b03191688846001600160a01b03167fc0a62328f6bf5e3172bb1fcb2019f54b2c523b6a48e3513a2298fbf0150b781e60405160405180910390a46000610d6e858a8a8a611253565b905081158015610d7c575082155b15610da657610da6856001600160a01b03166000908152600260205260409020805460ff19169055565b9b9a5050505050505050505050565b6001600160a01b03831660009081526002602052604090205460ff168015610df357610dee826109506001600160a01b03871682610af6565b610351565b82610351576001600160a01b0384166000908152600260205260409020805460ff191660011790559392505050565b6000610e376001600160a01b03871686610af6565b905080610e7b576040517ff292052a0000000000000000000000000000000000000000000000000000000081526001600160a01b0386166004820152602401610504565b8315610e8b57610e8b858261156a565b6000610e978385613a69565b90507f80dc96f4000000000000000000000000000000000000000000000000000000006001600160e01b0319821601610eff57600080610eda8560048189613b9e565b810190610ee79190613573565b91509150610ef889898685856115d4565b505061123a565b7f686fdbdf000000000000000000000000000000000000000000000000000000006001600160e01b0319821601610f5e57600080610f408560048189613b9e565b810190610f4d9190613bc8565b91509150610ef88989868585611650565b7fbb3fd702000000000000000000000000000000000000000000000000000000006001600160e01b0319821601610fce576000808080610fa1876004818b613b9e565b810190610fae9190613c77565b9350935093509350610fc58b8b88878787876117d3565b5050505061123a565b7fce7a7bae000000000000000000000000000000000000000000000000000000006001600160e01b0319821601611153576000808080611011876004818b613b9e565b81019061101e9190613d35565b93509350935093508251845114158061103957508151835114155b8061104657508051825114155b1561107d576040517f3ff55f4d00000000000000000000000000000000000000000000000000000000815260040160405180910390fd5b83516000036110b8576040517fe9ad2b5f00000000000000000000000000000000000000000000000000000000815260040160405180910390fd5b60005b8451811015611149576111378c8c898885815181106110dc576110dc6139e3565b60200260200101518886815181106110f6576110f66139e3565b6020026020010151888781518110611110576111106139e3565b602002602001015188888151811061112a5761112a6139e3565b60200260200101516117d3565b8061114181613b85565b9150506110bb565b505050505061123a565b6001600160e01b031981167ff2fde38b0000000000000000000000000000000000000000000000000000000014806111b457506001600160e01b031981167f79ba509700000000000000000000000000000000000000000000000000000000145b806111e857506001600160e01b031981167f715018a600000000000000000000000000000000000000000000000000000000145b156111fc576111f786836118a0565b61123a565b6040517f2ba8851c0000000000000000000000000000000000000000000000000000000081526001600160e01b031982166004820152602401610504565b50505050505050565b61124e8383836118d5565b505050565b6060600080866001600160a01b0316865a908787604051611275929190613e33565b600060405180830381858888f193505050503d80600081146112b3576040519150601f19603f3d011682016040523d82523d6000602084013e6112b8565b606091505b509150915060006112ff83836040518060400160405280601e81526020017f4c5350363a206661696c656420657865637574696e67207061796c6f61640000815250611908565b905080516000036113105780611324565b808060200190518101906113249190613ac8565b98975050505050505050565b6000807f7fffffffffffffffffffffffffffffff5d576e7357a4501ddfe92f46681b20a083111561136757506000905060036113eb565b6040805160008082526020820180845289905260ff881692820192909252606081018690526080810185905260019060a0016020604051602081039080840390855afa1580156113bb573d6000803e3d6000fd5b5050604051601f1901519150506001600160a01b0381166113e4576000600192509250506113eb565b9150600090505b94509492505050565b604080517fffffffffffffffffffff00000000000000000000000000000000000000000000841660208201526000602a82018190526bffffffffffffffffffffffff198416602c830152918291016040516020818303038152906040529050806107d090613b36565b600080601946888888888860405160200161147e9796959493929190613e43565b60408051601f198184030181529190529050600061149c3083611921565b90506114a8818a611954565b9998505050505050505050565b806000036114c05750565b608081901c81428211156114ff576040517ede4b8a00000000000000000000000000000000000000000000000000000000815260040160405180910390fd5b806fffffffffffffffffffffffffffffffff1660000361151e57505050565b806fffffffffffffffffffffffffffffffff1642111561124e576040517f5c53a98c00000000000000000000000000000000000000000000000000000000815260040160405180910390fd5b62400000808216146115d05760408051631ded6b7360e11b81526001600160a01b03841660048201526024810191909152601260448201527f455845435554455f52454c41595f43414c4c00000000000000000000000000006064820152608401610504565b5050565b60006115e286858585611978565b90506203ffff1981016116315762020000808516036116015750611649565b61160f858562040000611243565b61162c85846116276001600160a01b038a1683611d21565b611dc1565b611647565b8061163c5750611649565b611647858583611243565b505b5050505050565b805182511461168b576040517f3bcc897900000000000000000000000000000000000000000000000000000000815260040160405180910390fd5b600080835167ffffffffffffffff8111156116a8576116a86134ae565b6040519080825280602002602001820160405280156116d1578160200160208202803683370190505b509050600080805b6117178a898984815181106116f0576116f06139e3565b602002602001015189858151811061170a5761170a6139e3565b6020026020010151611978565b91506203ffff19820161172d5760019450611770565b811561173e5761173e898984611243565b6001848281518110611752576117526139e3565b911515602092830291909101909101528261176c81613b85565b9350505b806001019050865181106116d95784156117c757620200008089160361179a575050505050611649565b6117a8898962040000611243565b6117c789886117c06001600160a01b038e1683611d21565b8787611f21565b50505050505050505050565b306001600160a01b03841603611815576040517fa431b23600000000000000000000000000000000000000000000000000000000815260040160405180910390fd5b83611828576111f7878787868686612165565b60018414806118375750600284145b156118505781151561184a878783612241565b5061123a565b60038403611866576111f78787878686866122c6565b6004840361123a576040517f80d6ebae00000000000000000000000000000000000000000000000000000000815260040160405180910390fd5b6001808216146115d05760006118b660016122f5565b90508281604051631ded6b7360e11b8152600401610504929190613e79565b808216811461124e5760006118e9826122f5565b90508381604051631ded6b7360e11b8152600401610504929190613e79565b60608315611917575081610351565b61035183836126f2565b60008282604051602001611936929190613e9b565b60405160208183030381529060405280519060200120905092915050565b60008060006119638585610ab1565b915091506119708161271c565b509392505050565b60007f20cf245f92495cf19acab2659b39f67a000000000000000000000000000000006fffffffffffffffffffffffffffffffff198416016119ce576006848116146119c686858584612884565b9150506107d0565b7fb47f8bd21d4100000000000000000000000000000000000000000000000000007fffffffffffff0000000000000000000000000000000000000000000000000000841601611b4b576006848116146001600160a01b031984167fb47f8bd21d407d534c9d0000000000000000000000000000000000000000000001611a9c578251602014158015611a605750825115155b15611a82578383604051631fa4139760e01b8152600401610504929190613ef9565b8015611a925750600090506107d0565b6119c68685612a6e565b7fb47f8bd21d40c6c59b39000000000000000000000000000000000000000000006001600160a01b0319851601611ad9576119c686858584612aa4565b7fb47f8bd21d407993d6ef000000000000000000000000000000000000000000006001600160a01b0319851601611b16576119c686858584612b0f565b6040517f0f7d735b00000000000000000000000000000000000000000000000000000000815260048101859052602401610504565b7f0cfc51aec37c55a4d0b1a65c6255c4bf2fbdf6277f3cc0730c45b828b6db8b47831480611ba257506001600160a01b031983167f0cfc51aec37c55a4d0b100000000000000000000000000000000000000000000145b15611bfe578151601414158015611bb95750815115155b15611bdb578282604051631fa4139760e01b8152600401610504929190613ef9565b606080851603611bed575060006107d0565b611bf78584612b39565b90506107d0565b7f311874bf6b2579feef6a000000000000000000000000000000000000000000006001600160a01b0319841601611d17578151601414158015611c415750815115155b15611c63578282604051631fa4139760e01b8152600401610504929190613ef9565b606083901b6001600160e01b031981167fde928f14000000000000000000000000000000000000000000000000000000001480611cb057506001600160e01b0319811663d3fc45d360e01b145b15611cf95730611cbf84613f12565b60601c03611cf9576040517f4a9fa8cf00000000000000000000000000000000000000000000000000000000815260040160405180910390fd5b601880861603611d0d5750600090506107d0565b6119c68685612bbf565b50620400006107d0565b60606001600160a01b0383166354f6127f611d5e7f4b80742de2bf866c29110000000000000000000000000000000000000000000085851b6113f4565b6040518263ffffffff1660e01b8152600401611d7c91815260200190565b600060405180830381865afa158015611d99573d6000803e3d6000fd5b505050506040513d6000823e601f3d908101601f191682016040526103519190810190613ac8565b8051600003611dee5760405163ed7fa50960e01b81526001600160a01b0384166004820152602401610504565b6000806000805b8451841015611ef657848481518110611e1057611e106139e3565b01602001516001600160f81b03191685611e2b866001613a0f565b81518110611e3b57611e3b6139e3565b016020908101516040516001600160f81b031993841692810192909252919091166021820152602201604051602081830303815290604052611e7c90613f4e565b60f01c9250821580611e8e5750602083115b15611eae578460405163ae6cbd3760e01b81526004016105049190613f9a565b611eb9836020613fec565b611ec4906008613fff565b8585016022015160001990911b908116925090508581168203611eea5750505050505050565b92820160020192611df5565b60405163557ae07960e01b81526001600160a01b038816600482015260248101879052604401610504565b8251600003611f4e5760405163ed7fa50960e01b81526001600160a01b0386166004820152602401610504565b835160008080805b87518410156120df57878481518110611f7157611f716139e3565b01602001516001600160f81b03191688611f8c866001613a0f565b81518110611f9c57611f9c6139e3565b016020908101516040516001600160f81b031993841692810192909252919091166021820152602201604051602081830303815290604052611fdd90613f4e565b60f01c9250821580611fef5750602083115b1561200f578760405163ae6cbd3760e01b81526004016105049190613f9a565b61201a836020613fec565b612025906008613fff565b8885016022015160001990911b9081169250905060005b858110156120d257878181518110612056576120566139e3565b60200260200101511561206b5760010161203c565b82828b838151811061207f5761207f6139e3565b602002602001015116036120ca5760018882815181106120a1576120a16139e3565b91151560209283029190910190910152600180880197879003016120ca57505050505050611649565b60010161203c565b5092820160020192611f56565b60005b85811015612158578781815181106120fc576120fc6139e3565b6020026020010151612150578a8a828151811061211b5761211b6139e3565b602090810291909101015160405163557ae07960e01b81526001600160a01b0390921660048301526024820152604401610504565b6001016120e2565b5050505050505050505050565b80518215801591610100878116149190159061040080891614908490612189575082155b1561219b5761219b8989610200611243565b8180156121a6575083155b80156121b0575080155b156121c2576121c28989610800611243565b811580156121ce575080155b156121e0576121e08989610800611243565b831580156121eb5750805b156121f95750505050611647565b8180156122035750835b801561220c5750825b1561221a5750505050611647565b8080156122245750825b156122325750505050611647565b6117c78a8a60008a8a8a612c45565b61224f838362010000611243565b61010082811614818015612261575080155b156122c05760408051631ded6b7360e11b81526001600160a01b03861660048201526024810191909152601360448201527f53555045525f5452414e5346455256414c5545000000000000000000000000006064820152608401610504565b50505050565b6110008481161480156122d95750611647565b6122e68686612000611243565b61123a87876003878787612c45565b6060600019820161233957505060408051808201909152601181527f5452414e534645524f574e455253484950000000000000000000000000000000602082015290565b600319820161237b57505060408051808201909152600f81527f454449545045524d495353494f4e530000000000000000000000000000000000602082015290565b60011982016123bd57505060408051808201909152600d81527f414444434f4e54524f4c4c455200000000000000000000000000000000000000602082015290565b60071982016123ff57505060408051808201909152600d81527f414444455854454e53494f4e5300000000000000000000000000000000000000602082015290565b600f19820161244157505060408051808201909152601081527f4348414e4745455854454e53494f4e5300000000000000000000000000000000602082015290565b601f19820161248357505060408051808201909152601c81527f414444554e4956455253414c524543454956455244454c454741544500000000602082015290565b603f1982016124c557505060408051808201909152601f81527f4348414e4745554e4956455253414c524543454956455244454c454741544500602082015290565b607f19820161250757505060408051808201909152600a81527f5245454e5452414e435900000000000000000000000000000000000000000000602082015290565b6203ffff19820161254b57505060408051808201909152600781527f5345544441544100000000000000000000000000000000000000000000000000602082015290565b6107ff19820161258e57505060408051808201909152600481527f43414c4c00000000000000000000000000000000000000000000000000000000602082015290565b611fff1982016125d157505060408051808201909152600a81527f53544154494343414c4c00000000000000000000000000000000000000000000602082015290565b617fff19820161261457505060408051808201909152600c81527f44454c454741544543414c4c0000000000000000000000000000000000000000602082015290565b61ffff19820161265757505060408051808201909152600681527f4445504c4f590000000000000000000000000000000000000000000000000000602082015290565b6101ff19820161269a57505060408051808201909152600d81527f5452414e5346455256414c554500000000000000000000000000000000000000602082015290565b621fffff1982016126de57505060408051808201909152600481527f5349474e00000000000000000000000000000000000000000000000000000000602082015290565b505060408051602081019091526000815290565b8151156127025781518083602001fd5b8060405162461bcd60e51b8152600401610504919061349b565b6000816004811115612730576127306139cd565b036127385750565b600181600481111561274c5761274c6139cd565b036127995760405162461bcd60e51b815260206004820152601860248201527f45434453413a20696e76616c6964207369676e617475726500000000000000006044820152606401610504565b60028160048111156127ad576127ad6139cd565b036127fa5760405162461bcd60e51b815260206004820152601f60248201527f45434453413a20696e76616c6964207369676e6174757265206c656e677468006044820152606401610504565b600381600481111561280e5761280e6139cd565b036128815760405162461bcd60e51b815260206004820152602260248201527f45434453413a20696e76616c6964207369676e6174757265202773272076616c60448201527f75650000000000000000000000000000000000000000000000000000000000006064820152608401610504565b50565b60007f20cf245f92495cf19acab2659b39f679e0f76aba35a7394b241ce5a0cc734f1d84016129a75782516010141580156128bf5750825115155b156128e1578383604051631fa4139760e01b8152600401610504929190613ef9565b81156128ef575060006107d0565b60006128fa84614016565b60801c9050856001600160a01b03166354f6127f866040518263ffffffff1660e01b815260040161292d91815260200190565b600060405180830381865afa15801561294a573d6000803e3d6000fd5b505050506040513d6000823e601f3d908101601f191682016040526129729190810190613ac8565b61297b90614016565b60801c6fffffffffffffffffffffffffffffffff82161161299d5760046119c6565b60029150506107d0565b8251158015906129b957508251601414155b156129db578383604051631fa4139760e01b8152600401610504929190613ef9565b81156129e9575060006107d0565b6040516354f6127f60e01b8152600481018590526001600160a01b038616906354f6127f90602401600060405180830381865afa158015612a2e573d6000803e3d6000fd5b505050506040513d6000823e601f3d908101601f19168201604052612a569190810190613ac8565b5115612a635760046103d8565b600295945050505050565b60006001600160a01b03808316908290612a8a90861683610af6565b90508015612a995760046103d8565b506002949350505050565b6000612aaf83612e39565b612ace578260405163187e77ab60e01b8152600401610504919061349b565b8115612adc575060006107d0565b6001600160a01b0380851690600090612af790881683610af6565b14612b035760046103f1565b60029695505050505050565b6000612b1a83612f2f565b612ace578260405163ae6cbd3760e01b81526004016105049190614053565b6040516354f6127f60e01b8152600481018290526000906001600160a01b038416906354f6127f90602401600060405180830381865afa158015612b81573d6000803e3d6000fd5b505050506040513d6000823e601f3d908101601f19168201604052612ba99190810190613ac8565b5115612bb6576040610351565b50602092915050565b6040516354f6127f60e01b8152600481018290526000906001600160a01b038416906354f6127f90602401600060405180830381865afa158015612c07573d6000803e3d6000fd5b505050506040513d6000823e601f3d908101601f19168201604052612c2f9190810190613ac8565b5115612c3c576010610351565b50600892915050565b6000612c5a6001600160a01b03881687613015565b90508051600003612ca2576040517f6cb605870000000000000000000000000000000000000000000000000000000081526001600160a01b0387166004820152602401610504565b815180159060009060041115612cb9576000612cc2565b612cc2846140a5565b90506000612cd1888785613052565b905060005b8451811015612de3578451612cec826022613a0f565b1115612d0d578460405163187e77ab60e01b8152600401610504919061349b565b6000612d2586612d1e846002613a0f565b6020613102565b905063ffffffff196020612d3883613b36565b63ffffffff19911b1603612d83576040517f6fd203c50000000000000000000000000000000000000000000000000000000081526001600160a01b038c166004820152602401610504565b612d8d818461322a565b8015612d9e5750612d9e818a613251565b8015612daf5750612daf818a613294565b8015612dc05750612dc081856132cc565b15612dd057505050505050611647565b50612ddc602282613a0f565b9050612cd6565b506040517f45147bce0000000000000000000000000000000000000000000000000000000081526001600160a01b03808b166004830152881660248201526001600160e01b031983166044820152606401610504565b6000805b8251811015612f15578251612e53826001613a0f565b10612e615750600092915050565b6000838281518110612e7557612e756139e3565b01602001516001600160f81b03191684612e90846001613a0f565b81518110612ea057612ea06139e3565b016020908101516040516001600160f81b031993841692810192909252919091166021820152602201604051602081830303815290604052612ee190613f4e565b60f01c905060208114612ef8575060009392505050565b612f03816002613a0f565b612f0d9083613a0f565b915050612e3d565b82518103612f265750600192915050565b50600092915050565b6000805b8251811015612f15578251612f49826001613a0f565b10612f575750600092915050565b6000838281518110612f6b57612f6b6139e3565b01602001516001600160f81b03191684612f86846001613a0f565b81518110612f9657612f966139e3565b016020908101516040516001600160f81b031993841692810192909252919091166021820152602201604051602081830303815290604052612fd790613f4e565b60f01c9050801580612fe95750602081115b15612ff8575060009392505050565b613003816002613a0f565b61300d9083613a0f565b915050612f33565b60606001600160a01b0383166354f6127f611d5e7f4b80742de2bf393a64c70000000000000000000000000000000000000000000085851b6113f4565b6000821561307a577c0100000000000000000000000000000000000000000000000000000000175b8161035157836130a8577c020000000000000000000000000000000000000000000000000000000017610351565b600384036130d4577c040000000000000000000000000000000000000000000000000000000017610351565b60048403610351577c0800000000000000000000000000000000000000000000000000000000179392505050565b60608161311081601f613a0f565b101561315e5760405162461bcd60e51b815260206004820152600e60248201527f736c6963655f6f766572666c6f770000000000000000000000000000000000006044820152606401610504565b6131688284613a0f565b845110156131b85760405162461bcd60e51b815260206004820152601160248201527f736c6963655f6f75744f66426f756e64730000000000000000000000000000006044820152606401610504565b6060821580156131d75760405191506000825260208201604052613221565b6040519150601f8416801560200281840101858101878315602002848b0101015b818310156132105780518352602092830192016131f8565b5050858452601f01601f1916604052505b50949350505050565b600080613236846140a5565b83166001600160e01b03199081169084161491505092915050565b600080602061325f85613b36565b901b60601c90506001600160a01b038114806107d05750806001600160a01b0316836001600160a01b03161491505092915050565b60008060c06132a285613b36565b901b90506001600160e01b031980821614806107d057506107d06001600160a01b03841682613318565b60008060e06132da85613b36565b901b90506001600160e01b031983811615159080831614806103d857508080156103d85750506001600160e01b031990811692169190911492915050565b604080516001600160e01b03198316602480830191909152825180830390910181526044909101909152602080820180516001600160e01b03166301ffc9a760e01b178152825160009392849283928392918391908a617530fa92503d9150600051905082801561338a575060208210155b8015610aa6575015159695505050505050565b6000602082840312156133af57600080fd5b81356001600160e01b03198116811461035157600080fd5b60008083601f8401126133d957600080fd5b50813567ffffffffffffffff8111156133f157600080fd5b602083019150836020828501011115610aef57600080fd5b6000806020838503121561341c57600080fd5b823567ffffffffffffffff81111561343357600080fd5b61343f858286016133c7565b90969095509350505050565b60005b8381101561346657818101518382015260200161344e565b50506000910152565b6000815180845261348781602086016020860161344b565b601f01601f19169290920160200192915050565b602081526000610351602083018461346f565b634e487b7160e01b600052604160045260246000fd5b604051601f8201601f1916810167ffffffffffffffff811182821017156134ed576134ed6134ae565b604052919050565b600067ffffffffffffffff82111561350f5761350f6134ae565b50601f01601f191660200190565b600082601f83011261352e57600080fd5b813561354161353c826134f5565b6134c4565b81815284602083860101111561355657600080fd5b816020850160208301376000918101602001919091529392505050565b6000806040838503121561358657600080fd5b82359150602083013567ffffffffffffffff8111156135a457600080fd5b6135b08582860161351d565b9150509250929050565b6000806000806000608086880312156135d257600080fd5b853567ffffffffffffffff808211156135ea57600080fd5b6135f689838a0161351d565b96506020880135955060408801359450606088013591508082111561361a57600080fd5b50613627888289016133c7565b969995985093965092949392505050565b600067ffffffffffffffff821115613652576136526134ae565b5060051b60200190565b600082601f83011261366d57600080fd5b8135602061367d61353c83613638565b82815260059290921b8401810191818101908684111561369c57600080fd5b8286015b848110156136dc57803567ffffffffffffffff8111156136c05760008081fd5b6136ce8986838b010161351d565b8452509183019183016136a0565b509695505050505050565b60008083601f8401126136f957600080fd5b50813567ffffffffffffffff81111561371157600080fd5b6020830191508360208260051b8501011115610aef57600080fd5b600080600080600080600080600060a08a8c03121561374a57600080fd5b893567ffffffffffffffff8082111561376257600080fd5b61376e8d838e0161365c565b9a5060208c013591508082111561378457600080fd5b6137908d838e016136e7565b909a50985060408c01359150808211156137a957600080fd5b6137b58d838e016136e7565b909850965060608c01359150808211156137ce57600080fd5b6137da8d838e016136e7565b909650945060808c01359150808211156137f357600080fd5b506138008c828d016136e7565b915080935050809150509295985092959850929598565b6000602080830181845280855180835260408601915060408160051b870101925083870160005b8281101561386c57603f1988860301845261385a85835161346f565b9450928501929085019060010161383e565b5092979650505050505050565b6001600160a01b038116811461288157600080fd5b600080604083850312156138a157600080fd5b82356138ac81613879565b915060208301356fffffffffffffffffffffffffffffffff811681146138d157600080fd5b809150509250929050565b600080600080604085870312156138f257600080fd5b843567ffffffffffffffff8082111561390a57600080fd5b613916888389016136e7565b9096509450602087013591508082111561392f57600080fd5b5061393c878288016136e7565b95989497509550505050565b60008060008060008060a0878903121561396157600080fd5b863561396c81613879565b9550602087013561397c81613879565b9450604087013561398c81613879565b935060608701359250608087013567ffffffffffffffff8111156139af57600080fd5b6139bb89828a016133c7565b979a9699509497509295939492505050565b634e487b7160e01b600052602160045260246000fd5b634e487b7160e01b600052603260045260246000fd5b634e487b7160e01b600052601160045260246000fd5b8082018082111561033e5761033e6139f9565b6000808335601e19843603018112613a3957600080fd5b83018035915067ffffffffffffffff821115613a5457600080fd5b602001915036819003821315610aef57600080fd5b6001600160e01b03198135818116916004851015613a915780818660040360031b1b83161692505b505092915050565b60208152816020820152818360408301376000818301604090810191909152601f909201601f19160101919050565b600060208284031215613ada57600080fd5b815167ffffffffffffffff811115613af157600080fd5b8201601f81018413613b0257600080fd5b8051613b1061353c826134f5565b818152856020838501011115613b2557600080fd5b6103d882602083016020860161344b565b80516020808301519190811015613b57576000198160200360031b1b821691505b50919050565b6001600160a01b03841681528260208201526060604082015260006103d8606083018461346f565b600060018201613b9757613b976139f9565b5060010190565b60008085851115613bae57600080fd5b83861115613bbb57600080fd5b5050820193919092039150565b60008060408385031215613bdb57600080fd5b823567ffffffffffffffff80821115613bf357600080fd5b818501915085601f830112613c0757600080fd5b81356020613c1761353c83613638565b82815260059290921b84018101918181019089841115613c3657600080fd5b948201945b83861015613c5457853582529482019490820190613c3b565b96505086013592505080821115613c6a57600080fd5b506135b08582860161365c565b60008060008060808587031215613c8d57600080fd5b843593506020850135613c9f81613879565b925060408501359150606085013567ffffffffffffffff811115613cc257600080fd5b613cce8782880161351d565b91505092959194509250565b600082601f830112613ceb57600080fd5b81356020613cfb61353c83613638565b82815260059290921b84018101918181019086841115613d1a57600080fd5b8286015b848110156136dc5780358352918301918301613d1e565b60008060008060808587031215613d4b57600080fd5b843567ffffffffffffffff80821115613d6357600080fd5b613d6f88838901613cda565b9550602091508187013581811115613d8657600080fd5b8701601f81018913613d9757600080fd5b8035613da561353c82613638565b81815260059190911b8201840190848101908b831115613dc457600080fd5b928501925b82841015613deb578335613ddc81613879565b82529285019290850190613dc9565b97505050506040870135915080821115613e0457600080fd5b613e1088838901613cda565b93506060870135915080821115613e2657600080fd5b50613cce8782880161365c565b8183823760009101908152919050565b878152866020820152856040820152846060820152836080820152818360a08301376000910160a0019081529695505050505050565b6001600160a01b03831681526040602082015260006107d0604083018461346f565b7f190000000000000000000000000000000000000000000000000000000000000081526bffffffffffffffffffffffff198360601b16600282015260008251613eeb81601685016020870161344b565b919091016016019392505050565b8281526040602082015260006107d0604083018461346f565b805160208201516bffffffffffffffffffffffff198082169291906014831015613f465780818460140360031b1b83161693505b505050919050565b6000815160208301517fffff00000000000000000000000000000000000000000000000000000000000080821693506002831015613f465760029290920360031b82901b161692915050565b604081526000613fad604083018461346f565b8281036020840152601c81527f636f756c646e2774204445434f44452066726f6d2073746f726167650000000060208201526040810191505092915050565b8181038181111561033e5761033e6139f9565b808202811582820484141761033e5761033e6139f9565b6000815160208301516fffffffffffffffffffffffffffffffff1980821693506010831015613f465760109290920360031b82901b161692915050565b604081526000614066604083018461346f565b8281036020840152602081527f636f756c646e27742056414c49444154452074686520646174612076616c756560208201526040810191505092915050565b6000815160208301516001600160e01b031980821693506004831015613f465760049290920360031b82901b16169291505056fea2646970667358221220c428b3e686d520716ae4d28427e04a4c6233b234a98863fc954ab41878a8de0864736f6c63430008110033",
  "linkReferences": {},
  "deployedLinkReferences": {}
}