{
  "abi": [
    {
      "inputs": [
        {
          "internalType": "uint256",
          "name": "dataKeysLength",
          "type": "uint256"
        },
        {
          "internalType": "uint256",
          "name": "dataValuesLength",
          "type": "uint256"
        }
      ],
      "name": "ERC725Y_DataKeysValuesLengthMismatch",
      "type": "error"
    },
    {
      "inputs": [],
      "name": "LSP4TokenNameNotEditable",
      "type": "error"
    },
    {
      "inputs": [],
      "name": "LSP4TokenSymbolNotEditable",
      "type": "error"
    },
    {
      "inputs": [
        {
          "internalType": "address",
          "name": "tokenOwner",
          "type": "address"
        },
        {
          "internalType": "uint256",
          "name": "authorizedAmount",
          "type": "uint256"
        },
        {
          "internalType": "address",
          "name": "operator",
          "type": "address"
        },
        {
          "internalType": "uint256",
          "name": "amount",
          "type": "uint256"
        }
      ],
      "name": "LSP7AmountExceedsAuthorizedAmount",
      "type": "error"
    },
    {
      "inputs": [
        {
          "internalType": "uint256",
          "name": "balance",
          "type": "uint256"
        },
        {
          "internalType": "address",
          "name": "tokenOwner",
          "type": "address"
        },
        {
          "internalType": "uint256",
          "name": "amount",
          "type": "uint256"
        }
      ],
      "name": "LSP7AmountExceedsBalance",
      "type": "error"
    },
    {
      "inputs": [],
      "name": "LSP7CannotSendToSelf",
      "type": "error"
    },
    {
      "inputs": [],
      "name": "LSP7CannotSendWithAddressZero",
      "type": "error"
    },
    {
      "inputs": [],
      "name": "LSP7CannotUseAddressZeroAsOperator",
      "type": "error"
    },
    {
      "inputs": [],
      "name": "LSP7InvalidTransferBatch",
      "type": "error"
    },
    {
      "inputs": [
        {
          "internalType": "address",
          "name": "tokenReceiver",
          "type": "address"
        }
      ],
      "name": "LSP7NotifyTokenReceiverContractMissingLSP1Interface",
      "type": "error"
    },
    {
      "inputs": [
        {
          "internalType": "address",
          "name": "tokenReceiver",
          "type": "address"
        }
      ],
      "name": "LSP7NotifyTokenReceiverIsEOA",
      "type": "error"
    },
    {
      "anonymous": false,
      "inputs": [
        {
          "indexed": true,
          "internalType": "address",
          "name": "owner",
          "type": "address"
        },
        {
          "indexed": true,
          "internalType": "address",
          "name": "spender",
          "type": "address"
        },
        {
          "indexed": false,
          "internalType": "uint256",
          "name": "value",
          "type": "uint256"
        }
      ],
      "name": "Approval",
      "type": "event"
    },
    {
      "anonymous": false,
      "inputs": [
        {
          "indexed": true,
          "internalType": "address",
          "name": "operator",
          "type": "address"
        },
        {
          "indexed": true,
          "internalType": "address",
          "name": "tokenOwner",
          "type": "address"
        },
        {
          "indexed": true,
          "internalType": "uint256",
          "name": "amount",
          "type": "uint256"
        }
      ],
      "name": "AuthorizedOperator",
      "type": "event"
    },
    {
      "anonymous": false,
      "inputs": [
        {
          "indexed": true,
          "internalType": "bytes32",
          "name": "dataKey",
          "type": "bytes32"
        },
        {
          "indexed": false,
          "internalType": "bytes",
          "name": "dataValue",
          "type": "bytes"
        }
      ],
      "name": "DataChanged",
      "type": "event"
    },
    {
      "anonymous": false,
      "inputs": [
        {
          "indexed": false,
          "internalType": "uint8",
          "name": "version",
          "type": "uint8"
        }
      ],
      "name": "Initialized",
      "type": "event"
    },
    {
      "anonymous": false,
      "inputs": [
        {
          "indexed": true,
          "internalType": "address",
          "name": "previousOwner",
          "type": "address"
        },
        {
          "indexed": true,
          "internalType": "address",
          "name": "newOwner",
          "type": "address"
        }
      ],
      "name": "OwnershipTransferred",
      "type": "event"
    },
    {
      "anonymous": false,
      "inputs": [
        {
          "indexed": true,
          "internalType": "address",
          "name": "operator",
          "type": "address"
        },
        {
          "indexed": true,
          "internalType": "address",
          "name": "tokenOwner",
          "type": "address"
        }
      ],
      "name": "RevokedOperator",
      "type": "event"
    },
    {
      "anonymous": false,
      "inputs": [
        {
          "indexed": true,
          "internalType": "address",
          "name": "from",
          "type": "address"
        },
        {
          "indexed": true,
          "internalType": "address",
          "name": "to",
          "type": "address"
        },
        {
          "indexed": false,
          "internalType": "uint256",
          "name": "value",
          "type": "uint256"
        }
      ],
      "name": "Transfer",
      "type": "event"
    },
    {
      "anonymous": false,
      "inputs": [
        {
          "indexed": true,
          "internalType": "address",
          "name": "operator",
          "type": "address"
        },
        {
          "indexed": true,
          "internalType": "address",
          "name": "from",
          "type": "address"
        },
        {
          "indexed": true,
          "internalType": "address",
          "name": "to",
          "type": "address"
        },
        {
          "indexed": false,
          "internalType": "uint256",
          "name": "amount",
          "type": "uint256"
        },
        {
          "indexed": false,
          "internalType": "bool",
          "name": "force",
          "type": "bool"
        },
        {
          "indexed": false,
          "internalType": "bytes",
          "name": "data",
          "type": "bytes"
        }
      ],
      "name": "Transfer",
      "type": "event"
    },
    {
      "inputs": [
        {
          "internalType": "address",
          "name": "tokenOwner",
          "type": "address"
        },
        {
          "internalType": "address",
          "name": "operator",
          "type": "address"
        }
      ],
      "name": "allowance",
      "outputs": [
        {
          "internalType": "uint256",
          "name": "",
          "type": "uint256"
        }
      ],
      "stateMutability": "view",
      "type": "function"
    },
    {
      "inputs": [
        {
          "internalType": "address",
          "name": "operator",
          "type": "address"
        },
        {
          "internalType": "uint256",
          "name": "amount",
          "type": "uint256"
        }
      ],
      "name": "approve",
      "outputs": [
        {
          "internalType": "bool",
          "name": "",
          "type": "bool"
        }
      ],
      "stateMutability": "nonpayable",
      "type": "function"
    },
    {
      "inputs": [
        {
          "internalType": "address",
          "name": "operator",
          "type": "address"
        },
        {
          "internalType": "uint256",
          "name": "amount",
          "type": "uint256"
        }
      ],
      "name": "authorizeOperator",
      "outputs": [],
      "stateMutability": "nonpayable",
      "type": "function"
    },
    {
      "inputs": [
        {
          "internalType": "address",
          "name": "operator",
          "type": "address"
        },
        {
          "internalType": "address",
          "name": "tokenOwner",
          "type": "address"
        }
      ],
      "name": "authorizedAmountFor",
      "outputs": [
        {
          "internalType": "uint256",
          "name": "",
          "type": "uint256"
        }
      ],
      "stateMutability": "view",
      "type": "function"
    },
    {
      "inputs": [
        {
          "internalType": "address",
          "name": "tokenOwner",
          "type": "address"
        }
      ],
      "name": "balanceOf",
      "outputs": [
        {
          "internalType": "uint256",
          "name": "",
          "type": "uint256"
        }
      ],
      "stateMutability": "view",
      "type": "function"
    },
    {
      "inputs": [],
      "name": "decimals",
      "outputs": [
        {
          "internalType": "uint8",
          "name": "",
          "type": "uint8"
        }
      ],
      "stateMutability": "view",
      "type": "function"
    },
    {
      "inputs": [
        {
          "internalType": "bytes32[]",
          "name": "dataKeys",
          "type": "bytes32[]"
        }
      ],
      "name": "getData",
      "outputs": [
        {
          "internalType": "bytes[]",
          "name": "dataValues",
          "type": "bytes[]"
        }
      ],
      "stateMutability": "view",
      "type": "function"
    },
    {
      "inputs": [
        {
          "internalType": "bytes32",
          "name": "dataKey",
          "type": "bytes32"
        }
      ],
      "name": "getData",
      "outputs": [
        {
          "internalType": "bytes",
          "name": "dataValue",
          "type": "bytes"
        }
      ],
      "stateMutability": "view",
      "type": "function"
    },
    {
      "inputs": [
        {
          "internalType": "address",
          "name": "to",
          "type": "address"
        },
        {
          "internalType": "uint256",
          "name": "amount",
          "type": "uint256"
        },
        {
          "internalType": "bool",
          "name": "force",
          "type": "bool"
        },
        {
          "internalType": "bytes",
          "name": "data",
          "type": "bytes"
        }
      ],
      "name": "mint",
      "outputs": [],
      "stateMutability": "nonpayable",
      "type": "function"
    },
    {
      "inputs": [],
      "name": "name",
      "outputs": [
        {
          "internalType": "string",
          "name": "",
          "type": "string"
        }
      ],
      "stateMutability": "view",
      "type": "function"
    },
    {
      "inputs": [],
      "name": "owner",
      "outputs": [
        {
          "internalType": "address",
          "name": "",
          "type": "address"
        }
      ],
      "stateMutability": "view",
      "type": "function"
    },
    {
      "inputs": [],
      "name": "renounceOwnership",
      "outputs": [],
      "stateMutability": "nonpayable",
      "type": "function"
    },
    {
      "inputs": [
        {
          "internalType": "address",
          "name": "operator",
          "type": "address"
        }
      ],
      "name": "revokeOperator",
      "outputs": [],
      "stateMutability": "nonpayable",
      "type": "function"
    },
    {
      "inputs": [
        {
          "internalType": "bytes32[]",
          "name": "dataKeys",
          "type": "bytes32[]"
        },
        {
          "internalType": "bytes[]",
          "name": "dataValues",
          "type": "bytes[]"
        }
      ],
      "name": "setData",
      "outputs": [],
      "stateMutability": "nonpayable",
      "type": "function"
    },
    {
      "inputs": [
        {
          "internalType": "bytes32",
          "name": "dataKey",
          "type": "bytes32"
        },
        {
          "internalType": "bytes",
          "name": "dataValue",
          "type": "bytes"
        }
      ],
      "name": "setData",
      "outputs": [],
      "stateMutability": "nonpayable",
      "type": "function"
    },
    {
      "inputs": [
        {
          "internalType": "bytes4",
          "name": "interfaceId",
          "type": "bytes4"
        }
      ],
      "name": "supportsInterface",
      "outputs": [
        {
          "internalType": "bool",
          "name": "",
          "type": "bool"
        }
      ],
      "stateMutability": "view",
      "type": "function"
    },
    {
      "inputs": [],
      "name": "symbol",
      "outputs": [
        {
          "internalType": "string",
          "name": "",
          "type": "string"
        }
      ],
      "stateMutability": "view",
      "type": "function"
    },
    {
      "inputs": [],
      "name": "totalSupply",
      "outputs": [
        {
          "internalType": "uint256",
          "name": "",
          "type": "uint256"
        }
      ],
      "stateMutability": "view",
      "type": "function"
    },
    {
      "inputs": [
        {
          "internalType": "address",
          "name": "from",
          "type": "address"
        },
        {
          "internalType": "address",
          "name": "to",
          "type": "address"
        },
        {
          "internalType": "uint256",
          "name": "amount",
          "type": "uint256"
        },
        {
          "internalType": "bool",
          "name": "force",
          "type": "bool"
        },
        {
          "internalType": "bytes",
          "name": "data",
          "type": "bytes"
        }
      ],
      "name": "transfer",
      "outputs": [],
      "stateMutability": "nonpayable",
      "type": "function"
    },
    {
      "inputs": [
        {
          "internalType": "address",
          "name": "to",
          "type": "address"
        },
        {
          "internalType": "uint256",
          "name": "amount",
          "type": "uint256"
        }
      ],
      "name": "transfer",
      "outputs": [
        {
          "internalType": "bool",
          "name": "",
          "type": "bool"
        }
      ],
      "stateMutability": "nonpayable",
      "type": "function"
    },
    {
      "inputs": [
        {
          "internalType": "address[]",
          "name": "from",
          "type": "address[]"
        },
        {
          "internalType": "address[]",
          "name": "to",
          "type": "address[]"
        },
        {
          "internalType": "uint256[]",
          "name": "amount",
          "type": "uint256[]"
        },
        {
          "internalType": "bool[]",
          "name": "force",
          "type": "bool[]"
        },
        {
          "internalType": "bytes[]",
          "name": "data",
          "type": "bytes[]"
        }
      ],
      "name": "transferBatch",
      "outputs": [],
      "stateMutability": "nonpayable",
      "type": "function"
    },
    {
      "inputs": [
        {
          "internalType": "address",
          "name": "from",
          "type": "address"
        },
        {
          "internalType": "address",
          "name": "to",
          "type": "address"
        },
        {
          "internalType": "uint256",
          "name": "amount",
          "type": "uint256"
        }
      ],
      "name": "transferFrom",
      "outputs": [
        {
          "internalType": "bool",
          "name": "",
          "type": "bool"
        }
      ],
      "stateMutability": "nonpayable",
      "type": "function"
    },
    {
      "inputs": [
        {
          "internalType": "address",
          "name": "newOwner",
          "type": "address"
        }
      ],
      "name": "transferOwnership",
      "outputs": [],
      "stateMutability": "nonpayable",
      "type": "function"
    }
  ],
  "bytecode": {
    "object": "0x608060405234801561001057600080fd5b50611cfa806100206000396000f3fe608060405234801561001057600080fd5b506004361061014d5760003560e01c806365aeaa95116100c35780638da5cb5b1161007c5780638da5cb5b146102cc57806395d89b41146102f6578063a9059cbb146102fe578063dd62ed3e14610311578063f2fde38b14610324578063fad8b32a1461033757600080fd5b806365aeaa951461024f57806370a0823114610262578063715018a61461028b5780637580d92014610293578063760d9bba146102a65780637f23690c146102b957600080fd5b806323b872dd1161011557806323b872dd146101c95780632d7667c9146101dc578063313ce567146101ef57806347980aa3146102095780634e3e6e9c1461021c57806354f6127f1461023c57600080fd5b806301ffc9a71461015257806306fdde031461017a578063095ea7b31461018f57806314a6e293146101a257806318160ddd146101b7575b600080fd5b610165610160366004611347565b61034a565b60405190151581526020015b60405180910390f35b61018261035b565b60405161017191906113c1565b61016561019d3660046113f0565b610388565b6101b56101b03660046115e5565b61039d565b005b6003545b604051908152602001610171565b6101656101d7366004611648565b61042e565b6101b56101ea366004611758565b610457565b6101f7610546565b60405160ff9091168152602001610171565b6101b56102173660046113f0565b61055f565b61022f61022a366004611829565b61056e565b6040516101719190611865565b61018261024a3660046118c7565b610621565b6101bb61025d3660046118e0565b61062c565b6101bb610270366004611913565b6001600160a01b031660009081526004602052604090205490565b6101b5610692565b6101b56102a136600461192e565b6106a6565b6101b56102b4366004611995565b6106c0565b6101b56102c7366004611a00565b610795565b6000546201000090046001600160a01b03166040516001600160a01b039091168152602001610171565b6101826107a7565b61016561030c3660046113f0565b6107d4565b6101bb61031f3660046118e0565b6107f3565b6101b5610332366004611913565b610806565b6101b5610345366004611913565b61087f565b60006103558261088b565b92915050565b606060006103557fdeba1e292f8ba88238e10ab3c7f88bd4be4fac56cad5194b6ecceaf653468af16108b0565b6000610394838361055f565b50600192915050565b6103a5610952565b80518251146103d957815181516040516321d1e13360e11b8152600481019290925260248201526044015b60405180910390fd5b60005b8251811015610429576104218382815181106103fa576103fa611a3c565b602002602001015183838151811061041457610414611a3c565b60200260200101516109b3565b6001016103dc565b505050565b600061044d8484846001604051806020016040528060008152506106c0565b5060019392505050565b845184518114158061046a575083518114155b80610476575082518114155b80610482575081518114155b156104a05760405163263eee8d60e01b815260040160405180910390fd5b60005b8181101561053d576105358782815181106104c0576104c0611a3c565b60200260200101518783815181106104da576104da611a3c565b60200260200101518784815181106104f4576104f4611a3c565b602002602001015187858151811061050e5761050e611a3c565b602002602001015187868151811061052857610528611a3c565b60200260200101516106c0565b6001016104a3565b50505050505050565b60025460009060ff166105595750601290565b50600090565b61056a3383836109bd565b5050565b606081516001600160401b038111156105895761058961141a565b6040519080825280602002602001820160405280156105bc57816020015b60608152602001906001900390816105a75790505b50905060005b825181101561061b576105ed8382815181106105e0576105e0611a3c565b60200260200101516108b0565b8282815181106105ff576105ff611a3c565b60200260200101819052506106148160010190565b90506105c2565b50919050565b6060610355826108b0565b6000826001600160a01b0316826001600160a01b03160361066657506001600160a01b038116600090815260046020526040902054610355565b506001600160a01b03808216600090815260056020908152604080832093861683529290522054610355565b61069a610952565b6106a46000610a1a565b565b6106ae610952565b6106ba84848484610a90565b50505050565b836001600160a01b0316856001600160a01b0316036106f157604051620b9afb60ec1b815260040160405180910390fd5b336001600160a01b0386168114610780576001600160a01b038087166000908152600560209081526040808320938516835292905220548085111561076a5760405163f3a6b69160e01b81526001600160a01b0380891660048301526024820183905283166044820152606481018690526084016103d0565b61077e87836107798885611a68565b6109bd565b505b61078d8686868686610ae3565b505050505050565b61079d610952565b61056a82826109b3565b606060006103557f2f0a68ab07768e01943a599e73362a0e17a63a72e94dd2e384d2c1d4db9327566108b0565b60006103943384846001604051806020016040528060008152506106c0565b60006107ff828461062c565b9392505050565b61080e610952565b6001600160a01b0381166108735760405162461bcd60e51b815260206004820152602660248201527f4f776e61626c653a206e6577206f776e657220697320746865207a65726f206160448201526564647265737360d01b60648201526084016103d0565b61087c81610a1a565b50565b61087c338260006109bd565b60006001600160e01b03198216633687e17960e21b1480610355575061035582610b44565b60008181526001602052604090208054606091906108cd90611a7b565b80601f01602080910402602001604051908101604052809291908181526020018280546108f990611a7b565b80156109465780601f1061091b57610100808354040283529160200191610946565b820191906000526020600020905b81548152906001019060200180831161092957829003601f168201915b50505050509050919050565b6000546001600160a01b03620100009091041633146106a45760405162461bcd60e51b815260206004820181905260248201527f4f776e61626c653a2063616c6c6572206973206e6f7420746865206f776e657260448201526064016103d0565b61056a8282610b79565b6109c8838383610c6d565b816001600160a01b0316836001600160a01b03167f8c5be1e5ebec7d5bd14f71427d1e84f3dd0314c0f7b2291e5b200ac8c7c3b92583604051610a0d91815260200190565b60405180910390a3505050565b6000546001600160a01b0382811662010000909204161461087c57600080546001600160a01b038381166201000081810262010000600160b01b0319851617855560405193049190911692909183917f8be0079c531659141344cd1fd0a4f28419497f9722a3daafe3b4186f6b6457e091a35050565b610a9c84848484610d6b565b6040518381526001600160a01b038516906000907fddf252ad1be2c89b69c2b068fc378daa952ba7f163c4a11628f55a4df523b3ef9060200160405180910390a350505050565b610af08585858585610e48565b836001600160a01b0316856001600160a01b03167fddf252ad1be2c89b69c2b068fc378daa952ba7f163c4a11628f55a4df523b3ef85604051610b3591815260200190565b60405180910390a35050505050565b60006001600160e01b03198216631c537ddf60e21b148061035557506301ffc9a760e01b6001600160e01b0319831614610355565b7f2145e1d6d074577dc71ef54c3807742b41b053a9352ae6b491331509acb9750f8201610bb9576040516385c169bd60e01b815260040160405180910390fd5b7fd0f59754f88971fe6bc5a6618cc9d5f1e859c58d16b22d1c7b2d3e2b246cd8aa8201610bf957604051630eceab6760e31b815260040160405180910390fd5b6000828152600160205260409020610c118282611af5565b50817fece574603820d07bc9b91f2a932baadf4628aabcb8afba49776529c14a6104b261010083511115610c5257610c4d836000610100610fa5565b610c54565b825b604051610c6191906113c1565b60405180910390a25050565b6001600160a01b038216610c94576040516331aaf3b360e11b815260040160405180910390fd5b826001600160a01b0316826001600160a01b031603610cb257505050565b6001600160a01b0380841660009081526005602090815260408083209386168352929052208190558015610d265780836001600160a01b0316836001600160a01b03167fd66aff874162a96578e919097b6f6d153dfd89a5cec41bb331fdb0c4aec16e2c60405160405180910390a4505050565b826001600160a01b0316826001600160a01b03167f50546e66e5f44d728365dc3908c63bc5cfeeab470722c1677e3073a6ac294aa160405160405180910390a3505050565b6001600160a01b038416610d9257604051630d2d5ec360e41b815260040160405180910390fd5b338360036000828254610da59190611bb4565b90915550506001600160a01b03851660009081526004602052604081208054869290610dd2908490611bb4565b92505081905550846001600160a01b031660006001600160a01b0316826001600160a01b03167f3997e418d2cef0b3b0e907b1e39605c3f7d32dbd061e82ea5b4a770d46a160a6878787604051610e2b93929190611bc7565b60405180910390a4610e416000868686866110b2565b5050505050565b6001600160a01b0385161580610e6557506001600160a01b038416155b15610e8357604051630d2d5ec360e41b815260040160405180910390fd5b6001600160a01b03851660009081526004602052604090205480841115610ed6576040516308d4794960e01b8152600481018290526001600160a01b0387166024820152604481018590526064016103d0565b336001600160a01b03871660009081526004602052604081208054879290610eff908490611a68565b90915550506001600160a01b03861660009081526004602052604081208054879290610f2c908490611bb4565b92505081905550856001600160a01b0316876001600160a01b0316826001600160a01b03167f3997e418d2cef0b3b0e907b1e39605c3f7d32dbd061e82ea5b4a770d46a160a6888888604051610f8493929190611bc7565b60405180910390a4610f98878787866111ea565b61053d87878787876110b2565b606081610fb381601f611bb4565b1015610ff25760405162461bcd60e51b815260206004820152600e60248201526d736c6963655f6f766572666c6f7760901b60448201526064016103d0565b610ffc8284611bb4565b845110156110405760405162461bcd60e51b8152602060048201526011602482015270736c6963655f6f75744f66426f756e647360781b60448201526064016103d0565b60608215801561105f57604051915060008252602082016040526110a9565b6040519150601f8416801560200281840101858101878315602002848b0101015b81831015611098578051835260209283019201611080565b5050858452601f01601f1916604052505b50949350505050565b6110c384631aed5a8560e21b6112be565b1561118d576000858585846040516020016110e19493929190611bf1565b60408051601f1981840301815290829052631aed5a8560e21b825291506001600160a01b03861690636bb56a149061113f907f20804611b3e2ea21c480dc465142210acf4a2485947541770ec1fb87dee4a55c908590600401611c3e565b6000604051808303816000875af115801561115e573d6000803e3d6000fd5b505050506040513d6000823e601f3d908101601f191682016040526111869190810190611c57565b5050610e41565b81610e41576001600160a01b0384163b156111c6576040516353047ddb60e11b81526001600160a01b03851660048201526024016103d0565b6040516309b091fd60e21b81526001600160a01b03851660048201526024016103d0565b6111fb84631aed5a8560e21b6112be565b156106ba576000848484846040516020016112199493929190611bf1565b60408051601f1981840301815290829052631aed5a8560e21b825291506001600160a01b03861690636bb56a1490611277907f429ac7a06903dbc9c13dfcb3c9d11df8194581fa047c96d7a4171fc7402958ea908590600401611c3e565b6000604051808303816000875af1158015611296573d6000803e3d6000fd5b505050506040513d6000823e601f3d908101601f1916820160405261078d9190810190611c57565b604080516001600160e01b03198316602480830191909152825180830390910181526044909101909152602080820180516001600160e01b03166301ffc9a760e01b178152825160009392849283928392918391908a617530fa92503d91506000519050828015611330575060208210155b801561133c5750600081115b979650505050505050565b60006020828403121561135957600080fd5b81356001600160e01b0319811681146107ff57600080fd5b60005b8381101561138c578181015183820152602001611374565b50506000910152565b600081518084526113ad816020860160208601611371565b601f01601f19169290920160200192915050565b6020815260006107ff6020830184611395565b80356001600160a01b03811681146113eb57600080fd5b919050565b6000806040838503121561140357600080fd5b61140c836113d4565b946020939093013593505050565b634e487b7160e01b600052604160045260246000fd5b604051601f8201601f191681016001600160401b03811182821017156114585761145861141a565b604052919050565b60006001600160401b038211156114795761147961141a565b5060051b60200190565b600082601f83011261149457600080fd5b813560206114a96114a483611460565b611430565b82815260059290921b840181019181810190868411156114c857600080fd5b8286015b848110156114e357803583529183019183016114cc565b509695505050505050565b60006001600160401b038211156115075761150761141a565b50601f01601f191660200190565b600082601f83011261152657600080fd5b81356115346114a4826114ee565b81815284602083860101111561154957600080fd5b816020850160208301376000918101602001919091529392505050565b600082601f83011261157757600080fd5b813560206115876114a483611460565b82815260059290921b840181019181810190868411156115a657600080fd5b8286015b848110156114e35780356001600160401b038111156115c95760008081fd5b6115d78986838b0101611515565b8452509183019183016115aa565b600080604083850312156115f857600080fd5b82356001600160401b038082111561160f57600080fd5b61161b86838701611483565b9350602085013591508082111561163157600080fd5b5061163e85828601611566565b9150509250929050565b60008060006060848603121561165d57600080fd5b611666846113d4565b9250611674602085016113d4565b9150604084013590509250925092565b600082601f83011261169557600080fd5b813560206116a56114a483611460565b82815260059290921b840181019181810190868411156116c457600080fd5b8286015b848110156114e3576116d9816113d4565b83529183019183016116c8565b803580151581146113eb57600080fd5b600082601f83011261170757600080fd5b813560206117176114a483611460565b82815260059290921b8401810191818101908684111561173657600080fd5b8286015b848110156114e35761174b816116e6565b835291830191830161173a565b600080600080600060a0868803121561177057600080fd5b85356001600160401b038082111561178757600080fd5b61179389838a01611684565b965060208801359150808211156117a957600080fd5b6117b589838a01611684565b955060408801359150808211156117cb57600080fd5b6117d789838a01611483565b945060608801359150808211156117ed57600080fd5b6117f989838a016116f6565b9350608088013591508082111561180f57600080fd5b5061181c88828901611566565b9150509295509295909350565b60006020828403121561183b57600080fd5b81356001600160401b0381111561185157600080fd5b61185d84828501611483565b949350505050565b6000602080830181845280855180835260408601915060408160051b870101925083870160005b828110156118ba57603f198886030184526118a8858351611395565b9450928501929085019060010161188c565b5092979650505050505050565b6000602082840312156118d957600080fd5b5035919050565b600080604083850312156118f357600080fd5b6118fc836113d4565b915061190a602084016113d4565b90509250929050565b60006020828403121561192557600080fd5b6107ff826113d4565b6000806000806080858703121561194457600080fd5b61194d856113d4565b935060208501359250611962604086016116e6565b915060608501356001600160401b0381111561197d57600080fd5b61198987828801611515565b91505092959194509250565b600080600080600060a086880312156119ad57600080fd5b6119b6866113d4565b94506119c4602087016113d4565b9350604086013592506119d9606087016116e6565b915060808601356001600160401b038111156119f457600080fd5b61181c88828901611515565b60008060408385031215611a1357600080fd5b8235915060208301356001600160401b03811115611a3057600080fd5b61163e85828601611515565b634e487b7160e01b600052603260045260246000fd5b634e487b7160e01b600052601160045260246000fd5b8181038181111561035557610355611a52565b600181811c90821680611a8f57607f821691505b60208210810361061b57634e487b7160e01b600052602260045260246000fd5b601f82111561042957600081815260208120601f850160051c81016020861015611ad65750805b601f850160051c820191505b8181101561078d57828155600101611ae2565b81516001600160401b03811115611b0e57611b0e61141a565b611b2281611b1c8454611a7b565b84611aaf565b602080601f831160018114611b575760008415611b3f5750858301515b600019600386901b1c1916600185901b17855561078d565b600085815260208120601f198616915b82811015611b8657888601518255948401946001909101908401611b67565b5085821015611ba45787850151600019600388901b60f8161c191681555b5050505050600190811b01905550565b8082018082111561035557610355611a52565b8381528215156020820152606060408201526000611be86060830184611395565b95945050505050565b60006bffffffffffffffffffffffff19808760601b168352808660601b166014840152508360288301528251611c2e816048850160208701611371565b9190910160480195945050505050565b82815260406020820152600061185d6040830184611395565b600060208284031215611c6957600080fd5b81516001600160401b03811115611c7f57600080fd5b8201601f81018413611c9057600080fd5b8051611c9e6114a4826114ee565b818152856020838501011115611cb357600080fd5b611be882602083016020860161137156fea264697066735822122060fc35dc2ce31b4ce18d2a17acd0a23a7869c46481086ef6e2acb2253a6fd65564736f6c63430008110033",
    "linkReferences": {}
  },
  "methodIdentifiers": {
    "allowance(address,address)": "dd62ed3e",
    "approve(address,uint256)": "095ea7b3",
    "authorizeOperator(address,uint256)": "47980aa3",
    "authorizedAmountFor(address,address)": "65aeaa95",
    "balanceOf(address)": "70a08231",
    "decimals()": "313ce567",
    "getData(bytes32)": "54f6127f",
    "getData(bytes32[])": "4e3e6e9c",
    "mint(address,uint256,bool,bytes)": "7580d920",
    "name()": "06fdde03",
    "owner()": "8da5cb5b",
    "renounceOwnership()": "715018a6",
    "revokeOperator(address)": "fad8b32a",
    "setData(bytes32,bytes)": "7f23690c",
    "setData(bytes32[],bytes[])": "14a6e293",
    "supportsInterface(bytes4)": "01ffc9a7",
    "symbol()": "95d89b41",
    "totalSupply()": "18160ddd",
    "transfer(address,address,uint256,bool,bytes)": "760d9bba",
    "transfer(address,uint256)": "a9059cbb",
    "transferBatch(address[],address[],uint256[],bool[],bytes[])": "2d7667c9",
    "transferFrom(address,address,uint256)": "23b872dd",
    "transferOwnership(address)": "f2fde38b"
  },
  "id": 58
}