{
  "abi": [
    {
      "inputs": [
        {
          "internalType": "uint256",
          "name": "dataKeysLength",
          "type": "uint256"
        },
        {
          "internalType": "uint256",
          "name": "dataValuesLength",
          "type": "uint256"
        }
      ],
      "name": "ERC725Y_DataKeysValuesLengthMismatch",
      "type": "error"
    },
    {
      "inputs": [],
      "name": "LSP4TokenNameNotEditable",
      "type": "error"
    },
    {
      "inputs": [],
      "name": "LSP4TokenSymbolNotEditable",
      "type": "error"
    },
    {
      "inputs": [
        {
          "internalType": "address",
          "name": "tokenOwner",
          "type": "address"
        },
        {
          "internalType": "uint256",
          "name": "authorizedAmount",
          "type": "uint256"
        },
        {
          "internalType": "address",
          "name": "operator",
          "type": "address"
        },
        {
          "internalType": "uint256",
          "name": "amount",
          "type": "uint256"
        }
      ],
      "name": "LSP7AmountExceedsAuthorizedAmount",
      "type": "error"
    },
    {
      "inputs": [
        {
          "internalType": "uint256",
          "name": "balance",
          "type": "uint256"
        },
        {
          "internalType": "address",
          "name": "tokenOwner",
          "type": "address"
        },
        {
          "internalType": "uint256",
          "name": "amount",
          "type": "uint256"
        }
      ],
      "name": "LSP7AmountExceedsBalance",
      "type": "error"
    },
    {
      "inputs": [],
      "name": "LSP7CannotSendToSelf",
      "type": "error"
    },
    {
      "inputs": [],
      "name": "LSP7CannotSendWithAddressZero",
      "type": "error"
    },
    {
      "inputs": [],
      "name": "LSP7CannotUseAddressZeroAsOperator",
      "type": "error"
    },
    {
      "inputs": [],
      "name": "LSP7CappedSupplyCannotMintOverCap",
      "type": "error"
    },
    {
      "inputs": [],
      "name": "LSP7CappedSupplyRequired",
      "type": "error"
    },
    {
      "inputs": [],
      "name": "LSP7InvalidTransferBatch",
      "type": "error"
    },
    {
      "inputs": [
        {
          "internalType": "address",
          "name": "tokenReceiver",
          "type": "address"
        }
      ],
      "name": "LSP7NotifyTokenReceiverContractMissingLSP1Interface",
      "type": "error"
    },
    {
      "inputs": [
        {
          "internalType": "address",
          "name": "tokenReceiver",
          "type": "address"
        }
      ],
      "name": "LSP7NotifyTokenReceiverIsEOA",
      "type": "error"
    },
    {
      "anonymous": false,
      "inputs": [
        {
          "indexed": true,
          "internalType": "address",
          "name": "operator",
          "type": "address"
        },
        {
          "indexed": true,
          "internalType": "address",
          "name": "tokenOwner",
          "type": "address"
        },
        {
          "indexed": true,
          "internalType": "uint256",
          "name": "amount",
          "type": "uint256"
        }
      ],
      "name": "AuthorizedOperator",
      "type": "event"
    },
    {
      "anonymous": false,
      "inputs": [
        {
          "indexed": true,
          "internalType": "bytes32",
          "name": "dataKey",
          "type": "bytes32"
        },
        {
          "indexed": false,
          "internalType": "bytes",
          "name": "dataValue",
          "type": "bytes"
        }
      ],
      "name": "DataChanged",
      "type": "event"
    },
    {
      "anonymous": false,
      "inputs": [
        {
          "indexed": false,
          "internalType": "uint8",
          "name": "version",
          "type": "uint8"
        }
      ],
      "name": "Initialized",
      "type": "event"
    },
    {
      "anonymous": false,
      "inputs": [
        {
          "indexed": true,
          "internalType": "address",
          "name": "previousOwner",
          "type": "address"
        },
        {
          "indexed": true,
          "internalType": "address",
          "name": "newOwner",
          "type": "address"
        }
      ],
      "name": "OwnershipTransferred",
      "type": "event"
    },
    {
      "anonymous": false,
      "inputs": [
        {
          "indexed": true,
          "internalType": "address",
          "name": "operator",
          "type": "address"
        },
        {
          "indexed": true,
          "internalType": "address",
          "name": "tokenOwner",
          "type": "address"
        }
      ],
      "name": "RevokedOperator",
      "type": "event"
    },
    {
      "anonymous": false,
      "inputs": [
        {
          "indexed": true,
          "internalType": "address",
          "name": "operator",
          "type": "address"
        },
        {
          "indexed": true,
          "internalType": "address",
          "name": "from",
          "type": "address"
        },
        {
          "indexed": true,
          "internalType": "address",
          "name": "to",
          "type": "address"
        },
        {
          "indexed": false,
          "internalType": "uint256",
          "name": "amount",
          "type": "uint256"
        },
        {
          "indexed": false,
          "internalType": "bool",
          "name": "force",
          "type": "bool"
        },
        {
          "indexed": false,
          "internalType": "bytes",
          "name": "data",
          "type": "bytes"
        }
      ],
      "name": "Transfer",
      "type": "event"
    },
    {
      "inputs": [
        {
          "internalType": "address",
          "name": "operator",
          "type": "address"
        },
        {
          "internalType": "uint256",
          "name": "amount",
          "type": "uint256"
        }
      ],
      "name": "authorizeOperator",
      "outputs": [],
      "stateMutability": "nonpayable",
      "type": "function"
    },
    {
      "inputs": [
        {
          "internalType": "address",
          "name": "operator",
          "type": "address"
        },
        {
          "internalType": "address",
          "name": "tokenOwner",
          "type": "address"
        }
      ],
      "name": "authorizedAmountFor",
      "outputs": [
        {
          "internalType": "uint256",
          "name": "",
          "type": "uint256"
        }
      ],
      "stateMutability": "view",
      "type": "function"
    },
    {
      "inputs": [
        {
          "internalType": "address",
          "name": "tokenOwner",
          "type": "address"
        }
      ],
      "name": "balanceOf",
      "outputs": [
        {
          "internalType": "uint256",
          "name": "",
          "type": "uint256"
        }
      ],
      "stateMutability": "view",
      "type": "function"
    },
    {
      "inputs": [
        {
          "internalType": "address",
          "name": "from",
          "type": "address"
        },
        {
          "internalType": "uint256",
          "name": "amount",
          "type": "uint256"
        }
      ],
      "name": "burn",
      "outputs": [],
      "stateMutability": "nonpayable",
      "type": "function"
    },
    {
      "inputs": [],
      "name": "decimals",
      "outputs": [
        {
          "internalType": "uint8",
          "name": "",
          "type": "uint8"
        }
      ],
      "stateMutability": "view",
      "type": "function"
    },
    {
      "inputs": [
        {
          "internalType": "bytes32[]",
          "name": "dataKeys",
          "type": "bytes32[]"
        }
      ],
      "name": "getData",
      "outputs": [
        {
          "internalType": "bytes[]",
          "name": "dataValues",
          "type": "bytes[]"
        }
      ],
      "stateMutability": "view",
      "type": "function"
    },
    {
      "inputs": [
        {
          "internalType": "bytes32",
          "name": "dataKey",
          "type": "bytes32"
        }
      ],
      "name": "getData",
      "outputs": [
        {
          "internalType": "bytes",
          "name": "dataValue",
          "type": "bytes"
        }
      ],
      "stateMutability": "view",
      "type": "function"
    },
    {
      "inputs": [
        {
          "internalType": "string",
          "name": "name",
          "type": "string"
        },
        {
          "internalType": "string",
          "name": "symbol",
          "type": "string"
        },
        {
          "internalType": "address",
          "name": "newOwner",
          "type": "address"
        },
        {
          "internalType": "uint256",
          "name": "tokenSupplyCap",
          "type": "uint256"
        }
      ],
      "name": "initialize",
      "outputs": [],
      "stateMutability": "nonpayable",
      "type": "function"
    },
    {
      "inputs": [
        {
          "internalType": "address",
          "name": "to",
          "type": "address"
        },
        {
          "internalType": "uint256",
          "name": "amount",
          "type": "uint256"
        }
      ],
      "name": "mint",
      "outputs": [],
      "stateMutability": "nonpayable",
      "type": "function"
    },
    {
      "inputs": [],
      "name": "owner",
      "outputs": [
        {
          "internalType": "address",
          "name": "",
          "type": "address"
        }
      ],
      "stateMutability": "view",
      "type": "function"
    },
    {
      "inputs": [],
      "name": "renounceOwnership",
      "outputs": [],
      "stateMutability": "nonpayable",
      "type": "function"
    },
    {
      "inputs": [
        {
          "internalType": "address",
          "name": "operator",
          "type": "address"
        }
      ],
      "name": "revokeOperator",
      "outputs": [],
      "stateMutability": "nonpayable",
      "type": "function"
    },
    {
      "inputs": [
        {
          "internalType": "bytes32[]",
          "name": "dataKeys",
          "type": "bytes32[]"
        },
        {
          "internalType": "bytes[]",
          "name": "dataValues",
          "type": "bytes[]"
        }
      ],
      "name": "setData",
      "outputs": [],
      "stateMutability": "nonpayable",
      "type": "function"
    },
    {
      "inputs": [
        {
          "internalType": "bytes32",
          "name": "dataKey",
          "type": "bytes32"
        },
        {
          "internalType": "bytes",
          "name": "dataValue",
          "type": "bytes"
        }
      ],
      "name": "setData",
      "outputs": [],
      "stateMutability": "nonpayable",
      "type": "function"
    },
    {
      "inputs": [
        {
          "internalType": "bytes4",
          "name": "interfaceId",
          "type": "bytes4"
        }
      ],
      "name": "supportsInterface",
      "outputs": [
        {
          "internalType": "bool",
          "name": "",
          "type": "bool"
        }
      ],
      "stateMutability": "view",
      "type": "function"
    },
    {
      "inputs": [],
      "name": "tokenSupplyCap",
      "outputs": [
        {
          "internalType": "uint256",
          "name": "",
          "type": "uint256"
        }
      ],
      "stateMutability": "view",
      "type": "function"
    },
    {
      "inputs": [],
      "name": "totalSupply",
      "outputs": [
        {
          "internalType": "uint256",
          "name": "",
          "type": "uint256"
        }
      ],
      "stateMutability": "view",
      "type": "function"
    },
    {
      "inputs": [
        {
          "internalType": "address",
          "name": "from",
          "type": "address"
        },
        {
          "internalType": "address",
          "name": "to",
          "type": "address"
        },
        {
          "internalType": "uint256",
          "name": "amount",
          "type": "uint256"
        },
        {
          "internalType": "bool",
          "name": "force",
          "type": "bool"
        },
        {
          "internalType": "bytes",
          "name": "data",
          "type": "bytes"
        }
      ],
      "name": "transfer",
      "outputs": [],
      "stateMutability": "nonpayable",
      "type": "function"
    },
    {
      "inputs": [
        {
          "internalType": "address[]",
          "name": "from",
          "type": "address[]"
        },
        {
          "internalType": "address[]",
          "name": "to",
          "type": "address[]"
        },
        {
          "internalType": "uint256[]",
          "name": "amount",
          "type": "uint256[]"
        },
        {
          "internalType": "bool[]",
          "name": "force",
          "type": "bool[]"
        },
        {
          "internalType": "bytes[]",
          "name": "data",
          "type": "bytes[]"
        }
      ],
      "name": "transferBatch",
      "outputs": [],
      "stateMutability": "nonpayable",
      "type": "function"
    },
    {
      "inputs": [
        {
          "internalType": "address",
          "name": "newOwner",
          "type": "address"
        }
      ],
      "name": "transferOwnership",
      "outputs": [],
      "stateMutability": "nonpayable",
      "type": "function"
    }
  ],
  "bytecode": {
    "object": "0x608060405234801561001057600080fd5b50612043806100206000396000f3fe608060405234801561001057600080fd5b506004361061012c5760003560e01c806365aeaa95116100ad5780638da5cb5b116100715780638da5cb5b146102855780639dc29fac146102af578063f2fde38b146102c2578063f542033f146102d5578063fad8b32a146102e857600080fd5b806365aeaa951461021b57806370a082311461022e578063715018a614610257578063760d9bba1461025f5780637f23690c1461027257600080fd5b806340c10f19116100f457806340c10f19146101ad57806347980aa3146101c05780634e3e6e9c146101d357806352058d8a146101f357806354f6127f146101fb57600080fd5b806301ffc9a71461013157806314a6e2931461015957806318160ddd1461016e5780632d7667c914610180578063313ce56714610193575b600080fd5b61014461013f366004611666565b6102fb565b60405190151581526020015b60405180910390f35b61016c610167366004611862565b610326565b005b6003545b604051908152602001610150565b61016c61018e3660046119b5565b6103b7565b61019b6104a6565b60405160ff9091168152602001610150565b61016c6101bb366004611a86565b6104bf565b61016c6101ce366004611a86565b6104fd565b6101e66101e1366004611ab0565b610508565b6040516101509190611b3c565b600654610172565b61020e610209366004611b9e565b6105bb565b6040516101509190611bb7565b610172610229366004611bca565b6105c6565b61017261023c366004611bfd565b6001600160a01b031660009081526004602052604090205490565b61016c61062d565b61016c61026d366004611c18565b610641565b61016c610280366004611c83565b610716565b6000546201000090046001600160a01b03166040516001600160a01b039091168152602001610150565b61016c6102bd366004611a86565b610728565b61016c6102d0366004611bfd565b610758565b61016c6102e3366004611cbf565b6107d1565b61016c6102f6366004611bfd565b6108f4565b60006001600160e01b03198216633687e17960e21b1480610320575061032082610900565b92915050565b61032e610935565b805182511461036257815181516040516321d1e13360e11b8152600481019290925260248201526044015b60405180910390fd5b60005b82518110156103b2576103aa83828151811061038357610383611d3a565b602002602001015183838151811061039d5761039d611d3a565b6020026020010151610996565b600101610365565b505050565b84518451811415806103ca575083518114155b806103d6575082518114155b806103e2575081518114155b156104005760405163263eee8d60e01b815260040160405180910390fd5b60005b8181101561049d5761049587828151811061042057610420611d3a565b602002602001015187838151811061043a5761043a611d3a565b602002602001015187848151811061045457610454611d3a565b602002602001015187858151811061046e5761046e611d3a565b602002602001015187868151811061048857610488611d3a565b6020026020010151610641565b600101610403565b50505050505050565b60025460009060ff166104b95750601290565b50600090565b6104f982826001604051806040016040528060158152602001743a37b5b2b710383934b73a32b91033b7903139393960591b815250610a8a565b5050565b6104f9338383610ad2565b606081516001600160401b0381111561052357610523611697565b60405190808252806020026020018201604052801561055657816020015b60608152602001906001900390816105415790505b50905060005b82518110156105b55761058783828151811061057a5761057a611d3a565b6020026020010151610bd0565b82828151811061059957610599611d3a565b60200260200101819052506105ae8160010190565b905061055c565b50919050565b606061032082610bd0565b6000826001600160a01b0316826001600160a01b03160361060057506001600160a01b038116600090815260046020526040902054610320565b506001600160a01b0380821660009081526005602090815260408083209386168352929052205492915050565b610635610935565b61063f6000610c72565b565b836001600160a01b0316856001600160a01b03160361067257604051620b9afb60ec1b815260040160405180910390fd5b336001600160a01b0386168114610701576001600160a01b03808716600090815260056020908152604080832093851683529290522054808511156106eb5760405163f3a6b69160e01b81526001600160a01b038089166004830152602482018390528316604482015260648101869052608401610359565b6106ff87836106fa8885611d66565b610ad2565b505b61070e8686868686610ce8565b505050505050565b61071e610935565b6104f98282610996565b6104f982826040518060400160405280600d81526020016c3332b2b6103a343290313ab93760991b815250610e45565b610760610935565b6001600160a01b0381166107c55760405162461bcd60e51b815260206004820152602660248201527f4f776e61626c653a206e6577206f776e657220697320746865207a65726f206160448201526564647265737360d01b6064820152608401610359565b6107ce81610c72565b50565b600054610100900460ff16158080156107f15750600054600160ff909116105b8061080b5750303b15801561080b575060005460ff166001145b61086e5760405162461bcd60e51b815260206004820152602e60248201527f496e697469616c697a61626c653a20636f6e747261637420697320616c72656160448201526d191e481a5b9a5d1a585b1a5e995960921b6064820152608401610359565b6000805460ff191660011790558015610891576000805461ff0019166101001790555b61089e8585856001611024565b6108a782611064565b80156108ed576000805461ff0019169055604051600181527f7f26b83ff96e1f2b6a682f133852f6798a09c465da95921460cefb38474024989060200160405180910390a15b5050505050565b6107ce33826000610ad2565b60006001600160e01b03198216631c537ddf60e21b148061032057506301ffc9a760e01b6001600160e01b0319831614610320565b6000546001600160a01b036201000090910416331461063f5760405162461bcd60e51b815260206004820181905260248201527f4f776e61626c653a2063616c6c6572206973206e6f7420746865206f776e65726044820152606401610359565b7f2145e1d6d074577dc71ef54c3807742b41b053a9352ae6b491331509acb9750f82016109d6576040516385c169bd60e01b815260040160405180910390fd5b7fd0f59754f88971fe6bc5a6618cc9d5f1e859c58d16b22d1c7b2d3e2b246cd8aa8201610a1657604051630eceab6760e31b815260040160405180910390fd5b6000828152600160205260409020610a2e8282611df3565b50817fece574603820d07bc9b91f2a932baadf4628aabcb8afba49776529c14a6104b261010083511115610a6f57610a6a8360006101006110b1565b610a71565b825b604051610a7e9190611bb7565b60405180910390a25050565b60065483610a9760035490565b610aa19190611eb2565b1115610ac05760405163eacbf0d160e01b815260040160405180910390fd5b610acc848484846111be565b50505050565b6001600160a01b038216610af9576040516331aaf3b360e11b815260040160405180910390fd5b826001600160a01b0316826001600160a01b031603610b1757505050565b6001600160a01b0380841660009081526005602090815260408083209386168352929052208190558015610b8b5780836001600160a01b0316836001600160a01b03167fd66aff874162a96578e919097b6f6d153dfd89a5cec41bb331fdb0c4aec16e2c60405160405180910390a4505050565b826001600160a01b0316826001600160a01b03167f50546e66e5f44d728365dc3908c63bc5cfeeab470722c1677e3073a6ac294aa160405160405180910390a3505050565b6000818152600160205260409020805460609190610bed90611d79565b80601f0160208091040260200160405190810160405280929190818152602001828054610c1990611d79565b8015610c665780601f10610c3b57610100808354040283529160200191610c66565b820191906000526020600020905b815481529060010190602001808311610c4957829003601f168201915b50505050509050919050565b6000546001600160a01b038281166201000090920416146107ce57600080546001600160a01b038381166201000081810262010000600160b01b0319851617855560405193049190911692909183917f8be0079c531659141344cd1fd0a4f28419497f9722a3daafe3b4186f6b6457e091a35050565b6001600160a01b0385161580610d0557506001600160a01b038416155b15610d2357604051630d2d5ec360e41b815260040160405180910390fd5b6001600160a01b03851660009081526004602052604090205480841115610d76576040516308d4794960e01b8152600481018290526001600160a01b038716602482015260448101859052606401610359565b336001600160a01b03871660009081526004602052604081208054879290610d9f908490611d66565b90915550506001600160a01b03861660009081526004602052604081208054879290610dcc908490611eb2565b92505081905550856001600160a01b0316876001600160a01b0316826001600160a01b03167f3997e418d2cef0b3b0e907b1e39605c3f7d32dbd061e82ea5b4a770d46a160a6888888604051610e2493929190611ec5565b60405180910390a4610e3887878786611294565b61049d8787878787611368565b6001600160a01b038316610e6c57604051630d2d5ec360e41b815260040160405180910390fd5b6001600160a01b03831660009081526004602052604090205480831115610ebf576040516308d4794960e01b8152600481018290526001600160a01b038516602482015260448101849052606401610359565b336001600160a01b0385168114610f76576001600160a01b0380861660009081526005602090815260408083209385168352929052205480851115610f385760405163f3a6b69160e01b81526001600160a01b038088166004830152602482018390528316604482015260648101869052608401610359565b6001600160a01b03808716600090815260056020908152604080832093861683529290529081208054879290610f6f908490611d66565b9091555050505b8360036000828254610f889190611d66565b90915550506001600160a01b03851660009081526004602052604081208054869290610fb5908490611d66565b9250508190555060006001600160a01b0316856001600160a01b0316826001600160a01b03167f3997e418d2cef0b3b0e907b1e39605c3f7d32dbd061e82ea5b4a770d46a160a68760008860405161100f93929190611ec5565b60405180910390a46108ed8560008686611294565b600054610100900460ff1661104b5760405162461bcd60e51b815260040161035990611eef565b6002805460ff1916821515179055610acc8484846114a0565b600054610100900460ff1661108b5760405162461bcd60e51b815260040161035990611eef565b806000036110ac5760405163acf1d8c560e01b815260040160405180910390fd5b600655565b6060816110bf81601f611eb2565b10156110fe5760405162461bcd60e51b815260206004820152600e60248201526d736c6963655f6f766572666c6f7760901b6044820152606401610359565b6111088284611eb2565b8451101561114c5760405162461bcd60e51b8152602060048201526011602482015270736c6963655f6f75744f66426f756e647360781b6044820152606401610359565b60608215801561116b57604051915060008252602082016040526111b5565b6040519150601f8416801560200281840101858101878315602002848b0101015b818310156111a457805183526020928301920161118c565b5050858452601f01601f1916604052505b50949350505050565b6001600160a01b0384166111e557604051630d2d5ec360e41b815260040160405180910390fd5b3383600360008282546111f89190611eb2565b90915550506001600160a01b03851660009081526004602052604081208054869290611225908490611eb2565b92505081905550846001600160a01b031660006001600160a01b0316826001600160a01b03167f3997e418d2cef0b3b0e907b1e39605c3f7d32dbd061e82ea5b4a770d46a160a687878760405161127e93929190611ec5565b60405180910390a46108ed600086868686611368565b6112a584631aed5a8560e21b61156d565b15610acc576000848484846040516020016112c39493929190611f3a565b60408051601f1981840301815290829052631aed5a8560e21b825291506001600160a01b03861690636bb56a1490611321907f429ac7a06903dbc9c13dfcb3c9d11df8194581fa047c96d7a4171fc7402958ea908590600401611f87565b6000604051808303816000875af1158015611340573d6000803e3d6000fd5b505050506040513d6000823e601f3d908101601f1916820160405261070e9190810190611fa0565b61137984631aed5a8560e21b61156d565b15611443576000858585846040516020016113979493929190611f3a565b60408051601f1981840301815290829052631aed5a8560e21b825291506001600160a01b03861690636bb56a14906113f5907f20804611b3e2ea21c480dc465142210acf4a2485947541770ec1fb87dee4a55c908590600401611f87565b6000604051808303816000875af1158015611414573d6000803e3d6000fd5b505050506040513d6000823e601f3d908101601f1916820160405261143c9190810190611fa0565b50506108ed565b816108ed576001600160a01b0384163b1561147c576040516353047ddb60e11b81526001600160a01b0385166004820152602401610359565b6040516309b091fd60e21b81526001600160a01b0385166004820152602401610359565b600054610100900460ff166114c75760405162461bcd60e51b815260040161035990611eef565b6114d0816115f6565b6115197feafec4d89fa9619884b60000a4d96624a38f7ac2d8d9a604ecf07c12c77e480c60001b604051806040016040528060048152602001632936598960e21b81525061161d565b6115437fdeba1e292f8ba88238e10ab3c7f88bd4be4fac56cad5194b6ecceaf653468af18461161d565b6103b27f2f0a68ab07768e01943a599e73362a0e17a63a72e94dd2e384d2c1d4db9327568361161d565b604080516001600160e01b03198316602480830191909152825180830390910181526044909101909152602080820180516001600160e01b03166301ffc9a760e01b178152825160009392849283928392918391908a617530fa92503d915060005190508280156115df575060208210155b80156115eb5750600081115b979650505050505050565b600054610100900460ff166107605760405162461bcd60e51b815260040161035990611eef565b60008281526001602052604090206116358282611df3565b50817fece574603820d07bc9b91f2a932baadf4628aabcb8afba49776529c14a6104b282604051610a7e9190611bb7565b60006020828403121561167857600080fd5b81356001600160e01b03198116811461169057600080fd5b9392505050565b634e487b7160e01b600052604160045260246000fd5b604051601f8201601f191681016001600160401b03811182821017156116d5576116d5611697565b604052919050565b60006001600160401b038211156116f6576116f6611697565b5060051b60200190565b600082601f83011261171157600080fd5b81356020611726611721836116dd565b6116ad565b82815260059290921b8401810191818101908684111561174557600080fd5b8286015b848110156117605780358352918301918301611749565b509695505050505050565b60006001600160401b0382111561178457611784611697565b50601f01601f191660200190565b600082601f8301126117a357600080fd5b81356117b16117218261176b565b8181528460208386010111156117c657600080fd5b816020850160208301376000918101602001919091529392505050565b600082601f8301126117f457600080fd5b81356020611804611721836116dd565b82815260059290921b8401810191818101908684111561182357600080fd5b8286015b848110156117605780356001600160401b038111156118465760008081fd5b6118548986838b0101611792565b845250918301918301611827565b6000806040838503121561187557600080fd5b82356001600160401b038082111561188c57600080fd5b61189886838701611700565b935060208501359150808211156118ae57600080fd5b506118bb858286016117e3565b9150509250929050565b80356001600160a01b03811681146118dc57600080fd5b919050565b600082601f8301126118f257600080fd5b81356020611902611721836116dd565b82815260059290921b8401810191818101908684111561192157600080fd5b8286015b8481101561176057611936816118c5565b8352918301918301611925565b803580151581146118dc57600080fd5b600082601f83011261196457600080fd5b81356020611974611721836116dd565b82815260059290921b8401810191818101908684111561199357600080fd5b8286015b84811015611760576119a881611943565b8352918301918301611997565b600080600080600060a086880312156119cd57600080fd5b85356001600160401b03808211156119e457600080fd5b6119f089838a016118e1565b96506020880135915080821115611a0657600080fd5b611a1289838a016118e1565b95506040880135915080821115611a2857600080fd5b611a3489838a01611700565b94506060880135915080821115611a4a57600080fd5b611a5689838a01611953565b93506080880135915080821115611a6c57600080fd5b50611a79888289016117e3565b9150509295509295909350565b60008060408385031215611a9957600080fd5b611aa2836118c5565b946020939093013593505050565b600060208284031215611ac257600080fd5b81356001600160401b03811115611ad857600080fd5b611ae484828501611700565b949350505050565b60005b83811015611b07578181015183820152602001611aef565b50506000910152565b60008151808452611b28816020860160208601611aec565b601f01601f19169290920160200192915050565b6000602080830181845280855180835260408601915060408160051b870101925083870160005b82811015611b9157603f19888603018452611b7f858351611b10565b94509285019290850190600101611b63565b5092979650505050505050565b600060208284031215611bb057600080fd5b5035919050565b6020815260006116906020830184611b10565b60008060408385031215611bdd57600080fd5b611be6836118c5565b9150611bf4602084016118c5565b90509250929050565b600060208284031215611c0f57600080fd5b611690826118c5565b600080600080600060a08688031215611c3057600080fd5b611c39866118c5565b9450611c47602087016118c5565b935060408601359250611c5c60608701611943565b915060808601356001600160401b03811115611c7757600080fd5b611a7988828901611792565b60008060408385031215611c9657600080fd5b8235915060208301356001600160401b03811115611cb357600080fd5b6118bb85828601611792565b60008060008060808587031215611cd557600080fd5b84356001600160401b0380821115611cec57600080fd5b611cf888838901611792565b95506020870135915080821115611d0e57600080fd5b50611d1b87828801611792565b935050611d2a604086016118c5565b9396929550929360600135925050565b634e487b7160e01b600052603260045260246000fd5b634e487b7160e01b600052601160045260246000fd5b8181038181111561032057610320611d50565b600181811c90821680611d8d57607f821691505b6020821081036105b557634e487b7160e01b600052602260045260246000fd5b601f8211156103b257600081815260208120601f850160051c81016020861015611dd45750805b601f850160051c820191505b8181101561070e57828155600101611de0565b81516001600160401b03811115611e0c57611e0c611697565b611e2081611e1a8454611d79565b84611dad565b602080601f831160018114611e555760008415611e3d5750858301515b600019600386901b1c1916600185901b17855561070e565b600085815260208120601f198616915b82811015611e8457888601518255948401946001909101908401611e65565b5085821015611ea25787850151600019600388901b60f8161c191681555b5050505050600190811b01905550565b8082018082111561032057610320611d50565b8381528215156020820152606060408201526000611ee66060830184611b10565b95945050505050565b6020808252602b908201527f496e697469616c697a61626c653a20636f6e7472616374206973206e6f74206960408201526a6e697469616c697a696e6760a81b606082015260800190565b60006bffffffffffffffffffffffff19808760601b168352808660601b166014840152508360288301528251611f77816048850160208701611aec565b9190910160480195945050505050565b828152604060208201526000611ae46040830184611b10565b600060208284031215611fb257600080fd5b81516001600160401b03811115611fc857600080fd5b8201601f81018413611fd957600080fd5b8051611fe76117218261176b565b818152856020838501011115611ffc57600080fd5b611ee6826020830160208601611aec56fea2646970667358221220068f02116379362f952bf3719df4b801831b2fb3aa728526e275e82ac9104ae864736f6c63430008110033",
    "linkReferences": {}
  },
  "methodIdentifiers": {
    "authorizeOperator(address,uint256)": "47980aa3",
    "authorizedAmountFor(address,address)": "65aeaa95",
    "balanceOf(address)": "70a08231",
    "burn(address,uint256)": "9dc29fac",
    "decimals()": "313ce567",
    "getData(bytes32)": "54f6127f",
    "getData(bytes32[])": "4e3e6e9c",
    "initialize(string,string,address,uint256)": "f542033f",
    "mint(address,uint256)": "40c10f19",
    "owner()": "8da5cb5b",
    "renounceOwnership()": "715018a6",
    "revokeOperator(address)": "fad8b32a",
    "setData(bytes32,bytes)": "7f23690c",
    "setData(bytes32[],bytes[])": "14a6e293",
    "supportsInterface(bytes4)": "01ffc9a7",
    "tokenSupplyCap()": "52058d8a",
    "totalSupply()": "18160ddd",
    "transfer(address,address,uint256,bool,bytes)": "760d9bba",
    "transferBatch(address[],address[],uint256[],bool[],bytes[])": "2d7667c9",
    "transferOwnership(address)": "f2fde38b"
  },
  "id": 128
}