{
  "abi": [
    {
      "inputs": [],
      "name": "name",
      "outputs": [
        {
          "internalType": "string",
          "name": "",
          "type": "string"
        }
      ],
      "stateMutability": "view",
      "type": "function"
    }
  ],
  "bytecode": {
    "object": "0x608060405234801561001057600080fd5b5060dd8061001f6000396000f3fe6080604052348015600f57600080fd5b506004361060285760003560e01c806306fdde0314602d575b600080fd5b60408051808201825260058152644c554b534f60d81b6020820152905160529190605b565b60405180910390f35b600060208083528351808285015260005b81811015608657858101830151858201604001528201606c565b506000604082860101526040601f19601f830116850101925050509291505056fea2646970667358221220851b19be086d21321f6b6663d66525336150e9f393ca0d42a0c8401e6457434964736f6c63430008110033",
    "linkReferences": {}
  },
  "methodIdentifiers": {
    "name()": "06fdde03"
  },
  "id": 106
}