{
  "abi": [
    {
      "inputs": [],
      "name": "calculateInterfaceERC1155",
      "outputs": [
        {
          "internalType": "bytes4",
          "name": "",
          "type": "bytes4"
        }
      ],
      "stateMutability": "pure",
      "type": "function"
    },
    {
      "inputs": [],
      "name": "calculateInterfaceERC1271",
      "outputs": [
        {
          "internalType": "bytes4",
          "name": "",
          "type": "bytes4"
        }
      ],
      "stateMutability": "pure",
      "type": "function"
    },
    {
      "inputs": [],
      "name": "calculateInterfaceERC20",
      "outputs": [
        {
          "internalType": "bytes4",
          "name": "",
          "type": "bytes4"
        }
      ],
      "stateMutability": "pure",
      "type": "function"
    },
    {
      "inputs": [],
      "name": "calculateInterfaceERC223",
      "outputs": [
        {
          "internalType": "bytes4",
          "name": "",
          "type": "bytes4"
        }
      ],
      "stateMutability": "pure",
      "type": "function"
    },
    {
      "inputs": [],
      "name": "calculateInterfaceERC721",
      "outputs": [
        {
          "internalType": "bytes4",
          "name": "",
          "type": "bytes4"
        }
      ],
      "stateMutability": "pure",
      "type": "function"
    },
    {
      "inputs": [],
      "name": "calculateInterfaceERC721Metadata",
      "outputs": [
        {
          "internalType": "bytes4",
          "name": "",
          "type": "bytes4"
        }
      ],
      "stateMutability": "pure",
      "type": "function"
    },
    {
      "inputs": [],
      "name": "calculateInterfaceERC777",
      "outputs": [
        {
          "internalType": "bytes4",
          "name": "",
          "type": "bytes4"
        }
      ],
      "stateMutability": "pure",
      "type": "function"
    }
  ],
  "bytecode": {
    "object": "0x608060405234801561001057600080fd5b5061011c806100206000396000f3fe6080604052348015600f57600080fd5b506004361060735760003560e01c80639570b90c1160545780639570b90c1460b6578063d0cc5cf21460c2578063d7d690741460ce578063dcf0621f1460da57600080fd5b8063260570e7146078578063815bbbaa14609e578063894faa681460aa575b600080fd5b636cdb3d1360e11b5b6040516001600160e01b0319909116815260200160405180910390f35b6380ac58cd60e01b6081565b6336372b0760e01b6081565b635b5e139f60e01b6081565b6343ea182960e11b6081565b630b135d3f60e11b6081565b633963844f60e21b608156fea2646970667358221220ade75caa1fca98a71fcfdc296fd786dd9d5dd9a280d8e67b85307d43858edbcc64736f6c63430008110033",
    "linkReferences": {}
  },
  "methodIdentifiers": {
    "calculateInterfaceERC1155()": "260570e7",
    "calculateInterfaceERC1271()": "d7d69074",
    "calculateInterfaceERC20()": "894faa68",
    "calculateInterfaceERC223()": "d0cc5cf2",
    "calculateInterfaceERC721()": "815bbbaa",
    "calculateInterfaceERC721Metadata()": "9570b90c",
    "calculateInterfaceERC777()": "dcf0621f"
  },
  "id": 99
}