{
  "abi": [
    {
      "anonymous": false,
      "inputs": [
        {
          "indexed": false,
          "internalType": "uint8",
          "name": "version",
          "type": "uint8"
        }
      ],
      "name": "Initialized",
      "type": "event"
    },
    {
      "inputs": [
        {
          "internalType": "address",
          "name": "newOwner",
          "type": "address"
        }
      ],
      "name": "initialize",
      "outputs": [],
      "stateMutability": "nonpayable",
      "type": "function"
    },
    {
      "inputs": [],
      "name": "owner",
      "outputs": [
        {
          "internalType": "address",
          "name": "",
          "type": "address"
        }
      ],
      "stateMutability": "view",
      "type": "function"
    }
  ],
  "bytecode": {
    "object": "0x608060405234801561001057600080fd5b50610214806100206000396000f3fe608060405234801561001057600080fd5b50600436106100365760003560e01c80638da5cb5b1461003b578063c4d66de814610069575b600080fd5b6000546201000090046001600160a01b03166040516001600160a01b03909116815260200160405180910390f35b61007c6100773660046101ae565b61007e565b005b600054610100900460ff161580801561009e5750600054600160ff909116105b806100b85750303b1580156100b8575060005460ff166001145b61011f5760405162461bcd60e51b815260206004820152602e60248201527f496e697469616c697a61626c653a20636f6e747261637420697320616c72656160448201526d191e481a5b9a5d1a585b1a5e995960921b606482015260840160405180910390fd5b6000805460ff191660011790558015610142576000805461ff0019166101001790555b6000805462010000600160b01b031916620100006001600160a01b0385160217905580156101aa576000805461ff0019169055604051600181527f7f26b83ff96e1f2b6a682f133852f6798a09c465da95921460cefb38474024989060200160405180910390a15b5050565b6000602082840312156101c057600080fd5b81356001600160a01b03811681146101d757600080fd5b939250505056fea2646970667358221220ade81f539bfa4ea04ec4762b99514c1a752c8c84e9bb0915a40bf4ce65da8c7864736f6c63430008110033",
    "linkReferences": {}
  },
  "methodIdentifiers": {
    "initialize(address)": "c4d66de8",
    "owner()": "8da5cb5b"
  },
  "id": 113
}