{
  "abi": [
    {
      "inputs": [],
      "name": "CannotTransferOwnershipToSelf",
      "type": "error"
    },
    {
      "inputs": [],
      "name": "ERC725X_ContractDeploymentFailed",
      "type": "error"
    },
    {
      "inputs": [],
      "name": "ERC725X_CreateOperationsRequireEmptyRecipientAddress",
      "type": "error"
    },
    {
      "inputs": [],
      "name": "ERC725X_ExecuteParametersLengthMismatch",
      "type": "error"
    },
    {
      "inputs": [
        {
          "internalType": "uint256",
          "name": "balance",
          "type": "uint256"
        },
        {
          "internalType": "uint256",
          "name": "value",
          "type": "uint256"
        }
      ],
      "name": "ERC725X_InsufficientBalance",
      "type": "error"
    },
    {
      "inputs": [],
      "name": "ERC725X_MsgValueDisallowedInStaticCall",
      "type": "error"
    },
    {
      "inputs": [],
      "name": "ERC725X_NoContractBytecodeProvided",
      "type": "error"
    },
    {
      "inputs": [
        {
          "internalType": "uint256",
          "name": "operationTypeProvided",
          "type": "uint256"
        }
      ],
      "name": "ERC725X_UnknownOperationType",
      "type": "error"
    },
    {
      "inputs": [
        {
          "internalType": "uint256",
          "name": "dataKeysLength",
          "type": "uint256"
        },
        {
          "internalType": "uint256",
          "name": "dataValuesLength",
          "type": "uint256"
        }
      ],
      "name": "ERC725Y_DataKeysValuesLengthMismatch",
      "type": "error"
    },
    {
      "inputs": [
        {
          "internalType": "uint256",
          "name": "renounceOwnershipStart",
          "type": "uint256"
        },
        {
          "internalType": "uint256",
          "name": "renounceOwnershipEnd",
          "type": "uint256"
        }
      ],
      "name": "NotInRenounceOwnershipInterval",
      "type": "error"
    },
    {
      "anonymous": false,
      "inputs": [
        {
          "indexed": true,
          "internalType": "uint256",
          "name": "operationType",
          "type": "uint256"
        },
        {
          "indexed": true,
          "internalType": "address",
          "name": "contractAddress",
          "type": "address"
        },
        {
          "indexed": true,
          "internalType": "uint256",
          "name": "value",
          "type": "uint256"
        },
        {
          "indexed": false,
          "internalType": "bytes32",
          "name": "salt",
          "type": "bytes32"
        }
      ],
      "name": "ContractCreated",
      "type": "event"
    },
    {
      "anonymous": false,
      "inputs": [
        {
          "indexed": true,
          "internalType": "bytes32",
          "name": "dataKey",
          "type": "bytes32"
        },
        {
          "indexed": false,
          "internalType": "bytes",
          "name": "dataValue",
          "type": "bytes"
        }
      ],
      "name": "DataChanged",
      "type": "event"
    },
    {
      "anonymous": false,
      "inputs": [
        {
          "indexed": true,
          "internalType": "uint256",
          "name": "operationType",
          "type": "uint256"
        },
        {
          "indexed": true,
          "internalType": "address",
          "name": "target",
          "type": "address"
        },
        {
          "indexed": true,
          "internalType": "uint256",
          "name": "value",
          "type": "uint256"
        },
        {
          "indexed": false,
          "internalType": "bytes4",
          "name": "selector",
          "type": "bytes4"
        }
      ],
      "name": "Executed",
      "type": "event"
    },
    {
      "anonymous": false,
      "inputs": [],
      "name": "OwnershipRenounced",
      "type": "event"
    },
    {
      "anonymous": false,
      "inputs": [
        {
          "indexed": true,
          "internalType": "address",
          "name": "previousOwner",
          "type": "address"
        },
        {
          "indexed": true,
          "internalType": "address",
          "name": "newOwner",
          "type": "address"
        }
      ],
      "name": "OwnershipTransferStarted",
      "type": "event"
    },
    {
      "anonymous": false,
      "inputs": [
        {
          "indexed": true,
          "internalType": "address",
          "name": "previousOwner",
          "type": "address"
        },
        {
          "indexed": true,
          "internalType": "address",
          "name": "newOwner",
          "type": "address"
        }
      ],
      "name": "OwnershipTransferred",
      "type": "event"
    },
    {
      "anonymous": false,
      "inputs": [],
      "name": "RenounceOwnershipInitiated",
      "type": "event"
    },
    {
      "anonymous": false,
      "inputs": [
        {
          "indexed": true,
          "internalType": "address",
          "name": "from",
          "type": "address"
        },
        {
          "indexed": true,
          "internalType": "uint256",
          "name": "value",
          "type": "uint256"
        },
        {
          "indexed": true,
          "internalType": "bytes32",
          "name": "typeId",
          "type": "bytes32"
        },
        {
          "indexed": false,
          "internalType": "bytes",
          "name": "receivedData",
          "type": "bytes"
        },
        {
          "indexed": false,
          "internalType": "bytes",
          "name": "returnedValue",
          "type": "bytes"
        }
      ],
      "name": "UniversalReceiver",
      "type": "event"
    },
    {
      "anonymous": false,
      "inputs": [
        {
          "indexed": true,
          "internalType": "address",
          "name": "sender",
          "type": "address"
        },
        {
          "indexed": true,
          "internalType": "uint256",
          "name": "value",
          "type": "uint256"
        }
      ],
      "name": "ValueReceived",
      "type": "event"
    },
    {
      "stateMutability": "payable",
      "type": "fallback"
    },
    {
      "inputs": [],
      "name": "acceptOwnership",
      "outputs": [],
      "stateMutability": "nonpayable",
      "type": "function"
    },
    {
      "inputs": [
        {
          "internalType": "uint256[]",
          "name": "operationsType",
          "type": "uint256[]"
        },
        {
          "internalType": "address[]",
          "name": "targets",
          "type": "address[]"
        },
        {
          "internalType": "uint256[]",
          "name": "values",
          "type": "uint256[]"
        },
        {
          "internalType": "bytes[]",
          "name": "datas",
          "type": "bytes[]"
        }
      ],
      "name": "execute",
      "outputs": [
        {
          "internalType": "bytes[]",
          "name": "",
          "type": "bytes[]"
        }
      ],
      "stateMutability": "payable",
      "type": "function"
    },
    {
      "inputs": [
        {
          "internalType": "uint256",
          "name": "operationType",
          "type": "uint256"
        },
        {
          "internalType": "address",
          "name": "target",
          "type": "address"
        },
        {
          "internalType": "uint256",
          "name": "value",
          "type": "uint256"
        },
        {
          "internalType": "bytes",
          "name": "data",
          "type": "bytes"
        }
      ],
      "name": "execute",
      "outputs": [
        {
          "internalType": "bytes",
          "name": "",
          "type": "bytes"
        }
      ],
      "stateMutability": "payable",
      "type": "function"
    },
    {
      "inputs": [
        {
          "internalType": "bytes32[]",
          "name": "dataKeys",
          "type": "bytes32[]"
        }
      ],
      "name": "getData",
      "outputs": [
        {
          "internalType": "bytes[]",
          "name": "dataValues",
          "type": "bytes[]"
        }
      ],
      "stateMutability": "view",
      "type": "function"
    },
    {
      "inputs": [
        {
          "internalType": "bytes32",
          "name": "dataKey",
          "type": "bytes32"
        }
      ],
      "name": "getData",
      "outputs": [
        {
          "internalType": "bytes",
          "name": "dataValue",
          "type": "bytes"
        }
      ],
      "stateMutability": "view",
      "type": "function"
    },
    {
      "inputs": [],
      "name": "owner",
      "outputs": [
        {
          "internalType": "address",
          "name": "",
          "type": "address"
        }
      ],
      "stateMutability": "view",
      "type": "function"
    },
    {
      "inputs": [],
      "name": "pendingOwner",
      "outputs": [
        {
          "internalType": "address",
          "name": "",
          "type": "address"
        }
      ],
      "stateMutability": "view",
      "type": "function"
    },
    {
      "inputs": [],
      "name": "renounceOwnership",
      "outputs": [],
      "stateMutability": "nonpayable",
      "type": "function"
    },
    {
      "inputs": [
        {
          "internalType": "bytes32[]",
          "name": "dataKeys",
          "type": "bytes32[]"
        },
        {
          "internalType": "bytes[]",
          "name": "dataValues",
          "type": "bytes[]"
        }
      ],
      "name": "setData",
      "outputs": [],
      "stateMutability": "nonpayable",
      "type": "function"
    },
    {
      "inputs": [
        {
          "internalType": "bytes32",
          "name": "dataKey",
          "type": "bytes32"
        },
        {
          "internalType": "bytes",
          "name": "dataValue",
          "type": "bytes"
        }
      ],
      "name": "setData",
      "outputs": [],
      "stateMutability": "nonpayable",
      "type": "function"
    },
    {
      "inputs": [
        {
          "internalType": "bytes4",
          "name": "interfaceId",
          "type": "bytes4"
        }
      ],
      "name": "supportsInterface",
      "outputs": [
        {
          "internalType": "bool",
          "name": "",
          "type": "bool"
        }
      ],
      "stateMutability": "view",
      "type": "function"
    },
    {
      "inputs": [
        {
          "internalType": "address",
          "name": "_newOwner",
          "type": "address"
        }
      ],
      "name": "transferOwnership",
      "outputs": [],
      "stateMutability": "nonpayable",
      "type": "function"
    },
    {
      "inputs": [
        {
          "internalType": "bytes32",
          "name": "typeId",
          "type": "bytes32"
        },
        {
          "internalType": "bytes",
          "name": "receivedData",
          "type": "bytes"
        }
      ],
      "name": "universalReceiver",
      "outputs": [
        {
          "internalType": "bytes",
          "name": "returnedValues",
          "type": "bytes"
        }
      ],
      "stateMutability": "payable",
      "type": "function"
    },
    {
      "stateMutability": "payable",
      "type": "receive"
    }
  ],
  "bytecode": {
    "object": "0x608060405234801561001057600080fd5b5061235d806100206000396000f3fe6080604052600436106100c65760003560e01c80636bb56a141161007f5780637f23690c116100595780637f23690c1461022b5780638da5cb5b1461024b578063e30c39781461027d578063f2fde38b1461029b576100ef565b80636bb56a14146101ee578063715018a61461020157806379ba509714610216576100ef565b806301ffc9a71461011957806313ced88d1461014e57806314a6e2931461016e57806344c028fe1461018e5780634e3e6e9c146101ae57806354f6127f146101ce576100ef565b366100ef5734156100ed576040513490339060008051602061230883398151915290600090a35b005b3415610111576040513490339060008051602061230883398151915290600090a35b6100ed6102bb565b34801561012557600080fd5b5061013961013436600461196c565b610329565b60405190151581526020015b60405180910390f35b61016161015c366004611b7d565b610399565b6040516101459190611cd4565b34801561017a57600080fd5b506100ed610189366004611d36565b6103dc565b6101a161019c366004611d99565b6104a0565b6040516101459190611ded565b3480156101ba57600080fd5b506101616101c9366004611e00565b6104d8565b3480156101da57600080fd5b506101a16101e9366004611e34565b61058b565b6101a16101fc366004611e4d565b610596565b34801561020d57600080fd5b506100ed61075a565b34801561022257600080fd5b506100ed61076c565b34801561023757600080fd5b506100ed610246366004611ec8565b610774565b34801561025757600080fd5b506000546001600160a01b03165b6040516001600160a01b039091168152602001610145565b34801561028957600080fd5b506003546001600160a01b0316610265565b3480156102a757600080fd5b506100ed6102b6366004611f04565b6107be565b60043610156102c657565b60006102dd6000356001600160e01b0319166107d2565b90506001600160a01b0381166102f05750565b36600080373360601b365234601436015260008060343601600080855af13d6000803e80801561031f573d6000f35b3d6000fd5b505050565b60006001600160e01b03198216637050cee960e01b148061035a57506001600160e01b03198216631aed5a8560e21b145b8061037557506001600160e01b031982166394be599960e01b145b80610384575061038482610817565b8061039357506103938261083c565b92915050565b60606103a3610879565b34156103c5576040513490339060008051602061230883398151915290600090a35b6103d1858585856108e2565b90505b949350505050565b6000546001600160a01b03163314610421576004546001600160a01b031633146104215760405162461bcd60e51b815260040161041890611f1f565b60405180910390fd5b805182511461045057815181516040516321d1e13360e11b815260048101929092526024820152604401610418565b60005b82518110156103245761049883828151811061047157610471611f7c565b602002602001015183838151811061048b5761048b611f7c565b6020026020010151610a26565b600101610453565b60606104aa610879565b34156104cc576040513490339060008051602061230883398151915290600090a35b6103d185858585610a9a565b606081516001600160401b038111156104f3576104f3611996565b60405190808252806020026020018201604052801561052657816020015b60608152602001906001900390816105115790505b50905060005b82518110156105855761055783828151811061054a5761054a611f7c565b6020026020010151610b74565b82828151811061056957610569611f7c565b602002602001018190525061057e8160010190565b905061052c565b50919050565b606061039382610b74565b606034156105ba576040513490339060008051602061230883398151915290600090a35b60006105e57f0cfc51aec37c55a4d0b1a65c6255c4bf2fbdf6277f3cc0730c45b828b6db8b47610b74565b9050606060148251106106495760006105fd83611f92565b60601c905061061381631aed5a8560e21b610c16565b1561064757600480546001600160a01b0319166001600160a01b038316908117909155610644908888883334610c9f565b91505b505b6000610662690cfc51aec37c55a4d0b160b01b88610de7565b9050600061066f82610b74565b9050606060148251106106d357600061068783611f92565b60601c905061069d81631aed5a8560e21b610c16565b156106d157600480546001600160a01b0319166001600160a01b0383169081179091556106ce908b8b8b3334610c9f565b91505b505b600480546001600160a01b03191690556040516106f69085908390602001611fc9565b60405160208183030381529060405295508834336001600160a01b03167f9c3ba68eb5742b8e3961aea0afc7371a71bf433c8a67a831803b64c064a178c28b8b8b60405161074693929190612017565b60405180910390a450505050509392505050565b610762610879565b61076a610e33565b565b61076a610f0b565b6000546001600160a01b031633146107b0576004546001600160a01b031633146107b05760405162461bcd60e51b815260040161041890611f1f565b6107ba8282610a26565b5050565b6107c6610879565b6107cf81611018565b50565b6000806107f6696773c5a04a6d4300884b60b11b6001600160e01b03198516610de7565b9050600061080382610b74565b61080c90611f92565b60601c949350505050565b60006001600160e01b0319821663a918fa6b60e01b1480610393575061039382611174565b60008061084f6301ffc9a760e01b6107d2565b90506001600160a01b0381166108685750600092915050565b6108728184610c16565b9392505050565b3361088c6000546001600160a01b031690565b6001600160a01b03161461076a5760405162461bcd60e51b815260206004820181905260248201527f4f776e61626c653a2063616c6c6572206973206e6f7420746865206f776e65726044820152606401610418565b60608351855114158061090357508251845114158061090357508151835114155b1561092157604051633ff55f4d60e01b815260040160405180910390fd5b600085516001600160401b0381111561093c5761093c611996565b60405190808252806020026020018201604052801561096f57816020015b606081526020019060019003908161095a5790505b50905060005b8651811015610a1c576109ee87828151811061099357610993611f7c565b60200260200101518783815181106109ad576109ad611f7c565b60200260200101518784815181106109c7576109c7611f7c565b60200260200101518785815181106109e1576109e1611f7c565b6020026020010151610a9a565b828281518110610a0057610a00611f7c565b6020026020010181905250610a158160010190565b9050610975565b5095945050505050565b6000828152600160205260409020610a3e82826120bf565b50817fece574603820d07bc9b91f2a932baadf4628aabcb8afba49776529c14a6104b261010083511115610a7f57610a7a836000610100611199565b610a81565b825b604051610a8e9190611ded565b60405180910390a25050565b606084610ab357610aac8484846112a6565b90506103d4565b60018503610aed576001600160a01b03841615610ae357604051631820c12560e11b815260040160405180910390fd5b610aac83836113cb565b60028503610b27576001600160a01b03841615610b1d57604051631820c12560e11b815260040160405180910390fd5b610aac83836114c7565b60038503610b58578215610b4e576040516339795e3560e11b815260040160405180910390fd5b610aac84836115ad565b604051631d60ecef60e21b815260048101869052602401610418565b6000818152600160205260409020805460609190610b919061203d565b80601f0160208091040260200160405190810160405280929190818152602001828054610bbd9061203d565b8015610c0a5780601f10610bdf57610100808354040283529160200191610c0a565b820191906000526020600020905b815481529060010190602001808311610bed57829003601f168201915b50505050509050919050565b604080516001600160e01b03198316602480830191909152825180830390910181526044909101909152602080820180516001600160e01b03166301ffc9a760e01b178152825160009392849283928392918391908a617530fa92503d91506000519050828015610c88575060208210155b8015610c945750600081115b979650505050505050565b60606000636bb56a1460e01b878787604051602401610cc09392919061217e565b60408051601f19818403018152918152602080830180516001600160e01b03166001600160e01b03199095169490941790935251610d02928791879101612198565b6040516020818303038152906040529050600080896001600160a01b031683604051610d2e91906121d2565b6000604051808303816000865af19150503d8060008114610d6b576040519150601f19603f3d011682016040523d82523d6000602084013e610d70565b606091505b5091509150610db582826040518060400160405280602081526020017f43616c6c20746f20756e6976657273616c5265636569766572206661696c65648152506116a5565b508051600003610dc55780610dd9565b80806020019051810190610dd991906121ee565b9a9950505050505050505050565b604080516001600160b01b0319841660208201526000602a82018190526001600160601b03198416602c830152918291016040516020818303038152906040529050806103d49061225b565b6002544390600090610e4790606490612295565b90506000610e56606483612295565b905080831115610e935760028390556040517f56272768d104766ae5e663c58927d0a9e47effb40b9a8f6644ac5dfbc9e56f8490600090a1505050565b81831015610ebe57604051638b9bf50760e01b81526004810183905260248101829052604401610418565b610ec860006116de565b60006002819055600380546001600160a01b03191690556040517fd1f66c3d2bc1993a86be5e3d33709d98f0442381befcedd29f578b9b2506b1ce9190a1505050565b6003546001600160a01b03163314610f735760405162461bcd60e51b815260206004820152602560248201527f4c535031343a2063616c6c6572206973206e6f74207468652070656e64696e6760448201526427bbb732b960d91b6064820152608401610418565b6000546003546001600160a01b0391821691610f8f91166116de565b600380546001600160a01b0319169055604080516020810190915260008152610fdb9082907fa124442e1cc7b52d8e2ede2787d43527dc1f3ae0de87f50dd03e27a71834f74c90611743565b6107cf337fe32c7debcb817925ba4883fdbfc52797187f28f73f860641dab1a68d9b32902c60001b60405180602001604052806000815250611743565b306001600160a01b03821603611041576040516343b248cd60e01b815260040160405180910390fd5b600380546001600160a01b0383166001600160a01b031990911617905560006110726000546001600160a01b031690565b9050816001600160a01b0316816001600160a01b03167f38d16b8cac22d99fc7c124b9cd0de2d3fa1faef420bfe791d8c362d765e2270060405160405180910390a36110f1827fee9a7c0924f740a2ca33d59b7f0c2929821ea9837ce043ce91c1823e9c4e52c060001b60405180602001604052806000815250611743565b6000546001600160a01b038281169116146107ba5760405162461bcd60e51b815260206004820152603f60248201527f4c535031343a206e65774f776e6572204d55535420616363657074206f776e6560448201527f727368697020696e2061207365706172617465207472616e73616374696f6e006064820152608401610418565b60006001600160e01b03198216631c537ddf60e21b14806103935750610393826117d4565b6060816111a781601f612295565b10156111e65760405162461bcd60e51b815260206004820152600e60248201526d736c6963655f6f766572666c6f7760901b6044820152606401610418565b6111f08284612295565b845110156112345760405162461bcd60e51b8152602060048201526011602482015270736c6963655f6f75744f66426f756e647360781b6044820152606401610418565b606082158015611253576040519150600082526020820160405261129d565b6040519150601f8416801560200281840101858101878315602002848b0101015b8183101561128c578051835260209283019201611274565b5050858452601f01601f1916604052505b50949350505050565b6060824710156112d2576040516301bf351f60e31b815247600482015260248101849052604401610418565b826001600160a01b03851660007f4810874456b8e6487bd861375cf6abd8e1c8bb5858c8ce36a86a04dabfac199e611309866122a8565b6040516001600160e01b0319909116815260200160405180910390a4600080856001600160a01b0316858560405161134191906121d2565b60006040518083038185875af1925050503d806000811461137e576040519150601f19603f3d011682016040523d82523d6000602084013e611383565b606091505b50915091506113c182826040518060400160405280601681526020017522a9219b991aac1d102ab735b737bbb71022b93937b960511b8152506116a5565b9695505050505050565b6060824710156113f7576040516301bf351f60e31b815247600482015260248101849052604401610418565b81516000036114195760405163b81cd8d960e01b815260040160405180910390fd5b600082516020840185f090506001600160a01b03811661144c57604051630b07489b60e01b815260040160405180910390fd5b6040516001600160601b0319606083901b166020820152603401604051602081830303815290604052915083816001600160a01b031660017fa1fb700aaee2ae4a2ff6f91ce7eba292f89c2f5488b8ec4c5c5c8150692595c36000801b6040516114b891815260200190565b60405180910390a45092915050565b606081516000036114eb5760405163b81cd8d960e01b815260040160405180910390fd5b600061150483602085516114ff91906122db565b611809565b905060006115218460006020875161151c91906122db565b611199565b90506000611530868484611867565b6040516001600160601b0319606083901b166020820152909150603401604051602081830303815290604052935085816001600160a01b031660027fa1fb700aaee2ae4a2ff6f91ce7eba292f89c2f5488b8ec4c5c5c8150692595c38660405161159c91815260200190565b60405180910390a450505092915050565b606060006001600160a01b03841660037f4810874456b8e6487bd861375cf6abd8e1c8bb5858c8ce36a86a04dabfac199e6115e7866122a8565b6040516001600160e01b0319909116815260200160405180910390a4600080846001600160a01b03168460405161161e91906121d2565b600060405180830381855afa9150503d8060008114611659576040519150601f19603f3d011682016040523d82523d6000602084013e61165e565b606091505b509150915061169c82826040518060400160405280601681526020017522a9219b991aac1d102ab735b737bbb71022b93937b960511b8152506116a5565b95945050505050565b606083156116b4575081610872565b8251156116c45782518084602001fd5b8160405162461bcd60e51b81526004016104189190611ded565b6000546001600160a01b038281169116146107cf57600080546001600160a01b038381166001600160a01b0319831681178455604051919092169283917f8be0079c531659141344cd1fd0a4f28419497f9722a3daafe3b4186f6b6457e09190a35050565b61175483631aed5a8560e21b610c16565b1561032457604051631aed5a8560e21b81526001600160a01b03841690636bb56a149061178790859085906004016122ee565b6000604051808303816000875af11580156117a6573d6000803e3d6000fd5b505050506040513d6000823e601f3d908101601f191682016040526117ce91908101906121ee565b50505050565b60006001600160e01b0319821663570ef07360e01b148061039357506301ffc9a760e01b6001600160e01b0319831614610393565b6000611816826020612295565b8351101561185e5760405162461bcd60e51b8152602060048201526015602482015274746f427974657333325f6f75744f66426f756e647360581b6044820152606401610418565b50016020015190565b600080844710156118ba5760405162461bcd60e51b815260206004820152601d60248201527f437265617465323a20696e73756666696369656e742062616c616e63650000006044820152606401610418565b825160000361190b5760405162461bcd60e51b815260206004820181905260248201527f437265617465323a2062797465636f6465206c656e677468206973207a65726f6044820152606401610418565b8383516020850187f590506001600160a01b0381166103d45760405162461bcd60e51b815260206004820152601960248201527f437265617465323a204661696c6564206f6e206465706c6f79000000000000006044820152606401610418565b60006020828403121561197e57600080fd5b81356001600160e01b03198116811461087257600080fd5b634e487b7160e01b600052604160045260246000fd5b604051601f8201601f191681016001600160401b03811182821017156119d4576119d4611996565b604052919050565b60006001600160401b038211156119f5576119f5611996565b5060051b60200190565b600082601f830112611a1057600080fd5b81356020611a25611a20836119dc565b6119ac565b82815260059290921b84018101918181019086841115611a4457600080fd5b8286015b84811015611a5f5780358352918301918301611a48565b509695505050505050565b80356001600160a01b0381168114611a8157600080fd5b919050565b60006001600160401b03821115611a9f57611a9f611996565b50601f01601f191660200190565b600082601f830112611abe57600080fd5b8135611acc611a2082611a86565b818152846020838601011115611ae157600080fd5b816020850160208301376000918101602001919091529392505050565b600082601f830112611b0f57600080fd5b81356020611b1f611a20836119dc565b82815260059290921b84018101918181019086841115611b3e57600080fd5b8286015b84811015611a5f5780356001600160401b03811115611b615760008081fd5b611b6f8986838b0101611aad565b845250918301918301611b42565b60008060008060808587031215611b9357600080fd5b84356001600160401b0380821115611baa57600080fd5b611bb6888389016119ff565b9550602091508187013581811115611bcd57600080fd5b8701601f81018913611bde57600080fd5b8035611bec611a20826119dc565b81815260059190911b8201840190848101908b831115611c0b57600080fd5b928501925b82841015611c3057611c2184611a6a565b82529285019290850190611c10565b97505050506040870135915080821115611c4957600080fd5b611c55888389016119ff565b93506060870135915080821115611c6b57600080fd5b50611c7887828801611afe565b91505092959194509250565b60005b83811015611c9f578181015183820152602001611c87565b50506000910152565b60008151808452611cc0816020860160208601611c84565b601f01601f19169290920160200192915050565b6000602080830181845280855180835260408601915060408160051b870101925083870160005b82811015611d2957603f19888603018452611d17858351611ca8565b94509285019290850190600101611cfb565b5092979650505050505050565b60008060408385031215611d4957600080fd5b82356001600160401b0380821115611d6057600080fd5b611d6c868387016119ff565b93506020850135915080821115611d8257600080fd5b50611d8f85828601611afe565b9150509250929050565b60008060008060808587031215611daf57600080fd5b84359350611dbf60208601611a6a565b92506040850135915060608501356001600160401b03811115611de157600080fd5b611c7887828801611aad565b6020815260006108726020830184611ca8565b600060208284031215611e1257600080fd5b81356001600160401b03811115611e2857600080fd5b6103d4848285016119ff565b600060208284031215611e4657600080fd5b5035919050565b600080600060408486031215611e6257600080fd5b8335925060208401356001600160401b0380821115611e8057600080fd5b818601915086601f830112611e9457600080fd5b813581811115611ea357600080fd5b876020828501011115611eb557600080fd5b6020830194508093505050509250925092565b60008060408385031215611edb57600080fd5b8235915060208301356001600160401b03811115611ef857600080fd5b611d8f85828601611aad565b600060208284031215611f1657600080fd5b61087282611a6a565b6020808252603b908201527f4f6e6c79204f776e6572206f72207265656e746572656420556e69766572736160408201527f6c2052656365697665722044656c656761746520616c6c6f7765640000000000606082015260800190565b634e487b7160e01b600052603260045260246000fd5b805160208201516001600160601b03198082169291906014831015611fc15780818460140360031b1b83161693505b505050919050565b604081526000611fdc6040830185611ca8565b828103602084015261169c8185611ca8565b81835281816020850137506000828201602090810191909152601f909101601f19169091010190565b60408152600061202b604083018587611fee565b82810360208401526113c18185611ca8565b600181811c9082168061205157607f821691505b60208210810361058557634e487b7160e01b600052602260045260246000fd5b601f82111561032457600081815260208120601f850160051c810160208610156120985750805b601f850160051c820191505b818110156120b7578281556001016120a4565b505050505050565b81516001600160401b038111156120d8576120d8611996565b6120ec816120e6845461203d565b84612071565b602080601f83116001811461212157600084156121095750858301515b600019600386901b1c1916600185901b1785556120b7565b600085815260208120601f198616915b8281101561215057888601518255948401946001909101908401612131565b508582101561216e5787850151600019600388901b60f8161c191681555b5050505050600190811b01905550565b8381526040602082015260006103d1604083018486611fee565b600084516121aa818460208901611c84565b60609490941b6001600160601b03191691909301908152601481019190915260340192915050565b600082516121e4818460208701611c84565b9190910192915050565b60006020828403121561220057600080fd5b81516001600160401b0381111561221657600080fd5b8201601f8101841361222757600080fd5b8051612235611a2082611a86565b81815285602083850101111561224a57600080fd5b61169c826020830160208601611c84565b805160208083015191908110156105855760001960209190910360031b1b16919050565b634e487b7160e01b600052601160045260246000fd5b808201808211156103935761039361227f565b805160208201516001600160e01b03198082169291906004831015611fc15760049290920360031b82901b161692915050565b818103818111156103935761039361227f565b8281526040602082015260006103d46040830184611ca856fe7e71433ddf847725166244795048ecf3e3f9f35628254ecbf736056664233493a264697066735822122023ba3a935c48b95bfac0714e9547c4ae686025db452eb7baf2e4daa67e11fb5d64736f6c63430008110033",
    "linkReferences": {}
  },
  "methodIdentifiers": {
    "acceptOwnership()": "79ba5097",
    "execute(uint256,address,uint256,bytes)": "44c028fe",
    "execute(uint256[],address[],uint256[],bytes[])": "13ced88d",
    "getData(bytes32)": "54f6127f",
    "getData(bytes32[])": "4e3e6e9c",
    "owner()": "8da5cb5b",
    "pendingOwner()": "e30c3978",
    "renounceOwnership()": "715018a6",
    "setData(bytes32,bytes)": "7f23690c",
    "setData(bytes32[],bytes[])": "14a6e293",
    "supportsInterface(bytes4)": "01ffc9a7",
    "transferOwnership(address)": "f2fde38b",
    "universalReceiver(bytes32,bytes)": "6bb56a14"
  },
  "id": 85
}