{
  "abi": [
    {
      "inputs": [
        {
          "internalType": "string",
          "name": "b",
          "type": "string"
        }
      ],
      "name": "revertString",
      "outputs": [],
      "stateMutability": "view",
      "type": "function"
    }
  ],
  "bytecode": {
    "object": "0x608060405234801561001057600080fd5b506101b3806100206000396000f3fe608060405234801561001057600080fd5b506004361061002b5760003560e01c8063b678618b14610030575b600080fd5b61004361003e36600461007e565b610045565b005b8060405162461bcd60e51b815260040161005f919061012f565b60405180910390fd5b634e487b7160e01b600052604160045260246000fd5b60006020828403121561009057600080fd5b813567ffffffffffffffff808211156100a857600080fd5b818401915084601f8301126100bc57600080fd5b8135818111156100ce576100ce610068565b604051601f8201601f19908116603f011681019083821181831017156100f6576100f6610068565b8160405282815287602084870101111561010f57600080fd5b826020860160208301376000928101602001929092525095945050505050565b600060208083528351808285015260005b8181101561015c57858101830151858201604001528201610140565b506000604082860101526040601f19601f830116850101925050509291505056fea2646970667358221220a3274711977d431976e305c7bb1d63eedd99c95160f8269826217144ae4b448c64736f6c63430008110033",
    "linkReferences": {}
  },
  "methodIdentifiers": {
    "revertString(string)": "b678618b"
  },
  "id": 111
}