{
  "abi": [
    {
      "inputs": [],
      "stateMutability": "payable",
      "type": "constructor"
    },
    {
      "inputs": [],
      "name": "payableFalse",
      "outputs": [],
      "stateMutability": "nonpayable",
      "type": "function"
    },
    {
      "inputs": [],
      "name": "payableTrue",
      "outputs": [],
      "stateMutability": "payable",
      "type": "function"
    }
  ],
  "bytecode": {
    "object": "0x6080604052606e8060116000396000f3fe60806040526004361060265760003560e01c8063618eea3914602b57806372d2a34c14602d575b600080fd5b005b348015602b57600080fdfea264697066735822122063877200b040340695d7a0912b2af5f4fd2cbe36f5f624244c619b6be7272aee64736f6c63430008110033",
    "linkReferences": {}
  },
  "methodIdentifiers": {
    "payableFalse()": "72d2a34c",
    "payableTrue()": "618eea39"
  },
  "id": 119
}