{
  "abi": [
    {
      "inputs": [],
      "stateMutability": "nonpayable",
      "type": "constructor"
    },
    {
      "inputs": [
        {
          "internalType": "bytes32",
          "name": "",
          "type": "bytes32"
        },
        {
          "internalType": "bytes",
          "name": "",
          "type": "bytes"
        }
      ],
      "name": "isValidSignature",
      "outputs": [
        {
          "internalType": "bytes4",
          "name": "",
          "type": "bytes4"
        }
      ],
      "stateMutability": "pure",
      "type": "function"
    },
    {
      "inputs": [
        {
          "internalType": "bytes4",
          "name": "interfaceId",
          "type": "bytes4"
        }
      ],
      "name": "supportsInterface",
      "outputs": [
        {
          "internalType": "bool",
          "name": "",
          "type": "bool"
        }
      ],
      "stateMutability": "view",
      "type": "function"
    }
  ],
  "bytecode": {
    "object": "0x608060405234801561001057600080fd5b50610021630b135d3f60e11b610026565b6100a9565b6001600160e01b031980821690036100845760405162461bcd60e51b815260206004820152601c60248201527f4552433136353a20696e76616c696420696e7465726661636520696400000000604482015260640160405180910390fd5b6001600160e01b0319166000908152602081905260409020805460ff19166001179055565b6101bc806100b86000396000f3fe608060405234801561001057600080fd5b50600436106100365760003560e01c806301ffc9a71461003b5780631626ba7e14610063575b600080fd5b61004e6100493660046100d9565b610099565b60405190151581526020015b60405180910390f35b61008061007136600461010a565b630b135d3f60e11b9392505050565b6040516001600160e01b0319909116815260200161005a565b60006301ffc9a760e01b6001600160e01b0319831614806100d357506001600160e01b0319821660009081526020819052604090205460ff165b92915050565b6000602082840312156100eb57600080fd5b81356001600160e01b03198116811461010357600080fd5b9392505050565b60008060006040848603121561011f57600080fd5b83359250602084013567ffffffffffffffff8082111561013e57600080fd5b818601915086601f83011261015257600080fd5b81358181111561016157600080fd5b87602082850101111561017357600080fd5b602083019450809350505050925092509256fea26469706673582212206bbc4d1c8dacd846bb16a5f9bb589d5123d990e148efea86d7aefde9d615d1a964736f6c63430008110033",
    "linkReferences": {}
  },
  "methodIdentifiers": {
    "isValidSignature(bytes32,bytes)": "1626ba7e",
    "supportsInterface(bytes4)": "01ffc9a7"
  },
  "id": 124
}