{
  "abi": [
    {
      "inputs": [
        {
          "internalType": "address",
          "name": "account",
          "type": "address"
        },
        {
          "internalType": "bytes4",
          "name": "interfaceId",
          "type": "bytes4"
        }
      ],
      "name": "supportsERC165Interface",
      "outputs": [
        {
          "internalType": "bool",
          "name": "",
          "type": "bool"
        }
      ],
      "stateMutability": "view",
      "type": "function"
    }
  ],
  "bytecode": {
    "object": "0x608060405234801561001057600080fd5b5061017b806100206000396000f3fe608060405234801561001057600080fd5b506004361061002b5760003560e01c80632ba9646214610030575b600080fd5b61004361003e3660046100f3565b610057565b604051901515815260200160405180910390f35b6000610063838361006a565b9392505050565b604080516001600160e01b03198316602480830191909152825180830390910181526044909101909152602080820180516001600160e01b03166301ffc9a760e01b178152825160009392849283928392918391908a617530fa92503d915060005190508280156100dc575060208210155b80156100e85750600081115b979650505050505050565b6000806040838503121561010657600080fd5b82356001600160a01b038116811461011d57600080fd5b915060208301356001600160e01b03198116811461013a57600080fd5b80915050925092905056fea2646970667358221220095a0356133b4529a7f106c06297da02fe600b5ac12c0892b8252d921dd9fa6864736f6c63430008110033",
    "linkReferences": {}
  },
  "methodIdentifiers": {
    "supportsERC165Interface(address,bytes4)": "2ba96462"
  },
  "id": 98
}