{
  "abi": [
    {
      "inputs": [
        {
          "internalType": "bytes32[]",
          "name": "_proof",
          "type": "bytes32[]"
        },
        {
          "internalType": "bytes32",
          "name": "_root",
          "type": "bytes32"
        },
        {
          "internalType": "bytes32",
          "name": "_leaf",
          "type": "bytes32"
        }
      ],
      "name": "verifyMerkleProof",
      "outputs": [
        {
          "internalType": "bool",
          "name": "",
          "type": "bool"
        }
      ],
      "stateMutability": "pure",
      "type": "function"
    }
  ],
  "bytecode": {
    "object": "0x608060405234801561001057600080fd5b50610258806100206000396000f3fe608060405234801561001057600080fd5b506004361061002b5760003560e01c8063ada4fa1814610030575b600080fd5b61004361003e366004610117565b610057565b604051901515815260200160405180910390f35b600061006484848461006c565b949350505050565b6000826100798584610082565b14949350505050565b600081815b84518110156100c7576100b3828683815181106100a6576100a66101e5565b60200260200101516100cf565b9150806100bf816101fb565b915050610087565b509392505050565b60008183106100eb5760008281526020849052604090206100fa565b60008381526020839052604090205b9392505050565b634e487b7160e01b600052604160045260246000fd5b60008060006060848603121561012c57600080fd5b833567ffffffffffffffff8082111561014457600080fd5b818601915086601f83011261015857600080fd5b813560208282111561016c5761016c610101565b8160051b604051601f19603f8301168101818110868211171561019157610191610101565b60405292835281830193508481018201928a8411156101af57600080fd5b948201945b838610156101cd578535855294820194938201936101b4565b9a918901359950506040909701359695505050505050565b634e487b7160e01b600052603260045260246000fd5b60006001820161021b57634e487b7160e01b600052601160045260246000fd5b506001019056fea2646970667358221220b99972a7d14fee8c46aa02544f948723ad6731fa87f0d6a3bd57bfe781e3390a64736f6c63430008110033",
    "linkReferences": {}
  },
  "methodIdentifiers": {
    "verifyMerkleProof(bytes32[],bytes32,bytes32)": "ada4fa18"
  },
  "id": 118
}