{
  "abi": [
    {
      "inputs": [
        {
          "internalType": "address payable",
          "name": "account_",
          "type": "address"
        },
        {
          "internalType": "address",
          "name": "keyManager_",
          "type": "address"
        }
      ],
      "stateMutability": "nonpayable",
      "type": "constructor"
    },
    {
      "inputs": [],
      "name": "sendOneLyxHardcoded",
      "outputs": [
        {
          "internalType": "bytes",
          "name": "",
          "type": "bytes"
        }
      ],
      "stateMutability": "nonpayable",
      "type": "function"
    },
    {
      "inputs": [],
      "name": "sendOneLyxHardcodedRawCall",
      "outputs": [
        {
          "internalType": "bool",
          "name": "",
          "type": "bool"
        }
      ],
      "stateMutability": "nonpayable",
      "type": "function"
    },
    {
      "inputs": [
        {
          "internalType": "address",
          "name": "_recipient",
          "type": "address"
        }
      ],
      "name": "sendOneLyxToRecipient",
      "outputs": [
        {
          "internalType": "bytes",
          "name": "",
          "type": "bytes"
        }
      ],
      "stateMutability": "nonpayable",
      "type": "function"
    },
    {
      "inputs": [
        {
          "internalType": "address",
          "name": "_recipient",
          "type": "address"
        }
      ],
      "name": "sendOneLyxToRecipientRawCall",
      "outputs": [
        {
          "internalType": "bool",
          "name": "",
          "type": "bool"
        }
      ],
      "stateMutability": "nonpayable",
      "type": "function"
    },
    {
      "inputs": [],
      "name": "setComputedKey",
      "outputs": [
        {
          "internalType": "bytes",
          "name": "",
          "type": "bytes"
        }
      ],
      "stateMutability": "nonpayable",
      "type": "function"
    },
    {
      "inputs": [
        {
          "internalType": "bytes32",
          "name": "_key",
          "type": "bytes32"
        },
        {
          "internalType": "bytes",
          "name": "_value",
          "type": "bytes"
        }
      ],
      "name": "setComputedKeyFromParams",
      "outputs": [
        {
          "internalType": "bytes",
          "name": "",
          "type": "bytes"
        }
      ],
      "stateMutability": "nonpayable",
      "type": "function"
    },
    {
      "inputs": [
        {
          "internalType": "bytes32",
          "name": "_key",
          "type": "bytes32"
        },
        {
          "internalType": "bytes",
          "name": "_value",
          "type": "bytes"
        }
      ],
      "name": "setComputedKeyFromParamsRawCall",
      "outputs": [
        {
          "internalType": "bool",
          "name": "",
          "type": "bool"
        }
      ],
      "stateMutability": "nonpayable",
      "type": "function"
    },
    {
      "inputs": [],
      "name": "setComputedKeyRawCall",
      "outputs": [
        {
          "internalType": "bool",
          "name": "",
          "type": "bool"
        }
      ],
      "stateMutability": "nonpayable",
      "type": "function"
    },
    {
      "inputs": [],
      "name": "setHardcodedKey",
      "outputs": [
        {
          "internalType": "bytes",
          "name": "",
          "type": "bytes"
        }
      ],
      "stateMutability": "nonpayable",
      "type": "function"
    },
    {
      "inputs": [],
      "name": "setHardcodedKeyRawCall",
      "outputs": [
        {
          "internalType": "bool",
          "name": "",
          "type": "bool"
        }
      ],
      "stateMutability": "nonpayable",
      "type": "function"
    }
  ],
  "bytecode": {
    "object": "0x608060405234801561001057600080fd5b50604051610b8e380380610b8e83398101604081905261002f91610078565b600180546001600160a01b039384166001600160a01b031991821617909155600080549290931691161790556100b2565b6001600160a01b038116811461007557600080fd5b50565b6000806040838503121561008b57600080fd5b825161009681610060565b60208401519092506100a781610060565b809150509250929050565b610acd806100c16000396000f3fe608060405234801561001057600080fd5b506004361061009e5760003560e01c8063612ffb6511610066578063612ffb65146100fc57806379e4fd5914610104578063872ddc3a14610117578063d07d71f01461012a578063dfba73511461013d57600080fd5b80633b2ba77b146100a35780633b40ea67146100c15780633ec0434a146100c957806344b19119146100dc57806347b02aee146100f4575b600080fd5b6100ab610145565b6040516100b89190610881565b60405180910390f35b6100ab61025b565b6100ab6100d736600461090a565b6102e5565b6100e46103b7565b60405190151581526020016100b8565b6100ab61050a565b6100e46105fe565b6100ab610112366004610994565b61072f565b6100e461012536600461090a565b61075d565b6100e4610138366004610994565b61077b565b6100e46107a8565b604080518082018252600a815269536f6d652076616c756560b01b602082015290516060917f562d53c1631c0c1620e183763f5f6356addcf78f26cbbd0b9eb7061d7c897ea191600090631fc8da4360e21b906101a890859085906024016109bd565b60408051601f198184030181529181526020820180516001600160e01b03166001600160e01b03199094169390931790925260005491516304e2f55f60e11b81529092506001600160a01b03909116906309c5eabe9061020c908490600401610881565b6000604051808303816000875af115801561022b573d6000803e3d6000fd5b505050506040513d6000823e601f3d908101601f1916820160405261025391908101906109d6565b935050505090565b6060600060405160200161027d9067536f6d65204b657960c01b815260080190565b60405160208183030381529060405280519060200120905060006040516020016102b79069536f6d652076616c756560b01b8152600a0190565b60405160208183030381529060405290506000637f23690c60e01b83836040516024016101a89291906109bd565b60606000637f23690c60e01b84846040516024016103049291906109bd565b60408051601f198184030181529181526020820180516001600160e01b03166001600160e01b03199094169390931790925260005491516304e2f55f60e11b81529092506001600160a01b03909116906309c5eabe90610368908490600401610881565b6000604051808303816000875af1158015610387573d6000803e3d6000fd5b505050506040513d6000823e601f3d908101601f191682016040526103af91908101906109d6565b949350505050565b604080518082018252600a815269536f6d652076616c756560b01b602082015290516000917f562d53c1631c0c1620e183763f5f6356addcf78f26cbbd0b9eb7061d7c897ea1918390631fc8da4360e21b9061041990859085906024016109bd565b60408051601f198184030181529181526020820180516001600160e01b03166001600160e01b03199094169390931790925290519091506000906304e2f55f60e11b9061046a908490602401610881565b60408051601f198184030181529181526020820180516001600160e01b03166001600160e01b031990941693909317909252600080549251919350916001600160a01b0316906104bb908490610a4d565b6000604051808303816000865af19150503d80600081146104f8576040519150601f19603f3d011682016040523d82523d6000602084013e6104fd565b606091505b5090979650505050505050565b604051606090670de0b6b3a764000090600090632260147f60e11b9061054c90839073cafecafecafecafecafecafecafecafecafecafe908690602401610a69565b60408051601f198184030181529181526020820180516001600160e01b03166001600160e01b03199094169390931790925260005491516304e2f55f60e11b81529092506001600160a01b03909116906309c5eabe906105b0908490600401610881565b6000604051808303816000875af11580156105cf573d6000803e3d6000fd5b505050506040513d6000823e601f3d908101601f191682016040526105f791908101906109d6565b9250505090565b604051600090670de0b6b3a7640000908290632260147f60e11b9061063f90839073cafecafecafecafecafecafecafecafecafecafe908690602401610a69565b60408051601f198184030181529181526020820180516001600160e01b03166001600160e01b03199094169390931790925290519091506000906304e2f55f60e11b90610690908490602401610881565b60408051601f198184030181529181526020820180516001600160e01b03166001600160e01b031990941693909317909252600080549251919350916001600160a01b0316906106e1908490610a4d565b6000604051808303816000865af19150503d806000811461071e576040519150601f19603f3d011682016040523d82523d6000602084013e610723565b606091505b50909695505050505050565b604051606090670de0b6b3a764000090600090632260147f60e11b9061030490839087908690602401610a69565b600080637f23690c60e01b84846040516024016104199291906109bd565b604051600090670de0b6b3a7640000908290632260147f60e11b9061041990839087908690602401610a69565b6000806040516020016107c99067536f6d65204b657960c01b815260080190565b60405160208183030381529060405280519060200120905060006040516020016108039069536f6d652076616c756560b01b8152600a0190565b60405160208183030381529060405290506000637f23690c60e01b83836040516024016104199291906109bd565b60005b8381101561084c578181015183820152602001610834565b50506000910152565b6000815180845261086d816020860160208601610831565b601f01601f19169290920160200192915050565b6020815260006108946020830184610855565b9392505050565b634e487b7160e01b600052604160045260246000fd5b604051601f8201601f1916810167ffffffffffffffff811182821017156108da576108da61089b565b604052919050565b600067ffffffffffffffff8211156108fc576108fc61089b565b50601f01601f191660200190565b6000806040838503121561091d57600080fd5b82359150602083013567ffffffffffffffff81111561093b57600080fd5b8301601f8101851361094c57600080fd5b803561095f61095a826108e2565b6108b1565b81815286602083850101111561097457600080fd5b816020840160208301376000602083830101528093505050509250929050565b6000602082840312156109a657600080fd5b81356001600160a01b038116811461089457600080fd5b8281526040602082015260006103af6040830184610855565b6000602082840312156109e857600080fd5b815167ffffffffffffffff8111156109ff57600080fd5b8201601f81018413610a1057600080fd5b8051610a1e61095a826108e2565b818152856020838501011115610a3357600080fd5b610a44826020830160208601610831565b95945050505050565b60008251610a5f818460208701610831565b9190910192915050565b9283526001600160a01b03919091166020830152604082015260806060820181905260009082015260a0019056fea2646970667358221220c80beb72718cc6aeb1edb31885e618f02e9a432488b230dcdf3641e11222dae764736f6c63430008110033",
    "linkReferences": {}
  },
  "methodIdentifiers": {
    "sendOneLyxHardcoded()": "47b02aee",
    "sendOneLyxHardcodedRawCall()": "612ffb65",
    "sendOneLyxToRecipient(address)": "79e4fd59",
    "sendOneLyxToRecipientRawCall(address)": "d07d71f0",
    "setComputedKey()": "3b40ea67",
    "setComputedKeyFromParams(bytes32,bytes)": "3ec0434a",
    "setComputedKeyFromParamsRawCall(bytes32,bytes)": "872ddc3a",
    "setComputedKeyRawCall()": "dfba7351",
    "setHardcodedKey()": "3b2ba77b",
    "setHardcodedKeyRawCall()": "44b19119"
  },
  "id": 100
}