{
  "abi": [
    {
      "inputs": [
        {
          "internalType": "address",
          "name": "target_",
          "type": "address"
        }
      ],
      "stateMutability": "nonpayable",
      "type": "constructor"
    },
    {
      "inputs": [
        {
          "internalType": "bytes32",
          "name": "dataKey",
          "type": "bytes32"
        },
        {
          "internalType": "bytes",
          "name": "invalidValue",
          "type": "bytes"
        }
      ],
      "name": "AddressPermissionArrayIndexValueNotAnAddress",
      "type": "error"
    },
    {
      "inputs": [],
      "name": "BatchExecuteParamsLengthMismatch",
      "type": "error"
    },
    {
      "inputs": [],
      "name": "BatchExecuteRelayCallParamsLengthMismatch",
      "type": "error"
    },
    {
      "inputs": [
        {
          "internalType": "uint256",
          "name": "invalidLength",
          "type": "uint256"
        }
      ],
      "name": "InvalidCompactByteArrayLengthElement",
      "type": "error"
    },
    {
      "inputs": [
        {
          "internalType": "bytes4",
          "name": "invalidFunction",
          "type": "bytes4"
        }
      ],
      "name": "InvalidERC725Function",
      "type": "error"
    },
    {
      "inputs": [
        {
          "internalType": "bytes",
          "name": "allowedCallsValue",
          "type": "bytes"
        }
      ],
      "name": "InvalidEncodedAllowedCalls",
      "type": "error"
    },
    {
      "inputs": [
        {
          "internalType": "bytes",
          "name": "value",
          "type": "bytes"
        }
      ],
      "name": "InvalidEncodedAllowedERC725YDataKeys",
      "type": "error"
    },
    {
      "inputs": [],
      "name": "InvalidLSP6Target",
      "type": "error"
    },
    {
      "inputs": [
        {
          "internalType": "address",
          "name": "signer",
          "type": "address"
        },
        {
          "internalType": "uint256",
          "name": "invalidNonce",
          "type": "uint256"
        },
        {
          "internalType": "bytes",
          "name": "signature",
          "type": "bytes"
        }
      ],
      "name": "InvalidRelayNonce",
      "type": "error"
    },
    {
      "inputs": [
        {
          "internalType": "address",
          "name": "from",
          "type": "address"
        }
      ],
      "name": "InvalidWhitelistedCall",
      "type": "error"
    },
    {
      "inputs": [
        {
          "internalType": "uint256",
          "name": "totalValues",
          "type": "uint256"
        },
        {
          "internalType": "uint256",
          "name": "msgValue",
          "type": "uint256"
        }
      ],
      "name": "LSP6BatchExcessiveValueSent",
      "type": "error"
    },
    {
      "inputs": [
        {
          "internalType": "uint256",
          "name": "totalValues",
          "type": "uint256"
        },
        {
          "internalType": "uint256",
          "name": "msgValue",
          "type": "uint256"
        }
      ],
      "name": "LSP6BatchInsufficientValueSent",
      "type": "error"
    },
    {
      "inputs": [
        {
          "internalType": "address",
          "name": "from",
          "type": "address"
        }
      ],
      "name": "NoCallsAllowed",
      "type": "error"
    },
    {
      "inputs": [
        {
          "internalType": "address",
          "name": "from",
          "type": "address"
        }
      ],
      "name": "NoERC725YDataKeysAllowed",
      "type": "error"
    },
    {
      "inputs": [
        {
          "internalType": "address",
          "name": "from",
          "type": "address"
        }
      ],
      "name": "NoPermissionsSet",
      "type": "error"
    },
    {
      "inputs": [
        {
          "internalType": "address",
          "name": "from",
          "type": "address"
        },
        {
          "internalType": "address",
          "name": "to",
          "type": "address"
        },
        {
          "internalType": "bytes4",
          "name": "selector",
          "type": "bytes4"
        }
      ],
      "name": "NotAllowedCall",
      "type": "error"
    },
    {
      "inputs": [
        {
          "internalType": "address",
          "name": "from",
          "type": "address"
        },
        {
          "internalType": "bytes32",
          "name": "disallowedKey",
          "type": "bytes32"
        }
      ],
      "name": "NotAllowedERC725YDataKey",
      "type": "error"
    },
    {
      "inputs": [
        {
          "internalType": "address",
          "name": "from",
          "type": "address"
        },
        {
          "internalType": "string",
          "name": "permission",
          "type": "string"
        }
      ],
      "name": "NotAuthorised",
      "type": "error"
    },
    {
      "inputs": [
        {
          "internalType": "bytes32",
          "name": "dataKey",
          "type": "bytes32"
        }
      ],
      "name": "NotRecognisedPermissionKey",
      "type": "error"
    },
    {
      "inputs": [],
      "name": "ZeroDataKeyNotAllowed",
      "type": "error"
    },
    {
      "anonymous": false,
      "inputs": [
        {
          "indexed": true,
          "internalType": "bytes4",
          "name": "selector",
          "type": "bytes4"
        },
        {
          "indexed": true,
          "internalType": "uint256",
          "name": "value",
          "type": "uint256"
        }
      ],
      "name": "Executed",
      "type": "event"
    },
    {
      "inputs": [
        {
          "internalType": "bytes",
          "name": "payload",
          "type": "bytes"
        }
      ],
      "name": "execute",
      "outputs": [
        {
          "internalType": "bytes",
          "name": "",
          "type": "bytes"
        }
      ],
      "stateMutability": "payable",
      "type": "function"
    },
    {
      "inputs": [
        {
          "internalType": "uint256[]",
          "name": "values",
          "type": "uint256[]"
        },
        {
          "internalType": "bytes[]",
          "name": "payloads",
          "type": "bytes[]"
        }
      ],
      "name": "execute",
      "outputs": [
        {
          "internalType": "bytes[]",
          "name": "",
          "type": "bytes[]"
        }
      ],
      "stateMutability": "payable",
      "type": "function"
    },
    {
      "inputs": [
        {
          "internalType": "bytes",
          "name": "signature",
          "type": "bytes"
        },
        {
          "internalType": "uint256",
          "name": "nonce",
          "type": "uint256"
        },
        {
          "internalType": "bytes",
          "name": "payload",
          "type": "bytes"
        }
      ],
      "name": "executeRelayCall",
      "outputs": [
        {
          "internalType": "bytes",
          "name": "",
          "type": "bytes"
        }
      ],
      "stateMutability": "payable",
      "type": "function"
    },
    {
      "inputs": [
        {
          "internalType": "bytes[]",
          "name": "signatures",
          "type": "bytes[]"
        },
        {
          "internalType": "uint256[]",
          "name": "nonces",
          "type": "uint256[]"
        },
        {
          "internalType": "uint256[]",
          "name": "values",
          "type": "uint256[]"
        },
        {
          "internalType": "bytes[]",
          "name": "payloads",
          "type": "bytes[]"
        }
      ],
      "name": "executeRelayCall",
      "outputs": [
        {
          "internalType": "bytes[]",
          "name": "",
          "type": "bytes[]"
        }
      ],
      "stateMutability": "payable",
      "type": "function"
    },
    {
      "inputs": [
        {
          "internalType": "address",
          "name": "from",
          "type": "address"
        },
        {
          "internalType": "uint128",
          "name": "channelId",
          "type": "uint128"
        }
      ],
      "name": "getNonce",
      "outputs": [
        {
          "internalType": "uint256",
          "name": "",
          "type": "uint256"
        }
      ],
      "stateMutability": "view",
      "type": "function"
    },
    {
      "inputs": [
        {
          "internalType": "bytes32",
          "name": "dataHash",
          "type": "bytes32"
        },
        {
          "internalType": "bytes",
          "name": "signature",
          "type": "bytes"
        }
      ],
      "name": "isValidSignature",
      "outputs": [
        {
          "internalType": "bytes4",
          "name": "magicValue",
          "type": "bytes4"
        }
      ],
      "stateMutability": "view",
      "type": "function"
    },
    {
      "inputs": [
        {
          "internalType": "bytes4",
          "name": "interfaceId",
          "type": "bytes4"
        }
      ],
      "name": "supportsInterface",
      "outputs": [
        {
          "internalType": "bool",
          "name": "",
          "type": "bool"
        }
      ],
      "stateMutability": "view",
      "type": "function"
    },
    {
      "inputs": [],
      "name": "target",
      "outputs": [
        {
          "internalType": "address",
          "name": "",
          "type": "address"
        }
      ],
      "stateMutability": "view",
      "type": "function"
    }
  ],
  "bytecode": {
    "object": "0x60806040523480156200001157600080fd5b5060405162002f7e38038062002f7e833981016040819052620000349162000089565b6001600160a01b0381166200005c5760405163fc85457960e01b815260040160405180910390fd5b600080546001600160a01b0319166001600160a01b038316179055620000826001600255565b50620000bb565b6000602082840312156200009c57600080fd5b81516001600160a01b0381168114620000b457600080fd5b9392505050565b612eb380620000cb6000396000f3fe60806040526004361061007b5760003560e01c8063b44581d91161004e578063b44581d914610121578063bd68663a1461018d578063bf3e1f7b146101ad578063d4b83992146101c057600080fd5b806301ffc9a71461008057806309c5eabe146100b55780631626ba7e146100d5578063902d5fa01461010e575b600080fd5b34801561008c57600080fd5b506100a061009b3660046124c1565b6101f8565b60405190151581526020015b60405180910390f35b6100c86100c336600461252c565b61024a565b6040516100ac91906125bd565b3480156100e157600080fd5b506100f56100f0366004612693565b61025e565b6040516001600160e01b031990911681526020016100ac565b6100c861011c3660046126d9565b6102b6565b34801561012d57600080fd5b5061017f61013c366004612748565b6001600160a01b03821660009081526001602090815260408083206001600160801b03851684529091529020546001600160801b0319608083901b161792915050565b6040519081526020016100ac565b6101a061019b36600461288a565b6102ce565b6040516100ac9190612948565b6101a06101bb3660046129aa565b610499565b3480156101cc57600080fd5b506000546101e0906001600160a01b031681565b6040516001600160a01b0390911681526020016100ac565b60006001600160e01b03198216633ed0dd0560e21b148061022957506001600160e01b03198216630b135d3f60e11b145b8061024457506301ffc9a760e01b6001600160e01b03198316145b92915050565b606061025734848461060f565b9392505050565b60008061026b848461063e565b60005490915061029390622000009061028d906001600160a01b031684610662565b81161490565b6102a5576001600160e01b03196102ae565b630b135d3f60e11b5b949350505050565b60606102c585853486866106fd565b95945050505050565b8651606090861415806102e15750858414155b806102ec5750838214155b1561030a5760405163b4d50d2160e01b815260040160405180910390fd5b6000826001600160401b03811115610324576103246125d0565b60405190808252806020026020018201604052801561035757816020015b60608152602001906001900390816103425790505b5090506000805b84811015610461573488888381811061037957610379612a09565b905060200201358361038b9190612a35565b92508211156103bb57604051630c28c92b60e21b8152600481018390523460248201526044015b60405180910390fd5b6104338b82815181106103d0576103d0612a09565b60200260200101518b8b848181106103ea576103ea612a09565b905060200201358a8a8581811061040357610403612a09565b9050602002013589898681811061041c5761041c612a09565b905060200281019061042e9190612a48565b6106fd565b83828151811061044557610445612a09565b602002602001018190525061045a8160010190565b905061035e565b503481101561048c5760405163528c345b60e11b8152600481018290523460248201526044016103b2565b5098975050505050505050565b60608382146104bb576040516355a187db60e01b815260040160405180910390fd5b6000826001600160401b038111156104d5576104d56125d0565b60405190808252806020026020018201604052801561050857816020015b60608152602001906001900390816104f35790505b5090506000805b848110156105da573488888381811061052a5761052a612a09565b905060200201358361053c9190612a35565b925082111561056757604051630c28c92b60e21b8152600481018390523460248201526044016103b2565b6105ac88888381811061057c5761057c612a09565b9050602002013587878481811061059557610595612a09565b90506020028101906105a79190612a48565b61060f565b8382815181106105be576105be612a09565b60200260200101819052506105d38160010190565b905061050f565b50348110156106055760405163528c345b60e11b8152600481018290523460248201526044016103b2565b5095945050505050565b606061061a336107e5565b61062533848461081f565b6000610632858585610c10565b90506102ae6001600255565b600080600061064d8585610d12565b9150915061065a81610d57565b509392505050565b6000806001600160a01b0384166354f6127f61068f694b80742de2bf82acb36360b01b606087901b610f0d565b6040518263ffffffff1660e01b81526004016106ad91815260200190565b600060405180830381865afa1580156106ca573d6000803e3d6000fd5b505050506040513d6000823e601f3d908101601f191682016040526106f29190810190612a8e565b90506102ae81612afb565b606060006006468787878760405160200161071d96959493929190612b22565b60408051601f19818403018152919052905060006107458861073f3085610f59565b9061063e565b9050610750816107e5565b61075a8188610f8c565b61077d5780878960405163c9bd9eb960e01b81526004016103b293929190612b51565b6001600160a01b038116600090815260016020908152604080832060808b901c845290915281208054916107b083612b78565b91905055506107c081868661081f565b60006107cd878787610c10565b90506107d96001600255565b98975050505050505050565b60028054036108175760008054610805906001600160a01b031683610662565b905061081382826080610fca565b5050565b600280555b50565b600061082b8284612b91565b6000805491925090610846906001600160a01b031686610662565b90508061087157604051637949029560e11b81526001600160a01b03861660048201526024016103b2565b63203725bd60e21b6001600160e01b03198316016109b3576000806108998560048189612bc1565b8101906108a69190612693565b9092509050816108c957604051635bb17ddd60e11b815260040160405180910390fd5b6f1067922fc924ae78cd655932cd9cfb3d60811b6001600160801b03198316016108fe576108f982828986611002565b6109ac565b65b47f8bd21d4160d01b6001600160d01b0319831601610924576108f9828289866111b3565b7f0cfc51aec37c55a4d0b1a65c6255c4bf2fbdf6277f3cc0730c45b828b6db8b4782148061096857506001600160a01b03198216690cfc51aec37c55a4d0b160b01b145b15610978576108f9828885611335565b69188c3a5fb592bcff77b560b11b6001600160a01b03198316016109a1576108f98288856113ca565b6109ac87848461145f565b5050610c09565b63eb591d6d60e01b6001600160e01b0319831601610b7b576000806109db8560048189612bc1565b8101906109e89190612beb565b915091506000805b8351811015610b61576000848281518110610a0d57610a0d612a09565b602002602001015190506000848381518110610a2b57610a2b612a09565b602002602001015190506000801b8203610a5857604051635bb17ddd60e11b815260040160405180910390fd5b6f1067922fc924ae78cd655932cd9cfb3d60811b6001600160801b0319831601610aaf57610a8882828d8a611002565b6000801b868481518110610a9e57610a9e612a09565b602002602001018181525050610b57565b65b47f8bd21d4160d01b6001600160d01b0319831601610ad557610a8882828d8a6111b3565b7f0cfc51aec37c55a4d0b1a65c6255c4bf2fbdf6277f3cc0730c45b828b6db8b47821480610b1957506001600160a01b03198216690cfc51aec37c55a4d0b160b01b145b15610b2957610a88828c89611335565b69188c3a5fb592bcff77b560b11b6001600160a01b0319831601610b5257610a88828c896113ca565b600193505b50506001016109f0565b508015610b7357610b738885856114a2565b505050610c09565b635d9feb8160e11b6001600160e01b0319831601610ba457610b9f858286866114e5565b610c09565b6001600160e01b0319821663f2fde38b60e01b1480610bd357506001600160e01b031982166379ba509760e01b145b15610be457610b9f85826001610fca565b604051630aea214760e21b81526001600160e01b0319831660048201526024016103b2565b5050505050565b606083610c1d8385612b91565b6001600160e01b0319167f4004d18dc05f04c061c306cbb394d4083af494786ab828142d6118ab2c43a49260405160405180910390a36000805481906001600160a01b0316865a908787604051610c75929190612c99565b600060405180830381858888f193505050503d8060008114610cb3576040519150601f19603f3d011682016040523d82523d6000602084013e610cb8565b606091505b50915091506000610ce28383604051806080016040528060438152602001612e3b60439139611700565b90508051600003610cf35780610d07565b80806020019051810190610d079190612a8e565b979650505050505050565b6000808251604103610d485760208301516040840151606085015160001a610d3c87828585611739565b94509450505050610d50565b506000905060025b9250929050565b6000816004811115610d6b57610d6b612ca9565b03610d735750565b6001816004811115610d8757610d87612ca9565b03610dd45760405162461bcd60e51b815260206004820152601860248201527f45434453413a20696e76616c6964207369676e6174757265000000000000000060448201526064016103b2565b6002816004811115610de857610de8612ca9565b03610e355760405162461bcd60e51b815260206004820152601f60248201527f45434453413a20696e76616c6964207369676e6174757265206c656e6774680060448201526064016103b2565b6003816004811115610e4957610e49612ca9565b03610ea15760405162461bcd60e51b815260206004820152602260248201527f45434453413a20696e76616c6964207369676e6174757265202773272076616c604482015261756560f01b60648201526084016103b2565b6004816004811115610eb557610eb5612ca9565b0361081c5760405162461bcd60e51b815260206004820152602260248201527f45434453413a20696e76616c6964207369676e6174757265202776272076616c604482015261756560f01b60648201526084016103b2565b604080516001600160b01b0319841660208201526000602a82018190526001600160601b03198416602c830152918291016040516020818303038152906040529050806102ae90612afb565b60008282604051602001610f6e929190612cbf565b60405160208183030381529060405280519060200120905092915050565b6001600160a01b0382166000908152600160209081526040808320608085901c8452909152812054610fc2600160801b84612cfe565b149392505050565b8082168114610ffd576000610fde82611826565b90508381604051631ded6b7360e11b81526004016103b2929190612d20565b505050565b7f20cf245f92495cf19acab2659b39f679e0f76aba35a7394b241ce5a0cc734f1d84016110df57600080546040516354f6127f60e01b8152600481018790526001600160a01b03909116906354f6127f90602401600060405180830381865afa158015611073573d6000803e3d6000fd5b505050506040513d6000823e601f3d908101601f1916820160405261109b9190810190612a8e565b6110a490612afb565b905060006110b185612afb565b9050818111156110cc576110c784846002610fca565b6110d8565b6110d884846004610fca565b50506111ad565b600080546040516354f6127f60e01b8152600481018790526001600160a01b03909116906354f6127f90602401600060405180830381865afa158015611129573d6000803e3d6000fd5b505050506040513d6000823e601f3d908101601f191682016040526111519190810190612a8e565b9050805160000361116d5761116883836002610fca565b611179565b61117983836004610fca565b83511580159061118b57508351601414155b15610c095784846040516311e95f4760e31b81526004016103b2929190612d44565b50505050565b69b47f8bd21d407d534c9d60b01b6001600160a01b03198516016111e1576111dc848383611b2a565b6111ad565b6001600160a01b03198416694b80742de2bf393a64c760b01b148061121c57506001600160a01b03198416694b80742de2bf866c291160b01b145b1561131957825115801581611237575061123584611bc2565b155b156112905769b47f8bd21d40c6c59b3960b01b6001600160a01b0319861601611275578360405163187e77ab60e01b81526004016103b291906125bd565b83604051632786feed60e11b81526004016103b291906125bd565b600080546040516354f6127f60e01b8152600481018890526001600160a01b03909116906354f6127f90602401600060405180830381865afa1580156112da573d6000803e3d6000fd5b505050506040513d6000823e601f3d908101601f191682016040526113029190810190612a8e565b905080516000036110cc576110c784846002610fca565b604051630f7d735b60e01b8152600481018590526024016103b2565b600080546040516354f6127f60e01b8152600481018690526001600160a01b03909116906354f6127f90602401600060405180830381865afa15801561137f573d6000803e3d6000fd5b505050506040513d6000823e601f3d908101601f191682016040526113a79190810190612a8e565b905080516000036113be576111dc83836020610fca565b6111ad83836040610fca565b600080546040516354f6127f60e01b8152600481018690526001600160a01b03909116906354f6127f90602401600060405180830381865afa158015611414573d6000803e3d6000fd5b505050506040513d6000823e601f3d908101601f1916820160405261143c9190810190612a8e565b90508051600003611453576111dc83836008610fca565b6111ad83836010610fca565b620200008083160361147057505050565b61147e838362040000610fca565b60008054611495906001600160a01b031685611c49565b90506111ad848383611cd6565b62020000808316036114b357505050565b6114c1838362040000610fca565b600080546114d8906001600160a01b031685611c49565b90506111ad848383611e18565b60006114f5602460048486612bc1565b6114fe91612d5d565b90506005811061155f5760405162461bcd60e51b815260206004820152602660248201527f4c5350364b65794d616e616765723a20696e76616c6964206f7065726174696f6044820152656e207479706560d01b60648201526084016103b2565b600481036115d55760405162461bcd60e51b815260206004820152603e60248201527f4c5350364b65794d616e616765723a206f7065726174696f6e2044454c45474160448201527f544543414c4c2069732063757272656e746c7920646973616c6c6f776564000060648201526084016103b2565b60006115e5606460448587612bc1565b6115ee91612d5d565b9050600060018314806116015750600283145b905060a484116000826116265761162161161a8661203c565b8981161490565b611629565b60005b9050818015611636575080155b1561164e5761164e89896116498861206e565b610fca565b610100888116148415801590611662575080155b15611674576116748a8a610200610fca565b8315611685575050505050506111ad565b81801561168f5750825b8015611699575084155b156116a9575050505050506111ad565b8080156116b4575082155b80156116bf57508415155b156116cf575050505050506111ad565b8180156116d95750805b156116e9575050505050506111ad565b6116f48a89896120c4565b50505050505050505050565b6060831561170f575081610257565b82511561171f5782518084602001fd5b8160405162461bcd60e51b81526004016103b291906125bd565b6000807f7fffffffffffffffffffffffffffffff5d576e7357a4501ddfe92f46681b20a0831115611770575060009050600361181d565b8460ff16601b1415801561178857508460ff16601c14155b15611799575060009050600461181d565b6040805160008082526020820180845289905260ff881692820192909252606081018690526080810185905260019060a0016020604051602081039080840390855afa1580156117ed573d6000803e3d6000fd5b5050604051601f1901519150506001600160a01b0381166118165760006001925092505061181d565b9150600090505b94509492505050565b6060600019820161185e57505060408051808201909152601181527005452414e534645524f574e45525348495607c1b602082015290565b60031982016118945750506040805180820190915260118152704348414e47455045524d495353494f4e5360781b602082015290565b60011982016118c757505060408051808201909152600e81526d4144445045524d495353494f4e5360901b602082015290565b60071982016118f957505060408051808201909152600d81526c414444455854454e53494f4e5360981b602082015290565b600f19820161192e57505060408051808201909152601081526f4348414e4745455854454e53494f4e5360801b602082015290565b601f19820161197057505060408051808201909152601c81527f414444554e4956455253414c524543454956455244454c454741544500000000602082015290565b603f1982016119b257505060408051808201909152601f81527f4348414e4745554e4956455253414c524543454956455244454c454741544500602082015290565b607f1982016119e157505060408051808201909152600a8152695245454e5452414e435960b01b602082015290565b6203ffff198201611a0f5750506040805180820190915260078152665345544441544160c81b602082015290565b6107ff198201611a3957505060408051808201909152600481526310d0531360e21b602082015290565b611fff198201611a6957505060408051808201909152600a81526914d510551250d0d0531360b21b602082015290565b617fff198201611a9b57505060408051808201909152600c81526b1111531151d0551150d0531360a21b602082015290565b61ffff198201611ac75750506040805180820190915260068152654445504c4f5960d01b602082015290565b6101ff198201611afa57505060408051808201909152600d81526c5452414e5346455256414c554560981b602082015290565b621fffff198201611b2557505060408051808201909152600481526329a4a3a760e11b602082015290565b919050565b600080546040516354f6127f60e01b8152600481018690526001600160a01b03909116906354f6127f90602401600060405180830381865afa158015611b74573d6000803e3d6000fd5b505050506040513d6000823e601f3d908101601f19168201604052611b9c9190810190612a8e565b611ba590612afb565b03611bb657610ffd82826002610fca565b610ffd82826004610fca565b60008151600003611bd557506000919050565b60005b8251811015611c2f576000838281518110611bf557611bf5612a09565b016020015160f81c90506000819003611c12575060009392505050565b611c1d816001612a35565b611c279083612a35565b915050611bd8565b82518103611c405750600192915050565b50600092915050565b60606001600160a01b0383166354f6127f611c73694b80742de2bf866c291160b01b85851b610f0d565b6040518263ffffffff1660e01b8152600401611c9191815260200190565b600060405180830381865afa158015611cae573d6000803e3d6000fd5b505050506040513d6000823e601f3d908101601f191682016040526102579190810190612a8e565b8051600003611d035760405163ed7fa50960e01b81526001600160a01b03841660048201526024016103b2565b611d0c81611bc2565b611d2b5780604051632786feed60e11b81526004016103b291906125bd565b60005b8151811015611ded576000828281518110611d4b57611d4b612a09565b0160209081015160f81c9150811115611d7a57604051639f2cb4db60e01b8152600481018290526024016103b2565b6000611d92611d8a846001612a35565b859084612305565b611d9b90612afb565b90506000611daa836020612d7b565b611db5906008612d8e565b600019901b90508581168203611dce5750505050505050565b611dd9836001612a35565b611de39085612a35565b9350505050611d2e565b60405163557ae07960e01b81526001600160a01b0385166004820152602481018490526044016103b2565b8051600003611e455760405163ed7fa50960e01b81526001600160a01b03841660048201526024016103b2565b611e4e81611bc2565b611e6d5780604051632786feed60e11b81526004016103b291906125bd565b6000805b835182108015611e815750825181105b15611fab576000838281518110611e9a57611e9a612a09565b016020015160f81c90506000611ebc611eb4846001612a35565b869084612305565b611ec590612afb565b90506000611ed4836020612d7b565b611edf906008612d8e565b600019901b905060005b8751811015611f79576000801b888281518110611f0857611f08612a09565b60200260200101510315611f675781888281518110611f2957611f29612a09565b6020026020010151168303611f67576000801b888281518110611f4e57611f4e612a09565b602090810291909101015285611f6381612b78565b9650505b80611f7181612b78565b915050611ee9565b5086518503611f8c575050505050505050565b611f97836001612a35565b611fa19085612a35565b9350505050611e71565b60005b8451811015612034576000801b858281518110611fcd57611fcd612a09565b6020026020010151146120225785858281518110611fed57611fed612a09565b602090810291909101015160405163557ae07960e01b81526001600160a01b03909216600483015260248201526044016103b2565b8061202c81612b78565b915050611fae565b505050505050565b60008161204c5750610400919050565b6003820361205d5750611000919050565b60048203611b255750614000919050565b60008161207e5750610800919050565b60018203612090575062010000919050565b600282036120a2575062010000919050565b600382036120b35750612000919050565b60048203611b255750618000919050565b60006120d4604460308486612bc1565b6120dd91612da5565b60601c905060a8821080159060009061210a576120fe60a860a48688612bc1565b61210791612b91565b90505b60008054612121906001600160a01b031688612412565b8051909150801580612139575061213782611bc2565b155b1561216257604051636cb6058760e01b81526001600160a01b03891660048201526024016103b2565b60008080805b848110156122c857600061218887612181846001612a35565b601c612305565b905061219381612dd3565b63ffffffff1990811690036121c657604051636fd203c560e01b81526001600160a01b038e1660048201526024016103b2565b60006121d182612e07565b9050600060206121e084612dd3565b63ffffffff1916901b60601c9050600060c06121fb85612dd3565b63ffffffff1916901b90506001600160e01b0319808416148061222c575061222c6001600160a01b038e168461243c565b97506001600160a01b0380831614806122565750816001600160a01b03168d6001600160a01b0316145b96506001600160e01b0319808216148061228457508b801561228457506001600160e01b03198b8116908216145b95508780156122905750865b80156122995750855b156122b05750505050505050505050505050505050565b50505050601d816122c19190612a35565b9050612168565b5060405163228a3de760e11b81526001600160a01b03808d166004830152891660248201526001600160e01b0319871660448201526064016103b2565b60608161231381601f612a35565b10156123525760405162461bcd60e51b815260206004820152600e60248201526d736c6963655f6f766572666c6f7760901b60448201526064016103b2565b61235c8284612a35565b845110156123a05760405162461bcd60e51b8152602060048201526011602482015270736c6963655f6f75744f66426f756e647360781b60448201526064016103b2565b6060821580156123bf5760405191506000825260208201604052612409565b6040519150601f8416801560200281840101858101878315602002848b0101015b818310156123f85780518352602092830192016123e0565b5050858452601f01601f1916604052505b50949350505050565b60606001600160a01b0383166354f6127f611c73694b80742de2bf393a64c760b01b85851b610f0d565b604080516001600160e01b03198316602480830191909152825180830390910181526044909101909152602080820180516001600160e01b03166301ffc9a760e01b178152825160009392849283928392918391908a617530fa92503d915060005190508280156124ae575060208210155b8015610d07575015159695505050505050565b6000602082840312156124d357600080fd5b81356001600160e01b03198116811461025757600080fd5b60008083601f8401126124fd57600080fd5b5081356001600160401b0381111561251457600080fd5b602083019150836020828501011115610d5057600080fd5b6000806020838503121561253f57600080fd5b82356001600160401b0381111561255557600080fd5b612561858286016124eb565b90969095509350505050565b60005b83811015612588578181015183820152602001612570565b50506000910152565b600081518084526125a981602086016020860161256d565b601f01601f19169290920160200192915050565b6020815260006102576020830184612591565b634e487b7160e01b600052604160045260246000fd5b604051601f8201601f191681016001600160401b038111828210171561260e5761260e6125d0565b604052919050565b60006001600160401b0382111561262f5761262f6125d0565b50601f01601f191660200190565b600082601f83011261264e57600080fd5b813561266161265c82612616565b6125e6565b81815284602083860101111561267657600080fd5b816020850160208301376000918101602001919091529392505050565b600080604083850312156126a657600080fd5b8235915060208301356001600160401b038111156126c357600080fd5b6126cf8582860161263d565b9150509250929050565b600080600080606085870312156126ef57600080fd5b84356001600160401b038082111561270657600080fd5b6127128883890161263d565b955060208701359450604087013591508082111561272f57600080fd5b5061273c878288016124eb565b95989497509550505050565b6000806040838503121561275b57600080fd5b82356001600160a01b038116811461277257600080fd5b915060208301356001600160801b038116811461278e57600080fd5b809150509250929050565b60006001600160401b038211156127b2576127b26125d0565b5060051b60200190565b600082601f8301126127cd57600080fd5b813560206127dd61265c83612799565b82815260059290921b840181019181810190868411156127fc57600080fd5b8286015b8481101561283b5780356001600160401b0381111561281f5760008081fd5b61282d8986838b010161263d565b845250918301918301612800565b509695505050505050565b60008083601f84011261285857600080fd5b5081356001600160401b0381111561286f57600080fd5b6020830191508360208260051b8501011115610d5057600080fd5b60008060008060008060006080888a0312156128a557600080fd5b87356001600160401b03808211156128bc57600080fd5b6128c88b838c016127bc565b985060208a01359150808211156128de57600080fd5b6128ea8b838c01612846565b909850965060408a013591508082111561290357600080fd5b61290f8b838c01612846565b909650945060608a013591508082111561292857600080fd5b506129358a828b01612846565b989b979a50959850939692959293505050565b6000602080830181845280855180835260408601915060408160051b870101925083870160005b8281101561299d57603f1988860301845261298b858351612591565b9450928501929085019060010161296f565b5092979650505050505050565b600080600080604085870312156129c057600080fd5b84356001600160401b03808211156129d757600080fd5b6129e388838901612846565b909650945060208701359150808211156129fc57600080fd5b5061273c87828801612846565b634e487b7160e01b600052603260045260246000fd5b634e487b7160e01b600052601160045260246000fd5b8082018082111561024457610244612a1f565b6000808335601e19843603018112612a5f57600080fd5b8301803591506001600160401b03821115612a7957600080fd5b602001915036819003821315610d5057600080fd5b600060208284031215612aa057600080fd5b81516001600160401b03811115612ab657600080fd5b8201601f81018413612ac757600080fd5b8051612ad561265c82612616565b818152856020838501011115612aea57600080fd5b6102c582602083016020860161256d565b80516020808301519190811015612b1c576000198160200360031b1b821691505b50919050565b868152856020820152846040820152836060820152818360808301376000910160800190815295945050505050565b60018060a01b03841681528260208201526060604082015260006102c56060830184612591565b600060018201612b8a57612b8a612a1f565b5060010190565b6001600160e01b03198135818116916004851015612bb95780818660040360031b1b83161692505b505092915050565b60008085851115612bd157600080fd5b83861115612bde57600080fd5b5050820193919092039150565b60008060408385031215612bfe57600080fd5b82356001600160401b0380821115612c1557600080fd5b818501915085601f830112612c2957600080fd5b81356020612c3961265c83612799565b82815260059290921b84018101918181019089841115612c5857600080fd5b948201945b83861015612c7657853582529482019490820190612c5d565b96505086013592505080821115612c8c57600080fd5b506126cf858286016127bc565b8183823760009101908152919050565b634e487b7160e01b600052602160045260246000fd5b601960f81b8152606083901b6001600160601b03191660028201528151600090612cf081601685016020870161256d565b919091016016019392505050565b600082612d1b57634e487b7160e01b600052601260045260246000fd5b500690565b6001600160a01b03831681526040602082018190526000906102ae90830184612591565b8281526040602082015260006102ae6040830184612591565b8035602083101561024457600019602084900360031b1b1692915050565b8181038181111561024457610244612a1f565b808202811582820484141761024457610244612a1f565b6001600160601b03198135818116916014851015612bb95760149490940360031b84901b1690921692915050565b8051602082015163ffffffff19808216929190601c831015612dff57808184601c0360031b1b83161693505b505050919050565b805160208201516001600160e01b03198082169291906004831015612dff5760049290920360031b82901b16169291505056fe4c5350363a20556e6b6e6f776e204572726f72206f636375726564207768656e2063616c6c696e6720746865206c696e6b65642074617267657420636f6e7472616374a26469706673582212205e4af6048726d1d05c828f3847f316107fac02d626d3be83850fac02ac64f71264736f6c63430008110033",
    "linkReferences": {}
  },
  "methodIdentifiers": {
    "execute(bytes)": "09c5eabe",
    "execute(uint256[],bytes[])": "bf3e1f7b",
    "executeRelayCall(bytes,uint256,bytes)": "902d5fa0",
    "executeRelayCall(bytes[],uint256[],uint256[],bytes[])": "bd68663a",
    "getNonce(address,uint128)": "b44581d9",
    "isValidSignature(bytes32,bytes)": "1626ba7e",
    "supportsInterface(bytes4)": "01ffc9a7",
    "target()": "d4b83992"
  },
  "id": 38
}