{
  "abi": [
    {
      "inputs": [
        {
          "internalType": "string",
          "name": "name",
          "type": "string"
        },
        {
          "internalType": "string",
          "name": "symbol",
          "type": "string"
        },
        {
          "internalType": "address",
          "name": "newOwner",
          "type": "address"
        }
      ],
      "stateMutability": "nonpayable",
      "type": "constructor"
    },
    {
      "inputs": [
        {
          "internalType": "uint256",
          "name": "dataKeysLength",
          "type": "uint256"
        },
        {
          "internalType": "uint256",
          "name": "dataValuesLength",
          "type": "uint256"
        }
      ],
      "name": "ERC725Y_DataKeysValuesLengthMismatch",
      "type": "error"
    },
    {
      "anonymous": false,
      "inputs": [
        {
          "indexed": true,
          "internalType": "bytes32",
          "name": "dataKey",
          "type": "bytes32"
        },
        {
          "indexed": false,
          "internalType": "bytes",
          "name": "dataValue",
          "type": "bytes"
        }
      ],
      "name": "DataChanged",
      "type": "event"
    },
    {
      "anonymous": false,
      "inputs": [
        {
          "indexed": true,
          "internalType": "address",
          "name": "previousOwner",
          "type": "address"
        },
        {
          "indexed": true,
          "internalType": "address",
          "name": "newOwner",
          "type": "address"
        }
      ],
      "name": "OwnershipTransferred",
      "type": "event"
    },
    {
      "inputs": [
        {
          "internalType": "bytes32[]",
          "name": "dataKeys",
          "type": "bytes32[]"
        }
      ],
      "name": "getData",
      "outputs": [
        {
          "internalType": "bytes[]",
          "name": "dataValues",
          "type": "bytes[]"
        }
      ],
      "stateMutability": "view",
      "type": "function"
    },
    {
      "inputs": [
        {
          "internalType": "bytes32",
          "name": "dataKey",
          "type": "bytes32"
        }
      ],
      "name": "getData",
      "outputs": [
        {
          "internalType": "bytes",
          "name": "dataValue",
          "type": "bytes"
        }
      ],
      "stateMutability": "view",
      "type": "function"
    },
    {
      "inputs": [],
      "name": "name",
      "outputs": [
        {
          "internalType": "string",
          "name": "",
          "type": "string"
        }
      ],
      "stateMutability": "view",
      "type": "function"
    },
    {
      "inputs": [],
      "name": "owner",
      "outputs": [
        {
          "internalType": "address",
          "name": "",
          "type": "address"
        }
      ],
      "stateMutability": "view",
      "type": "function"
    },
    {
      "inputs": [],
      "name": "renounceOwnership",
      "outputs": [],
      "stateMutability": "nonpayable",
      "type": "function"
    },
    {
      "inputs": [
        {
          "internalType": "bytes32[]",
          "name": "dataKeys",
          "type": "bytes32[]"
        },
        {
          "internalType": "bytes[]",
          "name": "dataValues",
          "type": "bytes[]"
        }
      ],
      "name": "setData",
      "outputs": [],
      "stateMutability": "nonpayable",
      "type": "function"
    },
    {
      "inputs": [
        {
          "internalType": "bytes32",
          "name": "dataKey",
          "type": "bytes32"
        },
        {
          "internalType": "bytes",
          "name": "dataValue",
          "type": "bytes"
        }
      ],
      "name": "setData",
      "outputs": [],
      "stateMutability": "nonpayable",
      "type": "function"
    },
    {
      "inputs": [
        {
          "internalType": "bytes4",
          "name": "interfaceId",
          "type": "bytes4"
        }
      ],
      "name": "supportsInterface",
      "outputs": [
        {
          "internalType": "bool",
          "name": "",
          "type": "bool"
        }
      ],
      "stateMutability": "view",
      "type": "function"
    },
    {
      "inputs": [],
      "name": "symbol",
      "outputs": [
        {
          "internalType": "string",
          "name": "",
          "type": "string"
        }
      ],
      "stateMutability": "view",
      "type": "function"
    },
    {
      "inputs": [
        {
          "internalType": "address",
          "name": "newOwner",
          "type": "address"
        }
      ],
      "name": "transferOwnership",
      "outputs": [],
      "stateMutability": "nonpayable",
      "type": "function"
    }
  ],
  "bytecode": {
    "object": "0x60806040523480156200001157600080fd5b5060405162000fee38038062000fee8339810160408190526200003491620002a4565b806001600160a01b0381166200009f5760405162461bcd60e51b815260206004820152602660248201527f4f776e61626c653a206e6577206f776e657220697320746865207a65726f206160448201526564647265737360d01b606482015260840160405180910390fd5b620000b5816200011760201b620003fd1760201c565b50620000e27fdeba1e292f8ba88238e10ab3c7f88bd4be4fac56cad5194b6ecceaf653468af1846200017e565b6200010e7f2f0a68ab07768e01943a599e73362a0e17a63a72e94dd2e384d2c1d4db932756836200017e565b505050620004c1565b6000546001600160a01b038281169116146200017b57600080546001600160a01b038381166001600160a01b0319831681178455604051919092169283917f8be0079c531659141344cd1fd0a4f28419497f9722a3daafe3b4186f6b6457e09190a3505b50565b6000828152600160205260409020620001988282620003c0565b50817fece574603820d07bc9b91f2a932baadf4628aabcb8afba49776529c14a6104b282604051620001cb91906200048c565b60405180910390a25050565b634e487b7160e01b600052604160045260246000fd5b60005b838110156200020a578181015183820152602001620001f0565b50506000910152565b600082601f8301126200022557600080fd5b81516001600160401b0380821115620002425762000242620001d7565b604051601f8301601f19908116603f011681019082821181831017156200026d576200026d620001d7565b816040528381528660208588010111156200028757600080fd5b6200029a846020830160208901620001ed565b9695505050505050565b600080600060608486031215620002ba57600080fd5b83516001600160401b0380821115620002d257600080fd5b620002e08783880162000213565b94506020860151915080821115620002f757600080fd5b50620003068682870162000213565b604086015190935090506001600160a01b03811681146200032657600080fd5b809150509250925092565b600181811c908216806200034657607f821691505b6020821081036200036757634e487b7160e01b600052602260045260246000fd5b50919050565b601f821115620003bb57600081815260208120601f850160051c81016020861015620003965750805b601f850160051c820191505b81811015620003b757828155600101620003a2565b5050505b505050565b81516001600160401b03811115620003dc57620003dc620001d7565b620003f481620003ed845462000331565b846200036d565b602080601f8311600181146200042c5760008415620004135750858301515b600019600386901b1c1916600185901b178555620003b7565b600085815260208120601f198616915b828110156200045d578886015182559484019460019091019084016200043c565b50858210156200047c5787850151600019600388901b60f8161c191681555b5050505050600190811b01905550565b6020815260008251806020840152620004ad816040850160208701620001ed565b601f01601f19169190910160400192915050565b610b1d80620004d16000396000f3fe608060405234801561001057600080fd5b506004361061009e5760003560e01c8063715018a611610066578063715018a6146101285780637f23690c146101305780638da5cb5b1461014357806395d89b411461015e578063f2fde38b1461016657600080fd5b806301ffc9a7146100a357806306fdde03146100cb57806314a6e293146100e05780634e3e6e9c146100f557806354f6127f14610115575b600080fd5b6100b66100b13660046105c2565b610179565b60405190151581526020015b60405180910390f35b6100d36101b0565b6040516100c29190610639565b6100f36100ee366004610792565b6101dd565b005b610108610103366004610867565b61026e565b6040516100c291906108a4565b6100d3610123366004610906565b610322565b6100f361032d565b6100f361013e36600461091f565b610341565b6000546040516001600160a01b0390911681526020016100c2565b6100d3610357565b6100f3610174366004610966565b610384565b60006001600160e01b03198216631c537ddf60e21b14806101aa57506301ffc9a760e01b6001600160e01b03198316145b92915050565b606060006101aa7fdeba1e292f8ba88238e10ab3c7f88bd4be4fac56cad5194b6ecceaf653468af1610462565b6101e5610504565b805182511461021957815181516040516321d1e13360e11b8152600481019290925260248201526044015b60405180910390fd5b60005b82518110156102695761026183828151811061023a5761023a61098f565b60200260200101518383815181106102545761025461098f565b602002602001015161056d565b60010161021c565b505050565b6060815167ffffffffffffffff81111561028a5761028a61064c565b6040519080825280602002602001820160405280156102bd57816020015b60608152602001906001900390816102a85790505b50905060005b825181101561031c576102ee8382815181106102e1576102e161098f565b6020026020010151610462565b8282815181106103005761030061098f565b60200260200101819052506103158160010190565b90506102c3565b50919050565b60606101aa82610462565b610335610504565b61033f60006103fd565b565b610349610504565b610353828261056d565b5050565b606060006101aa7f2f0a68ab07768e01943a599e73362a0e17a63a72e94dd2e384d2c1d4db932756610462565b61038c610504565b6001600160a01b0381166103f15760405162461bcd60e51b815260206004820152602660248201527f4f776e61626c653a206e6577206f776e657220697320746865207a65726f206160448201526564647265737360d01b6064820152608401610210565b6103fa816103fd565b50565b6000546001600160a01b038281169116146103fa57600080546001600160a01b038381166001600160a01b0319831681178455604051919092169283917f8be0079c531659141344cd1fd0a4f28419497f9722a3daafe3b4186f6b6457e09190a35050565b600081815260016020526040902080546060919061047f906109a5565b80601f01602080910402602001604051908101604052809291908181526020018280546104ab906109a5565b80156104f85780601f106104cd576101008083540402835291602001916104f8565b820191906000526020600020905b8154815290600101906020018083116104db57829003601f168201915b50505050509050919050565b336105176000546001600160a01b031690565b6001600160a01b03161461033f5760405162461bcd60e51b815260206004820181905260248201527f4f776e61626c653a2063616c6c6572206973206e6f7420746865206f776e65726044820152606401610210565b60008281526001602052604090206105858282610a27565b50817fece574603820d07bc9b91f2a932baadf4628aabcb8afba49776529c14a6104b2826040516105b69190610639565b60405180910390a25050565b6000602082840312156105d457600080fd5b81356001600160e01b0319811681146105ec57600080fd5b9392505050565b6000815180845260005b81811015610619576020818501810151868301820152016105fd565b506000602082860101526020601f19601f83011685010191505092915050565b6020815260006105ec60208301846105f3565b634e487b7160e01b600052604160045260246000fd5b604051601f8201601f1916810167ffffffffffffffff8111828210171561068b5761068b61064c565b604052919050565b600067ffffffffffffffff8211156106ad576106ad61064c565b5060051b60200190565b600082601f8301126106c857600080fd5b813560206106dd6106d883610693565b610662565b82815260059290921b840181019181810190868411156106fc57600080fd5b8286015b848110156107175780358352918301918301610700565b509695505050505050565b600082601f83011261073357600080fd5b813567ffffffffffffffff81111561074d5761074d61064c565b610760601f8201601f1916602001610662565b81815284602083860101111561077557600080fd5b816020850160208301376000918101602001919091529392505050565b600080604083850312156107a557600080fd5b823567ffffffffffffffff808211156107bd57600080fd5b6107c9868387016106b7565b93506020915081850135818111156107e057600080fd5b8501601f810187136107f157600080fd5b80356107ff6106d882610693565b81815260059190911b8201840190848101908983111561081e57600080fd5b8584015b838110156108565780358681111561083a5760008081fd5b6108488c8983890101610722565b845250918601918601610822565b508096505050505050509250929050565b60006020828403121561087957600080fd5b813567ffffffffffffffff81111561089057600080fd5b61089c848285016106b7565b949350505050565b6000602080830181845280855180835260408601915060408160051b870101925083870160005b828110156108f957603f198886030184526108e78583516105f3565b945092850192908501906001016108cb565b5092979650505050505050565b60006020828403121561091857600080fd5b5035919050565b6000806040838503121561093257600080fd5b82359150602083013567ffffffffffffffff81111561095057600080fd5b61095c85828601610722565b9150509250929050565b60006020828403121561097857600080fd5b81356001600160a01b03811681146105ec57600080fd5b634e487b7160e01b600052603260045260246000fd5b600181811c908216806109b957607f821691505b60208210810361031c57634e487b7160e01b600052602260045260246000fd5b601f82111561026957600081815260208120601f850160051c81016020861015610a005750805b601f850160051c820191505b81811015610a1f57828155600101610a0c565b505050505050565b815167ffffffffffffffff811115610a4157610a4161064c565b610a5581610a4f84546109a5565b846109d9565b602080601f831160018114610a8a5760008415610a725750858301515b600019600386901b1c1916600185901b178555610a1f565b600085815260208120601f198616915b82811015610ab957888601518255948401946001909101908401610a9a565b5085821015610ad75787850151600019600388901b60f8161c191681555b5050505050600190811b0190555056fea26469706673582212209440a7b15a7e82b145cbb81a7a741de349def5c455a7bfe6c67425cbc52454a364736f6c63430008110033",
    "linkReferences": {}
  },
  "methodIdentifiers": {
    "getData(bytes32)": "54f6127f",
    "getData(bytes32[])": "4e3e6e9c",
    "name()": "06fdde03",
    "owner()": "8da5cb5b",
    "renounceOwnership()": "715018a6",
    "setData(bytes32,bytes)": "7f23690c",
    "setData(bytes32[],bytes[])": "14a6e293",
    "supportsInterface(bytes4)": "01ffc9a7",
    "symbol()": "95d89b41",
    "transferOwnership(address)": "f2fde38b"
  },
  "id": 127
}