{
  "abi": [
    {
      "inputs": [
        {
          "internalType": "address",
          "name": "_keyManager",
          "type": "address"
        }
      ],
      "stateMutability": "nonpayable",
      "type": "constructor"
    },
    {
      "inputs": [
        {
          "internalType": "bytes",
          "name": "_dataPayload",
          "type": "bytes"
        }
      ],
      "name": "loadPayload",
      "outputs": [],
      "stateMutability": "nonpayable",
      "type": "function"
    },
    {
      "stateMutability": "payable",
      "type": "receive"
    }
  ],
  "bytecode": {
    "object": "0x608060405234801561001057600080fd5b5060405161052e38038061052e83398101604081905261002f91610054565b600180546001600160a01b0319166001600160a01b0392909216919091179055610084565b60006020828403121561006657600080fd5b81516001600160a01b038116811461007d57600080fd5b9392505050565b61049b806100936000396000f3fe6080604052600436106100225760003560e01c80638032bbdb146100e157600080fd5b366100dc57600154600160a01b900460ff166100da576001805460ff60a01b198116600160a01b1790915560405160009182916001600160a01b039091169061006c908390610194565b6000604051808303816000865af19150503d80600081146100a9576040519150601f19603f3d011682016040523d82523d6000602084013e6100ae565b606091505b50915091506100d6828260405180606001604052806037815260200161042f60379139610101565b5050505b005b600080fd5b3480156100ed57600080fd5b506100da6100fc366004610220565b61014a565b60608315610110575081610143565b8251156101205782518084602001fd5b8160405162461bcd60e51b815260040161013a91906102d1565b60405180910390fd5b9392505050565b6000610156828261036e565b5050565b600181811c9082168061016e57607f821691505b60208210810361018e57634e487b7160e01b600052602260045260246000fd5b50919050565b60008083546101a28161015a565b600182811680156101ba57600181146101cf576101fe565b60ff19841687528215158302870194506101fe565b8760005260208060002060005b858110156101f55781548a8201529084019082016101dc565b50505082870194505b50929695505050505050565b634e487b7160e01b600052604160045260246000fd5b60006020828403121561023257600080fd5b813567ffffffffffffffff8082111561024a57600080fd5b818401915084601f83011261025e57600080fd5b8135818111156102705761027061020a565b604051601f8201601f19908116603f011681019083821181831017156102985761029861020a565b816040528281528760208487010111156102b157600080fd5b826020860160208301376000928101602001929092525095945050505050565b600060208083528351808285015260005b818110156102fe578581018301518582016040015282016102e2565b506000604082860101526040601f19601f8301168501019250505092915050565b601f82111561036957600081815260208120601f850160051c810160208610156103465750805b601f850160051c820191505b8181101561036557828155600101610352565b5050505b505050565b815167ffffffffffffffff8111156103885761038861020a565b61039c81610396845461015a565b8461031f565b602080601f8311600181146103d157600084156103b95750858301515b600019600386901b1c1916600185901b178555610365565b600085815260208120601f198616915b82811015610400578886015182559484019460019091019084016103e1565b508582101561041e5787850151600019600388901b60f8161c191681555b5050505050600190811b0190555056fe5265656e7472616e63792048656c70657220436f6e74726163743a206661696c656420746f2072652d656e74657220636f6e7472616374a2646970667358221220457693a569ec744e62924a4b3ba2228c33f9bad928334911edb6b0710a61183d64736f6c63430008110033",
    "linkReferences": {}
  },
  "methodIdentifiers": {
    "loadPayload(bytes)": "8032bbdb"
  },
  "id": 123
}