{
  "abi": [
    {
      "inputs": [
        {
          "internalType": "address",
          "name": "target",
          "type": "address"
        },
        {
          "internalType": "bytes32",
          "name": "typeId",
          "type": "bytes32"
        }
      ],
      "name": "callImplementationAndReturn",
      "outputs": [
        {
          "internalType": "bytes",
          "name": "",
          "type": "bytes"
        }
      ],
      "stateMutability": "payable",
      "type": "function"
    },
    {
      "inputs": [
        {
          "internalType": "address",
          "name": "_target",
          "type": "address"
        },
        {
          "internalType": "bytes32",
          "name": "_typeId",
          "type": "bytes32"
        }
      ],
      "name": "checkImplementation",
      "outputs": [],
      "stateMutability": "payable",
      "type": "function"
    },
    {
      "inputs": [
        {
          "internalType": "address",
          "name": "_target",
          "type": "address"
        },
        {
          "internalType": "bytes32",
          "name": "_typeId",
          "type": "bytes32"
        }
      ],
      "name": "checkImplementationLowLevelCall",
      "outputs": [],
      "stateMutability": "payable",
      "type": "function"
    },
    {
      "stateMutability": "payable",
      "type": "receive"
    }
  ],
  "bytecode": {
    "object": "0x608060405234801561001057600080fd5b5061047a806100206000396000f3fe6080604052600436106100385760003560e01c806329d81bf314610044578063b18c4e4414610059578063cbc85bac1461008257600080fd5b3661003f57005b600080fd5b6100576100523660046102d6565b610095565b005b61006c6100673660046102d6565b61011b565b6040516100799190610332565b60405180910390f35b6100576100903660046102d6565b6101a4565b60408051631aed5a8560e21b8152600481018390526024810191909152600060448201526001600160a01b03831690636bb56a1490349060640160006040518083038185885af11580156100ed573d6000803e3d6000fd5b50505050506040513d6000823e601f3d908101601f19168201604052610116919081019061037b565b505050565b60408051631aed5a8560e21b8152600481018390526024810191909152600060448201526060906001600160a01b03841690636bb56a14906064016000604051808303816000875af1158015610175573d6000803e3d6000fd5b505050506040513d6000823e601f3d908101601f1916820160405261019d919081019061037b565b9392505050565b6000826001600160a01b031634636bb56a1460e01b846040516024016101db91815260406020820181905260009082015260600190565b60408051601f198184030181529181526020820180516001600160e01b03166001600160e01b03199094169390931790925290516102199190610428565b60006040518083038185875af1925050503d8060008114610256576040519150601f19603f3d011682016040523d82523d6000602084013e61025b565b606091505b50509050806101165760405162461bcd60e51b815260206004820152603a60248201527f6c6f772d6c6576656c2063616c6c20746f2060756e6976657273616c5265636560448201527f69766572282e2e2e29602066756e6374696f6e206661696c6564000000000000606482015260840160405180910390fd5b600080604083850312156102e957600080fd5b82356001600160a01b038116811461030057600080fd5b946020939093013593505050565b60005b83811015610329578181015183820152602001610311565b50506000910152565b602081526000825180602084015261035181604085016020870161030e565b601f01601f19169190910160400192915050565b634e487b7160e01b600052604160045260246000fd5b60006020828403121561038d57600080fd5b815167ffffffffffffffff808211156103a557600080fd5b818401915084601f8301126103b957600080fd5b8151818111156103cb576103cb610365565b604051601f8201601f19908116603f011681019083821181831017156103f3576103f3610365565b8160405282815287602084870101111561040c57600080fd5b61041d83602083016020880161030e565b979650505050505050565b6000825161043a81846020870161030e565b919091019291505056fea2646970667358221220300adcc8c3fd92c23fe8d60da60682d212494756d70903f57dab4258b71e81eb64736f6c63430008110033",
    "linkReferences": {}
  },
  "methodIdentifiers": {
    "callImplementationAndReturn(address,bytes32)": "b18c4e44",
    "checkImplementation(address,bytes32)": "29d81bf3",
    "checkImplementationLowLevelCall(address,bytes32)": "cbc85bac"
  },
  "id": 152
}