{
  "abi": [
    {
      "inputs": [],
      "name": "age",
      "outputs": [
        {
          "internalType": "uint256",
          "name": "",
          "type": "uint256"
        }
      ],
      "stateMutability": "view",
      "type": "function"
    }
  ],
  "bytecode": {
    "object": "0x6080604052348015600f57600080fd5b50607780601d6000396000f3fe6080604052348015600f57600080fd5b506004361060285760003560e01c8063262a9dff14602d575b600080fd5b601460405190815260200160405180910390f3fea26469706673582212201c57aa4262bdcc678bcd3d2ccd6e3034400575a4216a77429da84aa02a316ae064736f6c63430008110033",
    "linkReferences": {}
  },
  "methodIdentifiers": {
    "age()": "262a9dff"
  },
  "id": 102
}