{
  "abi": [
    {
      "inputs": [
        {
          "internalType": "string",
          "name": "name",
          "type": "string"
        },
        {
          "internalType": "string",
          "name": "symbol",
          "type": "string"
        },
        {
          "internalType": "address",
          "name": "newOwner",
          "type": "address"
        },
        {
          "internalType": "bytes",
          "name": "tokenURIValue",
          "type": "bytes"
        }
      ],
      "stateMutability": "nonpayable",
      "type": "constructor"
    },
    {
      "inputs": [
        {
          "internalType": "uint256",
          "name": "dataKeysLength",
          "type": "uint256"
        },
        {
          "internalType": "uint256",
          "name": "dataValuesLength",
          "type": "uint256"
        }
      ],
      "name": "ERC725Y_DataKeysValuesLengthMismatch",
      "type": "error"
    },
    {
      "inputs": [],
      "name": "LSP4TokenNameNotEditable",
      "type": "error"
    },
    {
      "inputs": [],
      "name": "LSP4TokenSymbolNotEditable",
      "type": "error"
    },
    {
      "inputs": [],
      "name": "LSP8CannotSendToAddressZero",
      "type": "error"
    },
    {
      "inputs": [],
      "name": "LSP8CannotSendToSelf",
      "type": "error"
    },
    {
      "inputs": [],
      "name": "LSP8CannotUseAddressZeroAsOperator",
      "type": "error"
    },
    {
      "inputs": [],
      "name": "LSP8InvalidTransferBatch",
      "type": "error"
    },
    {
      "inputs": [
        {
          "internalType": "bytes32",
          "name": "tokenId",
          "type": "bytes32"
        }
      ],
      "name": "LSP8NonExistentTokenId",
      "type": "error"
    },
    {
      "inputs": [
        {
          "internalType": "address",
          "name": "operator",
          "type": "address"
        },
        {
          "internalType": "bytes32",
          "name": "tokenId",
          "type": "bytes32"
        }
      ],
      "name": "LSP8NonExistingOperator",
      "type": "error"
    },
    {
      "inputs": [
        {
          "internalType": "bytes32",
          "name": "tokenId",
          "type": "bytes32"
        },
        {
          "internalType": "address",
          "name": "caller",
          "type": "address"
        }
      ],
      "name": "LSP8NotTokenOperator",
      "type": "error"
    },
    {
      "inputs": [
        {
          "internalType": "address",
          "name": "tokenOwner",
          "type": "address"
        },
        {
          "internalType": "bytes32",
          "name": "tokenId",
          "type": "bytes32"
        },
        {
          "internalType": "address",
          "name": "caller",
          "type": "address"
        }
      ],
      "name": "LSP8NotTokenOwner",
      "type": "error"
    },
    {
      "inputs": [
        {
          "internalType": "address",
          "name": "tokenReceiver",
          "type": "address"
        }
      ],
      "name": "LSP8NotifyTokenReceiverContractMissingLSP1Interface",
      "type": "error"
    },
    {
      "inputs": [
        {
          "internalType": "address",
          "name": "tokenReceiver",
          "type": "address"
        }
      ],
      "name": "LSP8NotifyTokenReceiverIsEOA",
      "type": "error"
    },
    {
      "inputs": [
        {
          "internalType": "address",
          "name": "operator",
          "type": "address"
        },
        {
          "internalType": "bytes32",
          "name": "tokenId",
          "type": "bytes32"
        }
      ],
      "name": "LSP8OperatorAlreadyAuthorized",
      "type": "error"
    },
    {
      "inputs": [
        {
          "internalType": "bytes32",
          "name": "tokenId",
          "type": "bytes32"
        }
      ],
      "name": "LSP8TokenIdAlreadyMinted",
      "type": "error"
    },
    {
      "anonymous": false,
      "inputs": [
        {
          "indexed": true,
          "internalType": "address",
          "name": "owner",
          "type": "address"
        },
        {
          "indexed": true,
          "internalType": "address",
          "name": "approved",
          "type": "address"
        },
        {
          "indexed": true,
          "internalType": "uint256",
          "name": "tokenId",
          "type": "uint256"
        }
      ],
      "name": "Approval",
      "type": "event"
    },
    {
      "anonymous": false,
      "inputs": [
        {
          "indexed": true,
          "internalType": "address",
          "name": "_owner",
          "type": "address"
        },
        {
          "indexed": true,
          "internalType": "address",
          "name": "_operator",
          "type": "address"
        },
        {
          "indexed": false,
          "internalType": "bool",
          "name": "_approved",
          "type": "bool"
        }
      ],
      "name": "ApprovalForAll",
      "type": "event"
    },
    {
      "anonymous": false,
      "inputs": [
        {
          "indexed": true,
          "internalType": "address",
          "name": "operator",
          "type": "address"
        },
        {
          "indexed": true,
          "internalType": "address",
          "name": "tokenOwner",
          "type": "address"
        },
        {
          "indexed": true,
          "internalType": "bytes32",
          "name": "tokenId",
          "type": "bytes32"
        }
      ],
      "name": "AuthorizedOperator",
      "type": "event"
    },
    {
      "anonymous": false,
      "inputs": [
        {
          "indexed": true,
          "internalType": "bytes32",
          "name": "dataKey",
          "type": "bytes32"
        },
        {
          "indexed": false,
          "internalType": "bytes",
          "name": "dataValue",
          "type": "bytes"
        }
      ],
      "name": "DataChanged",
      "type": "event"
    },
    {
      "anonymous": false,
      "inputs": [
        {
          "indexed": true,
          "internalType": "address",
          "name": "previousOwner",
          "type": "address"
        },
        {
          "indexed": true,
          "internalType": "address",
          "name": "newOwner",
          "type": "address"
        }
      ],
      "name": "OwnershipTransferred",
      "type": "event"
    },
    {
      "anonymous": false,
      "inputs": [
        {
          "indexed": true,
          "internalType": "address",
          "name": "operator",
          "type": "address"
        },
        {
          "indexed": true,
          "internalType": "address",
          "name": "tokenOwner",
          "type": "address"
        },
        {
          "indexed": true,
          "internalType": "bytes32",
          "name": "tokenId",
          "type": "bytes32"
        }
      ],
      "name": "RevokedOperator",
      "type": "event"
    },
    {
      "anonymous": false,
      "inputs": [
        {
          "indexed": true,
          "internalType": "address",
          "name": "from",
          "type": "address"
        },
        {
          "indexed": true,
          "internalType": "address",
          "name": "to",
          "type": "address"
        },
        {
          "indexed": true,
          "internalType": "uint256",
          "name": "tokenId",
          "type": "uint256"
        }
      ],
      "name": "Transfer",
      "type": "event"
    },
    {
      "anonymous": false,
      "inputs": [
        {
          "indexed": false,
          "internalType": "address",
          "name": "operator",
          "type": "address"
        },
        {
          "indexed": true,
          "internalType": "address",
          "name": "from",
          "type": "address"
        },
        {
          "indexed": true,
          "internalType": "address",
          "name": "to",
          "type": "address"
        },
        {
          "indexed": true,
          "internalType": "bytes32",
          "name": "tokenId",
          "type": "bytes32"
        },
        {
          "indexed": false,
          "internalType": "bool",
          "name": "force",
          "type": "bool"
        },
        {
          "indexed": false,
          "internalType": "bytes",
          "name": "data",
          "type": "bytes"
        }
      ],
      "name": "Transfer",
      "type": "event"
    },
    {
      "inputs": [
        {
          "internalType": "address",
          "name": "operator",
          "type": "address"
        },
        {
          "internalType": "uint256",
          "name": "tokenId",
          "type": "uint256"
        }
      ],
      "name": "approve",
      "outputs": [],
      "stateMutability": "nonpayable",
      "type": "function"
    },
    {
      "inputs": [
        {
          "internalType": "address",
          "name": "operator",
          "type": "address"
        },
        {
          "internalType": "bytes32",
          "name": "tokenId",
          "type": "bytes32"
        }
      ],
      "name": "authorizeOperator",
      "outputs": [],
      "stateMutability": "nonpayable",
      "type": "function"
    },
    {
      "inputs": [
        {
          "internalType": "address",
          "name": "tokenOwner",
          "type": "address"
        }
      ],
      "name": "balanceOf",
      "outputs": [
        {
          "internalType": "uint256",
          "name": "",
          "type": "uint256"
        }
      ],
      "stateMutability": "view",
      "type": "function"
    },
    {
      "inputs": [
        {
          "internalType": "uint256",
          "name": "tokenId",
          "type": "uint256"
        },
        {
          "internalType": "bytes",
          "name": "data",
          "type": "bytes"
        }
      ],
      "name": "burn",
      "outputs": [],
      "stateMutability": "nonpayable",
      "type": "function"
    },
    {
      "inputs": [
        {
          "internalType": "uint256",
          "name": "tokenId",
          "type": "uint256"
        }
      ],
      "name": "getApproved",
      "outputs": [
        {
          "internalType": "address",
          "name": "",
          "type": "address"
        }
      ],
      "stateMutability": "view",
      "type": "function"
    },
    {
      "inputs": [
        {
          "internalType": "bytes32[]",
          "name": "dataKeys",
          "type": "bytes32[]"
        }
      ],
      "name": "getData",
      "outputs": [
        {
          "internalType": "bytes[]",
          "name": "dataValues",
          "type": "bytes[]"
        }
      ],
      "stateMutability": "view",
      "type": "function"
    },
    {
      "inputs": [
        {
          "internalType": "bytes32",
          "name": "dataKey",
          "type": "bytes32"
        }
      ],
      "name": "getData",
      "outputs": [
        {
          "internalType": "bytes",
          "name": "dataValue",
          "type": "bytes"
        }
      ],
      "stateMutability": "view",
      "type": "function"
    },
    {
      "inputs": [
        {
          "internalType": "bytes32",
          "name": "tokenId",
          "type": "bytes32"
        }
      ],
      "name": "getOperatorsOf",
      "outputs": [
        {
          "internalType": "address[]",
          "name": "",
          "type": "address[]"
        }
      ],
      "stateMutability": "view",
      "type": "function"
    },
    {
      "inputs": [
        {
          "internalType": "address",
          "name": "tokenOwner",
          "type": "address"
        },
        {
          "internalType": "address",
          "name": "operator",
          "type": "address"
        }
      ],
      "name": "isApprovedForAll",
      "outputs": [
        {
          "internalType": "bool",
          "name": "",
          "type": "bool"
        }
      ],
      "stateMutability": "view",
      "type": "function"
    },
    {
      "inputs": [
        {
          "internalType": "address",
          "name": "operator",
          "type": "address"
        },
        {
          "internalType": "bytes32",
          "name": "tokenId",
          "type": "bytes32"
        }
      ],
      "name": "isOperatorFor",
      "outputs": [
        {
          "internalType": "bool",
          "name": "",
          "type": "bool"
        }
      ],
      "stateMutability": "view",
      "type": "function"
    },
    {
      "inputs": [
        {
          "internalType": "address",
          "name": "to",
          "type": "address"
        },
        {
          "internalType": "uint256",
          "name": "tokenId",
          "type": "uint256"
        },
        {
          "internalType": "bytes",
          "name": "data",
          "type": "bytes"
        }
      ],
      "name": "mint",
      "outputs": [],
      "stateMutability": "nonpayable",
      "type": "function"
    },
    {
      "inputs": [],
      "name": "name",
      "outputs": [
        {
          "internalType": "string",
          "name": "",
          "type": "string"
        }
      ],
      "stateMutability": "view",
      "type": "function"
    },
    {
      "inputs": [],
      "name": "owner",
      "outputs": [
        {
          "internalType": "address",
          "name": "",
          "type": "address"
        }
      ],
      "stateMutability": "view",
      "type": "function"
    },
    {
      "inputs": [
        {
          "internalType": "uint256",
          "name": "tokenId",
          "type": "uint256"
        }
      ],
      "name": "ownerOf",
      "outputs": [
        {
          "internalType": "address",
          "name": "",
          "type": "address"
        }
      ],
      "stateMutability": "view",
      "type": "function"
    },
    {
      "inputs": [],
      "name": "renounceOwnership",
      "outputs": [],
      "stateMutability": "nonpayable",
      "type": "function"
    },
    {
      "inputs": [
        {
          "internalType": "address",
          "name": "operator",
          "type": "address"
        },
        {
          "internalType": "bytes32",
          "name": "tokenId",
          "type": "bytes32"
        }
      ],
      "name": "revokeOperator",
      "outputs": [],
      "stateMutability": "nonpayable",
      "type": "function"
    },
    {
      "inputs": [
        {
          "internalType": "address",
          "name": "from",
          "type": "address"
        },
        {
          "internalType": "address",
          "name": "to",
          "type": "address"
        },
        {
          "internalType": "uint256",
          "name": "tokenId",
          "type": "uint256"
        }
      ],
      "name": "safeTransferFrom",
      "outputs": [],
      "stateMutability": "nonpayable",
      "type": "function"
    },
    {
      "inputs": [
        {
          "internalType": "address",
          "name": "from",
          "type": "address"
        },
        {
          "internalType": "address",
          "name": "to",
          "type": "address"
        },
        {
          "internalType": "uint256",
          "name": "tokenId",
          "type": "uint256"
        },
        {
          "internalType": "bytes",
          "name": "data",
          "type": "bytes"
        }
      ],
      "name": "safeTransferFrom",
      "outputs": [],
      "stateMutability": "nonpayable",
      "type": "function"
    },
    {
      "inputs": [
        {
          "internalType": "address",
          "name": "operator",
          "type": "address"
        },
        {
          "internalType": "bool",
          "name": "approved",
          "type": "bool"
        }
      ],
      "name": "setApprovalForAll",
      "outputs": [],
      "stateMutability": "nonpayable",
      "type": "function"
    },
    {
      "inputs": [
        {
          "internalType": "bytes32[]",
          "name": "dataKeys",
          "type": "bytes32[]"
        },
        {
          "internalType": "bytes[]",
          "name": "dataValues",
          "type": "bytes[]"
        }
      ],
      "name": "setData",
      "outputs": [],
      "stateMutability": "nonpayable",
      "type": "function"
    },
    {
      "inputs": [
        {
          "internalType": "bytes32",
          "name": "dataKey",
          "type": "bytes32"
        },
        {
          "internalType": "bytes",
          "name": "dataValue",
          "type": "bytes"
        }
      ],
      "name": "setData",
      "outputs": [],
      "stateMutability": "nonpayable",
      "type": "function"
    },
    {
      "inputs": [
        {
          "internalType": "bytes4",
          "name": "interfaceId",
          "type": "bytes4"
        }
      ],
      "name": "supportsInterface",
      "outputs": [
        {
          "internalType": "bool",
          "name": "",
          "type": "bool"
        }
      ],
      "stateMutability": "view",
      "type": "function"
    },
    {
      "inputs": [],
      "name": "symbol",
      "outputs": [
        {
          "internalType": "string",
          "name": "",
          "type": "string"
        }
      ],
      "stateMutability": "view",
      "type": "function"
    },
    {
      "inputs": [
        {
          "internalType": "address",
          "name": "tokenOwner",
          "type": "address"
        }
      ],
      "name": "tokenIdsOf",
      "outputs": [
        {
          "internalType": "bytes32[]",
          "name": "",
          "type": "bytes32[]"
        }
      ],
      "stateMutability": "view",
      "type": "function"
    },
    {
      "inputs": [
        {
          "internalType": "bytes32",
          "name": "tokenId",
          "type": "bytes32"
        }
      ],
      "name": "tokenOwnerOf",
      "outputs": [
        {
          "internalType": "address",
          "name": "",
          "type": "address"
        }
      ],
      "stateMutability": "view",
      "type": "function"
    },
    {
      "inputs": [
        {
          "internalType": "uint256",
          "name": "",
          "type": "uint256"
        }
      ],
      "name": "tokenURI",
      "outputs": [
        {
          "internalType": "string",
          "name": "",
          "type": "string"
        }
      ],
      "stateMutability": "view",
      "type": "function"
    },
    {
      "inputs": [],
      "name": "totalSupply",
      "outputs": [
        {
          "internalType": "uint256",
          "name": "",
          "type": "uint256"
        }
      ],
      "stateMutability": "view",
      "type": "function"
    },
    {
      "inputs": [
        {
          "internalType": "address",
          "name": "from",
          "type": "address"
        },
        {
          "internalType": "address",
          "name": "to",
          "type": "address"
        },
        {
          "internalType": "bytes32",
          "name": "tokenId",
          "type": "bytes32"
        },
        {
          "internalType": "bool",
          "name": "force",
          "type": "bool"
        },
        {
          "internalType": "bytes",
          "name": "data",
          "type": "bytes"
        }
      ],
      "name": "transfer",
      "outputs": [],
      "stateMutability": "nonpayable",
      "type": "function"
    },
    {
      "inputs": [
        {
          "internalType": "address[]",
          "name": "from",
          "type": "address[]"
        },
        {
          "internalType": "address[]",
          "name": "to",
          "type": "address[]"
        },
        {
          "internalType": "bytes32[]",
          "name": "tokenId",
          "type": "bytes32[]"
        },
        {
          "internalType": "bool[]",
          "name": "force",
          "type": "bool[]"
        },
        {
          "internalType": "bytes[]",
          "name": "data",
          "type": "bytes[]"
        }
      ],
      "name": "transferBatch",
      "outputs": [],
      "stateMutability": "nonpayable",
      "type": "function"
    },
    {
      "inputs": [
        {
          "internalType": "address",
          "name": "from",
          "type": "address"
        },
        {
          "internalType": "address",
          "name": "to",
          "type": "address"
        },
        {
          "internalType": "uint256",
          "name": "tokenId",
          "type": "uint256"
        }
      ],
      "name": "transferFrom",
      "outputs": [],
      "stateMutability": "nonpayable",
      "type": "function"
    },
    {
      "inputs": [
        {
          "internalType": "address",
          "name": "newOwner",
          "type": "address"
        }
      ],
      "name": "transferOwnership",
      "outputs": [],
      "stateMutability": "nonpayable",
      "type": "function"
    }
  ],
  "bytecode": {
    "object": "0x60806040523480156200001157600080fd5b506040516200308738038062003087833981016040819052620000349162000583565b838383828282828282806001600160a01b038116620000a95760405162461bcd60e51b815260206004820152602660248201527f4f776e61626c653a206e6577206f776e657220697320746865207a65726f206160448201526564647265737360d01b60648201526084015b60405180910390fd5b620000bf81620001d260201b62000bc61760201c565b50620001167feafec4d89fa9619884b60000a4d96624a38f7ac2d8d9a604ecf07c12c77e480c60001b604051806040016040528060048152602001632936598960e21b8152506200023960201b62000c2b1760201c565b620001507fdeba1e292f8ba88238e10ab3c7f88bd4be4fac56cad5194b6ecceaf653468af160001b846200023960201b62000c2b1760201c565b6200018a7f2f0a68ab07768e01943a599e73362a0e17a63a72e94dd2e384d2c1d4db93275660001b836200023960201b62000c2b1760201c565b505050505050505050620001c87f9afb95cacc9f95858ec44aa8c3b685511002e30ae54415823f406128b85b238e60001b826200028160201b60201c565b5050505062000803565b6000546001600160a01b038281169116146200023657600080546001600160a01b038381166001600160a01b0319831681178455604051919092169283917f8be0079c531659141344cd1fd0a4f28419497f9722a3daafe3b4186f6b6457e09190a3505b50565b6000828152600160205260409020620002538282620006da565b50816000805160206200306783398151915282604051620002759190620007a6565b60405180910390a25050565b6200029882826200029c60201b62000c801760201c565b5050565b7f2145e1d6d074577dc71ef54c3807742b41b053a9352ae6b491331509acb9750f8201620002dd576040516385c169bd60e01b815260040160405180910390fd5b7fd0f59754f88971fe6bc5a6618cc9d5f1e859c58d16b22d1c7b2d3e2b246cd8aa82016200031e57604051630eceab6760e31b815260040160405180910390fd5b6000828152600160205260409020620003388282620006da565b508160008051602062003067833981519152610100835111156200037757620003718360006101006200038860201b62000d681760201c565b62000379565b825b604051620002759190620007a6565b6060816200039881601f620007db565b1015620003d95760405162461bcd60e51b815260206004820152600e60248201526d736c6963655f6f766572666c6f7760901b6044820152606401620000a0565b620003e58284620007db565b845110156200042b5760405162461bcd60e51b8152602060048201526011602482015270736c6963655f6f75744f66426f756e647360781b6044820152606401620000a0565b6060821580156200044c576040519150600082526020820160405262000498565b6040519150601f8416801560200281840101858101878315602002848b0101015b81831015620004875780518352602092830192016200046d565b5050858452601f01601f1916604052505b50949350505050565b634e487b7160e01b600052604160045260246000fd5b60005b83811015620004d4578181015183820152602001620004ba565b50506000910152565b60006001600160401b0380841115620004fa57620004fa620004a1565b604051601f8501601f19908116603f01168101908282118183101715620005255762000525620004a1565b816040528093508581528686860111156200053f57600080fd5b6200054f866020830187620004b7565b5050509392505050565b600082601f8301126200056b57600080fd5b6200057c83835160208501620004dd565b9392505050565b600080600080608085870312156200059a57600080fd5b84516001600160401b0380821115620005b257600080fd5b620005c08883890162000559565b95506020870151915080821115620005d757600080fd5b620005e58883890162000559565b604088015190955091506001600160a01b03821682146200060557600080fd5b6060870151919350808211156200061b57600080fd5b508501601f810187136200062e57600080fd5b6200063f87825160208401620004dd565b91505092959194509250565b600181811c908216806200066057607f821691505b6020821081036200068157634e487b7160e01b600052602260045260246000fd5b50919050565b601f821115620006d557600081815260208120601f850160051c81016020861015620006b05750805b601f850160051c820191505b81811015620006d157828155600101620006bc565b5050505b505050565b81516001600160401b03811115620006f657620006f6620004a1565b6200070e816200070784546200064b565b8462000687565b602080601f8311600181146200074657600084156200072d5750858301515b600019600386901b1c1916600185901b178555620006d1565b600085815260208120601f198616915b82811015620007775788860151825594840194600190910190840162000756565b5085821015620007965787850151600019600388901b60f8161c191681555b5050505050600190811b01905550565b6020815260008251806020840152620007c7816040850160208701620004b7565b601f01601f19169190910160400192915050565b80820180821115620007fd57634e487b7160e01b600052601160045260246000fd5b92915050565b61285480620008136000396000f3fe608060405234801561001057600080fd5b50600436106101e55760003560e01c80636352211e1161010f578063a22cb465116100a2578063cf5182ba11610071578063cf5182ba1461042a578063e985e9c51461043d578063f2fde38b14610479578063fe9d93031461048c57600080fd5b8063a22cb465146103d1578063a3b261f2146103e4578063b88d4fde14610404578063c87b56dd1461041757600080fd5b80637f23690c116100de5780637f23690c146103925780638da5cb5b146103a557806394d008ef146103b657806395d89b41146103c957600080fd5b80636352211e1461035157806370a0823114610364578063715018a6146103775780637e87632c1461037f57600080fd5b8063217b22701161018757806349a6078d1161015657806349a6078d146102eb5780634e3e6e9c1461030b578063511b69521461032b57806354f6127f1461033e57600080fd5b8063217b22701461029f57806323b872dd146102b25780632a3654a4146102c557806342842e0e146102d857600080fd5b8063095ea7b3116101c3578063095ea7b3146102525780630b0c6d821461026757806314a6e2931461027a57806318160ddd1461028d57600080fd5b806301ffc9a7146101ea57806306fdde0314610212578063081812fc14610227575b600080fd5b6101fd6101f8366004611cf6565b61049f565b60405190151581526020015b60405180910390f35b61021a6104e5565b6040516102099190611d70565b61023a610235366004611d83565b610512565b6040516001600160a01b039091168152602001610209565b610265610260366004611db8565b610569565b005b610265610275366004611db8565b6105c0565b610265610288366004611fad565b61066d565b6002545b604051908152602001610209565b61023a6102ad366004611d83565b6106f9565b6102656102c0366004612010565b610732565b6101fd6102d3366004611db8565b610752565b6102656102e6366004612010565b61076e565b6102fe6102f9366004611d83565b61078e565b604051610209919061204c565b61031e610319366004612099565b6107b0565b60405161020991906120cd565b61026561033936600461213f565b610863565b61021a61034c366004611d83565b6108b2565b61023a61035f366004611d83565b6108bd565b6102916103723660046121b7565b6108c8565b6102656108e9565b61026561038d366004612296565b6108fd565b6102656103a036600461235a565b6109ec565b6000546001600160a01b031661023a565b6102656103c43660046123de565b610a02565b61021a610a48565b6102656103df366004612437565b610a75565b6103f76103f23660046121b7565b610a80565b604051610209919061246a565b6102656104123660046124a2565b610aa4565b61021a610425366004611d83565b610ab2565b610265610438366004611db8565b610b00565b6101fd61044b366004612509565b6001600160a01b03918216600090815260076020908152604080832093909416825291909152205460ff1690565b6102656104873660046121b7565b610b0a565b61026561049a366004612533565b610b83565b60006001600160e01b031982166380ac58cd60e01b14806104d057506001600160e01b03198216635b5e139f60e01b145b806104df57506104df82610e75565b92915050565b606060006104df7fdeba1e292f8ba88238e10ab3c7f88bd4be4fac56cad5194b6ecceaf653468af1610e9a565b60008161051e81610f3c565b60008181526005602052604081209061053682610f74565b90508060000361054b57506000949350505050565b610560610559600183612594565b8390610f7e565b95945050505050565b6105738282610b00565b806001600160a01b038316610587826106f9565b6001600160a01b03167f8c5be1e5ebec7d5bd14f71427d1e84f3dd0314c0f7b2291e5b200ac8c7c3b92560405160405180910390a45050565b60006105cb826106f9565b9050336001600160a01b038216811461061657604051632d938f5160e11b81526001600160a01b03808416600483015260248201859052821660448201526064015b60405180910390fd5b6001600160a01b03841661063d57604051639577b8b360e01b815260040160405180910390fd5b836001600160a01b0316826001600160a01b03160361065c5750505050565b610667848385610f8a565b50505050565b61067561101b565b80518251146106a457815181516040516321d1e13360e11b81526004810192909252602482015260440161060d565b60005b82518110156106f4576106ec8382815181106106c5576106c56125a7565b60200260200101518383815181106106df576106df6125a7565b6020026020010151611084565b6001016106a7565b505050565b6000818152600360205260408120546001600160a01b0316806104df57604051635747cd1b60e11b81526004810184905260240161060d565b6106f483838360001b60016040518060200160405280600081525061108e565b600061075d82610f3c565b610767838361114a565b9392505050565b6106f483838360001b60006040518060200160405280600081525061108e565b606061079982610f3c565b60008281526005602052604090206104df90611193565b606081516001600160401b038111156107cb576107cb611de2565b6040519080825280602002602001820160405280156107fe57816020015b60608152602001906001900390816107e95790505b50905060005b825181101561085d5761082f838281518110610822576108226125a7565b6020026020010151610e9a565b828281518110610841576108416125a7565b60200260200101819052506108568160010190565b9050610804565b50919050565b3361086e818561114a565b61089d57604051631294d2a960e01b8152600481018590526001600160a01b038216602482015260440161060d565b6108aa868686868661108e565b505050505050565b60606104df82610e9a565b60006104df826106f9565b6001600160a01b03811660009081526004602052604081206104df90610f74565b6108f161101b565b6108fb6000610bc6565b565b8451845181141580610910575083518114155b8061091c575082518114155b80610928575081518114155b15610946576040516393a8311960e01b815260040160405180910390fd5b60005b818110156109e3576109db878281518110610966576109666125a7565b6020026020010151878381518110610980576109806125a7565b602002602001015187848151811061099a5761099a6125a7565b60200260200101518785815181106109b4576109b46125a7565b60200260200101518786815181106109ce576109ce6125a7565b6020026020010151610863565b600101610949565b50505050505050565b6109f461101b565b6109fe8282611084565b5050565b610667848460001b600185858080601f0160208091040260200160405190810160405280939291908181526020018383808284376000920191909152506111a092505050565b606060006104df7f2f0a68ab07768e01943a599e73362a0e17a63a72e94dd2e384d2c1d4db932756610e9a565b6109fe3383836111ea565b6001600160a01b03811660009081526004602052604090206060906104df906112c8565b61066784848460008561108e565b60606000610adf7f9afb95cacc9f95858ec44aa8c3b685511002e30ae54415823f406128b85b238e610e9a565b905060006024905060006105608383848651610afb9190612594565b610d68565b61057382826112d3565b610b1261101b565b6001600160a01b038116610b775760405162461bcd60e51b815260206004820152602660248201527f4f776e61626c653a206e6577206f776e657220697320746865207a65726f206160448201526564647265737360d01b606482015260840161060d565b610b8081610bc6565b50565b6106f48360001b83838080601f0160208091040260200160405190810160405280939291908181526020018383808284376000920191909152506113fc92505050565b6000546001600160a01b03828116911614610b8057600080546001600160a01b038381166001600160a01b0319831681178455604051919092169283917f8be0079c531659141344cd1fd0a4f28419497f9722a3daafe3b4186f6b6457e09190a35050565b6000828152600160205260409020610c438282612637565b50817fece574603820d07bc9b91f2a932baadf4628aabcb8afba49776529c14a6104b282604051610c749190611d70565b60405180910390a25050565b7f2145e1d6d074577dc71ef54c3807742b41b053a9352ae6b491331509acb9750f8201610cc0576040516385c169bd60e01b815260040160405180910390fd5b7fd0f59754f88971fe6bc5a6618cc9d5f1e859c58d16b22d1c7b2d3e2b246cd8aa8201610d0057604051630eceab6760e31b815260040160405180910390fd5b6000828152600160205260409020610d188282612637565b50817fece574603820d07bc9b91f2a932baadf4628aabcb8afba49776529c14a6104b261010083511115610d5957610d54836000610100610d68565b610d5b565b825b604051610c749190611d70565b606081610d7681601f6126f6565b1015610db55760405162461bcd60e51b815260206004820152600e60248201526d736c6963655f6f766572666c6f7760901b604482015260640161060d565b610dbf82846126f6565b84511015610e035760405162461bcd60e51b8152602060048201526011602482015270736c6963655f6f75744f66426f756e647360781b604482015260640161060d565b606082158015610e225760405191506000825260208201604052610e6c565b6040519150601f8416801560200281840101858101878315602002848b0101015b81831015610e5b578051835260209283019201610e43565b5050858452601f01601f1916604052505b50949350505050565b60006001600160e01b0319821663622e7a0160e01b14806104df57506104df82611450565b6000818152600160205260409020805460609190610eb7906125bd565b80601f0160208091040260200160405190810160405280929190818152602001828054610ee3906125bd565b8015610f305780601f10610f0557610100808354040283529160200191610f30565b820191906000526020600020905b815481529060010190602001808311610f1357829003601f168201915b50505050509050919050565b6000818152600360205260409020546001600160a01b0316610b8057604051635747cd1b60e11b81526004810182905260240161060d565b60006104df825490565b60006107678383611485565b6000818152600560205260408120610fa290856114af565b905080610fd4576040516312a8c6a360e21b81526001600160a01b03851660048201526024810183905260440161060d565b81836001600160a01b0316856001600160a01b03167f17d5389f6ab6adb2647dfa0aa365c323d37adacc30b33a65310b6158ce1373d560405160405180910390a450505050565b3361102e6000546001600160a01b031690565b6001600160a01b0316146108fb5760405162461bcd60e51b815260206004820181905260248201527f4f776e61626c653a2063616c6c6572206973206e6f7420746865206f776e6572604482015260640161060d565b6109fe8282610c80565b6001600160a01b03851660009081526007602090815260408083203380855292529091205460ff161580156110ca57506110c8818561114a565b155b156110fa57604051631294d2a960e01b8152600481018590526001600160a01b038216602482015260440161060d565b61110786868686866114c4565b60405184906001600160a01b0380881691908916907fddf252ad1be2c89b69c2b068fc378daa952ba7f163c4a11628f55a4df523b3ef90600090a4505050505050565b600080611156836106f9565b9050806001600160a01b0316846001600160a01b0316148061118b5750600083815260056020526040902061118b908561164e565b949350505050565b6060600061076783611670565b6111ac848484846116cb565b60405183906001600160a01b038616906000907fddf252ad1be2c89b69c2b068fc378daa952ba7f163c4a11628f55a4df523b3ef908290a450505050565b816001600160a01b0316836001600160a01b03160361125b5760405162461bcd60e51b815260206004820152602760248201527f4c535038436f6d70617469626c654552433732313a20617070726f766520746f6044820152661031b0b63632b960c91b606482015260840161060d565b6001600160a01b03838116600081815260076020908152604080832094871680845294825291829020805460ff191686151590811790915591519182527f17307eab39ab6107e8899845ad3d59bd9653f200f220920489ca2b5937696c31910160405180910390a3505050565b60606104df82611670565b60006112de826106f9565b9050336001600160a01b038216811461132457604051632d938f5160e11b81526001600160a01b038084166004830152602482018590528216604482015260640161060d565b6001600160a01b03841661134b57604051639577b8b360e01b815260040160405180910390fd5b836001600160a01b0316826001600160a01b03160361136a5750505050565b600083815260056020526040812061138290866117e5565b9050806113b4576040516314ec4d6d60e31b81526001600160a01b03861660048201526024810185905260440161060d565b83836001600160a01b0316866001600160a01b03167f34b797fc5a526f7bf1d2b5de25f6564fd85ae364e3ee939aee7c1ac27871a98860405160405180910390a45050505050565b6000611407836106f9565b905061141383836117fa565b60405183906000906001600160a01b038416907fddf252ad1be2c89b69c2b068fc378daa952ba7f163c4a11628f55a4df523b3ef908390a4505050565b60006001600160e01b03198216631c537ddf60e21b14806104df57506301ffc9a760e01b6001600160e01b03198316146104df565b600082600001828154811061149c5761149c6125a7565b9060005260206000200154905092915050565b6000610767836001600160a01b0384166118c0565b836001600160a01b0316856001600160a01b0316036114f657604051635d67d6c160e01b815260040160405180910390fd5b6000611501846106f9565b9050856001600160a01b0316816001600160a01b03161461154f57604051632d938f5160e11b81526001600160a01b038083166004830152602482018690528716604482015260640161060d565b6001600160a01b038516611576576040516324ecef4d60e01b815260040160405180910390fd5b3361158187866119b3565b6001600160a01b03871660009081526004602052604090206115a390866119fa565b506001600160a01b03861660009081526004602052604090206115c69086611a06565b506000858152600360205260409081902080546001600160a01b0319166001600160a01b0389811691821790925591518792918a16907fb333c813a7426a7a11e2b190cad52c44119421594b47f6f32ace6d8c7207b2bf9061162d9086908a908a90612709565b60405180910390a461164187878786611a12565b6109e38787878787611ae6565b6001600160a01b03811660009081526001830160205260408120541515610767565b606081600001805480602002602001604051908101604052809291908181526020018280548015610f3057602002820191906000526020600020905b8154815260200190600101908083116116ac5750505050509050919050565b6001600160a01b0384166116f2576040516324ecef4d60e01b815260040160405180910390fd5b6000838152600360205260409020546001600160a01b03161561172b576040516334c7b51160e01b81526004810184905260240161060d565b3360016002600082825461173f91906126f6565b90915550506001600160a01b03851660009081526004602052604090206117669085611a06565b5060008481526003602052604080822080546001600160a01b0319166001600160a01b03891690811790915590518692907fb333c813a7426a7a11e2b190cad52c44119421594b47f6f32ace6d8c7207b2bf906117c890869089908990612709565b60405180910390a46117de600086868686611ae6565b5050505050565b6000610767836001600160a01b038416611c1e565b6000611805836106f9565b90503360016002600082825461181b9190612594565b9091555061182b905082856119b3565b6001600160a01b038216600090815260046020526040902061184d90856119fa565b5060008481526003602052604080822080546001600160a01b0319169055518591906001600160a01b038516907fb333c813a7426a7a11e2b190cad52c44119421594b47f6f32ace6d8c7207b2bf906118ab90869085908a90612709565b60405180910390a46106678260008686611a12565b600081815260018301602052604081205480156119a95760006118e4600183612594565b85549091506000906118f890600190612594565b905081811461195d576000866000018281548110611918576119186125a7565b906000526020600020015490508087600001848154811061193b5761193b6125a7565b6000918252602080832090910192909255918252600188019052604090208390555b855486908061196e5761196e612735565b6001900381819060005260206000200160009055905585600101600086815260200190815260200160002060009055600193505050506104df565b60009150506104df565b6000818152600560205260408120906119cb82610f74565b905060005b818110156117de5760006119e48482610f7e565b90506119f1818787610f8a565b506001016119d0565b600061076783836118c0565b60006107678383611c1e565b611a2384631aed5a8560e21b611c6d565b1561066757600084848484604051602001611a41949392919061274b565b60408051601f1981840301815290829052631aed5a8560e21b825291506001600160a01b03861690636bb56a1490611a9f907fb23eae7e6d1564b295b4c3e3be402d9a2f0776c57bdf365903496f6fa481ab00908590600401612798565b6000604051808303816000875af1158015611abe573d6000803e3d6000fd5b505050506040513d6000823e601f3d908101601f191682016040526108aa91908101906127b1565b611af784631aed5a8560e21b611c6d565b15611bc157600085858584604051602001611b15949392919061274b565b60408051601f1981840301815290829052631aed5a8560e21b825291506001600160a01b03861690636bb56a1490611b73907f0b084a55ebf70fd3c06fd755269dac2212c4d3f0f4d09079780bfa50c1b2984d908590600401612798565b6000604051808303816000875af1158015611b92573d6000803e3d6000fd5b505050506040513d6000823e601f3d908101601f19168201604052611bba91908101906127b1565b50506117de565b816117de576001600160a01b0384163b15611bfa57604051634349776d60e01b81526001600160a01b038516600482015260240161060d565b604051630317313760e01b81526001600160a01b038516600482015260240161060d565b6000818152600183016020526040812054611c65575081546001818101845560008481526020808220909301849055845484825282860190935260409020919091556104df565b5060006104df565b604080516001600160e01b03198316602480830191909152825180830390910181526044909101909152602080820180516001600160e01b03166301ffc9a760e01b178152825160009392849283928392918391908a617530fa92503d91506000519050828015611cdf575060208210155b8015611ceb5750600081115b979650505050505050565b600060208284031215611d0857600080fd5b81356001600160e01b03198116811461076757600080fd5b60005b83811015611d3b578181015183820152602001611d23565b50506000910152565b60008151808452611d5c816020860160208601611d20565b601f01601f19169290920160200192915050565b6020815260006107676020830184611d44565b600060208284031215611d9557600080fd5b5035919050565b80356001600160a01b0381168114611db357600080fd5b919050565b60008060408385031215611dcb57600080fd5b611dd483611d9c565b946020939093013593505050565b634e487b7160e01b600052604160045260246000fd5b604051601f8201601f191681016001600160401b0381118282101715611e2057611e20611de2565b604052919050565b60006001600160401b03821115611e4157611e41611de2565b5060051b60200190565b600082601f830112611e5c57600080fd5b81356020611e71611e6c83611e28565b611df8565b82815260059290921b84018101918181019086841115611e9057600080fd5b8286015b84811015611eab5780358352918301918301611e94565b509695505050505050565b60006001600160401b03821115611ecf57611ecf611de2565b50601f01601f191660200190565b600082601f830112611eee57600080fd5b8135611efc611e6c82611eb6565b818152846020838601011115611f1157600080fd5b816020850160208301376000918101602001919091529392505050565b600082601f830112611f3f57600080fd5b81356020611f4f611e6c83611e28565b82815260059290921b84018101918181019086841115611f6e57600080fd5b8286015b84811015611eab5780356001600160401b03811115611f915760008081fd5b611f9f8986838b0101611edd565b845250918301918301611f72565b60008060408385031215611fc057600080fd5b82356001600160401b0380821115611fd757600080fd5b611fe386838701611e4b565b93506020850135915080821115611ff957600080fd5b5061200685828601611f2e565b9150509250929050565b60008060006060848603121561202557600080fd5b61202e84611d9c565b925061203c60208501611d9c565b9150604084013590509250925092565b6020808252825182820181905260009190848201906040850190845b8181101561208d5783516001600160a01b031683529284019291840191600101612068565b50909695505050505050565b6000602082840312156120ab57600080fd5b81356001600160401b038111156120c157600080fd5b61118b84828501611e4b565b6000602080830181845280855180835260408601915060408160051b870101925083870160005b8281101561212257603f19888603018452612110858351611d44565b945092850192908501906001016120f4565b5092979650505050505050565b80358015158114611db357600080fd5b600080600080600060a0868803121561215757600080fd5b61216086611d9c565b945061216e60208701611d9c565b9350604086013592506121836060870161212f565b915060808601356001600160401b0381111561219e57600080fd5b6121aa88828901611edd565b9150509295509295909350565b6000602082840312156121c957600080fd5b61076782611d9c565b600082601f8301126121e357600080fd5b813560206121f3611e6c83611e28565b82815260059290921b8401810191818101908684111561221257600080fd5b8286015b84811015611eab5761222781611d9c565b8352918301918301612216565b600082601f83011261224557600080fd5b81356020612255611e6c83611e28565b82815260059290921b8401810191818101908684111561227457600080fd5b8286015b84811015611eab576122898161212f565b8352918301918301612278565b600080600080600060a086880312156122ae57600080fd5b85356001600160401b03808211156122c557600080fd5b6122d189838a016121d2565b965060208801359150808211156122e757600080fd5b6122f389838a016121d2565b9550604088013591508082111561230957600080fd5b61231589838a01611e4b565b9450606088013591508082111561232b57600080fd5b61233789838a01612234565b9350608088013591508082111561234d57600080fd5b506121aa88828901611f2e565b6000806040838503121561236d57600080fd5b8235915060208301356001600160401b0381111561238a57600080fd5b61200685828601611edd565b60008083601f8401126123a857600080fd5b5081356001600160401b038111156123bf57600080fd5b6020830191508360208285010111156123d757600080fd5b9250929050565b600080600080606085870312156123f457600080fd5b6123fd85611d9c565b93506020850135925060408501356001600160401b0381111561241f57600080fd5b61242b87828801612396565b95989497509550505050565b6000806040838503121561244a57600080fd5b61245383611d9c565b91506124616020840161212f565b90509250929050565b6020808252825182820181905260009190848201906040850190845b8181101561208d57835183529284019291840191600101612486565b600080600080608085870312156124b857600080fd5b6124c185611d9c565b93506124cf60208601611d9c565b92506040850135915060608501356001600160401b038111156124f157600080fd5b6124fd87828801611edd565b91505092959194509250565b6000806040838503121561251c57600080fd5b61252583611d9c565b915061246160208401611d9c565b60008060006040848603121561254857600080fd5b8335925060208401356001600160401b0381111561256557600080fd5b61257186828701612396565b9497909650939450505050565b634e487b7160e01b600052601160045260246000fd5b818103818111156104df576104df61257e565b634e487b7160e01b600052603260045260246000fd5b600181811c908216806125d157607f821691505b60208210810361085d57634e487b7160e01b600052602260045260246000fd5b601f8211156106f457600081815260208120601f850160051c810160208610156126185750805b601f850160051c820191505b818110156108aa57828155600101612624565b81516001600160401b0381111561265057612650611de2565b6126648161265e84546125bd565b846125f1565b602080601f83116001811461269957600084156126815750858301515b600019600386901b1c1916600185901b1785556108aa565b600085815260208120601f198616915b828110156126c8578886015182559484019460019091019084016126a9565b50858210156126e65787850151600019600388901b60f8161c191681555b5050505050600190811b01905550565b808201808211156104df576104df61257e565b6001600160a01b0384168152821515602082015260606040820181905260009061056090830184611d44565b634e487b7160e01b600052603160045260246000fd5b60006bffffffffffffffffffffffff19808760601b168352808660601b166014840152508360288301528251612788816048850160208701611d20565b9190910160480195945050505050565b82815260406020820152600061118b6040830184611d44565b6000602082840312156127c357600080fd5b81516001600160401b038111156127d957600080fd5b8201601f810184136127ea57600080fd5b80516127f8611e6c82611eb6565b81815285602083850101111561280d57600080fd5b610560826020830160208601611d2056fea26469706673582212202c879019479041f595edc4e41eddd84fdf542db029b68f2bbec1ddbe07882a5b64736f6c63430008110033ece574603820d07bc9b91f2a932baadf4628aabcb8afba49776529c14a6104b2",
    "linkReferences": {}
  },
  "methodIdentifiers": {
    "approve(address,uint256)": "095ea7b3",
    "authorizeOperator(address,bytes32)": "cf5182ba",
    "balanceOf(address)": "70a08231",
    "burn(uint256,bytes)": "fe9d9303",
    "getApproved(uint256)": "081812fc",
    "getData(bytes32)": "54f6127f",
    "getData(bytes32[])": "4e3e6e9c",
    "getOperatorsOf(bytes32)": "49a6078d",
    "isApprovedForAll(address,address)": "e985e9c5",
    "isOperatorFor(address,bytes32)": "2a3654a4",
    "mint(address,uint256,bytes)": "94d008ef",
    "name()": "06fdde03",
    "owner()": "8da5cb5b",
    "ownerOf(uint256)": "6352211e",
    "renounceOwnership()": "715018a6",
    "revokeOperator(address,bytes32)": "0b0c6d82",
    "safeTransferFrom(address,address,uint256)": "42842e0e",
    "safeTransferFrom(address,address,uint256,bytes)": "b88d4fde",
    "setApprovalForAll(address,bool)": "a22cb465",
    "setData(bytes32,bytes)": "7f23690c",
    "setData(bytes32[],bytes[])": "14a6e293",
    "supportsInterface(bytes4)": "01ffc9a7",
    "symbol()": "95d89b41",
    "tokenIdsOf(address)": "a3b261f2",
    "tokenOwnerOf(bytes32)": "217b2270",
    "tokenURI(uint256)": "c87b56dd",
    "totalSupply()": "18160ddd",
    "transfer(address,address,bytes32,bool,bytes)": "511b6952",
    "transferBatch(address[],address[],bytes32[],bool[],bytes[])": "7e87632c",
    "transferFrom(address,address,uint256)": "23b872dd",
    "transferOwnership(address)": "f2fde38b"
  },
  "id": 136
}