{
  "abi": [
    {
      "inputs": [],
      "stateMutability": "nonpayable",
      "type": "constructor"
    },
    {
      "inputs": [
        {
          "internalType": "uint256",
          "name": "dataKeysLength",
          "type": "uint256"
        },
        {
          "internalType": "uint256",
          "name": "dataValuesLength",
          "type": "uint256"
        }
      ],
      "name": "ERC725Y_DataKeysValuesLengthMismatch",
      "type": "error"
    },
    {
      "inputs": [],
      "name": "LSP4TokenNameNotEditable",
      "type": "error"
    },
    {
      "inputs": [],
      "name": "LSP4TokenSymbolNotEditable",
      "type": "error"
    },
    {
      "inputs": [
        {
          "internalType": "address",
          "name": "tokenOwner",
          "type": "address"
        },
        {
          "internalType": "uint256",
          "name": "authorizedAmount",
          "type": "uint256"
        },
        {
          "internalType": "address",
          "name": "operator",
          "type": "address"
        },
        {
          "internalType": "uint256",
          "name": "amount",
          "type": "uint256"
        }
      ],
      "name": "LSP7AmountExceedsAuthorizedAmount",
      "type": "error"
    },
    {
      "inputs": [
        {
          "internalType": "uint256",
          "name": "balance",
          "type": "uint256"
        },
        {
          "internalType": "address",
          "name": "tokenOwner",
          "type": "address"
        },
        {
          "internalType": "uint256",
          "name": "amount",
          "type": "uint256"
        }
      ],
      "name": "LSP7AmountExceedsBalance",
      "type": "error"
    },
    {
      "inputs": [],
      "name": "LSP7CannotSendToSelf",
      "type": "error"
    },
    {
      "inputs": [],
      "name": "LSP7CannotSendWithAddressZero",
      "type": "error"
    },
    {
      "inputs": [],
      "name": "LSP7CannotUseAddressZeroAsOperator",
      "type": "error"
    },
    {
      "inputs": [],
      "name": "LSP7InvalidTransferBatch",
      "type": "error"
    },
    {
      "inputs": [
        {
          "internalType": "address",
          "name": "tokenReceiver",
          "type": "address"
        }
      ],
      "name": "LSP7NotifyTokenReceiverContractMissingLSP1Interface",
      "type": "error"
    },
    {
      "inputs": [
        {
          "internalType": "address",
          "name": "tokenReceiver",
          "type": "address"
        }
      ],
      "name": "LSP7NotifyTokenReceiverIsEOA",
      "type": "error"
    },
    {
      "anonymous": false,
      "inputs": [
        {
          "indexed": true,
          "internalType": "address",
          "name": "operator",
          "type": "address"
        },
        {
          "indexed": true,
          "internalType": "address",
          "name": "tokenOwner",
          "type": "address"
        },
        {
          "indexed": true,
          "internalType": "uint256",
          "name": "amount",
          "type": "uint256"
        }
      ],
      "name": "AuthorizedOperator",
      "type": "event"
    },
    {
      "anonymous": false,
      "inputs": [
        {
          "indexed": true,
          "internalType": "bytes32",
          "name": "dataKey",
          "type": "bytes32"
        },
        {
          "indexed": false,
          "internalType": "bytes",
          "name": "dataValue",
          "type": "bytes"
        }
      ],
      "name": "DataChanged",
      "type": "event"
    },
    {
      "anonymous": false,
      "inputs": [
        {
          "indexed": false,
          "internalType": "uint8",
          "name": "version",
          "type": "uint8"
        }
      ],
      "name": "Initialized",
      "type": "event"
    },
    {
      "anonymous": false,
      "inputs": [
        {
          "indexed": true,
          "internalType": "address",
          "name": "previousOwner",
          "type": "address"
        },
        {
          "indexed": true,
          "internalType": "address",
          "name": "newOwner",
          "type": "address"
        }
      ],
      "name": "OwnershipTransferred",
      "type": "event"
    },
    {
      "anonymous": false,
      "inputs": [
        {
          "indexed": true,
          "internalType": "address",
          "name": "operator",
          "type": "address"
        },
        {
          "indexed": true,
          "internalType": "address",
          "name": "tokenOwner",
          "type": "address"
        }
      ],
      "name": "RevokedOperator",
      "type": "event"
    },
    {
      "anonymous": false,
      "inputs": [
        {
          "indexed": true,
          "internalType": "address",
          "name": "operator",
          "type": "address"
        },
        {
          "indexed": true,
          "internalType": "address",
          "name": "from",
          "type": "address"
        },
        {
          "indexed": true,
          "internalType": "address",
          "name": "to",
          "type": "address"
        },
        {
          "indexed": false,
          "internalType": "uint256",
          "name": "amount",
          "type": "uint256"
        },
        {
          "indexed": false,
          "internalType": "bool",
          "name": "force",
          "type": "bool"
        },
        {
          "indexed": false,
          "internalType": "bytes",
          "name": "data",
          "type": "bytes"
        }
      ],
      "name": "Transfer",
      "type": "event"
    },
    {
      "inputs": [
        {
          "internalType": "address",
          "name": "operator",
          "type": "address"
        },
        {
          "internalType": "uint256",
          "name": "amount",
          "type": "uint256"
        }
      ],
      "name": "authorizeOperator",
      "outputs": [],
      "stateMutability": "nonpayable",
      "type": "function"
    },
    {
      "inputs": [
        {
          "internalType": "address",
          "name": "operator",
          "type": "address"
        },
        {
          "internalType": "address",
          "name": "tokenOwner",
          "type": "address"
        }
      ],
      "name": "authorizedAmountFor",
      "outputs": [
        {
          "internalType": "uint256",
          "name": "",
          "type": "uint256"
        }
      ],
      "stateMutability": "view",
      "type": "function"
    },
    {
      "inputs": [
        {
          "internalType": "address",
          "name": "tokenOwner",
          "type": "address"
        }
      ],
      "name": "balanceOf",
      "outputs": [
        {
          "internalType": "uint256",
          "name": "",
          "type": "uint256"
        }
      ],
      "stateMutability": "view",
      "type": "function"
    },
    {
      "inputs": [],
      "name": "decimals",
      "outputs": [
        {
          "internalType": "uint8",
          "name": "",
          "type": "uint8"
        }
      ],
      "stateMutability": "view",
      "type": "function"
    },
    {
      "inputs": [
        {
          "internalType": "bytes32[]",
          "name": "dataKeys",
          "type": "bytes32[]"
        }
      ],
      "name": "getData",
      "outputs": [
        {
          "internalType": "bytes[]",
          "name": "dataValues",
          "type": "bytes[]"
        }
      ],
      "stateMutability": "view",
      "type": "function"
    },
    {
      "inputs": [
        {
          "internalType": "bytes32",
          "name": "dataKey",
          "type": "bytes32"
        }
      ],
      "name": "getData",
      "outputs": [
        {
          "internalType": "bytes",
          "name": "dataValue",
          "type": "bytes"
        }
      ],
      "stateMutability": "view",
      "type": "function"
    },
    {
      "inputs": [
        {
          "internalType": "string",
          "name": "name_",
          "type": "string"
        },
        {
          "internalType": "string",
          "name": "symbol_",
          "type": "string"
        },
        {
          "internalType": "address",
          "name": "newOwner_",
          "type": "address"
        },
        {
          "internalType": "bool",
          "name": "isNonDivisible_",
          "type": "bool"
        }
      ],
      "name": "initialize",
      "outputs": [],
      "stateMutability": "nonpayable",
      "type": "function"
    },
    {
      "inputs": [
        {
          "internalType": "address",
          "name": "to",
          "type": "address"
        },
        {
          "internalType": "uint256",
          "name": "amount",
          "type": "uint256"
        },
        {
          "internalType": "bool",
          "name": "force",
          "type": "bool"
        },
        {
          "internalType": "bytes",
          "name": "data",
          "type": "bytes"
        }
      ],
      "name": "mint",
      "outputs": [],
      "stateMutability": "nonpayable",
      "type": "function"
    },
    {
      "inputs": [],
      "name": "owner",
      "outputs": [
        {
          "internalType": "address",
          "name": "",
          "type": "address"
        }
      ],
      "stateMutability": "view",
      "type": "function"
    },
    {
      "inputs": [],
      "name": "renounceOwnership",
      "outputs": [],
      "stateMutability": "nonpayable",
      "type": "function"
    },
    {
      "inputs": [
        {
          "internalType": "address",
          "name": "operator",
          "type": "address"
        }
      ],
      "name": "revokeOperator",
      "outputs": [],
      "stateMutability": "nonpayable",
      "type": "function"
    },
    {
      "inputs": [
        {
          "internalType": "bytes32[]",
          "name": "dataKeys",
          "type": "bytes32[]"
        },
        {
          "internalType": "bytes[]",
          "name": "dataValues",
          "type": "bytes[]"
        }
      ],
      "name": "setData",
      "outputs": [],
      "stateMutability": "nonpayable",
      "type": "function"
    },
    {
      "inputs": [
        {
          "internalType": "bytes32",
          "name": "dataKey",
          "type": "bytes32"
        },
        {
          "internalType": "bytes",
          "name": "dataValue",
          "type": "bytes"
        }
      ],
      "name": "setData",
      "outputs": [],
      "stateMutability": "nonpayable",
      "type": "function"
    },
    {
      "inputs": [
        {
          "internalType": "bytes4",
          "name": "interfaceId",
          "type": "bytes4"
        }
      ],
      "name": "supportsInterface",
      "outputs": [
        {
          "internalType": "bool",
          "name": "",
          "type": "bool"
        }
      ],
      "stateMutability": "view",
      "type": "function"
    },
    {
      "inputs": [],
      "name": "totalSupply",
      "outputs": [
        {
          "internalType": "uint256",
          "name": "",
          "type": "uint256"
        }
      ],
      "stateMutability": "view",
      "type": "function"
    },
    {
      "inputs": [
        {
          "internalType": "address",
          "name": "from",
          "type": "address"
        },
        {
          "internalType": "address",
          "name": "to",
          "type": "address"
        },
        {
          "internalType": "uint256",
          "name": "amount",
          "type": "uint256"
        },
        {
          "internalType": "bool",
          "name": "force",
          "type": "bool"
        },
        {
          "internalType": "bytes",
          "name": "data",
          "type": "bytes"
        }
      ],
      "name": "transfer",
      "outputs": [],
      "stateMutability": "nonpayable",
      "type": "function"
    },
    {
      "inputs": [
        {
          "internalType": "address[]",
          "name": "from",
          "type": "address[]"
        },
        {
          "internalType": "address[]",
          "name": "to",
          "type": "address[]"
        },
        {
          "internalType": "uint256[]",
          "name": "amount",
          "type": "uint256[]"
        },
        {
          "internalType": "bool[]",
          "name": "force",
          "type": "bool[]"
        },
        {
          "internalType": "bytes[]",
          "name": "data",
          "type": "bytes[]"
        }
      ],
      "name": "transferBatch",
      "outputs": [],
      "stateMutability": "nonpayable",
      "type": "function"
    },
    {
      "inputs": [
        {
          "internalType": "address",
          "name": "newOwner",
          "type": "address"
        }
      ],
      "name": "transferOwnership",
      "outputs": [],
      "stateMutability": "nonpayable",
      "type": "function"
    }
  ],
  "bytecode": {
    "object": "0x608060405234801561001057600080fd5b5061001961001e565b6100de565b600054610100900460ff161561008a5760405162461bcd60e51b815260206004820152602760248201527f496e697469616c697a61626c653a20636f6e747261637420697320696e697469604482015266616c697a696e6760c81b606482015260840160405180910390fd5b60005460ff90811610156100dc576000805460ff191660ff9081179091556040519081527f7f26b83ff96e1f2b6a682f133852f6798a09c465da95921460cefb38474024989060200160405180910390a15b565b611de7806100ed6000396000f3fe608060405234801561001057600080fd5b50600436106101165760003560e01c806365aeaa95116100a2578063760d9bba11610071578063760d9bba146102545780637f23690c146102675780638da5cb5b1461027a578063f2fde38b146102a4578063fad8b32a146102b757600080fd5b806365aeaa95146101fd57806370a0823114610210578063715018a6146102395780637580d9201461024157600080fd5b8063313ce567116100e9578063313ce5671461017d57806347980aa3146101975780634e3e6e9c146101aa57806354f6127f146101ca5780635c108a43146101ea57600080fd5b806301ffc9a71461011b57806314a6e2931461014357806318160ddd146101585780632d7667c91461016a575b600080fd5b61012e61012936600461139a565b6102ca565b60405190151581526020015b60405180910390f35b610156610151366004611596565b6102f5565b005b6003545b60405190815260200161013a565b6101566101783660046116e9565b610386565b610185610475565b60405160ff909116815260200161013a565b6101566101a53660046117ba565b61048e565b6101bd6101b83660046117e4565b61049d565b60405161013a9190611870565b6101dd6101d83660046118d2565b610550565b60405161013a91906118eb565b6101566101f83660046118fe565b61055b565b61015c61020b366004611982565b610674565b61015c61021e3660046119b5565b6001600160a01b031660009081526004602052604090205490565b6101566106db565b61015661024f3660046119d0565b6106ef565b610156610262366004611a37565b610709565b610156610275366004611aa2565b6107de565b6000546201000090046001600160a01b03166040516001600160a01b03909116815260200161013a565b6101566102b23660046119b5565b6107f0565b6101566102c53660046119b5565b610869565b60006001600160e01b03198216633687e17960e21b14806102ef57506102ef82610875565b92915050565b6102fd6108aa565b805182511461033157815181516040516321d1e13360e11b8152600481019290925260248201526044015b60405180910390fd5b60005b82518110156103815761037983828151811061035257610352611ade565b602002602001015183838151811061036c5761036c611ade565b602002602001015161090b565b600101610334565b505050565b8451845181141580610399575083518114155b806103a5575082518114155b806103b1575081518114155b156103cf5760405163263eee8d60e01b815260040160405180910390fd5b60005b8181101561046c576104648782815181106103ef576103ef611ade565b602002602001015187838151811061040957610409611ade565b602002602001015187848151811061042357610423611ade565b602002602001015187858151811061043d5761043d611ade565b602002602001015187868151811061045757610457611ade565b6020026020010151610709565b6001016103d2565b50505050505050565b60025460009060ff166104885750601290565b50600090565b6104993383836109ff565b5050565b606081516001600160401b038111156104b8576104b86113cb565b6040519080825280602002602001820160405280156104eb57816020015b60608152602001906001900390816104d65790505b50905060005b825181101561054a5761051c83828151811061050f5761050f611ade565b6020026020010151610afd565b82828151811061052e5761052e611ade565b60200260200101819052506105438160010190565b90506104f1565b50919050565b60606102ef82610afd565b600054610100900460ff161580801561057b5750600054600160ff909116105b806105955750303b158015610595575060005460ff166001145b6105f85760405162461bcd60e51b815260206004820152602e60248201527f496e697469616c697a61626c653a20636f6e747261637420697320616c72656160448201526d191e481a5b9a5d1a585b1a5e995960921b6064820152608401610328565b6000805460ff19166001179055801561061b576000805461ff0019166101001790555b61062785858585610b9f565b801561066d576000805461ff0019169055604051600181527f7f26b83ff96e1f2b6a682f133852f6798a09c465da95921460cefb38474024989060200160405180910390a15b5050505050565b6000826001600160a01b0316826001600160a01b0316036106ae57506001600160a01b0381166000908152600460205260409020546102ef565b506001600160a01b0380821660009081526005602090815260408083209386168352929052205492915050565b6106e36108aa565b6106ed6000610bd2565b565b6106f76108aa565b61070384848484610c48565b50505050565b836001600160a01b0316856001600160a01b03160361073a57604051620b9afb60ec1b815260040160405180910390fd5b336001600160a01b03861681146107c9576001600160a01b03808716600090815260056020908152604080832093851683529290522054808511156107b35760405163f3a6b69160e01b81526001600160a01b038089166004830152602482018390528316604482015260648101869052608401610328565b6107c787836107c28885611b0a565b6109ff565b505b6107d68686868686610d1e565b505050505050565b6107e66108aa565b610499828261090b565b6107f86108aa565b6001600160a01b03811661085d5760405162461bcd60e51b815260206004820152602660248201527f4f776e61626c653a206e6577206f776e657220697320746865207a65726f206160448201526564647265737360d01b6064820152608401610328565b61086681610bd2565b50565b610866338260006109ff565b60006001600160e01b03198216631c537ddf60e21b14806102ef57506301ffc9a760e01b6001600160e01b03198316146102ef565b6000546001600160a01b03620100009091041633146106ed5760405162461bcd60e51b815260206004820181905260248201527f4f776e61626c653a2063616c6c6572206973206e6f7420746865206f776e65726044820152606401610328565b7f2145e1d6d074577dc71ef54c3807742b41b053a9352ae6b491331509acb9750f820161094b576040516385c169bd60e01b815260040160405180910390fd5b7fd0f59754f88971fe6bc5a6618cc9d5f1e859c58d16b22d1c7b2d3e2b246cd8aa820161098b57604051630eceab6760e31b815260040160405180910390fd5b60008281526001602052604090206109a38282611b97565b50817fece574603820d07bc9b91f2a932baadf4628aabcb8afba49776529c14a6104b2610100835111156109e4576109df836000610100610e7b565b6109e6565b825b6040516109f391906118eb565b60405180910390a25050565b6001600160a01b038216610a26576040516331aaf3b360e11b815260040160405180910390fd5b826001600160a01b0316826001600160a01b031603610a4457505050565b6001600160a01b0380841660009081526005602090815260408083209386168352929052208190558015610ab85780836001600160a01b0316836001600160a01b03167fd66aff874162a96578e919097b6f6d153dfd89a5cec41bb331fdb0c4aec16e2c60405160405180910390a4505050565b826001600160a01b0316826001600160a01b03167f50546e66e5f44d728365dc3908c63bc5cfeeab470722c1677e3073a6ac294aa160405160405180910390a3505050565b6000818152600160205260409020805460609190610b1a90611b1d565b80601f0160208091040260200160405190810160405280929190818152602001828054610b4690611b1d565b8015610b935780601f10610b6857610100808354040283529160200191610b93565b820191906000526020600020905b815481529060010190602001808311610b7657829003601f168201915b50505050509050919050565b600054610100900460ff16610bc65760405162461bcd60e51b815260040161032890611c56565b61070384848484610f88565b6000546001600160a01b0382811662010000909204161461086657600080546001600160a01b038381166201000081810262010000600160b01b0319851617855560405193049190911692909183917f8be0079c531659141344cd1fd0a4f28419497f9722a3daafe3b4186f6b6457e091a35050565b6001600160a01b038416610c6f57604051630d2d5ec360e41b815260040160405180910390fd5b338360036000828254610c829190611ca1565b90915550506001600160a01b03851660009081526004602052604081208054869290610caf908490611ca1565b92505081905550846001600160a01b031660006001600160a01b0316826001600160a01b03167f3997e418d2cef0b3b0e907b1e39605c3f7d32dbd061e82ea5b4a770d46a160a6878787604051610d0893929190611cb4565b60405180910390a461066d600086868686610fc8565b6001600160a01b0385161580610d3b57506001600160a01b038416155b15610d5957604051630d2d5ec360e41b815260040160405180910390fd5b6001600160a01b03851660009081526004602052604090205480841115610dac576040516308d4794960e01b8152600481018290526001600160a01b038716602482015260448101859052606401610328565b336001600160a01b03871660009081526004602052604081208054879290610dd5908490611b0a565b90915550506001600160a01b03861660009081526004602052604081208054879290610e02908490611ca1565b92505081905550856001600160a01b0316876001600160a01b0316826001600160a01b03167f3997e418d2cef0b3b0e907b1e39605c3f7d32dbd061e82ea5b4a770d46a160a6888888604051610e5a93929190611cb4565b60405180910390a4610e6e87878786611100565b61046c8787878787610fc8565b606081610e8981601f611ca1565b1015610ec85760405162461bcd60e51b815260206004820152600e60248201526d736c6963655f6f766572666c6f7760901b6044820152606401610328565b610ed28284611ca1565b84511015610f165760405162461bcd60e51b8152602060048201526011602482015270736c6963655f6f75744f66426f756e647360781b6044820152606401610328565b606082158015610f355760405191506000825260208201604052610f7f565b6040519150601f8416801560200281840101858101878315602002848b0101015b81831015610f6e578051835260209283019201610f56565b5050858452601f01601f1916604052505b50949350505050565b600054610100900460ff16610faf5760405162461bcd60e51b815260040161032890611c56565b6002805460ff19168215151790556107038484846111d4565b610fd984631aed5a8560e21b6112a1565b156110a357600085858584604051602001610ff79493929190611cde565b60408051601f1981840301815290829052631aed5a8560e21b825291506001600160a01b03861690636bb56a1490611055907f20804611b3e2ea21c480dc465142210acf4a2485947541770ec1fb87dee4a55c908590600401611d2b565b6000604051808303816000875af1158015611074573d6000803e3d6000fd5b505050506040513d6000823e601f3d908101601f1916820160405261109c9190810190611d44565b505061066d565b8161066d576001600160a01b0384163b156110dc576040516353047ddb60e11b81526001600160a01b0385166004820152602401610328565b6040516309b091fd60e21b81526001600160a01b0385166004820152602401610328565b61111184631aed5a8560e21b6112a1565b156107035760008484848460405160200161112f9493929190611cde565b60408051601f1981840301815290829052631aed5a8560e21b825291506001600160a01b03861690636bb56a149061118d907f429ac7a06903dbc9c13dfcb3c9d11df8194581fa047c96d7a4171fc7402958ea908590600401611d2b565b6000604051808303816000875af11580156111ac573d6000803e3d6000fd5b505050506040513d6000823e601f3d908101601f191682016040526107d69190810190611d44565b600054610100900460ff166111fb5760405162461bcd60e51b815260040161032890611c56565b6112048161132a565b61124d7feafec4d89fa9619884b60000a4d96624a38f7ac2d8d9a604ecf07c12c77e480c60001b604051806040016040528060048152602001632936598960e21b815250611351565b6112777fdeba1e292f8ba88238e10ab3c7f88bd4be4fac56cad5194b6ecceaf653468af184611351565b6103817f2f0a68ab07768e01943a599e73362a0e17a63a72e94dd2e384d2c1d4db93275683611351565b604080516001600160e01b03198316602480830191909152825180830390910181526044909101909152602080820180516001600160e01b03166301ffc9a760e01b178152825160009392849283928392918391908a617530fa92503d91506000519050828015611313575060208210155b801561131f5750600081115b979650505050505050565b600054610100900460ff166107f85760405162461bcd60e51b815260040161032890611c56565b60008281526001602052604090206113698282611b97565b50817fece574603820d07bc9b91f2a932baadf4628aabcb8afba49776529c14a6104b2826040516109f391906118eb565b6000602082840312156113ac57600080fd5b81356001600160e01b0319811681146113c457600080fd5b9392505050565b634e487b7160e01b600052604160045260246000fd5b604051601f8201601f191681016001600160401b0381118282101715611409576114096113cb565b604052919050565b60006001600160401b0382111561142a5761142a6113cb565b5060051b60200190565b600082601f83011261144557600080fd5b8135602061145a61145583611411565b6113e1565b82815260059290921b8401810191818101908684111561147957600080fd5b8286015b84811015611494578035835291830191830161147d565b509695505050505050565b60006001600160401b038211156114b8576114b86113cb565b50601f01601f191660200190565b600082601f8301126114d757600080fd5b81356114e56114558261149f565b8181528460208386010111156114fa57600080fd5b816020850160208301376000918101602001919091529392505050565b600082601f83011261152857600080fd5b8135602061153861145583611411565b82815260059290921b8401810191818101908684111561155757600080fd5b8286015b848110156114945780356001600160401b0381111561157a5760008081fd5b6115888986838b01016114c6565b84525091830191830161155b565b600080604083850312156115a957600080fd5b82356001600160401b03808211156115c057600080fd5b6115cc86838701611434565b935060208501359150808211156115e257600080fd5b506115ef85828601611517565b9150509250929050565b80356001600160a01b038116811461161057600080fd5b919050565b600082601f83011261162657600080fd5b8135602061163661145583611411565b82815260059290921b8401810191818101908684111561165557600080fd5b8286015b848110156114945761166a816115f9565b8352918301918301611659565b8035801515811461161057600080fd5b600082601f83011261169857600080fd5b813560206116a861145583611411565b82815260059290921b840181019181810190868411156116c757600080fd5b8286015b84811015611494576116dc81611677565b83529183019183016116cb565b600080600080600060a0868803121561170157600080fd5b85356001600160401b038082111561171857600080fd5b61172489838a01611615565b9650602088013591508082111561173a57600080fd5b61174689838a01611615565b9550604088013591508082111561175c57600080fd5b61176889838a01611434565b9450606088013591508082111561177e57600080fd5b61178a89838a01611687565b935060808801359150808211156117a057600080fd5b506117ad88828901611517565b9150509295509295909350565b600080604083850312156117cd57600080fd5b6117d6836115f9565b946020939093013593505050565b6000602082840312156117f657600080fd5b81356001600160401b0381111561180c57600080fd5b61181884828501611434565b949350505050565b60005b8381101561183b578181015183820152602001611823565b50506000910152565b6000815180845261185c816020860160208601611820565b601f01601f19169290920160200192915050565b6000602080830181845280855180835260408601915060408160051b870101925083870160005b828110156118c557603f198886030184526118b3858351611844565b94509285019290850190600101611897565b5092979650505050505050565b6000602082840312156118e457600080fd5b5035919050565b6020815260006113c46020830184611844565b6000806000806080858703121561191457600080fd5b84356001600160401b038082111561192b57600080fd5b611937888389016114c6565b9550602087013591508082111561194d57600080fd5b5061195a878288016114c6565b935050611969604086016115f9565b915061197760608601611677565b905092959194509250565b6000806040838503121561199557600080fd5b61199e836115f9565b91506119ac602084016115f9565b90509250929050565b6000602082840312156119c757600080fd5b6113c4826115f9565b600080600080608085870312156119e657600080fd5b6119ef856115f9565b935060208501359250611a0460408601611677565b915060608501356001600160401b03811115611a1f57600080fd5b611a2b878288016114c6565b91505092959194509250565b600080600080600060a08688031215611a4f57600080fd5b611a58866115f9565b9450611a66602087016115f9565b935060408601359250611a7b60608701611677565b915060808601356001600160401b03811115611a9657600080fd5b6117ad888289016114c6565b60008060408385031215611ab557600080fd5b8235915060208301356001600160401b03811115611ad257600080fd5b6115ef858286016114c6565b634e487b7160e01b600052603260045260246000fd5b634e487b7160e01b600052601160045260246000fd5b818103818111156102ef576102ef611af4565b600181811c90821680611b3157607f821691505b60208210810361054a57634e487b7160e01b600052602260045260246000fd5b601f82111561038157600081815260208120601f850160051c81016020861015611b785750805b601f850160051c820191505b818110156107d657828155600101611b84565b81516001600160401b03811115611bb057611bb06113cb565b611bc481611bbe8454611b1d565b84611b51565b602080601f831160018114611bf95760008415611be15750858301515b600019600386901b1c1916600185901b1785556107d6565b600085815260208120601f198616915b82811015611c2857888601518255948401946001909101908401611c09565b5085821015611c465787850151600019600388901b60f8161c191681555b5050505050600190811b01905550565b6020808252602b908201527f496e697469616c697a61626c653a20636f6e7472616374206973206e6f74206960408201526a6e697469616c697a696e6760a81b606082015260800190565b808201808211156102ef576102ef611af4565b8381528215156020820152606060408201526000611cd56060830184611844565b95945050505050565b60006bffffffffffffffffffffffff19808760601b168352808660601b166014840152508360288301528251611d1b816048850160208701611820565b9190910160480195945050505050565b8281526040602082015260006118186040830184611844565b600060208284031215611d5657600080fd5b81516001600160401b03811115611d6c57600080fd5b8201601f81018413611d7d57600080fd5b8051611d8b6114558261149f565b818152856020838501011115611da057600080fd5b611cd582602083016020860161182056fea2646970667358221220091b315c424c8eba5853ef57acd52c22dc8d71d60844347bcdca8aaff8aca56264736f6c63430008110033",
    "linkReferences": {}
  },
  "methodIdentifiers": {
    "authorizeOperator(address,uint256)": "47980aa3",
    "authorizedAmountFor(address,address)": "65aeaa95",
    "balanceOf(address)": "70a08231",
    "decimals()": "313ce567",
    "getData(bytes32)": "54f6127f",
    "getData(bytes32[])": "4e3e6e9c",
    "initialize(string,string,address,bool)": "5c108a43",
    "mint(address,uint256,bool,bytes)": "7580d920",
    "owner()": "8da5cb5b",
    "renounceOwnership()": "715018a6",
    "revokeOperator(address)": "fad8b32a",
    "setData(bytes32,bytes)": "7f23690c",
    "setData(bytes32[],bytes[])": "14a6e293",
    "supportsInterface(bytes4)": "01ffc9a7",
    "totalSupply()": "18160ddd",
    "transfer(address,address,uint256,bool,bytes)": "760d9bba",
    "transferBatch(address[],address[],uint256[],bool[],bytes[])": "2d7667c9",
    "transferOwnership(address)": "f2fde38b"
  },
  "id": 60
}