{
  "abi": [
    {
      "inputs": [
        {
          "internalType": "string",
          "name": "name_",
          "type": "string"
        },
        {
          "internalType": "string",
          "name": "symbol_",
          "type": "string"
        },
        {
          "internalType": "address",
          "name": "newOwner_",
          "type": "address"
        }
      ],
      "stateMutability": "nonpayable",
      "type": "constructor"
    },
    {
      "inputs": [
        {
          "internalType": "uint256",
          "name": "dataKeysLength",
          "type": "uint256"
        },
        {
          "internalType": "uint256",
          "name": "dataValuesLength",
          "type": "uint256"
        }
      ],
      "name": "ERC725Y_DataKeysValuesLengthMismatch",
      "type": "error"
    },
    {
      "inputs": [],
      "name": "LSP4TokenNameNotEditable",
      "type": "error"
    },
    {
      "inputs": [],
      "name": "LSP4TokenSymbolNotEditable",
      "type": "error"
    },
    {
      "inputs": [],
      "name": "LSP8CannotSendToAddressZero",
      "type": "error"
    },
    {
      "inputs": [],
      "name": "LSP8CannotSendToSelf",
      "type": "error"
    },
    {
      "inputs": [],
      "name": "LSP8CannotUseAddressZeroAsOperator",
      "type": "error"
    },
    {
      "inputs": [],
      "name": "LSP8InvalidTransferBatch",
      "type": "error"
    },
    {
      "inputs": [
        {
          "internalType": "bytes32",
          "name": "tokenId",
          "type": "bytes32"
        }
      ],
      "name": "LSP8NonExistentTokenId",
      "type": "error"
    },
    {
      "inputs": [
        {
          "internalType": "address",
          "name": "operator",
          "type": "address"
        },
        {
          "internalType": "bytes32",
          "name": "tokenId",
          "type": "bytes32"
        }
      ],
      "name": "LSP8NonExistingOperator",
      "type": "error"
    },
    {
      "inputs": [
        {
          "internalType": "bytes32",
          "name": "tokenId",
          "type": "bytes32"
        },
        {
          "internalType": "address",
          "name": "caller",
          "type": "address"
        }
      ],
      "name": "LSP8NotTokenOperator",
      "type": "error"
    },
    {
      "inputs": [
        {
          "internalType": "address",
          "name": "tokenOwner",
          "type": "address"
        },
        {
          "internalType": "bytes32",
          "name": "tokenId",
          "type": "bytes32"
        },
        {
          "internalType": "address",
          "name": "caller",
          "type": "address"
        }
      ],
      "name": "LSP8NotTokenOwner",
      "type": "error"
    },
    {
      "inputs": [
        {
          "internalType": "address",
          "name": "tokenReceiver",
          "type": "address"
        }
      ],
      "name": "LSP8NotifyTokenReceiverContractMissingLSP1Interface",
      "type": "error"
    },
    {
      "inputs": [
        {
          "internalType": "address",
          "name": "tokenReceiver",
          "type": "address"
        }
      ],
      "name": "LSP8NotifyTokenReceiverIsEOA",
      "type": "error"
    },
    {
      "inputs": [
        {
          "internalType": "address",
          "name": "operator",
          "type": "address"
        },
        {
          "internalType": "bytes32",
          "name": "tokenId",
          "type": "bytes32"
        }
      ],
      "name": "LSP8OperatorAlreadyAuthorized",
      "type": "error"
    },
    {
      "inputs": [
        {
          "internalType": "bytes32",
          "name": "tokenId",
          "type": "bytes32"
        }
      ],
      "name": "LSP8TokenIdAlreadyMinted",
      "type": "error"
    },
    {
      "anonymous": false,
      "inputs": [
        {
          "indexed": true,
          "internalType": "address",
          "name": "operator",
          "type": "address"
        },
        {
          "indexed": true,
          "internalType": "address",
          "name": "tokenOwner",
          "type": "address"
        },
        {
          "indexed": true,
          "internalType": "bytes32",
          "name": "tokenId",
          "type": "bytes32"
        }
      ],
      "name": "AuthorizedOperator",
      "type": "event"
    },
    {
      "anonymous": false,
      "inputs": [
        {
          "indexed": true,
          "internalType": "bytes32",
          "name": "dataKey",
          "type": "bytes32"
        },
        {
          "indexed": false,
          "internalType": "bytes",
          "name": "dataValue",
          "type": "bytes"
        }
      ],
      "name": "DataChanged",
      "type": "event"
    },
    {
      "anonymous": false,
      "inputs": [
        {
          "indexed": true,
          "internalType": "address",
          "name": "previousOwner",
          "type": "address"
        },
        {
          "indexed": true,
          "internalType": "address",
          "name": "newOwner",
          "type": "address"
        }
      ],
      "name": "OwnershipTransferred",
      "type": "event"
    },
    {
      "anonymous": false,
      "inputs": [
        {
          "indexed": true,
          "internalType": "address",
          "name": "operator",
          "type": "address"
        },
        {
          "indexed": true,
          "internalType": "address",
          "name": "tokenOwner",
          "type": "address"
        },
        {
          "indexed": true,
          "internalType": "bytes32",
          "name": "tokenId",
          "type": "bytes32"
        }
      ],
      "name": "RevokedOperator",
      "type": "event"
    },
    {
      "anonymous": false,
      "inputs": [
        {
          "indexed": false,
          "internalType": "address",
          "name": "operator",
          "type": "address"
        },
        {
          "indexed": true,
          "internalType": "address",
          "name": "from",
          "type": "address"
        },
        {
          "indexed": true,
          "internalType": "address",
          "name": "to",
          "type": "address"
        },
        {
          "indexed": true,
          "internalType": "bytes32",
          "name": "tokenId",
          "type": "bytes32"
        },
        {
          "indexed": false,
          "internalType": "bool",
          "name": "force",
          "type": "bool"
        },
        {
          "indexed": false,
          "internalType": "bytes",
          "name": "data",
          "type": "bytes"
        }
      ],
      "name": "Transfer",
      "type": "event"
    },
    {
      "inputs": [
        {
          "internalType": "address",
          "name": "operator",
          "type": "address"
        },
        {
          "internalType": "bytes32",
          "name": "tokenId",
          "type": "bytes32"
        }
      ],
      "name": "authorizeOperator",
      "outputs": [],
      "stateMutability": "nonpayable",
      "type": "function"
    },
    {
      "inputs": [
        {
          "internalType": "address",
          "name": "tokenOwner",
          "type": "address"
        }
      ],
      "name": "balanceOf",
      "outputs": [
        {
          "internalType": "uint256",
          "name": "",
          "type": "uint256"
        }
      ],
      "stateMutability": "view",
      "type": "function"
    },
    {
      "inputs": [
        {
          "internalType": "bytes32[]",
          "name": "dataKeys",
          "type": "bytes32[]"
        }
      ],
      "name": "getData",
      "outputs": [
        {
          "internalType": "bytes[]",
          "name": "dataValues",
          "type": "bytes[]"
        }
      ],
      "stateMutability": "view",
      "type": "function"
    },
    {
      "inputs": [
        {
          "internalType": "bytes32",
          "name": "dataKey",
          "type": "bytes32"
        }
      ],
      "name": "getData",
      "outputs": [
        {
          "internalType": "bytes",
          "name": "dataValue",
          "type": "bytes"
        }
      ],
      "stateMutability": "view",
      "type": "function"
    },
    {
      "inputs": [
        {
          "internalType": "bytes32",
          "name": "tokenId",
          "type": "bytes32"
        }
      ],
      "name": "getOperatorsOf",
      "outputs": [
        {
          "internalType": "address[]",
          "name": "",
          "type": "address[]"
        }
      ],
      "stateMutability": "view",
      "type": "function"
    },
    {
      "inputs": [
        {
          "internalType": "address",
          "name": "operator",
          "type": "address"
        },
        {
          "internalType": "bytes32",
          "name": "tokenId",
          "type": "bytes32"
        }
      ],
      "name": "isOperatorFor",
      "outputs": [
        {
          "internalType": "bool",
          "name": "",
          "type": "bool"
        }
      ],
      "stateMutability": "view",
      "type": "function"
    },
    {
      "inputs": [
        {
          "internalType": "address",
          "name": "to",
          "type": "address"
        },
        {
          "internalType": "bytes32",
          "name": "tokenId",
          "type": "bytes32"
        },
        {
          "internalType": "bool",
          "name": "force",
          "type": "bool"
        },
        {
          "internalType": "bytes",
          "name": "data",
          "type": "bytes"
        }
      ],
      "name": "mint",
      "outputs": [],
      "stateMutability": "nonpayable",
      "type": "function"
    },
    {
      "inputs": [],
      "name": "owner",
      "outputs": [
        {
          "internalType": "address",
          "name": "",
          "type": "address"
        }
      ],
      "stateMutability": "view",
      "type": "function"
    },
    {
      "inputs": [],
      "name": "renounceOwnership",
      "outputs": [],
      "stateMutability": "nonpayable",
      "type": "function"
    },
    {
      "inputs": [
        {
          "internalType": "address",
          "name": "operator",
          "type": "address"
        },
        {
          "internalType": "bytes32",
          "name": "tokenId",
          "type": "bytes32"
        }
      ],
      "name": "revokeOperator",
      "outputs": [],
      "stateMutability": "nonpayable",
      "type": "function"
    },
    {
      "inputs": [
        {
          "internalType": "bytes32[]",
          "name": "dataKeys",
          "type": "bytes32[]"
        },
        {
          "internalType": "bytes[]",
          "name": "dataValues",
          "type": "bytes[]"
        }
      ],
      "name": "setData",
      "outputs": [],
      "stateMutability": "nonpayable",
      "type": "function"
    },
    {
      "inputs": [
        {
          "internalType": "bytes32",
          "name": "dataKey",
          "type": "bytes32"
        },
        {
          "internalType": "bytes",
          "name": "dataValue",
          "type": "bytes"
        }
      ],
      "name": "setData",
      "outputs": [],
      "stateMutability": "nonpayable",
      "type": "function"
    },
    {
      "inputs": [
        {
          "internalType": "bytes4",
          "name": "interfaceId",
          "type": "bytes4"
        }
      ],
      "name": "supportsInterface",
      "outputs": [
        {
          "internalType": "bool",
          "name": "",
          "type": "bool"
        }
      ],
      "stateMutability": "view",
      "type": "function"
    },
    {
      "inputs": [
        {
          "internalType": "address",
          "name": "tokenOwner",
          "type": "address"
        }
      ],
      "name": "tokenIdsOf",
      "outputs": [
        {
          "internalType": "bytes32[]",
          "name": "",
          "type": "bytes32[]"
        }
      ],
      "stateMutability": "view",
      "type": "function"
    },
    {
      "inputs": [
        {
          "internalType": "bytes32",
          "name": "tokenId",
          "type": "bytes32"
        }
      ],
      "name": "tokenOwnerOf",
      "outputs": [
        {
          "internalType": "address",
          "name": "",
          "type": "address"
        }
      ],
      "stateMutability": "view",
      "type": "function"
    },
    {
      "inputs": [],
      "name": "totalSupply",
      "outputs": [
        {
          "internalType": "uint256",
          "name": "",
          "type": "uint256"
        }
      ],
      "stateMutability": "view",
      "type": "function"
    },
    {
      "inputs": [
        {
          "internalType": "address",
          "name": "from",
          "type": "address"
        },
        {
          "internalType": "address",
          "name": "to",
          "type": "address"
        },
        {
          "internalType": "bytes32",
          "name": "tokenId",
          "type": "bytes32"
        },
        {
          "internalType": "bool",
          "name": "force",
          "type": "bool"
        },
        {
          "internalType": "bytes",
          "name": "data",
          "type": "bytes"
        }
      ],
      "name": "transfer",
      "outputs": [],
      "stateMutability": "nonpayable",
      "type": "function"
    },
    {
      "inputs": [
        {
          "internalType": "address[]",
          "name": "from",
          "type": "address[]"
        },
        {
          "internalType": "address[]",
          "name": "to",
          "type": "address[]"
        },
        {
          "internalType": "bytes32[]",
          "name": "tokenId",
          "type": "bytes32[]"
        },
        {
          "internalType": "bool[]",
          "name": "force",
          "type": "bool[]"
        },
        {
          "internalType": "bytes[]",
          "name": "data",
          "type": "bytes[]"
        }
      ],
      "name": "transferBatch",
      "outputs": [],
      "stateMutability": "nonpayable",
      "type": "function"
    },
    {
      "inputs": [
        {
          "internalType": "address",
          "name": "newOwner",
          "type": "address"
        }
      ],
      "name": "transferOwnership",
      "outputs": [],
      "stateMutability": "nonpayable",
      "type": "function"
    }
  ],
  "bytecode": {
    "object": "0x60806040523480156200001157600080fd5b50604051620024eb380380620024eb833981016040819052620000349162000322565b828282828282806001600160a01b038116620000a55760405162461bcd60e51b815260206004820152602660248201527f4f776e61626c653a206e6577206f776e657220697320746865207a65726f206160448201526564647265737360d01b606482015260840160405180910390fd5b620000bb816200019560201b620008e01760201c565b50620001127feafec4d89fa9619884b60000a4d96624a38f7ac2d8d9a604ecf07c12c77e480c60001b604051806040016040528060048152602001632936598960e21b815250620001fc60201b620009451760201c565b6200014c7fdeba1e292f8ba88238e10ab3c7f88bd4be4fac56cad5194b6ecceaf653468af160001b84620001fc60201b620009451760201c565b620001867f2f0a68ab07768e01943a599e73362a0e17a63a72e94dd2e384d2c1d4db93275660001b83620001fc60201b620009451760201c565b5050505050505050506200053f565b6000546001600160a01b03828116911614620001f957600080546001600160a01b038381166001600160a01b0319831681178455604051919092169283917f8be0079c531659141344cd1fd0a4f28419497f9722a3daafe3b4186f6b6457e09190a3505b50565b60008281526001602052604090206200021682826200043e565b50817fece574603820d07bc9b91f2a932baadf4628aabcb8afba49776529c14a6104b2826040516200024991906200050a565b60405180910390a25050565b634e487b7160e01b600052604160045260246000fd5b60005b83811015620002885781810151838201526020016200026e565b50506000910152565b600082601f830112620002a357600080fd5b81516001600160401b0380821115620002c057620002c062000255565b604051601f8301601f19908116603f01168101908282118183101715620002eb57620002eb62000255565b816040528381528660208588010111156200030557600080fd5b620003188460208301602089016200026b565b9695505050505050565b6000806000606084860312156200033857600080fd5b83516001600160401b03808211156200035057600080fd5b6200035e8783880162000291565b945060208601519150808211156200037557600080fd5b50620003848682870162000291565b604086015190935090506001600160a01b0381168114620003a457600080fd5b809150509250925092565b600181811c90821680620003c457607f821691505b602082108103620003e557634e487b7160e01b600052602260045260246000fd5b50919050565b601f8211156200043957600081815260208120601f850160051c81016020861015620004145750805b601f850160051c820191505b81811015620004355782815560010162000420565b5050505b505050565b81516001600160401b038111156200045a576200045a62000255565b62000472816200046b8454620003af565b84620003eb565b602080601f831160018114620004aa5760008415620004915750858301515b600019600386901b1c1916600185901b17855562000435565b600085815260208120601f198616915b82811015620004db57888601518255948401946001909101908401620004ba565b5085821015620004fa5787850151600019600388901b60f8161c191681555b5050505050600190811b01905550565b60208152600082518060208401526200052b8160408501602087016200026b565b601f01601f19169190910160400192915050565b611f9c806200054f6000396000f3fe608060405234801561001057600080fd5b50600436106101215760003560e01c806354f6127f116100ad5780638da5cb5b116100715780638da5cb5b1461027a578063a3b261f21461028b578063af255b61146102ab578063cf5182ba146102be578063f2fde38b146102d157600080fd5b806354f6127f1461021957806370a0823114610239578063715018a61461024c5780637e87632c146102545780637f23690c1461026757600080fd5b8063217b2270116100f4578063217b2270146101885780632a3654a4146101b357806349a6078d146101c65780634e3e6e9c146101e6578063511b69521461020657600080fd5b806301ffc9a7146101265780630b0c6d821461014e57806314a6e2931461016357806318160ddd14610176575b600080fd5b6101396101343660046115ba565b6102e4565b60405190151581526020015b60405180910390f35b61016161015c366004611600565b61030f565b005b6101616101713660046117f5565b6103bc565b6002545b604051908152602001610145565b61019b610196366004611858565b610448565b6040516001600160a01b039091168152602001610145565b6101396101c1366004611600565b610481565b6101d96101d4366004611858565b61049d565b6040516101459190611871565b6101f96101f43660046118be565b6104bf565b6040516101459190611942565b6101616102143660046119b4565b610572565b61022c610227366004611858565b6105c1565b6040516101459190611a2c565b61017a610247366004611a3f565b6105cc565b6101616105ed565b610161610262366004611b1e565b610601565b610161610275366004611be2565b6106f0565b6000546001600160a01b031661019b565b61029e610299366004611a3f565b610706565b6040516101459190611c1e565b6101616102b9366004611c56565b61072a565b6101616102cc366004611600565b61073e565b6101616102df366004611a3f565b610867565b60006001600160e01b0319821663622e7a0160e01b148061030957506103098261099a565b92915050565b600061031a82610448565b9050336001600160a01b038216811461036557604051632d938f5160e11b81526001600160a01b03808416600483015260248201859052821660448201526064015b60405180910390fd5b6001600160a01b03841661038c57604051639577b8b360e01b815260040160405180910390fd5b836001600160a01b0316826001600160a01b0316036103ab5750505050565b6103b68483856109cf565b50505050565b6103c4610a60565b80518251146103f357815181516040516321d1e13360e11b81526004810192909252602482015260440161035c565b60005b82518110156104435761043b83828151811061041457610414611cbd565b602002602001015183838151811061042e5761042e611cbd565b6020026020010151610ac9565b6001016103f6565b505050565b6000818152600360205260408120546001600160a01b03168061030957604051635747cd1b60e11b81526004810184905260240161035c565b600061048c82610bb1565b6104968383610be9565b9392505050565b60606104a882610bb1565b600082815260056020526040902061030990610c32565b606081516001600160401b038111156104da576104da61162a565b60405190808252806020026020018201604052801561050d57816020015b60608152602001906001900390816104f85790505b50905060005b825181101561056c5761053e83828151811061053157610531611cbd565b6020026020010151610c3f565b82828151811061055057610550611cbd565b60200260200101819052506105658160010190565b9050610513565b50919050565b3361057d8185610be9565b6105ac57604051631294d2a960e01b8152600481018590526001600160a01b038216602482015260440161035c565b6105b98686868686610ce1565b505050505050565b606061030982610c3f565b6001600160a01b038116600090815260046020526040812061030990610e6b565b6105f5610a60565b6105ff60006108e0565b565b8451845181141580610614575083518114155b80610620575082518114155b8061062c575081518114155b1561064a576040516393a8311960e01b815260040160405180910390fd5b60005b818110156106e7576106df87828151811061066a5761066a611cbd565b602002602001015187838151811061068457610684611cbd565b602002602001015187848151811061069e5761069e611cbd565b60200260200101518785815181106106b8576106b8611cbd565b60200260200101518786815181106106d2576106d2611cbd565b6020026020010151610572565b60010161064d565b50505050505050565b6106f8610a60565b6107028282610ac9565b5050565b6001600160a01b038116600090815260046020526040902060609061030990610e75565b610732610a60565b6103b684848484610e80565b600061074982610448565b9050336001600160a01b038216811461078f57604051632d938f5160e11b81526001600160a01b038084166004830152602482018590528216604482015260640161035c565b6001600160a01b0384166107b657604051639577b8b360e01b815260040160405180910390fd5b836001600160a01b0316826001600160a01b0316036107d55750505050565b60008381526005602052604081206107ed9086610f9a565b90508061081f576040516314ec4d6d60e31b81526001600160a01b03861660048201526024810185905260440161035c565b83836001600160a01b0316866001600160a01b03167f34b797fc5a526f7bf1d2b5de25f6564fd85ae364e3ee939aee7c1ac27871a98860405160405180910390a45050505050565b61086f610a60565b6001600160a01b0381166108d45760405162461bcd60e51b815260206004820152602660248201527f4f776e61626c653a206e6577206f776e657220697320746865207a65726f206160448201526564647265737360d01b606482015260840161035c565b6108dd816108e0565b50565b6000546001600160a01b038281169116146108dd57600080546001600160a01b038381166001600160a01b0319831681178455604051919092169283917f8be0079c531659141344cd1fd0a4f28419497f9722a3daafe3b4186f6b6457e09190a35050565b600082815260016020526040902061095d8282611d4d565b50817fece574603820d07bc9b91f2a932baadf4628aabcb8afba49776529c14a6104b28260405161098e9190611a2c565b60405180910390a25050565b60006001600160e01b03198216631c537ddf60e21b148061030957506301ffc9a760e01b6001600160e01b0319831614610309565b60008181526005602052604081206109e79085610faf565b905080610a19576040516312a8c6a360e21b81526001600160a01b03851660048201526024810183905260440161035c565b81836001600160a01b0316856001600160a01b03167f17d5389f6ab6adb2647dfa0aa365c323d37adacc30b33a65310b6158ce1373d560405160405180910390a450505050565b33610a736000546001600160a01b031690565b6001600160a01b0316146105ff5760405162461bcd60e51b815260206004820181905260248201527f4f776e61626c653a2063616c6c6572206973206e6f7420746865206f776e6572604482015260640161035c565b7f2145e1d6d074577dc71ef54c3807742b41b053a9352ae6b491331509acb9750f8201610b09576040516385c169bd60e01b815260040160405180910390fd5b7fd0f59754f88971fe6bc5a6618cc9d5f1e859c58d16b22d1c7b2d3e2b246cd8aa8201610b4957604051630eceab6760e31b815260040160405180910390fd5b6000828152600160205260409020610b618282611d4d565b50817fece574603820d07bc9b91f2a932baadf4628aabcb8afba49776529c14a6104b261010083511115610ba257610b9d836000610100610fc4565b610ba4565b825b60405161098e9190611a2c565b6000818152600360205260409020546001600160a01b03166108dd57604051635747cd1b60e11b81526004810182905260240161035c565b600080610bf583610448565b9050806001600160a01b0316846001600160a01b03161480610c2a57506000838152600560205260409020610c2a90856110d1565b949350505050565b60606000610496836110f3565b6000818152600160205260409020805460609190610c5c90611cd3565b80601f0160208091040260200160405190810160405280929190818152602001828054610c8890611cd3565b8015610cd55780601f10610caa57610100808354040283529160200191610cd5565b820191906000526020600020905b815481529060010190602001808311610cb857829003601f168201915b50505050509050919050565b836001600160a01b0316856001600160a01b031603610d1357604051635d67d6c160e01b815260040160405180910390fd5b6000610d1e84610448565b9050856001600160a01b0316816001600160a01b031614610d6c57604051632d938f5160e11b81526001600160a01b038083166004830152602482018690528716604482015260640161035c565b6001600160a01b038516610d93576040516324ecef4d60e01b815260040160405180910390fd5b33610d9e878661114e565b6001600160a01b0387166000908152600460205260409020610dc09086611195565b506001600160a01b0386166000908152600460205260409020610de390866111a1565b506000858152600360205260409081902080546001600160a01b0319166001600160a01b0389811691821790925591518792918a16907fb333c813a7426a7a11e2b190cad52c44119421594b47f6f32ace6d8c7207b2bf90610e4a9086908a908a90611e0c565b60405180910390a4610e5e878787866111ad565b6106e78787878787611281565b6000610309825490565b6060610309826110f3565b6001600160a01b038416610ea7576040516324ecef4d60e01b815260040160405180910390fd5b6000838152600360205260409020546001600160a01b031615610ee0576040516334c7b51160e01b81526004810184905260240161035c565b33600160026000828254610ef49190611e57565b90915550506001600160a01b0385166000908152600460205260409020610f1b90856111a1565b5060008481526003602052604080822080546001600160a01b0319166001600160a01b03891690811790915590518692907fb333c813a7426a7a11e2b190cad52c44119421594b47f6f32ace6d8c7207b2bf90610f7d90869089908990611e0c565b60405180910390a4610f93600086868686611281565b5050505050565b6000610496836001600160a01b0384166113b9565b6000610496836001600160a01b038416611408565b606081610fd281601f611e57565b10156110115760405162461bcd60e51b815260206004820152600e60248201526d736c6963655f6f766572666c6f7760901b604482015260640161035c565b61101b8284611e57565b8451101561105f5760405162461bcd60e51b8152602060048201526011602482015270736c6963655f6f75744f66426f756e647360781b604482015260640161035c565b60608215801561107e57604051915060008252602082016040526110c8565b6040519150601f8416801560200281840101858101878315602002848b0101015b818310156110b757805183526020928301920161109f565b5050858452601f01601f1916604052505b50949350505050565b6001600160a01b03811660009081526001830160205260408120541515610496565b606081600001805480602002602001604051908101604052809291908181526020018280548015610cd557602002820191906000526020600020905b81548152602001906001019080831161112f5750505050509050919050565b60008181526005602052604081209061116682610e6b565b905060005b81811015610f9357600061117f84826114fb565b905061118c8187876109cf565b5060010161116b565b60006104968383611408565b600061049683836113b9565b6111be84631aed5a8560e21b611507565b156103b6576000848484846040516020016111dc9493929190611e6a565b60408051601f1981840301815290829052631aed5a8560e21b825291506001600160a01b03861690636bb56a149061123a907fb23eae7e6d1564b295b4c3e3be402d9a2f0776c57bdf365903496f6fa481ab00908590600401611eb7565b6000604051808303816000875af1158015611259573d6000803e3d6000fd5b505050506040513d6000823e601f3d908101601f191682016040526105b99190810190611ed0565b61129284631aed5a8560e21b611507565b1561135c576000858585846040516020016112b09493929190611e6a565b60408051601f1981840301815290829052631aed5a8560e21b825291506001600160a01b03861690636bb56a149061130e907f0b084a55ebf70fd3c06fd755269dac2212c4d3f0f4d09079780bfa50c1b2984d908590600401611eb7565b6000604051808303816000875af115801561132d573d6000803e3d6000fd5b505050506040513d6000823e601f3d908101601f191682016040526113559190810190611ed0565b5050610f93565b81610f93576001600160a01b0384163b1561139557604051634349776d60e01b81526001600160a01b038516600482015260240161035c565b604051630317313760e01b81526001600160a01b038516600482015260240161035c565b600081815260018301602052604081205461140057508154600181810184556000848152602080822090930184905584548482528286019093526040902091909155610309565b506000610309565b600081815260018301602052604081205480156114f157600061142c600183611f3d565b855490915060009061144090600190611f3d565b90508181146114a557600086600001828154811061146057611460611cbd565b906000526020600020015490508087600001848154811061148357611483611cbd565b6000918252602080832090910192909255918252600188019052604090208390555b85548690806114b6576114b6611f50565b600190038181906000526020600020016000905590558560010160008681526020019081526020016000206000905560019350505050610309565b6000915050610309565b60006104968383611590565b604080516001600160e01b03198316602480830191909152825180830390910181526044909101909152602080820180516001600160e01b03166301ffc9a760e01b178152825160009392849283928392918391908a617530fa92503d91506000519050828015611579575060208210155b80156115855750600081115b979650505050505050565b60008260000182815481106115a7576115a7611cbd565b9060005260206000200154905092915050565b6000602082840312156115cc57600080fd5b81356001600160e01b03198116811461049657600080fd5b80356001600160a01b03811681146115fb57600080fd5b919050565b6000806040838503121561161357600080fd5b61161c836115e4565b946020939093013593505050565b634e487b7160e01b600052604160045260246000fd5b604051601f8201601f191681016001600160401b03811182821017156116685761166861162a565b604052919050565b60006001600160401b038211156116895761168961162a565b5060051b60200190565b600082601f8301126116a457600080fd5b813560206116b96116b483611670565b611640565b82815260059290921b840181019181810190868411156116d857600080fd5b8286015b848110156116f357803583529183019183016116dc565b509695505050505050565b60006001600160401b038211156117175761171761162a565b50601f01601f191660200190565b600082601f83011261173657600080fd5b81356117446116b4826116fe565b81815284602083860101111561175957600080fd5b816020850160208301376000918101602001919091529392505050565b600082601f83011261178757600080fd5b813560206117976116b483611670565b82815260059290921b840181019181810190868411156117b657600080fd5b8286015b848110156116f35780356001600160401b038111156117d95760008081fd5b6117e78986838b0101611725565b8452509183019183016117ba565b6000806040838503121561180857600080fd5b82356001600160401b038082111561181f57600080fd5b61182b86838701611693565b9350602085013591508082111561184157600080fd5b5061184e85828601611776565b9150509250929050565b60006020828403121561186a57600080fd5b5035919050565b6020808252825182820181905260009190848201906040850190845b818110156118b25783516001600160a01b03168352928401929184019160010161188d565b50909695505050505050565b6000602082840312156118d057600080fd5b81356001600160401b038111156118e657600080fd5b610c2a84828501611693565b60005b8381101561190d5781810151838201526020016118f5565b50506000910152565b6000815180845261192e8160208601602086016118f2565b601f01601f19169290920160200192915050565b6000602080830181845280855180835260408601915060408160051b870101925083870160005b8281101561199757603f19888603018452611985858351611916565b94509285019290850190600101611969565b5092979650505050505050565b803580151581146115fb57600080fd5b600080600080600060a086880312156119cc57600080fd5b6119d5866115e4565b94506119e3602087016115e4565b9350604086013592506119f8606087016119a4565b915060808601356001600160401b03811115611a1357600080fd5b611a1f88828901611725565b9150509295509295909350565b6020815260006104966020830184611916565b600060208284031215611a5157600080fd5b610496826115e4565b600082601f830112611a6b57600080fd5b81356020611a7b6116b483611670565b82815260059290921b84018101918181019086841115611a9a57600080fd5b8286015b848110156116f357611aaf816115e4565b8352918301918301611a9e565b600082601f830112611acd57600080fd5b81356020611add6116b483611670565b82815260059290921b84018101918181019086841115611afc57600080fd5b8286015b848110156116f357611b11816119a4565b8352918301918301611b00565b600080600080600060a08688031215611b3657600080fd5b85356001600160401b0380821115611b4d57600080fd5b611b5989838a01611a5a565b96506020880135915080821115611b6f57600080fd5b611b7b89838a01611a5a565b95506040880135915080821115611b9157600080fd5b611b9d89838a01611693565b94506060880135915080821115611bb357600080fd5b611bbf89838a01611abc565b93506080880135915080821115611bd557600080fd5b50611a1f88828901611776565b60008060408385031215611bf557600080fd5b8235915060208301356001600160401b03811115611c1257600080fd5b61184e85828601611725565b6020808252825182820181905260009190848201906040850190845b818110156118b257835183529284019291840191600101611c3a565b60008060008060808587031215611c6c57600080fd5b611c75856115e4565b935060208501359250611c8a604086016119a4565b915060608501356001600160401b03811115611ca557600080fd5b611cb187828801611725565b91505092959194509250565b634e487b7160e01b600052603260045260246000fd5b600181811c90821680611ce757607f821691505b60208210810361056c57634e487b7160e01b600052602260045260246000fd5b601f82111561044357600081815260208120601f850160051c81016020861015611d2e5750805b601f850160051c820191505b818110156105b957828155600101611d3a565b81516001600160401b03811115611d6657611d6661162a565b611d7a81611d748454611cd3565b84611d07565b602080601f831160018114611daf5760008415611d975750858301515b600019600386901b1c1916600185901b1785556105b9565b600085815260208120601f198616915b82811015611dde57888601518255948401946001909101908401611dbf565b5085821015611dfc5787850151600019600388901b60f8161c191681555b5050505050600190811b01905550565b6001600160a01b03841681528215156020820152606060408201819052600090611e3890830184611916565b95945050505050565b634e487b7160e01b600052601160045260246000fd5b8082018082111561030957610309611e41565b60006bffffffffffffffffffffffff19808760601b168352808660601b166014840152508360288301528251611ea78160488501602087016118f2565b9190910160480195945050505050565b828152604060208201526000610c2a6040830184611916565b600060208284031215611ee257600080fd5b81516001600160401b03811115611ef857600080fd5b8201601f81018413611f0957600080fd5b8051611f176116b4826116fe565b818152856020838501011115611f2c57600080fd5b611e388260208301602086016118f2565b8181038181111561030957610309611e41565b634e487b7160e01b600052603160045260246000fdfea26469706673582212204fea00f8e7066a080dacad731f42060c62334fd023046d92097c93d0a31964de64736f6c63430008110033",
    "linkReferences": {}
  },
  "methodIdentifiers": {
    "authorizeOperator(address,bytes32)": "cf5182ba",
    "balanceOf(address)": "70a08231",
    "getData(bytes32)": "54f6127f",
    "getData(bytes32[])": "4e3e6e9c",
    "getOperatorsOf(bytes32)": "49a6078d",
    "isOperatorFor(address,bytes32)": "2a3654a4",
    "mint(address,bytes32,bool,bytes)": "af255b61",
    "owner()": "8da5cb5b",
    "renounceOwnership()": "715018a6",
    "revokeOperator(address,bytes32)": "0b0c6d82",
    "setData(bytes32,bytes)": "7f23690c",
    "setData(bytes32[],bytes[])": "14a6e293",
    "supportsInterface(bytes4)": "01ffc9a7",
    "tokenIdsOf(address)": "a3b261f2",
    "tokenOwnerOf(bytes32)": "217b2270",
    "totalSupply()": "18160ddd",
    "transfer(address,address,bytes32,bool,bytes)": "511b6952",
    "transferBatch(address[],address[],bytes32[],bool[],bytes[])": "7e87632c",
    "transferOwnership(address)": "f2fde38b"
  },
  "id": 80
}