{
  "abi": [
    {
      "inputs": [],
      "stateMutability": "nonpayable",
      "type": "constructor"
    },
    {
      "inputs": [],
      "name": "CannotTransferOwnershipToSelf",
      "type": "error"
    },
    {
      "inputs": [],
      "name": "ERC725X_ContractDeploymentFailed",
      "type": "error"
    },
    {
      "inputs": [],
      "name": "ERC725X_CreateOperationsRequireEmptyRecipientAddress",
      "type": "error"
    },
    {
      "inputs": [],
      "name": "ERC725X_ExecuteParametersLengthMismatch",
      "type": "error"
    },
    {
      "inputs": [
        {
          "internalType": "uint256",
          "name": "balance",
          "type": "uint256"
        },
        {
          "internalType": "uint256",
          "name": "value",
          "type": "uint256"
        }
      ],
      "name": "ERC725X_InsufficientBalance",
      "type": "error"
    },
    {
      "inputs": [],
      "name": "ERC725X_MsgValueDisallowedInStaticCall",
      "type": "error"
    },
    {
      "inputs": [],
      "name": "ERC725X_NoContractBytecodeProvided",
      "type": "error"
    },
    {
      "inputs": [
        {
          "internalType": "uint256",
          "name": "operationTypeProvided",
          "type": "uint256"
        }
      ],
      "name": "ERC725X_UnknownOperationType",
      "type": "error"
    },
    {
      "inputs": [
        {
          "internalType": "uint256",
          "name": "dataKeysLength",
          "type": "uint256"
        },
        {
          "internalType": "uint256",
          "name": "dataValuesLength",
          "type": "uint256"
        }
      ],
      "name": "ERC725Y_DataKeysValuesLengthMismatch",
      "type": "error"
    },
    {
      "inputs": [
        {
          "internalType": "uint256",
          "name": "renounceOwnershipStart",
          "type": "uint256"
        },
        {
          "internalType": "uint256",
          "name": "renounceOwnershipEnd",
          "type": "uint256"
        }
      ],
      "name": "NotInRenounceOwnershipInterval",
      "type": "error"
    },
    {
      "anonymous": false,
      "inputs": [
        {
          "indexed": true,
          "internalType": "uint256",
          "name": "operationType",
          "type": "uint256"
        },
        {
          "indexed": true,
          "internalType": "address",
          "name": "contractAddress",
          "type": "address"
        },
        {
          "indexed": true,
          "internalType": "uint256",
          "name": "value",
          "type": "uint256"
        },
        {
          "indexed": false,
          "internalType": "bytes32",
          "name": "salt",
          "type": "bytes32"
        }
      ],
      "name": "ContractCreated",
      "type": "event"
    },
    {
      "anonymous": false,
      "inputs": [
        {
          "indexed": true,
          "internalType": "bytes32",
          "name": "dataKey",
          "type": "bytes32"
        },
        {
          "indexed": false,
          "internalType": "bytes",
          "name": "dataValue",
          "type": "bytes"
        }
      ],
      "name": "DataChanged",
      "type": "event"
    },
    {
      "anonymous": false,
      "inputs": [
        {
          "indexed": true,
          "internalType": "uint256",
          "name": "operationType",
          "type": "uint256"
        },
        {
          "indexed": true,
          "internalType": "address",
          "name": "target",
          "type": "address"
        },
        {
          "indexed": true,
          "internalType": "uint256",
          "name": "value",
          "type": "uint256"
        },
        {
          "indexed": false,
          "internalType": "bytes4",
          "name": "selector",
          "type": "bytes4"
        }
      ],
      "name": "Executed",
      "type": "event"
    },
    {
      "anonymous": false,
      "inputs": [
        {
          "indexed": false,
          "internalType": "uint8",
          "name": "version",
          "type": "uint8"
        }
      ],
      "name": "Initialized",
      "type": "event"
    },
    {
      "anonymous": false,
      "inputs": [],
      "name": "OwnershipRenounced",
      "type": "event"
    },
    {
      "anonymous": false,
      "inputs": [
        {
          "indexed": true,
          "internalType": "address",
          "name": "previousOwner",
          "type": "address"
        },
        {
          "indexed": true,
          "internalType": "address",
          "name": "newOwner",
          "type": "address"
        }
      ],
      "name": "OwnershipTransferStarted",
      "type": "event"
    },
    {
      "anonymous": false,
      "inputs": [
        {
          "indexed": true,
          "internalType": "address",
          "name": "previousOwner",
          "type": "address"
        },
        {
          "indexed": true,
          "internalType": "address",
          "name": "newOwner",
          "type": "address"
        }
      ],
      "name": "OwnershipTransferred",
      "type": "event"
    },
    {
      "anonymous": false,
      "inputs": [],
      "name": "RenounceOwnershipInitiated",
      "type": "event"
    },
    {
      "anonymous": false,
      "inputs": [
        {
          "indexed": true,
          "internalType": "address",
          "name": "from",
          "type": "address"
        },
        {
          "indexed": true,
          "internalType": "uint256",
          "name": "value",
          "type": "uint256"
        },
        {
          "indexed": true,
          "internalType": "bytes32",
          "name": "typeId",
          "type": "bytes32"
        },
        {
          "indexed": false,
          "internalType": "bytes",
          "name": "receivedData",
          "type": "bytes"
        },
        {
          "indexed": false,
          "internalType": "bytes",
          "name": "returnedValue",
          "type": "bytes"
        }
      ],
      "name": "UniversalReceiver",
      "type": "event"
    },
    {
      "anonymous": false,
      "inputs": [
        {
          "indexed": true,
          "internalType": "address",
          "name": "sender",
          "type": "address"
        },
        {
          "indexed": true,
          "internalType": "uint256",
          "name": "value",
          "type": "uint256"
        }
      ],
      "name": "ValueReceived",
      "type": "event"
    },
    {
      "stateMutability": "payable",
      "type": "fallback"
    },
    {
      "inputs": [],
      "name": "acceptOwnership",
      "outputs": [],
      "stateMutability": "nonpayable",
      "type": "function"
    },
    {
      "inputs": [
        {
          "internalType": "uint256[]",
          "name": "operationsType",
          "type": "uint256[]"
        },
        {
          "internalType": "address[]",
          "name": "targets",
          "type": "address[]"
        },
        {
          "internalType": "uint256[]",
          "name": "values",
          "type": "uint256[]"
        },
        {
          "internalType": "bytes[]",
          "name": "datas",
          "type": "bytes[]"
        }
      ],
      "name": "execute",
      "outputs": [
        {
          "internalType": "bytes[]",
          "name": "",
          "type": "bytes[]"
        }
      ],
      "stateMutability": "payable",
      "type": "function"
    },
    {
      "inputs": [
        {
          "internalType": "uint256",
          "name": "operationType",
          "type": "uint256"
        },
        {
          "internalType": "address",
          "name": "target",
          "type": "address"
        },
        {
          "internalType": "uint256",
          "name": "value",
          "type": "uint256"
        },
        {
          "internalType": "bytes",
          "name": "data",
          "type": "bytes"
        }
      ],
      "name": "execute",
      "outputs": [
        {
          "internalType": "bytes",
          "name": "",
          "type": "bytes"
        }
      ],
      "stateMutability": "payable",
      "type": "function"
    },
    {
      "inputs": [
        {
          "internalType": "bytes32[]",
          "name": "dataKeys",
          "type": "bytes32[]"
        }
      ],
      "name": "getData",
      "outputs": [
        {
          "internalType": "bytes[]",
          "name": "dataValues",
          "type": "bytes[]"
        }
      ],
      "stateMutability": "view",
      "type": "function"
    },
    {
      "inputs": [
        {
          "internalType": "bytes32",
          "name": "dataKey",
          "type": "bytes32"
        }
      ],
      "name": "getData",
      "outputs": [
        {
          "internalType": "bytes",
          "name": "dataValue",
          "type": "bytes"
        }
      ],
      "stateMutability": "view",
      "type": "function"
    },
    {
      "inputs": [
        {
          "internalType": "address",
          "name": "newOwner",
          "type": "address"
        }
      ],
      "name": "initialize",
      "outputs": [],
      "stateMutability": "payable",
      "type": "function"
    },
    {
      "inputs": [],
      "name": "owner",
      "outputs": [
        {
          "internalType": "address",
          "name": "",
          "type": "address"
        }
      ],
      "stateMutability": "view",
      "type": "function"
    },
    {
      "inputs": [],
      "name": "pendingOwner",
      "outputs": [
        {
          "internalType": "address",
          "name": "",
          "type": "address"
        }
      ],
      "stateMutability": "view",
      "type": "function"
    },
    {
      "inputs": [],
      "name": "renounceOwnership",
      "outputs": [],
      "stateMutability": "nonpayable",
      "type": "function"
    },
    {
      "inputs": [
        {
          "internalType": "bytes32[]",
          "name": "dataKeys",
          "type": "bytes32[]"
        },
        {
          "internalType": "bytes[]",
          "name": "dataValues",
          "type": "bytes[]"
        }
      ],
      "name": "setData",
      "outputs": [],
      "stateMutability": "nonpayable",
      "type": "function"
    },
    {
      "inputs": [
        {
          "internalType": "bytes32",
          "name": "dataKey",
          "type": "bytes32"
        },
        {
          "internalType": "bytes",
          "name": "dataValue",
          "type": "bytes"
        }
      ],
      "name": "setData",
      "outputs": [],
      "stateMutability": "nonpayable",
      "type": "function"
    },
    {
      "inputs": [
        {
          "internalType": "bytes4",
          "name": "interfaceId",
          "type": "bytes4"
        }
      ],
      "name": "supportsInterface",
      "outputs": [
        {
          "internalType": "bool",
          "name": "",
          "type": "bool"
        }
      ],
      "stateMutability": "view",
      "type": "function"
    },
    {
      "inputs": [
        {
          "internalType": "address",
          "name": "_newOwner",
          "type": "address"
        }
      ],
      "name": "transferOwnership",
      "outputs": [],
      "stateMutability": "nonpayable",
      "type": "function"
    },
    {
      "inputs": [
        {
          "internalType": "bytes32",
          "name": "typeId",
          "type": "bytes32"
        },
        {
          "internalType": "bytes",
          "name": "receivedData",
          "type": "bytes"
        }
      ],
      "name": "universalReceiver",
      "outputs": [
        {
          "internalType": "bytes",
          "name": "returnedValues",
          "type": "bytes"
        }
      ],
      "stateMutability": "payable",
      "type": "function"
    },
    {
      "stateMutability": "payable",
      "type": "receive"
    }
  ],
  "bytecode": {
    "object": "0x60806040523480156200001157600080fd5b506200001c62000022565b620000e4565b600054610100900460ff16156200008f5760405162461bcd60e51b815260206004820152602760248201527f496e697469616c697a61626c653a20636f6e747261637420697320696e697469604482015266616c697a696e6760c81b606482015260840160405180910390fd5b60005460ff9081161015620000e2576000805460ff191660ff9081179091556040519081527f7f26b83ff96e1f2b6a682f133852f6798a09c465da95921460cefb38474024989060200160405180910390a15b565b61260b80620000f46000396000f3fe6080604052600436106100e15760003560e01c8063715018a61161007f5780638da5cb5b116100595780638da5cb5b14610266578063c4d66de81461029e578063e30c3978146102b1578063f2fde38b146102cf5761010a565b8063715018a61461021c57806379ba5097146102315780637f23690c146102465761010a565b806344c028fe116100bb57806344c028fe146101a95780634e3e6e9c146101c957806354f6127f146101e95780636bb56a14146102095761010a565b806301ffc9a71461013457806313ced88d1461016957806314a6e293146101895761010a565b3661010a57341561010857604051349033906000805160206125b683398151915290600090a35b005b341561012c57604051349033906000805160206125b683398151915290600090a35b6101086102ef565b34801561014057600080fd5b5061015461014f366004611c1a565b61035d565b60405190151581526020015b60405180910390f35b61017c610177366004611e2b565b6103cd565b6040516101609190611f82565b34801561019557600080fd5b506101086101a4366004611fe4565b610410565b6101bc6101b7366004612047565b6104ec565b604051610160919061209b565b3480156101d557600080fd5b5061017c6101e43660046120ae565b610524565b3480156101f557600080fd5b506101bc6102043660046120e2565b6105d7565b6101bc6102173660046120fb565b6105e2565b34801561022857600080fd5b506101086107a6565b34801561023d57600080fd5b506101086107b8565b34801561025257600080fd5b50610108610261366004612176565b6107c0565b34801561027257600080fd5b506000546201000090046001600160a01b03165b6040516001600160a01b039091168152602001610160565b6101086102ac3660046121b2565b610822565b3480156102bd57600080fd5b506003546001600160a01b0316610286565b3480156102db57600080fd5b506101086102ea3660046121b2565b610934565b60043610156102fa57565b60006103116000356001600160e01b031916610948565b90506001600160a01b0381166103245750565b36600080373360601b365234601436015260008060343601600080855af13d6000803e808015610353573d6000f35b3d6000fd5b505050565b60006001600160e01b03198216637050cee960e01b148061038e57506001600160e01b03198216631aed5a8560e21b145b806103a957506001600160e01b031982166394be599960e01b145b806103b857506103b88261098d565b806103c757506103c7826109b2565b92915050565b60606103d76109ef565b34156103f957604051349033906000805160206125b683398151915290600090a35b61040585858585610a50565b90505b949350505050565b6000546201000090046001600160a01b03166001600160a01b0316336001600160a01b03161461046d576004546001600160a01b0316331461046d5760405162461bcd60e51b8152600401610464906121cd565b60405180910390fd5b805182511461049c57815181516040516321d1e13360e11b815260048101929092526024820152604401610464565b60005b8251811015610358576104e48382815181106104bd576104bd61222a565b60200260200101518383815181106104d7576104d761222a565b6020026020010151610b94565b60010161049f565b60606104f66109ef565b341561051857604051349033906000805160206125b683398151915290600090a35b61040585858585610c08565b606081516001600160401b0381111561053f5761053f611c44565b60405190808252806020026020018201604052801561057257816020015b606081526020019060019003908161055d5790505b50905060005b82518110156105d1576105a38382815181106105965761059661222a565b6020026020010151610ce2565b8282815181106105b5576105b561222a565b60200260200101819052506105ca8160010190565b9050610578565b50919050565b60606103c782610ce2565b6060341561060657604051349033906000805160206125b683398151915290600090a35b60006106317f0cfc51aec37c55a4d0b1a65c6255c4bf2fbdf6277f3cc0730c45b828b6db8b47610ce2565b90506060601482511061069557600061064983612240565b60601c905061065f81631aed5a8560e21b610d84565b1561069357600480546001600160a01b0319166001600160a01b038316908117909155610690908888883334610e0d565b91505b505b60006106ae690cfc51aec37c55a4d0b160b01b88610f55565b905060006106bb82610ce2565b90506060601482511061071f5760006106d383612240565b60601c90506106e981631aed5a8560e21b610d84565b1561071d57600480546001600160a01b0319166001600160a01b03831690811790915561071a908b8b8b3334610e0d565b91505b505b600480546001600160a01b03191690556040516107429085908390602001612277565b60405160208183030381529060405295508834336001600160a01b03167f9c3ba68eb5742b8e3961aea0afc7371a71bf433c8a67a831803b64c064a178c28b8b8b604051610792939291906122c5565b60405180910390a450505050509392505050565b6107ae6109ef565b6107b6610fa1565b565b6107b6611079565b6000546201000090046001600160a01b03166001600160a01b0316336001600160a01b031614610814576004546001600160a01b031633146108145760405162461bcd60e51b8152600401610464906121cd565b61081e8282610b94565b5050565b600054610100900460ff16158080156108425750600054600160ff909116105b8061085c5750303b15801561085c575060005460ff166001145b6108bf5760405162461bcd60e51b815260206004820152602e60248201527f496e697469616c697a61626c653a20636f6e747261637420697320616c72656160448201526d191e481a5b9a5d1a585b1a5e995960921b6064820152608401610464565b6000805460ff1916600117905580156108e2576000805461ff0019166101001790555b6108eb8261118c565b801561081e576000805461ff0019169055604051600181527f7f26b83ff96e1f2b6a682f133852f6798a09c465da95921460cefb38474024989060200160405180910390a15050565b61093c6109ef565b610945816112a8565b50565b60008061096c696773c5a04a6d4300884b60b11b6001600160e01b03198516610f55565b9050600061097982610ce2565b61098290612240565b60601c949350505050565b60006001600160e01b0319821663a918fa6b60e01b14806103c757506103c782611411565b6000806109c56301ffc9a760e01b610948565b90506001600160a01b0381166109de5750600092915050565b6109e88184610d84565b9392505050565b6000546001600160a01b03620100009091041633146107b65760405162461bcd60e51b815260206004820181905260248201527f4f776e61626c653a2063616c6c6572206973206e6f7420746865206f776e65726044820152606401610464565b606083518551141580610a71575082518451141580610a7157508151835114155b15610a8f57604051633ff55f4d60e01b815260040160405180910390fd5b600085516001600160401b03811115610aaa57610aaa611c44565b604051908082528060200260200182016040528015610add57816020015b6060815260200190600190039081610ac85790505b50905060005b8651811015610b8a57610b5c878281518110610b0157610b0161222a565b6020026020010151878381518110610b1b57610b1b61222a565b6020026020010151878481518110610b3557610b3561222a565b6020026020010151878581518110610b4f57610b4f61222a565b6020026020010151610c08565b828281518110610b6e57610b6e61222a565b6020026020010181905250610b838160010190565b9050610ae3565b5095945050505050565b6000828152600160205260409020610bac828261236d565b50817fece574603820d07bc9b91f2a932baadf4628aabcb8afba49776529c14a6104b261010083511115610bed57610be8836000610100611436565b610bef565b825b604051610bfc919061209b565b60405180910390a25050565b606084610c2157610c1a848484611543565b9050610408565b60018503610c5b576001600160a01b03841615610c5157604051631820c12560e11b815260040160405180910390fd5b610c1a8383611668565b60028503610c95576001600160a01b03841615610c8b57604051631820c12560e11b815260040160405180910390fd5b610c1a8383611764565b60038503610cc6578215610cbc576040516339795e3560e11b815260040160405180910390fd5b610c1a848361184a565b604051631d60ecef60e21b815260048101869052602401610464565b6000818152600160205260409020805460609190610cff906122eb565b80601f0160208091040260200160405190810160405280929190818152602001828054610d2b906122eb565b8015610d785780601f10610d4d57610100808354040283529160200191610d78565b820191906000526020600020905b815481529060010190602001808311610d5b57829003601f168201915b50505050509050919050565b604080516001600160e01b03198316602480830191909152825180830390910181526044909101909152602080820180516001600160e01b03166301ffc9a760e01b178152825160009392849283928392918391908a617530fa92503d91506000519050828015610df6575060208210155b8015610e025750600081115b979650505050505050565b60606000636bb56a1460e01b878787604051602401610e2e9392919061242c565b60408051601f19818403018152918152602080830180516001600160e01b03166001600160e01b03199095169490941790935251610e70928791879101612446565b6040516020818303038152906040529050600080896001600160a01b031683604051610e9c9190612480565b6000604051808303816000865af19150503d8060008114610ed9576040519150601f19603f3d011682016040523d82523d6000602084013e610ede565b606091505b5091509150610f2382826040518060400160405280602081526020017f43616c6c20746f20756e6976657273616c5265636569766572206661696c6564815250611942565b508051600003610f335780610f47565b80806020019051810190610f47919061249c565b9a9950505050505050505050565b604080516001600160b01b0319841660208201526000602a82018190526001600160601b03198416602c8301529182910160405160208183030381529060405290508061040890612509565b6002544390600090610fb590606490612543565b90506000610fc4606483612543565b9050808311156110015760028390556040517f56272768d104766ae5e663c58927d0a9e47effb40b9a8f6644ac5dfbc9e56f8490600090a1505050565b8183101561102c57604051638b9bf50760e01b81526004810183905260248101829052604401610464565b611036600061197b565b60006002819055600380546001600160a01b03191690556040517fd1f66c3d2bc1993a86be5e3d33709d98f0442381befcedd29f578b9b2506b1ce9190a1505050565b6003546001600160a01b031633146110e15760405162461bcd60e51b815260206004820152602560248201527f4c535031343a2063616c6c6572206973206e6f74207468652070656e64696e6760448201526427bbb732b960d91b6064820152608401610464565b6000546003546001600160a01b0362010000909204821691611103911661197b565b600380546001600160a01b031916905560408051602081019091526000815261114f9082907fa124442e1cc7b52d8e2ede2787d43527dc1f3ae0de87f50dd03e27a71834f74c906119f1565b610945337fe32c7debcb817925ba4883fdbfc52797187f28f73f860641dab1a68d9b32902c60001b604051806020016040528060008152506119f1565b600054610100900460ff166111f75760405162461bcd60e51b815260206004820152602b60248201527f496e697469616c697a61626c653a20636f6e7472616374206973206e6f74206960448201526a6e697469616c697a696e6760a81b6064820152608401610464565b341561121957604051349033906000805160206125b683398151915290600090a35b6112228161197b565b61126b7feafec4d89fa9619884b600007c0334a14085fefa8b51ae5a40895018882bdb9060001b604051806040016040528060048152602001637c0334a160e01b815250610b94565b610945817fe32c7debcb817925ba4883fdbfc52797187f28f73f860641dab1a68d9b32902c60001b604051806020016040528060008152506119f1565b306001600160a01b038216036112d1576040516343b248cd60e01b815260040160405180910390fd5b600380546001600160a01b0383166001600160a01b031990911617905560006113096000546001600160a01b03620100009091041690565b9050816001600160a01b0316816001600160a01b03167f38d16b8cac22d99fc7c124b9cd0de2d3fa1faef420bfe791d8c362d765e2270060405160405180910390a3611388827fee9a7c0924f740a2ca33d59b7f0c2929821ea9837ce043ce91c1823e9c4e52c060001b604051806020016040528060008152506119f1565b6000546001600160a01b0382811662010000909204161461081e5760405162461bcd60e51b815260206004820152603f60248201527f4c535031343a206e65774f776e6572204d55535420616363657074206f776e6560448201527f727368697020696e2061207365706172617465207472616e73616374696f6e006064820152608401610464565b60006001600160e01b03198216631c537ddf60e21b14806103c757506103c782611a82565b60608161144481601f612543565b10156114835760405162461bcd60e51b815260206004820152600e60248201526d736c6963655f6f766572666c6f7760901b6044820152606401610464565b61148d8284612543565b845110156114d15760405162461bcd60e51b8152602060048201526011602482015270736c6963655f6f75744f66426f756e647360781b6044820152606401610464565b6060821580156114f0576040519150600082526020820160405261153a565b6040519150601f8416801560200281840101858101878315602002848b0101015b81831015611529578051835260209283019201611511565b5050858452601f01601f1916604052505b50949350505050565b60608247101561156f576040516301bf351f60e31b815247600482015260248101849052604401610464565b826001600160a01b03851660007f4810874456b8e6487bd861375cf6abd8e1c8bb5858c8ce36a86a04dabfac199e6115a686612556565b6040516001600160e01b0319909116815260200160405180910390a4600080856001600160a01b031685856040516115de9190612480565b60006040518083038185875af1925050503d806000811461161b576040519150601f19603f3d011682016040523d82523d6000602084013e611620565b606091505b509150915061165e82826040518060400160405280601681526020017522a9219b991aac1d102ab735b737bbb71022b93937b960511b815250611942565b9695505050505050565b606082471015611694576040516301bf351f60e31b815247600482015260248101849052604401610464565b81516000036116b65760405163b81cd8d960e01b815260040160405180910390fd5b600082516020840185f090506001600160a01b0381166116e957604051630b07489b60e01b815260040160405180910390fd5b6040516001600160601b0319606083901b166020820152603401604051602081830303815290604052915083816001600160a01b031660017fa1fb700aaee2ae4a2ff6f91ce7eba292f89c2f5488b8ec4c5c5c8150692595c36000801b60405161175591815260200190565b60405180910390a45092915050565b606081516000036117885760405163b81cd8d960e01b815260040160405180910390fd5b60006117a1836020855161179c9190612589565b611ab7565b905060006117be846000602087516117b99190612589565b611436565b905060006117cd868484611b15565b6040516001600160601b0319606083901b166020820152909150603401604051602081830303815290604052935085816001600160a01b031660027fa1fb700aaee2ae4a2ff6f91ce7eba292f89c2f5488b8ec4c5c5c8150692595c38660405161183991815260200190565b60405180910390a450505092915050565b606060006001600160a01b03841660037f4810874456b8e6487bd861375cf6abd8e1c8bb5858c8ce36a86a04dabfac199e61188486612556565b6040516001600160e01b0319909116815260200160405180910390a4600080846001600160a01b0316846040516118bb9190612480565b600060405180830381855afa9150503d80600081146118f6576040519150601f19603f3d011682016040523d82523d6000602084013e6118fb565b606091505b509150915061193982826040518060400160405280601681526020017522a9219b991aac1d102ab735b737bbb71022b93937b960511b815250611942565b95945050505050565b606083156119515750816109e8565b8251156119615782518084602001fd5b8160405162461bcd60e51b8152600401610464919061209b565b6000546001600160a01b0382811662010000909204161461094557600080546001600160a01b038381166201000081810262010000600160b01b0319851617855560405193049190911692909183917f8be0079c531659141344cd1fd0a4f28419497f9722a3daafe3b4186f6b6457e091a35050565b611a0283631aed5a8560e21b610d84565b1561035857604051631aed5a8560e21b81526001600160a01b03841690636bb56a1490611a35908590859060040161259c565b6000604051808303816000875af1158015611a54573d6000803e3d6000fd5b505050506040513d6000823e601f3d908101601f19168201604052611a7c919081019061249c565b50505050565b60006001600160e01b0319821663570ef07360e01b14806103c757506301ffc9a760e01b6001600160e01b03198316146103c7565b6000611ac4826020612543565b83511015611b0c5760405162461bcd60e51b8152602060048201526015602482015274746f427974657333325f6f75744f66426f756e647360581b6044820152606401610464565b50016020015190565b60008084471015611b685760405162461bcd60e51b815260206004820152601d60248201527f437265617465323a20696e73756666696369656e742062616c616e63650000006044820152606401610464565b8251600003611bb95760405162461bcd60e51b815260206004820181905260248201527f437265617465323a2062797465636f6465206c656e677468206973207a65726f6044820152606401610464565b8383516020850187f590506001600160a01b0381166104085760405162461bcd60e51b815260206004820152601960248201527f437265617465323a204661696c6564206f6e206465706c6f79000000000000006044820152606401610464565b600060208284031215611c2c57600080fd5b81356001600160e01b0319811681146109e857600080fd5b634e487b7160e01b600052604160045260246000fd5b604051601f8201601f191681016001600160401b0381118282101715611c8257611c82611c44565b604052919050565b60006001600160401b03821115611ca357611ca3611c44565b5060051b60200190565b600082601f830112611cbe57600080fd5b81356020611cd3611cce83611c8a565b611c5a565b82815260059290921b84018101918181019086841115611cf257600080fd5b8286015b84811015611d0d5780358352918301918301611cf6565b509695505050505050565b80356001600160a01b0381168114611d2f57600080fd5b919050565b60006001600160401b03821115611d4d57611d4d611c44565b50601f01601f191660200190565b600082601f830112611d6c57600080fd5b8135611d7a611cce82611d34565b818152846020838601011115611d8f57600080fd5b816020850160208301376000918101602001919091529392505050565b600082601f830112611dbd57600080fd5b81356020611dcd611cce83611c8a565b82815260059290921b84018101918181019086841115611dec57600080fd5b8286015b84811015611d0d5780356001600160401b03811115611e0f5760008081fd5b611e1d8986838b0101611d5b565b845250918301918301611df0565b60008060008060808587031215611e4157600080fd5b84356001600160401b0380821115611e5857600080fd5b611e6488838901611cad565b9550602091508187013581811115611e7b57600080fd5b8701601f81018913611e8c57600080fd5b8035611e9a611cce82611c8a565b81815260059190911b8201840190848101908b831115611eb957600080fd5b928501925b82841015611ede57611ecf84611d18565b82529285019290850190611ebe565b97505050506040870135915080821115611ef757600080fd5b611f0388838901611cad565b93506060870135915080821115611f1957600080fd5b50611f2687828801611dac565b91505092959194509250565b60005b83811015611f4d578181015183820152602001611f35565b50506000910152565b60008151808452611f6e816020860160208601611f32565b601f01601f19169290920160200192915050565b6000602080830181845280855180835260408601915060408160051b870101925083870160005b82811015611fd757603f19888603018452611fc5858351611f56565b94509285019290850190600101611fa9565b5092979650505050505050565b60008060408385031215611ff757600080fd5b82356001600160401b038082111561200e57600080fd5b61201a86838701611cad565b9350602085013591508082111561203057600080fd5b5061203d85828601611dac565b9150509250929050565b6000806000806080858703121561205d57600080fd5b8435935061206d60208601611d18565b92506040850135915060608501356001600160401b0381111561208f57600080fd5b611f2687828801611d5b565b6020815260006109e86020830184611f56565b6000602082840312156120c057600080fd5b81356001600160401b038111156120d657600080fd5b61040884828501611cad565b6000602082840312156120f457600080fd5b5035919050565b60008060006040848603121561211057600080fd5b8335925060208401356001600160401b038082111561212e57600080fd5b818601915086601f83011261214257600080fd5b81358181111561215157600080fd5b87602082850101111561216357600080fd5b6020830194508093505050509250925092565b6000806040838503121561218957600080fd5b8235915060208301356001600160401b038111156121a657600080fd5b61203d85828601611d5b565b6000602082840312156121c457600080fd5b6109e882611d18565b6020808252603b908201527f4f6e6c79204f776e6572206f72207265656e746572656420556e69766572736160408201527f6c2052656365697665722044656c656761746520616c6c6f7765640000000000606082015260800190565b634e487b7160e01b600052603260045260246000fd5b805160208201516001600160601b0319808216929190601483101561226f5780818460140360031b1b83161693505b505050919050565b60408152600061228a6040830185611f56565b82810360208401526119398185611f56565b81835281816020850137506000828201602090810191909152601f909101601f19169091010190565b6040815260006122d960408301858761229c565b828103602084015261165e8185611f56565b600181811c908216806122ff57607f821691505b6020821081036105d157634e487b7160e01b600052602260045260246000fd5b601f82111561035857600081815260208120601f850160051c810160208610156123465750805b601f850160051c820191505b8181101561236557828155600101612352565b505050505050565b81516001600160401b0381111561238657612386611c44565b61239a8161239484546122eb565b8461231f565b602080601f8311600181146123cf57600084156123b75750858301515b600019600386901b1c1916600185901b178555612365565b600085815260208120601f198616915b828110156123fe578886015182559484019460019091019084016123df565b508582101561241c5787850151600019600388901b60f8161c191681555b5050505050600190811b01905550565b83815260406020820152600061040560408301848661229c565b60008451612458818460208901611f32565b60609490941b6001600160601b03191691909301908152601481019190915260340192915050565b60008251612492818460208701611f32565b9190910192915050565b6000602082840312156124ae57600080fd5b81516001600160401b038111156124c457600080fd5b8201601f810184136124d557600080fd5b80516124e3611cce82611d34565b8181528560208385010111156124f857600080fd5b611939826020830160208601611f32565b805160208083015191908110156105d15760001960209190910360031b1b16919050565b634e487b7160e01b600052601160045260246000fd5b808201808211156103c7576103c761252d565b805160208201516001600160e01b0319808216929190600483101561226f5760049290920360031b82901b161692915050565b818103818111156103c7576103c761252d565b8281526040602082015260006104086040830184611f5656fe7e71433ddf847725166244795048ecf3e3f9f35628254ecbf736056664233493a2646970667358221220ad2528b17c5bce79141eeefdfe12e9faa878f7488e07ddb6d3b454b92e02f66f64736f6c63430008110033",
    "linkReferences": {}
  },
  "methodIdentifiers": {
    "acceptOwnership()": "79ba5097",
    "execute(uint256,address,uint256,bytes)": "44c028fe",
    "execute(uint256[],address[],uint256[],bytes[])": "13ced88d",
    "getData(bytes32)": "54f6127f",
    "getData(bytes32[])": "4e3e6e9c",
    "initialize(address)": "c4d66de8",
    "owner()": "8da5cb5b",
    "pendingOwner()": "e30c3978",
    "renounceOwnership()": "715018a6",
    "setData(bytes32,bytes)": "7f23690c",
    "setData(bytes32[],bytes[])": "14a6e293",
    "supportsInterface(bytes4)": "01ffc9a7",
    "transferOwnership(address)": "f2fde38b",
    "universalReceiver(bytes32,bytes)": "6bb56a14"
  },
  "id": 86
}