{
  "contractName": "AddressRegistryRequiresERC725",
  "abi": [
    {
      "inputs": [
        {
          "internalType": "address",
          "name": "_address",
          "type": "address"
        }
      ],
      "name": "containsAddress",
      "outputs": [
        {
          "internalType": "bool",
          "name": "",
          "type": "bool"
        }
      ],
      "stateMutability": "view",
      "type": "function"
    },
    {
      "inputs": [
        {
          "internalType": "uint256",
          "name": "_index",
          "type": "uint256"
        }
      ],
      "name": "getAddress",
      "outputs": [
        {
          "internalType": "address",
          "name": "",
          "type": "address"
        }
      ],
      "stateMutability": "view",
      "type": "function"
    },
    {
      "inputs": [],
      "name": "getAllRawValues",
      "outputs": [
        {
          "internalType": "bytes32[]",
          "name": "",
          "type": "bytes32[]"
        }
      ],
      "stateMutability": "view",
      "type": "function"
    },
    {
      "inputs": [
        {
          "internalType": "address",
          "name": "_address",
          "type": "address"
        }
      ],
      "name": "getIndex",
      "outputs": [
        {
          "internalType": "uint256",
          "name": "",
          "type": "uint256"
        }
      ],
      "stateMutability": "view",
      "type": "function"
    },
    {
      "inputs": [],
      "name": "length",
      "outputs": [
        {
          "internalType": "uint256",
          "name": "",
          "type": "uint256"
        }
      ],
      "stateMutability": "view",
      "type": "function"
    },
    {
      "inputs": [
        {
          "internalType": "bytes4",
          "name": "interfaceId",
          "type": "bytes4"
        }
      ],
      "name": "supportsInterface",
      "outputs": [
        {
          "internalType": "bool",
          "name": "",
          "type": "bool"
        }
      ],
      "stateMutability": "view",
      "type": "function"
    },
    {
      "inputs": [
        {
          "internalType": "address",
          "name": "_address",
          "type": "address"
        }
      ],
      "name": "addAddress",
      "outputs": [
        {
          "internalType": "bool",
          "name": "",
          "type": "bool"
        }
      ],
      "stateMutability": "nonpayable",
      "type": "function"
    },
    {
      "inputs": [
        {
          "internalType": "address",
          "name": "_address",
          "type": "address"
        }
      ],
      "name": "removeAddress",
      "outputs": [
        {
          "internalType": "bool",
          "name": "",
          "type": "bool"
        }
      ],
      "stateMutability": "nonpayable",
      "type": "function"
    }
  ],
  "bytecode": "0x6080604052632bd57b7360e01b600360006101000a81548163ffffffff021916908360e01c021790555034801561003557600080fd5b5061004c6301ffc9a760e01b61005160201b60201c565b610159565b63ffffffff60e01b817bffffffffffffffffffffffffffffffffffffffffffffffffffffffff191614156100ed576040517f08c379a000000000000000000000000000000000000000000000000000000000815260040180806020018281038252601c8152602001807f4552433136353a20696e76616c696420696e746572666163652069640000000081525060200191505060405180910390fd5b6001600080837bffffffffffffffffffffffffffffffffffffffffffffffffffffffff19167bffffffffffffffffffffffffffffffffffffffffffffffffffffffff1916815260200190815260200160002060006101000a81548160ff02191690831515021790555050565b610b69806101686000396000f3fe608060405234801561001057600080fd5b50600436106100885760003560e01c80634ba79dfe1161005b5780634ba79dfe146101c2578063b31610db1461021c578063b93f9b0a14610274578063c0a4ebf4146102cc57610088565b806301ffc9a71461008d5780631f7b6d32146100f0578063322433e31461010e57806338eada1c14610168575b600080fd5b6100d8600480360360208110156100a357600080fd5b8101908080357bffffffffffffffffffffffffffffffffffffffffffffffffffffffff1916906020019092919050505061032b565b60405180821515815260200191505060405180910390f35b6100f8610392565b6040518082815260200191505060405180910390f35b6101506004803603602081101561012457600080fd5b81019080803573ffffffffffffffffffffffffffffffffffffffff1690602001909291905050506103a3565b60405180821515815260200191505060405180910390f35b6101aa6004803603602081101561017e57600080fd5b81019080803573ffffffffffffffffffffffffffffffffffffffff1690602001909291905050506103c0565b60405180821515815260200191505060405180910390f35b610204600480360360208110156101d857600080fd5b81019080803573ffffffffffffffffffffffffffffffffffffffff1690602001909291905050506104ec565b60405180821515815260200191505060405180910390f35b61025e6004803603602081101561023257600080fd5b81019080803573ffffffffffffffffffffffffffffffffffffffff16906020019092919050505061069c565b6040518082815260200191505060405180910390f35b6102a06004803603602081101561028a57600080fd5b8101908080359060200190929190505050610760565b604051808273ffffffffffffffffffffffffffffffffffffffff16815260200191505060405180910390f35b6102d461077d565b6040518080602001828103825283818151815260200191508051906020019060200280838360005b838110156103175780820151818401526020810190506102fc565b505050509050019250505060405180910390f35b6000806000837bffffffffffffffffffffffffffffffffffffffffffffffffffffffff19167bffffffffffffffffffffffffffffffffffffffffffffffffffffffff1916815260200190815260200160002060009054906101000a900460ff169050919050565b600061039e60016107db565b905090565b60006103b98260016107f090919063ffffffff16565b9050919050565b60008173ffffffffffffffffffffffffffffffffffffffff166301ffc9a7600360009054906101000a900460e01b6040518263ffffffff1660e01b815260040180827bffffffffffffffffffffffffffffffffffffffffffffffffffffffff1916815260200191505060206040518083038186803b15801561044157600080fd5b505afa158015610455573d6000803e3d6000fd5b505050506040513d602081101561046b57600080fd5b81019080805190602001909291905050506104d1576040517f08c379a0000000000000000000000000000000000000000000000000000000008152600401808060200182810382526023815260200180610b116023913960400191505060405180910390fd5b6104e582600161082090919063ffffffff16565b9050919050565b60003373ffffffffffffffffffffffffffffffffffffffff166301ffc9a7600360009054906101000a900460e01b6040518263ffffffff1660e01b815260040180827bffffffffffffffffffffffffffffffffffffffffffffffffffffffff1916815260200191505060206040518083038186803b15801561056d57600080fd5b505afa158015610581573d6000803e3d6000fd5b505050506040513d602081101561059757600080fd5b81019080805190602001909291905050506105fd576040517f08c379a0000000000000000000000000000000000000000000000000000000008152600401808060200182810382526023815260200180610aee6023913960400191505060405180910390fd5b8173ffffffffffffffffffffffffffffffffffffffff163373ffffffffffffffffffffffffffffffffffffffff1614610681576040517f08c379a0000000000000000000000000000000000000000000000000000000008152600401808060200182810382526022815260200180610acc6022913960400191505060405180910390fd5b61069582600161085090919063ffffffff16565b9050919050565b60006106b28260016107f090919063ffffffff16565b610724576040517f08c379a000000000000000000000000000000000000000000000000000000000815260040180806020018281038252601e8152602001807f456e756d657261626c655365743a20496e646578206e6f7420666f756e64000081525060200191505060405180910390fd5b60018060000160010160008473ffffffffffffffffffffffffffffffffffffffff1660001b815260200190815260200160002054039050919050565b600061077682600161088090919063ffffffff16565b9050919050565b606060016000016000018054806020026020016040519081016040528092919081815260200182805480156107d157602002820191906000526020600020905b8154815260200190600101908083116107bd575b5050505050905090565b60006107e98260000161089a565b9050919050565b6000610818836000018373ffffffffffffffffffffffffffffffffffffffff1660001b6108ab565b905092915050565b6000610848836000018373ffffffffffffffffffffffffffffffffffffffff1660001b6108ce565b905092915050565b6000610878836000018373ffffffffffffffffffffffffffffffffffffffff1660001b61093e565b905092915050565b600061088f8360000183610a26565b60001c905092915050565b600081600001805490509050919050565b600080836001016000848152602001908152602001600020541415905092915050565b60006108da83836108ab565b610933578260000182908060018154018082558091505060019003906000526020600020016000909190919091505582600001805490508360010160008481526020019081526020016000208190555060019050610938565b600090505b92915050565b60008083600101600084815260200190815260200160002054905060008114610a1a576000600182039050600060018660000180549050039050600086600001828154811061098957fe5b90600052602060002001549050808760000184815481106109a657fe5b90600052602060002001819055506001830187600101600083815260200190815260200160002081905550866000018054806109de57fe5b60019003818190600052602060002001600090559055866001016000878152602001908152602001600020600090556001945050505050610a20565b60009150505b92915050565b600081836000018054905011610a87576040517f08c379a0000000000000000000000000000000000000000000000000000000008152600401808060200182810382526022815260200180610aaa6022913960400191505060405180910390fd5b826000018281548110610a9657fe5b906000526020600020015490509291505056fe456e756d657261626c655365743a20696e646578206f7574206f6620626f756e64734f6e6c7920616e20616464726573732063616e2072656d6f766520697473656c662e4f6e6c7920455243373235592063616e2063616c6c20746869732066756e6374696f6e4f6e6c792045524337323559206164647265737365732063616e206265206164646564a2646970667358221220f0fdfaf75b904bba1093055934fb4af0a52d2e58aa95e975c609f31c1f125c0364736f6c634300060c0033",
  "immutableReferences": {},
  "source": "// SPDX-License-Identifier: Apache-2.0\npragma solidity ^0.6.0;\n\n\n// libraries\nimport \"./AddressRegistry.sol\";\n\n\ncontract AddressRegistryRequiresERC725 is AddressRegistry {\n    bytes4 _INTERFACE_ID_ERC725Y = 0x2bd57b73;\n\n    function addAddress(address _address)\n    public\n    override\n    returns(bool)\n    {\n        require(ERC165(_address).supportsInterface(_INTERFACE_ID_ERC725Y), 'Only ERC725Y addresses can be added');\n        return addressSet.add(_address);\n    }\n\n    function removeAddress(address _address)\n    public\n    override\n    returns(bool)\n    {\n        require(ERC165(msg.sender).supportsInterface(_INTERFACE_ID_ERC725Y), 'Only ERC725Y can call this function');\n        require(msg.sender == _address, 'Only an address can remove itself.');\n        return addressSet.remove(_address);\n    }\n}\n",
  "sourcePath": "/Users/frozeman/Sites/LUKSO/universalprofile-smart-contracts/contracts/Registries/AddressRegistryRequiresERC725.sol",
  "compiler": {
    "name": "solc",
    "version": "0.6.12+commit.27d51765.Emscripten.clang"
  },
  "schemaVersion": "3.3.4",
  "updatedAt": "2021-03-22T15:21:59.010Z",
  "devdoc": {
    "kind": "dev",
    "methods": {
      "supportsInterface(bytes4)": {
        "details": "See {IERC165-supportsInterface}. Time complexity O(1), guaranteed to always use less than 30 000 gas."
      }
    },
    "version": 1
  },
  "userdoc": {
    "kind": "user",
    "methods": {},
    "version": 1
  }
}