{
  "contractName": "BasicUniversalReceiver",
  "abi": [
    {
      "anonymous": false,
      "inputs": [
        {
          "indexed": true,
          "internalType": "address",
          "name": "from",
          "type": "address"
        },
        {
          "indexed": true,
          "internalType": "bytes32",
          "name": "typeId",
          "type": "bytes32"
        },
        {
          "indexed": true,
          "internalType": "bytes32",
          "name": "returnedValue",
          "type": "bytes32"
        },
        {
          "indexed": false,
          "internalType": "bytes",
          "name": "receivedData",
          "type": "bytes"
        }
      ],
      "name": "UniversalReceiver",
      "type": "event"
    },
    {
      "inputs": [
        {
          "internalType": "bytes32",
          "name": "typeId",
          "type": "bytes32"
        },
        {
          "internalType": "bytes",
          "name": "data",
          "type": "bytes"
        }
      ],
      "name": "universalReceiver",
      "outputs": [
        {
          "internalType": "bytes32",
          "name": "returnValue",
          "type": "bytes32"
        }
      ],
      "stateMutability": "nonpayable",
      "type": "function"
    }
  ],
  "bytecode": "0x608060405234801561001057600080fd5b5061025b806100206000396000f3fe608060405234801561001057600080fd5b506004361061002b5760003560e01c80636bb56a1414610030575b600080fd5b6100f36004803603604081101561004657600080fd5b81019080803590602001909291908035906020019064010000000081111561006d57600080fd5b82018360208201111561007f57600080fd5b803590602001918460018302840111640100000000831117156100a157600080fd5b91908080601f016020809104026020016040519081016040528093929190818152602001838380828437600081840152601f19601f820116905080830192505050505050509192919290505050610109565b6040518082815260200191505060405180910390f35b60007fb281fc8c12954d22544db45de3159a39272895b169a852b314f9cc762e44c53b60001b83148061015e57507f29ddb589b1fb5fc7cf394961c1adf5f8c6454761adf795e67fe149f658abe89560001b83145b61016757600080fd5b82833373ffffffffffffffffffffffffffffffffffffffff167f54b98940949b5ac0325c889c84db302d4e18faec431b48bdc81706bfe482cfbd856040518080602001828103825283818151815260200191508051906020019080838360005b838110156101e25780820151818401526020810190506101c7565b50505050905090810190601f16801561020f5780820380516001836020036101000a031916815260200191505b509250505060405180910390a48290509291505056fea26469706673582212200bfd590ecda77eb9913778ecbd6f607ea47a2eb66a4bdd2364f24a764d0e7d7a64736f6c634300060c0033",
  "immutableReferences": {},
  "source": "// SPDX-License-Identifier: Apache-2.0\npragma solidity ^0.6.0;\n\nimport \"../_LSPs/ILSP1_UniversalReceiver.sol\";\n\ncontract BasicUniversalReceiver is ILSP1 {\n\n    bytes32 constant internal _TOKENS_SENDER_INTERFACE_HASH =\n    0x29ddb589b1fb5fc7cf394961c1adf5f8c6454761adf795e67fe149f658abe895; // keccak256(\"ERC777TokensSender\")\n\n    bytes32 constant internal _TOKENS_RECIPIENT_INTERFACE_HASH =\n    0xb281fc8c12954d22544db45de3159a39272895b169a852b314f9cc762e44c53b; // keccak256(\"ERC777TokensRecipient\")\n\n    function universalReceiver(bytes32 typeId, bytes memory data) external override returns (bytes32 returnValue){\n        require(typeId == _TOKENS_RECIPIENT_INTERFACE_HASH || typeId == _TOKENS_SENDER_INTERFACE_HASH);\n\n        emit UniversalReceiver(msg.sender, typeId, typeId, data);\n\n        return typeId;\n    }\n}\n",
  "sourcePath": "/Users/frozeman/Sites/LUKSO/universalprofile-smart-contracts/contracts/UniversalReceiver/BasicUniversalReceiver.sol",
  "compiler": {
    "name": "solc",
    "version": "0.6.12+commit.27d51765.Emscripten.clang"
  },
  "schemaVersion": "3.3.4",
  "updatedAt": "2021-03-22T15:21:59.018Z",
  "devdoc": {
    "kind": "dev",
    "methods": {},
    "version": 1
  },
  "userdoc": {
    "kind": "user",
    "methods": {},
    "version": 1
  }
}