{
  "contractName": "CalculateERC165Selectors",
  "abi": [
    {
      "inputs": [],
      "name": "calculateSelectorLSP1",
      "outputs": [
        {
          "internalType": "bytes4",
          "name": "",
          "type": "bytes4"
        }
      ],
      "stateMutability": "pure",
      "type": "function"
    },
    {
      "inputs": [],
      "name": "calculateSelectorLSP1Delegate",
      "outputs": [
        {
          "internalType": "bytes4",
          "name": "",
          "type": "bytes4"
        }
      ],
      "stateMutability": "pure",
      "type": "function"
    },
    {
      "inputs": [],
      "name": "calculateSelectorERC725X",
      "outputs": [
        {
          "internalType": "bytes4",
          "name": "",
          "type": "bytes4"
        }
      ],
      "stateMutability": "pure",
      "type": "function"
    },
    {
      "inputs": [],
      "name": "calculateSelectorERC725Y",
      "outputs": [
        {
          "internalType": "bytes4",
          "name": "",
          "type": "bytes4"
        }
      ],
      "stateMutability": "pure",
      "type": "function"
    },
    {
      "inputs": [],
      "name": "calculateSelectorERC1271",
      "outputs": [
        {
          "internalType": "bytes4",
          "name": "",
          "type": "bytes4"
        }
      ],
      "stateMutability": "pure",
      "type": "function"
    }
  ],
  "bytecode": "0x608060405234801561001057600080fd5b50610221806100206000396000f3fe608060405234801561001057600080fd5b50600436106100575760003560e01c80630a2ed2ab1461005c5780632d9f57cf14610099578063382d0aae146100d6578063758f6ea014610113578063cb875dc414610150575b600080fd5b61006461018d565b60405180827bffffffffffffffffffffffffffffffffffffffffffffffffffffffff1916815260200191505060405180910390f35b6100a161019e565b60405180827bffffffffffffffffffffffffffffffffffffffffffffffffffffffff1916815260200191505060405180910390f35b6100de6101af565b60405180827bffffffffffffffffffffffffffffffffffffffffffffffffffffffff1916815260200191505060405180910390f35b61011b6101c0565b60405180827bffffffffffffffffffffffffffffffffffffffffffffffffffffffff1916815260200191505060405180910390f35b6101586101d1565b60405180827bffffffffffffffffffffffffffffffffffffffffffffffffffffffff1916815260200191505060405180910390f35b600080631626ba7e60e01b91505090565b6000806344c028fe60e01b91505090565b60008063c2d7bcc160e01b91505090565b600080636bb56a1460e01b91505090565b600080637f23690c60e01b6354f6127f60e01b189150509056fea264697066735822122032bcba49b6974f35cfcc8c23cbae0d3500b6880b1976a3af5fbf7786948348ff64736f6c634300060c0033",
  "immutableReferences": {},
  "source": "// SPDX-License-Identifier: Apache-2.0\npragma solidity ^0.6.0;\n\nimport \"../submodules/ERC725/implementations/contracts/ERC725/IERC725X.sol\";\nimport \"../submodules/ERC725/implementations/contracts/ERC725/IERC725Y.sol\";\nimport \"../submodules/ERC725/implementations/contracts/IERC1271.sol\";\nimport \"./_LSPs/ILSP1_UniversalReceiver.sol\";\nimport \"./_LSPs/ILSP1_UniversalReceiverDelegate.sol\";\n\n\ncontract CalculateERC165Selectors {\n\n    function calculateSelectorLSP1() public pure returns (bytes4) {\n        ILSP1 i;\n\n        return i.universalReceiver.selector;\n    }\n\n    function calculateSelectorLSP1Delegate() public pure returns (bytes4) {\n        ILSP1Delegate i;\n\n        return i.universalReceiverDelegate.selector;\n    }\n\n    function calculateSelectorERC725X() public pure returns (bytes4) {\n        IERC725X i;\n\n        return i.execute.selector;\n    }\n\n    function calculateSelectorERC725Y() public pure returns (bytes4) {\n        IERC725Y i;\n\n        return i.getData.selector\n        ^ i.setData.selector;\n    }\n\n    function calculateSelectorERC1271() public pure returns (bytes4) {\n        IERC1271 i;\n\n        return i.isValidSignature.selector;\n    }\n}\n",
  "sourcePath": "/Users/frozeman/Sites/LUKSO/universalprofile-smart-contracts/contracts/calculateSelectors.sol",
  "compiler": {
    "name": "solc",
    "version": "0.6.12+commit.27d51765.Emscripten.clang"
  },
  "schemaVersion": "3.3.4",
  "updatedAt": "2021-03-22T15:25:17.249Z",
  "devdoc": {
    "kind": "dev",
    "methods": {},
    "version": 1
  },
  "userdoc": {
    "kind": "user",
    "methods": {},
    "version": 1
  }
}