{
  "contractName": "Create2Factory",
  "abi": [
    {
      "anonymous": false,
      "inputs": [
        {
          "indexed": false,
          "internalType": "address",
          "name": "addr",
          "type": "address"
        },
        {
          "indexed": false,
          "internalType": "bytes32",
          "name": "salt",
          "type": "bytes32"
        }
      ],
      "name": "ContractCreated",
      "type": "event"
    },
    {
      "inputs": [
        {
          "internalType": "bytes32",
          "name": "salt",
          "type": "bytes32"
        },
        {
          "internalType": "bytes",
          "name": "bytecode",
          "type": "bytes"
        }
      ],
      "name": "deploy",
      "outputs": [
        {
          "internalType": "address",
          "name": "",
          "type": "address"
        }
      ],
      "stateMutability": "payable",
      "type": "function"
    },
    {
      "inputs": [
        {
          "internalType": "bytes32",
          "name": "salt",
          "type": "bytes32"
        },
        {
          "internalType": "bytes32",
          "name": "bytecodeHash",
          "type": "bytes32"
        }
      ],
      "name": "computeAddress",
      "outputs": [
        {
          "internalType": "address",
          "name": "",
          "type": "address"
        }
      ],
      "stateMutability": "view",
      "type": "function"
    },
    {
      "inputs": [
        {
          "internalType": "bytes32",
          "name": "salt",
          "type": "bytes32"
        },
        {
          "internalType": "bytes32",
          "name": "bytecodeHash",
          "type": "bytes32"
        },
        {
          "internalType": "address",
          "name": "deployer",
          "type": "address"
        }
      ],
      "name": "computeAddress",
      "outputs": [
        {
          "internalType": "address",
          "name": "",
          "type": "address"
        }
      ],
      "stateMutability": "pure",
      "type": "function"
    }
  ],
  "bytecode": "0x608060405234801561001057600080fd5b50610490806100206000396000f3fe6080604052600436106100345760003560e01c8063481286e61461003957806378065306146100a8578063cdcb760a14610137575b600080fd5b34801561004557600080fd5b5061007c6004803603604081101561005c57600080fd5b810190808035906020019092919080359060200190929190505050610226565b604051808273ffffffffffffffffffffffffffffffffffffffff16815260200191505060405180910390f35b3480156100b457600080fd5b5061010b600480360360608110156100cb57600080fd5b810190808035906020019092919080359060200190929190803573ffffffffffffffffffffffffffffffffffffffff16906020019092919050505061023b565b604051808273ffffffffffffffffffffffffffffffffffffffff16815260200191505060405180910390f35b6101fa6004803603604081101561014d57600080fd5b81019080803590602001909291908035906020019064010000000081111561017457600080fd5b82018360208201111561018657600080fd5b803590602001918460018302840111640100000000831117156101a857600080fd5b91908080601f016020809104026020016040519081016040528093929190818152602001838380828437600081840152601f19601f8201169050808301925050505050505091929192905050506102cc565b604051808273ffffffffffffffffffffffffffffffffffffffff16815260200191505060405180910390f35b600061023383833061023b565b905092915050565b60008060ff60f81b83868660405160200180857effffffffffffffffffffffffffffffffffffffffffffffffffffffffffffff191681526001018473ffffffffffffffffffffffffffffffffffffffff1660601b81526014018381526020018281526020019450505050506040516020818303038152906040528051906020012090508060001c9150509392505050565b600080600034905060008451141561034c576040517f08c379a00000000000000000000000000000000000000000000000000000000081526004018080602001828103825260208152602001807f437265617465323a2062797465636f6465206c656e677468206973207a65726f81525060200191505060405180910390fd5b8484516020860183f59150600073ffffffffffffffffffffffffffffffffffffffff168273ffffffffffffffffffffffffffffffffffffffff1614156103fa576040517f08c379a00000000000000000000000000000000000000000000000000000000081526004018080602001828103825260198152602001807f437265617465323a204661696c6564206f6e206465706c6f790000000000000081525060200191505060405180910390fd5b7fc16bb3dbd36917c7aa3e76b988c2cd35e74bb230a02fef61e7376d8b4bfaea778286604051808373ffffffffffffffffffffffffffffffffffffffff1681526020018281526020019250505060405180910390a181925050509291505056fea2646970667358221220e4de44a2e8ddf95775892ee507266805a5bd9a1aa46faa0345ef039af47d32fb64736f6c634300060c0033",
  "immutableReferences": {},
  "source": "// SPDX-License-Identifier: MIT\n// based on https://github.com/OpenZeppelin/openzeppelin-contracts/blob/master/contracts/utils/Create2.sol\n\n// bytecode\n// solidity compiler 0.6.1, no optimization\n// 0x608060405234801561001057600080fd5b50610520806100206000396000f3fe6080604052600436106100345760003560e01c8063481286e61461003957806378065306146100be578063cdcb760a14610163575b600080fd5b34801561004557600080fd5b5061007c6004803603604081101561005c57600080fd5b810190808035906020019092919080359060200190929190505050610268565b604051808273ffffffffffffffffffffffffffffffffffffffff1673ffffffffffffffffffffffffffffffffffffffff16815260200191505060405180910390f35b3480156100ca57600080fd5b50610121600480360360608110156100e157600080fd5b810190808035906020019092919080359060200190929190803573ffffffffffffffffffffffffffffffffffffffff16906020019092919050505061027d565b604051808273ffffffffffffffffffffffffffffffffffffffff1673ffffffffffffffffffffffffffffffffffffffff16815260200191505060405180910390f35b6102266004803603604081101561017957600080fd5b8101908080359060200190929190803590602001906401000000008111156101a057600080fd5b8201836020820111156101b257600080fd5b803590602001918460018302840111640100000000831117156101d457600080fd5b91908080601f016020809104026020016040519081016040528093929190818152602001838380828437600081840152601f19601f820116905080830192505050505050509192919290505050610346565b604051808273ffffffffffffffffffffffffffffffffffffffff1673ffffffffffffffffffffffffffffffffffffffff16815260200191505060405180910390f35b600061027583833061027d565b905092915050565b60008060ff60f81b83868660405160200180857effffffffffffffffffffffffffffffffffffffffffffffffffffffffffffff19167effffffffffffffffffffffffffffffffffffffffffffffffffffffffffffff191681526001018473ffffffffffffffffffffffffffffffffffffffff1673ffffffffffffffffffffffffffffffffffffffff1660601b81526014018381526020018281526020019450505050506040516020818303038152906040528051906020012090508060001c9150509392505050565b60008060003490506000845114156103c6576040517f08c379a00000000000000000000000000000000000000000000000000000000081526004018080602001828103825260208152602001807f437265617465323a2062797465636f6465206c656e677468206973207a65726f81525060200191505060405180910390fd5b8484516020860183f59150600073ffffffffffffffffffffffffffffffffffffffff168273ffffffffffffffffffffffffffffffffffffffff161415610474576040517f08c379a00000000000000000000000000000000000000000000000000000000081526004018080602001828103825260198152602001807f437265617465323a204661696c6564206f6e206465706c6f790000000000000081525060200191505060405180910390fd5b7fc16bb3dbd36917c7aa3e76b988c2cd35e74bb230a02fef61e7376d8b4bfaea778286604051808373ffffffffffffffffffffffffffffffffffffffff1673ffffffffffffffffffffffffffffffffffffffff1681526020018281526020019250505060405180910390a181925050509291505056fea26469706673582212208e45d684157bfc10076a3d284f8c3899cd5ecf31abade0a086223e0886a8a68164736f6c63430006010033\n//\n// fixed deployment\n// 0xC2f81D5a8c51c1E877B2720E0bEB59642c807315\n// deployer address: 0x0a481e47Fcf329d0CafDd74A46f54f21eeDF5d68\n// cost 0.0801\n// RAW Tx:\n// 0xf9059380852e90edd0008306f2cc8080b90540608060405234801561001057600080fd5b50610520806100206000396000f3fe6080604052600436106100345760003560e01c8063481286e61461003957806378065306146100be578063cdcb760a14610163575b600080fd5b34801561004557600080fd5b5061007c6004803603604081101561005c57600080fd5b810190808035906020019092919080359060200190929190505050610268565b604051808273ffffffffffffffffffffffffffffffffffffffff1673ffffffffffffffffffffffffffffffffffffffff16815260200191505060405180910390f35b3480156100ca57600080fd5b50610121600480360360608110156100e157600080fd5b810190808035906020019092919080359060200190929190803573ffffffffffffffffffffffffffffffffffffffff16906020019092919050505061027d565b604051808273ffffffffffffffffffffffffffffffffffffffff1673ffffffffffffffffffffffffffffffffffffffff16815260200191505060405180910390f35b6102266004803603604081101561017957600080fd5b8101908080359060200190929190803590602001906401000000008111156101a057600080fd5b8201836020820111156101b257600080fd5b803590602001918460018302840111640100000000831117156101d457600080fd5b91908080601f016020809104026020016040519081016040528093929190818152602001838380828437600081840152601f19601f820116905080830192505050505050509192919290505050610346565b604051808273ffffffffffffffffffffffffffffffffffffffff1673ffffffffffffffffffffffffffffffffffffffff16815260200191505060405180910390f35b600061027583833061027d565b905092915050565b60008060ff60f81b83868660405160200180857effffffffffffffffffffffffffffffffffffffffffffffffffffffffffffff19167effffffffffffffffffffffffffffffffffffffffffffffffffffffffffffff191681526001018473ffffffffffffffffffffffffffffffffffffffff1673ffffffffffffffffffffffffffffffffffffffff1660601b81526014018381526020018281526020019450505050506040516020818303038152906040528051906020012090508060001c9150509392505050565b60008060003490506000845114156103c6576040517f08c379a00000000000000000000000000000000000000000000000000000000081526004018080602001828103825260208152602001807f437265617465323a2062797465636f6465206c656e677468206973207a65726f81525060200191505060405180910390fd5b8484516020860183f59150600073ffffffffffffffffffffffffffffffffffffffff168273ffffffffffffffffffffffffffffffffffffffff161415610474576040517f08c379a00000000000000000000000000000000000000000000000000000000081526004018080602001828103825260198152602001807f437265617465323a204661696c6564206f6e206465706c6f790000000000000081525060200191505060405180910390fd5b7fc16bb3dbd36917c7aa3e76b988c2cd35e74bb230a02fef61e7376d8b4bfaea778286604051808373ffffffffffffffffffffffffffffffffffffffff1673ffffffffffffffffffffffffffffffffffffffff1681526020018281526020019250505060405180910390a181925050509291505056fea26469706673582212208e45d684157bfc10076a3d284f8c3899cd5ecf31abade0a086223e0886a8a68164736f6c634300060100331ba01234123412341234123412341234123412341234123412341234123412341234a01234123412341234123412341234123412341234123412341234123412341234\n\npragma solidity >=0.6.0 <0.8.0;\n\ncontract Create2Factory {\n    event ContractCreated(address addr, bytes32 salt);\n\n    /**\n     * @dev Deploys a contract using `CREATE2`. The address where the contract\n     * will be deployed can be known in advance via {computeAddress}.\n     *\n     * The bytecode for a contract can be obtained from Solidity with\n     * `type(contractName).creationCode`.\n     *\n     * Requirements:\n     *\n     * - `bytecode` must not be empty.\n     * - `salt` must have not been used for `bytecode` already.\n     */\n    function deploy(bytes32 salt, bytes memory bytecode) public payable returns (address) {\n        address addr;\n        uint256 amount = msg.value;\n\n        require(bytecode.length != 0, \"Create2: bytecode length is zero\");\n        // solhint-disable-next-line no-inline-assembly\n        assembly {\n            addr := create2(amount, add(bytecode, 0x20), mload(bytecode), salt)\n        }\n        require(addr != address(0), \"Create2: Failed on deploy\");\n\n        emit ContractCreated(addr, salt);\n\n        return addr;\n    }\n\n    /**\n     * @dev Returns the address where a contract will be stored if deployed via {deploy}. Any change in the\n     * `bytecodeHash` or `salt` will result in a new destination address.\n     */\n    function computeAddress(bytes32 salt, bytes32 bytecodeHash) public view returns (address) {\n        return computeAddress(salt, bytecodeHash, address(this));\n    }\n\n    /**\n     * @dev Returns the address where a contract will be stored if deployed via {deploy} from a contract located at\n     * `deployer`. If `deployer` is this contract's address, returns the same value as {computeAddress}.\n     */\n    function computeAddress(bytes32 salt, bytes32 bytecodeHash, address deployer) public pure returns (address) {\n        bytes32 _data = keccak256(\n            abi.encodePacked(bytes1(0xff), deployer, salt, bytecodeHash)\n        );\n        return address(uint256(_data));\n    }\n}\n",
  "sourcePath": "/Users/frozeman/Sites/LUKSO/universalprofile-smart-contracts/contracts/Factories/Create2Factory.sol",
  "compiler": {
    "name": "solc",
    "version": "0.6.12+commit.27d51765.Emscripten.clang"
  },
  "schemaVersion": "3.3.4",
  "updatedAt": "2021-03-22T15:21:58.991Z",
  "devdoc": {
    "kind": "dev",
    "methods": {
      "computeAddress(bytes32,bytes32)": {
        "details": "Returns the address where a contract will be stored if deployed via {deploy}. Any change in the `bytecodeHash` or `salt` will result in a new destination address."
      },
      "computeAddress(bytes32,bytes32,address)": {
        "details": "Returns the address where a contract will be stored if deployed via {deploy} from a contract located at `deployer`. If `deployer` is this contract's address, returns the same value as {computeAddress}."
      },
      "deploy(bytes32,bytes)": {
        "details": "Deploys a contract using `CREATE2`. The address where the contract will be deployed can be known in advance via {computeAddress}. The bytecode for a contract can be obtained from Solidity with `type(contractName).creationCode`. Requirements: - `bytecode` must not be empty. - `salt` must have not been used for `bytecode` already."
      }
    },
    "version": 1
  },
  "userdoc": {
    "kind": "user",
    "methods": {},
    "version": 1
  }
}