{
  "contractName": "ERC165Query",
  "abi": [
    {
      "inputs": [
        {
          "internalType": "address",
          "name": "_contract",
          "type": "address"
        },
        {
          "internalType": "bytes4",
          "name": "_interfaceId",
          "type": "bytes4"
        }
      ],
      "name": "doesContractImplementInterface",
      "outputs": [
        {
          "internalType": "bool",
          "name": "",
          "type": "bool"
        }
      ],
      "stateMutability": "view",
      "type": "function"
    }
  ],
  "bytecode": "0x608060405234801561001057600080fd5b506101d3806100206000396000f3fe608060405234801561001057600080fd5b506004361061002b5760003560e01c8063e9c5438414610030575b600080fd5b61009b6004803603604081101561004657600080fd5b81019080803573ffffffffffffffffffffffffffffffffffffffff16906020019092919080357bffffffffffffffffffffffffffffffffffffffffffffffffffffffff191690602001909291905050506100b3565b60405180821515815260200191505060405180910390f35b60008060006100c9856301ffc9a760e01b610168565b809250819350505060008214806100e05750600081145b156100f057600092505050610162565b6101018563ffffffff60e01b610168565b80925081935050506000821480610119575060008114155b1561012957600092505050610162565b6101338585610168565b809250819350505060018214801561014b5750600181145b1561015b57600192505050610162565b6000925050505b92915050565b60008060006301ffc9a760e01b905060405181815284600482015260208160248389617530fa9350805192505050925092905056fea2646970667358221220a1b2a811dae122119bf2506e16f8a30dfa0034d1704f5869c7d27126614c03b964736f6c634300060c0033",
  "immutableReferences": {},
  "source": "// SPDX-License-Identifier: Apache-2.0\npragma solidity ^0.6.0;\n\ncontract ERC165Query {\n    bytes4 constant InvalidID = 0xffffffff;\n    bytes4 constant ERC165ID = 0x01ffc9a7;\n\n    function doesContractImplementInterface(address _contract, bytes4 _interfaceId) external view returns (bool) {\n        uint256 success;\n        uint256 result;\n\n        (success, result) = noThrowCall(_contract, ERC165ID);\n        if ((success==0)||(result==0)) {\n            return false;\n        }\n\n        (success, result) = noThrowCall(_contract, InvalidID);\n        if ((success==0)||(result!=0)) {\n            return false;\n        }\n\n        (success, result) = noThrowCall(_contract, _interfaceId);\n        if ((success==1)&&(result==1)) {\n            return true;\n        }\n        return false;\n    }\n\n    function noThrowCall(address _contract, bytes4 _interfaceId) internal view returns (uint256 success, uint256 result) {\n        bytes4 erc165ID = ERC165ID;\n\n        assembly {\n                let x := mload(0x40)               // Find empty storage location using \"free memory pointer\"\n                mstore(x, erc165ID)                // Place signature at beginning of empty storage\n                mstore(add(x, 0x04), _interfaceId) // Place first argument directly next to signature\n\n                success := staticcall(\n                                    30000,         // 30k gas\n                                    _contract,     // To addr\n                                    x,             // Inputs are stored at location x\n                                    0x24,          // Inputs are 36 bytes long\n                                    x,             // Store output over input (saves space)\n                                    0x20)          // Outputs are 32 bytes long\n\n                result := mload(x)                 // Load the result\n        }\n    }\n}\n",
  "sourcePath": "/Users/frozeman/Sites/LUKSO/universalprofile-smart-contracts/contracts/Registries/ERC165Query.sol",
  "compiler": {
    "name": "solc",
    "version": "0.6.12+commit.27d51765.Emscripten.clang"
  },
  "schemaVersion": "3.3.4",
  "updatedAt": "2021-03-22T15:21:59.012Z",
  "devdoc": {
    "kind": "dev",
    "methods": {},
    "version": 1
  },
  "userdoc": {
    "kind": "user",
    "methods": {},
    "version": 1
  }
}