{
  "contractName": "ERC725Account",
  "abi": [
    {
      "inputs": [
        {
          "internalType": "address",
          "name": "_newOwner",
          "type": "address"
        }
      ],
      "stateMutability": "nonpayable",
      "type": "constructor"
    },
    {
      "anonymous": false,
      "inputs": [
        {
          "indexed": true,
          "internalType": "address",
          "name": "contractAddress",
          "type": "address"
        }
      ],
      "name": "ContractCreated",
      "type": "event"
    },
    {
      "anonymous": false,
      "inputs": [
        {
          "indexed": true,
          "internalType": "bytes32",
          "name": "key",
          "type": "bytes32"
        },
        {
          "indexed": false,
          "internalType": "bytes",
          "name": "value",
          "type": "bytes"
        }
      ],
      "name": "DataChanged",
      "type": "event"
    },
    {
      "anonymous": false,
      "inputs": [
        {
          "indexed": true,
          "internalType": "uint256",
          "name": "_operation",
          "type": "uint256"
        },
        {
          "indexed": true,
          "internalType": "address",
          "name": "_to",
          "type": "address"
        },
        {
          "indexed": true,
          "internalType": "uint256",
          "name": "_value",
          "type": "uint256"
        },
        {
          "indexed": false,
          "internalType": "bytes",
          "name": "_data",
          "type": "bytes"
        }
      ],
      "name": "Executed",
      "type": "event"
    },
    {
      "anonymous": false,
      "inputs": [
        {
          "indexed": true,
          "internalType": "address",
          "name": "previousOwner",
          "type": "address"
        },
        {
          "indexed": true,
          "internalType": "address",
          "name": "newOwner",
          "type": "address"
        }
      ],
      "name": "OwnershipTransferred",
      "type": "event"
    },
    {
      "anonymous": false,
      "inputs": [
        {
          "indexed": true,
          "internalType": "address",
          "name": "sender",
          "type": "address"
        },
        {
          "indexed": true,
          "internalType": "uint256",
          "name": "value",
          "type": "uint256"
        }
      ],
      "name": "ValueReceived",
      "type": "event"
    },
    {
      "inputs": [
        {
          "internalType": "uint256",
          "name": "_operation",
          "type": "uint256"
        },
        {
          "internalType": "address",
          "name": "_to",
          "type": "address"
        },
        {
          "internalType": "uint256",
          "name": "_value",
          "type": "uint256"
        },
        {
          "internalType": "bytes",
          "name": "_data",
          "type": "bytes"
        }
      ],
      "name": "execute",
      "outputs": [],
      "stateMutability": "payable",
      "type": "function"
    },
    {
      "inputs": [
        {
          "internalType": "bytes32",
          "name": "_key",
          "type": "bytes32"
        }
      ],
      "name": "getData",
      "outputs": [
        {
          "internalType": "bytes",
          "name": "_value",
          "type": "bytes"
        }
      ],
      "stateMutability": "view",
      "type": "function"
    },
    {
      "inputs": [],
      "name": "owner",
      "outputs": [
        {
          "internalType": "address",
          "name": "",
          "type": "address"
        }
      ],
      "stateMutability": "view",
      "type": "function"
    },
    {
      "inputs": [],
      "name": "renounceOwnership",
      "outputs": [],
      "stateMutability": "nonpayable",
      "type": "function"
    },
    {
      "inputs": [
        {
          "internalType": "bytes32",
          "name": "_key",
          "type": "bytes32"
        },
        {
          "internalType": "bytes",
          "name": "_value",
          "type": "bytes"
        }
      ],
      "name": "setData",
      "outputs": [],
      "stateMutability": "nonpayable",
      "type": "function"
    },
    {
      "inputs": [
        {
          "internalType": "bytes4",
          "name": "interfaceId",
          "type": "bytes4"
        }
      ],
      "name": "supportsInterface",
      "outputs": [
        {
          "internalType": "bool",
          "name": "",
          "type": "bool"
        }
      ],
      "stateMutability": "view",
      "type": "function"
    },
    {
      "inputs": [
        {
          "internalType": "address",
          "name": "newOwner",
          "type": "address"
        }
      ],
      "name": "transferOwnership",
      "outputs": [],
      "stateMutability": "nonpayable",
      "type": "function"
    },
    {
      "stateMutability": "payable",
      "type": "receive"
    },
    {
      "inputs": [
        {
          "internalType": "bytes32",
          "name": "_hash",
          "type": "bytes32"
        },
        {
          "internalType": "bytes",
          "name": "_signature",
          "type": "bytes"
        }
      ],
      "name": "isValidSignature",
      "outputs": [
        {
          "internalType": "bytes4",
          "name": "magicValue",
          "type": "bytes4"
        }
      ],
      "stateMutability": "view",
      "type": "function"
    }
  ],
  "bytecode": "0x60806040523480156200001157600080fd5b5060405162001ee438038062001ee4833981810160405260208110156200003757600080fd5b8101908080519060200190929190505050808081620000636301ffc9a760e01b6200037860201b60201c565b6000620000756200048160201b60201c565b905080600160006101000a81548173ffffffffffffffffffffffffffffffffffffffff021916908373ffffffffffffffffffffffffffffffffffffffff1602179055508073ffffffffffffffffffffffffffffffffffffffff16600073ffffffffffffffffffffffffffffffffffffffff167f8be0079c531659141344cd1fd0a4f28419497f9722a3daafe3b4186f6b6457e060405160405180910390a350620001246200048960201b60201c565b73ffffffffffffffffffffffffffffffffffffffff168173ffffffffffffffffffffffffffffffffffffffff161462000169576200016881620004b360201b60201c565b5b620001816344c028fe60e01b6200037860201b60201c565b50620001926200048960201b60201c565b73ffffffffffffffffffffffffffffffffffffffff168173ffffffffffffffffffffffffffffffffffffffff1614620001d757620001d681620004b360201b60201c565b5b620001ef632bd57b7360e01b6200037860201b60201c565b505060007feafec4d89fa9619884b6b89135626455000000000000000000000000afdeb5d660001b905063afdeb5d660e01b60405160200180827bffffffffffffffffffffffffffffffffffffffffffffffffffffffff1916815260040191505060405160208183030381529060405260026000838152602001908152602001600020908051906020019062000287929190620006bb565b50807fece574603820d07bc9b91f2a932baadf4628aabcb8afba49776529c14a6104b26002600084815260200190815260200160002060405180806020018281038252838181546001816001161561010002031660029004815260200191508054600181600116156101000203166002900480156200034a5780601f106200031e576101008083540402835291602001916200034a565b820191906000526020600020905b8154815290600101906020018083116200032c57829003601f168201915b50509250505060405180910390a262000370631626ba7e60e01b6200037860201b60201c565b505062000761565b63ffffffff60e01b817bffffffffffffffffffffffffffffffffffffffffffffffffffffffff1916141562000415576040517f08c379a000000000000000000000000000000000000000000000000000000000815260040180806020018281038252601c8152602001807f4552433136353a20696e76616c696420696e746572666163652069640000000081525060200191505060405180910390fd5b6001600080837bffffffffffffffffffffffffffffffffffffffffffffffffffffffff19167bffffffffffffffffffffffffffffffffffffffffffffffffffffffff1916815260200190815260200160002060006101000a81548160ff02191690831515021790555050565b600033905090565b6000600160009054906101000a900473ffffffffffffffffffffffffffffffffffffffff16905090565b620004c36200048160201b60201c565b73ffffffffffffffffffffffffffffffffffffffff16620004e96200048960201b60201c565b73ffffffffffffffffffffffffffffffffffffffff161462000573576040517f08c379a00000000000000000000000000000000000000000000000000000000081526004018080602001828103825260208152602001807f4f776e61626c653a2063616c6c6572206973206e6f7420746865206f776e657281525060200191505060405180910390fd5b600073ffffffffffffffffffffffffffffffffffffffff168173ffffffffffffffffffffffffffffffffffffffff161415620005fb576040517f08c379a000000000000000000000000000000000000000000000000000000000815260040180806020018281038252602681526020018062001ebe6026913960400191505060405180910390fd5b8073ffffffffffffffffffffffffffffffffffffffff16600160009054906101000a900473ffffffffffffffffffffffffffffffffffffffff1673ffffffffffffffffffffffffffffffffffffffff167f8be0079c531659141344cd1fd0a4f28419497f9722a3daafe3b4186f6b6457e060405160405180910390a380600160006101000a81548173ffffffffffffffffffffffffffffffffffffffff021916908373ffffffffffffffffffffffffffffffffffffffff16021790555050565b828054600181600116156101000203166002900490600052602060002090601f016020900481019282601f10620006fe57805160ff19168380011785556200072f565b828001600101855582156200072f579182015b828111156200072e57825182559160200191906001019062000711565b5b5090506200073e919062000742565b5090565b5b808211156200075d57600081600090555060010162000743565b5090565b61174d80620007716000396000f3fe60806040526004361061007f5760003560e01c8063715018a61161004e578063715018a6146103ac5780637f23690c146103c35780638da5cb5b14610453578063f2fde38b14610494576100d1565b806301ffc9a7146100d65780631626ba7e1461014657806344c028fe1461024b57806354f6127f146102f8576100d1565b366100d1573461008d6104e5565b73ffffffffffffffffffffffffffffffffffffffff167f7e71433ddf847725166244795048ecf3e3f9f35628254ecbf73605666423349360405160405180910390a3005b600080fd5b3480156100e257600080fd5b5061012e600480360360208110156100f957600080fd5b8101908080357bffffffffffffffffffffffffffffffffffffffffffffffffffffffff191690602001909291905050506104ed565b60405180821515815260200191505060405180910390f35b34801561015257600080fd5b506102166004803603604081101561016957600080fd5b81019080803590602001909291908035906020019064010000000081111561019057600080fd5b8201836020820111156101a257600080fd5b803590602001918460018302840111640100000000831117156101c457600080fd5b91908080601f016020809104026020016040519081016040528093929190818152602001838380828437600081840152601f19601f820116905080830192505050505050509192919290505050610554565b60405180827bffffffffffffffffffffffffffffffffffffffffffffffffffffffff1916815260200191505060405180910390f35b6102f66004803603608081101561026157600080fd5b8101908080359060200190929190803573ffffffffffffffffffffffffffffffffffffffff16906020019092919080359060200190929190803590602001906401000000008111156102b257600080fd5b8201836020820111156102c457600080fd5b803590602001918460018302840111640100000000831117156102e657600080fd5b90919293919293905050506106ec565b005b34801561030457600080fd5b506103316004803603602081101561031b57600080fd5b8101908080359060200190929190505050610a69565b6040518080602001828103825283818151815260200191508051906020019080838360005b83811015610371578082015181840152602081019050610356565b50505050905090810190601f16801561039e5780820380516001836020036101000a031916815260200191505b509250505060405180910390f35b3480156103b857600080fd5b506103c1610b1e565b005b3480156103cf57600080fd5b50610451600480360360408110156103e657600080fd5b81019080803590602001909291908035906020019064010000000081111561040d57600080fd5b82018360208201111561041f57600080fd5b8035906020019184600183028401116401000000008311171561044157600080fd5b9091929391929390505050610c8e565b005b34801561045f57600080fd5b50610468610dc9565b604051808273ffffffffffffffffffffffffffffffffffffffff16815260200191505060405180910390f35b3480156104a057600080fd5b506104e3600480360360208110156104b757600080fd5b81019080803573ffffffffffffffffffffffffffffffffffffffff169060200190929190505050610df3565b005b600033905090565b6000806000837bffffffffffffffffffffffffffffffffffffffffffffffffffffffff19167bffffffffffffffffffffffffffffffffffffffffffffffffffffffff1916815260200190815260200160002060009054906101000a900460ff169050919050565b6000610566610561610dc9565b610fe8565b801561057e575061057d631626ba7e60e01b6104ed565b5b1561068a5761058b610dc9565b73ffffffffffffffffffffffffffffffffffffffff16631626ba7e84846040518363ffffffff1660e01b81526004018083815260200180602001828103825283818151815260200191508051906020019080838360005b838110156105fd5780820151818401526020810190506105e2565b50505050905090810190601f16801561062a5780820380516001836020036101000a031916815260200191505b50935050505060206040518083038186803b15801561064857600080fd5b505afa15801561065c573d6000803e3d6000fd5b505050506040513d602081101561067257600080fd5b810190808051906020019092919050505090506106e6565b6106948383610ff5565b73ffffffffffffffffffffffffffffffffffffffff166106b2610dc9565b73ffffffffffffffffffffffffffffffffffffffff16146106da5763ffffffff60e01b6106e3565b631626ba7e60e01b5b90505b92915050565b6106f46104e5565b73ffffffffffffffffffffffffffffffffffffffff16610712610dc9565b73ffffffffffffffffffffffffffffffffffffffff161461079b576040517f08c379a00000000000000000000000000000000000000000000000000000000081526004018080602001828103825260208152602001807f4f776e61626c653a2063616c6c6572206973206e6f7420746865206f776e657281525060200191505060405180910390fd5b828473ffffffffffffffffffffffffffffffffffffffff16867f1f920dbda597d7bf95035464170fa58d0a4b57f13a1c315ace6793b9f63688b8858560405180806020018281038252848482818152602001925080828437600081840152601f19601f820116905080830192505050935050505060405180910390a460006109c45a039050600086141561087f57610879858585858080601f016020809104026020016040519081016040528093929190818152602001838380828437600081840152601f19601f82011690508083019250505050505050846110a2565b50610a61565b60038614156108dc576108d68484848080601f016020809104026020016040519081016040528093929190818152602001838380828437600081840152601f19601f820116905080830192505050505050506110bb565b50610a60565b60028614156109f157600061093b84848080601f016020809104026020016040519081016040528093929190818152602001838380828437600081840152601f19601f82011690508083019250505050505050602086869050036111b3565b9050606061099585858080601f016020809104026020016040519081016040528093929190818152602001838380828437600081840152601f19601f820116905080830192505050505050506000602088889050036111db565b905060006109a4878484611267565b90508073ffffffffffffffffffffffffffffffffffffffff167fcf78cf0d6f3d8371e1075c69c492ab4ec5d8cf23a1a239b6a51a1d00be7ca31260405160405180910390a2505050610a5f565b6040517f08c379a00000000000000000000000000000000000000000000000000000000081526004018080602001828103825260148152602001807f57726f6e67206f7065726174696f6e207479706500000000000000000000000081525060200191505060405180910390fd5b5b5b505050505050565b6060600260008381526020019081526020016000208054600181600116156101000203166002900480601f016020809104026020016040519081016040528092919081815260200182805460018160011615610100020316600290048015610b125780601f10610ae757610100808354040283529160200191610b12565b820191906000526020600020905b815481529060010190602001808311610af557829003601f168201915b50505050509050919050565b610b266104e5565b73ffffffffffffffffffffffffffffffffffffffff16610b44610dc9565b73ffffffffffffffffffffffffffffffffffffffff1614610bcd576040517f08c379a00000000000000000000000000000000000000000000000000000000081526004018080602001828103825260208152602001807f4f776e61626c653a2063616c6c6572206973206e6f7420746865206f776e657281525060200191505060405180910390fd5b600073ffffffffffffffffffffffffffffffffffffffff16600160009054906101000a900473ffffffffffffffffffffffffffffffffffffffff1673ffffffffffffffffffffffffffffffffffffffff167f8be0079c531659141344cd1fd0a4f28419497f9722a3daafe3b4186f6b6457e060405160405180910390a36000600160006101000a81548173ffffffffffffffffffffffffffffffffffffffff021916908373ffffffffffffffffffffffffffffffffffffffff160217905550565b610c966104e5565b73ffffffffffffffffffffffffffffffffffffffff16610cb4610dc9565b73ffffffffffffffffffffffffffffffffffffffff1614610d3d576040517f08c379a00000000000000000000000000000000000000000000000000000000081526004018080602001828103825260208152602001807f4f776e61626c653a2063616c6c6572206973206e6f7420746865206f776e657281525060200191505060405180910390fd5b8181600260008681526020019081526020016000209190610d5f929190611610565b50827fece574603820d07bc9b91f2a932baadf4628aabcb8afba49776529c14a6104b2838360405180806020018281038252848482818152602001925080828437600081840152601f19601f820116905080830192505050935050505060405180910390a2505050565b6000600160009054906101000a900473ffffffffffffffffffffffffffffffffffffffff16905090565b610dfb6104e5565b73ffffffffffffffffffffffffffffffffffffffff16610e19610dc9565b73ffffffffffffffffffffffffffffffffffffffff1614610ea2576040517f08c379a00000000000000000000000000000000000000000000000000000000081526004018080602001828103825260208152602001807f4f776e61626c653a2063616c6c6572206973206e6f7420746865206f776e657281525060200191505060405180910390fd5b600073ffffffffffffffffffffffffffffffffffffffff168173ffffffffffffffffffffffffffffffffffffffff161415610f28576040517f08c379a00000000000000000000000000000000000000000000000000000000081526004018080602001828103825260268152602001806116ae6026913960400191505060405180910390fd5b8073ffffffffffffffffffffffffffffffffffffffff16600160009054906101000a900473ffffffffffffffffffffffffffffffffffffffff1673ffffffffffffffffffffffffffffffffffffffff167f8be0079c531659141344cd1fd0a4f28419497f9722a3daafe3b4186f6b6457e060405160405180910390a380600160006101000a81548173ffffffffffffffffffffffffffffffffffffffff021916908373ffffffffffffffffffffffffffffffffffffffff16021790555050565b600080823b119050919050565b6000604182511461106e576040517f08c379a000000000000000000000000000000000000000000000000000000000815260040180806020018281038252601f8152602001807f45434453413a20696e76616c6964207369676e6174757265206c656e6774680081525060200191505060405180910390fd5b60008060006020850151925060408501519150606085015160001a905061109786828585611411565b935050505092915050565b6000806000845160208601878987f19050949350505050565b600081516020830184f09050600073ffffffffffffffffffffffffffffffffffffffff168173ffffffffffffffffffffffffffffffffffffffff16141561116a576040517f08c379a00000000000000000000000000000000000000000000000000000000081526004018080602001828103825260198152602001807f436f756c64206e6f74206465706c6f7920636f6e74726163740000000000000081525060200191505060405180910390fd5b8073ffffffffffffffffffffffffffffffffffffffff167fcf78cf0d6f3d8371e1075c69c492ab4ec5d8cf23a1a239b6a51a1d00be7ca31260405160405180910390a292915050565b600060208201835110156111c657600080fd5b60008260208501015190508091505092915050565b6060818301845110156111ed57600080fd5b606082156000811461120a5760405191506020820160405261125b565b6040519150601f8416801560200281840101858101878315602002848b0101015b81831015611248578051835260208301925060208101905061122b565b50868552601f19601f8301166040525050505b50809150509392505050565b600080844710156112e0576040517f08c379a000000000000000000000000000000000000000000000000000000000815260040180806020018281038252601d8152602001807f437265617465323a20696e73756666696369656e742062616c616e636500000081525060200191505060405180910390fd5b600083511415611358576040517f08c379a00000000000000000000000000000000000000000000000000000000081526004018080602001828103825260208152602001807f437265617465323a2062797465636f6465206c656e677468206973207a65726f81525060200191505060405180910390fd5b8383516020850187f59050600073ffffffffffffffffffffffffffffffffffffffff168173ffffffffffffffffffffffffffffffffffffffff161415611406576040517f08c379a00000000000000000000000000000000000000000000000000000000081526004018080602001828103825260198152602001807f437265617465323a204661696c6564206f6e206465706c6f790000000000000081525060200191505060405180910390fd5b809150509392505050565b60007f7fffffffffffffffffffffffffffffff5d576e7357a4501ddfe92f46681b20a08260001c111561148f576040517f08c379a00000000000000000000000000000000000000000000000000000000081526004018080602001828103825260228152602001806116d46022913960400191505060405180910390fd5b601b8460ff1614806114a45750601c8460ff16145b6114f9576040517f08c379a00000000000000000000000000000000000000000000000000000000081526004018080602001828103825260228152602001806116f66022913960400191505060405180910390fd5b600060018686868660405160008152602001604052604051808581526020018460ff1681526020018381526020018281526020019450505050506020604051602081039080840390855afa158015611555573d6000803e3d6000fd5b505050602060405103519050600073ffffffffffffffffffffffffffffffffffffffff168173ffffffffffffffffffffffffffffffffffffffff161415611604576040517f08c379a00000000000000000000000000000000000000000000000000000000081526004018080602001828103825260188152602001807f45434453413a20696e76616c6964207369676e6174757265000000000000000081525060200191505060405180910390fd5b80915050949350505050565b828054600181600116156101000203166002900490600052602060002090601f016020900481019282601f1061165157803560ff191683800117855561167f565b8280016001018555821561167f579182015b8281111561167e578235825591602001919060010190611663565b5b50905061168c9190611690565b5090565b5b808211156116a9576000816000905550600101611691565b509056fe4f776e61626c653a206e6577206f776e657220697320746865207a65726f206164647265737345434453413a20696e76616c6964207369676e6174757265202773272076616c756545434453413a20696e76616c6964207369676e6174757265202776272076616c7565a264697066735822122017298e2720581f57b5ce84472d51bddd7c3dae982cb39a770be090c7978b699b64736f6c634300060c00334f776e61626c653a206e6577206f776e657220697320746865207a65726f2061646472657373",
  "immutableReferences": {},
  "source": "// SPDX-License-Identifier: Apache-2.0\npragma solidity ^0.6.0;\n\n// modules\nimport \"./ERC725.sol\";\nimport \"../IERC1271.sol\";\n\n// libraries\nimport \"@openzeppelin/contracts/cryptography/ECDSA.sol\";\nimport \"../helpers/UtilsLib.sol\";\n\n/**\n * @title ERC725Account\n * @dev Bundles ERC725X and ERC725Y, and ERC1271 and allows receiving native tokens.\n *\n *  @author Fabian Vogelsteller <fabian@lukso.network>\n */\n\n// TODO add ERC777, ERC223, ERC721 functions?\n\ncontract ERC725Account is ERC725, IERC1271  {\n\n    bytes4 internal constant _INTERFACE_ID_ERC1271 = 0x1626ba7e;\n    bytes4 internal constant _ERC1271FAILVALUE = 0xffffffff;\n\n    event ValueReceived(address indexed sender, uint256 indexed value);\n\n    /**\n     * @notice Sets the owner of the contract\n     * @param _newOwner the owner of the contract.\n     */\n    constructor(address _newOwner)\n    ERC725(_newOwner)\n    public\n    {\n        // set SupportedStandards > ERC725Account\n        bytes32 key = bytes32(0xeafec4d89fa9619884b6b89135626455000000000000000000000000afdeb5d6); // SupportedStandards > ERC725Account\n        store[key] = abi.encodePacked(bytes4(0xafdeb5d6)); // bytes4(keccak256('ERC725Account')\n        emit DataChanged(key, store[key]);\n\n        _registerInterface(_INTERFACE_ID_ERC1271);\n    }\n\n    receive()\n    external\n    payable\n    {\n        emit ValueReceived(_msgSender(), msg.value);\n    }\n\n//    TODO to be discussed\n//    function fallback()\n//    public\n//    {\n//        address to = owner();\n//        assembly {\n//            calldatacopy(0, 0, calldatasize())\n//            let result := staticcall(gas(), to, 0, calldatasize(), 0, 0)\n//            returndatacopy(0, 0, returndatasize())\n//            switch result\n//            case 0  { revert (0, returndatasize()) }\n//            default { return (0, returndatasize()) }\n//        }\n//    }\n\n\n    /**\n    * @notice Checks if an owner signed `_data`.\n    * ERC1271 interface.\n    *\n    * @param _hash hash of the data signed//Arbitrary length data signed on the behalf of address(this)\n    * @param _signature owner's signature(s) of the data\n    */\n    function isValidSignature(bytes32 _hash, bytes memory _signature)\n    override\n    public\n    view\n    returns (bytes4 magicValue)\n    {\n        if (\n            UtilsLib.isContract(owner()) &&\n            supportsInterface(_INTERFACE_ID_ERC1271)\n        ){\n            return IERC1271(owner()).isValidSignature(_hash, _signature);\n        } else {\n            return owner() == ECDSA.recover(_hash, _signature)\n            ? _INTERFACE_ID_ERC1271\n            : _ERC1271FAILVALUE;\n        }\n    }\n}\n",
  "sourcePath": "/Users/frozeman/Sites/LUKSO/universalprofile-smart-contracts/submodules/ERC725/implementations/contracts/ERC725/ERC725Account.sol",
  "compiler": {
    "name": "solc",
    "version": "0.6.12+commit.27d51765.Emscripten.clang"
  },
  "schemaVersion": "3.3.4",
  "updatedAt": "2021-03-22T15:21:59.029Z",
  "devdoc": {
    "author": "Fabian Vogelsteller <fabian@lukso.network>",
    "details": "Bundles ERC725X and ERC725Y, and ERC1271 and allows receiving native tokens.",
    "kind": "dev",
    "methods": {
      "constructor": {
        "params": {
          "_newOwner": "the owner of the contract."
        }
      },
      "execute(uint256,address,uint256,bytes)": {
        "params": {
          "_data": "the call data, or the contract data to deploy",
          "_operation": "the operation to execute: CALL = 0; DELEGATECALL = 1; CREATE2 = 2; CREATE = 3;",
          "_to": "the smart contract or address to interact with. `_to` will be unused if a contract is created (operation 2 and 3)",
          "_value": "the value of ETH to transfer"
        }
      },
      "getData(bytes32)": {
        "params": {
          "_key": "the key which value to retrieve"
        },
        "returns": {
          "_value": "The date stored at the key"
        }
      },
      "isValidSignature(bytes32,bytes)": {
        "params": {
          "_hash": "hash of the data signed//Arbitrary length data signed on the behalf of address(this)",
          "_signature": "owner's signature(s) of the data"
        }
      },
      "owner()": {
        "details": "Returns the address of the current owner."
      },
      "renounceOwnership()": {
        "details": "Leaves the contract without owner. It will not be possible to call `onlyOwner` functions anymore. Can only be called by the current owner. NOTE: Renouncing ownership will leave the contract without an owner, thereby removing any functionality that is only available to the owner."
      },
      "setData(bytes32,bytes)": {
        "params": {
          "_key": "the key which value to retrieve",
          "_value": "the bytes to set."
        }
      },
      "supportsInterface(bytes4)": {
        "details": "See {IERC165-supportsInterface}. Time complexity O(1), guaranteed to always use less than 30 000 gas."
      },
      "transferOwnership(address)": {
        "details": "Transfers ownership of the contract to a new account (`newOwner`). Can only be called by the current owner."
      }
    },
    "title": "ERC725Account",
    "version": 1
  },
  "userdoc": {
    "kind": "user",
    "methods": {
      "constructor": "Sets the owner of the contract",
      "execute(uint256,address,uint256,bytes)": {
        "notice": "Executes any other smart contract. Is only callable by the owner."
      },
      "getData(bytes32)": {
        "notice": "Gets data at a given `key`"
      },
      "isValidSignature(bytes32,bytes)": {
        "notice": "Checks if an owner signed `_data`. ERC1271 interface."
      },
      "setData(bytes32,bytes)": {
        "notice": "Sets data at a given `key`"
      }
    },
    "version": 1
  }
}