{
  "contractName": "ERC725X",
  "abi": [
    {
      "inputs": [
        {
          "internalType": "address",
          "name": "_newOwner",
          "type": "address"
        }
      ],
      "stateMutability": "nonpayable",
      "type": "constructor"
    },
    {
      "anonymous": false,
      "inputs": [
        {
          "indexed": true,
          "internalType": "address",
          "name": "contractAddress",
          "type": "address"
        }
      ],
      "name": "ContractCreated",
      "type": "event"
    },
    {
      "anonymous": false,
      "inputs": [
        {
          "indexed": true,
          "internalType": "uint256",
          "name": "_operation",
          "type": "uint256"
        },
        {
          "indexed": true,
          "internalType": "address",
          "name": "_to",
          "type": "address"
        },
        {
          "indexed": true,
          "internalType": "uint256",
          "name": "_value",
          "type": "uint256"
        },
        {
          "indexed": false,
          "internalType": "bytes",
          "name": "_data",
          "type": "bytes"
        }
      ],
      "name": "Executed",
      "type": "event"
    },
    {
      "anonymous": false,
      "inputs": [
        {
          "indexed": true,
          "internalType": "address",
          "name": "previousOwner",
          "type": "address"
        },
        {
          "indexed": true,
          "internalType": "address",
          "name": "newOwner",
          "type": "address"
        }
      ],
      "name": "OwnershipTransferred",
      "type": "event"
    },
    {
      "inputs": [],
      "name": "owner",
      "outputs": [
        {
          "internalType": "address",
          "name": "",
          "type": "address"
        }
      ],
      "stateMutability": "view",
      "type": "function"
    },
    {
      "inputs": [],
      "name": "renounceOwnership",
      "outputs": [],
      "stateMutability": "nonpayable",
      "type": "function"
    },
    {
      "inputs": [
        {
          "internalType": "bytes4",
          "name": "interfaceId",
          "type": "bytes4"
        }
      ],
      "name": "supportsInterface",
      "outputs": [
        {
          "internalType": "bool",
          "name": "",
          "type": "bool"
        }
      ],
      "stateMutability": "view",
      "type": "function"
    },
    {
      "inputs": [
        {
          "internalType": "address",
          "name": "newOwner",
          "type": "address"
        }
      ],
      "name": "transferOwnership",
      "outputs": [],
      "stateMutability": "nonpayable",
      "type": "function"
    },
    {
      "inputs": [
        {
          "internalType": "uint256",
          "name": "_operation",
          "type": "uint256"
        },
        {
          "internalType": "address",
          "name": "_to",
          "type": "address"
        },
        {
          "internalType": "uint256",
          "name": "_value",
          "type": "uint256"
        },
        {
          "internalType": "bytes",
          "name": "_data",
          "type": "bytes"
        }
      ],
      "name": "execute",
      "outputs": [],
      "stateMutability": "payable",
      "type": "function"
    }
  ],
  "bytecode": "0x60806040523480156200001157600080fd5b506040516200125938038062001259833981810160405260208110156200003757600080fd5b8101908080519060200190929190505050620000606301ffc9a760e01b6200018560201b60201c565b6000620000726200028e60201b60201c565b905080600160006101000a81548173ffffffffffffffffffffffffffffffffffffffff021916908373ffffffffffffffffffffffffffffffffffffffff1602179055508073ffffffffffffffffffffffffffffffffffffffff16600073ffffffffffffffffffffffffffffffffffffffff167f8be0079c531659141344cd1fd0a4f28419497f9722a3daafe3b4186f6b6457e060405160405180910390a350620001216200029660201b60201c565b73ffffffffffffffffffffffffffffffffffffffff168173ffffffffffffffffffffffffffffffffffffffff161462000166576200016581620002c060201b60201c565b5b6200017e6344c028fe60e01b6200018560201b60201c565b50620004c8565b63ffffffff60e01b817bffffffffffffffffffffffffffffffffffffffffffffffffffffffff1916141562000222576040517f08c379a000000000000000000000000000000000000000000000000000000000815260040180806020018281038252601c8152602001807f4552433136353a20696e76616c696420696e746572666163652069640000000081525060200191505060405180910390fd5b6001600080837bffffffffffffffffffffffffffffffffffffffffffffffffffffffff19167bffffffffffffffffffffffffffffffffffffffffffffffffffffffff1916815260200190815260200160002060006101000a81548160ff02191690831515021790555050565b600033905090565b6000600160009054906101000a900473ffffffffffffffffffffffffffffffffffffffff16905090565b620002d06200028e60201b60201c565b73ffffffffffffffffffffffffffffffffffffffff16620002f66200029660201b60201c565b73ffffffffffffffffffffffffffffffffffffffff161462000380576040517f08c379a00000000000000000000000000000000000000000000000000000000081526004018080602001828103825260208152602001807f4f776e61626c653a2063616c6c6572206973206e6f7420746865206f776e657281525060200191505060405180910390fd5b600073ffffffffffffffffffffffffffffffffffffffff168173ffffffffffffffffffffffffffffffffffffffff16141562000408576040517f08c379a0000000000000000000000000000000000000000000000000000000008152600401808060200182810382526026815260200180620012336026913960400191505060405180910390fd5b8073ffffffffffffffffffffffffffffffffffffffff16600160009054906101000a900473ffffffffffffffffffffffffffffffffffffffff1673ffffffffffffffffffffffffffffffffffffffff167f8be0079c531659141344cd1fd0a4f28419497f9722a3daafe3b4186f6b6457e060405160405180910390a380600160006101000a81548173ffffffffffffffffffffffffffffffffffffffff021916908373ffffffffffffffffffffffffffffffffffffffff16021790555050565b610d5b80620004d86000396000f3fe60806040526004361061004a5760003560e01c806301ffc9a71461004f57806344c028fe146100bf578063715018a61461016c5780638da5cb5b14610183578063f2fde38b146101c4575b600080fd5b34801561005b57600080fd5b506100a76004803603602081101561007257600080fd5b8101908080357bffffffffffffffffffffffffffffffffffffffffffffffffffffffff19169060200190929190505050610215565b60405180821515815260200191505060405180910390f35b61016a600480360360808110156100d557600080fd5b8101908080359060200190929190803573ffffffffffffffffffffffffffffffffffffffff169060200190929190803590602001909291908035906020019064010000000081111561012657600080fd5b82018360208201111561013857600080fd5b8035906020019184600183028401116401000000008311171561015a57600080fd5b909192939192939050505061027c565b005b34801561017857600080fd5b506101816105f9565b005b34801561018f57600080fd5b50610198610769565b604051808273ffffffffffffffffffffffffffffffffffffffff16815260200191505060405180910390f35b3480156101d057600080fd5b50610213600480360360208110156101e757600080fd5b81019080803573ffffffffffffffffffffffffffffffffffffffff169060200190929190505050610793565b005b6000806000837bffffffffffffffffffffffffffffffffffffffffffffffffffffffff19167bffffffffffffffffffffffffffffffffffffffffffffffffffffffff1916815260200190815260200160002060009054906101000a900460ff169050919050565b610284610988565b73ffffffffffffffffffffffffffffffffffffffff166102a2610769565b73ffffffffffffffffffffffffffffffffffffffff161461032b576040517f08c379a00000000000000000000000000000000000000000000000000000000081526004018080602001828103825260208152602001807f4f776e61626c653a2063616c6c6572206973206e6f7420746865206f776e657281525060200191505060405180910390fd5b828473ffffffffffffffffffffffffffffffffffffffff16867f1f920dbda597d7bf95035464170fa58d0a4b57f13a1c315ace6793b9f63688b8858560405180806020018281038252848482818152602001925080828437600081840152601f19601f820116905080830192505050935050505060405180910390a460006109c45a039050600086141561040f57610409858585858080601f016020809104026020016040519081016040528093929190818152602001838380828437600081840152601f19601f8201169050808301925050505050505084610990565b506105f1565b600386141561046c576104668484848080601f016020809104026020016040519081016040528093929190818152602001838380828437600081840152601f19601f820116905080830192505050505050506109a9565b506105f0565b60028614156105815760006104cb84848080601f016020809104026020016040519081016040528093929190818152602001838380828437600081840152601f19601f8201169050808301925050505050505060208686905003610aa1565b9050606061052585858080601f016020809104026020016040519081016040528093929190818152602001838380828437600081840152601f19601f82011690508083019250505050505050600060208888905003610ac9565b90506000610534878484610b55565b90508073ffffffffffffffffffffffffffffffffffffffff167fcf78cf0d6f3d8371e1075c69c492ab4ec5d8cf23a1a239b6a51a1d00be7ca31260405160405180910390a25050506105ef565b6040517f08c379a00000000000000000000000000000000000000000000000000000000081526004018080602001828103825260148152602001807f57726f6e67206f7065726174696f6e207479706500000000000000000000000081525060200191505060405180910390fd5b5b5b505050505050565b610601610988565b73ffffffffffffffffffffffffffffffffffffffff1661061f610769565b73ffffffffffffffffffffffffffffffffffffffff16146106a8576040517f08c379a00000000000000000000000000000000000000000000000000000000081526004018080602001828103825260208152602001807f4f776e61626c653a2063616c6c6572206973206e6f7420746865206f776e657281525060200191505060405180910390fd5b600073ffffffffffffffffffffffffffffffffffffffff16600160009054906101000a900473ffffffffffffffffffffffffffffffffffffffff1673ffffffffffffffffffffffffffffffffffffffff167f8be0079c531659141344cd1fd0a4f28419497f9722a3daafe3b4186f6b6457e060405160405180910390a36000600160006101000a81548173ffffffffffffffffffffffffffffffffffffffff021916908373ffffffffffffffffffffffffffffffffffffffff160217905550565b6000600160009054906101000a900473ffffffffffffffffffffffffffffffffffffffff16905090565b61079b610988565b73ffffffffffffffffffffffffffffffffffffffff166107b9610769565b73ffffffffffffffffffffffffffffffffffffffff1614610842576040517f08c379a00000000000000000000000000000000000000000000000000000000081526004018080602001828103825260208152602001807f4f776e61626c653a2063616c6c6572206973206e6f7420746865206f776e657281525060200191505060405180910390fd5b600073ffffffffffffffffffffffffffffffffffffffff168173ffffffffffffffffffffffffffffffffffffffff1614156108c8576040517f08c379a0000000000000000000000000000000000000000000000000000000008152600401808060200182810382526026815260200180610d006026913960400191505060405180910390fd5b8073ffffffffffffffffffffffffffffffffffffffff16600160009054906101000a900473ffffffffffffffffffffffffffffffffffffffff1673ffffffffffffffffffffffffffffffffffffffff167f8be0079c531659141344cd1fd0a4f28419497f9722a3daafe3b4186f6b6457e060405160405180910390a380600160006101000a81548173ffffffffffffffffffffffffffffffffffffffff021916908373ffffffffffffffffffffffffffffffffffffffff16021790555050565b600033905090565b6000806000845160208601878987f19050949350505050565b600081516020830184f09050600073ffffffffffffffffffffffffffffffffffffffff168173ffffffffffffffffffffffffffffffffffffffff161415610a58576040517f08c379a00000000000000000000000000000000000000000000000000000000081526004018080602001828103825260198152602001807f436f756c64206e6f74206465706c6f7920636f6e74726163740000000000000081525060200191505060405180910390fd5b8073ffffffffffffffffffffffffffffffffffffffff167fcf78cf0d6f3d8371e1075c69c492ab4ec5d8cf23a1a239b6a51a1d00be7ca31260405160405180910390a292915050565b60006020820183511015610ab457600080fd5b60008260208501015190508091505092915050565b606081830184511015610adb57600080fd5b6060821560008114610af857604051915060208201604052610b49565b6040519150601f8416801560200281840101858101878315602002848b0101015b81831015610b365780518352602083019250602081019050610b19565b50868552601f19601f8301166040525050505b50809150509392505050565b60008084471015610bce576040517f08c379a000000000000000000000000000000000000000000000000000000000815260040180806020018281038252601d8152602001807f437265617465323a20696e73756666696369656e742062616c616e636500000081525060200191505060405180910390fd5b600083511415610c46576040517f08c379a00000000000000000000000000000000000000000000000000000000081526004018080602001828103825260208152602001807f437265617465323a2062797465636f6465206c656e677468206973207a65726f81525060200191505060405180910390fd5b8383516020850187f59050600073ffffffffffffffffffffffffffffffffffffffff168173ffffffffffffffffffffffffffffffffffffffff161415610cf4576040517f08c379a00000000000000000000000000000000000000000000000000000000081526004018080602001828103825260198152602001807f437265617465323a204661696c6564206f6e206465706c6f790000000000000081525060200191505060405180910390fd5b80915050939250505056fe4f776e61626c653a206e6577206f776e657220697320746865207a65726f2061646472657373a264697066735822122038c966bec845081f35604c36b2f6656b246fe98df8c3109252a377c77ec0ed7864736f6c634300060c00334f776e61626c653a206e6577206f776e657220697320746865207a65726f2061646472657373",
  "immutableReferences": {},
  "source": "// SPDX-License-Identifier: Apache-2.0\npragma solidity ^0.6.0;\n\n// interfaces\nimport \"./IERC725X.sol\";\n\n// modules\nimport \"@openzeppelin/contracts/access/Ownable.sol\";\nimport \"@openzeppelin/contracts/introspection/ERC165.sol\";\n\n// libraries\nimport \"@openzeppelin/contracts/utils/Create2.sol\";\nimport \"solidity-bytes-utils/contracts/BytesLib.sol\";\n\n/**\n * @title ERC725 X executor\n * @dev Implementation of a contract module which provides the ability to call arbitrary functions at any other smart contract and itself,\n * including using `delegatecall`, as well creating contracts using `create` and `create2`.\n * This is the basis for a smart contract based account system, but could also be used as a proxy account system.\n *\n * `execute` MUST only be called by the owner of the contract set via ERC173.\n *\n *  @author Fabian Vogelsteller <fabian@lukso.network>\n */\ncontract ERC725X is ERC165, Ownable, IERC725X  {\n\n    bytes4 internal constant _INTERFACE_ID_ERC725X = 0x44c028fe;\n\n    uint256 constant OPERATION_CALL = 0;\n    uint256 constant OPERATION_DELEGATECALL = 1;\n    uint256 constant OPERATION_CREATE2 = 2;\n    uint256 constant OPERATION_CREATE = 3;\n\n    /**\n     * @notice Sets the owner of the contract\n     * @param _newOwner the owner of the contract.\n     */\n    constructor(address _newOwner) public {\n        // This is necessary to prevent a contract that implements both ERC725X and ERC725Y to call both constructors\n        if(_newOwner != owner()) {\n            transferOwnership(_newOwner);\n        }\n\n        _registerInterface(_INTERFACE_ID_ERC725X);\n    }\n\n    /* Public functions */\n\n    /**\n     * @notice Executes any other smart contract. Is only callable by the owner.\n     *\n     *\n     * @param _operation the operation to execute: CALL = 0; DELEGATECALL = 1; CREATE2 = 2; CREATE = 3;\n     * @param _to the smart contract or address to interact with. `_to` will be unused if a contract is created (operation 2 and 3)\n     * @param _value the value of ETH to transfer\n     * @param _data the call data, or the contract data to deploy\n     */\n    function execute(uint256 _operation, address _to, uint256 _value, bytes calldata _data)\n    external\n    payable\n    override\n    onlyOwner\n    {\n        // emit event\n        emit Executed(_operation, _to, _value, _data);\n\n        uint256 txGas = gasleft() - 2500;\n\n        // CALL\n        if (_operation == OPERATION_CALL) {\n            executeCall(_to, _value, _data, txGas);\n\n        // DELEGATE CALL\n        // TODO: risky as storage slots can be overridden, remove?\n//        } else if (_operation == OPERATION_DELEGATECALL) {\n//            address currentOwner = owner();\n//            executeDelegateCall(_to, _data, txGas);\n//            // Check that the owner was not overridden\n//            require(owner() == currentOwner, \"Delegate call is not allowed to modify the owner!\");\n\n        // CREATE\n        } else if (_operation == OPERATION_CREATE) {\n            performCreate(_value, _data);\n\n        // CREATE2\n        } else if (_operation == OPERATION_CREATE2) {\n            bytes32 salt = BytesLib.toBytes32(_data, _data.length - 32);\n            bytes memory data = BytesLib.slice(_data, 0, _data.length - 32);\n\n            address contractAddress = Create2.deploy(_value, salt, data);\n\n            emit ContractCreated(contractAddress);\n\n        } else {\n            revert(\"Wrong operation type\");\n        }\n    }\n\n    /* Internal functions */\n\n    // Taken from GnosisSafe\n    // https://github.com/gnosis/safe-contracts/blob/development/contracts/base/Executor.sol\n    function executeCall(address to, uint256 value, bytes memory data, uint256 txGas)\n    internal\n    returns (bool success)\n    {\n        // solium-disable-next-line security/no-inline-assembly\n        assembly {\n            success := call(txGas, to, value, add(data, 0x20), mload(data), 0, 0)\n        }\n    }\n\n    // Taken from GnosisSafe\n    // https://github.com/gnosis/safe-contracts/blob/development/contracts/base/Executor.sol\n    function executeDelegateCall(address to, bytes memory data, uint256 txGas)\n    internal\n    returns (bool success)\n    {\n        // solium-disable-next-line security/no-inline-assembly\n        assembly {\n            success := delegatecall(txGas, to, add(data, 0x20), mload(data), 0, 0)\n        }\n    }\n\n    // Taken from GnosisSafe\n    // https://github.com/gnosis/safe-contracts/blob/development/contracts/libraries/CreateCall.sol\n    function performCreate(uint256 value, bytes memory deploymentData)\n    internal\n    returns (address newContract)\n    {\n        // solium-disable-next-line security/no-inline-assembly\n        assembly {\n            newContract := create(value, add(deploymentData, 0x20), mload(deploymentData))\n        }\n        require(newContract != address(0), \"Could not deploy contract\");\n        emit ContractCreated(newContract);\n    }\n\n    /* Modifiers */\n\n}\n",
  "sourcePath": "/Users/frozeman/Sites/LUKSO/universalprofile-smart-contracts/submodules/ERC725/implementations/contracts/ERC725/ERC725X.sol",
  "compiler": {
    "name": "solc",
    "version": "0.6.12+commit.27d51765.Emscripten.clang"
  },
  "schemaVersion": "3.3.4",
  "updatedAt": "2021-03-22T15:21:59.031Z",
  "devdoc": {
    "author": "Fabian Vogelsteller <fabian@lukso.network>",
    "details": "Implementation of a contract module which provides the ability to call arbitrary functions at any other smart contract and itself, including using `delegatecall`, as well creating contracts using `create` and `create2`. This is the basis for a smart contract based account system, but could also be used as a proxy account system. `execute` MUST only be called by the owner of the contract set via ERC173.",
    "kind": "dev",
    "methods": {
      "constructor": {
        "params": {
          "_newOwner": "the owner of the contract."
        }
      },
      "execute(uint256,address,uint256,bytes)": {
        "params": {
          "_data": "the call data, or the contract data to deploy",
          "_operation": "the operation to execute: CALL = 0; DELEGATECALL = 1; CREATE2 = 2; CREATE = 3;",
          "_to": "the smart contract or address to interact with. `_to` will be unused if a contract is created (operation 2 and 3)",
          "_value": "the value of ETH to transfer"
        }
      },
      "owner()": {
        "details": "Returns the address of the current owner."
      },
      "renounceOwnership()": {
        "details": "Leaves the contract without owner. It will not be possible to call `onlyOwner` functions anymore. Can only be called by the current owner. NOTE: Renouncing ownership will leave the contract without an owner, thereby removing any functionality that is only available to the owner."
      },
      "supportsInterface(bytes4)": {
        "details": "See {IERC165-supportsInterface}. Time complexity O(1), guaranteed to always use less than 30 000 gas."
      },
      "transferOwnership(address)": {
        "details": "Transfers ownership of the contract to a new account (`newOwner`). Can only be called by the current owner."
      }
    },
    "title": "ERC725 X executor",
    "version": 1
  },
  "userdoc": {
    "kind": "user",
    "methods": {
      "constructor": "Sets the owner of the contract",
      "execute(uint256,address,uint256,bytes)": {
        "notice": "Executes any other smart contract. Is only callable by the owner."
      }
    },
    "version": 1
  }
}