{
  "contractName": "ERC725",
  "abi": [
    {
      "inputs": [
        {
          "internalType": "address",
          "name": "_newOwner",
          "type": "address"
        }
      ],
      "stateMutability": "nonpayable",
      "type": "constructor"
    },
    {
      "anonymous": false,
      "inputs": [
        {
          "indexed": true,
          "internalType": "address",
          "name": "contractAddress",
          "type": "address"
        }
      ],
      "name": "ContractCreated",
      "type": "event"
    },
    {
      "anonymous": false,
      "inputs": [
        {
          "indexed": true,
          "internalType": "bytes32",
          "name": "key",
          "type": "bytes32"
        },
        {
          "indexed": false,
          "internalType": "bytes",
          "name": "value",
          "type": "bytes"
        }
      ],
      "name": "DataChanged",
      "type": "event"
    },
    {
      "anonymous": false,
      "inputs": [
        {
          "indexed": true,
          "internalType": "uint256",
          "name": "_operation",
          "type": "uint256"
        },
        {
          "indexed": true,
          "internalType": "address",
          "name": "_to",
          "type": "address"
        },
        {
          "indexed": true,
          "internalType": "uint256",
          "name": "_value",
          "type": "uint256"
        },
        {
          "indexed": false,
          "internalType": "bytes",
          "name": "_data",
          "type": "bytes"
        }
      ],
      "name": "Executed",
      "type": "event"
    },
    {
      "anonymous": false,
      "inputs": [
        {
          "indexed": true,
          "internalType": "address",
          "name": "previousOwner",
          "type": "address"
        },
        {
          "indexed": true,
          "internalType": "address",
          "name": "newOwner",
          "type": "address"
        }
      ],
      "name": "OwnershipTransferred",
      "type": "event"
    },
    {
      "inputs": [
        {
          "internalType": "uint256",
          "name": "_operation",
          "type": "uint256"
        },
        {
          "internalType": "address",
          "name": "_to",
          "type": "address"
        },
        {
          "internalType": "uint256",
          "name": "_value",
          "type": "uint256"
        },
        {
          "internalType": "bytes",
          "name": "_data",
          "type": "bytes"
        }
      ],
      "name": "execute",
      "outputs": [],
      "stateMutability": "payable",
      "type": "function"
    },
    {
      "inputs": [
        {
          "internalType": "bytes32",
          "name": "_key",
          "type": "bytes32"
        }
      ],
      "name": "getData",
      "outputs": [
        {
          "internalType": "bytes",
          "name": "_value",
          "type": "bytes"
        }
      ],
      "stateMutability": "view",
      "type": "function"
    },
    {
      "inputs": [],
      "name": "owner",
      "outputs": [
        {
          "internalType": "address",
          "name": "",
          "type": "address"
        }
      ],
      "stateMutability": "view",
      "type": "function"
    },
    {
      "inputs": [],
      "name": "renounceOwnership",
      "outputs": [],
      "stateMutability": "nonpayable",
      "type": "function"
    },
    {
      "inputs": [
        {
          "internalType": "bytes32",
          "name": "_key",
          "type": "bytes32"
        },
        {
          "internalType": "bytes",
          "name": "_value",
          "type": "bytes"
        }
      ],
      "name": "setData",
      "outputs": [],
      "stateMutability": "nonpayable",
      "type": "function"
    },
    {
      "inputs": [
        {
          "internalType": "bytes4",
          "name": "interfaceId",
          "type": "bytes4"
        }
      ],
      "name": "supportsInterface",
      "outputs": [
        {
          "internalType": "bool",
          "name": "",
          "type": "bool"
        }
      ],
      "stateMutability": "view",
      "type": "function"
    },
    {
      "inputs": [
        {
          "internalType": "address",
          "name": "newOwner",
          "type": "address"
        }
      ],
      "name": "transferOwnership",
      "outputs": [],
      "stateMutability": "nonpayable",
      "type": "function"
    }
  ],
  "bytecode": "0x60806040523480156200001157600080fd5b50604051620016c1380380620016c1833981810160405260208110156200003757600080fd5b81019080805190602001909291905050508081620000626301ffc9a760e01b620001f660201b60201c565b600062000074620002ff60201b60201c565b905080600160006101000a81548173ffffffffffffffffffffffffffffffffffffffff021916908373ffffffffffffffffffffffffffffffffffffffff1602179055508073ffffffffffffffffffffffffffffffffffffffff16600073ffffffffffffffffffffffffffffffffffffffff167f8be0079c531659141344cd1fd0a4f28419497f9722a3daafe3b4186f6b6457e060405160405180910390a350620001236200030760201b60201c565b73ffffffffffffffffffffffffffffffffffffffff168173ffffffffffffffffffffffffffffffffffffffff1614620001685762000167816200033160201b60201c565b5b620001806344c028fe60e01b620001f660201b60201c565b50620001916200030760201b60201c565b73ffffffffffffffffffffffffffffffffffffffff168173ffffffffffffffffffffffffffffffffffffffff1614620001d657620001d5816200033160201b60201c565b5b620001ee632bd57b7360e01b620001f660201b60201c565b505062000539565b63ffffffff60e01b817bffffffffffffffffffffffffffffffffffffffffffffffffffffffff1916141562000293576040517f08c379a000000000000000000000000000000000000000000000000000000000815260040180806020018281038252601c8152602001807f4552433136353a20696e76616c696420696e746572666163652069640000000081525060200191505060405180910390fd5b6001600080837bffffffffffffffffffffffffffffffffffffffffffffffffffffffff19167bffffffffffffffffffffffffffffffffffffffffffffffffffffffff1916815260200190815260200160002060006101000a81548160ff02191690831515021790555050565b600033905090565b6000600160009054906101000a900473ffffffffffffffffffffffffffffffffffffffff16905090565b62000341620002ff60201b60201c565b73ffffffffffffffffffffffffffffffffffffffff16620003676200030760201b60201c565b73ffffffffffffffffffffffffffffffffffffffff1614620003f1576040517f08c379a00000000000000000000000000000000000000000000000000000000081526004018080602001828103825260208152602001807f4f776e61626c653a2063616c6c6572206973206e6f7420746865206f776e657281525060200191505060405180910390fd5b600073ffffffffffffffffffffffffffffffffffffffff168173ffffffffffffffffffffffffffffffffffffffff16141562000479576040517f08c379a00000000000000000000000000000000000000000000000000000000081526004018080602001828103825260268152602001806200169b6026913960400191505060405180910390fd5b8073ffffffffffffffffffffffffffffffffffffffff16600160009054906101000a900473ffffffffffffffffffffffffffffffffffffffff1673ffffffffffffffffffffffffffffffffffffffff167f8be0079c531659141344cd1fd0a4f28419497f9722a3daafe3b4186f6b6457e060405160405180910390a380600160006101000a81548173ffffffffffffffffffffffffffffffffffffffff021916908373ffffffffffffffffffffffffffffffffffffffff16021790555050565b61115280620005496000396000f3fe6080604052600436106100705760003560e01c8063715018a61161004e578063715018a6146102465780637f23690c1461025d5780638da5cb5b146102ed578063f2fde38b1461032e57610070565b806301ffc9a71461007557806344c028fe146100e557806354f6127f14610192575b600080fd5b34801561008157600080fd5b506100cd6004803603602081101561009857600080fd5b8101908080357bffffffffffffffffffffffffffffffffffffffffffffffffffffffff1916906020019092919050505061037f565b60405180821515815260200191505060405180910390f35b610190600480360360808110156100fb57600080fd5b8101908080359060200190929190803573ffffffffffffffffffffffffffffffffffffffff169060200190929190803590602001909291908035906020019064010000000081111561014c57600080fd5b82018360208201111561015e57600080fd5b8035906020019184600183028401116401000000008311171561018057600080fd5b90919293919293905050506103e6565b005b34801561019e57600080fd5b506101cb600480360360208110156101b557600080fd5b8101908080359060200190929190505050610763565b6040518080602001828103825283818151815260200191508051906020019080838360005b8381101561020b5780820151818401526020810190506101f0565b50505050905090810190601f1680156102385780820380516001836020036101000a031916815260200191505b509250505060405180910390f35b34801561025257600080fd5b5061025b610818565b005b34801561026957600080fd5b506102eb6004803603604081101561028057600080fd5b8101908080359060200190929190803590602001906401000000008111156102a757600080fd5b8201836020820111156102b957600080fd5b803590602001918460018302840111640100000000831117156102db57600080fd5b9091929391929390505050610988565b005b3480156102f957600080fd5b50610302610ac3565b604051808273ffffffffffffffffffffffffffffffffffffffff16815260200191505060405180910390f35b34801561033a57600080fd5b5061037d6004803603602081101561035157600080fd5b81019080803573ffffffffffffffffffffffffffffffffffffffff169060200190929190505050610aed565b005b6000806000837bffffffffffffffffffffffffffffffffffffffffffffffffffffffff19167bffffffffffffffffffffffffffffffffffffffffffffffffffffffff1916815260200190815260200160002060009054906101000a900460ff169050919050565b6103ee610ce2565b73ffffffffffffffffffffffffffffffffffffffff1661040c610ac3565b73ffffffffffffffffffffffffffffffffffffffff1614610495576040517f08c379a00000000000000000000000000000000000000000000000000000000081526004018080602001828103825260208152602001807f4f776e61626c653a2063616c6c6572206973206e6f7420746865206f776e657281525060200191505060405180910390fd5b828473ffffffffffffffffffffffffffffffffffffffff16867f1f920dbda597d7bf95035464170fa58d0a4b57f13a1c315ace6793b9f63688b8858560405180806020018281038252848482818152602001925080828437600081840152601f19601f820116905080830192505050935050505060405180910390a460006109c45a039050600086141561057957610573858585858080601f016020809104026020016040519081016040528093929190818152602001838380828437600081840152601f19601f8201169050808301925050505050505084610cea565b5061075b565b60038614156105d6576105d08484848080601f016020809104026020016040519081016040528093929190818152602001838380828437600081840152601f19601f82011690508083019250505050505050610d03565b5061075a565b60028614156106eb57600061063584848080601f016020809104026020016040519081016040528093929190818152602001838380828437600081840152601f19601f8201169050808301925050505050505060208686905003610dfb565b9050606061068f85858080601f016020809104026020016040519081016040528093929190818152602001838380828437600081840152601f19601f82011690508083019250505050505050600060208888905003610e23565b9050600061069e878484610eaf565b90508073ffffffffffffffffffffffffffffffffffffffff167fcf78cf0d6f3d8371e1075c69c492ab4ec5d8cf23a1a239b6a51a1d00be7ca31260405160405180910390a2505050610759565b6040517f08c379a00000000000000000000000000000000000000000000000000000000081526004018080602001828103825260148152602001807f57726f6e67206f7065726174696f6e207479706500000000000000000000000081525060200191505060405180910390fd5b5b5b505050505050565b6060600260008381526020019081526020016000208054600181600116156101000203166002900480601f01602080910402602001604051908101604052809291908181526020018280546001816001161561010002031660029004801561080c5780601f106107e15761010080835404028352916020019161080c565b820191906000526020600020905b8154815290600101906020018083116107ef57829003601f168201915b50505050509050919050565b610820610ce2565b73ffffffffffffffffffffffffffffffffffffffff1661083e610ac3565b73ffffffffffffffffffffffffffffffffffffffff16146108c7576040517f08c379a00000000000000000000000000000000000000000000000000000000081526004018080602001828103825260208152602001807f4f776e61626c653a2063616c6c6572206973206e6f7420746865206f776e657281525060200191505060405180910390fd5b600073ffffffffffffffffffffffffffffffffffffffff16600160009054906101000a900473ffffffffffffffffffffffffffffffffffffffff1673ffffffffffffffffffffffffffffffffffffffff167f8be0079c531659141344cd1fd0a4f28419497f9722a3daafe3b4186f6b6457e060405160405180910390a36000600160006101000a81548173ffffffffffffffffffffffffffffffffffffffff021916908373ffffffffffffffffffffffffffffffffffffffff160217905550565b610990610ce2565b73ffffffffffffffffffffffffffffffffffffffff166109ae610ac3565b73ffffffffffffffffffffffffffffffffffffffff1614610a37576040517f08c379a00000000000000000000000000000000000000000000000000000000081526004018080602001828103825260208152602001807f4f776e61626c653a2063616c6c6572206973206e6f7420746865206f776e657281525060200191505060405180910390fd5b8181600260008681526020019081526020016000209190610a59929190611059565b50827fece574603820d07bc9b91f2a932baadf4628aabcb8afba49776529c14a6104b2838360405180806020018281038252848482818152602001925080828437600081840152601f19601f820116905080830192505050935050505060405180910390a2505050565b6000600160009054906101000a900473ffffffffffffffffffffffffffffffffffffffff16905090565b610af5610ce2565b73ffffffffffffffffffffffffffffffffffffffff16610b13610ac3565b73ffffffffffffffffffffffffffffffffffffffff1614610b9c576040517f08c379a00000000000000000000000000000000000000000000000000000000081526004018080602001828103825260208152602001807f4f776e61626c653a2063616c6c6572206973206e6f7420746865206f776e657281525060200191505060405180910390fd5b600073ffffffffffffffffffffffffffffffffffffffff168173ffffffffffffffffffffffffffffffffffffffff161415610c22576040517f08c379a00000000000000000000000000000000000000000000000000000000081526004018080602001828103825260268152602001806110f76026913960400191505060405180910390fd5b8073ffffffffffffffffffffffffffffffffffffffff16600160009054906101000a900473ffffffffffffffffffffffffffffffffffffffff1673ffffffffffffffffffffffffffffffffffffffff167f8be0079c531659141344cd1fd0a4f28419497f9722a3daafe3b4186f6b6457e060405160405180910390a380600160006101000a81548173ffffffffffffffffffffffffffffffffffffffff021916908373ffffffffffffffffffffffffffffffffffffffff16021790555050565b600033905090565b6000806000845160208601878987f19050949350505050565b600081516020830184f09050600073ffffffffffffffffffffffffffffffffffffffff168173ffffffffffffffffffffffffffffffffffffffff161415610db2576040517f08c379a00000000000000000000000000000000000000000000000000000000081526004018080602001828103825260198152602001807f436f756c64206e6f74206465706c6f7920636f6e74726163740000000000000081525060200191505060405180910390fd5b8073ffffffffffffffffffffffffffffffffffffffff167fcf78cf0d6f3d8371e1075c69c492ab4ec5d8cf23a1a239b6a51a1d00be7ca31260405160405180910390a292915050565b60006020820183511015610e0e57600080fd5b60008260208501015190508091505092915050565b606081830184511015610e3557600080fd5b6060821560008114610e5257604051915060208201604052610ea3565b6040519150601f8416801560200281840101858101878315602002848b0101015b81831015610e905780518352602083019250602081019050610e73565b50868552601f19601f8301166040525050505b50809150509392505050565b60008084471015610f28576040517f08c379a000000000000000000000000000000000000000000000000000000000815260040180806020018281038252601d8152602001807f437265617465323a20696e73756666696369656e742062616c616e636500000081525060200191505060405180910390fd5b600083511415610fa0576040517f08c379a00000000000000000000000000000000000000000000000000000000081526004018080602001828103825260208152602001807f437265617465323a2062797465636f6465206c656e677468206973207a65726f81525060200191505060405180910390fd5b8383516020850187f59050600073ffffffffffffffffffffffffffffffffffffffff168173ffffffffffffffffffffffffffffffffffffffff16141561104e576040517f08c379a00000000000000000000000000000000000000000000000000000000081526004018080602001828103825260198152602001807f437265617465323a204661696c6564206f6e206465706c6f790000000000000081525060200191505060405180910390fd5b809150509392505050565b828054600181600116156101000203166002900490600052602060002090601f016020900481019282601f1061109a57803560ff19168380011785556110c8565b828001600101855582156110c8579182015b828111156110c75782358255916020019190600101906110ac565b5b5090506110d591906110d9565b5090565b5b808211156110f25760008160009055506001016110da565b509056fe4f776e61626c653a206e6577206f776e657220697320746865207a65726f2061646472657373a2646970667358221220421f1bbaf86e0736a76f1122958dc9e28a3d4b81800180acbc25b55ccba88c3a64736f6c634300060c00334f776e61626c653a206e6577206f776e657220697320746865207a65726f2061646472657373",
  "immutableReferences": {},
  "source": "// SPDX-License-Identifier: CC0-1.0\npragma solidity ^0.6.0;\n\n// modules\nimport \"./ERC725X.sol\";\nimport \"./ERC725Y.sol\";\n\n/**\n * @title ERC725 bundle\n * @dev Bundles ERC725X and ERC725Y together into one smart contract\n *\n *  @author Fabian Vogelsteller <fabian@lukso.network>\n */\ncontract ERC725 is ERC725X, ERC725Y  {\n\n    /**\n     * @notice Sets the owner of the contract\n     * @param _newOwner the owner of the contract.\n     */\n    constructor(address _newOwner)\n    ERC725X(_newOwner)\n    ERC725Y(_newOwner)\n    public {}\n\n    // NOTE this implementation has not by default: receive() external payable {}\n}\n",
  "sourcePath": "/Users/frozeman/Sites/LUKSO/universalprofile-smart-contracts/submodules/ERC725/implementations/contracts/ERC725/ERC725.sol",
  "compiler": {
    "name": "solc",
    "version": "0.6.12+commit.27d51765.Emscripten.clang"
  },
  "schemaVersion": "3.3.4",
  "updatedAt": "2021-03-22T15:21:59.025Z",
  "devdoc": {
    "author": "Fabian Vogelsteller <fabian@lukso.network>",
    "details": "Bundles ERC725X and ERC725Y together into one smart contract",
    "kind": "dev",
    "methods": {
      "constructor": {
        "params": {
          "_newOwner": "the owner of the contract."
        }
      },
      "execute(uint256,address,uint256,bytes)": {
        "params": {
          "_data": "the call data, or the contract data to deploy",
          "_operation": "the operation to execute: CALL = 0; DELEGATECALL = 1; CREATE2 = 2; CREATE = 3;",
          "_to": "the smart contract or address to interact with. `_to` will be unused if a contract is created (operation 2 and 3)",
          "_value": "the value of ETH to transfer"
        }
      },
      "getData(bytes32)": {
        "params": {
          "_key": "the key which value to retrieve"
        },
        "returns": {
          "_value": "The date stored at the key"
        }
      },
      "owner()": {
        "details": "Returns the address of the current owner."
      },
      "renounceOwnership()": {
        "details": "Leaves the contract without owner. It will not be possible to call `onlyOwner` functions anymore. Can only be called by the current owner. NOTE: Renouncing ownership will leave the contract without an owner, thereby removing any functionality that is only available to the owner."
      },
      "setData(bytes32,bytes)": {
        "params": {
          "_key": "the key which value to retrieve",
          "_value": "the bytes to set."
        }
      },
      "supportsInterface(bytes4)": {
        "details": "See {IERC165-supportsInterface}. Time complexity O(1), guaranteed to always use less than 30 000 gas."
      },
      "transferOwnership(address)": {
        "details": "Transfers ownership of the contract to a new account (`newOwner`). Can only be called by the current owner."
      }
    },
    "title": "ERC725 bundle",
    "version": 1
  },
  "userdoc": {
    "kind": "user",
    "methods": {
      "constructor": "Sets the owner of the contract",
      "execute(uint256,address,uint256,bytes)": {
        "notice": "Executes any other smart contract. Is only callable by the owner."
      },
      "getData(bytes32)": {
        "notice": "Gets data at a given `key`"
      },
      "setData(bytes32,bytes)": {
        "notice": "Sets data at a given `key`"
      }
    },
    "version": 1
  }
}