{
  "contractName": "LSP3Account",
  "abi": [
    {
      "inputs": [
        {
          "internalType": "address",
          "name": "_newOwner",
          "type": "address"
        }
      ],
      "stateMutability": "nonpayable",
      "type": "constructor"
    },
    {
      "anonymous": false,
      "inputs": [
        {
          "indexed": true,
          "internalType": "address",
          "name": "contractAddress",
          "type": "address"
        }
      ],
      "name": "ContractCreated",
      "type": "event"
    },
    {
      "anonymous": false,
      "inputs": [
        {
          "indexed": true,
          "internalType": "bytes32",
          "name": "key",
          "type": "bytes32"
        },
        {
          "indexed": false,
          "internalType": "bytes",
          "name": "value",
          "type": "bytes"
        }
      ],
      "name": "DataChanged",
      "type": "event"
    },
    {
      "anonymous": false,
      "inputs": [
        {
          "indexed": true,
          "internalType": "uint256",
          "name": "_operation",
          "type": "uint256"
        },
        {
          "indexed": true,
          "internalType": "address",
          "name": "_to",
          "type": "address"
        },
        {
          "indexed": true,
          "internalType": "uint256",
          "name": "_value",
          "type": "uint256"
        },
        {
          "indexed": false,
          "internalType": "bytes",
          "name": "_data",
          "type": "bytes"
        }
      ],
      "name": "Executed",
      "type": "event"
    },
    {
      "anonymous": false,
      "inputs": [
        {
          "indexed": true,
          "internalType": "address",
          "name": "previousOwner",
          "type": "address"
        },
        {
          "indexed": true,
          "internalType": "address",
          "name": "newOwner",
          "type": "address"
        }
      ],
      "name": "OwnershipTransferred",
      "type": "event"
    },
    {
      "anonymous": false,
      "inputs": [
        {
          "indexed": true,
          "internalType": "address",
          "name": "from",
          "type": "address"
        },
        {
          "indexed": true,
          "internalType": "bytes32",
          "name": "typeId",
          "type": "bytes32"
        },
        {
          "indexed": true,
          "internalType": "bytes32",
          "name": "returnedValue",
          "type": "bytes32"
        },
        {
          "indexed": false,
          "internalType": "bytes",
          "name": "receivedData",
          "type": "bytes"
        }
      ],
      "name": "UniversalReceiver",
      "type": "event"
    },
    {
      "anonymous": false,
      "inputs": [
        {
          "indexed": true,
          "internalType": "address",
          "name": "sender",
          "type": "address"
        },
        {
          "indexed": true,
          "internalType": "uint256",
          "name": "value",
          "type": "uint256"
        }
      ],
      "name": "ValueReceived",
      "type": "event"
    },
    {
      "inputs": [
        {
          "internalType": "uint256",
          "name": "",
          "type": "uint256"
        }
      ],
      "name": "dataKeys",
      "outputs": [
        {
          "internalType": "bytes32",
          "name": "",
          "type": "bytes32"
        }
      ],
      "stateMutability": "view",
      "type": "function"
    },
    {
      "inputs": [
        {
          "internalType": "uint256",
          "name": "_operation",
          "type": "uint256"
        },
        {
          "internalType": "address",
          "name": "_to",
          "type": "address"
        },
        {
          "internalType": "uint256",
          "name": "_value",
          "type": "uint256"
        },
        {
          "internalType": "bytes",
          "name": "_data",
          "type": "bytes"
        }
      ],
      "name": "execute",
      "outputs": [],
      "stateMutability": "payable",
      "type": "function"
    },
    {
      "inputs": [
        {
          "internalType": "bytes32",
          "name": "_key",
          "type": "bytes32"
        }
      ],
      "name": "getData",
      "outputs": [
        {
          "internalType": "bytes",
          "name": "_value",
          "type": "bytes"
        }
      ],
      "stateMutability": "view",
      "type": "function"
    },
    {
      "inputs": [
        {
          "internalType": "bytes32",
          "name": "_hash",
          "type": "bytes32"
        },
        {
          "internalType": "bytes",
          "name": "_signature",
          "type": "bytes"
        }
      ],
      "name": "isValidSignature",
      "outputs": [
        {
          "internalType": "bytes4",
          "name": "magicValue",
          "type": "bytes4"
        }
      ],
      "stateMutability": "view",
      "type": "function"
    },
    {
      "inputs": [],
      "name": "owner",
      "outputs": [
        {
          "internalType": "address",
          "name": "",
          "type": "address"
        }
      ],
      "stateMutability": "view",
      "type": "function"
    },
    {
      "inputs": [],
      "name": "renounceOwnership",
      "outputs": [],
      "stateMutability": "nonpayable",
      "type": "function"
    },
    {
      "inputs": [
        {
          "internalType": "bytes4",
          "name": "interfaceId",
          "type": "bytes4"
        }
      ],
      "name": "supportsInterface",
      "outputs": [
        {
          "internalType": "bool",
          "name": "",
          "type": "bool"
        }
      ],
      "stateMutability": "view",
      "type": "function"
    },
    {
      "inputs": [
        {
          "internalType": "address",
          "name": "newOwner",
          "type": "address"
        }
      ],
      "name": "transferOwnership",
      "outputs": [],
      "stateMutability": "nonpayable",
      "type": "function"
    },
    {
      "stateMutability": "payable",
      "type": "receive"
    },
    {
      "inputs": [],
      "name": "dataCount",
      "outputs": [
        {
          "internalType": "uint256",
          "name": "",
          "type": "uint256"
        }
      ],
      "stateMutability": "view",
      "type": "function"
    },
    {
      "inputs": [],
      "name": "allDataKeys",
      "outputs": [
        {
          "internalType": "bytes32[]",
          "name": "",
          "type": "bytes32[]"
        }
      ],
      "stateMutability": "view",
      "type": "function"
    },
    {
      "inputs": [
        {
          "internalType": "bytes32[]",
          "name": "_keys",
          "type": "bytes32[]"
        },
        {
          "internalType": "bytes[]",
          "name": "_values",
          "type": "bytes[]"
        }
      ],
      "name": "setDataMultiple",
      "outputs": [],
      "stateMutability": "nonpayable",
      "type": "function"
    },
    {
      "inputs": [
        {
          "internalType": "bytes32[]",
          "name": "_keys",
          "type": "bytes32[]"
        }
      ],
      "name": "getDataMultiple",
      "outputs": [
        {
          "internalType": "bytes[]",
          "name": "",
          "type": "bytes[]"
        }
      ],
      "stateMutability": "view",
      "type": "function"
    },
    {
      "inputs": [
        {
          "internalType": "bytes32",
          "name": "_key",
          "type": "bytes32"
        },
        {
          "internalType": "bytes",
          "name": "_value",
          "type": "bytes"
        }
      ],
      "name": "setData",
      "outputs": [],
      "stateMutability": "nonpayable",
      "type": "function"
    },
    {
      "inputs": [
        {
          "internalType": "bytes32",
          "name": "_typeId",
          "type": "bytes32"
        },
        {
          "internalType": "bytes",
          "name": "_data",
          "type": "bytes"
        }
      ],
      "name": "universalReceiver",
      "outputs": [
        {
          "internalType": "bytes32",
          "name": "returnValue",
          "type": "bytes32"
        }
      ],
      "stateMutability": "nonpayable",
      "type": "function"
    }
  ],
  "bytecode": "0x6080604052636bb56a1460e01b600360006101000a81548163ffffffff021916908360e01c021790555063c2d7bcc160e01b600360046101000a81548163ffffffff021916908360e01c02179055503480156200005b57600080fd5b506040516200317738038062003177833981810160405281019062000081919062000707565b808080816200009d6301ffc9a760e01b6200037e60201b60201c565b6000620000af6200045660201b60201c565b905080600160006101000a81548173ffffffffffffffffffffffffffffffffffffffff021916908373ffffffffffffffffffffffffffffffffffffffff1602179055508073ffffffffffffffffffffffffffffffffffffffff16600073ffffffffffffffffffffffffffffffffffffffff167f8be0079c531659141344cd1fd0a4f28419497f9722a3daafe3b4186f6b6457e060405160405180910390a3506200015e6200045e60201b60201c565b73ffffffffffffffffffffffffffffffffffffffff168173ffffffffffffffffffffffffffffffffffffffff1614620001a357620001a2816200048860201b60201c565b5b620001bb6344c028fe60e01b6200037e60201b60201c565b50620001cc6200045e60201b60201c565b73ffffffffffffffffffffffffffffffffffffffff168173ffffffffffffffffffffffffffffffffffffffff1614620002115762000210816200048860201b60201c565b5b62000229632bd57b7360e01b6200037e60201b60201c565b505060007feafec4d89fa9619884b6b89135626455000000000000000000000000afdeb5d660001b905063afdeb5d660e01b6040516020016200026d9190620008d5565b604051602081830303815290604052600260008381526020019081526020016000209080519060200190620002a49291906200064a565b50807fece574603820d07bc9b91f2a932baadf4628aabcb8afba49776529c14a6104b260026000848152602001908152602001600020604051620002e99190620008f2565b60405180910390a262000309631626ba7e60e01b6200037e60201b60201c565b505060047feafec4d89fa9619884b6b89135626455000000000000000000000000afdeb5d6908060018154018082558091505060019003906000526020600020016000909160001b90919091505562000377600360009054906101000a900460e01b6200037e60201b60201c565b5062000a37565b63ffffffff60e01b817bffffffffffffffffffffffffffffffffffffffffffffffffffffffff19161415620003ea576040517f08c379a0000000000000000000000000000000000000000000000000000000008152600401620003e19062000938565b60405180910390fd5b6001600080837bffffffffffffffffffffffffffffffffffffffffffffffffffffffff19167bffffffffffffffffffffffffffffffffffffffffffffffffffffffff1916815260200190815260200160002060006101000a81548160ff02191690831515021790555050565b600033905090565b6000600160009054906101000a900473ffffffffffffffffffffffffffffffffffffffff16905090565b620004986200045660201b60201c565b73ffffffffffffffffffffffffffffffffffffffff16620004be6200045e60201b60201c565b73ffffffffffffffffffffffffffffffffffffffff161462000517576040517f08c379a00000000000000000000000000000000000000000000000000000000081526004016200050e906200095a565b60405180910390fd5b600073ffffffffffffffffffffffffffffffffffffffff168173ffffffffffffffffffffffffffffffffffffffff1614156200058a576040517f08c379a0000000000000000000000000000000000000000000000000000000008152600401620005819062000916565b60405180910390fd5b8073ffffffffffffffffffffffffffffffffffffffff16600160009054906101000a900473ffffffffffffffffffffffffffffffffffffffff1673ffffffffffffffffffffffffffffffffffffffff167f8be0079c531659141344cd1fd0a4f28419497f9722a3daafe3b4186f6b6457e060405160405180910390a380600160006101000a81548173ffffffffffffffffffffffffffffffffffffffff021916908373ffffffffffffffffffffffffffffffffffffffff16021790555050565b828054600181600116156101000203166002900490600052602060002090601f016020900481019282601f106200068d57805160ff1916838001178555620006be565b82800160010185558215620006be579182015b82811115620006bd578251825591602001919060010190620006a0565b5b509050620006cd9190620006d1565b5090565b5b80821115620006ec576000816000905550600101620006d2565b5090565b600081519050620007018162000a1d565b92915050565b6000602082840312156200071a57600080fd5b60006200072a84828501620006f0565b91505092915050565b620007486200074282620009c7565b62000a13565b82525050565b6000815460018116600081146200076e57600181146200079757620007e1565b607f600283041662000781818762000991565b955060ff198316865260208601935050620007e1565b60028204620007a7818762000991565b9550620007b4856200097c565b60005b82811015620007d857815481890152600182019150602081019050620007b7565b80880195505050505b505092915050565b6000620007f8602683620009a2565b91507f4f776e61626c653a206e6577206f776e657220697320746865207a65726f206160008301527f64647265737300000000000000000000000000000000000000000000000000006020830152604082019050919050565b600062000860601c83620009a2565b91507f4552433136353a20696e76616c696420696e74657266616365206964000000006000830152602082019050919050565b6000620008a2602083620009a2565b91507f4f776e61626c653a2063616c6c6572206973206e6f7420746865206f776e65726000830152602082019050919050565b6000620008e3828462000733565b60048201915081905092915050565b600060208201905081810360008301526200090e81846200074e565b905092915050565b600060208201905081810360008301526200093181620007e9565b9050919050565b60006020820190508181036000830152620009538162000851565b9050919050565b60006020820190508181036000830152620009758162000893565b9050919050565b60008190508160005260206000209050919050565b600082825260208201905092915050565b600082825260208201905092915050565b6000620009c082620009f3565b9050919050565b60007fffffffff0000000000000000000000000000000000000000000000000000000082169050919050565b600073ffffffffffffffffffffffffffffffffffffffff82169050919050565b6000819050919050565b62000a2881620009b3565b811462000a3457600080fd5b50565b6127308062000a476000396000f3fe6080604052600436106100e15760003560e01c80636bb56a141161007f5780638da5cb5b116100595780638da5cb5b14610319578063c559acef14610344578063ec89dc1c1461036f578063f2fde38b146103ac57610133565b80636bb56a141461029c578063715018a6146102d95780637f23690c146102f057610133565b8063456cc348116100bb578063456cc348146101ce57806354f6127f1461020b578063595fa1e5146102485780635da40c471461027157610133565b806301ffc9a7146101385780631626ba7e1461017557806344c028fe146101b257610133565b3661013357346100ef6103d5565b73ffffffffffffffffffffffffffffffffffffffff167f7e71433ddf847725166244795048ecf3e3f9f35628254ecbf73605666423349360405160405180910390a3005b600080fd5b34801561014457600080fd5b5061015f600480360381019061015a9190611aaa565b6103dd565b60405161016c919061218c565b60405180910390f35b34801561018157600080fd5b5061019c60048036038101906101979190611a56565b610444565b6040516101a99190612237565b60405180910390f35b6101cc60048036038101906101c79190611b25565b61056e565b005b3480156101da57600080fd5b506101f560048036038101906101f091906118c9565b61085b565b604051610202919061216a565b60405180910390f35b34801561021757600080fd5b50610232600480360381019061022d91906119ac565b61090b565b60405161023f9190612276565b60405180910390f35b34801561025457600080fd5b5061026f600480360381019061026a919061190e565b6109c0565b005b34801561027d57600080fd5b50610286610a97565b60405161029391906123f8565b60405180910390f35b3480156102a857600080fd5b506102c360048036038101906102be91906119fe565b610aa4565b6040516102d091906121a7565b60405180910390f35b3480156102e557600080fd5b506102ee610c8e565b005b3480156102fc57600080fd5b50610317600480360381019061031291906119fe565b610dcb565b005b34801561032557600080fd5b5061032e610f03565b60405161033b91906120ed565b60405180910390f35b34801561035057600080fd5b50610359610f2d565b6040516103669190612148565b60405180910390f35b34801561037b57600080fd5b5061039660048036038101906103919190611afc565b610f85565b6040516103a391906121a7565b60405180910390f35b3480156103b857600080fd5b506103d360048036038101906103ce91906118a0565b610fa6565b005b600033905090565b6000806000837bffffffffffffffffffffffffffffffffffffffffffffffffffffffff19167bffffffffffffffffffffffffffffffffffffffffffffffffffffffff1916815260200190815260200160002060009054906101000a900460ff169050919050565b6000610456610451610f03565b611152565b801561046e575061046d631626ba7e60e01b6103dd565b5b1561050c5761047b610f03565b73ffffffffffffffffffffffffffffffffffffffff16631626ba7e84846040518363ffffffff1660e01b81526004016104b59291906121c2565b60206040518083038186803b1580156104cd57600080fd5b505afa1580156104e1573d6000803e3d6000fd5b505050506040513d601f19601f820116820180604052508101906105059190611ad3565b9050610568565b610516838361115f565b73ffffffffffffffffffffffffffffffffffffffff16610534610f03565b73ffffffffffffffffffffffffffffffffffffffff161461055c5763ffffffff60e01b610565565b631626ba7e60e01b5b90505b92915050565b6105766103d5565b73ffffffffffffffffffffffffffffffffffffffff16610594610f03565b73ffffffffffffffffffffffffffffffffffffffff16146105ea576040517f08c379a00000000000000000000000000000000000000000000000000000000081526004016105e190612398565b60405180910390fd5b828473ffffffffffffffffffffffffffffffffffffffff16867f1f920dbda597d7bf95035464170fa58d0a4b57f13a1c315ace6793b9f63688b88585604051610634929190612252565b60405180910390a460006109c45a03905060008614156106a45761069e858585858080601f016020809104026020016040519081016040528093929190818152602001838380828437600081840152601f19601f82011690508083019250505050505050846111d9565b50610853565b6003861415610701576106fb8484848080601f016020809104026020016040519081016040528093929190818152602001838380828437600081840152601f19601f820116905080830192505050505050506111f2565b50610852565b600286141561081657600061076084848080601f016020809104026020016040519081016040528093929190818152602001838380828437600081840152601f19601f82011690508083019250505050505050602086869050036112b7565b905060606107ba85858080601f016020809104026020016040519081016040528093929190818152602001838380828437600081840152601f19601f820116905080830192505050505050506000602088889050036112df565b905060006107c987848461136b565b90508073ffffffffffffffffffffffffffffffffffffffff167fcf78cf0d6f3d8371e1075c69c492ab4ec5d8cf23a1a239b6a51a1d00be7ca31260405160405180910390a2505050610851565b6040517f08c379a0000000000000000000000000000000000000000000000000000000008152600401610848906123b8565b60405180910390fd5b5b5b505050505050565b6060600083839050905060608167ffffffffffffffff8111801561087e57600080fd5b506040519080825280602002602001820160405280156108b257816020015b606081526020019060019003908161089d5790505b50905060005b828110156108ff576108db8686838181106108cf57fe5b9050602002013561090b565b8282815181106108e757fe5b602002602001018190525080806001019150506108b8565b50809250505092915050565b6060600260008381526020019081526020016000208054600181600116156101000203166002900480601f0160208091040260200160405190810160405280929190818152602001828054600181600116156101000203166002900480156109b45780601f10610989576101008083540402835291602001916109b4565b820191906000526020600020905b81548152906001019060200180831161099757829003601f168201915b50505050509050919050565b6109c86103d5565b73ffffffffffffffffffffffffffffffffffffffff166109e6610f03565b73ffffffffffffffffffffffffffffffffffffffff1614610a3c576040517f08c379a0000000000000000000000000000000000000000000000000000000008152600401610a3390612398565b60405180910390fd5b60005b84849050811015610a9057610a83858583818110610a5957fe5b90506020020135848484818110610a6c57fe5b9050602002810190610a7e9190612413565b610dcb565b8080600101915050610a3f565b5050505050565b6000600480549050905090565b60006060610ad47f0cfc51aec37c55a4d0b1a65c6255c4bf2fbdf6277f3cc0730c45b828b6db8b4760001b61090b565b905060009150601481511415610c2d576000610af182600061147c565b90508073ffffffffffffffffffffffffffffffffffffffff166301ffc9a7600360049054906101000a900460e01b6040518263ffffffff1660e01b8152600401610b3b9190612237565b60206040518083038186803b158015610b5357600080fd5b505afa158015610b67573d6000803e3d6000fd5b505050506040513d601f19601f82011682018060405250810190610b8b9190611983565b15610c2b578073ffffffffffffffffffffffffffffffffffffffff1663c2d7bcc1610bb46103d5565b8888886040518563ffffffff1660e01b8152600401610bd69493929190612108565b602060405180830381600087803b158015610bf057600080fd5b505af1158015610c04573d6000803e3d6000fd5b505050506040513d601f19601f82011682018060405250810190610c2891906119d5565b92505b505b8185610c376103d5565b73ffffffffffffffffffffffffffffffffffffffff167f54b98940949b5ac0325c889c84db302d4e18faec431b48bdc81706bfe482cfbd8787604051610c7e929190612252565b60405180910390a4509392505050565b610c966103d5565b73ffffffffffffffffffffffffffffffffffffffff16610cb4610f03565b73ffffffffffffffffffffffffffffffffffffffff1614610d0a576040517f08c379a0000000000000000000000000000000000000000000000000000000008152600401610d0190612398565b60405180910390fd5b600073ffffffffffffffffffffffffffffffffffffffff16600160009054906101000a900473ffffffffffffffffffffffffffffffffffffffff1673ffffffffffffffffffffffffffffffffffffffff167f8be0079c531659141344cd1fd0a4f28419497f9722a3daafe3b4186f6b6457e060405160405180910390a36000600160006101000a81548173ffffffffffffffffffffffffffffffffffffffff021916908373ffffffffffffffffffffffffffffffffffffffff160217905550565b610dd36103d5565b73ffffffffffffffffffffffffffffffffffffffff16610df1610f03565b73ffffffffffffffffffffffffffffffffffffffff1614610e47576040517f08c379a0000000000000000000000000000000000000000000000000000000008152600401610e3e90612398565b60405180910390fd5b6000600260008581526020019081526020016000208054600181600116156101000203166002900490501415610ea15760048390806001815401808255809150506001900390600052602060002001600090919091909150555b8181600260008681526020019081526020016000209190610ec392919061163e565b50827fece574603820d07bc9b91f2a932baadf4628aabcb8afba49776529c14a6104b28383604051610ef6929190612252565b60405180910390a2505050565b6000600160009054906101000a900473ffffffffffffffffffffffffffffffffffffffff16905090565b60606004805480602002602001604051908101604052809291908181526020018280548015610f7b57602002820191906000526020600020905b815481526020019060010190808311610f67575b5050505050905090565b60048181548110610f9257fe5b906000526020600020016000915090505481565b610fae6103d5565b73ffffffffffffffffffffffffffffffffffffffff16610fcc610f03565b73ffffffffffffffffffffffffffffffffffffffff1614611022576040517f08c379a000000000000000000000000000000000000000000000000000000000815260040161101990612398565b60405180910390fd5b600073ffffffffffffffffffffffffffffffffffffffff168173ffffffffffffffffffffffffffffffffffffffff161415611092576040517f08c379a0000000000000000000000000000000000000000000000000000000008152600401611089906122f8565b60405180910390fd5b8073ffffffffffffffffffffffffffffffffffffffff16600160009054906101000a900473ffffffffffffffffffffffffffffffffffffffff1673ffffffffffffffffffffffffffffffffffffffff167f8be0079c531659141344cd1fd0a4f28419497f9722a3daafe3b4186f6b6457e060405160405180910390a380600160006101000a81548173ffffffffffffffffffffffffffffffffffffffff021916908373ffffffffffffffffffffffffffffffffffffffff16021790555050565b600080823b119050919050565b600060418251146111a5576040517f08c379a000000000000000000000000000000000000000000000000000000000815260040161119c906122d8565b60405180910390fd5b60008060006020850151925060408501519150606085015160001a90506111ce868285856114b3565b935050505092915050565b6000806000845160208601878987f19050949350505050565b600081516020830184f09050600073ffffffffffffffffffffffffffffffffffffffff168173ffffffffffffffffffffffffffffffffffffffff16141561126e576040517f08c379a000000000000000000000000000000000000000000000000000000000815260040161126590612378565b60405180910390fd5b8073ffffffffffffffffffffffffffffffffffffffff167fcf78cf0d6f3d8371e1075c69c492ab4ec5d8cf23a1a239b6a51a1d00be7ca31260405160405180910390a292915050565b600060208201835110156112ca57600080fd5b60008260208501015190508091505092915050565b6060818301845110156112f157600080fd5b606082156000811461130e5760405191506020820160405261135f565b6040519150601f8416801560200281840101858101878315602002848b0101015b8183101561134c578051835260208301925060208101905061132f565b50868552601f19601f8301166040525050505b50809150509392505050565b600080844710156113b1576040517f08c379a00000000000000000000000000000000000000000000000000000000081526004016113a8906123d8565b60405180910390fd5b6000835114156113f6576040517f08c379a00000000000000000000000000000000000000000000000000000000081526004016113ed906122b8565b60405180910390fd5b8383516020850187f59050600073ffffffffffffffffffffffffffffffffffffffff168173ffffffffffffffffffffffffffffffffffffffff161415611471576040517f08c379a000000000000000000000000000000000000000000000000000000000815260040161146890612358565b60405180910390fd5b809150509392505050565b6000601482018351101561148f57600080fd5b60006c01000000000000000000000000836020860101510490508091505092915050565b60007f7fffffffffffffffffffffffffffffff5d576e7357a4501ddfe92f46681b20a08260001c111561151b576040517f08c379a000000000000000000000000000000000000000000000000000000000815260040161151290612318565b60405180910390fd5b601b8460ff1614806115305750601c8460ff16145b61156f576040517f08c379a000000000000000000000000000000000000000000000000000000000815260040161156690612338565b60405180910390fd5b60006001868686866040516000815260200160405260405161159494939291906121f2565b6020604051602081039080840390855afa1580156115b6573d6000803e3d6000fd5b505050602060405103519050600073ffffffffffffffffffffffffffffffffffffffff168173ffffffffffffffffffffffffffffffffffffffff161415611632576040517f08c379a000000000000000000000000000000000000000000000000000000000815260040161162990612298565b60405180910390fd5b80915050949350505050565b828054600181600116156101000203166002900490600052602060002090601f016020900481019282601f1061167f57803560ff19168380011785556116ad565b828001600101855582156116ad579182015b828111156116ac578235825591602001919060010190611691565b5b5090506116ba91906116be565b5090565b5b808211156116d75760008160009055506001016116bf565b5090565b6000813590506116ea81612687565b92915050565b60008083601f84011261170257600080fd5b8235905067ffffffffffffffff81111561171b57600080fd5b60208301915083602082028301111561173357600080fd5b9250929050565b60008083601f84011261174c57600080fd5b8235905067ffffffffffffffff81111561176557600080fd5b60208301915083602082028301111561177d57600080fd5b9250929050565b6000815190506117938161269e565b92915050565b6000813590506117a8816126b5565b92915050565b6000815190506117bd816126b5565b92915050565b6000813590506117d2816126cc565b92915050565b6000815190506117e7816126cc565b92915050565b60008083601f8401126117ff57600080fd5b8235905067ffffffffffffffff81111561181857600080fd5b60208301915083600182028301111561183057600080fd5b9250929050565b600082601f83011261184857600080fd5b813561185b61185682612497565b61246a565b9150808252602083016020830185838301111561187757600080fd5b611882838284612634565b50505092915050565b60008135905061189a816126e3565b92915050565b6000602082840312156118b257600080fd5b60006118c0848285016116db565b91505092915050565b600080602083850312156118dc57600080fd5b600083013567ffffffffffffffff8111156118f657600080fd5b611902858286016116f0565b92509250509250929050565b6000806000806040858703121561192457600080fd5b600085013567ffffffffffffffff81111561193e57600080fd5b61194a878288016116f0565b9450945050602085013567ffffffffffffffff81111561196957600080fd5b6119758782880161173a565b925092505092959194509250565b60006020828403121561199557600080fd5b60006119a384828501611784565b91505092915050565b6000602082840312156119be57600080fd5b60006119cc84828501611799565b91505092915050565b6000602082840312156119e757600080fd5b60006119f5848285016117ae565b91505092915050565b600080600060408486031215611a1357600080fd5b6000611a2186828701611799565b935050602084013567ffffffffffffffff811115611a3e57600080fd5b611a4a868287016117ed565b92509250509250925092565b60008060408385031215611a6957600080fd5b6000611a7785828601611799565b925050602083013567ffffffffffffffff811115611a9457600080fd5b611aa085828601611837565b9150509250929050565b600060208284031215611abc57600080fd5b6000611aca848285016117c3565b91505092915050565b600060208284031215611ae557600080fd5b6000611af3848285016117d8565b91505092915050565b600060208284031215611b0e57600080fd5b6000611b1c8482850161188b565b91505092915050565b600080600080600060808688031215611b3d57600080fd5b6000611b4b8882890161188b565b9550506020611b5c888289016116db565b9450506040611b6d8882890161188b565b935050606086013567ffffffffffffffff811115611b8a57600080fd5b611b96888289016117ed565b92509250509295509295909350565b6000611bb18383611cd1565b60208301905092915050565b6000611bc98383611d2b565b905092915050565b611bda816125fe565b82525050565b611be981612573565b82525050565b6000611bfa826124e3565b611c04818561251e565b9350611c0f836124c3565b8060005b83811015611c40578151611c278882611ba5565b9750611c3283612504565b925050600181019050611c13565b5085935050505092915050565b6000611c58826124ee565b611c62818561252f565b935083602082028501611c74856124d3565b8060005b85811015611cb05784840389528151611c918582611bbd565b9450611c9c83612511565b925060208a01995050600181019050611c78565b50829750879550505050505092915050565b611ccb81612585565b82525050565b611cda81612591565b82525050565b611ce981612591565b82525050565b611cf88161259b565b82525050565b6000611d0a8385612551565b9350611d17838584612634565b611d2083612676565b840190509392505050565b6000611d36826124f9565b611d408185612540565b9350611d50818560208601612643565b611d5981612676565b840191505092915050565b6000611d6f826124f9565b611d798185612551565b9350611d89818560208601612643565b611d9281612676565b840191505092915050565b6000611daa601883612562565b91507f45434453413a20696e76616c6964207369676e617475726500000000000000006000830152602082019050919050565b6000611dea602083612562565b91507f437265617465323a2062797465636f6465206c656e677468206973207a65726f6000830152602082019050919050565b6000611e2a601f83612562565b91507f45434453413a20696e76616c6964207369676e6174757265206c656e677468006000830152602082019050919050565b6000611e6a602683612562565b91507f4f776e61626c653a206e6577206f776e657220697320746865207a65726f206160008301527f64647265737300000000000000000000000000000000000000000000000000006020830152604082019050919050565b6000611ed0602283612562565b91507f45434453413a20696e76616c6964207369676e6174757265202773272076616c60008301527f75650000000000000000000000000000000000000000000000000000000000006020830152604082019050919050565b6000611f36602283612562565b91507f45434453413a20696e76616c6964207369676e6174757265202776272076616c60008301527f75650000000000000000000000000000000000000000000000000000000000006020830152604082019050919050565b6000611f9c601983612562565b91507f437265617465323a204661696c6564206f6e206465706c6f79000000000000006000830152602082019050919050565b6000611fdc601983612562565b91507f436f756c64206e6f74206465706c6f7920636f6e7472616374000000000000006000830152602082019050919050565b600061201c602083612562565b91507f4f776e61626c653a2063616c6c6572206973206e6f7420746865206f776e65726000830152602082019050919050565b600061205c601483612562565b91507f57726f6e67206f7065726174696f6e20747970650000000000000000000000006000830152602082019050919050565b600061209c601d83612562565b91507f437265617465323a20696e73756666696369656e742062616c616e63650000006000830152602082019050919050565b6120d8816125e7565b82525050565b6120e7816125f1565b82525050565b60006020820190506121026000830184611be0565b92915050565b600060608201905061211d6000830187611bd1565b61212a6020830186611ce0565b818103604083015261213d818486611cfe565b905095945050505050565b600060208201905081810360008301526121628184611bef565b905092915050565b600060208201905081810360008301526121848184611c4d565b905092915050565b60006020820190506121a16000830184611cc2565b92915050565b60006020820190506121bc6000830184611ce0565b92915050565b60006040820190506121d76000830185611ce0565b81810360208301526121e98184611d64565b90509392505050565b60006080820190506122076000830187611ce0565b61221460208301866120de565b6122216040830185611ce0565b61222e6060830184611ce0565b95945050505050565b600060208201905061224c6000830184611cef565b92915050565b6000602082019050818103600083015261226d818486611cfe565b90509392505050565b600060208201905081810360008301526122908184611d64565b905092915050565b600060208201905081810360008301526122b181611d9d565b9050919050565b600060208201905081810360008301526122d181611ddd565b9050919050565b600060208201905081810360008301526122f181611e1d565b9050919050565b6000602082019050818103600083015261231181611e5d565b9050919050565b6000602082019050818103600083015261233181611ec3565b9050919050565b6000602082019050818103600083015261235181611f29565b9050919050565b6000602082019050818103600083015261237181611f8f565b9050919050565b6000602082019050818103600083015261239181611fcf565b9050919050565b600060208201905081810360008301526123b18161200f565b9050919050565b600060208201905081810360008301526123d18161204f565b9050919050565b600060208201905081810360008301526123f18161208f565b9050919050565b600060208201905061240d60008301846120cf565b92915050565b6000808335600160200384360303811261242c57600080fd5b80840192508235915067ffffffffffffffff82111561244a57600080fd5b60208301925060018202360383131561246257600080fd5b509250929050565b6000604051905081810181811067ffffffffffffffff8211171561248d57600080fd5b8060405250919050565b600067ffffffffffffffff8211156124ae57600080fd5b601f19601f8301169050602081019050919050565b6000819050602082019050919050565b6000819050602082019050919050565b600081519050919050565b600081519050919050565b600081519050919050565b6000602082019050919050565b6000602082019050919050565b600082825260208201905092915050565b600082825260208201905092915050565b600082825260208201905092915050565b600082825260208201905092915050565b600082825260208201905092915050565b600061257e826125c7565b9050919050565b60008115159050919050565b6000819050919050565b60007fffffffff0000000000000000000000000000000000000000000000000000000082169050919050565b600073ffffffffffffffffffffffffffffffffffffffff82169050919050565b6000819050919050565b600060ff82169050919050565b600061260982612610565b9050919050565b600061261b82612622565b9050919050565b600061262d826125c7565b9050919050565b82818337600083830152505050565b60005b83811015612661578082015181840152602081019050612646565b83811115612670576000848401525b50505050565b6000601f19601f8301169050919050565b61269081612573565b811461269b57600080fd5b50565b6126a781612585565b81146126b257600080fd5b50565b6126be81612591565b81146126c957600080fd5b50565b6126d58161259b565b81146126e057600080fd5b50565b6126ec816125e7565b81146126f757600080fd5b5056fea26469706673582212205c91c672bb92e5c0e576dd957125b5999ee2f8bb92116ebfd9ceda6bf47a03c564736f6c634300060c0033",
  "immutableReferences": {},
  "source": "// SPDX-License-Identifier: Apache-2.0\n/*\n * @title ERC725Account implementation for LUKSO\n * @author Fabian Vogelsteller <fabian@lukso.network>\n *\n * @dev Implementation of the ERC725Account + LSP1 universalReceiver\n */\npragma solidity ^0.6.0;\npragma experimental ABIEncoderV2;\n\n// interfaces\nimport \"./_LSPs/ILSP1_UniversalReceiver.sol\";\nimport \"./_LSPs/ILSP1_UniversalReceiverDelegate.sol\";\n\n// modules\nimport \"./../submodules/ERC725/implementations/contracts/ERC725/ERC725Account.sol\";\nimport \"@openzeppelin/contracts/introspection/ERC165.sol\";\n\ncontract LSP3Account is ERC165, ERC725Account, ILSP1 {\n\n    bytes4 _INTERFACE_ID_LSP1 = 0x6bb56a14;\n    bytes4 _INTERFACE_ID_LSP1DELEGATE = 0xc2d7bcc1;\n\n    bytes32 constant private _UNIVERSAL_RECEIVER_DELEGATE_KEY =\n    0x0cfc51aec37c55a4d0b1a65c6255c4bf2fbdf6277f3cc0730c45b828b6db8b47; // keccak256(\"LSP1UniversalReceiverDelegate\")\n\n    bytes32[] public dataKeys;\n\n    constructor(address _newOwner) ERC725Account(_newOwner) public {\n\n        // Add the key of the SupportedStandards:ERC725Account set in the constructor of ERC725Account.sol\n        dataKeys.push(0xeafec4d89fa9619884b6b89135626455000000000000000000000000afdeb5d6);\n\n        _registerInterface(_INTERFACE_ID_LSP1);\n    }\n\n    /* non-standard public functions */\n\n    function dataCount() public view returns (uint256) {\n        return dataKeys.length;\n    }\n\n    function allDataKeys() public view returns (bytes32[] memory) {\n        return dataKeys;\n    }\n\n    function setDataMultiple(bytes32[] calldata _keys, bytes[] calldata _values)\n    public\n    onlyOwner\n    {\n        for (uint256 i = 0; i < _keys.length; i++) {\n            setData(_keys[i], _values[i]);\n        }\n    }\n\n    function getDataMultiple(bytes32[] calldata _keys)\n    public\n    view\n    returns(bytes[] memory)\n    {\n        uint256 length = _keys.length;\n        bytes[] memory values = new bytes[](length);\n\n        for (uint256 i=0; i < length; i++) {\n            values[i] = getData(_keys[i]);\n        }\n\n        return values;\n    }\n\n    /* Public functions */\n\n    function setData(bytes32 _key, bytes calldata _value)\n    public\n    override\n    onlyOwner\n    {\n        if(store[_key].length == 0) {\n            dataKeys.push(_key); // 30k more gas on initial set\n        }\n        store[_key] = _value;\n        emit DataChanged(_key, _value);\n    }\n\n    /**\n    * @notice Notify the smart contract about any received asset\n    * LSP1 interface\n\n    * @param _typeId The type of transfer received\n    * @param _data The data received\n    */\n    function universalReceiver(bytes32 _typeId, bytes calldata _data)\n    external\n    override\n    virtual\n    returns (bytes32 returnValue)\n    {\n        bytes memory receiverData = getData(_UNIVERSAL_RECEIVER_DELEGATE_KEY);\n        returnValue = \"\";\n\n        // call external contract\n        if (receiverData.length == 20) {\n            address universalReceiverAddress = BytesLib.toAddress(receiverData, 0);\n\n            if(ERC165(universalReceiverAddress).supportsInterface(_INTERFACE_ID_LSP1DELEGATE)) {\n                returnValue = ILSP1Delegate(universalReceiverAddress).universalReceiverDelegate(_msgSender(), _typeId, _data);\n            }\n        }\n\n        emit UniversalReceiver(_msgSender(), _typeId, returnValue, _data);\n\n        return returnValue;\n    }\n}\n",
  "sourcePath": "/Users/frozeman/Sites/LUKSO/universalprofile-smart-contracts/contracts/LSP3Account.sol",
  "compiler": {
    "name": "solc",
    "version": "0.6.12+commit.27d51765.Emscripten.clang"
  },
  "schemaVersion": "3.3.4",
  "updatedAt": "2021-03-22T15:21:58.996Z",
  "devdoc": {
    "kind": "dev",
    "methods": {
      "execute(uint256,address,uint256,bytes)": {
        "params": {
          "_data": "the call data, or the contract data to deploy",
          "_operation": "the operation to execute: CALL = 0; DELEGATECALL = 1; CREATE2 = 2; CREATE = 3;",
          "_to": "the smart contract or address to interact with. `_to` will be unused if a contract is created (operation 2 and 3)",
          "_value": "the value of ETH to transfer"
        }
      },
      "getData(bytes32)": {
        "params": {
          "_key": "the key which value to retrieve"
        },
        "returns": {
          "_value": "The date stored at the key"
        }
      },
      "isValidSignature(bytes32,bytes)": {
        "params": {
          "_hash": "hash of the data signed//Arbitrary length data signed on the behalf of address(this)",
          "_signature": "owner's signature(s) of the data"
        }
      },
      "owner()": {
        "details": "Returns the address of the current owner."
      },
      "renounceOwnership()": {
        "details": "Leaves the contract without owner. It will not be possible to call `onlyOwner` functions anymore. Can only be called by the current owner. NOTE: Renouncing ownership will leave the contract without an owner, thereby removing any functionality that is only available to the owner."
      },
      "setData(bytes32,bytes)": {
        "params": {
          "_key": "the key which value to retrieve",
          "_value": "the bytes to set."
        }
      },
      "supportsInterface(bytes4)": {
        "details": "See {IERC165-supportsInterface}. Time complexity O(1), guaranteed to always use less than 30 000 gas."
      },
      "transferOwnership(address)": {
        "details": "Transfers ownership of the contract to a new account (`newOwner`). Can only be called by the current owner."
      },
      "universalReceiver(bytes32,bytes)": {
        "params": {
          "_data": "The data received",
          "_typeId": "The type of transfer received"
        }
      }
    },
    "version": 1
  },
  "userdoc": {
    "kind": "user",
    "methods": {
      "execute(uint256,address,uint256,bytes)": {
        "notice": "Executes any other smart contract. Is only callable by the owner."
      },
      "getData(bytes32)": {
        "notice": "Gets data at a given `key`"
      },
      "isValidSignature(bytes32,bytes)": {
        "notice": "Checks if an owner signed `_data`. ERC1271 interface."
      },
      "setData(bytes32,bytes)": {
        "notice": "Sets data at a given `key`"
      },
      "universalReceiver(bytes32,bytes)": {
        "notice": "Notify the smart contract about any received asset LSP1 interface"
      }
    },
    "version": 1
  }
}