{
  "contractName": "NameRegistry",
  "abi": [
    {
      "inputs": [
        {
          "internalType": "bytes",
          "name": "_name",
          "type": "bytes"
        }
      ],
      "name": "setName",
      "outputs": [
        {
          "internalType": "bool",
          "name": "",
          "type": "bool"
        }
      ],
      "stateMutability": "nonpayable",
      "type": "function"
    },
    {
      "inputs": [
        {
          "internalType": "address",
          "name": "_address",
          "type": "address"
        }
      ],
      "name": "getName",
      "outputs": [
        {
          "internalType": "bytes",
          "name": "",
          "type": "bytes"
        }
      ],
      "stateMutability": "view",
      "type": "function"
    },
    {
      "inputs": [
        {
          "internalType": "bytes",
          "name": "_name",
          "type": "bytes"
        }
      ],
      "name": "getAddress",
      "outputs": [
        {
          "internalType": "address",
          "name": "",
          "type": "address"
        }
      ],
      "stateMutability": "view",
      "type": "function"
    },
    {
      "inputs": [
        {
          "internalType": "bytes",
          "name": "_name",
          "type": "bytes"
        }
      ],
      "name": "containsName",
      "outputs": [
        {
          "internalType": "bool",
          "name": "",
          "type": "bool"
        }
      ],
      "stateMutability": "view",
      "type": "function"
    },
    {
      "inputs": [
        {
          "internalType": "address",
          "name": "_address",
          "type": "address"
        }
      ],
      "name": "containsAddress",
      "outputs": [
        {
          "internalType": "bool",
          "name": "",
          "type": "bool"
        }
      ],
      "stateMutability": "view",
      "type": "function"
    },
    {
      "inputs": [],
      "name": "length",
      "outputs": [
        {
          "internalType": "uint256",
          "name": "",
          "type": "uint256"
        }
      ],
      "stateMutability": "view",
      "type": "function"
    },
    {
      "inputs": [
        {
          "internalType": "uint256",
          "name": "_index",
          "type": "uint256"
        }
      ],
      "name": "valueAtIndex",
      "outputs": [
        {
          "internalType": "address",
          "name": "setter",
          "type": "address"
        },
        {
          "internalType": "bytes",
          "name": "name",
          "type": "bytes"
        }
      ],
      "stateMutability": "view",
      "type": "function"
    }
  ],
  "bytecode": "0x608060405234801561001057600080fd5b506110ed806100206000396000f3fe608060405234801561001057600080fd5b506004361061007d5760003560e01c8063923977a31161005b578063923977a3146101b7578063c47cf5de1461027b578063e802e71614610360578063eae23db4146104315761007d565b80631f7b6d3214610082578063322433e3146100a05780635fd4b08a146100fa575b600080fd5b61008a610502565b6040518082815260200191505060405180910390f35b6100e2600480360360208110156100b657600080fd5b81019080803573ffffffffffffffffffffffffffffffffffffffff169060200190929190505050610513565b60405180821515815260200191505060405180910390f35b61013c6004803603602081101561011057600080fd5b81019080803573ffffffffffffffffffffffffffffffffffffffff169060200190929190505050610549565b6040518080602001828103825283818151815260200191508051906020019080838360005b8381101561017c578082015181840152602081019050610161565b50505050905090810190601f1680156101a95780820380516001836020036101000a031916815260200191505b509250505060405180910390f35b6101e3600480360360208110156101cd57600080fd5b810190808035906020019092919050505061057f565b604051808373ffffffffffffffffffffffffffffffffffffffff16815260200180602001828103825283818151815260200191508051906020019080838360005b8381101561023f578082015181840152602081019050610224565b50505050905090810190601f16801561026c5780820380516001836020036101000a031916815260200191505b50935050505060405180910390f35b6103346004803603602081101561029157600080fd5b81019080803590602001906401000000008111156102ae57600080fd5b8201836020820111156102c057600080fd5b803590602001918460018302840111640100000000831117156102e257600080fd5b91908080601f016020809104026020016040519081016040528093929190818152602001838380828437600081840152601f19601f8201169050808301925050505050505091929192905050506105af565b604051808273ffffffffffffffffffffffffffffffffffffffff16815260200191505060405180910390f35b6104196004803603602081101561037657600080fd5b810190808035906020019064010000000081111561039357600080fd5b8201836020820111156103a557600080fd5b803590602001918460018302840111640100000000831117156103c757600080fd5b91908080601f016020809104026020016040519081016040528093929190818152602001838380828437600081840152601f19601f8201169050808301925050505050505091929192905050506105db565b60405180821515815260200191505060405180910390f35b6104ea6004803603602081101561044757600080fd5b810190808035906020019064010000000081111561046457600080fd5b82018360208201111561047657600080fd5b8035906020019184600183028401116401000000008311171561049857600080fd5b91908080601f016020809104026020016040519081016040528093929190818152602001838380828437600081840152601f19601f820116905080830192505050505050509192919290505050610715565b60405180821515815260200191505060405180910390f35b600061050e600061073e565b905090565b60006105428273ffffffffffffffffffffffffffffffffffffffff1660001b600061075390919063ffffffff16565b9050919050565b60606105788273ffffffffffffffffffffffffffffffffffffffff1660001b600061076a90919063ffffffff16565b9050919050565b600060606000606061059b85600061078190919063ffffffff16565b915091508160001c81935093505050915091565b600080828051906020012090506105d081600261079d90919063ffffffff16565b60001c915050919050565b6000803373ffffffffffffffffffffffffffffffffffffffff1660001b905060008380519060200120905061061a8160026107b490919063ffffffff16565b158061063857508161063682600261079d90919063ffffffff16565b145b61068d576040517f08c379a000000000000000000000000000000000000000000000000000000000815260040180806020018281038252602a815260200180611011602a913960400191505060405180910390fd5b6106a182600061075390919063ffffffff16565b156106dc5760606106bc83600061076a90919063ffffffff16565b90506106d9818051906020012060026107cb90919063ffffffff16565b50505b6106f2818360026107e29092919063ffffffff16565b50610709828560006107fb9092919063ffffffff16565b50600192505050919050565b600080828051906020012090506107368160026107b490919063ffffffff16565b915050919050565b600061074c82600001610814565b9050919050565b60006107628360000183610825565b905092915050565b60606107798360000183610848565b905092915050565b600060606107928460000184610875565b915091509250929050565b60006107ac83600001836109aa565b905092915050565b60006107c383600001836109d7565b905092915050565b60006107da83600001836109fa565b905092915050565b60006107f2846000018484610b13565b90509392505050565b600061080b846000018484610bef565b90509392505050565b600081600001805490509050919050565b600080836001016000848152602001908152602001600020541415905092915050565b606061086d83836040518060600160405280602a815260200161103b602a9139610cee565b905092915050565b60006060828460000180549050116108d8576040517f08c379a000000000000000000000000000000000000000000000000000000000815260040180806020018281038252602e815260200180611065602e913960400191505060405180910390fd5b60008460000184815481106108e957fe5b90600052602060002090600202019050806000015481600101808054600181600116156101000203166002900480601f0160208091040260200160405190810160405280929190818152602001828054600181600116156101000203166002900480156109975780601f1061096c57610100808354040283529160200191610997565b820191906000526020600020905b81548152906001019060200180831161097a57829003601f168201915b5050505050905092509250509250929050565b60006109cf838360405180606001604052806025815260200161109360259139610e7d565b905092915050565b600080836001016000848152602001908152602001600020541415905092915050565b60008083600101600084815260200190815260200160002054905060008114610b075760006001820390506000600186600001805490500390506000866000018281548110610a4557fe5b9060005260206000209060020201905080876000018481548110610a6557fe5b9060005260206000209060020201600082015481600001556001820154816001015590505060018301876001016000836000015481526020019081526020016000208190555086600001805480610ab857fe5b6001900381819060005260206000209060020201600080820160009055600182016000905550509055866001016000878152602001908152602001600020600090556001945050505050610b0d565b60009150505b92915050565b6000808460010160008581526020019081526020016000205490506000811415610bba57846000016040518060400160405280868152602001858152509080600181540180825580915050600190039060005260206000209060020201600090919091909150600082015181600001556020820151816001015550508460000180549050856001016000868152602001908152602001600020819055506001915050610be8565b82856000016001830381548110610bcd57fe5b90600052602060002090600202016001018190555060009150505b9392505050565b6000808460010160008581526020019081526020016000205490506000811415610ca957846000016040518060400160405280868152602001858152509080600181540180825580915050600190039060005260206000209060020201600090919091909150600082015181600001556020820151816001019080519060200190610c7b929190610f73565b5050508460000180549050856001016000868152602001908152602001600020819055506001915050610ce7565b82856000016001830381548110610cbc57fe5b90600052602060002090600202016001019080519060200190610ce0929190610f73565b5060009150505b9392505050565b6060600084600101600085815260200190815260200160002054905060008114158390610db6576040517f08c379a00000000000000000000000000000000000000000000000000000000081526004018080602001828103825283818151815260200191508051906020019080838360005b83811015610d7b578082015181840152602081019050610d60565b50505050905090810190601f168015610da85780820380516001836020036101000a031916815260200191505b509250505060405180910390fd5b50846000016001820381548110610dc957fe5b90600052602060002090600202016001018054600181600116156101000203166002900480601f016020809104026020016040519081016040528092919081815260200182805460018160011615610100020316600290048015610e6e5780601f10610e4357610100808354040283529160200191610e6e565b820191906000526020600020905b815481529060010190602001808311610e5157829003601f168201915b50505050509150509392505050565b60008084600101600085815260200190815260200160002054905060008114158390610f44576040517f08c379a00000000000000000000000000000000000000000000000000000000081526004018080602001828103825283818151815260200191508051906020019080838360005b83811015610f09578082015181840152602081019050610eee565b50505050905090810190601f168015610f365780820380516001836020036101000a031916815260200191505b509250505060405180910390fd5b50846000016001820381548110610f5757fe5b9060005260206000209060020201600101549150509392505050565b828054600181600116156101000203166002900490600052602060002090601f016020900481019282601f10610fb457805160ff1916838001178555610fe2565b82800160010185558215610fe2579182015b82811115610fe1578251825591602001919060010190610fc6565b5b509050610fef9190610ff3565b5090565b5b8082111561100c576000816000905550600101610ff4565b509056fe4f6e6c792074686520696e697469616c207365747465722063616e20656469742074686973206e616d65456e756d657261626c654d61704279746573333242797465733a206e6f6e6578697374656e74206b6579456e756d657261626c654d61704279746573333242797465733a20696e646578206f7574206f6620626f756e6473456e756d657261626c654d6170427974657333323a206e6f6e6578697374656e74206b6579a2646970667358221220e1f4912da59722e78837e1e682c08b0c8979ae0853b1e8b42e81b1aa18a5301e64736f6c634300060c0033",
  "immutableReferences": {},
  "source": "// SPDX-License-Identifier: Apache-2.0\npragma solidity ^0.6.0;\n\n\n// libraries\nimport \"../Libraries/EnumerableMapBytes32Bytes.sol\";\nimport \"../Libraries/EnumerableMapBytes32.sol\";\n\ncontract NameRegistry {\n     using EnumerableMapBytes for EnumerableMapBytes.Bytes32ToBytesMap;\n     using EnumerableMapBytes32 for EnumerableMapBytes32.Bytes32ToBytes32Map;\n\n    EnumerableMapBytes.Bytes32ToBytesMap private nameReg;\n    EnumerableMapBytes32.Bytes32ToBytes32Map private addressReg;\n\n\n    function setName(bytes memory _name)\n    public\n    returns(bool)\n    {\n        bytes32 sender = bytes32(uint256(msg.sender));\n        bytes32 nameHash = keccak256(_name);\n\n        require(!addressReg.contains(nameHash) || addressReg.get(nameHash) == sender, \"Only the initial setter can edit this name\");\n\n        // remove old key if present\n        if (nameReg.contains(sender)) {\n            bytes memory oldName = nameReg.get(sender);\n            addressReg.remove(keccak256(oldName));\n        }\n\n        addressReg.set(nameHash, sender);\n        nameReg.set(sender, _name);\n\n\n        return true;\n    }\n\n\n    function getName(address _address)\n    public\n    view\n    returns (bytes memory)\n    {\n        return nameReg.get(bytes32(uint256(_address)));\n    }\n\n\n    function getAddress(bytes memory _name)\n    public\n    view\n    returns (address)\n    {\n        bytes32 nameHash = keccak256(_name);\n        return address(uint256(addressReg.get(nameHash)));\n    }\n\n    function containsName(bytes memory _name)\n    public\n    view\n    returns (bool)\n    {\n        bytes32 nameHash = keccak256(_name);\n        return addressReg.contains(nameHash);\n    }\n\n    function containsAddress(address _address)\n    public\n    view\n    returns (bool)\n    {\n        return nameReg.contains(bytes32(uint256(_address)));\n    }\n\n\n    function length()\n    public\n    view\n    returns (uint256)\n    {\n        return nameReg.length();\n    }\n\n\n    function valueAtIndex(uint256 _index)\n    public\n    view\n    returns (address setter, bytes memory name)\n    {\n        (bytes32 key, bytes memory value) = nameReg.at(_index);\n        return (address(uint256(key)), value);\n    }\n\n}\n",
  "sourcePath": "/Users/frozeman/Sites/LUKSO/universalprofile-smart-contracts/contracts/Registries/NameRegistry.sol",
  "compiler": {
    "name": "solc",
    "version": "0.6.12+commit.27d51765.Emscripten.clang"
  },
  "schemaVersion": "3.3.4",
  "updatedAt": "2021-03-22T15:21:59.013Z",
  "devdoc": {
    "kind": "dev",
    "methods": {},
    "version": 1
  },
  "userdoc": {
    "kind": "user",
    "methods": {},
    "version": 1
  }
}