{
  "contractName": "SimpleKeyManager",
  "abi": [
    {
      "inputs": [
        {
          "internalType": "address",
          "name": "_account",
          "type": "address"
        },
        {
          "internalType": "address",
          "name": "_newOwner",
          "type": "address"
        }
      ],
      "stateMutability": "nonpayable",
      "type": "constructor"
    },
    {
      "anonymous": false,
      "inputs": [
        {
          "indexed": true,
          "internalType": "uint256",
          "name": "_value",
          "type": "uint256"
        },
        {
          "indexed": false,
          "internalType": "bytes",
          "name": "_data",
          "type": "bytes"
        }
      ],
      "name": "Executed",
      "type": "event"
    },
    {
      "anonymous": false,
      "inputs": [
        {
          "indexed": true,
          "internalType": "bytes32",
          "name": "role",
          "type": "bytes32"
        },
        {
          "indexed": true,
          "internalType": "bytes32",
          "name": "previousAdminRole",
          "type": "bytes32"
        },
        {
          "indexed": true,
          "internalType": "bytes32",
          "name": "newAdminRole",
          "type": "bytes32"
        }
      ],
      "name": "RoleAdminChanged",
      "type": "event"
    },
    {
      "anonymous": false,
      "inputs": [
        {
          "indexed": true,
          "internalType": "bytes32",
          "name": "role",
          "type": "bytes32"
        },
        {
          "indexed": true,
          "internalType": "address",
          "name": "account",
          "type": "address"
        },
        {
          "indexed": true,
          "internalType": "address",
          "name": "sender",
          "type": "address"
        }
      ],
      "name": "RoleGranted",
      "type": "event"
    },
    {
      "anonymous": false,
      "inputs": [
        {
          "indexed": true,
          "internalType": "bytes32",
          "name": "role",
          "type": "bytes32"
        },
        {
          "indexed": true,
          "internalType": "address",
          "name": "account",
          "type": "address"
        },
        {
          "indexed": true,
          "internalType": "address",
          "name": "sender",
          "type": "address"
        }
      ],
      "name": "RoleRevoked",
      "type": "event"
    },
    {
      "inputs": [],
      "name": "Account",
      "outputs": [
        {
          "internalType": "contract IERC725X",
          "name": "",
          "type": "address"
        }
      ],
      "stateMutability": "view",
      "type": "function"
    },
    {
      "inputs": [],
      "name": "DEFAULT_ADMIN_ROLE",
      "outputs": [
        {
          "internalType": "bytes32",
          "name": "",
          "type": "bytes32"
        }
      ],
      "stateMutability": "view",
      "type": "function"
    },
    {
      "inputs": [],
      "name": "EXECUTOR_ROLE",
      "outputs": [
        {
          "internalType": "bytes32",
          "name": "",
          "type": "bytes32"
        }
      ],
      "stateMutability": "view",
      "type": "function"
    },
    {
      "inputs": [
        {
          "internalType": "bytes32",
          "name": "role",
          "type": "bytes32"
        }
      ],
      "name": "getRoleAdmin",
      "outputs": [
        {
          "internalType": "bytes32",
          "name": "",
          "type": "bytes32"
        }
      ],
      "stateMutability": "view",
      "type": "function"
    },
    {
      "inputs": [
        {
          "internalType": "bytes32",
          "name": "role",
          "type": "bytes32"
        },
        {
          "internalType": "uint256",
          "name": "index",
          "type": "uint256"
        }
      ],
      "name": "getRoleMember",
      "outputs": [
        {
          "internalType": "address",
          "name": "",
          "type": "address"
        }
      ],
      "stateMutability": "view",
      "type": "function"
    },
    {
      "inputs": [
        {
          "internalType": "bytes32",
          "name": "role",
          "type": "bytes32"
        }
      ],
      "name": "getRoleMemberCount",
      "outputs": [
        {
          "internalType": "uint256",
          "name": "",
          "type": "uint256"
        }
      ],
      "stateMutability": "view",
      "type": "function"
    },
    {
      "inputs": [
        {
          "internalType": "bytes32",
          "name": "role",
          "type": "bytes32"
        },
        {
          "internalType": "address",
          "name": "account",
          "type": "address"
        }
      ],
      "name": "grantRole",
      "outputs": [],
      "stateMutability": "nonpayable",
      "type": "function"
    },
    {
      "inputs": [
        {
          "internalType": "bytes32",
          "name": "role",
          "type": "bytes32"
        },
        {
          "internalType": "address",
          "name": "account",
          "type": "address"
        }
      ],
      "name": "hasRole",
      "outputs": [
        {
          "internalType": "bool",
          "name": "",
          "type": "bool"
        }
      ],
      "stateMutability": "view",
      "type": "function"
    },
    {
      "inputs": [
        {
          "internalType": "bytes32",
          "name": "role",
          "type": "bytes32"
        },
        {
          "internalType": "address",
          "name": "account",
          "type": "address"
        }
      ],
      "name": "renounceRole",
      "outputs": [],
      "stateMutability": "nonpayable",
      "type": "function"
    },
    {
      "inputs": [
        {
          "internalType": "bytes32",
          "name": "role",
          "type": "bytes32"
        },
        {
          "internalType": "address",
          "name": "account",
          "type": "address"
        }
      ],
      "name": "revokeRole",
      "outputs": [],
      "stateMutability": "nonpayable",
      "type": "function"
    },
    {
      "inputs": [
        {
          "internalType": "bytes4",
          "name": "interfaceId",
          "type": "bytes4"
        }
      ],
      "name": "supportsInterface",
      "outputs": [
        {
          "internalType": "bool",
          "name": "",
          "type": "bool"
        }
      ],
      "stateMutability": "view",
      "type": "function"
    },
    {
      "inputs": [
        {
          "internalType": "address",
          "name": "_address",
          "type": "address"
        }
      ],
      "name": "getNonce",
      "outputs": [
        {
          "internalType": "uint256",
          "name": "",
          "type": "uint256"
        }
      ],
      "stateMutability": "view",
      "type": "function"
    },
    {
      "inputs": [
        {
          "internalType": "bytes",
          "name": "_data",
          "type": "bytes"
        }
      ],
      "name": "execute",
      "outputs": [],
      "stateMutability": "payable",
      "type": "function"
    },
    {
      "inputs": [
        {
          "internalType": "address",
          "name": "signedFor",
          "type": "address"
        },
        {
          "internalType": "bytes",
          "name": "_data",
          "type": "bytes"
        },
        {
          "internalType": "uint256",
          "name": "_nonce",
          "type": "uint256"
        },
        {
          "internalType": "bytes",
          "name": "_signature",
          "type": "bytes"
        }
      ],
      "name": "executeRelayedCall",
      "outputs": [],
      "stateMutability": "nonpayable",
      "type": "function"
    },
    {
      "inputs": [
        {
          "internalType": "bytes32",
          "name": "_hash",
          "type": "bytes32"
        },
        {
          "internalType": "bytes",
          "name": "_signature",
          "type": "bytes"
        }
      ],
      "name": "isValidSignature",
      "outputs": [
        {
          "internalType": "bytes4",
          "name": "magicValue",
          "type": "bytes4"
        }
      ],
      "stateMutability": "view",
      "type": "function"
    }
  ],
  "bytecode": "0x60806040523480156200001157600080fd5b5060405162001fb738038062001fb7833981810160405260408110156200003757600080fd5b8101908080519060200190929190805190602001909291905050506200006a6301ffc9a760e01b6200015f60201b60201c565b6200007f6000801b826200026860201b60201c565b620000b47fd8aa0f3194971a2a116679f7c2090f6939c8d4e01a2a8d7e41d55e5351469e6360001b826200026860201b60201c565b620000c96000801b836200026860201b60201c565b620000fe7fd8aa0f3194971a2a116679f7c2090f6939c8d4e01a2a8d7e41d55e5351469e6360001b836200026860201b60201c565b81600260006101000a81548173ffffffffffffffffffffffffffffffffffffffff021916908373ffffffffffffffffffffffffffffffffffffffff16021790555062000157631626ba7e60e01b6200015f60201b60201c565b5050620003ff565b63ffffffff60e01b817bffffffffffffffffffffffffffffffffffffffffffffffffffffffff19161415620001fc576040517f08c379a000000000000000000000000000000000000000000000000000000000815260040180806020018281038252601c8152602001807f4552433136353a20696e76616c696420696e746572666163652069640000000081525060200191505060405180910390fd5b6001600080837bffffffffffffffffffffffffffffffffffffffffffffffffffffffff19167bffffffffffffffffffffffffffffffffffffffffffffffffffffffff1916815260200190815260200160002060006101000a81548160ff02191690831515021790555050565b6200027a82826200027e60201b60201c565b5050565b620002ad81600160008581526020019081526020016000206000016200032260201b620012ce1790919060201c565b156200031e57620002c36200035a60201b60201c565b73ffffffffffffffffffffffffffffffffffffffff168173ffffffffffffffffffffffffffffffffffffffff16837f2f8788117e7eff1d82e926ec794901d17c78024a50270940304540a733656f0d60405160405180910390a45b5050565b600062000352836000018373ffffffffffffffffffffffffffffffffffffffff1660001b6200036260201b60201c565b905092915050565b600033905090565b6000620003768383620003dc60201b60201c565b620003d1578260000182908060018154018082558091505060019003906000526020600020016000909190919091505582600001805490508360010160008481526020019081526020016000208190555060019050620003d6565b600090505b92915050565b600080836001016000848152602001908152602001600020541415905092915050565b611ba8806200040f6000396000f3fe6080604052600436106100e85760003560e01c80632f2ff15d1161008a578063a217fddf11610059578063a217fddf146105d3578063ca15c873146105fe578063d547741f1461064d578063e2b434b3146106a8576100e8565b80632f2ff15d1461043d57806336568abe146104985780639010d07c146104f357806391d1485414610562576100e8565b80630e9d797a116100c65780630e9d797a146102435780631626ba7e14610284578063248a9ca3146103895780632d0335ab146103d8576100e8565b806301ffc9a7146100ed57806307bd02651461015d57806309c5eabe14610188575b600080fd5b3480156100f957600080fd5b506101456004803603602081101561011057600080fd5b8101908080357bffffffffffffffffffffffffffffffffffffffffffffffffffffffff19169060200190929190505050610831565b60405180821515815260200191505060405180910390f35b34801561016957600080fd5b50610172610898565b6040518082815260200191505060405180910390f35b6102416004803603602081101561019e57600080fd5b81019080803590602001906401000000008111156101bb57600080fd5b8201836020820111156101cd57600080fd5b803590602001918460018302840111640100000000831117156101ef57600080fd5b91908080601f016020809104026020016040519081016040528093929190818152602001838380828437600081840152601f19601f8201169050808301925050505050505091929192905050506108bf565b005b34801561024f57600080fd5b50610258610ae0565b604051808273ffffffffffffffffffffffffffffffffffffffff16815260200191505060405180910390f35b34801561029057600080fd5b50610354600480360360408110156102a757600080fd5b8101908080359060200190929190803590602001906401000000008111156102ce57600080fd5b8201836020820111156102e057600080fd5b8035906020019184600183028401116401000000008311171561030257600080fd5b91908080601f016020809104026020016040519081016040528093929190818152602001838380828437600081840152601f19601f820116905080830192505050505050509192919290505050610b06565b60405180827bffffffffffffffffffffffffffffffffffffffffffffffffffffffff1916815260200191505060405180910390f35b34801561039557600080fd5b506103c2600480360360208110156103ac57600080fd5b8101908080359060200190929190505050610b79565b6040518082815260200191505060405180910390f35b3480156103e457600080fd5b50610427600480360360208110156103fb57600080fd5b81019080803573ffffffffffffffffffffffffffffffffffffffff169060200190929190505050610b99565b6040518082815260200191505060405180910390f35b34801561044957600080fd5b506104966004803603604081101561046057600080fd5b8101908080359060200190929190803573ffffffffffffffffffffffffffffffffffffffff169060200190929190505050610be2565b005b3480156104a457600080fd5b506104f1600480360360408110156104bb57600080fd5b8101908080359060200190929190803573ffffffffffffffffffffffffffffffffffffffff169060200190929190505050610c6c565b005b3480156104ff57600080fd5b506105366004803603604081101561051657600080fd5b810190808035906020019092919080359060200190929190505050610d05565b604051808273ffffffffffffffffffffffffffffffffffffffff16815260200191505060405180910390f35b34801561056e57600080fd5b506105bb6004803603604081101561058557600080fd5b8101908080359060200190929190803573ffffffffffffffffffffffffffffffffffffffff169060200190929190505050610d37565b60405180821515815260200191505060405180910390f35b3480156105df57600080fd5b506105e8610d69565b6040518082815260200191505060405180910390f35b34801561060a57600080fd5b506106376004803603602081101561062157600080fd5b8101908080359060200190929190505050610d70565b6040518082815260200191505060405180910390f35b34801561065957600080fd5b506106a66004803603604081101561067057600080fd5b8101908080359060200190929190803573ffffffffffffffffffffffffffffffffffffffff169060200190929190505050610d97565b005b3480156106b457600080fd5b5061082f600480360360808110156106cb57600080fd5b81019080803573ffffffffffffffffffffffffffffffffffffffff1690602001909291908035906020019064010000000081111561070857600080fd5b82018360208201111561071a57600080fd5b8035906020019184600183028401116401000000008311171561073c57600080fd5b91908080601f016020809104026020016040519081016040528093929190818152602001838380828437600081840152601f19601f82011690508083019250505050505050919291929080359060200190929190803590602001906401000000008111156107a957600080fd5b8201836020820111156107bb57600080fd5b803590602001918460018302840111640100000000831117156107dd57600080fd5b91908080601f016020809104026020016040519081016040528093929190818152602001838380828437600081840152601f19601f820116905080830192505050505050509192919290505050610e21565b005b6000806000837bffffffffffffffffffffffffffffffffffffffffffffffffffffffff19167bffffffffffffffffffffffffffffffffffffffffffffffffffffffff1916815260200190815260200160002060009054906101000a900460ff169050919050565b7fd8aa0f3194971a2a116679f7c2090f6939c8d4e01a2a8d7e41d55e5351469e6360001b81565b6108f37fd8aa0f3194971a2a116679f7c2090f6939c8d4e01a2a8d7e41d55e5351469e6360001b6108ee6112fe565b610d37565b610965576040517f08c379a000000000000000000000000000000000000000000000000000000000815260040180806020018281038252601a8152602001807f4f6e6c79206578656375746f72732061726520616c6c6f77656400000000000081525060200191505060405180910390fd5b600260009054906101000a900473ffffffffffffffffffffffffffffffffffffffff1673ffffffffffffffffffffffffffffffffffffffff16345a90836040518082805190602001908083835b602083106109d557805182526020820191506020810190506020830392506109b2565b6001836020036101000a038019825116818451168082178552505050505050905001915050600060405180830381858888f193505050503d8060008114610a38576040519150601f19603f3d011682016040523d82523d6000602084013e610a3d565b606091505b505050347f2e733a17851169f232b3859260eb3ad2a086afd54e999eb4ea9afb7791702e41826040518080602001828103825283818151815260200191508051906020019080838360005b83811015610aa3578082015181840152602081019050610a88565b50505050905090810190601f168015610ad05780820380516001836020036101000a031916815260200191505b509250505060405180910390a250565b600260009054906101000a900473ffffffffffffffffffffffffffffffffffffffff1681565b600080610b138484611306565b9050610b427fd8aa0f3194971a2a116679f7c2090f6939c8d4e01a2a8d7e41d55e5351469e6360001b82610d37565b80610b565750610b556000801b82610d37565b5b610b675763ffffffff60e01b610b70565b631626ba7e60e01b5b91505092915050565b600060016000838152602001908152602001600020600201549050919050565b6000600360008373ffffffffffffffffffffffffffffffffffffffff1673ffffffffffffffffffffffffffffffffffffffff168152602001908152602001600020549050919050565b610c096001600084815260200190815260200160002060020154610c046112fe565b610d37565b610c5e576040517f08c379a000000000000000000000000000000000000000000000000000000000815260040180806020018281038252602f815260200180611a7b602f913960400191505060405180910390fd5b610c6882826113b3565b5050565b610c746112fe565b73ffffffffffffffffffffffffffffffffffffffff168173ffffffffffffffffffffffffffffffffffffffff1614610cf7576040517f08c379a000000000000000000000000000000000000000000000000000000000815260040180806020018281038252602f815260200180611b44602f913960400191505060405180910390fd5b610d018282611447565b5050565b6000610d2f82600160008681526020019081526020016000206000016114db90919063ffffffff16565b905092915050565b6000610d6182600160008681526020019081526020016000206000016114f590919063ffffffff16565b905092915050565b6000801b81565b6000610d9060016000848152602001908152602001600020600001611525565b9050919050565b610dbe6001600084815260200190815260200160002060020154610db96112fe565b610d37565b610e13576040517f08c379a0000000000000000000000000000000000000000000000000000000008152600401808060200182810382526030815260200180611acc6030913960400191505060405180910390fd5b610e1d8282611447565b5050565b3073ffffffffffffffffffffffffffffffffffffffff168473ffffffffffffffffffffffffffffffffffffffff1614610ea5576040517f08c379a0000000000000000000000000000000000000000000000000000000008152600401808060200182810382526026815260200180611afc6026913960400191505060405180910390fd5b6060308484604051602001808473ffffffffffffffffffffffffffffffffffffffff1660601b815260140183805190602001908083835b60208310610eff5780518252602082019150602081019050602083039250610edc565b6001836020036101000a038019825116818451168082178552505050505050905001828152602001935050505060405160208183030381529060405290506000610f6183610f53848051906020012061153a565b61130690919063ffffffff16565b9050610f907fd8aa0f3194971a2a116679f7c2090f6939c8d4e01a2a8d7e41d55e5351469e6360001b82610d37565b611002576040517f08c379a000000000000000000000000000000000000000000000000000000000815260040180806020018281038252601a8152602001807f4f6e6c79206578656375746f72732061726520616c6c6f77656400000000000081525060200191505060405180910390fd5b83600360008373ffffffffffffffffffffffffffffffffffffffff1673ffffffffffffffffffffffffffffffffffffffff16815260200190815260200160002054146110b6576040517f08c379a000000000000000000000000000000000000000000000000000000000815260040180806020018281038252600f8152602001807f496e636f7272656374206e6f6e6365000000000000000000000000000000000081525060200191505060405180910390fd5b6111096001600360008473ffffffffffffffffffffffffffffffffffffffff1673ffffffffffffffffffffffffffffffffffffffff1681526020019081526020016000205461159290919063ffffffff16565b600360008373ffffffffffffffffffffffffffffffffffffffff1673ffffffffffffffffffffffffffffffffffffffff16815260200190815260200160002081905550600260009054906101000a900473ffffffffffffffffffffffffffffffffffffffff1673ffffffffffffffffffffffffffffffffffffffff1660005a90876040518082805190602001908083835b602083106111bd578051825260208201915060208101905060208303925061119a565b6001836020036101000a038019825116818451168082178552505050505050905001915050600060405180830381858888f193505050503d8060008114611220576040519150601f19603f3d011682016040523d82523d6000602084013e611225565b606091505b50505060007f2e733a17851169f232b3859260eb3ad2a086afd54e999eb4ea9afb7791702e41866040518080602001828103825283818151815260200191508051906020019080838360005b8381101561128c578082015181840152602081019050611271565b50505050905090810190601f1680156112b95780820380516001836020036101000a031916815260200191505b509250505060405180910390a2505050505050565b60006112f6836000018373ffffffffffffffffffffffffffffffffffffffff1660001b61161a565b905092915050565b600033905090565b6000604182511461137f576040517f08c379a000000000000000000000000000000000000000000000000000000000815260040180806020018281038252601f8152602001807f45434453413a20696e76616c6964207369676e6174757265206c656e6774680081525060200191505060405180910390fd5b60008060006020850151925060408501519150606085015160001a90506113a88682858561168a565b935050505092915050565b6113db81600160008581526020019081526020016000206000016112ce90919063ffffffff16565b15611443576113e86112fe565b73ffffffffffffffffffffffffffffffffffffffff168173ffffffffffffffffffffffffffffffffffffffff16837f2f8788117e7eff1d82e926ec794901d17c78024a50270940304540a733656f0d60405160405180910390a45b5050565b61146f816001600085815260200190815260200160002060000161188990919063ffffffff16565b156114d75761147c6112fe565b73ffffffffffffffffffffffffffffffffffffffff168173ffffffffffffffffffffffffffffffffffffffff16837ff6391f5c32d9c69d2a47ea670b442974b53935d1edc7fd64eb21e047a839171b60405160405180910390a45b5050565b60006114ea83600001836118b9565b60001c905092915050565b600061151d836000018373ffffffffffffffffffffffffffffffffffffffff1660001b61193c565b905092915050565b60006115338260000161195f565b9050919050565b60008160405160200180807f19457468657265756d205369676e6564204d6573736167653a0a333200000000815250601c01828152602001915050604051602081830303815290604052805190602001209050919050565b600080828401905083811015611610576040517f08c379a000000000000000000000000000000000000000000000000000000000815260040180806020018281038252601b8152602001807f536166654d6174683a206164646974696f6e206f766572666c6f77000000000081525060200191505060405180910390fd5b8091505092915050565b6000611626838361193c565b61167f578260000182908060018154018082558091505060019003906000526020600020016000909190919091505582600001805490508360010160008481526020019081526020016000208190555060019050611684565b600090505b92915050565b60007f7fffffffffffffffffffffffffffffff5d576e7357a4501ddfe92f46681b20a08260001c1115611708576040517f08c379a0000000000000000000000000000000000000000000000000000000008152600401808060200182810382526022815260200180611aaa6022913960400191505060405180910390fd5b601b8460ff16148061171d5750601c8460ff16145b611772576040517f08c379a0000000000000000000000000000000000000000000000000000000008152600401808060200182810382526022815260200180611b226022913960400191505060405180910390fd5b600060018686868660405160008152602001604052604051808581526020018460ff1681526020018381526020018281526020019450505050506020604051602081039080840390855afa1580156117ce573d6000803e3d6000fd5b505050602060405103519050600073ffffffffffffffffffffffffffffffffffffffff168173ffffffffffffffffffffffffffffffffffffffff16141561187d576040517f08c379a00000000000000000000000000000000000000000000000000000000081526004018080602001828103825260188152602001807f45434453413a20696e76616c6964207369676e6174757265000000000000000081525060200191505060405180910390fd5b80915050949350505050565b60006118b1836000018373ffffffffffffffffffffffffffffffffffffffff1660001b611970565b905092915050565b60008183600001805490501161191a576040517f08c379a0000000000000000000000000000000000000000000000000000000008152600401808060200182810382526022815260200180611a596022913960400191505060405180910390fd5b82600001828154811061192957fe5b9060005260206000200154905092915050565b600080836001016000848152602001908152602001600020541415905092915050565b600081600001805490509050919050565b60008083600101600084815260200190815260200160002054905060008114611a4c57600060018203905060006001866000018054905003905060008660000182815481106119bb57fe5b90600052602060002001549050808760000184815481106119d857fe5b9060005260206000200181905550600183018760010160008381526020019081526020016000208190555086600001805480611a1057fe5b60019003818190600052602060002001600090559055866001016000878152602001908152602001600020600090556001945050505050611a52565b60009150505b9291505056fe456e756d657261626c655365743a20696e646578206f7574206f6620626f756e6473416363657373436f6e74726f6c3a2073656e646572206d75737420626520616e2061646d696e20746f206772616e7445434453413a20696e76616c6964207369676e6174757265202773272076616c7565416363657373436f6e74726f6c3a2073656e646572206d75737420626520616e2061646d696e20746f207265766f6b654d657373616765206e6f74207369676e656420666f722074686973206b65794d616e6167657245434453413a20696e76616c6964207369676e6174757265202776272076616c7565416363657373436f6e74726f6c3a2063616e206f6e6c792072656e6f756e636520726f6c657320666f722073656c66a26469706673582212206888f15acaca18aa588ea68dd3645105d1481518a4a6632c19add9ea6793042564736f6c634300060c0033",
  "immutableReferences": {},
  "source": "// SPDX-License-Identifier: Apache-2.0\npragma solidity ^0.6.0;\n\n// interfaces\nimport \"../../submodules/ERC725/implementations/contracts/ERC725/IERC725X.sol\";\nimport \"../_ERCs/IERC1271.sol\";\n\n// modules\nimport \"@openzeppelin/contracts/introspection/ERC165.sol\";\nimport \"@openzeppelin/contracts/access/AccessControl.sol\";\n\n// libraries\nimport \"@openzeppelin/contracts/cryptography/ECDSA.sol\";\nimport \"@openzeppelin/contracts/math/SafeMath.sol\";\n\ncontract SimpleKeyManager is ERC165, IERC1271, AccessControl {\n    using ECDSA for bytes32;\n    using SafeMath for uint256;\n\n    bytes4 internal constant _INTERFACE_ID_ERC1271 = 0x1626ba7e;\n    bytes4 internal constant _ERC1271FAILVALUE = 0xffffffff;\n\n    // keccak256(\"EXECUTOR_ROLE\")\n    bytes32 public constant EXECUTOR_ROLE = 0xd8aa0f3194971a2a116679f7c2090f6939c8d4e01a2a8d7e41d55e5351469e63;\n\n    IERC725X public Account;\n    mapping (address => uint256) private _nonceStore;\n\n    // EVENTS\n    event Executed(uint256 indexed  _value, bytes _data);\n\n    constructor(address _account, address _newOwner)\n    public\n    {\n        // make owner an executor\n        _setupRole(DEFAULT_ADMIN_ROLE, _newOwner);\n        _setupRole(EXECUTOR_ROLE, _newOwner);\n\n        // allow execution itself\n        _setupRole(DEFAULT_ADMIN_ROLE, _account); // TODO only for UniversalProfile BETA\n        _setupRole(EXECUTOR_ROLE, _account);\n\n        // Link account\n        Account = IERC725X(_account);\n\n        _registerInterface(_INTERFACE_ID_ERC1271);\n    }\n\n\n    function getNonce(address _address)\n    public\n    view\n    returns (uint256) {\n        return _nonceStore[_address];\n    }\n\n\n    function execute(bytes memory _data)\n    external\n    payable\n    {\n        require(hasRole(EXECUTOR_ROLE, _msgSender()), 'Only executors are allowed');\n\n        address(Account).call{value: msg.value, gas: gasleft()}(_data); //(success, ) =\n        emit Executed(msg.value, _data);\n    }\n\n\n    // allows anybody to execute given they have a signed messaged from an executor\n    function executeRelayedCall(\n        address signedFor,\n        bytes memory _data,\n        uint256 _nonce,\n        bytes memory _signature\n    )\n    external\n    {\n        require(signedFor == address(this), 'Message not signed for this keyManager');\n\n        bytes memory blob = abi.encodePacked(\n            address(this), // needs to be signed for this keyManager\n            _data,\n            _nonce // Prevents replays\n        );\n\n        // recover the signer\n        address from = keccak256(blob).toEthSignedMessageHash().recover(_signature);\n\n        require(hasRole(EXECUTOR_ROLE, from), 'Only executors are allowed');\n        require(_nonceStore[from] == _nonce, 'Incorrect nonce');\n\n        // increase the nonce\n        _nonceStore[from] = _nonceStore[from].add(1);\n\n        address(Account).call{value: 0, gas: gasleft()}(_data); //(success, ) =\n        emit Executed(0, _data);\n    }\n\n    /**\n    * @notice Checks if an owner signed `_data`.\n    * ERC1271 interface.\n    *\n    * @param _hash hash of the data signed//Arbitrary length data signed on the behalf of address(this)\n    * @param _signature owner's signature(s) of the data\n    */\n    function isValidSignature(bytes32 _hash, bytes memory _signature)\n    override\n    public\n    view\n    returns (bytes4 magicValue)\n    {\n        address recoveredAddress = ECDSA.recover(_hash, _signature);\n\n        return (hasRole(EXECUTOR_ROLE, recoveredAddress) || hasRole(DEFAULT_ADMIN_ROLE, recoveredAddress))\n            ? _INTERFACE_ID_ERC1271\n            : _ERC1271FAILVALUE;\n    }\n}\n",
  "sourcePath": "/Users/frozeman/Sites/LUKSO/universalprofile-smart-contracts/contracts/KeyManager/SimpleKeyManager.sol",
  "compiler": {
    "name": "solc",
    "version": "0.6.12+commit.27d51765.Emscripten.clang"
  },
  "schemaVersion": "3.3.4",
  "updatedAt": "2021-03-22T15:25:17.241Z",
  "devdoc": {
    "kind": "dev",
    "methods": {
      "getRoleAdmin(bytes32)": {
        "details": "Returns the admin role that controls `role`. See {grantRole} and {revokeRole}. To change a role's admin, use {_setRoleAdmin}."
      },
      "getRoleMember(bytes32,uint256)": {
        "details": "Returns one of the accounts that have `role`. `index` must be a value between 0 and {getRoleMemberCount}, non-inclusive. Role bearers are not sorted in any particular way, and their ordering may change at any point. WARNING: When using {getRoleMember} and {getRoleMemberCount}, make sure you perform all queries on the same block. See the following https://forum.openzeppelin.com/t/iterating-over-elements-on-enumerableset-in-openzeppelin-contracts/2296[forum post] for more information."
      },
      "getRoleMemberCount(bytes32)": {
        "details": "Returns the number of accounts that have `role`. Can be used together with {getRoleMember} to enumerate all bearers of a role."
      },
      "grantRole(bytes32,address)": {
        "details": "Grants `role` to `account`. If `account` had not been already granted `role`, emits a {RoleGranted} event. Requirements: - the caller must have ``role``'s admin role."
      },
      "hasRole(bytes32,address)": {
        "details": "Returns `true` if `account` has been granted `role`."
      },
      "isValidSignature(bytes32,bytes)": {
        "params": {
          "_hash": "hash of the data signed//Arbitrary length data signed on the behalf of address(this)",
          "_signature": "owner's signature(s) of the data"
        }
      },
      "renounceRole(bytes32,address)": {
        "details": "Revokes `role` from the calling account. Roles are often managed via {grantRole} and {revokeRole}: this function's purpose is to provide a mechanism for accounts to lose their privileges if they are compromised (such as when a trusted device is misplaced). If the calling account had been granted `role`, emits a {RoleRevoked} event. Requirements: - the caller must be `account`."
      },
      "revokeRole(bytes32,address)": {
        "details": "Revokes `role` from `account`. If `account` had been granted `role`, emits a {RoleRevoked} event. Requirements: - the caller must have ``role``'s admin role."
      },
      "supportsInterface(bytes4)": {
        "details": "See {IERC165-supportsInterface}. Time complexity O(1), guaranteed to always use less than 30 000 gas."
      }
    },
    "version": 1
  },
  "userdoc": {
    "kind": "user",
    "methods": {
      "isValidSignature(bytes32,bytes)": {
        "notice": "Checks if an owner signed `_data`. ERC1271 interface."
      }
    },
    "version": 1
  }
}