{
  "contractName": "UniversalReceiverAddressStore",
  "abi": [
    {
      "inputs": [
        {
          "internalType": "address",
          "name": "_account",
          "type": "address"
        }
      ],
      "stateMutability": "nonpayable",
      "type": "constructor"
    },
    {
      "inputs": [],
      "name": "account",
      "outputs": [
        {
          "internalType": "address",
          "name": "",
          "type": "address"
        }
      ],
      "stateMutability": "view",
      "type": "function"
    },
    {
      "inputs": [
        {
          "internalType": "address",
          "name": "_address",
          "type": "address"
        }
      ],
      "name": "containsAddress",
      "outputs": [
        {
          "internalType": "bool",
          "name": "",
          "type": "bool"
        }
      ],
      "stateMutability": "view",
      "type": "function"
    },
    {
      "inputs": [
        {
          "internalType": "uint256",
          "name": "_index",
          "type": "uint256"
        }
      ],
      "name": "getAddress",
      "outputs": [
        {
          "internalType": "address",
          "name": "",
          "type": "address"
        }
      ],
      "stateMutability": "view",
      "type": "function"
    },
    {
      "inputs": [],
      "name": "getAllRawValues",
      "outputs": [
        {
          "internalType": "bytes32[]",
          "name": "",
          "type": "bytes32[]"
        }
      ],
      "stateMutability": "view",
      "type": "function"
    },
    {
      "inputs": [
        {
          "internalType": "address",
          "name": "_address",
          "type": "address"
        }
      ],
      "name": "getIndex",
      "outputs": [
        {
          "internalType": "uint256",
          "name": "",
          "type": "uint256"
        }
      ],
      "stateMutability": "view",
      "type": "function"
    },
    {
      "inputs": [],
      "name": "length",
      "outputs": [
        {
          "internalType": "uint256",
          "name": "",
          "type": "uint256"
        }
      ],
      "stateMutability": "view",
      "type": "function"
    },
    {
      "inputs": [
        {
          "internalType": "bytes4",
          "name": "interfaceId",
          "type": "bytes4"
        }
      ],
      "name": "supportsInterface",
      "outputs": [
        {
          "internalType": "bool",
          "name": "",
          "type": "bool"
        }
      ],
      "stateMutability": "view",
      "type": "function"
    },
    {
      "inputs": [
        {
          "internalType": "address",
          "name": "_address",
          "type": "address"
        }
      ],
      "name": "addAddress",
      "outputs": [
        {
          "internalType": "bool",
          "name": "",
          "type": "bool"
        }
      ],
      "stateMutability": "nonpayable",
      "type": "function"
    },
    {
      "inputs": [
        {
          "internalType": "address",
          "name": "_address",
          "type": "address"
        }
      ],
      "name": "removeAddress",
      "outputs": [
        {
          "internalType": "bool",
          "name": "",
          "type": "bool"
        }
      ],
      "stateMutability": "nonpayable",
      "type": "function"
    },
    {
      "inputs": [
        {
          "internalType": "address",
          "name": "sender",
          "type": "address"
        },
        {
          "internalType": "bytes32",
          "name": "typeId",
          "type": "bytes32"
        },
        {
          "internalType": "bytes",
          "name": "",
          "type": "bytes"
        }
      ],
      "name": "universalReceiverDelegate",
      "outputs": [
        {
          "internalType": "bytes32",
          "name": "",
          "type": "bytes32"
        }
      ],
      "stateMutability": "nonpayable",
      "type": "function"
    }
  ],
  "bytecode": "0x608060405263c2d7bcc160e01b600360006101000a81548163ffffffff021916908360e01c021790555034801561003557600080fd5b50604051610e24380380610e248339818101604052602081101561005857600080fd5b810190808051906020019092919050505061007f6301ffc9a760e01b6100e460201b60201c565b80600360046101000a81548173ffffffffffffffffffffffffffffffffffffffff021916908373ffffffffffffffffffffffffffffffffffffffff1602179055506100de600360009054906101000a900460e01b6100e460201b60201c565b506101ec565b63ffffffff60e01b817bffffffffffffffffffffffffffffffffffffffffffffffffffffffff19161415610180576040517f08c379a000000000000000000000000000000000000000000000000000000000815260040180806020018281038252601c8152602001807f4552433136353a20696e76616c696420696e746572666163652069640000000081525060200191505060405180910390fd5b6001600080837bffffffffffffffffffffffffffffffffffffffffffffffffffffffff19167bffffffffffffffffffffffffffffffffffffffffffffffffffffffff1916815260200190815260200160002060006101000a81548160ff02191690831515021790555050565b610c29806101fb6000396000f3fe608060405234801561001057600080fd5b506004361061009e5760003560e01c80635dab2420116100665780635dab242014610232578063b31610db14610266578063b93f9b0a146102be578063c0a4ebf414610316578063c2d7bcc1146103755761009e565b806301ffc9a7146100a35780631f7b6d3214610106578063322433e31461012457806338eada1c1461017e5780634ba79dfe146101d8575b600080fd5b6100ee600480360360208110156100b957600080fd5b8101908080357bffffffffffffffffffffffffffffffffffffffffffffffffffffffff1916906020019092919050505061046e565b60405180821515815260200191505060405180910390f35b61010e6104d5565b6040518082815260200191505060405180910390f35b6101666004803603602081101561013a57600080fd5b81019080803573ffffffffffffffffffffffffffffffffffffffff1690602001909291905050506104e6565b60405180821515815260200191505060405180910390f35b6101c06004803603602081101561019457600080fd5b81019080803573ffffffffffffffffffffffffffffffffffffffff169060200190929190505050610503565b60405180821515815260200191505060405180910390f35b61021a600480360360208110156101ee57600080fd5b81019080803573ffffffffffffffffffffffffffffffffffffffff1690602001909291905050506105c6565b60405180821515815260200191505060405180910390f35b61023a610689565b604051808273ffffffffffffffffffffffffffffffffffffffff16815260200191505060405180910390f35b6102a86004803603602081101561027c57600080fd5b81019080803573ffffffffffffffffffffffffffffffffffffffff1690602001909291905050506106af565b6040518082815260200191505060405180910390f35b6102ea600480360360208110156102d457600080fd5b8101908080359060200190929190505050610773565b604051808273ffffffffffffffffffffffffffffffffffffffff16815260200191505060405180910390f35b61031e610790565b6040518080602001828103825283818151815260200191508051906020019060200280838360005b83811015610361578082015181840152602081019050610346565b505050509050019250505060405180910390f35b6104586004803603606081101561038b57600080fd5b81019080803573ffffffffffffffffffffffffffffffffffffffff16906020019092919080359060200190929190803590602001906401000000008111156103d257600080fd5b8201836020820111156103e457600080fd5b8035906020019184600183028401116401000000008311171561040657600080fd5b91908080601f016020809104026020016040519081016040528093929190818152602001838380828437600081840152601f19601f8201169050808301925050505050505091929192905050506107ee565b6040518082815260200191505060405180910390f35b6000806000837bffffffffffffffffffffffffffffffffffffffffffffffffffffffff19167bffffffffffffffffffffffffffffffffffffffffffffffffffffffff1916815260200190815260200160002060009054906101000a900460ff169050919050565b60006104e160016108d6565b905090565b60006104fc8260016108eb90919063ffffffff16565b9050919050565b6000600360049054906101000a900473ffffffffffffffffffffffffffffffffffffffff1673ffffffffffffffffffffffffffffffffffffffff163373ffffffffffffffffffffffffffffffffffffffff16146105ab576040517f08c379a000000000000000000000000000000000000000000000000000000000815260040180806020018281038252602d815260200180610bc7602d913960400191505060405180910390fd5b6105bf82600161091b90919063ffffffff16565b9050919050565b6000600360049054906101000a900473ffffffffffffffffffffffffffffffffffffffff1673ffffffffffffffffffffffffffffffffffffffff163373ffffffffffffffffffffffffffffffffffffffff161461066e576040517f08c379a000000000000000000000000000000000000000000000000000000000815260040180806020018281038252602d815260200180610bc7602d913960400191505060405180910390fd5b61068282600161094b90919063ffffffff16565b9050919050565b600360049054906101000a900473ffffffffffffffffffffffffffffffffffffffff1681565b60006106c58260016108eb90919063ffffffff16565b610737576040517f08c379a000000000000000000000000000000000000000000000000000000000815260040180806020018281038252601e8152602001807f456e756d657261626c655365743a20496e646578206e6f7420666f756e64000081525060200191505060405180910390fd5b60018060000160010160008473ffffffffffffffffffffffffffffffffffffffff1660001b815260200190815260200160002054039050919050565b600061078982600161097b90919063ffffffff16565b9050919050565b606060016000016000018054806020026020016040519081016040528092919081815260200182805480156107e457602002820191906000526020600020905b8154815260200190600101908083116107d0575b5050505050905090565b6000600360049054906101000a900473ffffffffffffffffffffffffffffffffffffffff1673ffffffffffffffffffffffffffffffffffffffff163373ffffffffffffffffffffffffffffffffffffffff1614610896576040517f08c379a000000000000000000000000000000000000000000000000000000000815260040180806020018281038252602d815260200180610bc7602d913960400191505060405180910390fd5b7fb281fc8c12954d22544db45de3159a39272895b169a852b314f9cc762e44c53b60001b8314156108cc576108ca84610503565b505b8290509392505050565b60006108e482600001610995565b9050919050565b6000610913836000018373ffffffffffffffffffffffffffffffffffffffff1660001b6109a6565b905092915050565b6000610943836000018373ffffffffffffffffffffffffffffffffffffffff1660001b6109c9565b905092915050565b6000610973836000018373ffffffffffffffffffffffffffffffffffffffff1660001b610a39565b905092915050565b600061098a8360000183610b21565b60001c905092915050565b600081600001805490509050919050565b600080836001016000848152602001908152602001600020541415905092915050565b60006109d583836109a6565b610a2e578260000182908060018154018082558091505060019003906000526020600020016000909190919091505582600001805490508360010160008481526020019081526020016000208190555060019050610a33565b600090505b92915050565b60008083600101600084815260200190815260200160002054905060008114610b155760006001820390506000600186600001805490500390506000866000018281548110610a8457fe5b9060005260206000200154905080876000018481548110610aa157fe5b9060005260206000200181905550600183018760010160008381526020019081526020016000208190555086600001805480610ad957fe5b60019003818190600052602060002001600090559055866001016000878152602001908152602001600020600090556001945050505050610b1b565b60009150505b92915050565b600081836000018054905011610b82576040517f08c379a0000000000000000000000000000000000000000000000000000000008152600401808060200182810382526022815260200180610ba56022913960400191505060405180910390fd5b826000018281548110610b9157fe5b906000526020600020015490509291505056fe456e756d657261626c655365743a20696e646578206f7574206f6620626f756e64734f6e6c792074686520636f6e6e6563746564206163636f756e742063616c6c20746869732066756e6374696f6ea2646970667358221220a6e94073d3cd028c6cacdec8f32547cc6af38974cea5bd30cea118e6f4e5cd6164736f6c634300060c0033",
  "immutableReferences": {},
  "source": "// SPDX-License-Identifier: Apache-2.0\npragma solidity ^0.6.0;\n\n// interfaces\nimport \"../_LSPs/ILSP1_UniversalReceiverDelegate.sol\";\n\n// modules\nimport \"../Registries/AddressRegistry.sol\";\nimport \"@openzeppelin/contracts/introspection/ERC165.sol\";\n\ncontract UniversalReceiverAddressStore is ERC165, ILSP1Delegate, AddressRegistry {\n\n    bytes4 _INTERFACE_ID_LSP1DELEGATE = 0xc2d7bcc1;\n\n    bytes32 constant internal _TOKENS_RECIPIENT_INTERFACE_HASH =\n    0xb281fc8c12954d22544db45de3159a39272895b169a852b314f9cc762e44c53b; // keccak256(\"ERC777TokensRecipient\")\n\n    address public account;\n\n    constructor(address _account) public {\n        account = _account;\n\n        _registerInterface(_INTERFACE_ID_LSP1DELEGATE);\n    }\n\n\n    function addAddress(address _address)\n    public\n    override\n    onlyAccount\n    returns(bool)\n    {\n        return addressSet.add(_address);\n    }\n\n    function removeAddress(address _address)\n    public\n    override\n    onlyAccount\n    returns(bool)\n    {\n        return addressSet.remove(_address);\n    }\n\n    function universalReceiverDelegate(address sender, bytes32 typeId, bytes memory)\n    external\n    override\n    onlyAccount\n    returns (bytes32)\n    {\n//        require(typeId == _TOKENS_RECIPIENT_INTERFACE_HASH, 'UniversalReceiverDelegate: Type not supported');\n\n        // store tokens only if received, DO NOT revert on _TOKENS_SENDER_INTERFACE_HASH\n        if(typeId == _TOKENS_RECIPIENT_INTERFACE_HASH)\n            addAddress(sender);\n\n        return typeId;\n    }\n\n    /* Modifers */\n    modifier onlyAccount() {\n        require(msg.sender == account, 'Only the connected account call this function');\n        _;\n    }\n}\n",
  "sourcePath": "/Users/frozeman/Sites/LUKSO/universalprofile-smart-contracts/contracts/UniversalReceiver/UniversalReceiverAddressStore.sol",
  "compiler": {
    "name": "solc",
    "version": "0.6.12+commit.27d51765.Emscripten.clang"
  },
  "schemaVersion": "3.3.4",
  "updatedAt": "2021-03-22T15:21:59.020Z",
  "devdoc": {
    "kind": "dev",
    "methods": {
      "supportsInterface(bytes4)": {
        "details": "See {IERC165-supportsInterface}. Time complexity O(1), guaranteed to always use less than 30 000 gas."
      }
    },
    "version": 1
  },
  "userdoc": {
    "kind": "user",
    "methods": {},
    "version": 1
  }
}