{
  "contractName": "Universal165",
  "abi": [
    {
      "inputs": [],
      "stateMutability": "nonpayable",
      "type": "constructor"
    },
    {
      "anonymous": false,
      "inputs": [
        {
          "indexed": true,
          "internalType": "address",
          "name": "from",
          "type": "address"
        },
        {
          "indexed": true,
          "internalType": "bytes32",
          "name": "typeId",
          "type": "bytes32"
        },
        {
          "indexed": true,
          "internalType": "bytes32",
          "name": "returnedValue",
          "type": "bytes32"
        },
        {
          "indexed": false,
          "internalType": "bytes",
          "name": "receivedData",
          "type": "bytes"
        }
      ],
      "name": "UniversalReceiver",
      "type": "event"
    },
    {
      "inputs": [
        {
          "internalType": "bytes32",
          "name": "",
          "type": "bytes32"
        }
      ],
      "name": "supportedHashes",
      "outputs": [
        {
          "internalType": "bool",
          "name": "",
          "type": "bool"
        }
      ],
      "stateMutability": "view",
      "type": "function"
    },
    {
      "inputs": [
        {
          "internalType": "bytes32",
          "name": "typeId",
          "type": "bytes32"
        },
        {
          "internalType": "bytes",
          "name": "",
          "type": "bytes"
        }
      ],
      "name": "universalReceiver",
      "outputs": [
        {
          "internalType": "bytes32",
          "name": "",
          "type": "bytes32"
        }
      ],
      "stateMutability": "nonpayable",
      "type": "function"
    }
  ],
  "bytecode": "0x608060405234801561001057600080fd5b5060016000807f385bbff703a06899061ed4429435f7c048ad373e3eb2af89c65aba709af58dd460001b815260200190815260200160002060006101000a81548160ff0219169083151502179055506102488061006e6000396000f3fe608060405234801561001057600080fd5b50600436106100365760003560e01c80636bb56a141461003b578063e53c745514610114575b600080fd5b6100fe6004803603604081101561005157600080fd5b81019080803590602001909291908035906020019064010000000081111561007857600080fd5b82018360208201111561008a57600080fd5b803590602001918460018302840111640100000000831117156100ac57600080fd5b91908080601f016020809104026020016040519081016040528093929190818152602001838380828437600081840152601f19601f820116905080830192505050505050509192919290505050610158565b6040518082815260200191505060405180910390f35b6101406004803603602081101561012a57600080fd5b81019080803590602001909291905050506101f2565b60405180821515815260200191505060405180910390f35b600080600084815260200190815260200160002060009054906101000a900460ff166101ec576040517f08c379a00000000000000000000000000000000000000000000000000000000081526004018080602001828103825260118152602001807f54797065206e6f74207375706f7274656400000000000000000000000000000081525060200191505060405180910390fd5b92915050565b60006020528060005260406000206000915054906101000a900460ff168156fea2646970667358221220f46dbd588aa918ea117adaf946d0d30f0de9aefbb1cbbcfa11848f8ce8898dee64736f6c634300060c0033",
  "immutableReferences": {},
  "source": "// SPDX-License-Identifier: Apache-2.0\npragma solidity ^0.6.0;\n\nimport \"../_LSPs/ILSP1_UniversalReceiver.sol\";\n\n\ncontract Universal165 is ILSP1 {\n\n    mapping(bytes32 => bool) public supportedHashes;\n\n    constructor() public {\n        //Supports ERC165\n        supportedHashes[0x385bbff703a06899061ed4429435f7c048ad373e3eb2af89c65aba709af58dd4] = true;\n    }\n\n    function universalReceiver(bytes32 typeId, bytes memory /*data*/) override external returns (bytes32) {\n        require(supportedHashes[typeId], \"Type not suported\");\n    }\n}\n",
  "sourcePath": "/Users/frozeman/Sites/LUKSO/universalprofile-smart-contracts/contracts/Registries/Universal165.sol",
  "compiler": {
    "name": "solc",
    "version": "0.6.12+commit.27d51765.Emscripten.clang"
  },
  "schemaVersion": "3.3.4",
  "updatedAt": "2021-03-22T15:21:59.016Z",
  "devdoc": {
    "kind": "dev",
    "methods": {},
    "version": 1
  },
  "userdoc": {
    "kind": "user",
    "methods": {},
    "version": 1
  }
}