{
  "contractName": "Universal165Query",
  "abi": [
    {
      "inputs": [
        {
          "internalType": "address",
          "name": "_contract",
          "type": "address"
        },
        {
          "internalType": "bytes32",
          "name": "_typeId",
          "type": "bytes32"
        }
      ],
      "name": "doesContractImplementInterface",
      "outputs": [
        {
          "internalType": "bool",
          "name": "",
          "type": "bool"
        }
      ],
      "stateMutability": "nonpayable",
      "type": "function"
    }
  ],
  "bytecode": "0x608060405234801561001057600080fd5b50610547806100206000396000f3fe608060405234801561001057600080fd5b506004361061002a5760003560e01c8062754d771461002f575b600080fd5b61007b6004803603604081101561004557600080fd5b81019080803573ffffffffffffffffffffffffffffffffffffffff16906020019092919080359060200190929190505050610093565b60405180821515815260200191505060405180910390f35b6000808373ffffffffffffffffffffffffffffffffffffffff167f385bbff703a06899061ed4429435f7c048ad373e3eb2af89c65aba709af58dd460001b6040516024018082815260200180602001828103825260008152602001602001925050506040516020818303038152906040527f31f60bff000000000000000000000000000000000000000000000000000000007bffffffffffffffffffffffffffffffffffffffffffffffffffffffff19166020820180517bffffffffffffffffffffffffffffffffffffffffffffffffffffffff83818316178352505050506040518082805190602001908083835b602083106101a55780518252602082019150602081019050602083039250610182565b6001836020036101000a0380198251168184511680821785525050505050509050019150506000604051808303816000865af19150503d8060008114610207576040519150601f19603f3d011682016040523d82523d6000602084013e61020c565b606091505b5050809150508061022157600091505061050b565b8373ffffffffffffffffffffffffffffffffffffffff167fffffffffffffffffffffffffffffffffffffffffffffffffffffffffffffffff60001b6040516024018082815260200180602001828103825260008152602001602001925050506040516020818303038152906040527f31f60bff000000000000000000000000000000000000000000000000000000007bffffffffffffffffffffffffffffffffffffffffffffffffffffffff19166020820180517bffffffffffffffffffffffffffffffffffffffffffffffffffffffff83818316178352505050506040518082805190602001908083835b60208310610330578051825260208201915060208101905060208303925061030d565b6001836020036101000a0380198251168184511680821785525050505050509050019150506000604051808303816000865af19150503d8060008114610392576040519150601f19603f3d011682016040523d82523d6000602084013e610397565b606091505b50508091505080156103ad57600091505061050b565b8373ffffffffffffffffffffffffffffffffffffffff16836040516024018082815260200180602001828103825260008152602001602001925050506040516020818303038152906040527f31f60bff000000000000000000000000000000000000000000000000000000007bffffffffffffffffffffffffffffffffffffffffffffffffffffffff19166020820180517bffffffffffffffffffffffffffffffffffffffffffffffffffffffff83818316178352505050506040518082805190602001908083835b602083106104995780518252602082019150602081019050602083039250610476565b6001836020036101000a0380198251168184511680821785525050505050509050019150506000604051808303816000865af19150503d80600081146104fb576040519150601f19603f3d011682016040523d82523d6000602084013e610500565b606091505b505080915050809150505b9291505056fea2646970667358221220fffd9c77da45c7e26895c224751d92505b0b100a91602d81aaba191d649d6f7964736f6c634300060c0033",
  "immutableReferences": {},
  "source": "// SPDX-License-Identifier: Apache-2.0\npragma solidity ^0.6.0;\n\ncontract Universal165Query {\n    bytes32 constant InvalidID = 0xffffffffffffffffffffffffffffffffffffffffffffffffffffffffffffffff;\n    bytes32 constant ERC165ID = 0x385bbff703a06899061ed4429435f7c048ad373e3eb2af89c65aba709af58dd4;\n\n    function doesContractImplementInterface(address _contract, bytes32 _typeId) external returns (bool) {\n        bool success;\n\n        (success, ) = _contract.call(abi.encodeWithSignature(\"universalReceiver(bytes32, bytes)\", ERC165ID, \"\"));\n        if(!success) { return false; }\n\n        (success, ) = _contract.call(abi.encodeWithSignature(\"universalReceiver(bytes32, bytes)\", InvalidID, \"\"));\n        if(success) { return false; }\n\n        (success, ) = _contract.call(abi.encodeWithSignature(\"universalReceiver(bytes32, bytes)\", _typeId, \"\"));\n        return success;\n    }\n}\n",
  "sourcePath": "/Users/frozeman/Sites/LUKSO/universalprofile-smart-contracts/contracts/Registries/Universal165Query.sol",
  "compiler": {
    "name": "solc",
    "version": "0.6.12+commit.27d51765.Emscripten.clang"
  },
  "schemaVersion": "3.3.4",
  "updatedAt": "2021-03-22T15:21:59.017Z",
  "devdoc": {
    "kind": "dev",
    "methods": {},
    "version": 1
  },
  "userdoc": {
    "kind": "user",
    "methods": {},
    "version": 1
  }
}