{
  "abi": [
    {
      "inputs": [
        {
          "internalType": "string",
          "name": "name_",
          "type": "string"
        },
        {
          "internalType": "string",
          "name": "symbol_",
          "type": "string"
        },
        {
          "internalType": "address",
          "name": "newOwner_",
          "type": "address"
        }
      ],
      "stateMutability": "nonpayable",
      "type": "constructor"
    },
    {
      "inputs": [
        {
          "internalType": "uint256",
          "name": "dataKeysLength",
          "type": "uint256"
        },
        {
          "internalType": "uint256",
          "name": "dataValuesLength",
          "type": "uint256"
        }
      ],
      "name": "ERC725Y_DataKeysValuesLengthMismatch",
      "type": "error"
    },
    {
      "inputs": [],
      "name": "LSP4TokenNameNotEditable",
      "type": "error"
    },
    {
      "inputs": [],
      "name": "LSP4TokenSymbolNotEditable",
      "type": "error"
    },
    {
      "inputs": [
        {
          "internalType": "address",
          "name": "tokenOwner",
          "type": "address"
        },
        {
          "internalType": "uint256",
          "name": "authorizedAmount",
          "type": "uint256"
        },
        {
          "internalType": "address",
          "name": "operator",
          "type": "address"
        },
        {
          "internalType": "uint256",
          "name": "amount",
          "type": "uint256"
        }
      ],
      "name": "LSP7AmountExceedsAuthorizedAmount",
      "type": "error"
    },
    {
      "inputs": [
        {
          "internalType": "uint256",
          "name": "balance",
          "type": "uint256"
        },
        {
          "internalType": "address",
          "name": "tokenOwner",
          "type": "address"
        },
        {
          "internalType": "uint256",
          "name": "amount",
          "type": "uint256"
        }
      ],
      "name": "LSP7AmountExceedsBalance",
      "type": "error"
    },
    {
      "inputs": [],
      "name": "LSP7CannotSendToSelf",
      "type": "error"
    },
    {
      "inputs": [],
      "name": "LSP7CannotSendWithAddressZero",
      "type": "error"
    },
    {
      "inputs": [],
      "name": "LSP7CannotUseAddressZeroAsOperator",
      "type": "error"
    },
    {
      "inputs": [],
      "name": "LSP7InvalidTransferBatch",
      "type": "error"
    },
    {
      "inputs": [
        {
          "internalType": "address",
          "name": "tokenReceiver",
          "type": "address"
        }
      ],
      "name": "LSP7NotifyTokenReceiverContractMissingLSP1Interface",
      "type": "error"
    },
    {
      "inputs": [
        {
          "internalType": "address",
          "name": "tokenReceiver",
          "type": "address"
        }
      ],
      "name": "LSP7NotifyTokenReceiverIsEOA",
      "type": "error"
    },
    {
      "anonymous": false,
      "inputs": [
        {
          "indexed": true,
          "internalType": "address",
          "name": "owner",
          "type": "address"
        },
        {
          "indexed": true,
          "internalType": "address",
          "name": "spender",
          "type": "address"
        },
        {
          "indexed": false,
          "internalType": "uint256",
          "name": "value",
          "type": "uint256"
        }
      ],
      "name": "Approval",
      "type": "event"
    },
    {
      "anonymous": false,
      "inputs": [
        {
          "indexed": true,
          "internalType": "address",
          "name": "operator",
          "type": "address"
        },
        {
          "indexed": true,
          "internalType": "address",
          "name": "tokenOwner",
          "type": "address"
        },
        {
          "indexed": true,
          "internalType": "uint256",
          "name": "amount",
          "type": "uint256"
        }
      ],
      "name": "AuthorizedOperator",
      "type": "event"
    },
    {
      "anonymous": false,
      "inputs": [
        {
          "indexed": true,
          "internalType": "bytes32",
          "name": "dataKey",
          "type": "bytes32"
        },
        {
          "indexed": false,
          "internalType": "bytes",
          "name": "dataValue",
          "type": "bytes"
        }
      ],
      "name": "DataChanged",
      "type": "event"
    },
    {
      "anonymous": false,
      "inputs": [
        {
          "indexed": true,
          "internalType": "address",
          "name": "previousOwner",
          "type": "address"
        },
        {
          "indexed": true,
          "internalType": "address",
          "name": "newOwner",
          "type": "address"
        }
      ],
      "name": "OwnershipTransferred",
      "type": "event"
    },
    {
      "anonymous": false,
      "inputs": [
        {
          "indexed": true,
          "internalType": "address",
          "name": "operator",
          "type": "address"
        },
        {
          "indexed": true,
          "internalType": "address",
          "name": "tokenOwner",
          "type": "address"
        }
      ],
      "name": "RevokedOperator",
      "type": "event"
    },
    {
      "anonymous": false,
      "inputs": [
        {
          "indexed": true,
          "internalType": "address",
          "name": "from",
          "type": "address"
        },
        {
          "indexed": true,
          "internalType": "address",
          "name": "to",
          "type": "address"
        },
        {
          "indexed": false,
          "internalType": "uint256",
          "name": "value",
          "type": "uint256"
        }
      ],
      "name": "Transfer",
      "type": "event"
    },
    {
      "anonymous": false,
      "inputs": [
        {
          "indexed": true,
          "internalType": "address",
          "name": "operator",
          "type": "address"
        },
        {
          "indexed": true,
          "internalType": "address",
          "name": "from",
          "type": "address"
        },
        {
          "indexed": true,
          "internalType": "address",
          "name": "to",
          "type": "address"
        },
        {
          "indexed": false,
          "internalType": "uint256",
          "name": "amount",
          "type": "uint256"
        },
        {
          "indexed": false,
          "internalType": "bool",
          "name": "force",
          "type": "bool"
        },
        {
          "indexed": false,
          "internalType": "bytes",
          "name": "data",
          "type": "bytes"
        }
      ],
      "name": "Transfer",
      "type": "event"
    },
    {
      "inputs": [
        {
          "internalType": "address",
          "name": "tokenOwner",
          "type": "address"
        },
        {
          "internalType": "address",
          "name": "operator",
          "type": "address"
        }
      ],
      "name": "allowance",
      "outputs": [
        {
          "internalType": "uint256",
          "name": "",
          "type": "uint256"
        }
      ],
      "stateMutability": "view",
      "type": "function"
    },
    {
      "inputs": [
        {
          "internalType": "address",
          "name": "operator",
          "type": "address"
        },
        {
          "internalType": "uint256",
          "name": "amount",
          "type": "uint256"
        }
      ],
      "name": "approve",
      "outputs": [
        {
          "internalType": "bool",
          "name": "",
          "type": "bool"
        }
      ],
      "stateMutability": "nonpayable",
      "type": "function"
    },
    {
      "inputs": [
        {
          "internalType": "address",
          "name": "operator",
          "type": "address"
        },
        {
          "internalType": "uint256",
          "name": "amount",
          "type": "uint256"
        }
      ],
      "name": "authorizeOperator",
      "outputs": [],
      "stateMutability": "nonpayable",
      "type": "function"
    },
    {
      "inputs": [
        {
          "internalType": "address",
          "name": "operator",
          "type": "address"
        },
        {
          "internalType": "address",
          "name": "tokenOwner",
          "type": "address"
        }
      ],
      "name": "authorizedAmountFor",
      "outputs": [
        {
          "internalType": "uint256",
          "name": "",
          "type": "uint256"
        }
      ],
      "stateMutability": "view",
      "type": "function"
    },
    {
      "inputs": [
        {
          "internalType": "address",
          "name": "tokenOwner",
          "type": "address"
        }
      ],
      "name": "balanceOf",
      "outputs": [
        {
          "internalType": "uint256",
          "name": "",
          "type": "uint256"
        }
      ],
      "stateMutability": "view",
      "type": "function"
    },
    {
      "inputs": [],
      "name": "decimals",
      "outputs": [
        {
          "internalType": "uint8",
          "name": "",
          "type": "uint8"
        }
      ],
      "stateMutability": "view",
      "type": "function"
    },
    {
      "inputs": [
        {
          "internalType": "bytes32[]",
          "name": "dataKeys",
          "type": "bytes32[]"
        }
      ],
      "name": "getData",
      "outputs": [
        {
          "internalType": "bytes[]",
          "name": "dataValues",
          "type": "bytes[]"
        }
      ],
      "stateMutability": "view",
      "type": "function"
    },
    {
      "inputs": [
        {
          "internalType": "bytes32",
          "name": "dataKey",
          "type": "bytes32"
        }
      ],
      "name": "getData",
      "outputs": [
        {
          "internalType": "bytes",
          "name": "dataValue",
          "type": "bytes"
        }
      ],
      "stateMutability": "view",
      "type": "function"
    },
    {
      "inputs": [
        {
          "internalType": "address",
          "name": "to",
          "type": "address"
        },
        {
          "internalType": "uint256",
          "name": "amount",
          "type": "uint256"
        },
        {
          "internalType": "bool",
          "name": "force",
          "type": "bool"
        },
        {
          "internalType": "bytes",
          "name": "data",
          "type": "bytes"
        }
      ],
      "name": "mint",
      "outputs": [],
      "stateMutability": "nonpayable",
      "type": "function"
    },
    {
      "inputs": [],
      "name": "name",
      "outputs": [
        {
          "internalType": "string",
          "name": "",
          "type": "string"
        }
      ],
      "stateMutability": "view",
      "type": "function"
    },
    {
      "inputs": [],
      "name": "owner",
      "outputs": [
        {
          "internalType": "address",
          "name": "",
          "type": "address"
        }
      ],
      "stateMutability": "view",
      "type": "function"
    },
    {
      "inputs": [],
      "name": "renounceOwnership",
      "outputs": [],
      "stateMutability": "nonpayable",
      "type": "function"
    },
    {
      "inputs": [
        {
          "internalType": "address",
          "name": "operator",
          "type": "address"
        }
      ],
      "name": "revokeOperator",
      "outputs": [],
      "stateMutability": "nonpayable",
      "type": "function"
    },
    {
      "inputs": [
        {
          "internalType": "bytes32[]",
          "name": "dataKeys",
          "type": "bytes32[]"
        },
        {
          "internalType": "bytes[]",
          "name": "dataValues",
          "type": "bytes[]"
        }
      ],
      "name": "setData",
      "outputs": [],
      "stateMutability": "nonpayable",
      "type": "function"
    },
    {
      "inputs": [
        {
          "internalType": "bytes32",
          "name": "dataKey",
          "type": "bytes32"
        },
        {
          "internalType": "bytes",
          "name": "dataValue",
          "type": "bytes"
        }
      ],
      "name": "setData",
      "outputs": [],
      "stateMutability": "nonpayable",
      "type": "function"
    },
    {
      "inputs": [
        {
          "internalType": "bytes4",
          "name": "interfaceId",
          "type": "bytes4"
        }
      ],
      "name": "supportsInterface",
      "outputs": [
        {
          "internalType": "bool",
          "name": "",
          "type": "bool"
        }
      ],
      "stateMutability": "view",
      "type": "function"
    },
    {
      "inputs": [],
      "name": "symbol",
      "outputs": [
        {
          "internalType": "string",
          "name": "",
          "type": "string"
        }
      ],
      "stateMutability": "view",
      "type": "function"
    },
    {
      "inputs": [],
      "name": "totalSupply",
      "outputs": [
        {
          "internalType": "uint256",
          "name": "",
          "type": "uint256"
        }
      ],
      "stateMutability": "view",
      "type": "function"
    },
    {
      "inputs": [
        {
          "internalType": "address",
          "name": "from",
          "type": "address"
        },
        {
          "internalType": "address",
          "name": "to",
          "type": "address"
        },
        {
          "internalType": "uint256",
          "name": "amount",
          "type": "uint256"
        },
        {
          "internalType": "bool",
          "name": "force",
          "type": "bool"
        },
        {
          "internalType": "bytes",
          "name": "data",
          "type": "bytes"
        }
      ],
      "name": "transfer",
      "outputs": [],
      "stateMutability": "nonpayable",
      "type": "function"
    },
    {
      "inputs": [
        {
          "internalType": "address",
          "name": "to",
          "type": "address"
        },
        {
          "internalType": "uint256",
          "name": "amount",
          "type": "uint256"
        }
      ],
      "name": "transfer",
      "outputs": [
        {
          "internalType": "bool",
          "name": "",
          "type": "bool"
        }
      ],
      "stateMutability": "nonpayable",
      "type": "function"
    },
    {
      "inputs": [
        {
          "internalType": "address[]",
          "name": "from",
          "type": "address[]"
        },
        {
          "internalType": "address[]",
          "name": "to",
          "type": "address[]"
        },
        {
          "internalType": "uint256[]",
          "name": "amount",
          "type": "uint256[]"
        },
        {
          "internalType": "bool[]",
          "name": "force",
          "type": "bool[]"
        },
        {
          "internalType": "bytes[]",
          "name": "data",
          "type": "bytes[]"
        }
      ],
      "name": "transferBatch",
      "outputs": [],
      "stateMutability": "nonpayable",
      "type": "function"
    },
    {
      "inputs": [
        {
          "internalType": "address",
          "name": "from",
          "type": "address"
        },
        {
          "internalType": "address",
          "name": "to",
          "type": "address"
        },
        {
          "internalType": "uint256",
          "name": "amount",
          "type": "uint256"
        }
      ],
      "name": "transferFrom",
      "outputs": [
        {
          "internalType": "bool",
          "name": "",
          "type": "bool"
        }
      ],
      "stateMutability": "nonpayable",
      "type": "function"
    },
    {
      "inputs": [
        {
          "internalType": "address",
          "name": "newOwner",
          "type": "address"
        }
      ],
      "name": "transferOwnership",
      "outputs": [],
      "stateMutability": "nonpayable",
      "type": "function"
    }
  ],
  "bytecode": {
    "object": "0x60806040523480156200001157600080fd5b50604051620022953803806200229583398101604081905262000034916200033d565b8282828282826000838383806001600160a01b038116620000aa5760405162461bcd60e51b815260206004820152602660248201527f4f776e61626c653a206e6577206f776e657220697320746865207a65726f206160448201526564647265737360d01b606482015260840160405180910390fd5b620000c081620001b060201b6200087c1760201c565b50620001177feafec4d89fa9619884b60000a4d96624a38f7ac2d8d9a604ecf07c12c77e480c60001b604051806040016040528060048152602001632936598960e21b8152506200021760201b620008e11760201c565b620001517fdeba1e292f8ba88238e10ab3c7f88bd4be4fac56cad5194b6ecceaf653468af160001b846200021760201b620008e11760201c565b6200018b7f2f0a68ab07768e01943a599e73362a0e17a63a72e94dd2e384d2c1d4db93275660001b836200021760201b620008e11760201c565b50506002805460ff191692151592909217909155506200055a98505050505050505050565b6000546001600160a01b038281169116146200021457600080546001600160a01b038381166001600160a01b0319831681178455604051919092169283917f8be0079c531659141344cd1fd0a4f28419497f9722a3daafe3b4186f6b6457e09190a3505b50565b600082815260016020526040902062000231828262000459565b50817fece574603820d07bc9b91f2a932baadf4628aabcb8afba49776529c14a6104b28260405162000264919062000525565b60405180910390a25050565b634e487b7160e01b600052604160045260246000fd5b60005b83811015620002a357818101518382015260200162000289565b50506000910152565b600082601f830112620002be57600080fd5b81516001600160401b0380821115620002db57620002db62000270565b604051601f8301601f19908116603f0116810190828211818310171562000306576200030662000270565b816040528381528660208588010111156200032057600080fd5b6200033384602083016020890162000286565b9695505050505050565b6000806000606084860312156200035357600080fd5b83516001600160401b03808211156200036b57600080fd5b6200037987838801620002ac565b945060208601519150808211156200039057600080fd5b506200039f86828701620002ac565b604086015190935090506001600160a01b0381168114620003bf57600080fd5b809150509250925092565b600181811c90821680620003df57607f821691505b6020821081036200040057634e487b7160e01b600052602260045260246000fd5b50919050565b601f8211156200045457600081815260208120601f850160051c810160208610156200042f5750805b601f850160051c820191505b8181101562000450578281556001016200043b565b5050505b505050565b81516001600160401b0381111562000475576200047562000270565b6200048d81620004868454620003ca565b8462000406565b602080601f831160018114620004c55760008415620004ac5750858301515b600019600386901b1c1916600185901b17855562000450565b600085815260208120601f198616915b82811015620004f657888601518255948401946001909101908401620004d5565b5085821015620005155787850151600019600388901b60f8161c191681555b5050505050600190811b01905550565b60208152600082518060208401526200054681604085016020870162000286565b601f01601f19169190910160400192915050565b611d2b806200056a6000396000f3fe608060405234801561001057600080fd5b506004361061014d5760003560e01c806365aeaa95116100c35780638da5cb5b1161007c5780638da5cb5b146102cc57806395d89b41146102e7578063a9059cbb146102ef578063dd62ed3e14610302578063f2fde38b14610315578063fad8b32a1461032857600080fd5b806365aeaa951461024f57806370a0823114610262578063715018a61461028b5780637580d92014610293578063760d9bba146102a65780637f23690c146102b957600080fd5b806323b872dd1161011557806323b872dd146101c95780632d7667c9146101dc578063313ce567146101ef57806347980aa3146102095780634e3e6e9c1461021c57806354f6127f1461023c57600080fd5b806301ffc9a71461015257806306fdde031461017a578063095ea7b31461018f57806314a6e293146101a257806318160ddd146101b7575b600080fd5b610165610160366004611378565b61033b565b60405190151581526020015b60405180910390f35b61018261034c565b60405161017191906113f2565b61016561019d366004611421565b610379565b6101b56101b0366004611616565b61038e565b005b6003545b604051908152602001610171565b6101656101d7366004611679565b61041f565b6101b56101ea366004611789565b610448565b6101f7610537565b60405160ff9091168152602001610171565b6101b5610217366004611421565b610550565b61022f61022a36600461185a565b61055f565b6040516101719190611896565b61018261024a3660046118f8565b610612565b6101bb61025d366004611911565b61061d565b6101bb610270366004611944565b6001600160a01b031660009081526004602052604090205490565b6101b5610683565b6101b56102a136600461195f565b610697565b6101b56102b43660046119c6565b6106b1565b6101b56102c7366004611a31565b610786565b6000546040516001600160a01b039091168152602001610171565b610182610798565b6101656102fd366004611421565b6107c5565b6101bb610310366004611911565b6107e4565b6101b5610323366004611944565b6107f7565b6101b5610336366004611944565b610870565b600061034682610936565b92915050565b606060006103467fdeba1e292f8ba88238e10ab3c7f88bd4be4fac56cad5194b6ecceaf653468af161095b565b60006103858383610550565b50600192915050565b6103966109fd565b80518251146103ca57815181516040516321d1e13360e11b8152600481019290925260248201526044015b60405180910390fd5b60005b825181101561041a576104128382815181106103eb576103eb611a6d565b602002602001015183838151811061040557610405611a6d565b6020026020010151610a66565b6001016103cd565b505050565b600061043e8484846001604051806020016040528060008152506106b1565b5060019392505050565b845184518114158061045b575083518114155b80610467575082518114155b80610473575081518114155b156104915760405163263eee8d60e01b815260040160405180910390fd5b60005b8181101561052e576105268782815181106104b1576104b1611a6d565b60200260200101518783815181106104cb576104cb611a6d565b60200260200101518784815181106104e5576104e5611a6d565b60200260200101518785815181106104ff576104ff611a6d565b602002602001015187868151811061051957610519611a6d565b60200260200101516106b1565b600101610494565b50505050505050565b60025460009060ff1661054a5750601290565b50600090565b61055b338383610a70565b5050565b606081516001600160401b0381111561057a5761057a61144b565b6040519080825280602002602001820160405280156105ad57816020015b60608152602001906001900390816105985790505b50905060005b825181101561060c576105de8382815181106105d1576105d1611a6d565b602002602001015161095b565b8282815181106105f0576105f0611a6d565b60200260200101819052506106058160010190565b90506105b3565b50919050565b60606103468261095b565b6000826001600160a01b0316826001600160a01b03160361065757506001600160a01b038116600090815260046020526040902054610346565b506001600160a01b03808216600090815260056020908152604080832093861683529290522054610346565b61068b6109fd565b610695600061087c565b565b61069f6109fd565b6106ab84848484610acd565b50505050565b836001600160a01b0316856001600160a01b0316036106e257604051620b9afb60ec1b815260040160405180910390fd5b336001600160a01b0386168114610771576001600160a01b038087166000908152600560209081526040808320938516835292905220548085111561075b5760405163f3a6b69160e01b81526001600160a01b0380891660048301526024820183905283166044820152606481018690526084016103c1565b61076f878361076a8885611a99565b610a70565b505b61077e8686868686610b20565b505050505050565b61078e6109fd565b61055b8282610a66565b606060006103467f2f0a68ab07768e01943a599e73362a0e17a63a72e94dd2e384d2c1d4db93275661095b565b60006103853384846001604051806020016040528060008152506106b1565b60006107f0828461061d565b9392505050565b6107ff6109fd565b6001600160a01b0381166108645760405162461bcd60e51b815260206004820152602660248201527f4f776e61626c653a206e6577206f776e657220697320746865207a65726f206160448201526564647265737360d01b60648201526084016103c1565b61086d8161087c565b50565b61086d33826000610a70565b6000546001600160a01b0382811691161461086d57600080546001600160a01b038381166001600160a01b0319831681178455604051919092169283917f8be0079c531659141344cd1fd0a4f28419497f9722a3daafe3b4186f6b6457e09190a35050565b60008281526001602052604090206108f98282611b26565b50817fece574603820d07bc9b91f2a932baadf4628aabcb8afba49776529c14a6104b28260405161092a91906113f2565b60405180910390a25050565b60006001600160e01b03198216633687e17960e21b1480610346575061034682610b81565b600081815260016020526040902080546060919061097890611aac565b80601f01602080910402602001604051908101604052809291908181526020018280546109a490611aac565b80156109f15780601f106109c6576101008083540402835291602001916109f1565b820191906000526020600020905b8154815290600101906020018083116109d457829003601f168201915b50505050509050919050565b33610a106000546001600160a01b031690565b6001600160a01b0316146106955760405162461bcd60e51b815260206004820181905260248201527f4f776e61626c653a2063616c6c6572206973206e6f7420746865206f776e657260448201526064016103c1565b61055b8282610bb6565b610a7b838383610c9e565b816001600160a01b0316836001600160a01b03167f8c5be1e5ebec7d5bd14f71427d1e84f3dd0314c0f7b2291e5b200ac8c7c3b92583604051610ac091815260200190565b60405180910390a3505050565b610ad984848484610d9c565b6040518381526001600160a01b038516906000907fddf252ad1be2c89b69c2b068fc378daa952ba7f163c4a11628f55a4df523b3ef9060200160405180910390a350505050565b610b2d8585858585610e79565b836001600160a01b0316856001600160a01b03167fddf252ad1be2c89b69c2b068fc378daa952ba7f163c4a11628f55a4df523b3ef85604051610b7291815260200190565b60405180910390a35050505050565b60006001600160e01b03198216631c537ddf60e21b148061034657506301ffc9a760e01b6001600160e01b0319831614610346565b7f2145e1d6d074577dc71ef54c3807742b41b053a9352ae6b491331509acb9750f8201610bf6576040516385c169bd60e01b815260040160405180910390fd5b7fd0f59754f88971fe6bc5a6618cc9d5f1e859c58d16b22d1c7b2d3e2b246cd8aa8201610c3657604051630eceab6760e31b815260040160405180910390fd5b6000828152600160205260409020610c4e8282611b26565b50817fece574603820d07bc9b91f2a932baadf4628aabcb8afba49776529c14a6104b261010083511115610c8f57610c8a836000610100610fd6565b610c91565b825b60405161092a91906113f2565b6001600160a01b038216610cc5576040516331aaf3b360e11b815260040160405180910390fd5b826001600160a01b0316826001600160a01b031603610ce357505050565b6001600160a01b0380841660009081526005602090815260408083209386168352929052208190558015610d575780836001600160a01b0316836001600160a01b03167fd66aff874162a96578e919097b6f6d153dfd89a5cec41bb331fdb0c4aec16e2c60405160405180910390a4505050565b826001600160a01b0316826001600160a01b03167f50546e66e5f44d728365dc3908c63bc5cfeeab470722c1677e3073a6ac294aa160405160405180910390a3505050565b6001600160a01b038416610dc357604051630d2d5ec360e41b815260040160405180910390fd5b338360036000828254610dd69190611be5565b90915550506001600160a01b03851660009081526004602052604081208054869290610e03908490611be5565b92505081905550846001600160a01b031660006001600160a01b0316826001600160a01b03167f3997e418d2cef0b3b0e907b1e39605c3f7d32dbd061e82ea5b4a770d46a160a6878787604051610e5c93929190611bf8565b60405180910390a4610e726000868686866110e3565b5050505050565b6001600160a01b0385161580610e9657506001600160a01b038416155b15610eb457604051630d2d5ec360e41b815260040160405180910390fd5b6001600160a01b03851660009081526004602052604090205480841115610f07576040516308d4794960e01b8152600481018290526001600160a01b0387166024820152604481018590526064016103c1565b336001600160a01b03871660009081526004602052604081208054879290610f30908490611a99565b90915550506001600160a01b03861660009081526004602052604081208054879290610f5d908490611be5565b92505081905550856001600160a01b0316876001600160a01b0316826001600160a01b03167f3997e418d2cef0b3b0e907b1e39605c3f7d32dbd061e82ea5b4a770d46a160a6888888604051610fb593929190611bf8565b60405180910390a4610fc98787878661121b565b61052e87878787876110e3565b606081610fe481601f611be5565b10156110235760405162461bcd60e51b815260206004820152600e60248201526d736c6963655f6f766572666c6f7760901b60448201526064016103c1565b61102d8284611be5565b845110156110715760405162461bcd60e51b8152602060048201526011602482015270736c6963655f6f75744f66426f756e647360781b60448201526064016103c1565b60608215801561109057604051915060008252602082016040526110da565b6040519150601f8416801560200281840101858101878315602002848b0101015b818310156110c95780518352602092830192016110b1565b5050858452601f01601f1916604052505b50949350505050565b6110f484631aed5a8560e21b6112ef565b156111be576000858585846040516020016111129493929190611c22565b60408051601f1981840301815290829052631aed5a8560e21b825291506001600160a01b03861690636bb56a1490611170907f20804611b3e2ea21c480dc465142210acf4a2485947541770ec1fb87dee4a55c908590600401611c6f565b6000604051808303816000875af115801561118f573d6000803e3d6000fd5b505050506040513d6000823e601f3d908101601f191682016040526111b79190810190611c88565b5050610e72565b81610e72576001600160a01b0384163b156111f7576040516353047ddb60e11b81526001600160a01b03851660048201526024016103c1565b6040516309b091fd60e21b81526001600160a01b03851660048201526024016103c1565b61122c84631aed5a8560e21b6112ef565b156106ab5760008484848460405160200161124a9493929190611c22565b60408051601f1981840301815290829052631aed5a8560e21b825291506001600160a01b03861690636bb56a14906112a8907f429ac7a06903dbc9c13dfcb3c9d11df8194581fa047c96d7a4171fc7402958ea908590600401611c6f565b6000604051808303816000875af11580156112c7573d6000803e3d6000fd5b505050506040513d6000823e601f3d908101601f1916820160405261077e9190810190611c88565b604080516001600160e01b03198316602480830191909152825180830390910181526044909101909152602080820180516001600160e01b03166301ffc9a760e01b178152825160009392849283928392918391908a617530fa92503d91506000519050828015611361575060208210155b801561136d5750600081115b979650505050505050565b60006020828403121561138a57600080fd5b81356001600160e01b0319811681146107f057600080fd5b60005b838110156113bd5781810151838201526020016113a5565b50506000910152565b600081518084526113de8160208601602086016113a2565b601f01601f19169290920160200192915050565b6020815260006107f060208301846113c6565b80356001600160a01b038116811461141c57600080fd5b919050565b6000806040838503121561143457600080fd5b61143d83611405565b946020939093013593505050565b634e487b7160e01b600052604160045260246000fd5b604051601f8201601f191681016001600160401b03811182821017156114895761148961144b565b604052919050565b60006001600160401b038211156114aa576114aa61144b565b5060051b60200190565b600082601f8301126114c557600080fd5b813560206114da6114d583611491565b611461565b82815260059290921b840181019181810190868411156114f957600080fd5b8286015b8481101561151457803583529183019183016114fd565b509695505050505050565b60006001600160401b038211156115385761153861144b565b50601f01601f191660200190565b600082601f83011261155757600080fd5b81356115656114d58261151f565b81815284602083860101111561157a57600080fd5b816020850160208301376000918101602001919091529392505050565b600082601f8301126115a857600080fd5b813560206115b86114d583611491565b82815260059290921b840181019181810190868411156115d757600080fd5b8286015b848110156115145780356001600160401b038111156115fa5760008081fd5b6116088986838b0101611546565b8452509183019183016115db565b6000806040838503121561162957600080fd5b82356001600160401b038082111561164057600080fd5b61164c868387016114b4565b9350602085013591508082111561166257600080fd5b5061166f85828601611597565b9150509250929050565b60008060006060848603121561168e57600080fd5b61169784611405565b92506116a560208501611405565b9150604084013590509250925092565b600082601f8301126116c657600080fd5b813560206116d66114d583611491565b82815260059290921b840181019181810190868411156116f557600080fd5b8286015b848110156115145761170a81611405565b83529183019183016116f9565b8035801515811461141c57600080fd5b600082601f83011261173857600080fd5b813560206117486114d583611491565b82815260059290921b8401810191818101908684111561176757600080fd5b8286015b848110156115145761177c81611717565b835291830191830161176b565b600080600080600060a086880312156117a157600080fd5b85356001600160401b03808211156117b857600080fd5b6117c489838a016116b5565b965060208801359150808211156117da57600080fd5b6117e689838a016116b5565b955060408801359150808211156117fc57600080fd5b61180889838a016114b4565b9450606088013591508082111561181e57600080fd5b61182a89838a01611727565b9350608088013591508082111561184057600080fd5b5061184d88828901611597565b9150509295509295909350565b60006020828403121561186c57600080fd5b81356001600160401b0381111561188257600080fd5b61188e848285016114b4565b949350505050565b6000602080830181845280855180835260408601915060408160051b870101925083870160005b828110156118eb57603f198886030184526118d98583516113c6565b945092850192908501906001016118bd565b5092979650505050505050565b60006020828403121561190a57600080fd5b5035919050565b6000806040838503121561192457600080fd5b61192d83611405565b915061193b60208401611405565b90509250929050565b60006020828403121561195657600080fd5b6107f082611405565b6000806000806080858703121561197557600080fd5b61197e85611405565b93506020850135925061199360408601611717565b915060608501356001600160401b038111156119ae57600080fd5b6119ba87828801611546565b91505092959194509250565b600080600080600060a086880312156119de57600080fd5b6119e786611405565b94506119f560208701611405565b935060408601359250611a0a60608701611717565b915060808601356001600160401b03811115611a2557600080fd5b61184d88828901611546565b60008060408385031215611a4457600080fd5b8235915060208301356001600160401b03811115611a6157600080fd5b61166f85828601611546565b634e487b7160e01b600052603260045260246000fd5b634e487b7160e01b600052601160045260246000fd5b8181038181111561034657610346611a83565b600181811c90821680611ac057607f821691505b60208210810361060c57634e487b7160e01b600052602260045260246000fd5b601f82111561041a57600081815260208120601f850160051c81016020861015611b075750805b601f850160051c820191505b8181101561077e57828155600101611b13565b81516001600160401b03811115611b3f57611b3f61144b565b611b5381611b4d8454611aac565b84611ae0565b602080601f831160018114611b885760008415611b705750858301515b600019600386901b1c1916600185901b17855561077e565b600085815260208120601f198616915b82811015611bb757888601518255948401946001909101908401611b98565b5085821015611bd55787850151600019600388901b60f8161c191681555b5050505050600190811b01905550565b8082018082111561034657610346611a83565b8381528215156020820152606060408201526000611c1960608301846113c6565b95945050505050565b60006bffffffffffffffffffffffff19808760601b168352808660601b166014840152508360288301528251611c5f8160488501602087016113a2565b9190910160480195945050505050565b82815260406020820152600061188e60408301846113c6565b600060208284031215611c9a57600080fd5b81516001600160401b03811115611cb057600080fd5b8201601f81018413611cc157600080fd5b8051611ccf6114d58261151f565b818152856020838501011115611ce457600080fd5b611c198260208301602086016113a256fea2646970667358221220a7652e0a8453060d25791317aaa5b3b103a7fde5f8f9a59d20e7b958ad2fcd5c64736f6c63430008110033",
    "linkReferences": {}
  },
  "methodIdentifiers": {
    "allowance(address,address)": "dd62ed3e",
    "approve(address,uint256)": "095ea7b3",
    "authorizeOperator(address,uint256)": "47980aa3",
    "authorizedAmountFor(address,address)": "65aeaa95",
    "balanceOf(address)": "70a08231",
    "decimals()": "313ce567",
    "getData(bytes32)": "54f6127f",
    "getData(bytes32[])": "4e3e6e9c",
    "mint(address,uint256,bool,bytes)": "7580d920",
    "name()": "06fdde03",
    "owner()": "8da5cb5b",
    "renounceOwnership()": "715018a6",
    "revokeOperator(address)": "fad8b32a",
    "setData(bytes32,bytes)": "7f23690c",
    "setData(bytes32[],bytes[])": "14a6e293",
    "supportsInterface(bytes4)": "01ffc9a7",
    "symbol()": "95d89b41",
    "totalSupply()": "18160ddd",
    "transfer(address,address,uint256,bool,bytes)": "760d9bba",
    "transfer(address,uint256)": "a9059cbb",
    "transferBatch(address[],address[],uint256[],bool[],bytes[])": "2d7667c9",
    "transferFrom(address,address,uint256)": "23b872dd",
    "transferOwnership(address)": "f2fde38b"
  },
  "id": 56
}