{
  "abi": [
    {
      "inputs": [
        {
          "internalType": "address",
          "name": "txOrigin",
          "type": "address"
        },
        {
          "internalType": "address",
          "name": "msgSender",
          "type": "address"
        }
      ],
      "name": "RevertWithAddresses",
      "type": "error"
    },
    {
      "inputs": [],
      "name": "revertCustom",
      "outputs": [],
      "stateMutability": "view",
      "type": "function"
    }
  ],
  "bytecode": {
    "object": "0x6080604052348015600f57600080fd5b5060908061001e6000396000f3fe6080604052348015600f57600080fd5b506004361060285760003560e01c80631ed106b814602d575b600080fd5b60336035565b005b604051633b9322b960e21b815232600482015233602482015260440160405180910390fdfea264697066735822122088d23197a15211eee2a11a2b099c8b25369fc598391402883fc213777581b26364736f6c63430008110033",
    "linkReferences": {}
  },
  "methodIdentifiers": {
    "revertCustom()": "1ed106b8"
  },
  "id": 109
}