{
  "abi": [
    {
      "inputs": [
        {
          "internalType": "address",
          "name": "_address",
          "type": "address"
        }
      ],
      "name": "addAddress",
      "outputs": [
        {
          "internalType": "bool",
          "name": "",
          "type": "bool"
        }
      ],
      "stateMutability": "nonpayable",
      "type": "function"
    },
    {
      "inputs": [
        {
          "internalType": "address",
          "name": "_address",
          "type": "address"
        }
      ],
      "name": "containsAddress",
      "outputs": [
        {
          "internalType": "bool",
          "name": "",
          "type": "bool"
        }
      ],
      "stateMutability": "view",
      "type": "function"
    },
    {
      "inputs": [
        {
          "internalType": "uint256",
          "name": "_index",
          "type": "uint256"
        }
      ],
      "name": "getAddress",
      "outputs": [
        {
          "internalType": "address",
          "name": "",
          "type": "address"
        }
      ],
      "stateMutability": "view",
      "type": "function"
    },
    {
      "inputs": [],
      "name": "getAllRawValues",
      "outputs": [
        {
          "internalType": "bytes32[]",
          "name": "",
          "type": "bytes32[]"
        }
      ],
      "stateMutability": "view",
      "type": "function"
    },
    {
      "inputs": [
        {
          "internalType": "address",
          "name": "_address",
          "type": "address"
        }
      ],
      "name": "getIndex",
      "outputs": [
        {
          "internalType": "uint256",
          "name": "",
          "type": "uint256"
        }
      ],
      "stateMutability": "view",
      "type": "function"
    },
    {
      "inputs": [],
      "name": "length",
      "outputs": [
        {
          "internalType": "uint256",
          "name": "",
          "type": "uint256"
        }
      ],
      "stateMutability": "view",
      "type": "function"
    },
    {
      "inputs": [
        {
          "internalType": "address",
          "name": "_address",
          "type": "address"
        }
      ],
      "name": "removeAddress",
      "outputs": [
        {
          "internalType": "bool",
          "name": "",
          "type": "bool"
        }
      ],
      "stateMutability": "nonpayable",
      "type": "function"
    },
    {
      "inputs": [
        {
          "internalType": "bytes4",
          "name": "interfaceId",
          "type": "bytes4"
        }
      ],
      "name": "supportsInterface",
      "outputs": [
        {
          "internalType": "bool",
          "name": "",
          "type": "bool"
        }
      ],
      "stateMutability": "view",
      "type": "function"
    }
  ],
  "bytecode": {
    "object": "0x608060405234801561001057600080fd5b506107c6806100206000396000f3fe608060405234801561001057600080fd5b50600436106100885760003560e01c80634ba79dfe1161005b5780634ba79dfe146100f1578063b31610db14610104578063b93f9b0a14610117578063c0a4ebf41461014257600080fd5b806301ffc9a71461008d5780631f7b6d32146100b5578063322433e3146100cb57806338eada1c146100de575b600080fd5b6100a061009b366004610671565b610157565b60405190151581526020015b60405180910390f35b6100bd610197565b6040519081526020016100ac565b6100a06100d936600461069b565b6101a8565b6100a06100ec36600461069b565b6101b5565b6100a06100ff36600461069b565b61028f565b6100bd61011236600461069b565b6103be565b61012a6101253660046106c4565b61043c565b6040516001600160a01b0390911681526020016100ac565b61014a610449565b6040516100ac91906106dd565b60006301ffc9a760e01b6001600160e01b03198316148061019157506001600160e01b0319821660009081526020819052604090205460ff165b92915050565b60006101a360016104a0565b905090565b60006101916001836104aa565b6040516301ffc9a760e01b8152631c537ddf60e21b60048201526000906001600160a01b038316906301ffc9a790602401602060405180830381865afa158015610203573d6000803e3d6000fd5b505050506040513d601f19601f820116820180604052508101906102279190610721565b6102845760405162461bcd60e51b815260206004820152602360248201527f4f6e6c792045524337323559206164647265737365732063616e20626520616460448201526219195960ea1b60648201526084015b60405180910390fd5b6101916001836104cf565b6040516301ffc9a760e01b8152631c537ddf60e21b600482015260009033906301ffc9a790602401602060405180830381865afa1580156102d4573d6000803e3d6000fd5b505050506040513d601f19601f820116820180604052508101906102f89190610721565b6103505760405162461bcd60e51b815260206004820152602360248201527f4f6e6c7920455243373235592063616e2063616c6c20746869732066756e637460448201526234b7b760e91b606482015260840161027b565b336001600160a01b038316146103b35760405162461bcd60e51b815260206004820152602260248201527f4f6e6c7920616e20616464726573732063616e2072656d6f766520697473656c604482015261331760f11b606482015260840161027b565b6101916001836104e4565b60006103cb6001836104aa565b6104175760405162461bcd60e51b815260206004820152601e60248201527f456e756d657261626c655365743a20496e646578206e6f7420666f756e640000604482015260640161027b565b6001600160a01b03821660009081526002602052604090205461019190600190610743565b60006101916001836104f9565b60018054604080516020808402820181019092528281526060939092909183018282801561049657602002820191906000526020600020905b815481526020019060010190808311610482575b5050505050905090565b6000610191825490565b6001600160a01b038116600090815260018301602052604081205415155b9392505050565b60006104c8836001600160a01b038416610505565b60006104c8836001600160a01b038416610554565b60006104c88383610647565b600081815260018301602052604081205461054c57508154600181810184556000848152602080822090930184905584548482528286019093526040902091909155610191565b506000610191565b6000818152600183016020526040812054801561063d576000610578600183610743565b855490915060009061058c90600190610743565b90508181146105f15760008660000182815481106105ac576105ac610764565b90600052602060002001549050808760000184815481106105cf576105cf610764565b6000918252602080832090910192909255918252600188019052604090208390555b85548690806106025761060261077a565b600190038181906000526020600020016000905590558560010160008681526020019081526020016000206000905560019350505050610191565b6000915050610191565b600082600001828154811061065e5761065e610764565b9060005260206000200154905092915050565b60006020828403121561068357600080fd5b81356001600160e01b0319811681146104c857600080fd5b6000602082840312156106ad57600080fd5b81356001600160a01b03811681146104c857600080fd5b6000602082840312156106d657600080fd5b5035919050565b6020808252825182820181905260009190848201906040850190845b81811015610715578351835292840192918401916001016106f9565b50909695505050505050565b60006020828403121561073357600080fd5b815180151581146104c857600080fd5b8181038181111561019157634e487b7160e01b600052601160045260246000fd5b634e487b7160e01b600052603260045260246000fd5b634e487b7160e01b600052603160045260246000fdfea2646970667358221220d954a0074edabf4969abab6de58d84533a252065c7d0fca897fa79a741ed698664736f6c63430008110033",
    "linkReferences": {}
  },
  "methodIdentifiers": {
    "addAddress(address)": "38eada1c",
    "containsAddress(address)": "322433e3",
    "getAddress(uint256)": "b93f9b0a",
    "getAllRawValues()": "c0a4ebf4",
    "getIndex(address)": "b31610db",
    "length()": "1f7b6d32",
    "removeAddress(address)": "4ba79dfe",
    "supportsInterface(bytes4)": "01ffc9a7"
  },
  "id": 89
}