{
  "abi": [
    {
      "inputs": [
        {
          "internalType": "string",
          "name": "name",
          "type": "string"
        },
        {
          "internalType": "string",
          "name": "symbol",
          "type": "string"
        },
        {
          "internalType": "address",
          "name": "newOwner",
          "type": "address"
        },
        {
          "internalType": "uint256",
          "name": "tokenSupplyCap",
          "type": "uint256"
        }
      ],
      "stateMutability": "nonpayable",
      "type": "constructor"
    },
    {
      "inputs": [
        {
          "internalType": "uint256",
          "name": "dataKeysLength",
          "type": "uint256"
        },
        {
          "internalType": "uint256",
          "name": "dataValuesLength",
          "type": "uint256"
        }
      ],
      "name": "ERC725Y_DataKeysValuesLengthMismatch",
      "type": "error"
    },
    {
      "inputs": [],
      "name": "LSP4TokenNameNotEditable",
      "type": "error"
    },
    {
      "inputs": [],
      "name": "LSP4TokenSymbolNotEditable",
      "type": "error"
    },
    {
      "inputs": [
        {
          "internalType": "address",
          "name": "tokenOwner",
          "type": "address"
        },
        {
          "internalType": "uint256",
          "name": "authorizedAmount",
          "type": "uint256"
        },
        {
          "internalType": "address",
          "name": "operator",
          "type": "address"
        },
        {
          "internalType": "uint256",
          "name": "amount",
          "type": "uint256"
        }
      ],
      "name": "LSP7AmountExceedsAuthorizedAmount",
      "type": "error"
    },
    {
      "inputs": [
        {
          "internalType": "uint256",
          "name": "balance",
          "type": "uint256"
        },
        {
          "internalType": "address",
          "name": "tokenOwner",
          "type": "address"
        },
        {
          "internalType": "uint256",
          "name": "amount",
          "type": "uint256"
        }
      ],
      "name": "LSP7AmountExceedsBalance",
      "type": "error"
    },
    {
      "inputs": [],
      "name": "LSP7CannotSendToSelf",
      "type": "error"
    },
    {
      "inputs": [],
      "name": "LSP7CannotSendWithAddressZero",
      "type": "error"
    },
    {
      "inputs": [],
      "name": "LSP7CannotUseAddressZeroAsOperator",
      "type": "error"
    },
    {
      "inputs": [],
      "name": "LSP7CappedSupplyCannotMintOverCap",
      "type": "error"
    },
    {
      "inputs": [],
      "name": "LSP7CappedSupplyRequired",
      "type": "error"
    },
    {
      "inputs": [],
      "name": "LSP7InvalidTransferBatch",
      "type": "error"
    },
    {
      "inputs": [
        {
          "internalType": "address",
          "name": "tokenReceiver",
          "type": "address"
        }
      ],
      "name": "LSP7NotifyTokenReceiverContractMissingLSP1Interface",
      "type": "error"
    },
    {
      "inputs": [
        {
          "internalType": "address",
          "name": "tokenReceiver",
          "type": "address"
        }
      ],
      "name": "LSP7NotifyTokenReceiverIsEOA",
      "type": "error"
    },
    {
      "anonymous": false,
      "inputs": [
        {
          "indexed": true,
          "internalType": "address",
          "name": "operator",
          "type": "address"
        },
        {
          "indexed": true,
          "internalType": "address",
          "name": "tokenOwner",
          "type": "address"
        },
        {
          "indexed": true,
          "internalType": "uint256",
          "name": "amount",
          "type": "uint256"
        }
      ],
      "name": "AuthorizedOperator",
      "type": "event"
    },
    {
      "anonymous": false,
      "inputs": [
        {
          "indexed": true,
          "internalType": "bytes32",
          "name": "dataKey",
          "type": "bytes32"
        },
        {
          "indexed": false,
          "internalType": "bytes",
          "name": "dataValue",
          "type": "bytes"
        }
      ],
      "name": "DataChanged",
      "type": "event"
    },
    {
      "anonymous": false,
      "inputs": [
        {
          "indexed": true,
          "internalType": "address",
          "name": "previousOwner",
          "type": "address"
        },
        {
          "indexed": true,
          "internalType": "address",
          "name": "newOwner",
          "type": "address"
        }
      ],
      "name": "OwnershipTransferred",
      "type": "event"
    },
    {
      "anonymous": false,
      "inputs": [
        {
          "indexed": true,
          "internalType": "address",
          "name": "operator",
          "type": "address"
        },
        {
          "indexed": true,
          "internalType": "address",
          "name": "tokenOwner",
          "type": "address"
        }
      ],
      "name": "RevokedOperator",
      "type": "event"
    },
    {
      "anonymous": false,
      "inputs": [
        {
          "indexed": true,
          "internalType": "address",
          "name": "operator",
          "type": "address"
        },
        {
          "indexed": true,
          "internalType": "address",
          "name": "from",
          "type": "address"
        },
        {
          "indexed": true,
          "internalType": "address",
          "name": "to",
          "type": "address"
        },
        {
          "indexed": false,
          "internalType": "uint256",
          "name": "amount",
          "type": "uint256"
        },
        {
          "indexed": false,
          "internalType": "bool",
          "name": "force",
          "type": "bool"
        },
        {
          "indexed": false,
          "internalType": "bytes",
          "name": "data",
          "type": "bytes"
        }
      ],
      "name": "Transfer",
      "type": "event"
    },
    {
      "inputs": [
        {
          "internalType": "address",
          "name": "operator",
          "type": "address"
        },
        {
          "internalType": "uint256",
          "name": "amount",
          "type": "uint256"
        }
      ],
      "name": "authorizeOperator",
      "outputs": [],
      "stateMutability": "nonpayable",
      "type": "function"
    },
    {
      "inputs": [
        {
          "internalType": "address",
          "name": "operator",
          "type": "address"
        },
        {
          "internalType": "address",
          "name": "tokenOwner",
          "type": "address"
        }
      ],
      "name": "authorizedAmountFor",
      "outputs": [
        {
          "internalType": "uint256",
          "name": "",
          "type": "uint256"
        }
      ],
      "stateMutability": "view",
      "type": "function"
    },
    {
      "inputs": [
        {
          "internalType": "address",
          "name": "tokenOwner",
          "type": "address"
        }
      ],
      "name": "balanceOf",
      "outputs": [
        {
          "internalType": "uint256",
          "name": "",
          "type": "uint256"
        }
      ],
      "stateMutability": "view",
      "type": "function"
    },
    {
      "inputs": [
        {
          "internalType": "address",
          "name": "from",
          "type": "address"
        },
        {
          "internalType": "uint256",
          "name": "amount",
          "type": "uint256"
        }
      ],
      "name": "burn",
      "outputs": [],
      "stateMutability": "nonpayable",
      "type": "function"
    },
    {
      "inputs": [],
      "name": "decimals",
      "outputs": [
        {
          "internalType": "uint8",
          "name": "",
          "type": "uint8"
        }
      ],
      "stateMutability": "view",
      "type": "function"
    },
    {
      "inputs": [
        {
          "internalType": "bytes32[]",
          "name": "dataKeys",
          "type": "bytes32[]"
        }
      ],
      "name": "getData",
      "outputs": [
        {
          "internalType": "bytes[]",
          "name": "dataValues",
          "type": "bytes[]"
        }
      ],
      "stateMutability": "view",
      "type": "function"
    },
    {
      "inputs": [
        {
          "internalType": "bytes32",
          "name": "dataKey",
          "type": "bytes32"
        }
      ],
      "name": "getData",
      "outputs": [
        {
          "internalType": "bytes",
          "name": "dataValue",
          "type": "bytes"
        }
      ],
      "stateMutability": "view",
      "type": "function"
    },
    {
      "inputs": [
        {
          "internalType": "address",
          "name": "to",
          "type": "address"
        },
        {
          "internalType": "uint256",
          "name": "amount",
          "type": "uint256"
        }
      ],
      "name": "mint",
      "outputs": [],
      "stateMutability": "nonpayable",
      "type": "function"
    },
    {
      "inputs": [],
      "name": "owner",
      "outputs": [
        {
          "internalType": "address",
          "name": "",
          "type": "address"
        }
      ],
      "stateMutability": "view",
      "type": "function"
    },
    {
      "inputs": [],
      "name": "renounceOwnership",
      "outputs": [],
      "stateMutability": "nonpayable",
      "type": "function"
    },
    {
      "inputs": [
        {
          "internalType": "address",
          "name": "operator",
          "type": "address"
        }
      ],
      "name": "revokeOperator",
      "outputs": [],
      "stateMutability": "nonpayable",
      "type": "function"
    },
    {
      "inputs": [
        {
          "internalType": "bytes32[]",
          "name": "dataKeys",
          "type": "bytes32[]"
        },
        {
          "internalType": "bytes[]",
          "name": "dataValues",
          "type": "bytes[]"
        }
      ],
      "name": "setData",
      "outputs": [],
      "stateMutability": "nonpayable",
      "type": "function"
    },
    {
      "inputs": [
        {
          "internalType": "bytes32",
          "name": "dataKey",
          "type": "bytes32"
        },
        {
          "internalType": "bytes",
          "name": "dataValue",
          "type": "bytes"
        }
      ],
      "name": "setData",
      "outputs": [],
      "stateMutability": "nonpayable",
      "type": "function"
    },
    {
      "inputs": [
        {
          "internalType": "bytes4",
          "name": "interfaceId",
          "type": "bytes4"
        }
      ],
      "name": "supportsInterface",
      "outputs": [
        {
          "internalType": "bool",
          "name": "",
          "type": "bool"
        }
      ],
      "stateMutability": "view",
      "type": "function"
    },
    {
      "inputs": [],
      "name": "tokenSupplyCap",
      "outputs": [
        {
          "internalType": "uint256",
          "name": "",
          "type": "uint256"
        }
      ],
      "stateMutability": "view",
      "type": "function"
    },
    {
      "inputs": [],
      "name": "totalSupply",
      "outputs": [
        {
          "internalType": "uint256",
          "name": "",
          "type": "uint256"
        }
      ],
      "stateMutability": "view",
      "type": "function"
    },
    {
      "inputs": [
        {
          "internalType": "address",
          "name": "from",
          "type": "address"
        },
        {
          "internalType": "address",
          "name": "to",
          "type": "address"
        },
        {
          "internalType": "uint256",
          "name": "amount",
          "type": "uint256"
        },
        {
          "internalType": "bool",
          "name": "force",
          "type": "bool"
        },
        {
          "internalType": "bytes",
          "name": "data",
          "type": "bytes"
        }
      ],
      "name": "transfer",
      "outputs": [],
      "stateMutability": "nonpayable",
      "type": "function"
    },
    {
      "inputs": [
        {
          "internalType": "address[]",
          "name": "from",
          "type": "address[]"
        },
        {
          "internalType": "address[]",
          "name": "to",
          "type": "address[]"
        },
        {
          "internalType": "uint256[]",
          "name": "amount",
          "type": "uint256[]"
        },
        {
          "internalType": "bool[]",
          "name": "force",
          "type": "bool[]"
        },
        {
          "internalType": "bytes[]",
          "name": "data",
          "type": "bytes[]"
        }
      ],
      "name": "transferBatch",
      "outputs": [],
      "stateMutability": "nonpayable",
      "type": "function"
    },
    {
      "inputs": [
        {
          "internalType": "address",
          "name": "newOwner",
          "type": "address"
        }
      ],
      "name": "transferOwnership",
      "outputs": [],
      "stateMutability": "nonpayable",
      "type": "function"
    }
  ],
  "bytecode": {
    "object": "0x60806040523480156200001157600080fd5b506040516200224938038062002249833981016040819052620000349162000360565b808484846001838383806001600160a01b038116620000a85760405162461bcd60e51b815260206004820152602660248201527f4f776e61626c653a206e6577206f776e657220697320746865207a65726f206160448201526564647265737360d01b606482015260840160405180910390fd5b620000be81620001d360201b620007b11760201c565b50620001157feafec4d89fa9619884b60000a4d96624a38f7ac2d8d9a604ecf07c12c77e480c60001b604051806040016040528060048152602001632936598960e21b8152506200023a60201b620008161760201c565b6200014f7fdeba1e292f8ba88238e10ab3c7f88bd4be4fac56cad5194b6ecceaf653468af160001b846200023a60201b620008161760201c565b620001897f2f0a68ab07768e01943a599e73362a0e17a63a72e94dd2e384d2c1d4db93275660001b836200023a60201b620008161760201c565b50506002805460ff19169215159290921790915550505060008290039050620001c55760405163acf1d8c560e01b815260040160405180910390fd5b600655506200058392505050565b6000546001600160a01b038281169116146200023757600080546001600160a01b038381166001600160a01b0319831681178455604051919092169283917f8be0079c531659141344cd1fd0a4f28419497f9722a3daafe3b4186f6b6457e09190a3505b50565b600082815260016020526040902062000254828262000482565b50817fece574603820d07bc9b91f2a932baadf4628aabcb8afba49776529c14a6104b2826040516200028791906200054e565b60405180910390a25050565b634e487b7160e01b600052604160045260246000fd5b60005b83811015620002c6578181015183820152602001620002ac565b50506000910152565b600082601f830112620002e157600080fd5b81516001600160401b0380821115620002fe57620002fe62000293565b604051601f8301601f19908116603f0116810190828211818310171562000329576200032962000293565b816040528381528660208588010111156200034357600080fd5b62000356846020830160208901620002a9565b9695505050505050565b600080600080608085870312156200037757600080fd5b84516001600160401b03808211156200038f57600080fd5b6200039d88838901620002cf565b95506020870151915080821115620003b457600080fd5b50620003c387828801620002cf565b604087015190945090506001600160a01b0381168114620003e357600080fd5b6060959095015193969295505050565b600181811c908216806200040857607f821691505b6020821081036200042957634e487b7160e01b600052602260045260246000fd5b50919050565b601f8211156200047d57600081815260208120601f850160051c81016020861015620004585750805b601f850160051c820191505b81811015620004795782815560010162000464565b5050505b505050565b81516001600160401b038111156200049e576200049e62000293565b620004b681620004af8454620003f3565b846200042f565b602080601f831160018114620004ee5760008415620004d55750858301515b600019600386901b1c1916600185901b17855562000479565b600085815260208120601f198616915b828110156200051f57888601518255948401946001909101908401620004fe565b50858210156200053e5787850151600019600388901b60f8161c191681555b5050505050600190811b01905550565b60208152600082518060208401526200056f816040850160208701620002a9565b601f01601f19169190910160400192915050565b611cb680620005936000396000f3fe608060405234801561001057600080fd5b50600436106101215760003560e01c806354f6127f116100ad5780637f23690c116100715780637f23690c146102675780638da5cb5b1461027a5780639dc29fac14610295578063f2fde38b146102a8578063fad8b32a146102bb57600080fd5b806354f6127f146101f057806365aeaa951461021057806370a0823114610223578063715018a61461024c578063760d9bba1461025457600080fd5b8063313ce567116100f4578063313ce5671461018857806340c10f19146101a257806347980aa3146101b55780634e3e6e9c146101c857806352058d8a146101e857600080fd5b806301ffc9a71461012657806314a6e2931461014e57806318160ddd146101635780632d7667c914610175575b600080fd5b610139610134366004611394565b6102ce565b60405190151581526020015b60405180910390f35b61016161015c366004611594565b6102f9565b005b6003545b604051908152602001610145565b6101616101833660046116e8565b61038a565b610190610479565b60405160ff9091168152602001610145565b6101616101b03660046117ba565b610492565b6101616101c33660046117ba565b6104d0565b6101db6101d63660046117e4565b6104db565b6040516101459190611871565b600654610167565b6102036101fe3660046118d3565b61058f565b60405161014591906118ec565b61016761021e3660046118ff565b61059a565b610167610231366004611932565b6001600160a01b031660009081526004602052604090205490565b610161610601565b61016161026236600461194d565b610615565b6101616102753660046119b9565b6106ea565b6000546040516001600160a01b039091168152602001610145565b6101616102a33660046117ba565b6106fc565b6101616102b6366004611932565b61072c565b6101616102c9366004611932565b6107a5565b60006001600160e01b03198216633687e17960e21b14806102f357506102f38261086b565b92915050565b6103016108a0565b805182511461033557815181516040516321d1e13360e11b8152600481019290925260248201526044015b60405180910390fd5b60005b82518110156103855761037d838281518110610356576103566119f6565b6020026020010151838381518110610370576103706119f6565b6020026020010151610909565b600101610338565b505050565b845184518114158061039d575083518114155b806103a9575082518114155b806103b5575081518114155b156103d35760405163263eee8d60e01b815260040160405180910390fd5b60005b81811015610470576104688782815181106103f3576103f36119f6565b602002602001015187838151811061040d5761040d6119f6565b6020026020010151878481518110610427576104276119f6565b6020026020010151878581518110610441576104416119f6565b602002602001015187868151811061045b5761045b6119f6565b6020026020010151610615565b6001016103d6565b50505050505050565b60025460009060ff1661048c5750601290565b50600090565b6104cc82826001604051806040016040528060158152602001743a37b5b2b710383934b73a32b91033b7903139393960591b8152506109f1565b5050565b6104cc338383610a39565b6060815167ffffffffffffffff8111156104f7576104f76113c5565b60405190808252806020026020018201604052801561052a57816020015b60608152602001906001900390816105155790505b50905060005b82518110156105895761055b83828151811061054e5761054e6119f6565b6020026020010151610b37565b82828151811061056d5761056d6119f6565b60200260200101819052506105828160010190565b9050610530565b50919050565b60606102f382610b37565b6000826001600160a01b0316826001600160a01b0316036105d457506001600160a01b0381166000908152600460205260409020546102f3565b506001600160a01b0380821660009081526005602090815260408083209386168352929052205492915050565b6106096108a0565b61061360006107b1565b565b836001600160a01b0316856001600160a01b03160361064657604051620b9afb60ec1b815260040160405180910390fd5b336001600160a01b03861681146106d5576001600160a01b03808716600090815260056020908152604080832093851683529290522054808511156106bf5760405163f3a6b69160e01b81526001600160a01b03808916600483015260248201839052831660448201526064810186905260840161032c565b6106d387836106ce8885611a22565b610a39565b505b6106e28686868686610bd9565b505050505050565b6106f26108a0565b6104cc8282610909565b6104cc82826040518060400160405280600d81526020016c3332b2b6103a343290313ab93760991b815250610d36565b6107346108a0565b6001600160a01b0381166107995760405162461bcd60e51b815260206004820152602660248201527f4f776e61626c653a206e6577206f776e657220697320746865207a65726f206160448201526564647265737360d01b606482015260840161032c565b6107a2816107b1565b50565b6107a233826000610a39565b6000546001600160a01b038281169116146107a257600080546001600160a01b038381166001600160a01b0319831681178455604051919092169283917f8be0079c531659141344cd1fd0a4f28419497f9722a3daafe3b4186f6b6457e09190a35050565b600082815260016020526040902061082e8282611aaf565b50817fece574603820d07bc9b91f2a932baadf4628aabcb8afba49776529c14a6104b28260405161085f91906118ec565b60405180910390a25050565b60006001600160e01b03198216631c537ddf60e21b14806102f357506301ffc9a760e01b6001600160e01b03198316146102f3565b336108b36000546001600160a01b031690565b6001600160a01b0316146106135760405162461bcd60e51b815260206004820181905260248201527f4f776e61626c653a2063616c6c6572206973206e6f7420746865206f776e6572604482015260640161032c565b7f2145e1d6d074577dc71ef54c3807742b41b053a9352ae6b491331509acb9750f8201610949576040516385c169bd60e01b815260040160405180910390fd5b7fd0f59754f88971fe6bc5a6618cc9d5f1e859c58d16b22d1c7b2d3e2b246cd8aa820161098957604051630eceab6760e31b815260040160405180910390fd5b60008281526001602052604090206109a18282611aaf565b50817fece574603820d07bc9b91f2a932baadf4628aabcb8afba49776529c14a6104b2610100835111156109e2576109dd836000610100610f1c565b6109e4565b825b60405161085f91906118ec565b600654836109fe60035490565b610a089190611b6f565b1115610a275760405163eacbf0d160e01b815260040160405180910390fd5b610a3384848484611029565b50505050565b6001600160a01b038216610a60576040516331aaf3b360e11b815260040160405180910390fd5b826001600160a01b0316826001600160a01b031603610a7e57505050565b6001600160a01b0380841660009081526005602090815260408083209386168352929052208190558015610af25780836001600160a01b0316836001600160a01b03167fd66aff874162a96578e919097b6f6d153dfd89a5cec41bb331fdb0c4aec16e2c60405160405180910390a4505050565b826001600160a01b0316826001600160a01b03167f50546e66e5f44d728365dc3908c63bc5cfeeab470722c1677e3073a6ac294aa160405160405180910390a3505050565b6000818152600160205260409020805460609190610b5490611a35565b80601f0160208091040260200160405190810160405280929190818152602001828054610b8090611a35565b8015610bcd5780601f10610ba257610100808354040283529160200191610bcd565b820191906000526020600020905b815481529060010190602001808311610bb057829003601f168201915b50505050509050919050565b6001600160a01b0385161580610bf657506001600160a01b038416155b15610c1457604051630d2d5ec360e41b815260040160405180910390fd5b6001600160a01b03851660009081526004602052604090205480841115610c67576040516308d4794960e01b8152600481018290526001600160a01b03871660248201526044810185905260640161032c565b336001600160a01b03871660009081526004602052604081208054879290610c90908490611a22565b90915550506001600160a01b03861660009081526004602052604081208054879290610cbd908490611b6f565b92505081905550856001600160a01b0316876001600160a01b0316826001600160a01b03167f3997e418d2cef0b3b0e907b1e39605c3f7d32dbd061e82ea5b4a770d46a160a6888888604051610d1593929190611b82565b60405180910390a4610d29878787866110ff565b61047087878787876111d3565b6001600160a01b038316610d5d57604051630d2d5ec360e41b815260040160405180910390fd5b6001600160a01b03831660009081526004602052604090205480831115610db0576040516308d4794960e01b8152600481018290526001600160a01b03851660248201526044810184905260640161032c565b336001600160a01b0385168114610e67576001600160a01b0380861660009081526005602090815260408083209385168352929052205480851115610e295760405163f3a6b69160e01b81526001600160a01b03808816600483015260248201839052831660448201526064810186905260840161032c565b6001600160a01b03808716600090815260056020908152604080832093861683529290529081208054879290610e60908490611a22565b9091555050505b8360036000828254610e799190611a22565b90915550506001600160a01b03851660009081526004602052604081208054869290610ea6908490611a22565b9250508190555060006001600160a01b0316856001600160a01b0316826001600160a01b03167f3997e418d2cef0b3b0e907b1e39605c3f7d32dbd061e82ea5b4a770d46a160a687600088604051610f0093929190611b82565b60405180910390a4610f1585600086866110ff565b5050505050565b606081610f2a81601f611b6f565b1015610f695760405162461bcd60e51b815260206004820152600e60248201526d736c6963655f6f766572666c6f7760901b604482015260640161032c565b610f738284611b6f565b84511015610fb75760405162461bcd60e51b8152602060048201526011602482015270736c6963655f6f75744f66426f756e647360781b604482015260640161032c565b606082158015610fd65760405191506000825260208201604052611020565b6040519150601f8416801560200281840101858101878315602002848b0101015b8183101561100f578051835260209283019201610ff7565b5050858452601f01601f1916604052505b50949350505050565b6001600160a01b03841661105057604051630d2d5ec360e41b815260040160405180910390fd5b3383600360008282546110639190611b6f565b90915550506001600160a01b03851660009081526004602052604081208054869290611090908490611b6f565b92505081905550846001600160a01b031660006001600160a01b0316826001600160a01b03167f3997e418d2cef0b3b0e907b1e39605c3f7d32dbd061e82ea5b4a770d46a160a68787876040516110e993929190611b82565b60405180910390a4610f156000868686866111d3565b61111084631aed5a8560e21b61130b565b15610a335760008484848460405160200161112e9493929190611bac565b60408051601f1981840301815290829052631aed5a8560e21b825291506001600160a01b03861690636bb56a149061118c907f429ac7a06903dbc9c13dfcb3c9d11df8194581fa047c96d7a4171fc7402958ea908590600401611bf9565b6000604051808303816000875af11580156111ab573d6000803e3d6000fd5b505050506040513d6000823e601f3d908101601f191682016040526106e29190810190611c12565b6111e484631aed5a8560e21b61130b565b156112ae576000858585846040516020016112029493929190611bac565b60408051601f1981840301815290829052631aed5a8560e21b825291506001600160a01b03861690636bb56a1490611260907f20804611b3e2ea21c480dc465142210acf4a2485947541770ec1fb87dee4a55c908590600401611bf9565b6000604051808303816000875af115801561127f573d6000803e3d6000fd5b505050506040513d6000823e601f3d908101601f191682016040526112a79190810190611c12565b5050610f15565b81610f15576001600160a01b0384163b156112e7576040516353047ddb60e11b81526001600160a01b038516600482015260240161032c565b6040516309b091fd60e21b81526001600160a01b038516600482015260240161032c565b604080516001600160e01b03198316602480830191909152825180830390910181526044909101909152602080820180516001600160e01b03166301ffc9a760e01b178152825160009392849283928392918391908a617530fa92503d9150600051905082801561137d575060208210155b80156113895750600081115b979650505050505050565b6000602082840312156113a657600080fd5b81356001600160e01b0319811681146113be57600080fd5b9392505050565b634e487b7160e01b600052604160045260246000fd5b604051601f8201601f1916810167ffffffffffffffff81118282101715611404576114046113c5565b604052919050565b600067ffffffffffffffff821115611426576114266113c5565b5060051b60200190565b600082601f83011261144157600080fd5b813560206114566114518361140c565b6113db565b82815260059290921b8401810191818101908684111561147557600080fd5b8286015b848110156114905780358352918301918301611479565b509695505050505050565b600067ffffffffffffffff8211156114b5576114b56113c5565b50601f01601f191660200190565b600082601f8301126114d457600080fd5b81356114e26114518261149b565b8181528460208386010111156114f757600080fd5b816020850160208301376000918101602001919091529392505050565b600082601f83011261152557600080fd5b813560206115356114518361140c565b82815260059290921b8401810191818101908684111561155457600080fd5b8286015b8481101561149057803567ffffffffffffffff8111156115785760008081fd5b6115868986838b01016114c3565b845250918301918301611558565b600080604083850312156115a757600080fd5b823567ffffffffffffffff808211156115bf57600080fd5b6115cb86838701611430565b935060208501359150808211156115e157600080fd5b506115ee85828601611514565b9150509250929050565b80356001600160a01b038116811461160f57600080fd5b919050565b600082601f83011261162557600080fd5b813560206116356114518361140c565b82815260059290921b8401810191818101908684111561165457600080fd5b8286015b8481101561149057611669816115f8565b8352918301918301611658565b8035801515811461160f57600080fd5b600082601f83011261169757600080fd5b813560206116a76114518361140c565b82815260059290921b840181019181810190868411156116c657600080fd5b8286015b84811015611490576116db81611676565b83529183019183016116ca565b600080600080600060a0868803121561170057600080fd5b853567ffffffffffffffff8082111561171857600080fd5b61172489838a01611614565b9650602088013591508082111561173a57600080fd5b61174689838a01611614565b9550604088013591508082111561175c57600080fd5b61176889838a01611430565b9450606088013591508082111561177e57600080fd5b61178a89838a01611686565b935060808801359150808211156117a057600080fd5b506117ad88828901611514565b9150509295509295909350565b600080604083850312156117cd57600080fd5b6117d6836115f8565b946020939093013593505050565b6000602082840312156117f657600080fd5b813567ffffffffffffffff81111561180d57600080fd5b61181984828501611430565b949350505050565b60005b8381101561183c578181015183820152602001611824565b50506000910152565b6000815180845261185d816020860160208601611821565b601f01601f19169290920160200192915050565b6000602080830181845280855180835260408601915060408160051b870101925083870160005b828110156118c657603f198886030184526118b4858351611845565b94509285019290850190600101611898565b5092979650505050505050565b6000602082840312156118e557600080fd5b5035919050565b6020815260006113be6020830184611845565b6000806040838503121561191257600080fd5b61191b836115f8565b9150611929602084016115f8565b90509250929050565b60006020828403121561194457600080fd5b6113be826115f8565b600080600080600060a0868803121561196557600080fd5b61196e866115f8565b945061197c602087016115f8565b93506040860135925061199160608701611676565b9150608086013567ffffffffffffffff8111156119ad57600080fd5b6117ad888289016114c3565b600080604083850312156119cc57600080fd5b82359150602083013567ffffffffffffffff8111156119ea57600080fd5b6115ee858286016114c3565b634e487b7160e01b600052603260045260246000fd5b634e487b7160e01b600052601160045260246000fd5b818103818111156102f3576102f3611a0c565b600181811c90821680611a4957607f821691505b60208210810361058957634e487b7160e01b600052602260045260246000fd5b601f82111561038557600081815260208120601f850160051c81016020861015611a905750805b601f850160051c820191505b818110156106e257828155600101611a9c565b815167ffffffffffffffff811115611ac957611ac96113c5565b611add81611ad78454611a35565b84611a69565b602080601f831160018114611b125760008415611afa5750858301515b600019600386901b1c1916600185901b1785556106e2565b600085815260208120601f198616915b82811015611b4157888601518255948401946001909101908401611b22565b5085821015611b5f5787850151600019600388901b60f8161c191681555b5050505050600190811b01905550565b808201808211156102f3576102f3611a0c565b8381528215156020820152606060408201526000611ba36060830184611845565b95945050505050565b60006bffffffffffffffffffffffff19808760601b168352808660601b166014840152508360288301528251611be9816048850160208701611821565b9190910160480195945050505050565b8281526040602082015260006118196040830184611845565b600060208284031215611c2457600080fd5b815167ffffffffffffffff811115611c3b57600080fd5b8201601f81018413611c4c57600080fd5b8051611c5a6114518261149b565b818152856020838501011115611c6f57600080fd5b611ba382602083016020860161182156fea264697066735822122000f5caf6a1dc51611ff4e65f3e63148eff6fb5fdb9c9b2b522e8e10fa0b7dd0c64736f6c63430008110033",
    "linkReferences": {}
  },
  "methodIdentifiers": {
    "authorizeOperator(address,uint256)": "47980aa3",
    "authorizedAmountFor(address,address)": "65aeaa95",
    "balanceOf(address)": "70a08231",
    "burn(address,uint256)": "9dc29fac",
    "decimals()": "313ce567",
    "getData(bytes32)": "54f6127f",
    "getData(bytes32[])": "4e3e6e9c",
    "mint(address,uint256)": "40c10f19",
    "owner()": "8da5cb5b",
    "renounceOwnership()": "715018a6",
    "revokeOperator(address)": "fad8b32a",
    "setData(bytes32,bytes)": "7f23690c",
    "setData(bytes32[],bytes[])": "14a6e293",
    "supportsInterface(bytes4)": "01ffc9a7",
    "tokenSupplyCap()": "52058d8a",
    "totalSupply()": "18160ddd",
    "transfer(address,address,uint256,bool,bytes)": "760d9bba",
    "transferBatch(address[],address[],uint256[],bool[],bytes[])": "2d7667c9",
    "transferOwnership(address)": "f2fde38b"
  },
  "id": 129
}