{
  "abi": [
    {
      "inputs": [],
      "stateMutability": "nonpayable",
      "type": "constructor"
    },
    {
      "inputs": [
        {
          "internalType": "uint256",
          "name": "dataKeysLength",
          "type": "uint256"
        },
        {
          "internalType": "uint256",
          "name": "dataValuesLength",
          "type": "uint256"
        }
      ],
      "name": "ERC725Y_DataKeysValuesLengthMismatch",
      "type": "error"
    },
    {
      "inputs": [],
      "name": "LSP4TokenNameNotEditable",
      "type": "error"
    },
    {
      "inputs": [],
      "name": "LSP4TokenSymbolNotEditable",
      "type": "error"
    },
    {
      "inputs": [
        {
          "internalType": "address",
          "name": "tokenOwner",
          "type": "address"
        },
        {
          "internalType": "uint256",
          "name": "authorizedAmount",
          "type": "uint256"
        },
        {
          "internalType": "address",
          "name": "operator",
          "type": "address"
        },
        {
          "internalType": "uint256",
          "name": "amount",
          "type": "uint256"
        }
      ],
      "name": "LSP7AmountExceedsAuthorizedAmount",
      "type": "error"
    },
    {
      "inputs": [
        {
          "internalType": "uint256",
          "name": "balance",
          "type": "uint256"
        },
        {
          "internalType": "address",
          "name": "tokenOwner",
          "type": "address"
        },
        {
          "internalType": "uint256",
          "name": "amount",
          "type": "uint256"
        }
      ],
      "name": "LSP7AmountExceedsBalance",
      "type": "error"
    },
    {
      "inputs": [],
      "name": "LSP7CannotSendToSelf",
      "type": "error"
    },
    {
      "inputs": [],
      "name": "LSP7CannotSendWithAddressZero",
      "type": "error"
    },
    {
      "inputs": [],
      "name": "LSP7CannotUseAddressZeroAsOperator",
      "type": "error"
    },
    {
      "inputs": [],
      "name": "LSP7InvalidTransferBatch",
      "type": "error"
    },
    {
      "inputs": [
        {
          "internalType": "address",
          "name": "tokenReceiver",
          "type": "address"
        }
      ],
      "name": "LSP7NotifyTokenReceiverContractMissingLSP1Interface",
      "type": "error"
    },
    {
      "inputs": [
        {
          "internalType": "address",
          "name": "tokenReceiver",
          "type": "address"
        }
      ],
      "name": "LSP7NotifyTokenReceiverIsEOA",
      "type": "error"
    },
    {
      "anonymous": false,
      "inputs": [
        {
          "indexed": true,
          "internalType": "address",
          "name": "owner",
          "type": "address"
        },
        {
          "indexed": true,
          "internalType": "address",
          "name": "spender",
          "type": "address"
        },
        {
          "indexed": false,
          "internalType": "uint256",
          "name": "value",
          "type": "uint256"
        }
      ],
      "name": "Approval",
      "type": "event"
    },
    {
      "anonymous": false,
      "inputs": [
        {
          "indexed": true,
          "internalType": "address",
          "name": "operator",
          "type": "address"
        },
        {
          "indexed": true,
          "internalType": "address",
          "name": "tokenOwner",
          "type": "address"
        },
        {
          "indexed": true,
          "internalType": "uint256",
          "name": "amount",
          "type": "uint256"
        }
      ],
      "name": "AuthorizedOperator",
      "type": "event"
    },
    {
      "anonymous": false,
      "inputs": [
        {
          "indexed": true,
          "internalType": "bytes32",
          "name": "dataKey",
          "type": "bytes32"
        },
        {
          "indexed": false,
          "internalType": "bytes",
          "name": "dataValue",
          "type": "bytes"
        }
      ],
      "name": "DataChanged",
      "type": "event"
    },
    {
      "anonymous": false,
      "inputs": [
        {
          "indexed": false,
          "internalType": "uint8",
          "name": "version",
          "type": "uint8"
        }
      ],
      "name": "Initialized",
      "type": "event"
    },
    {
      "anonymous": false,
      "inputs": [
        {
          "indexed": true,
          "internalType": "address",
          "name": "previousOwner",
          "type": "address"
        },
        {
          "indexed": true,
          "internalType": "address",
          "name": "newOwner",
          "type": "address"
        }
      ],
      "name": "OwnershipTransferred",
      "type": "event"
    },
    {
      "anonymous": false,
      "inputs": [
        {
          "indexed": true,
          "internalType": "address",
          "name": "operator",
          "type": "address"
        },
        {
          "indexed": true,
          "internalType": "address",
          "name": "tokenOwner",
          "type": "address"
        }
      ],
      "name": "RevokedOperator",
      "type": "event"
    },
    {
      "anonymous": false,
      "inputs": [
        {
          "indexed": true,
          "internalType": "address",
          "name": "from",
          "type": "address"
        },
        {
          "indexed": true,
          "internalType": "address",
          "name": "to",
          "type": "address"
        },
        {
          "indexed": false,
          "internalType": "uint256",
          "name": "value",
          "type": "uint256"
        }
      ],
      "name": "Transfer",
      "type": "event"
    },
    {
      "anonymous": false,
      "inputs": [
        {
          "indexed": true,
          "internalType": "address",
          "name": "operator",
          "type": "address"
        },
        {
          "indexed": true,
          "internalType": "address",
          "name": "from",
          "type": "address"
        },
        {
          "indexed": true,
          "internalType": "address",
          "name": "to",
          "type": "address"
        },
        {
          "indexed": false,
          "internalType": "uint256",
          "name": "amount",
          "type": "uint256"
        },
        {
          "indexed": false,
          "internalType": "bool",
          "name": "force",
          "type": "bool"
        },
        {
          "indexed": false,
          "internalType": "bytes",
          "name": "data",
          "type": "bytes"
        }
      ],
      "name": "Transfer",
      "type": "event"
    },
    {
      "inputs": [
        {
          "internalType": "address",
          "name": "tokenOwner",
          "type": "address"
        },
        {
          "internalType": "address",
          "name": "operator",
          "type": "address"
        }
      ],
      "name": "allowance",
      "outputs": [
        {
          "internalType": "uint256",
          "name": "",
          "type": "uint256"
        }
      ],
      "stateMutability": "view",
      "type": "function"
    },
    {
      "inputs": [
        {
          "internalType": "address",
          "name": "operator",
          "type": "address"
        },
        {
          "internalType": "uint256",
          "name": "amount",
          "type": "uint256"
        }
      ],
      "name": "approve",
      "outputs": [
        {
          "internalType": "bool",
          "name": "",
          "type": "bool"
        }
      ],
      "stateMutability": "nonpayable",
      "type": "function"
    },
    {
      "inputs": [
        {
          "internalType": "address",
          "name": "operator",
          "type": "address"
        },
        {
          "internalType": "uint256",
          "name": "amount",
          "type": "uint256"
        }
      ],
      "name": "authorizeOperator",
      "outputs": [],
      "stateMutability": "nonpayable",
      "type": "function"
    },
    {
      "inputs": [
        {
          "internalType": "address",
          "name": "operator",
          "type": "address"
        },
        {
          "internalType": "address",
          "name": "tokenOwner",
          "type": "address"
        }
      ],
      "name": "authorizedAmountFor",
      "outputs": [
        {
          "internalType": "uint256",
          "name": "",
          "type": "uint256"
        }
      ],
      "stateMutability": "view",
      "type": "function"
    },
    {
      "inputs": [
        {
          "internalType": "address",
          "name": "tokenOwner",
          "type": "address"
        }
      ],
      "name": "balanceOf",
      "outputs": [
        {
          "internalType": "uint256",
          "name": "",
          "type": "uint256"
        }
      ],
      "stateMutability": "view",
      "type": "function"
    },
    {
      "inputs": [
        {
          "internalType": "address",
          "name": "from",
          "type": "address"
        },
        {
          "internalType": "uint256",
          "name": "amount",
          "type": "uint256"
        },
        {
          "internalType": "bytes",
          "name": "data",
          "type": "bytes"
        }
      ],
      "name": "burn",
      "outputs": [],
      "stateMutability": "nonpayable",
      "type": "function"
    },
    {
      "inputs": [],
      "name": "decimals",
      "outputs": [
        {
          "internalType": "uint8",
          "name": "",
          "type": "uint8"
        }
      ],
      "stateMutability": "view",
      "type": "function"
    },
    {
      "inputs": [
        {
          "internalType": "bytes32[]",
          "name": "dataKeys",
          "type": "bytes32[]"
        }
      ],
      "name": "getData",
      "outputs": [
        {
          "internalType": "bytes[]",
          "name": "dataValues",
          "type": "bytes[]"
        }
      ],
      "stateMutability": "view",
      "type": "function"
    },
    {
      "inputs": [
        {
          "internalType": "bytes32",
          "name": "dataKey",
          "type": "bytes32"
        }
      ],
      "name": "getData",
      "outputs": [
        {
          "internalType": "bytes",
          "name": "dataValue",
          "type": "bytes"
        }
      ],
      "stateMutability": "view",
      "type": "function"
    },
    {
      "inputs": [
        {
          "internalType": "string",
          "name": "name_",
          "type": "string"
        },
        {
          "internalType": "string",
          "name": "symbol_",
          "type": "string"
        },
        {
          "internalType": "address",
          "name": "newOwner_",
          "type": "address"
        }
      ],
      "name": "initialize",
      "outputs": [],
      "stateMutability": "nonpayable",
      "type": "function"
    },
    {
      "inputs": [
        {
          "internalType": "address",
          "name": "to",
          "type": "address"
        },
        {
          "internalType": "uint256",
          "name": "amount",
          "type": "uint256"
        },
        {
          "internalType": "bytes",
          "name": "data",
          "type": "bytes"
        }
      ],
      "name": "mint",
      "outputs": [],
      "stateMutability": "nonpayable",
      "type": "function"
    },
    {
      "inputs": [],
      "name": "name",
      "outputs": [
        {
          "internalType": "string",
          "name": "",
          "type": "string"
        }
      ],
      "stateMutability": "view",
      "type": "function"
    },
    {
      "inputs": [],
      "name": "owner",
      "outputs": [
        {
          "internalType": "address",
          "name": "",
          "type": "address"
        }
      ],
      "stateMutability": "view",
      "type": "function"
    },
    {
      "inputs": [],
      "name": "renounceOwnership",
      "outputs": [],
      "stateMutability": "nonpayable",
      "type": "function"
    },
    {
      "inputs": [
        {
          "internalType": "address",
          "name": "operator",
          "type": "address"
        }
      ],
      "name": "revokeOperator",
      "outputs": [],
      "stateMutability": "nonpayable",
      "type": "function"
    },
    {
      "inputs": [
        {
          "internalType": "bytes32[]",
          "name": "dataKeys",
          "type": "bytes32[]"
        },
        {
          "internalType": "bytes[]",
          "name": "dataValues",
          "type": "bytes[]"
        }
      ],
      "name": "setData",
      "outputs": [],
      "stateMutability": "nonpayable",
      "type": "function"
    },
    {
      "inputs": [
        {
          "internalType": "bytes32",
          "name": "dataKey",
          "type": "bytes32"
        },
        {
          "internalType": "bytes",
          "name": "dataValue",
          "type": "bytes"
        }
      ],
      "name": "setData",
      "outputs": [],
      "stateMutability": "nonpayable",
      "type": "function"
    },
    {
      "inputs": [
        {
          "internalType": "bytes4",
          "name": "interfaceId",
          "type": "bytes4"
        }
      ],
      "name": "supportsInterface",
      "outputs": [
        {
          "internalType": "bool",
          "name": "",
          "type": "bool"
        }
      ],
      "stateMutability": "view",
      "type": "function"
    },
    {
      "inputs": [],
      "name": "symbol",
      "outputs": [
        {
          "internalType": "string",
          "name": "",
          "type": "string"
        }
      ],
      "stateMutability": "view",
      "type": "function"
    },
    {
      "inputs": [],
      "name": "totalSupply",
      "outputs": [
        {
          "internalType": "uint256",
          "name": "",
          "type": "uint256"
        }
      ],
      "stateMutability": "view",
      "type": "function"
    },
    {
      "inputs": [
        {
          "internalType": "address",
          "name": "from",
          "type": "address"
        },
        {
          "internalType": "address",
          "name": "to",
          "type": "address"
        },
        {
          "internalType": "uint256",
          "name": "amount",
          "type": "uint256"
        },
        {
          "internalType": "bool",
          "name": "force",
          "type": "bool"
        },
        {
          "internalType": "bytes",
          "name": "data",
          "type": "bytes"
        }
      ],
      "name": "transfer",
      "outputs": [],
      "stateMutability": "nonpayable",
      "type": "function"
    },
    {
      "inputs": [
        {
          "internalType": "address",
          "name": "to",
          "type": "address"
        },
        {
          "internalType": "uint256",
          "name": "amount",
          "type": "uint256"
        }
      ],
      "name": "transfer",
      "outputs": [
        {
          "internalType": "bool",
          "name": "",
          "type": "bool"
        }
      ],
      "stateMutability": "nonpayable",
      "type": "function"
    },
    {
      "inputs": [
        {
          "internalType": "address[]",
          "name": "from",
          "type": "address[]"
        },
        {
          "internalType": "address[]",
          "name": "to",
          "type": "address[]"
        },
        {
          "internalType": "uint256[]",
          "name": "amount",
          "type": "uint256[]"
        },
        {
          "internalType": "bool[]",
          "name": "force",
          "type": "bool[]"
        },
        {
          "internalType": "bytes[]",
          "name": "data",
          "type": "bytes[]"
        }
      ],
      "name": "transferBatch",
      "outputs": [],
      "stateMutability": "nonpayable",
      "type": "function"
    },
    {
      "inputs": [
        {
          "internalType": "address",
          "name": "from",
          "type": "address"
        },
        {
          "internalType": "address",
          "name": "to",
          "type": "address"
        },
        {
          "internalType": "uint256",
          "name": "amount",
          "type": "uint256"
        }
      ],
      "name": "transferFrom",
      "outputs": [
        {
          "internalType": "bool",
          "name": "",
          "type": "bool"
        }
      ],
      "stateMutability": "nonpayable",
      "type": "function"
    },
    {
      "inputs": [
        {
          "internalType": "address",
          "name": "newOwner",
          "type": "address"
        }
      ],
      "name": "transferOwnership",
      "outputs": [],
      "stateMutability": "nonpayable",
      "type": "function"
    }
  ],
  "bytecode": {
    "object": "0x608060405234801561001057600080fd5b5061001961001e565b6100de565b600054610100900460ff161561008a5760405162461bcd60e51b815260206004820152602760248201527f496e697469616c697a61626c653a20636f6e747261637420697320696e697469604482015266616c697a696e6760c81b606482015260840160405180910390fd5b60005460ff90811610156100dc576000805460ff191660ff9081179091556040519081527f7f26b83ff96e1f2b6a682f133852f6798a09c465da95921460cefb38474024989060200160405180910390a15b565b61237980620000ee6000396000f3fe608060405234801561001057600080fd5b50600436106101735760003560e01c806354f6127f116100de5780638da5cb5b11610097578063a9059cbb11610071578063a9059cbb1461034a578063dd62ed3e1461035d578063f2fde38b14610370578063fad8b32a1461038357600080fd5b80638da5cb5b1461030557806394d008ef1461032f57806395d89b411461034257600080fd5b806354f6127f1461028857806365aeaa951461029b57806370a08231146102ae578063715018a6146102d7578063760d9bba146102df5780637f23690c146102f257600080fd5b806323b872dd1161013057806323b872dd146102025780632d7667c914610215578063313ce5671461022857806344d171871461024257806347980aa3146102555780634e3e6e9c1461026857600080fd5b806301ffc9a71461017857806306fdde03146101a0578063077f224a146101b5578063095ea7b3146101ca57806314a6e293146101dd57806318160ddd146101f0575b600080fd5b61018b6101863660046118e9565b610396565b60405190151581526020015b60405180910390f35b6101a86103a7565b6040516101979190611963565b6101c86101c3366004611a55565b6103d4565b005b61018b6101d8366004611ac8565b6104f0565b6101c86101eb366004611bfa565b610505565b6003545b604051908152602001610197565b61018b610210366004611c5d565b610591565b6101c8610223366004611d6d565b6105ba565b6102306106a9565b60405160ff9091168152602001610197565b6101c8610250366004611e3e565b6106c2565b6101c8610263366004611ac8565b610703565b61027b610276366004611ec4565b610712565b6040516101979190611f00565b6101a8610296366004611f62565b6107c5565b6101f46102a9366004611f7b565b6107d0565b6101f46102bc366004611fae565b6001600160a01b031660009081526004602052604090205490565b6101c8610836565b6101c86102ed366004611fc9565b61084a565b6101c8610300366004612034565b61091f565b6000546201000090046001600160a01b03166040516001600160a01b039091168152602001610197565b6101c861033d366004611e3e565b610931565b6101a8610974565b61018b610358366004611ac8565b6109a1565b6101f461036b366004611f7b565b6109c0565b6101c861037e366004611fae565b6109d3565b6101c8610391366004611fae565b610a4c565b60006103a182610a58565b92915050565b606060006103a17fdeba1e292f8ba88238e10ab3c7f88bd4be4fac56cad5194b6ecceaf653468af1610a7d565b600054610100900460ff16158080156103f45750600054600160ff909116105b8061040e5750303b15801561040e575060005460ff166001145b6104765760405162461bcd60e51b815260206004820152602e60248201527f496e697469616c697a61626c653a20636f6e747261637420697320616c72656160448201526d191e481a5b9a5d1a585b1a5e995960921b60648201526084015b60405180910390fd5b6000805460ff191660011790558015610499576000805461ff0019166101001790555b6104a4848484610b1f565b80156104ea576000805461ff0019169055604051600181527f7f26b83ff96e1f2b6a682f133852f6798a09c465da95921460cefb38474024989060200160405180910390a15b50505050565b60006104fc8383610703565b50600192915050565b61050d610b53565b805182511461053c57815181516040516321d1e13360e11b81526004810192909252602482015260440161046d565b60005b825181101561058c5761058483828151811061055d5761055d612070565b602002602001015183838151811061057757610577612070565b6020026020010151610bb4565b60010161053f565b505050565b60006105b084848460016040518060200160405280600081525061084a565b5060019392505050565b84518451811415806105cd575083518114155b806105d9575082518114155b806105e5575081518114155b156106035760405163263eee8d60e01b815260040160405180910390fd5b60005b818110156106a05761069887828151811061062357610623612070565b602002602001015187838151811061063d5761063d612070565b602002602001015187848151811061065757610657612070565b602002602001015187858151811061067157610671612070565b602002602001015187868151811061068b5761068b612070565b602002602001015161084a565b600101610606565b50505050505050565b60025460009060ff166106bc5750601290565b50600090565b6104ea848484848080601f016020809104026020016040519081016040528093929190818152602001838380828437600092019190915250610bbe92505050565b61070e338383610c10565b5050565b606081516001600160401b0381111561072d5761072d611976565b60405190808252806020026020018201604052801561076057816020015b606081526020019060019003908161074b5790505b50905060005b82518110156107bf5761079183828151811061078457610784612070565b6020026020010151610a7d565b8282815181106107a3576107a3612070565b60200260200101819052506107b88160010190565b9050610766565b50919050565b60606103a182610a7d565b6000826001600160a01b0316826001600160a01b03160361080a57506001600160a01b0381166000908152600460205260409020546103a1565b506001600160a01b038082166000908152600560209081526040808320938616835292905220546103a1565b61083e610b53565b6108486000610c60565b565b836001600160a01b0316856001600160a01b03160361087b57604051620b9afb60ec1b815260040160405180910390fd5b336001600160a01b038616811461090a576001600160a01b03808716600090815260056020908152604080832093851683529290522054808511156108f45760405163f3a6b69160e01b81526001600160a01b03808916600483015260248201839052831660448201526064810186905260840161046d565b6109088783610903888561209c565b610c10565b505b6109178686868686610cd6565b505050505050565b610927610b53565b61070e8282610bb4565b6104ea8484600185858080601f016020809104026020016040519081016040528093929190818152602001838380828437600092019190915250610d3792505050565b606060006103a17f2f0a68ab07768e01943a599e73362a0e17a63a72e94dd2e384d2c1d4db932756610a7d565b60006104fc33848460016040518060200160405280600081525061084a565b60006109cc82846107d0565b9392505050565b6109db610b53565b6001600160a01b038116610a405760405162461bcd60e51b815260206004820152602660248201527f4f776e61626c653a206e6577206f776e657220697320746865207a65726f206160448201526564647265737360d01b606482015260840161046d565b610a4981610c60565b50565b610a4933826000610c10565b60006001600160e01b03198216633687e17960e21b14806103a157506103a182610d8a565b6000818152600160205260409020805460609190610a9a906120af565b80601f0160208091040260200160405190810160405280929190818152602001828054610ac6906120af565b8015610b135780601f10610ae857610100808354040283529160200191610b13565b820191906000526020600020905b815481529060010190602001808311610af657829003601f168201915b50505050509050919050565b600054610100900460ff16610b465760405162461bcd60e51b815260040161046d906120e3565b61058c8383836000610dbf565b6000546001600160a01b03620100009091041633146108485760405162461bcd60e51b815260206004820181905260248201527f4f776e61626c653a2063616c6c6572206973206e6f7420746865206f776e6572604482015260640161046d565b61070e8282610dff565b610bc9838383610ef3565b6040518281526000906001600160a01b038516907fddf252ad1be2c89b69c2b068fc378daa952ba7f163c4a11628f55a4df523b3ef906020015b60405180910390a3505050565b610c1b8383836110d9565b816001600160a01b0316836001600160a01b03167f8c5be1e5ebec7d5bd14f71427d1e84f3dd0314c0f7b2291e5b200ac8c7c3b92583604051610c0391815260200190565b6000546001600160a01b03828116620100009092041614610a4957600080546001600160a01b038381166201000081810262010000600160b01b0319851617855560405193049190911692909183917f8be0079c531659141344cd1fd0a4f28419497f9722a3daafe3b4186f6b6457e091a35050565b610ce385858585856111d7565b836001600160a01b0316856001600160a01b03167fddf252ad1be2c89b69c2b068fc378daa952ba7f163c4a11628f55a4df523b3ef85604051610d2891815260200190565b60405180910390a35050505050565b610d4384848484611334565b6040518381526001600160a01b038516906000907fddf252ad1be2c89b69c2b068fc378daa952ba7f163c4a11628f55a4df523b3ef9060200160405180910390a350505050565b60006001600160e01b03198216631c537ddf60e21b14806103a157506301ffc9a760e01b6001600160e01b03198316146103a1565b600054610100900460ff16610de65760405162461bcd60e51b815260040161046d906120e3565b6002805460ff19168215151790556104ea84848461140a565b7f2145e1d6d074577dc71ef54c3807742b41b053a9352ae6b491331509acb9750f8201610e3f576040516385c169bd60e01b815260040160405180910390fd5b7fd0f59754f88971fe6bc5a6618cc9d5f1e859c58d16b22d1c7b2d3e2b246cd8aa8201610e7f57604051630eceab6760e31b815260040160405180910390fd5b6000828152600160205260409020610e978282612174565b50817fece574603820d07bc9b91f2a932baadf4628aabcb8afba49776529c14a6104b261010083511115610ed857610ed38360006101006114d7565b610eda565b825b604051610ee79190611963565b60405180910390a25050565b6001600160a01b038316610f1a57604051630d2d5ec360e41b815260040160405180910390fd5b6001600160a01b03831660009081526004602052604090205480831115610f6d576040516308d4794960e01b8152600481018290526001600160a01b03851660248201526044810184905260640161046d565b336001600160a01b0385168114611024576001600160a01b0380861660009081526005602090815260408083209385168352929052205480851115610fe65760405163f3a6b69160e01b81526001600160a01b03808816600483015260248201839052831660448201526064810186905260840161046d565b6001600160a01b0380871660009081526005602090815260408083209386168352929052908120805487929061101d90849061209c565b9091555050505b8360036000828254611036919061209c565b90915550506001600160a01b0385166000908152600460205260408120805486929061106390849061209c565b9250508190555060006001600160a01b0316856001600160a01b0316826001600160a01b03167f3997e418d2cef0b3b0e907b1e39605c3f7d32dbd061e82ea5b4a770d46a160a6876000886040516110bd93929190612233565b60405180910390a46110d285600086866115e4565b5050505050565b6001600160a01b038216611100576040516331aaf3b360e11b815260040160405180910390fd5b826001600160a01b0316826001600160a01b03160361111e57505050565b6001600160a01b03808416600090815260056020908152604080832093861683529290522081905580156111925780836001600160a01b0316836001600160a01b03167fd66aff874162a96578e919097b6f6d153dfd89a5cec41bb331fdb0c4aec16e2c60405160405180910390a4505050565b826001600160a01b0316826001600160a01b03167f50546e66e5f44d728365dc3908c63bc5cfeeab470722c1677e3073a6ac294aa160405160405180910390a3505050565b6001600160a01b03851615806111f457506001600160a01b038416155b1561121257604051630d2d5ec360e41b815260040160405180910390fd5b6001600160a01b03851660009081526004602052604090205480841115611265576040516308d4794960e01b8152600481018290526001600160a01b03871660248201526044810185905260640161046d565b336001600160a01b0387166000908152600460205260408120805487929061128e90849061209c565b90915550506001600160a01b038616600090815260046020526040812080548792906112bb90849061225d565b92505081905550856001600160a01b0316876001600160a01b0316826001600160a01b03167f3997e418d2cef0b3b0e907b1e39605c3f7d32dbd061e82ea5b4a770d46a160a688888860405161131393929190612233565b60405180910390a4611327878787866115e4565b6106a087878787876116b8565b6001600160a01b03841661135b57604051630d2d5ec360e41b815260040160405180910390fd5b33836003600082825461136e919061225d565b90915550506001600160a01b0385166000908152600460205260408120805486929061139b90849061225d565b92505081905550846001600160a01b031660006001600160a01b0316826001600160a01b03167f3997e418d2cef0b3b0e907b1e39605c3f7d32dbd061e82ea5b4a770d46a160a68787876040516113f493929190612233565b60405180910390a46110d26000868686866116b8565b600054610100900460ff166114315760405162461bcd60e51b815260040161046d906120e3565b61143a816117f0565b6114837feafec4d89fa9619884b60000a4d96624a38f7ac2d8d9a604ecf07c12c77e480c60001b604051806040016040528060048152602001632936598960e21b815250611817565b6114ad7fdeba1e292f8ba88238e10ab3c7f88bd4be4fac56cad5194b6ecceaf653468af184611817565b61058c7f2f0a68ab07768e01943a599e73362a0e17a63a72e94dd2e384d2c1d4db93275683611817565b6060816114e581601f61225d565b10156115245760405162461bcd60e51b815260206004820152600e60248201526d736c6963655f6f766572666c6f7760901b604482015260640161046d565b61152e828461225d565b845110156115725760405162461bcd60e51b8152602060048201526011602482015270736c6963655f6f75744f66426f756e647360781b604482015260640161046d565b60608215801561159157604051915060008252602082016040526115db565b6040519150601f8416801560200281840101858101878315602002848b0101015b818310156115ca5780518352602092830192016115b2565b5050858452601f01601f1916604052505b50949350505050565b6115f584631aed5a8560e21b611860565b156104ea576000848484846040516020016116139493929190612270565b60408051601f1981840301815290829052631aed5a8560e21b825291506001600160a01b03861690636bb56a1490611671907f429ac7a06903dbc9c13dfcb3c9d11df8194581fa047c96d7a4171fc7402958ea9085906004016122bd565b6000604051808303816000875af1158015611690573d6000803e3d6000fd5b505050506040513d6000823e601f3d908101601f1916820160405261091791908101906122d6565b6116c984631aed5a8560e21b611860565b15611793576000858585846040516020016116e79493929190612270565b60408051601f1981840301815290829052631aed5a8560e21b825291506001600160a01b03861690636bb56a1490611745907f20804611b3e2ea21c480dc465142210acf4a2485947541770ec1fb87dee4a55c9085906004016122bd565b6000604051808303816000875af1158015611764573d6000803e3d6000fd5b505050506040513d6000823e601f3d908101601f1916820160405261178c91908101906122d6565b50506110d2565b816110d2576001600160a01b0384163b156117cc576040516353047ddb60e11b81526001600160a01b038516600482015260240161046d565b6040516309b091fd60e21b81526001600160a01b038516600482015260240161046d565b600054610100900460ff166109db5760405162461bcd60e51b815260040161046d906120e3565b600082815260016020526040902061182f8282612174565b50817fece574603820d07bc9b91f2a932baadf4628aabcb8afba49776529c14a6104b282604051610ee79190611963565b604080516001600160e01b03198316602480830191909152825180830390910181526044909101909152602080820180516001600160e01b03166301ffc9a760e01b178152825160009392849283928392918391908a617530fa92503d915060005190508280156118d2575060208210155b80156118de5750600081115b979650505050505050565b6000602082840312156118fb57600080fd5b81356001600160e01b0319811681146109cc57600080fd5b60005b8381101561192e578181015183820152602001611916565b50506000910152565b6000815180845261194f816020860160208601611913565b601f01601f19169290920160200192915050565b6020815260006109cc6020830184611937565b634e487b7160e01b600052604160045260246000fd5b604051601f8201601f191681016001600160401b03811182821017156119b4576119b4611976565b604052919050565b60006001600160401b038211156119d5576119d5611976565b50601f01601f191660200190565b600082601f8301126119f457600080fd5b8135611a07611a02826119bc565b61198c565b818152846020838601011115611a1c57600080fd5b816020850160208301376000918101602001919091529392505050565b80356001600160a01b0381168114611a5057600080fd5b919050565b600080600060608486031215611a6a57600080fd5b83356001600160401b0380821115611a8157600080fd5b611a8d878388016119e3565b94506020860135915080821115611aa357600080fd5b50611ab0868287016119e3565b925050611abf60408501611a39565b90509250925092565b60008060408385031215611adb57600080fd5b611ae483611a39565b946020939093013593505050565b60006001600160401b03821115611b0b57611b0b611976565b5060051b60200190565b600082601f830112611b2657600080fd5b81356020611b36611a0283611af2565b82815260059290921b84018101918181019086841115611b5557600080fd5b8286015b84811015611b705780358352918301918301611b59565b509695505050505050565b600082601f830112611b8c57600080fd5b81356020611b9c611a0283611af2565b82815260059290921b84018101918181019086841115611bbb57600080fd5b8286015b84811015611b705780356001600160401b03811115611bde5760008081fd5b611bec8986838b01016119e3565b845250918301918301611bbf565b60008060408385031215611c0d57600080fd5b82356001600160401b0380821115611c2457600080fd5b611c3086838701611b15565b93506020850135915080821115611c4657600080fd5b50611c5385828601611b7b565b9150509250929050565b600080600060608486031215611c7257600080fd5b611c7b84611a39565b9250611c8960208501611a39565b9150604084013590509250925092565b600082601f830112611caa57600080fd5b81356020611cba611a0283611af2565b82815260059290921b84018101918181019086841115611cd957600080fd5b8286015b84811015611b7057611cee81611a39565b8352918301918301611cdd565b80358015158114611a5057600080fd5b600082601f830112611d1c57600080fd5b81356020611d2c611a0283611af2565b82815260059290921b84018101918181019086841115611d4b57600080fd5b8286015b84811015611b7057611d6081611cfb565b8352918301918301611d4f565b600080600080600060a08688031215611d8557600080fd5b85356001600160401b0380821115611d9c57600080fd5b611da889838a01611c99565b96506020880135915080821115611dbe57600080fd5b611dca89838a01611c99565b95506040880135915080821115611de057600080fd5b611dec89838a01611b15565b94506060880135915080821115611e0257600080fd5b611e0e89838a01611d0b565b93506080880135915080821115611e2457600080fd5b50611e3188828901611b7b565b9150509295509295909350565b60008060008060608587031215611e5457600080fd5b611e5d85611a39565b93506020850135925060408501356001600160401b0380821115611e8057600080fd5b818701915087601f830112611e9457600080fd5b813581811115611ea357600080fd5b886020828501011115611eb557600080fd5b95989497505060200194505050565b600060208284031215611ed657600080fd5b81356001600160401b03811115611eec57600080fd5b611ef884828501611b15565b949350505050565b6000602080830181845280855180835260408601915060408160051b870101925083870160005b82811015611f5557603f19888603018452611f43858351611937565b94509285019290850190600101611f27565b5092979650505050505050565b600060208284031215611f7457600080fd5b5035919050565b60008060408385031215611f8e57600080fd5b611f9783611a39565b9150611fa560208401611a39565b90509250929050565b600060208284031215611fc057600080fd5b6109cc82611a39565b600080600080600060a08688031215611fe157600080fd5b611fea86611a39565b9450611ff860208701611a39565b93506040860135925061200d60608701611cfb565b915060808601356001600160401b0381111561202857600080fd5b611e31888289016119e3565b6000806040838503121561204757600080fd5b8235915060208301356001600160401b0381111561206457600080fd5b611c53858286016119e3565b634e487b7160e01b600052603260045260246000fd5b634e487b7160e01b600052601160045260246000fd5b818103818111156103a1576103a1612086565b600181811c908216806120c357607f821691505b6020821081036107bf57634e487b7160e01b600052602260045260246000fd5b6020808252602b908201527f496e697469616c697a61626c653a20636f6e7472616374206973206e6f74206960408201526a6e697469616c697a696e6760a81b606082015260800190565b601f82111561058c57600081815260208120601f850160051c810160208610156121555750805b601f850160051c820191505b8181101561091757828155600101612161565b81516001600160401b0381111561218d5761218d611976565b6121a18161219b84546120af565b8461212e565b602080601f8311600181146121d657600084156121be5750858301515b600019600386901b1c1916600185901b178555610917565b600085815260208120601f198616915b82811015612205578886015182559484019460019091019084016121e6565b50858210156122235787850151600019600388901b60f8161c191681555b5050505050600190811b01905550565b83815282151560208201526060604082015260006122546060830184611937565b95945050505050565b808201808211156103a1576103a1612086565b60006bffffffffffffffffffffffff19808760601b168352808660601b1660148401525083602883015282516122ad816048850160208701611913565b9190910160480195945050505050565b828152604060208201526000611ef86040830184611937565b6000602082840312156122e857600080fd5b81516001600160401b038111156122fe57600080fd5b8201601f8101841361230f57600080fd5b805161231d611a02826119bc565b81815285602083850101111561233257600080fd5b61225482602083016020860161191356fea2646970667358221220d6e718caabc43e4b54937aa39464557f98175e926932eeb34b6f8e58ee23041564736f6c63430008110033",
    "linkReferences": {}
  },
  "methodIdentifiers": {
    "allowance(address,address)": "dd62ed3e",
    "approve(address,uint256)": "095ea7b3",
    "authorizeOperator(address,uint256)": "47980aa3",
    "authorizedAmountFor(address,address)": "65aeaa95",
    "balanceOf(address)": "70a08231",
    "burn(address,uint256,bytes)": "44d17187",
    "decimals()": "313ce567",
    "getData(bytes32)": "54f6127f",
    "getData(bytes32[])": "4e3e6e9c",
    "initialize(string,string,address)": "077f224a",
    "mint(address,uint256,bytes)": "94d008ef",
    "name()": "06fdde03",
    "owner()": "8da5cb5b",
    "renounceOwnership()": "715018a6",
    "revokeOperator(address)": "fad8b32a",
    "setData(bytes32,bytes)": "7f23690c",
    "setData(bytes32[],bytes[])": "14a6e293",
    "supportsInterface(bytes4)": "01ffc9a7",
    "symbol()": "95d89b41",
    "totalSupply()": "18160ddd",
    "transfer(address,address,uint256,bool,bytes)": "760d9bba",
    "transfer(address,uint256)": "a9059cbb",
    "transferBatch(address[],address[],uint256[],bool[],bytes[])": "2d7667c9",
    "transferFrom(address,address,uint256)": "23b872dd",
    "transferOwnership(address)": "f2fde38b"
  },
  "id": 130
}