{
  "abi": [
    {
      "inputs": [
        {
          "internalType": "string",
          "name": "name_",
          "type": "string"
        },
        {
          "internalType": "string",
          "name": "symbol_",
          "type": "string"
        },
        {
          "internalType": "address",
          "name": "newOwner_",
          "type": "address"
        },
        {
          "internalType": "uint256",
          "name": "tokenSupplyCap_",
          "type": "uint256"
        }
      ],
      "stateMutability": "nonpayable",
      "type": "constructor"
    },
    {
      "inputs": [
        {
          "internalType": "uint256",
          "name": "dataKeysLength",
          "type": "uint256"
        },
        {
          "internalType": "uint256",
          "name": "dataValuesLength",
          "type": "uint256"
        }
      ],
      "name": "ERC725Y_DataKeysValuesLengthMismatch",
      "type": "error"
    },
    {
      "inputs": [],
      "name": "LSP4TokenNameNotEditable",
      "type": "error"
    },
    {
      "inputs": [],
      "name": "LSP4TokenSymbolNotEditable",
      "type": "error"
    },
    {
      "inputs": [],
      "name": "LSP8CannotSendToAddressZero",
      "type": "error"
    },
    {
      "inputs": [],
      "name": "LSP8CannotSendToSelf",
      "type": "error"
    },
    {
      "inputs": [],
      "name": "LSP8CannotUseAddressZeroAsOperator",
      "type": "error"
    },
    {
      "inputs": [],
      "name": "LSP8CappedSupplyCannotMintOverCap",
      "type": "error"
    },
    {
      "inputs": [],
      "name": "LSP8CappedSupplyRequired",
      "type": "error"
    },
    {
      "inputs": [],
      "name": "LSP8InvalidTransferBatch",
      "type": "error"
    },
    {
      "inputs": [
        {
          "internalType": "bytes32",
          "name": "tokenId",
          "type": "bytes32"
        }
      ],
      "name": "LSP8NonExistentTokenId",
      "type": "error"
    },
    {
      "inputs": [
        {
          "internalType": "address",
          "name": "operator",
          "type": "address"
        },
        {
          "internalType": "bytes32",
          "name": "tokenId",
          "type": "bytes32"
        }
      ],
      "name": "LSP8NonExistingOperator",
      "type": "error"
    },
    {
      "inputs": [
        {
          "internalType": "bytes32",
          "name": "tokenId",
          "type": "bytes32"
        },
        {
          "internalType": "address",
          "name": "caller",
          "type": "address"
        }
      ],
      "name": "LSP8NotTokenOperator",
      "type": "error"
    },
    {
      "inputs": [
        {
          "internalType": "address",
          "name": "tokenOwner",
          "type": "address"
        },
        {
          "internalType": "bytes32",
          "name": "tokenId",
          "type": "bytes32"
        },
        {
          "internalType": "address",
          "name": "caller",
          "type": "address"
        }
      ],
      "name": "LSP8NotTokenOwner",
      "type": "error"
    },
    {
      "inputs": [
        {
          "internalType": "address",
          "name": "tokenReceiver",
          "type": "address"
        }
      ],
      "name": "LSP8NotifyTokenReceiverContractMissingLSP1Interface",
      "type": "error"
    },
    {
      "inputs": [
        {
          "internalType": "address",
          "name": "tokenReceiver",
          "type": "address"
        }
      ],
      "name": "LSP8NotifyTokenReceiverIsEOA",
      "type": "error"
    },
    {
      "inputs": [
        {
          "internalType": "address",
          "name": "operator",
          "type": "address"
        },
        {
          "internalType": "bytes32",
          "name": "tokenId",
          "type": "bytes32"
        }
      ],
      "name": "LSP8OperatorAlreadyAuthorized",
      "type": "error"
    },
    {
      "inputs": [
        {
          "internalType": "bytes32",
          "name": "tokenId",
          "type": "bytes32"
        }
      ],
      "name": "LSP8TokenIdAlreadyMinted",
      "type": "error"
    },
    {
      "anonymous": false,
      "inputs": [
        {
          "indexed": true,
          "internalType": "address",
          "name": "operator",
          "type": "address"
        },
        {
          "indexed": true,
          "internalType": "address",
          "name": "tokenOwner",
          "type": "address"
        },
        {
          "indexed": true,
          "internalType": "bytes32",
          "name": "tokenId",
          "type": "bytes32"
        }
      ],
      "name": "AuthorizedOperator",
      "type": "event"
    },
    {
      "anonymous": false,
      "inputs": [
        {
          "indexed": true,
          "internalType": "bytes32",
          "name": "dataKey",
          "type": "bytes32"
        },
        {
          "indexed": false,
          "internalType": "bytes",
          "name": "dataValue",
          "type": "bytes"
        }
      ],
      "name": "DataChanged",
      "type": "event"
    },
    {
      "anonymous": false,
      "inputs": [
        {
          "indexed": true,
          "internalType": "address",
          "name": "previousOwner",
          "type": "address"
        },
        {
          "indexed": true,
          "internalType": "address",
          "name": "newOwner",
          "type": "address"
        }
      ],
      "name": "OwnershipTransferred",
      "type": "event"
    },
    {
      "anonymous": false,
      "inputs": [
        {
          "indexed": true,
          "internalType": "address",
          "name": "operator",
          "type": "address"
        },
        {
          "indexed": true,
          "internalType": "address",
          "name": "tokenOwner",
          "type": "address"
        },
        {
          "indexed": true,
          "internalType": "bytes32",
          "name": "tokenId",
          "type": "bytes32"
        }
      ],
      "name": "RevokedOperator",
      "type": "event"
    },
    {
      "anonymous": false,
      "inputs": [
        {
          "indexed": false,
          "internalType": "address",
          "name": "operator",
          "type": "address"
        },
        {
          "indexed": true,
          "internalType": "address",
          "name": "from",
          "type": "address"
        },
        {
          "indexed": true,
          "internalType": "address",
          "name": "to",
          "type": "address"
        },
        {
          "indexed": true,
          "internalType": "bytes32",
          "name": "tokenId",
          "type": "bytes32"
        },
        {
          "indexed": false,
          "internalType": "bool",
          "name": "force",
          "type": "bool"
        },
        {
          "indexed": false,
          "internalType": "bytes",
          "name": "data",
          "type": "bytes"
        }
      ],
      "name": "Transfer",
      "type": "event"
    },
    {
      "inputs": [
        {
          "internalType": "address",
          "name": "operator",
          "type": "address"
        },
        {
          "internalType": "bytes32",
          "name": "tokenId",
          "type": "bytes32"
        }
      ],
      "name": "authorizeOperator",
      "outputs": [],
      "stateMutability": "nonpayable",
      "type": "function"
    },
    {
      "inputs": [
        {
          "internalType": "address",
          "name": "tokenOwner",
          "type": "address"
        }
      ],
      "name": "balanceOf",
      "outputs": [
        {
          "internalType": "uint256",
          "name": "",
          "type": "uint256"
        }
      ],
      "stateMutability": "view",
      "type": "function"
    },
    {
      "inputs": [
        {
          "internalType": "bytes32",
          "name": "tokenId",
          "type": "bytes32"
        }
      ],
      "name": "burn",
      "outputs": [],
      "stateMutability": "nonpayable",
      "type": "function"
    },
    {
      "inputs": [
        {
          "internalType": "bytes32[]",
          "name": "dataKeys",
          "type": "bytes32[]"
        }
      ],
      "name": "getData",
      "outputs": [
        {
          "internalType": "bytes[]",
          "name": "dataValues",
          "type": "bytes[]"
        }
      ],
      "stateMutability": "view",
      "type": "function"
    },
    {
      "inputs": [
        {
          "internalType": "bytes32",
          "name": "dataKey",
          "type": "bytes32"
        }
      ],
      "name": "getData",
      "outputs": [
        {
          "internalType": "bytes",
          "name": "dataValue",
          "type": "bytes"
        }
      ],
      "stateMutability": "view",
      "type": "function"
    },
    {
      "inputs": [
        {
          "internalType": "bytes32",
          "name": "tokenId",
          "type": "bytes32"
        }
      ],
      "name": "getOperatorsOf",
      "outputs": [
        {
          "internalType": "address[]",
          "name": "",
          "type": "address[]"
        }
      ],
      "stateMutability": "view",
      "type": "function"
    },
    {
      "inputs": [
        {
          "internalType": "address",
          "name": "operator",
          "type": "address"
        },
        {
          "internalType": "bytes32",
          "name": "tokenId",
          "type": "bytes32"
        }
      ],
      "name": "isOperatorFor",
      "outputs": [
        {
          "internalType": "bool",
          "name": "",
          "type": "bool"
        }
      ],
      "stateMutability": "view",
      "type": "function"
    },
    {
      "inputs": [
        {
          "internalType": "address",
          "name": "to",
          "type": "address"
        },
        {
          "internalType": "bytes32",
          "name": "tokenId",
          "type": "bytes32"
        }
      ],
      "name": "mint",
      "outputs": [],
      "stateMutability": "nonpayable",
      "type": "function"
    },
    {
      "inputs": [],
      "name": "owner",
      "outputs": [
        {
          "internalType": "address",
          "name": "",
          "type": "address"
        }
      ],
      "stateMutability": "view",
      "type": "function"
    },
    {
      "inputs": [],
      "name": "renounceOwnership",
      "outputs": [],
      "stateMutability": "nonpayable",
      "type": "function"
    },
    {
      "inputs": [
        {
          "internalType": "address",
          "name": "operator",
          "type": "address"
        },
        {
          "internalType": "bytes32",
          "name": "tokenId",
          "type": "bytes32"
        }
      ],
      "name": "revokeOperator",
      "outputs": [],
      "stateMutability": "nonpayable",
      "type": "function"
    },
    {
      "inputs": [
        {
          "internalType": "bytes32[]",
          "name": "dataKeys",
          "type": "bytes32[]"
        },
        {
          "internalType": "bytes[]",
          "name": "dataValues",
          "type": "bytes[]"
        }
      ],
      "name": "setData",
      "outputs": [],
      "stateMutability": "nonpayable",
      "type": "function"
    },
    {
      "inputs": [
        {
          "internalType": "bytes32",
          "name": "dataKey",
          "type": "bytes32"
        },
        {
          "internalType": "bytes",
          "name": "dataValue",
          "type": "bytes"
        }
      ],
      "name": "setData",
      "outputs": [],
      "stateMutability": "nonpayable",
      "type": "function"
    },
    {
      "inputs": [
        {
          "internalType": "bytes4",
          "name": "interfaceId",
          "type": "bytes4"
        }
      ],
      "name": "supportsInterface",
      "outputs": [
        {
          "internalType": "bool",
          "name": "",
          "type": "bool"
        }
      ],
      "stateMutability": "view",
      "type": "function"
    },
    {
      "inputs": [
        {
          "internalType": "address",
          "name": "tokenOwner",
          "type": "address"
        }
      ],
      "name": "tokenIdsOf",
      "outputs": [
        {
          "internalType": "bytes32[]",
          "name": "",
          "type": "bytes32[]"
        }
      ],
      "stateMutability": "view",
      "type": "function"
    },
    {
      "inputs": [
        {
          "internalType": "bytes32",
          "name": "tokenId",
          "type": "bytes32"
        }
      ],
      "name": "tokenOwnerOf",
      "outputs": [
        {
          "internalType": "address",
          "name": "",
          "type": "address"
        }
      ],
      "stateMutability": "view",
      "type": "function"
    },
    {
      "inputs": [],
      "name": "tokenSupplyCap",
      "outputs": [
        {
          "internalType": "uint256",
          "name": "",
          "type": "uint256"
        }
      ],
      "stateMutability": "view",
      "type": "function"
    },
    {
      "inputs": [],
      "name": "totalSupply",
      "outputs": [
        {
          "internalType": "uint256",
          "name": "",
          "type": "uint256"
        }
      ],
      "stateMutability": "view",
      "type": "function"
    },
    {
      "inputs": [
        {
          "internalType": "address",
          "name": "from",
          "type": "address"
        },
        {
          "internalType": "address",
          "name": "to",
          "type": "address"
        },
        {
          "internalType": "bytes32",
          "name": "tokenId",
          "type": "bytes32"
        },
        {
          "internalType": "bool",
          "name": "force",
          "type": "bool"
        },
        {
          "internalType": "bytes",
          "name": "data",
          "type": "bytes"
        }
      ],
      "name": "transfer",
      "outputs": [],
      "stateMutability": "nonpayable",
      "type": "function"
    },
    {
      "inputs": [
        {
          "internalType": "address[]",
          "name": "from",
          "type": "address[]"
        },
        {
          "internalType": "address[]",
          "name": "to",
          "type": "address[]"
        },
        {
          "internalType": "bytes32[]",
          "name": "tokenId",
          "type": "bytes32[]"
        },
        {
          "internalType": "bool[]",
          "name": "force",
          "type": "bool[]"
        },
        {
          "internalType": "bytes[]",
          "name": "data",
          "type": "bytes[]"
        }
      ],
      "name": "transferBatch",
      "outputs": [],
      "stateMutability": "nonpayable",
      "type": "function"
    },
    {
      "inputs": [
        {
          "internalType": "address",
          "name": "newOwner",
          "type": "address"
        }
      ],
      "name": "transferOwnership",
      "outputs": [],
      "stateMutability": "nonpayable",
      "type": "function"
    }
  ],
  "bytecode": {
    "object": "0x60806040523480156200001157600080fd5b50604051620026423803806200264283398101604081905262000034916200034a565b80848484828282806001600160a01b038116620000a65760405162461bcd60e51b815260206004820152602660248201527f4f776e61626c653a206e6577206f776e657220697320746865207a65726f206160448201526564647265737360d01b606482015260840160405180910390fd5b620000bc81620001bd60201b620009631760201c565b50620001137feafec4d89fa9619884b60000a4d96624a38f7ac2d8d9a604ecf07c12c77e480c60001b604051806040016040528060048152602001632936598960e21b8152506200022460201b620009c81760201c565b6200014d7fdeba1e292f8ba88238e10ab3c7f88bd4be4fac56cad5194b6ecceaf653468af160001b846200022460201b620009c81760201c565b620001877f2f0a68ab07768e01943a599e73362a0e17a63a72e94dd2e384d2c1d4db93275660001b836200022460201b620009c81760201c565b50505050505080600003620001af5760405163038d9fc360e41b815260040160405180910390fd5b600755506200056d92505050565b6000546001600160a01b038281169116146200022157600080546001600160a01b038381166001600160a01b0319831681178455604051919092169283917f8be0079c531659141344cd1fd0a4f28419497f9722a3daafe3b4186f6b6457e09190a3505b50565b60008281526001602052604090206200023e82826200046c565b50817fece574603820d07bc9b91f2a932baadf4628aabcb8afba49776529c14a6104b28260405162000271919062000538565b60405180910390a25050565b634e487b7160e01b600052604160045260246000fd5b60005b83811015620002b057818101518382015260200162000296565b50506000910152565b600082601f830112620002cb57600080fd5b81516001600160401b0380821115620002e857620002e86200027d565b604051601f8301601f19908116603f011681019082821181831017156200031357620003136200027d565b816040528381528660208588010111156200032d57600080fd5b6200034084602083016020890162000293565b9695505050505050565b600080600080608085870312156200036157600080fd5b84516001600160401b03808211156200037957600080fd5b6200038788838901620002b9565b955060208701519150808211156200039e57600080fd5b50620003ad87828801620002b9565b604087015190945090506001600160a01b0381168114620003cd57600080fd5b6060959095015193969295505050565b600181811c90821680620003f257607f821691505b6020821081036200041357634e487b7160e01b600052602260045260246000fd5b50919050565b601f8211156200046757600081815260208120601f850160051c81016020861015620004425750805b601f850160051c820191505b8181101562000463578281556001016200044e565b5050505b505050565b81516001600160401b038111156200048857620004886200027d565b620004a081620004998454620003dd565b8462000419565b602080601f831160018114620004d85760008415620004bf5750858301515b600019600386901b1c1916600185901b17855562000463565b600085815260208120601f198616915b828110156200050957888601518255948401946001909101908401620004e8565b5085821015620005285787850151600019600388901b60f8161c191681555b5050505050600190811b01905550565b60208152600082518060208401526200055981604085016020870162000293565b601f01601f19169190910160400192915050565b6120c5806200057d6000396000f3fe608060405234801561001057600080fd5b50600436106101375760003560e01c8063511b6952116100b85780637e87632c1161007c5780637e87632c146102985780637f23690c146102ab5780638da5cb5b146102be578063a3b261f2146102cf578063cf5182ba146102ef578063f2fde38b1461030257600080fd5b8063511b69521461024257806352058d8a1461025557806354f6127f1461025d57806370a082311461027d578063715018a61461029057600080fd5b8063217b2270116100ff578063217b2270146101b15780632a3654a4146101dc5780632cfd3005146101ef57806349a6078d146102025780634e3e6e9c1461022257600080fd5b806301ffc9a71461013c57806308a1eee1146101645780630b0c6d821461017957806314a6e2931461018c57806318160ddd1461019f575b600080fd5b61014f61014a36600461173f565b610315565b60405190151581526020015b60405180910390f35b610177610172366004611769565b610340565b005b61017761018736600461179e565b610372565b61017761019a366004611997565b61041f565b6002545b60405190815260200161015b565b6101c46101bf366004611769565b6104ab565b6040516001600160a01b03909116815260200161015b565b61014f6101ea36600461179e565b6104e4565b6101776101fd36600461179e565b610500565b610215610210366004611769565b61053e565b60405161015b91906119fb565b610235610230366004611a48565b610560565b60405161015b9190611acd565b610177610250366004611b3f565b610614565b6007546101a3565b61027061026b366004611769565b610663565b60405161015b9190611bb8565b6101a361028b366004611bcb565b61066e565b61017761068f565b6101776102a6366004611caa565b6106a3565b6101776102b9366004611d6f565b610792565b6000546001600160a01b03166101c4565b6102e26102dd366004611bcb565b6107a4565b60405161015b9190611dac565b6101776102fd36600461179e565b6107c8565b610177610310366004611bcb565b6108f1565b60006001600160e01b0319821663622e7a0160e01b148061033a575061033a82610a1d565b92915050565b61036f816040518060400160405280600d81526020016c3332b2b6103a343290313ab93760991b815250610a52565b50565b600061037d826104ab565b9050336001600160a01b03821681146103c857604051632d938f5160e11b81526001600160a01b03808416600483015260248201859052821660448201526064015b60405180910390fd5b6001600160a01b0384166103ef57604051639577b8b360e01b815260040160405180910390fd5b836001600160a01b0316826001600160a01b03160361040e5750505050565b610419848385610b18565b50505050565b610427610ba9565b805182511461045657815181516040516321d1e13360e11b8152600481019290925260248201526044016103bf565b60005b82518110156104a65761049e83828151811061047757610477611de4565b602002602001015183838151811061049157610491611de4565b6020026020010151610c12565b600101610459565b505050565b6000818152600360205260408120546001600160a01b03168061033a57604051635747cd1b60e11b8152600481018490526024016103bf565b60006104ef82610cfa565b6104f98383610d32565b9392505050565b61053a82826001604051806040016040528060158152602001743a37b5b2b710383934b73a32b91033b7903139393960591b815250610d7b565b5050565b606061054982610cfa565b600082815260056020526040902061033a90610db7565b6060815167ffffffffffffffff81111561057c5761057c6117c8565b6040519080825280602002602001820160405280156105af57816020015b606081526020019060019003908161059a5790505b50905060005b825181101561060e576105e08382815181106105d3576105d3611de4565b6020026020010151610dc4565b8282815181106105f2576105f2611de4565b60200260200101819052506106078160010190565b90506105b5565b50919050565b3361061f8185610d32565b61064e57604051631294d2a960e01b8152600481018590526001600160a01b03821660248201526044016103bf565b61065b8686868686610e66565b505050505050565b606061033a82610dc4565b6001600160a01b038116600090815260046020526040812061033a90610ff0565b610697610ba9565b6106a16000610963565b565b84518451811415806106b6575083518114155b806106c2575082518114155b806106ce575081518114155b156106ec576040516393a8311960e01b815260040160405180910390fd5b60005b818110156107895761078187828151811061070c5761070c611de4565b602002602001015187838151811061072657610726611de4565b602002602001015187848151811061074057610740611de4565b602002602001015187858151811061075a5761075a611de4565b602002602001015187868151811061077457610774611de4565b6020026020010151610614565b6001016106ef565b50505050505050565b61079a610ba9565b61053a8282610c12565b6001600160a01b038116600090815260046020526040902060609061033a90610ffa565b60006107d3826104ab565b9050336001600160a01b038216811461081957604051632d938f5160e11b81526001600160a01b03808416600483015260248201859052821660448201526064016103bf565b6001600160a01b03841661084057604051639577b8b360e01b815260040160405180910390fd5b836001600160a01b0316826001600160a01b03160361085f5750505050565b60008381526005602052604081206108779086611005565b9050806108a9576040516314ec4d6d60e31b81526001600160a01b0386166004820152602481018590526044016103bf565b83836001600160a01b0316866001600160a01b03167f34b797fc5a526f7bf1d2b5de25f6564fd85ae364e3ee939aee7c1ac27871a98860405160405180910390a45050505050565b6108f9610ba9565b6001600160a01b03811661095e5760405162461bcd60e51b815260206004820152602660248201527f4f776e61626c653a206e6577206f776e657220697320746865207a65726f206160448201526564647265737360d01b60648201526084016103bf565b61036f815b6000546001600160a01b0382811691161461036f57600080546001600160a01b038381166001600160a01b0319831681178455604051919092169283917f8be0079c531659141344cd1fd0a4f28419497f9722a3daafe3b4186f6b6457e09190a35050565b60008281526001602052604090206109e08282611e74565b50817fece574603820d07bc9b91f2a932baadf4628aabcb8afba49776529c14a6104b282604051610a119190611bb8565b60405180910390a25050565b60006001600160e01b03198216631c537ddf60e21b148061033a57506301ffc9a760e01b6001600160e01b031983161461033a565b6000610a5d836104ab565b905033600160026000828254610a739190611f4a565b90915550610a839050828561101a565b6001600160a01b0382166000908152600460205260409020610aa59085611068565b5060008481526003602052604080822080546001600160a01b0319169055518591906001600160a01b038516907fb333c813a7426a7a11e2b190cad52c44119421594b47f6f32ace6d8c7207b2bf90610b0390869085908a90611f5d565b60405180910390a46104198260008686611074565b6000818152600560205260408120610b309085611148565b905080610b62576040516312a8c6a360e21b81526001600160a01b0385166004820152602481018390526044016103bf565b81836001600160a01b0316856001600160a01b03167f17d5389f6ab6adb2647dfa0aa365c323d37adacc30b33a65310b6158ce1373d560405160405180910390a450505050565b33610bbc6000546001600160a01b031690565b6001600160a01b0316146106a15760405162461bcd60e51b815260206004820181905260248201527f4f776e61626c653a2063616c6c6572206973206e6f7420746865206f776e657260448201526064016103bf565b7f2145e1d6d074577dc71ef54c3807742b41b053a9352ae6b491331509acb9750f8201610c52576040516385c169bd60e01b815260040160405180910390fd5b7fd0f59754f88971fe6bc5a6618cc9d5f1e859c58d16b22d1c7b2d3e2b246cd8aa8201610c9257604051630eceab6760e31b815260040160405180910390fd5b6000828152600160205260409020610caa8282611e74565b50817fece574603820d07bc9b91f2a932baadf4628aabcb8afba49776529c14a6104b261010083511115610ceb57610ce683600061010061115d565b610ced565b825b604051610a119190611bb8565b6000818152600360205260409020546001600160a01b031661036f57604051635747cd1b60e11b8152600481018290526024016103bf565b600080610d3e836104ab565b9050806001600160a01b0316846001600160a01b03161480610d7357506000838152600560205260409020610d73908561126a565b949350505050565b600754600254610d8c906001611f92565b1115610dab5760405163e8ba229160e01b815260040160405180910390fd5b6104198484848461128c565b606060006104f98361139f565b6000818152600160205260409020805460609190610de190611dfa565b80601f0160208091040260200160405190810160405280929190818152602001828054610e0d90611dfa565b8015610e5a5780601f10610e2f57610100808354040283529160200191610e5a565b820191906000526020600020905b815481529060010190602001808311610e3d57829003601f168201915b50505050509050919050565b836001600160a01b0316856001600160a01b031603610e9857604051635d67d6c160e01b815260040160405180910390fd5b6000610ea3846104ab565b9050856001600160a01b0316816001600160a01b031614610ef157604051632d938f5160e11b81526001600160a01b03808316600483015260248201869052871660448201526064016103bf565b6001600160a01b038516610f18576040516324ecef4d60e01b815260040160405180910390fd5b33610f23878661101a565b6001600160a01b0387166000908152600460205260409020610f459086611068565b506001600160a01b0386166000908152600460205260409020610f6890866113fa565b506000858152600360205260409081902080546001600160a01b0319166001600160a01b0389811691821790925591518792918a16907fb333c813a7426a7a11e2b190cad52c44119421594b47f6f32ace6d8c7207b2bf90610fcf9086908a908a90611f5d565b60405180910390a4610fe387878786611074565b6107898787878787611406565b600061033a825490565b606061033a8261139f565b60006104f9836001600160a01b03841661153e565b60008181526005602052604081209061103282610ff0565b905060005b8181101561106157600061104b848261158d565b9050611058818787610b18565b50600101611037565b5050505050565b60006104f98383611599565b61108584631aed5a8560e21b61168c565b15610419576000848484846040516020016110a39493929190611fa5565b60408051601f1981840301815290829052631aed5a8560e21b825291506001600160a01b03861690636bb56a1490611101907fb23eae7e6d1564b295b4c3e3be402d9a2f0776c57bdf365903496f6fa481ab00908590600401611ff2565b6000604051808303816000875af1158015611120573d6000803e3d6000fd5b505050506040513d6000823e601f3d908101601f1916820160405261065b919081019061200b565b60006104f9836001600160a01b038416611599565b60608161116b81601f611f92565b10156111aa5760405162461bcd60e51b815260206004820152600e60248201526d736c6963655f6f766572666c6f7760901b60448201526064016103bf565b6111b48284611f92565b845110156111f85760405162461bcd60e51b8152602060048201526011602482015270736c6963655f6f75744f66426f756e647360781b60448201526064016103bf565b6060821580156112175760405191506000825260208201604052611261565b6040519150601f8416801560200281840101858101878315602002848b0101015b81831015611250578051835260209283019201611238565b5050858452601f01601f1916604052505b50949350505050565b6001600160a01b038116600090815260018301602052604081205415156104f9565b6001600160a01b0384166112b3576040516324ecef4d60e01b815260040160405180910390fd5b6000838152600360205260409020546001600160a01b0316156112ec576040516334c7b51160e01b8152600481018490526024016103bf565b336001600260008282546113009190611f92565b90915550506001600160a01b038516600090815260046020526040902061132790856113fa565b5060008481526003602052604080822080546001600160a01b0319166001600160a01b03891690811790915590518692907fb333c813a7426a7a11e2b190cad52c44119421594b47f6f32ace6d8c7207b2bf9061138990869089908990611f5d565b60405180910390a4611061600086868686611406565b606081600001805480602002602001604051908101604052809291908181526020018280548015610e5a57602002820191906000526020600020905b8154815260200190600101908083116113db5750505050509050919050565b60006104f9838361153e565b61141784631aed5a8560e21b61168c565b156114e1576000858585846040516020016114359493929190611fa5565b60408051601f1981840301815290829052631aed5a8560e21b825291506001600160a01b03861690636bb56a1490611493907f0b084a55ebf70fd3c06fd755269dac2212c4d3f0f4d09079780bfa50c1b2984d908590600401611ff2565b6000604051808303816000875af11580156114b2573d6000803e3d6000fd5b505050506040513d6000823e601f3d908101601f191682016040526114da919081019061200b565b5050611061565b81611061576001600160a01b0384163b1561151a57604051634349776d60e01b81526001600160a01b03851660048201526024016103bf565b604051630317313760e01b81526001600160a01b03851660048201526024016103bf565b60008181526001830160205260408120546115855750815460018181018455600084815260208082209093018490558454848252828601909352604090209190915561033a565b50600061033a565b60006104f98383611715565b600081815260018301602052604081205480156116825760006115bd600183611f4a565b85549091506000906115d190600190611f4a565b90508181146116365760008660000182815481106115f1576115f1611de4565b906000526020600020015490508087600001848154811061161457611614611de4565b6000918252602080832090910192909255918252600188019052604090208390555b855486908061164757611647612079565b60019003818190600052602060002001600090559055856001016000868152602001908152602001600020600090556001935050505061033a565b600091505061033a565b604080516001600160e01b03198316602480830191909152825180830390910181526044909101909152602080820180516001600160e01b03166301ffc9a760e01b178152825160009392849283928392918391908a617530fa92503d915060005190508280156116fe575060208210155b801561170a5750600081115b979650505050505050565b600082600001828154811061172c5761172c611de4565b9060005260206000200154905092915050565b60006020828403121561175157600080fd5b81356001600160e01b0319811681146104f957600080fd5b60006020828403121561177b57600080fd5b5035919050565b80356001600160a01b038116811461179957600080fd5b919050565b600080604083850312156117b157600080fd5b6117ba83611782565b946020939093013593505050565b634e487b7160e01b600052604160045260246000fd5b604051601f8201601f1916810167ffffffffffffffff81118282101715611807576118076117c8565b604052919050565b600067ffffffffffffffff821115611829576118296117c8565b5060051b60200190565b600082601f83011261184457600080fd5b813560206118596118548361180f565b6117de565b82815260059290921b8401810191818101908684111561187857600080fd5b8286015b84811015611893578035835291830191830161187c565b509695505050505050565b600067ffffffffffffffff8211156118b8576118b86117c8565b50601f01601f191660200190565b600082601f8301126118d757600080fd5b81356118e56118548261189e565b8181528460208386010111156118fa57600080fd5b816020850160208301376000918101602001919091529392505050565b600082601f83011261192857600080fd5b813560206119386118548361180f565b82815260059290921b8401810191818101908684111561195757600080fd5b8286015b8481101561189357803567ffffffffffffffff81111561197b5760008081fd5b6119898986838b01016118c6565b84525091830191830161195b565b600080604083850312156119aa57600080fd5b823567ffffffffffffffff808211156119c257600080fd5b6119ce86838701611833565b935060208501359150808211156119e457600080fd5b506119f185828601611917565b9150509250929050565b6020808252825182820181905260009190848201906040850190845b81811015611a3c5783516001600160a01b031683529284019291840191600101611a17565b50909695505050505050565b600060208284031215611a5a57600080fd5b813567ffffffffffffffff811115611a7157600080fd5b610d7384828501611833565b60005b83811015611a98578181015183820152602001611a80565b50506000910152565b60008151808452611ab9816020860160208601611a7d565b601f01601f19169290920160200192915050565b6000602080830181845280855180835260408601915060408160051b870101925083870160005b82811015611b2257603f19888603018452611b10858351611aa1565b94509285019290850190600101611af4565b5092979650505050505050565b8035801515811461179957600080fd5b600080600080600060a08688031215611b5757600080fd5b611b6086611782565b9450611b6e60208701611782565b935060408601359250611b8360608701611b2f565b9150608086013567ffffffffffffffff811115611b9f57600080fd5b611bab888289016118c6565b9150509295509295909350565b6020815260006104f96020830184611aa1565b600060208284031215611bdd57600080fd5b6104f982611782565b600082601f830112611bf757600080fd5b81356020611c076118548361180f565b82815260059290921b84018101918181019086841115611c2657600080fd5b8286015b8481101561189357611c3b81611782565b8352918301918301611c2a565b600082601f830112611c5957600080fd5b81356020611c696118548361180f565b82815260059290921b84018101918181019086841115611c8857600080fd5b8286015b8481101561189357611c9d81611b2f565b8352918301918301611c8c565b600080600080600060a08688031215611cc257600080fd5b853567ffffffffffffffff80821115611cda57600080fd5b611ce689838a01611be6565b96506020880135915080821115611cfc57600080fd5b611d0889838a01611be6565b95506040880135915080821115611d1e57600080fd5b611d2a89838a01611833565b94506060880135915080821115611d4057600080fd5b611d4c89838a01611c48565b93506080880135915080821115611d6257600080fd5b50611bab88828901611917565b60008060408385031215611d8257600080fd5b82359150602083013567ffffffffffffffff811115611da057600080fd5b6119f1858286016118c6565b6020808252825182820181905260009190848201906040850190845b81811015611a3c57835183529284019291840191600101611dc8565b634e487b7160e01b600052603260045260246000fd5b600181811c90821680611e0e57607f821691505b60208210810361060e57634e487b7160e01b600052602260045260246000fd5b601f8211156104a657600081815260208120601f850160051c81016020861015611e555750805b601f850160051c820191505b8181101561065b57828155600101611e61565b815167ffffffffffffffff811115611e8e57611e8e6117c8565b611ea281611e9c8454611dfa565b84611e2e565b602080601f831160018114611ed75760008415611ebf5750858301515b600019600386901b1c1916600185901b17855561065b565b600085815260208120601f198616915b82811015611f0657888601518255948401946001909101908401611ee7565b5085821015611f245787850151600019600388901b60f8161c191681555b5050505050600190811b01905550565b634e487b7160e01b600052601160045260246000fd5b8181038181111561033a5761033a611f34565b6001600160a01b03841681528215156020820152606060408201819052600090611f8990830184611aa1565b95945050505050565b8082018082111561033a5761033a611f34565b60006bffffffffffffffffffffffff19808760601b168352808660601b166014840152508360288301528251611fe2816048850160208701611a7d565b9190910160480195945050505050565b828152604060208201526000610d736040830184611aa1565b60006020828403121561201d57600080fd5b815167ffffffffffffffff81111561203457600080fd5b8201601f8101841361204557600080fd5b80516120536118548261189e565b81815285602083850101111561206857600080fd5b611f89826020830160208601611a7d565b634e487b7160e01b600052603160045260246000fdfea264697066735822122059c82dc680c13b30fcd1d78ad79e5ff578fcbb025b276359c6b3d63633c3221e64736f6c63430008110033",
    "linkReferences": {}
  },
  "methodIdentifiers": {
    "authorizeOperator(address,bytes32)": "cf5182ba",
    "balanceOf(address)": "70a08231",
    "burn(bytes32)": "08a1eee1",
    "getData(bytes32)": "54f6127f",
    "getData(bytes32[])": "4e3e6e9c",
    "getOperatorsOf(bytes32)": "49a6078d",
    "isOperatorFor(address,bytes32)": "2a3654a4",
    "mint(address,bytes32)": "2cfd3005",
    "owner()": "8da5cb5b",
    "renounceOwnership()": "715018a6",
    "revokeOperator(address,bytes32)": "0b0c6d82",
    "setData(bytes32,bytes)": "7f23690c",
    "setData(bytes32[],bytes[])": "14a6e293",
    "supportsInterface(bytes4)": "01ffc9a7",
    "tokenIdsOf(address)": "a3b261f2",
    "tokenOwnerOf(bytes32)": "217b2270",
    "tokenSupplyCap()": "52058d8a",
    "totalSupply()": "18160ddd",
    "transfer(address,address,bytes32,bool,bytes)": "511b6952",
    "transferBatch(address[],address[],bytes32[],bool[],bytes[])": "7e87632c",
    "transferOwnership(address)": "f2fde38b"
  },
  "id": 135
}