{
  "abi": [
    {
      "inputs": [],
      "stateMutability": "nonpayable",
      "type": "constructor"
    },
    {
      "inputs": [
        {
          "internalType": "uint256",
          "name": "dataKeysLength",
          "type": "uint256"
        },
        {
          "internalType": "uint256",
          "name": "dataValuesLength",
          "type": "uint256"
        }
      ],
      "name": "ERC725Y_DataKeysValuesLengthMismatch",
      "type": "error"
    },
    {
      "inputs": [],
      "name": "LSP4TokenNameNotEditable",
      "type": "error"
    },
    {
      "inputs": [],
      "name": "LSP4TokenSymbolNotEditable",
      "type": "error"
    },
    {
      "inputs": [],
      "name": "LSP8CannotSendToAddressZero",
      "type": "error"
    },
    {
      "inputs": [],
      "name": "LSP8CannotSendToSelf",
      "type": "error"
    },
    {
      "inputs": [],
      "name": "LSP8CannotUseAddressZeroAsOperator",
      "type": "error"
    },
    {
      "inputs": [],
      "name": "LSP8InvalidTransferBatch",
      "type": "error"
    },
    {
      "inputs": [
        {
          "internalType": "bytes32",
          "name": "tokenId",
          "type": "bytes32"
        }
      ],
      "name": "LSP8NonExistentTokenId",
      "type": "error"
    },
    {
      "inputs": [
        {
          "internalType": "address",
          "name": "operator",
          "type": "address"
        },
        {
          "internalType": "bytes32",
          "name": "tokenId",
          "type": "bytes32"
        }
      ],
      "name": "LSP8NonExistingOperator",
      "type": "error"
    },
    {
      "inputs": [
        {
          "internalType": "bytes32",
          "name": "tokenId",
          "type": "bytes32"
        },
        {
          "internalType": "address",
          "name": "caller",
          "type": "address"
        }
      ],
      "name": "LSP8NotTokenOperator",
      "type": "error"
    },
    {
      "inputs": [
        {
          "internalType": "address",
          "name": "tokenOwner",
          "type": "address"
        },
        {
          "internalType": "bytes32",
          "name": "tokenId",
          "type": "bytes32"
        },
        {
          "internalType": "address",
          "name": "caller",
          "type": "address"
        }
      ],
      "name": "LSP8NotTokenOwner",
      "type": "error"
    },
    {
      "inputs": [
        {
          "internalType": "address",
          "name": "tokenReceiver",
          "type": "address"
        }
      ],
      "name": "LSP8NotifyTokenReceiverContractMissingLSP1Interface",
      "type": "error"
    },
    {
      "inputs": [
        {
          "internalType": "address",
          "name": "tokenReceiver",
          "type": "address"
        }
      ],
      "name": "LSP8NotifyTokenReceiverIsEOA",
      "type": "error"
    },
    {
      "inputs": [
        {
          "internalType": "address",
          "name": "operator",
          "type": "address"
        },
        {
          "internalType": "bytes32",
          "name": "tokenId",
          "type": "bytes32"
        }
      ],
      "name": "LSP8OperatorAlreadyAuthorized",
      "type": "error"
    },
    {
      "inputs": [
        {
          "internalType": "bytes32",
          "name": "tokenId",
          "type": "bytes32"
        }
      ],
      "name": "LSP8TokenIdAlreadyMinted",
      "type": "error"
    },
    {
      "anonymous": false,
      "inputs": [
        {
          "indexed": true,
          "internalType": "address",
          "name": "owner",
          "type": "address"
        },
        {
          "indexed": true,
          "internalType": "address",
          "name": "approved",
          "type": "address"
        },
        {
          "indexed": true,
          "internalType": "uint256",
          "name": "tokenId",
          "type": "uint256"
        }
      ],
      "name": "Approval",
      "type": "event"
    },
    {
      "anonymous": false,
      "inputs": [
        {
          "indexed": true,
          "internalType": "address",
          "name": "_owner",
          "type": "address"
        },
        {
          "indexed": true,
          "internalType": "address",
          "name": "_operator",
          "type": "address"
        },
        {
          "indexed": false,
          "internalType": "bool",
          "name": "_approved",
          "type": "bool"
        }
      ],
      "name": "ApprovalForAll",
      "type": "event"
    },
    {
      "anonymous": false,
      "inputs": [
        {
          "indexed": true,
          "internalType": "address",
          "name": "operator",
          "type": "address"
        },
        {
          "indexed": true,
          "internalType": "address",
          "name": "tokenOwner",
          "type": "address"
        },
        {
          "indexed": true,
          "internalType": "bytes32",
          "name": "tokenId",
          "type": "bytes32"
        }
      ],
      "name": "AuthorizedOperator",
      "type": "event"
    },
    {
      "anonymous": false,
      "inputs": [
        {
          "indexed": true,
          "internalType": "bytes32",
          "name": "dataKey",
          "type": "bytes32"
        },
        {
          "indexed": false,
          "internalType": "bytes",
          "name": "dataValue",
          "type": "bytes"
        }
      ],
      "name": "DataChanged",
      "type": "event"
    },
    {
      "anonymous": false,
      "inputs": [
        {
          "indexed": false,
          "internalType": "uint8",
          "name": "version",
          "type": "uint8"
        }
      ],
      "name": "Initialized",
      "type": "event"
    },
    {
      "anonymous": false,
      "inputs": [
        {
          "indexed": true,
          "internalType": "address",
          "name": "previousOwner",
          "type": "address"
        },
        {
          "indexed": true,
          "internalType": "address",
          "name": "newOwner",
          "type": "address"
        }
      ],
      "name": "OwnershipTransferred",
      "type": "event"
    },
    {
      "anonymous": false,
      "inputs": [
        {
          "indexed": true,
          "internalType": "address",
          "name": "operator",
          "type": "address"
        },
        {
          "indexed": true,
          "internalType": "address",
          "name": "tokenOwner",
          "type": "address"
        },
        {
          "indexed": true,
          "internalType": "bytes32",
          "name": "tokenId",
          "type": "bytes32"
        }
      ],
      "name": "RevokedOperator",
      "type": "event"
    },
    {
      "anonymous": false,
      "inputs": [
        {
          "indexed": true,
          "internalType": "address",
          "name": "from",
          "type": "address"
        },
        {
          "indexed": true,
          "internalType": "address",
          "name": "to",
          "type": "address"
        },
        {
          "indexed": true,
          "internalType": "uint256",
          "name": "tokenId",
          "type": "uint256"
        }
      ],
      "name": "Transfer",
      "type": "event"
    },
    {
      "anonymous": false,
      "inputs": [
        {
          "indexed": false,
          "internalType": "address",
          "name": "operator",
          "type": "address"
        },
        {
          "indexed": true,
          "internalType": "address",
          "name": "from",
          "type": "address"
        },
        {
          "indexed": true,
          "internalType": "address",
          "name": "to",
          "type": "address"
        },
        {
          "indexed": true,
          "internalType": "bytes32",
          "name": "tokenId",
          "type": "bytes32"
        },
        {
          "indexed": false,
          "internalType": "bool",
          "name": "force",
          "type": "bool"
        },
        {
          "indexed": false,
          "internalType": "bytes",
          "name": "data",
          "type": "bytes"
        }
      ],
      "name": "Transfer",
      "type": "event"
    },
    {
      "inputs": [
        {
          "internalType": "address",
          "name": "operator",
          "type": "address"
        },
        {
          "internalType": "uint256",
          "name": "tokenId",
          "type": "uint256"
        }
      ],
      "name": "approve",
      "outputs": [],
      "stateMutability": "nonpayable",
      "type": "function"
    },
    {
      "inputs": [
        {
          "internalType": "address",
          "name": "operator",
          "type": "address"
        },
        {
          "internalType": "bytes32",
          "name": "tokenId",
          "type": "bytes32"
        }
      ],
      "name": "authorizeOperator",
      "outputs": [],
      "stateMutability": "nonpayable",
      "type": "function"
    },
    {
      "inputs": [
        {
          "internalType": "address",
          "name": "tokenOwner",
          "type": "address"
        }
      ],
      "name": "balanceOf",
      "outputs": [
        {
          "internalType": "uint256",
          "name": "",
          "type": "uint256"
        }
      ],
      "stateMutability": "view",
      "type": "function"
    },
    {
      "inputs": [
        {
          "internalType": "uint256",
          "name": "tokenId",
          "type": "uint256"
        }
      ],
      "name": "getApproved",
      "outputs": [
        {
          "internalType": "address",
          "name": "",
          "type": "address"
        }
      ],
      "stateMutability": "view",
      "type": "function"
    },
    {
      "inputs": [
        {
          "internalType": "bytes32[]",
          "name": "dataKeys",
          "type": "bytes32[]"
        }
      ],
      "name": "getData",
      "outputs": [
        {
          "internalType": "bytes[]",
          "name": "dataValues",
          "type": "bytes[]"
        }
      ],
      "stateMutability": "view",
      "type": "function"
    },
    {
      "inputs": [
        {
          "internalType": "bytes32",
          "name": "dataKey",
          "type": "bytes32"
        }
      ],
      "name": "getData",
      "outputs": [
        {
          "internalType": "bytes",
          "name": "dataValue",
          "type": "bytes"
        }
      ],
      "stateMutability": "view",
      "type": "function"
    },
    {
      "inputs": [
        {
          "internalType": "bytes32",
          "name": "tokenId",
          "type": "bytes32"
        }
      ],
      "name": "getOperatorsOf",
      "outputs": [
        {
          "internalType": "address[]",
          "name": "",
          "type": "address[]"
        }
      ],
      "stateMutability": "view",
      "type": "function"
    },
    {
      "inputs": [
        {
          "internalType": "string",
          "name": "name_",
          "type": "string"
        },
        {
          "internalType": "string",
          "name": "symbol_",
          "type": "string"
        },
        {
          "internalType": "address",
          "name": "newOwner_",
          "type": "address"
        }
      ],
      "name": "initialize",
      "outputs": [],
      "stateMutability": "nonpayable",
      "type": "function"
    },
    {
      "inputs": [
        {
          "internalType": "address",
          "name": "tokenOwner",
          "type": "address"
        },
        {
          "internalType": "address",
          "name": "operator",
          "type": "address"
        }
      ],
      "name": "isApprovedForAll",
      "outputs": [
        {
          "internalType": "bool",
          "name": "",
          "type": "bool"
        }
      ],
      "stateMutability": "view",
      "type": "function"
    },
    {
      "inputs": [
        {
          "internalType": "address",
          "name": "operator",
          "type": "address"
        },
        {
          "internalType": "bytes32",
          "name": "tokenId",
          "type": "bytes32"
        }
      ],
      "name": "isOperatorFor",
      "outputs": [
        {
          "internalType": "bool",
          "name": "",
          "type": "bool"
        }
      ],
      "stateMutability": "view",
      "type": "function"
    },
    {
      "inputs": [
        {
          "internalType": "address",
          "name": "to",
          "type": "address"
        },
        {
          "internalType": "bytes32",
          "name": "tokenId",
          "type": "bytes32"
        },
        {
          "internalType": "bool",
          "name": "force",
          "type": "bool"
        },
        {
          "internalType": "bytes",
          "name": "data",
          "type": "bytes"
        }
      ],
      "name": "mint",
      "outputs": [],
      "stateMutability": "nonpayable",
      "type": "function"
    },
    {
      "inputs": [],
      "name": "name",
      "outputs": [
        {
          "internalType": "string",
          "name": "",
          "type": "string"
        }
      ],
      "stateMutability": "view",
      "type": "function"
    },
    {
      "inputs": [],
      "name": "owner",
      "outputs": [
        {
          "internalType": "address",
          "name": "",
          "type": "address"
        }
      ],
      "stateMutability": "view",
      "type": "function"
    },
    {
      "inputs": [
        {
          "internalType": "uint256",
          "name": "tokenId",
          "type": "uint256"
        }
      ],
      "name": "ownerOf",
      "outputs": [
        {
          "internalType": "address",
          "name": "",
          "type": "address"
        }
      ],
      "stateMutability": "view",
      "type": "function"
    },
    {
      "inputs": [],
      "name": "renounceOwnership",
      "outputs": [],
      "stateMutability": "nonpayable",
      "type": "function"
    },
    {
      "inputs": [
        {
          "internalType": "address",
          "name": "operator",
          "type": "address"
        },
        {
          "internalType": "bytes32",
          "name": "tokenId",
          "type": "bytes32"
        }
      ],
      "name": "revokeOperator",
      "outputs": [],
      "stateMutability": "nonpayable",
      "type": "function"
    },
    {
      "inputs": [
        {
          "internalType": "address",
          "name": "from",
          "type": "address"
        },
        {
          "internalType": "address",
          "name": "to",
          "type": "address"
        },
        {
          "internalType": "uint256",
          "name": "tokenId",
          "type": "uint256"
        }
      ],
      "name": "safeTransferFrom",
      "outputs": [],
      "stateMutability": "nonpayable",
      "type": "function"
    },
    {
      "inputs": [
        {
          "internalType": "address",
          "name": "from",
          "type": "address"
        },
        {
          "internalType": "address",
          "name": "to",
          "type": "address"
        },
        {
          "internalType": "uint256",
          "name": "tokenId",
          "type": "uint256"
        },
        {
          "internalType": "bytes",
          "name": "data",
          "type": "bytes"
        }
      ],
      "name": "safeTransferFrom",
      "outputs": [],
      "stateMutability": "nonpayable",
      "type": "function"
    },
    {
      "inputs": [
        {
          "internalType": "address",
          "name": "operator",
          "type": "address"
        },
        {
          "internalType": "bool",
          "name": "approved",
          "type": "bool"
        }
      ],
      "name": "setApprovalForAll",
      "outputs": [],
      "stateMutability": "nonpayable",
      "type": "function"
    },
    {
      "inputs": [
        {
          "internalType": "bytes32[]",
          "name": "dataKeys",
          "type": "bytes32[]"
        },
        {
          "internalType": "bytes[]",
          "name": "dataValues",
          "type": "bytes[]"
        }
      ],
      "name": "setData",
      "outputs": [],
      "stateMutability": "nonpayable",
      "type": "function"
    },
    {
      "inputs": [
        {
          "internalType": "bytes32",
          "name": "dataKey",
          "type": "bytes32"
        },
        {
          "internalType": "bytes",
          "name": "dataValue",
          "type": "bytes"
        }
      ],
      "name": "setData",
      "outputs": [],
      "stateMutability": "nonpayable",
      "type": "function"
    },
    {
      "inputs": [
        {
          "internalType": "bytes4",
          "name": "interfaceId",
          "type": "bytes4"
        }
      ],
      "name": "supportsInterface",
      "outputs": [
        {
          "internalType": "bool",
          "name": "",
          "type": "bool"
        }
      ],
      "stateMutability": "view",
      "type": "function"
    },
    {
      "inputs": [],
      "name": "symbol",
      "outputs": [
        {
          "internalType": "string",
          "name": "",
          "type": "string"
        }
      ],
      "stateMutability": "view",
      "type": "function"
    },
    {
      "inputs": [
        {
          "internalType": "address",
          "name": "tokenOwner",
          "type": "address"
        }
      ],
      "name": "tokenIdsOf",
      "outputs": [
        {
          "internalType": "bytes32[]",
          "name": "",
          "type": "bytes32[]"
        }
      ],
      "stateMutability": "view",
      "type": "function"
    },
    {
      "inputs": [
        {
          "internalType": "bytes32",
          "name": "tokenId",
          "type": "bytes32"
        }
      ],
      "name": "tokenOwnerOf",
      "outputs": [
        {
          "internalType": "address",
          "name": "",
          "type": "address"
        }
      ],
      "stateMutability": "view",
      "type": "function"
    },
    {
      "inputs": [
        {
          "internalType": "uint256",
          "name": "",
          "type": "uint256"
        }
      ],
      "name": "tokenURI",
      "outputs": [
        {
          "internalType": "string",
          "name": "",
          "type": "string"
        }
      ],
      "stateMutability": "view",
      "type": "function"
    },
    {
      "inputs": [],
      "name": "totalSupply",
      "outputs": [
        {
          "internalType": "uint256",
          "name": "",
          "type": "uint256"
        }
      ],
      "stateMutability": "view",
      "type": "function"
    },
    {
      "inputs": [
        {
          "internalType": "address",
          "name": "from",
          "type": "address"
        },
        {
          "internalType": "address",
          "name": "to",
          "type": "address"
        },
        {
          "internalType": "bytes32",
          "name": "tokenId",
          "type": "bytes32"
        },
        {
          "internalType": "bool",
          "name": "force",
          "type": "bool"
        },
        {
          "internalType": "bytes",
          "name": "data",
          "type": "bytes"
        }
      ],
      "name": "transfer",
      "outputs": [],
      "stateMutability": "nonpayable",
      "type": "function"
    },
    {
      "inputs": [
        {
          "internalType": "address[]",
          "name": "from",
          "type": "address[]"
        },
        {
          "internalType": "address[]",
          "name": "to",
          "type": "address[]"
        },
        {
          "internalType": "bytes32[]",
          "name": "tokenId",
          "type": "bytes32[]"
        },
        {
          "internalType": "bool[]",
          "name": "force",
          "type": "bool[]"
        },
        {
          "internalType": "bytes[]",
          "name": "data",
          "type": "bytes[]"
        }
      ],
      "name": "transferBatch",
      "outputs": [],
      "stateMutability": "nonpayable",
      "type": "function"
    },
    {
      "inputs": [
        {
          "internalType": "address",
          "name": "from",
          "type": "address"
        },
        {
          "internalType": "address",
          "name": "to",
          "type": "address"
        },
        {
          "internalType": "uint256",
          "name": "tokenId",
          "type": "uint256"
        }
      ],
      "name": "transferFrom",
      "outputs": [],
      "stateMutability": "nonpayable",
      "type": "function"
    },
    {
      "inputs": [
        {
          "internalType": "address",
          "name": "newOwner",
          "type": "address"
        }
      ],
      "name": "transferOwnership",
      "outputs": [],
      "stateMutability": "nonpayable",
      "type": "function"
    }
  ],
  "bytecode": {
    "object": "0x60806040523480156200001157600080fd5b506200001c62000022565b620000e4565b600054610100900460ff16156200008f5760405162461bcd60e51b815260206004820152602760248201527f496e697469616c697a61626c653a20636f6e747261637420697320696e697469604482015266616c697a696e6760c81b606482015260840160405180910390fd5b60005460ff9081161015620000e2576000805460ff191660ff9081179091556040519081527f7f26b83ff96e1f2b6a682f133852f6798a09c465da95921460cefb38474024989060200160405180910390a15b565b61299080620000f46000396000f3fe608060405234801561001057600080fd5b50600436106101e55760003560e01c806354f6127f1161010f578063a22cb465116100a2578063c87b56dd11610071578063c87b56dd14610430578063cf5182ba14610443578063e985e9c514610456578063f2fde38b1461049257600080fd5b8063a22cb465146103d7578063a3b261f2146103ea578063af255b611461040a578063b88d4fde1461041d57600080fd5b80637e87632c116100de5780637e87632c146103925780637f23690c146103a55780638da5cb5b146103b857806395d89b41146103cf57600080fd5b806354f6127f146103515780636352211e1461036457806370a0823114610377578063715018a61461038a57600080fd5b806318160ddd1161018757806342842e0e1161015657806342842e0e146102eb57806349a6078d146102fe5780634e3e6e9c1461031e578063511b69521461033e57600080fd5b806318160ddd146102a0578063217b2270146102b257806323b872dd146102c55780632a3654a4146102d857600080fd5b8063081812fc116101c3578063081812fc1461023c578063095ea7b3146102675780630b0c6d821461027a57806314a6e2931461028d57600080fd5b806301ffc9a7146101ea57806306fdde0314610212578063077f224a14610227575b600080fd5b6101fd6101f8366004611e11565b6104a5565b60405190151581526020015b60405180910390f35b61021a6104eb565b6040516102099190611e8b565b61023a610235366004611f7d565b610518565b005b61024f61024a366004611ff0565b610634565b6040516001600160a01b039091168152602001610209565b61023a610275366004612009565b61068b565b61023a610288366004612009565b6106e2565b61023a61029b36600461213b565b610784565b6002545b604051908152602001610209565b61024f6102c0366004611ff0565b610810565b61023a6102d336600461219e565b610849565b6101fd6102e6366004612009565b610869565b61023a6102f936600461219e565b610885565b61031161030c366004611ff0565b6108a5565b60405161020991906121da565b61033161032c366004612227565b6108c7565b604051610209919061225b565b61023a61034c3660046122cd565b61097a565b61021a61035f366004611ff0565b6109c9565b61024f610372366004611ff0565b6109d4565b6102a4610385366004612345565b6109df565b61023a610a00565b61023a6103a0366004612424565b610a14565b61023a6103b33660046124e8565b610b03565b6000546201000090046001600160a01b031661024f565b61021a610b19565b61023a6103e5366004612524565b610b46565b6103fd6103f8366004612345565b610b51565b6040516102099190612557565b61023a61041836600461258f565b610b75565b61023a61042b3660046125f6565b610b89565b61021a61043e366004611ff0565b610b97565b61023a610451366004612009565b610be5565b6101fd610464366004612645565b6001600160a01b03918216600090815260076020908152604080832093909416825291909152205460ff1690565b61023a6104a0366004612345565b610bef565b60006001600160e01b031982166380ac58cd60e01b14806104d657506001600160e01b03198216635b5e139f60e01b145b806104e557506104e582610c68565b92915050565b606060006104e57fdeba1e292f8ba88238e10ab3c7f88bd4be4fac56cad5194b6ecceaf653468af1610c8d565b600054610100900460ff16158080156105385750600054600160ff909116105b806105525750303b158015610552575060005460ff166001145b6105ba5760405162461bcd60e51b815260206004820152602e60248201527f496e697469616c697a61626c653a20636f6e747261637420697320616c72656160448201526d191e481a5b9a5d1a585b1a5e995960921b60648201526084015b60405180910390fd5b6000805460ff1916600117905580156105dd576000805461ff0019166101001790555b6105e8848484610d2f565b801561062e576000805461ff0019169055604051600181527f7f26b83ff96e1f2b6a682f133852f6798a09c465da95921460cefb38474024989060200160405180910390a15b50505050565b60008161064081610d61565b60008181526005602052604081209061065882610d99565b90508060000361066d57506000949350505050565b61068261067b600183612685565b8390610da3565b95945050505050565b6106958282610be5565b806001600160a01b0383166106a982610810565b6001600160a01b03167f8c5be1e5ebec7d5bd14f71427d1e84f3dd0314c0f7b2291e5b200ac8c7c3b92560405160405180910390a45050565b60006106ed82610810565b9050336001600160a01b038216811461073357604051632d938f5160e11b81526001600160a01b03808416600483015260248201859052821660448201526064016105b1565b6001600160a01b03841661075a57604051639577b8b360e01b815260040160405180910390fd5b836001600160a01b0316826001600160a01b0316036107795750505050565b61062e848385610daf565b61078c610e40565b80518251146107bb57815181516040516321d1e13360e11b8152600481019290925260248201526044016105b1565b60005b825181101561080b576108038382815181106107dc576107dc612698565b60200260200101518383815181106107f6576107f6612698565b6020026020010151610ea1565b6001016107be565b505050565b6000818152600360205260408120546001600160a01b0316806104e557604051635747cd1b60e11b8152600481018490526024016105b1565b61080b83838360001b600160405180602001604052806000815250610eab565b600061087482610d61565b61087e8383610f67565b9392505050565b61080b83838360001b600060405180602001604052806000815250610eab565b60606108b082610d61565b60008281526005602052604090206104e590610fb0565b606081516001600160401b038111156108e2576108e2611e9e565b60405190808252806020026020018201604052801561091557816020015b60608152602001906001900390816109005790505b50905060005b82518110156109745761094683828151811061093957610939612698565b6020026020010151610c8d565b82828151811061095857610958612698565b602002602001018190525061096d8160010190565b905061091b565b50919050565b336109858185610f67565b6109b457604051631294d2a960e01b8152600481018590526001600160a01b03821660248201526044016105b1565b6109c18686868686610eab565b505050505050565b60606104e582610c8d565b60006104e582610810565b6001600160a01b03811660009081526004602052604081206104e590610d99565b610a08610e40565b610a126000610fbd565b565b8451845181141580610a27575083518114155b80610a33575082518114155b80610a3f575081518114155b15610a5d576040516393a8311960e01b815260040160405180910390fd5b60005b81811015610afa57610af2878281518110610a7d57610a7d612698565b6020026020010151878381518110610a9757610a97612698565b6020026020010151878481518110610ab157610ab1612698565b6020026020010151878581518110610acb57610acb612698565b6020026020010151878681518110610ae557610ae5612698565b602002602001015161097a565b600101610a60565b50505050505050565b610b0b610e40565b610b158282610ea1565b5050565b606060006104e57f2f0a68ab07768e01943a599e73362a0e17a63a72e94dd2e384d2c1d4db932756610c8d565b610b15338383611033565b6001600160a01b03811660009081526004602052604090206060906104e590611111565b610b7d610e40565b61062e8484848461111c565b61062e848484600085610eab565b60606000610bc47f9afb95cacc9f95858ec44aa8c3b685511002e30ae54415823f406128b85b238e610c8d565b905060006024905060006106828383848651610be09190612685565b611166565b6106958282611273565b610bf7610e40565b6001600160a01b038116610c5c5760405162461bcd60e51b815260206004820152602660248201527f4f776e61626c653a206e6577206f776e657220697320746865207a65726f206160448201526564647265737360d01b60648201526084016105b1565b610c6581610fbd565b50565b60006001600160e01b0319821663622e7a0160e01b14806104e557506104e58261139c565b6000818152600160205260409020805460609190610caa906126ae565b80601f0160208091040260200160405190810160405280929190818152602001828054610cd6906126ae565b8015610d235780601f10610cf857610100808354040283529160200191610d23565b820191906000526020600020905b815481529060010190602001808311610d0657829003601f168201915b50505050509050919050565b600054610100900460ff16610d565760405162461bcd60e51b81526004016105b1906126e2565b61080b8383836113d1565b6000818152600360205260409020546001600160a01b0316610c6557604051635747cd1b60e11b8152600481018290526024016105b1565b60006104e5825490565b600061087e8383611403565b6000818152600560205260408120610dc7908561142d565b905080610df9576040516312a8c6a360e21b81526001600160a01b0385166004820152602481018390526044016105b1565b81836001600160a01b0316856001600160a01b03167f17d5389f6ab6adb2647dfa0aa365c323d37adacc30b33a65310b6158ce1373d560405160405180910390a450505050565b6000546001600160a01b0362010000909104163314610a125760405162461bcd60e51b815260206004820181905260248201527f4f776e61626c653a2063616c6c6572206973206e6f7420746865206f776e657260448201526064016105b1565b610b158282611442565b6001600160a01b03851660009081526007602090815260408083203380855292529091205460ff16158015610ee75750610ee58185610f67565b155b15610f1757604051631294d2a960e01b8152600481018590526001600160a01b03821660248201526044016105b1565b610f248686868686611536565b60405184906001600160a01b0380881691908916907fddf252ad1be2c89b69c2b068fc378daa952ba7f163c4a11628f55a4df523b3ef90600090a4505050505050565b600080610f7383610810565b9050806001600160a01b0316846001600160a01b03161480610fa857506000838152600560205260409020610fa890856116c0565b949350505050565b6060600061087e836116e2565b6000546001600160a01b03828116620100009092041614610c6557600080546001600160a01b038381166201000081810262010000600160b01b0319851617855560405193049190911692909183917f8be0079c531659141344cd1fd0a4f28419497f9722a3daafe3b4186f6b6457e091a35050565b816001600160a01b0316836001600160a01b0316036110a45760405162461bcd60e51b815260206004820152602760248201527f4c535038436f6d70617469626c654552433732313a20617070726f766520746f6044820152661031b0b63632b960c91b60648201526084016105b1565b6001600160a01b03838116600081815260076020908152604080832094871680845294825291829020805460ff191686151590811790915591519182527f17307eab39ab6107e8899845ad3d59bd9653f200f220920489ca2b5937696c31910160405180910390a3505050565b60606104e5826116e2565b6111288484848461173d565b60405183906001600160a01b038616906000907fddf252ad1be2c89b69c2b068fc378daa952ba7f163c4a11628f55a4df523b3ef908290a450505050565b60608161117481601f61272d565b10156111b35760405162461bcd60e51b815260206004820152600e60248201526d736c6963655f6f766572666c6f7760901b60448201526064016105b1565b6111bd828461272d565b845110156112015760405162461bcd60e51b8152602060048201526011602482015270736c6963655f6f75744f66426f756e647360781b60448201526064016105b1565b606082158015611220576040519150600082526020820160405261126a565b6040519150601f8416801560200281840101858101878315602002848b0101015b81831015611259578051835260209283019201611241565b5050858452601f01601f1916604052505b50949350505050565b600061127e82610810565b9050336001600160a01b03821681146112c457604051632d938f5160e11b81526001600160a01b03808416600483015260248201859052821660448201526064016105b1565b6001600160a01b0384166112eb57604051639577b8b360e01b815260040160405180910390fd5b836001600160a01b0316826001600160a01b03160361130a5750505050565b60008381526005602052604081206113229086611857565b905080611354576040516314ec4d6d60e31b81526001600160a01b0386166004820152602481018590526044016105b1565b83836001600160a01b0316866001600160a01b03167f34b797fc5a526f7bf1d2b5de25f6564fd85ae364e3ee939aee7c1ac27871a98860405160405180910390a45050505050565b60006001600160e01b03198216631c537ddf60e21b14806104e557506301ffc9a760e01b6001600160e01b03198316146104e5565b600054610100900460ff166113f85760405162461bcd60e51b81526004016105b1906126e2565b61080b83838361186c565b600082600001828154811061141a5761141a612698565b9060005260206000200154905092915050565b600061087e836001600160a01b03841661189e565b7f2145e1d6d074577dc71ef54c3807742b41b053a9352ae6b491331509acb9750f8201611482576040516385c169bd60e01b815260040160405180910390fd5b7fd0f59754f88971fe6bc5a6618cc9d5f1e859c58d16b22d1c7b2d3e2b246cd8aa82016114c257604051630eceab6760e31b815260040160405180910390fd5b60008281526001602052604090206114da8282612786565b50817fece574603820d07bc9b91f2a932baadf4628aabcb8afba49776529c14a6104b26101008351111561151b57611516836000610100611166565b61151d565b825b60405161152a9190611e8b565b60405180910390a25050565b836001600160a01b0316856001600160a01b03160361156857604051635d67d6c160e01b815260040160405180910390fd5b600061157384610810565b9050856001600160a01b0316816001600160a01b0316146115c157604051632d938f5160e11b81526001600160a01b03808316600483015260248201869052871660448201526064016105b1565b6001600160a01b0385166115e8576040516324ecef4d60e01b815260040160405180910390fd5b336115f38786611991565b6001600160a01b038716600090815260046020526040902061161590866119d8565b506001600160a01b038616600090815260046020526040902061163890866119e4565b506000858152600360205260409081902080546001600160a01b0319166001600160a01b0389811691821790925591518792918a16907fb333c813a7426a7a11e2b190cad52c44119421594b47f6f32ace6d8c7207b2bf9061169f9086908a908a90612845565b60405180910390a46116b3878787866119f0565b610afa8787878787611ac4565b6001600160a01b0381166000908152600183016020526040812054151561087e565b606081600001805480602002602001604051908101604052809291908181526020018280548015610d2357602002820191906000526020600020905b81548152602001906001019080831161171e5750505050509050919050565b6001600160a01b038416611764576040516324ecef4d60e01b815260040160405180910390fd5b6000838152600360205260409020546001600160a01b03161561179d576040516334c7b51160e01b8152600481018490526024016105b1565b336001600260008282546117b1919061272d565b90915550506001600160a01b03851660009081526004602052604090206117d890856119e4565b5060008481526003602052604080822080546001600160a01b0319166001600160a01b03891690811790915590518692907fb333c813a7426a7a11e2b190cad52c44119421594b47f6f32ace6d8c7207b2bf9061183a90869089908990612845565b60405180910390a4611850600086868686611ac4565b5050505050565b600061087e836001600160a01b038416611bfc565b600054610100900460ff166118935760405162461bcd60e51b81526004016105b1906126e2565b61080b838383611c4b565b600081815260018301602052604081205480156119875760006118c2600183612685565b85549091506000906118d690600190612685565b905081811461193b5760008660000182815481106118f6576118f6612698565b906000526020600020015490508087600001848154811061191957611919612698565b6000918252602080832090910192909255918252600188019052604090208390555b855486908061194c5761194c612871565b6001900381819060005260206000200160009055905585600101600086815260200190815260200160002060009055600193505050506104e5565b60009150506104e5565b6000818152600560205260408120906119a982610d99565b905060005b818110156118505760006119c28482610da3565b90506119cf818787610daf565b506001016119ae565b600061087e838361189e565b600061087e8383611bfc565b611a0184631aed5a8560e21b611d18565b1561062e57600084848484604051602001611a1f9493929190612887565b60408051601f1981840301815290829052631aed5a8560e21b825291506001600160a01b03861690636bb56a1490611a7d907fb23eae7e6d1564b295b4c3e3be402d9a2f0776c57bdf365903496f6fa481ab009085906004016128d4565b6000604051808303816000875af1158015611a9c573d6000803e3d6000fd5b505050506040513d6000823e601f3d908101601f191682016040526109c191908101906128ed565b611ad584631aed5a8560e21b611d18565b15611b9f57600085858584604051602001611af39493929190612887565b60408051601f1981840301815290829052631aed5a8560e21b825291506001600160a01b03861690636bb56a1490611b51907f0b084a55ebf70fd3c06fd755269dac2212c4d3f0f4d09079780bfa50c1b2984d9085906004016128d4565b6000604051808303816000875af1158015611b70573d6000803e3d6000fd5b505050506040513d6000823e601f3d908101601f19168201604052611b9891908101906128ed565b5050611850565b81611850576001600160a01b0384163b15611bd857604051634349776d60e01b81526001600160a01b03851660048201526024016105b1565b604051630317313760e01b81526001600160a01b03851660048201526024016105b1565b6000818152600183016020526040812054611c43575081546001818101845560008481526020808220909301849055845484825282860190935260409020919091556104e5565b5060006104e5565b600054610100900460ff16611c725760405162461bcd60e51b81526004016105b1906126e2565b611c7b81611da1565b611cc47feafec4d89fa9619884b60000a4d96624a38f7ac2d8d9a604ecf07c12c77e480c60001b604051806040016040528060048152602001632936598960e21b815250611dc8565b611cee7fdeba1e292f8ba88238e10ab3c7f88bd4be4fac56cad5194b6ecceaf653468af184611dc8565b61080b7f2f0a68ab07768e01943a599e73362a0e17a63a72e94dd2e384d2c1d4db93275683611dc8565b604080516001600160e01b03198316602480830191909152825180830390910181526044909101909152602080820180516001600160e01b03166301ffc9a760e01b178152825160009392849283928392918391908a617530fa92503d91506000519050828015611d8a575060208210155b8015611d965750600081115b979650505050505050565b600054610100900460ff16610bf75760405162461bcd60e51b81526004016105b1906126e2565b6000828152600160205260409020611de08282612786565b50817fece574603820d07bc9b91f2a932baadf4628aabcb8afba49776529c14a6104b28260405161152a9190611e8b565b600060208284031215611e2357600080fd5b81356001600160e01b03198116811461087e57600080fd5b60005b83811015611e56578181015183820152602001611e3e565b50506000910152565b60008151808452611e77816020860160208601611e3b565b601f01601f19169290920160200192915050565b60208152600061087e6020830184611e5f565b634e487b7160e01b600052604160045260246000fd5b604051601f8201601f191681016001600160401b0381118282101715611edc57611edc611e9e565b604052919050565b60006001600160401b03821115611efd57611efd611e9e565b50601f01601f191660200190565b600082601f830112611f1c57600080fd5b8135611f2f611f2a82611ee4565b611eb4565b818152846020838601011115611f4457600080fd5b816020850160208301376000918101602001919091529392505050565b80356001600160a01b0381168114611f7857600080fd5b919050565b600080600060608486031215611f9257600080fd5b83356001600160401b0380821115611fa957600080fd5b611fb587838801611f0b565b94506020860135915080821115611fcb57600080fd5b50611fd886828701611f0b565b925050611fe760408501611f61565b90509250925092565b60006020828403121561200257600080fd5b5035919050565b6000806040838503121561201c57600080fd5b61202583611f61565b946020939093013593505050565b60006001600160401b0382111561204c5761204c611e9e565b5060051b60200190565b600082601f83011261206757600080fd5b81356020612077611f2a83612033565b82815260059290921b8401810191818101908684111561209657600080fd5b8286015b848110156120b1578035835291830191830161209a565b509695505050505050565b600082601f8301126120cd57600080fd5b813560206120dd611f2a83612033565b82815260059290921b840181019181810190868411156120fc57600080fd5b8286015b848110156120b15780356001600160401b0381111561211f5760008081fd5b61212d8986838b0101611f0b565b845250918301918301612100565b6000806040838503121561214e57600080fd5b82356001600160401b038082111561216557600080fd5b61217186838701612056565b9350602085013591508082111561218757600080fd5b50612194858286016120bc565b9150509250929050565b6000806000606084860312156121b357600080fd5b6121bc84611f61565b92506121ca60208501611f61565b9150604084013590509250925092565b6020808252825182820181905260009190848201906040850190845b8181101561221b5783516001600160a01b0316835292840192918401916001016121f6565b50909695505050505050565b60006020828403121561223957600080fd5b81356001600160401b0381111561224f57600080fd5b610fa884828501612056565b6000602080830181845280855180835260408601915060408160051b870101925083870160005b828110156122b057603f1988860301845261229e858351611e5f565b94509285019290850190600101612282565b5092979650505050505050565b80358015158114611f7857600080fd5b600080600080600060a086880312156122e557600080fd5b6122ee86611f61565b94506122fc60208701611f61565b935060408601359250612311606087016122bd565b915060808601356001600160401b0381111561232c57600080fd5b61233888828901611f0b565b9150509295509295909350565b60006020828403121561235757600080fd5b61087e82611f61565b600082601f83011261237157600080fd5b81356020612381611f2a83612033565b82815260059290921b840181019181810190868411156123a057600080fd5b8286015b848110156120b1576123b581611f61565b83529183019183016123a4565b600082601f8301126123d357600080fd5b813560206123e3611f2a83612033565b82815260059290921b8401810191818101908684111561240257600080fd5b8286015b848110156120b157612417816122bd565b8352918301918301612406565b600080600080600060a0868803121561243c57600080fd5b85356001600160401b038082111561245357600080fd5b61245f89838a01612360565b9650602088013591508082111561247557600080fd5b61248189838a01612360565b9550604088013591508082111561249757600080fd5b6124a389838a01612056565b945060608801359150808211156124b957600080fd5b6124c589838a016123c2565b935060808801359150808211156124db57600080fd5b50612338888289016120bc565b600080604083850312156124fb57600080fd5b8235915060208301356001600160401b0381111561251857600080fd5b61219485828601611f0b565b6000806040838503121561253757600080fd5b61254083611f61565b915061254e602084016122bd565b90509250929050565b6020808252825182820181905260009190848201906040850190845b8181101561221b57835183529284019291840191600101612573565b600080600080608085870312156125a557600080fd5b6125ae85611f61565b9350602085013592506125c3604086016122bd565b915060608501356001600160401b038111156125de57600080fd5b6125ea87828801611f0b565b91505092959194509250565b6000806000806080858703121561260c57600080fd5b61261585611f61565b935061262360208601611f61565b92506040850135915060608501356001600160401b038111156125de57600080fd5b6000806040838503121561265857600080fd5b61266183611f61565b915061254e60208401611f61565b634e487b7160e01b600052601160045260246000fd5b818103818111156104e5576104e561266f565b634e487b7160e01b600052603260045260246000fd5b600181811c908216806126c257607f821691505b60208210810361097457634e487b7160e01b600052602260045260246000fd5b6020808252602b908201527f496e697469616c697a61626c653a20636f6e7472616374206973206e6f74206960408201526a6e697469616c697a696e6760a81b606082015260800190565b808201808211156104e5576104e561266f565b601f82111561080b57600081815260208120601f850160051c810160208610156127675750805b601f850160051c820191505b818110156109c157828155600101612773565b81516001600160401b0381111561279f5761279f611e9e565b6127b3816127ad84546126ae565b84612740565b602080601f8311600181146127e857600084156127d05750858301515b600019600386901b1c1916600185901b1785556109c1565b600085815260208120601f198616915b82811015612817578886015182559484019460019091019084016127f8565b50858210156128355787850151600019600388901b60f8161c191681555b5050505050600190811b01905550565b6001600160a01b0384168152821515602082015260606040820181905260009061068290830184611e5f565b634e487b7160e01b600052603160045260246000fd5b60006bffffffffffffffffffffffff19808760601b168352808660601b1660148401525083602883015282516128c4816048850160208701611e3b565b9190910160480195945050505050565b828152604060208201526000610fa86040830184611e5f565b6000602082840312156128ff57600080fd5b81516001600160401b0381111561291557600080fd5b8201601f8101841361292657600080fd5b8051612934611f2a82611ee4565b81815285602083850101111561294957600080fd5b610682826020830160208601611e3b56fea26469706673582212208feaf9580686cdf819318b0caa3c00bae28956ae5ee0826b580035df646984d664736f6c63430008110033",
    "linkReferences": {}
  },
  "methodIdentifiers": {
    "approve(address,uint256)": "095ea7b3",
    "authorizeOperator(address,bytes32)": "cf5182ba",
    "balanceOf(address)": "70a08231",
    "getApproved(uint256)": "081812fc",
    "getData(bytes32)": "54f6127f",
    "getData(bytes32[])": "4e3e6e9c",
    "getOperatorsOf(bytes32)": "49a6078d",
    "initialize(string,string,address)": "077f224a",
    "isApprovedForAll(address,address)": "e985e9c5",
    "isOperatorFor(address,bytes32)": "2a3654a4",
    "mint(address,bytes32,bool,bytes)": "af255b61",
    "name()": "06fdde03",
    "owner()": "8da5cb5b",
    "ownerOf(uint256)": "6352211e",
    "renounceOwnership()": "715018a6",
    "revokeOperator(address,bytes32)": "0b0c6d82",
    "safeTransferFrom(address,address,uint256)": "42842e0e",
    "safeTransferFrom(address,address,uint256,bytes)": "b88d4fde",
    "setApprovalForAll(address,bool)": "a22cb465",
    "setData(bytes32,bytes)": "7f23690c",
    "setData(bytes32[],bytes[])": "14a6e293",
    "supportsInterface(bytes4)": "01ffc9a7",
    "symbol()": "95d89b41",
    "tokenIdsOf(address)": "a3b261f2",
    "tokenOwnerOf(bytes32)": "217b2270",
    "tokenURI(uint256)": "c87b56dd",
    "totalSupply()": "18160ddd",
    "transfer(address,address,bytes32,bool,bytes)": "511b6952",
    "transferBatch(address[],address[],bytes32[],bool[],bytes[])": "7e87632c",
    "transferFrom(address,address,uint256)": "23b872dd",
    "transferOwnership(address)": "f2fde38b"
  },
  "id": 78
}